:020000040000FA
:10000000E87E0010E1000000E5000000E7000000CD
:10001000E9000000EB000000ED000000000000001F
:10002000000000000000000000000000EF000000E1
:10003000F100000000000000F3000000E1080200F1
:10004000F70000009D340200C9340200F7000000F0
:10005000F7000000E1610200F7000000F700000077
:10006000F7000000F7000000F7000000F7000000B4
:10007000F7000000F7000000F7000000F7000000A4
:10008000F7000000F7000000F7000000F700000094
:10009000F7000000F7000000C5580000F70000005E
:1000A000F7000000A35F0200F7000000F700000067
:1000B00041780200F7000000F7000000F7000000A0
:1000C000F7000000F7000000F7000000DFF80CD098
:1000D00027F03EFC004800475F0A0200E87E00105F
:1000E00005480047FEE7FEE7FEE7FEE7FEE7FEE71E
:1000F000FEE7FEE7FEE7FEE7CD000000FEE710B5F5
:1001000028F002F928F05EF928F050F9AFF30080EA
:10011000BDE8104028F01CB910B528F0DDFE29F02C
:1001200091FABDE8104028F02FBF28F043BE28F018
:100130000BBC09B10020704728F00EB800207047B2
:1001400070B5374A0020A2F11401064601F10A03F6
:100150000C5C54B11D5CAC4207D1145C2CB1641E24
:1001600014F0FF04145400D10E540C5C1C54401CB9
:10017000C0B20A28ECD370BD70B5294D0024143DDF
:10018000641CE4B22E5D1EB1864201D00A2CF7D366
:10019000285523480C3040F82410283040F82420FB
:1001A0003438035570BD1E4A0021143A491CC9B2A7
:1001B000535C834201D00A29F8D3DBB2834210D1C9
:1001C00017480C3050F8213016480360144B343374
:1001D00053F82130436000205054114A50540120FC
:1001E0007047002070470E4A0021143A491CC9B2DA
:1001F000535C834201D00A29F8D3DAB282420CD18F
:1002000007480C3050F8212006480260044A343276
:1002100052F8211041600120704700207047000013
:100220007C6A0010A80000100C4BDA60187059703E
:1002300070470A4A116190707047084908817047F9
:100240000648B0F90810002907D0491E09B20181FB
:10025000002902D1084600F0C4BF7047B00000106A
:1002600090F900308B4200DA027090F9003093422E
:1002700000DD0170704790F900308B4200DA0170A8
:1002800090F90010914200DD02707047B0F9003023
:100290008B4200DA0180B0F90010914200DD02804B
:1002A0007047B0F900308B4200DA0280B0F90030BC
:1002B000934200DD01807047FE21C0B227F034BBBD
:1002C0008021C0B227F030BB1C21C0B227F02CBB6C
:1002D0007021C0B227F028BB40EA01039B0703D07E
:1002E00009E008C9121F08C0042AFAD203E011F875
:1002F000013B00F8013B521EF9D27047FFFFFFFFA0
:10030000002801DA404200B270470020F84A20215C
:100310001154401CC0B2C828FAD370470146F44AB1
:100320000020401CC0B2135C8B4201D0C828F8D317
:10033000704710B50021EF4C0A2200BFB0FBF2F36A
:1003400002FB13006054491CC9B218460529F5D3B5
:1003500010BDF0B5E84B0121202719700521E54AB1
:10036000002601E01C7844B1541814F8015C25B94A
:10037000814202D904F8017C05E0541814F8015DAB
:10038000303525701E70491E11F0FF01EAD1F0BD15
:10039000FEB52B23002802DA404200B22D230025AF
:1003A0000A266C4690FBF6F706FB170060556D1C9D
:1003B0006DB238B20A2DF5DB012600250920202771
:1003C00000E046B114F800C0BCF1000F03D1904228
:1003D00001DD275405E0265C3036265400266D1CCE
:1003E000EDB2401E40B20028EBDA2D2B02D163554E
:1003F0006D1CEDB26AB168B205E0231813F8013C38
:100400002354401E40B29042F7DC2E206D1CA054B5
:10041000EDB20846FFF782FF0021B54A04E0635CB5
:10042000461A491C935549B2A942F8DBFEBDFEB5F8
:100430002B23002801DA40422D2300250A266C4692
:10044000074690FBF6F006FB107767556D1C6DB202
:100450000A2DF5DB012600250920202700E046B102
:1004600014F800C0BCF1000F03D1904201DD275405
:1004700005E0265C3036265400266D1CEDB2401E89
:1004800040B20028EBDA2D2B02D163556D1CEDB282
:100490006AB168B205E0231813F8013C2354401EEA
:1004A00040B29042F7DC2E206D1CA054EDB20846FD
:1004B000FFF734FF00218E4A04E0635C461A491CB2
:1004C000935549B2A942F8DBFEBDFEB52B260028A4
:1004D00001DA40422D2600240A276D46844690FB0F
:1004E000F7F007FB10CC05F804C0641C64B20A2CBA
:1004F000F4DB0127002009244FF0200C00E04FB16D
:1005000015F804E0BEF1000F04D19C4202DD05F8AD
:1005100004C005E02F5D30372F550027401CC0B2C6
:10052000641E64B2002CEADA2D2E02D12E54401C37
:10053000C0B26BB144B205E02E1916F8016C2E550D
:10054000641E64B29C42F7DC2E24401CEC54C0B202
:1005500001EB810102EB8101CAB20021644B04E08E
:100560006C5C561A491C9C5549B28142F8DBFEBDB1
:1005700070B50D4616461C46FFF7DBFE601CC0B288
:10058000FFF7E7FE05EB850006EB8000C1B2594A94
:10059000574B0020A04201D2155C5D5406D3155C78
:1005A000202D03D04CB15E1806F8015C491E401C9A
:1005B000C0B2C9B20528EDD370BD5D54F6E730B5C1
:1005C000044608461546FFF7A9FEFF2809D0484A09
:1005D0002178002905D04319641C401CD154C0B2B5
:1005E000F6E730BD70B50D461446FFF7A2FE601C5D
:1005F000C0B2FFF7AEFE2846FFF790FE3D4B3C4AE7
:10060000002124B95D5C202D01D015540FE0A142DA
:1006100001D25D5CF9E704D14FF02E0515545D5C05
:1006200002E05D5C202D02D0161806F8015C401E29
:10063000491CC9B2C0B20529E3D370BD801801D5E9
:10064000084402E0884200DB401AC0B270472DE93E
:10065000FE4F04460D464FF4606023F0F3FB624208
:100660004021FFF7EBFF400100F58060044602A93E
:1006700023F065FC694604F1080023F060FC01A941
:1006800004F10C0023F05BFC2846FFF747FE06460A
:100690009DF8080040273025DFF860B0DFF850A053
:1006A00020244FF0210C4FF02309552828D0CF22C9
:1006B000D123502873D0422872D0532871D04928B2
:1006C0006BD1C8210AF80610761CF1B2ED220AF8A7
:1006D0000120491CC9B2E2220AF80120491C9DF8F8
:1006E00009205046C9B2092A7ED231324254FEE373
:1006F000F002001054C0072059C0072000400240FB
:100700009DF80A0052280ED1C2210AF80610761C64
:10071000F1B2EA220AF80120491CC9B2EB220AF818
:100720000120491CCEB25046B1E300BF9DF8012024
:1007300096F838309A4267D19DF8022096F82C300E
:100740009A42F8D14554491CC9B23A2200F801C076
:10075000491CC9B24254491CC9B24554491CC9B2CA
:100760004754491CC9B24254491CC9B200224554DD
:10077000491CC9B20AF801909DF804002121FFF735
:1007800031FF9DF8050000224021FFF72BFF9DF867
:10079000060000222321FFF725FFBDE8FE8F0BE0B6
:1007A00033E04BE39DF80110FD48002200EB81008F
:1007B0004021FFF704FFF0E70AF80620761CF1B2AB
:1007C00050460AF80130491CC9B20AF80140491CD8
:1007D000C9B20AF80140491CC9B20AF80140491CD3
:1007E000C9B20AF8014000E095E3491CC9B219E317
:1007F0009DF8013092F83860B3429CD19DF80230E8
:1008000092F82C2093429DD055E39DF80A0043288E
:100810007CD1C1210AF80610761CF1B2E0220AF858
:100820000120491CC9B2F2220AF80120491CCEB2AB
:100830009DF809105046092906D231318155761CA0
:10084000F1B2C022425419E0A1F109025A2A11D290
:10085000491C0A23B1FBF3F2904630328255761CD4
:1008600003FB1811F6B230318155761CF1B2C0226B
:10087000425406E08455761CF1B24454491CC9B276
:100880004454491CC9B25E464454491C9DF800209A
:10089000BBF83C30C9B29A4239D19DF8012096F894
:1008A00038309A4233D19DF8022096F82C309A4283
:1008B0002DD14554491CC9B23A2200F801C0491C47
:1008C000C9B24254491CC9B24554491CC9B2475423
:1008D000491CC9B24254491CC9B200224554491CA2
:1008E000C9B20AF80190491CCEB29DF8040021213A
:1008F000FFF778FE9DF8050000224021FFF772FE09
:100900009DF8060000222321FFF76CFE36E04454D8
:10091000491CC9B200224554491CC9B200F801C0A3
:10092000491CC9B24754491CC9B24454491CC9B2F4
:100930004454491CC9B24554491CC9B20AF8019033
:10094000491CCEB29DF802002121FFF74BFE9DF815
:10095000000000222321FFF745FE9DF80100401E04
:100960000C2802D301208DF801009DF801108C485D
:10097000002200EB81004021FFF721FE9DF80A00D4
:10098000532873D1C1210AF80610761CF1B2E02277
:100990000AF80120491CC9B2F2220AF80120491CB8
:1009A0009DF8092043235046C9B2092A09D23132A1
:1009B0004254491CC9B2C0224254491CC9B24354D2
:1009C0000FE0093A5A2A05D2C0224254491CC9B242
:1009D000435403E04454491CC9B24454491CC9B2AD
:1009E0004454491CC9B25E464454491C9DF8002039
:1009F000BBF83C30C9B29A4239D19DF8012096F833
:100A000038309A4233D19DF8022096F82C309A4221
:100A10002DD14554491CC9B23A2200F801C0491CE5
:100A2000C9B24254491CC9B24554491CC9B24754C1
:100A3000491CC9B24254491CC9B200224554491C40
:100A4000C9B20AF80190491CCEB29DF804002121D8
:100A5000FFF7C8FD9DF8050000224021FFF7C2FD09
:100A60009DF8060000222321FFF7BCFD36E0445428
:100A7000491CC9B200224554491CC9B200F801C042
:100A8000491CC9B24754491CC9B24454491CC9B293
:100A90004454491CC9B24554491CC9B20AF80190D2
:100AA000491CCEB29DF802002121FFF79BFD9DF865
:100AB000000000222321FFF795FD9DF80100401E54
:100AC0000C2802D301208DF801009DF80110344854
:100AD000002200EB81004021FFF771FD9DF80A0024
:100AE0005A285CD1C2210AF80610761CF1B2C7223E
:100AF0000AF80120491CC9B250460AF80140491CB5
:100B0000C9B25E460AF80140491CC9B20AF8014060
:100B1000491CC9B24454491CC9B24454491C9DF8EB
:100B20000020BBF83C30C9B29A423BD19DF801206D
:100B300096F838309A4235D19DF8022096F82C303C
:100B40009A422FD14554491CC9B23A2200F801C03B
:100B5000491CC9B24254491CC9B24554491CC9B2C6
:100B60004754491CC9B24254491CC9B200224554D9
:100B7000491CC9B20AF80190491CCEB29DF8040084
:100B80002121FFF72FFD9DF8050000224021FFF7EE
:100B900029FD9DF8060000222321FFF723FD38E000
:100BA000BCA302004454491CC9B200224554491C4C
:100BB000C9B200F801C0491CC9B24754491CC9B2A6
:100BC0004454491CC9B24454491CC9B24554491C37
:100BD000C9B20AF80190491CCEB29DF80200212149
:100BE000FFF700FD9DF8000000222321FFF7FAFC2B
:100BF0009DF80100401E0C2802D301208DF8010051
:100C00009DF80110FE48002200EB81004021FFF713
:100C1000D6FC9DF80A0057287DD1C1210AF806109C
:100C2000761CF1B2E0220AF80120491CC9B2F22276
:100C30000AF80120491CCEB29DF8091050464FF029
:100C4000F00E092906D231318155761CF1B200F837
:100C500001E019E0A1F109025A2A11D2491C0A2324
:100C6000B1FBF3F2904630328255761C03FB18112B
:100C7000F6B230318155761CF1B200F801E006E0A1
:100C80008455761CF1B24454491CC9B24454491CE1
:100C9000C9B25E464454491C9DF80020BBF83C3064
:100CA000C9B29A423BD19DF8012096F838309A4259
:100CB00035D19DF8022096F82C309A422FD1455418
:100CC000491CC9B23A2200F801C0491CC9B24254B9
:100CD000491CC9B24554491CC9B24754491CC9B240
:100CE0004254491CC9B200224554491CC9B20AF8F1
:100CF0000190491CCEB29DF804002121FFF772FC3F
:100D00009DF8050000224021FFF76CFC00229DF8B1
:100D10000600232100E039E0FFF764FC36E044548C
:100D2000491CC9B200224554491CC9B200F801C08F
:100D3000491CC9B24754491CC9B24454491CC9B2E0
:100D40004454491CC9B24554491CC9B20AF801901F
:100D5000491CCEB29DF802002121FFF743FC9DF80B
:100D6000000000222321FFF73DFC9DF80100401EFA
:100D70000C2802D301208DF801009DF80110A04835
:100D8000002200EB81004021FFF719FC9DF80A00CA
:100D90004B287FF410ADC1210AF80610761CF1B281
:100DA000E0220AF80120491CC9B2F2220AF8012007
:100DB000491C9DF80900C9B209280BD231300AF844
:100DC0000100491CC8B2EA210AF80010401CC0B258
:100DD000E52115E0A0F109025A2A16D2401C0A2387
:100DE000B0FBF3F2904630320AF80120491C03FBB5
:100DF0001800C9B230300AF80100491CC8B2EA2113
:100E00000AF80010401CC1B20BE00AF80140491C6E
:100E1000C9B20AF80140491CC9B20AF80140491C8C
:100E2000C9B250465A464454491C9DF80030BBF89C
:100E30003C60C9B2B3423FF4DBAC3CE0C1210AF8EC
:100E40000610761CF1B250460AF80120491CC9B2BE
:100E50000AF80130491CCEB29DF80910092902D2C6
:100E60003131815514E0A1F109025A2A0FD2491CEF
:100E70000A23B1FBF3F2904630328255761C03FB15
:100E80001811F6B230318155761CF1B205E0845567
:100E9000761CF1B24454491CC9B25E464454491C04
:100EA000C9B24454491C9DF80020BBF83C30C9B27B
:100EB0009A423FF43BAC4454491CC9B24554491CC6
:100EC000C9B200F801C0491CC9B24754491CC9B293
:100ED0004454491CC9B24454491CC9B24554491C24
:100EE000C9B200220AF801909DF8020000E025E056
:100EF0002121FFF777FB9DF8000000222321FFF757
:100F000071FB9DF80100401E0C28FFF44BAC012042
:100F10008DF8010046E4A2F109035A2B0DD2521CB0
:100F20000A25B2FBF5F303F130064654491C05FBD4
:100F30001322C9B23032425403E04454491CC9B2AE
:100F40004454491CC9B20AF8014026E470B504466D
:100F5000084615461E46FFF7E1F92A4B0146FF28D1
:100F600004D106E01A54641C401CC0B22278002A46
:100F7000F8D125480078002804D0002E02D029445A
:100F80005F20585470BD2DE9FF4F8146DDE90D0407
:100F90008A469346FFF7C2F92022DFF86C80194990
:100FA0000A234FF0640C012C09D198F8005035B198
:100FB0000D18A5F10E05AA706A702A7026E099FB3B
:100FC000F3F603FB16970D183037A5F10E05022C2A
:100FD000AF7096FBF3F703FB176606F130066E70F1
:100FE00099FBFCF606F1300605F80E6B0ED198F869
:100FF00000605EB1A5F10A05AA706A702A7027E048
:10100000BCA30200F0020010E40000109AFBF3F60B
:1010100003FB16A70D183037A5F10A05032CAF7096
:1010200096FBF3F703FB176606F130066E709AFB2A
:10103000FCF606F13006674605F80A6B08D198F809
:1010400000602EB1A5F10605AA706A702A7022E030
:101050009BFBF3F603FB16B70D183037A5F1060519
:10106000042CAF7096FBF3F703FB176606F130060E
:101070006E709BFBFCF606F13006674605F8066BC2
:1010800009D198F8004034B1A5F102050A546A70FC
:101090002A70BDE8FF8F039C94FBF3F203FB12441C
:1010A00030340C5492FBF3F403FB14220844A0F1F7
:1010B000020030324270039991FBF7F101F13001E7
:1010C0000170E6E717B501EB810002EB8000C2B2C8
:1010D0009DF80030B44803F00F0100EB1313445C9B
:1010E000B2498C54521ED2B21B788B549DF80130F9
:1010F000521E03F00F04D2B2045D8C54521E00EB5A
:101100001313D2B21B788B549DF80230521E03F099
:101110000F04D2B2045D8C54521E00EB1313D2B2F2
:101120001B788B549DF80330521E03F00F04D2B28B
:10113000045D8C54521E00EB1310D2B20078885418
:101140001EBD01EB810102EB8101974A10B500F051
:101150000F03C9B2D45C954B02EB10105C54491ECE
:10116000C9B20078585410BD30B5914901238F4D54
:1011700091F9012091F9041000EB80048A4202D118
:1011800005F8243030BD894D4C1C00EB800005EB88
:101190008000A24201D1037530BD8C1CA24202D155
:1011A00080F8283030BDCC1CA24202D180F83C30FF
:1011B00030BD0C1DA24202D180F8503030BD4C1D14
:1011C000A24202D180F8643030BD8C1DA24202D10F
:1011D00080F8783030BDC91D8A42FBD180F88C3050
:1011E00030BD744B1A88521E104400B21880724AE7
:1011F00000EB800002446E481368036012790271AC
:101200004278114441707047F0B56A4D6A4FB5F9A4
:10121000004004EB8406641C2C80654C3E44256829
:10122000356025793571207061702271A370F0BD31
:10123000F0B505460E461746FFF767F85B4C0020F1
:10124000401C15F8011BC0B204F8011B1428F7D389
:101250005FF00000401C16F8011BC0B204F8011B2F
:101260001428F7D35FF00000401C17F8011BC0B230
:1012700004F8011B1428F7D35FF00000401C13F89A
:10128000011BC0B204F8011B1428F7D3F0BD10B540
:10129000029CFFF7CDFF4648C378827841789820BA
:1012A000FFF7B2FF642094FBF0F0BDE81040C0B23D
:1012B000FEF7C3BF2DE9FE4340010D4600F58060F7
:1012C000044602A922F03BFE694604F1080022F020
:1012D00036FE01A904F10C0022F031FE2846FFF78A
:1012E0001DF8324C202530262554401CC0B24FF04A
:1012F00021082654401CC0B24FF0400C04F8008076
:10130000401CC0B2232104F800C0401CC0B200221F
:101310002554401CC0B22554401CC0B22654401C69
:10132000C0B22154401CC7B29DF802002121FFF732
:1013300059F99DF8000000222321FFF753F99DF889
:101340000100401E0C2802D301208DF801009DF8F9
:1013500001001A49002201EB80004021FFF72FF91C
:10136000E5557F1CF8B23A212654401CC0B2002239
:1013700004F80080401CC0B22154401CC0B221219E
:101380002654401CC0B204F800C0401CC6B29DF8F0
:101390000400FFF727F99DF8050000224021FFF720
:1013A00021F9A555BDE8FE8346A40200F002001015
:1013B0007002001008010010D86A0010BCA30200DF
:1013C0002DE9FF41FB4C00270546A776A07D0121B2
:1013D000022805D0F84A525D552A04D065200EE057
:1013E000A176BDE8FF8105EB450202EB0513F34A48
:1013F00002EB830696F83D20D30702D06620A07644
:10140000EFE796F83F309B0701D56720F7E7920793
:1014100001D56820F3E7EA4AB6F90830B2F90020AE
:10142000934201DD6920EAE75242934201DA6A20E1
:10143000E5E7012804D1E07D00287ED001287DD099
:101440006420A076A175A4F856104FF4F87022F02D
:10145000EDFDE5752946A4F858504FF4FA7022F0D6
:10146000E5FDD848B761002130F9150022F0DEFD16
:101470002776A4F85A7039464FF4FB7022F0D6FD57
:10148000D148D24D0088401C00F0070006EB400018
:10149000008CADF80000A88B8DF804004FF06302BB
:1014A0004FF0010101A8FEF7E6FEC24C9DF80400D2
:1014B00094342070287E8DF804000C22012101A8AC
:1014C000FEF7D9FE9DF804006070287B8DF80400BB
:1014D0001F22012101A8FEF7CEFE9DF80400A07096
:1014E0009DF80000E0704FF4FC70216822F0D9FDF7
:1014F000287A8DF804001722002101A8FEF7BBFE10
:101500009DF80400207128798DF804003B22002109
:1015100001A8FEF7B0FE9DF80400607128788DF8F0
:1015200004003B22002101A8FEF7A5FE9DF804005F
:10153000A0719DF80100E07101E006E007E04FF4C2
:10154000FE70616822F0ADFD4BE76B2057E76C2021
:1015500055E72DE9F047974CA07D01287ED1204624
:101560000127C07D217EC0F1010207FA02F0954EED
:10157000924D02B211B1012933D037E01423CA21B0
:10158000C820FEF7F9FD14234FF0FF32CE21CD2005
:10159000FEF7F2FDE07D00EB400101EB001005EBF2
:1015A0008000B0F90800FEF7ABFEE17D01EB4102DF
:1015B00002EB011205EB82029369184448F6A0433E
:1015C0009061984212DBC01A906136F8110022F047
:1015D00039FC401C01B2E07D36F9100022F026FDF6
:1015E00004E01423CA21C820FEF7C6FDE07DA8460A
:1015F00000EB400101EB001205EB8201744AB1F9E6
:1016000002100025B2F900204FF4F87902EB8202B3
:10161000B1EB420F42DAB4F85210491C09B2A4F8F7
:1016200052101E293CDBA17D012921D1217EF9B96F
:1016300036F8100022F006FC01B26648E27D30F96F
:10164000120022F0F3FCE07D36F8100022F0FAFBE5
:1016500081B2E07D03F054FF5F4800E041E0E17DAE
:1016600030F91100002122F0E1FC3220A083E08358
:10167000E07D5149C0F10100085C552807D0A575EF
:10168000A4F856500021484622F0D0FC08E0277606
:10169000A4F85A7001214FF4FB70F5E7A4F85250FA
:1016A000E17D01EB410000EB0112C1F1010101EB11
:1016B000410303EB011108EB820208EB8100B2F950
:1016C0000220B0F9020082420BDB207E012808D103
:1016D000A575A4F856504846BDE8F047002122F011
:1016E000A5BCBDE8F08770B5324C05460026A07D4C
:1016F000F0B9022104F8161F4FF4F870A4F8401056
:1017000022F094FCC5EB0510810025870D46E1878A
:101710004FF4F97022F08AFC29464FF4FF7022F052
:1017200085FC00206087A0860126304603F076FF06
:10173000304670BD10B51F4CA07D022812D104F1B7
:101740001604208F03F06AFF0020A08620876087A0
:101750002070A4F840000146BDE810404FF4F87036
:1017600022F064BC10BD70B5184C203C94F83800D1
:101770001A4D297808440C2803D9A08F401C01B2C7
:1017800001E0B4F93C10B82022F050FC94F8381075
:10179000287801440C2994F8381000D90C380144F9
:1017A000B62022F043FC94F82C001C2818D91C21E8
:1017B00018E00000080000107E0100103CF0072037
:1017C0002A0100102E9D0200E4010010204002407A
:1017D000240100104A9D02002A9D0200ED00001025
:1017E00094F82C10B42022F021FC04F12004217A7A
:1017F0004FF0AE0022F01AFC2179B02022F016FC46
:101800002178BDE87040B22022F010BC10B5F84835
:10181000F84C007830B3F848818FF84A128891422A
:1018200020D190F83810F64A128891421AD190F8D7
:101830002C10F44A1288914214D190F82810F24AE0
:10184000128891420ED190F82410F04A12889142E9
:1018500008D190F82000EE490988884202D1012081
:10186000607602E0607E00280BD0EA480088C0B2B3
:10187000FFF739FF002804D000206076BDE8104053
:1018800071E710BD70B5DB4CA07D02283FD1B4F8E4
:101890004C004FF461610025884212D2401C80B296
:1018A000A4F84C0088420CD3A4F84C50B4F84E0075
:1018B00038B1401E24F84E0F6088401C6080A4F1AF
:1018C0004E04B4F84A003C2821D2401C80B2A4F84F
:1018D0004A003C281BD324F84A5F6089401E01B2AD
:1018E00061814FF4F97022F0A1FB6089A4F14A04F0
:1018F00000280CD1A5750146A4F856504FF4F87095
:1019000022F094FBBDE87040002003F087BE70BD5C
:10191000C1486FF03B010088C0EB001001EB800074
:10192000B449C88770472DE9F05FDFF8C892BA481C
:101930000026B9F83E10B94F491C09B2A9F83E106B
:10194000B0F90000B64DC0EB00124FF0010B09F1E9
:1019500044044FF00A08B1EB820F51DBF0B3A9F851
:101960003E602670DFF8BCA2667089F810609AF8B5
:101970000000552811D1B5F9020050280DDDB5F948
:101980000800FEF7BDFCB7F90010884203DB95F8AC
:101990003D00C00701D084F800B09AF80100552836
:1019A00011D1B5F94E0050280DDDB5F95400FEF700
:1019B000A7FCB7F90010884203DB95F88900C0073F
:1019C00001D084F801B09848007848B999F811100E
:1019D000484629B1817D41B1022900E010E004D0E0
:1019E0002670667089F8106008E0217801291DD002
:1019F000617801291AD0017C012917D0A9F840602B
:101A00004846B9F94010DFF8EC91DFF820A209F15F
:101A10006009F1B383460246491E08B2A2F84000AD
:101A2000052806DD0F231E22642107E0A9F8408067
:101A3000E6E700281BDD0F231E226921E120FEF7C7
:101A40009BFBBBF84000052811D1B5F90800FEF753
:101A500057FCA9F80000B5F95400FEF751FCA9F8AD
:101A60000200BAF90000FEF74BFCABF82200614817
:101A7000B0F84000002841D1AB46B5F90800FEF7A8
:101A80003FFC5C4D64352880BBF95400FEF738FC00
:101A900000E038E06880BAF90000FEF731FCDFF8BA
:101AA00054A1AAF82400AAF84260B9F90000B5F9D7
:101AB00000100844B7F90010884202DA20780128A3
:101AC00017D0BBF90200C82804DD002126700846A3
:101AD00003F08DFAB9F90200B5F902100844B7F91C
:101AE0000010884202DA6078012805D0BBF94E0068
:101AF0007AE0AAF84280EDE7AAF84280BDE8F09FBC
:101B00006670002106E1B0F94210E9B38046024652
:101B1000491E08B2A2F84200052803DD0F23C8229F
:101B2000642104E000281BDD0F23C8226921E12085
:101B3000FEF722FBB8F84200052811D1B5F90800DC
:101B4000FEF7DEFBA9F80000B5F95400FEF7D8FB5C
:101B5000A9F80200BAF90000FEF7D2FBA8F82200AB
:101B60002448B0F842000028C8D1DFF8B480B8F9A2
:101B70000800FEF7C5FB1F4D64352880B8F95400F6
:101B8000FEF7BEFB688000E058E0BAF90000FEF7FF
:101B9000B7FBDFF86080A8F8240088F80F60B9F977
:101BA0000000B5F900100844B7F90010884202DAC5
:101BB000207801283CD01A48B0F90200C82804DD7A
:101BC00000212670084603F012FAB9F90200B5F9AF
:101BD00002100844B7F90010884202DA6078012840
:101BE00029D00F48B0F94E00C82889DC86E70000EC
:101BF000ED00001008000010004002408C010010B1
:101C00008A01001088010010820100108401001078
:101C1000860100108E0100103A0100102A01001008
:101C20003CF007207E010010F3000010E6010010D8
:101C300088F80FB0C9E788F80FB05FE78146C07B2E
:101C40000028D3D00F2300226E21E120FEF794FA62
:101C5000B5F90800FEF754FBB7F90010884207DD1C
:101C60002078012804D100212670084603F0BFF92E
:101C7000B5F95400FEF744FBB7F90010884206DDC1
:101C80006078012803D16670002103F0B0F9207854
:101C900030B9607820B999F8101009B989F80F6047
:101CA000E620FEF780FA18B1FD480068E7280AD060
:101CB000FC48FD49B0F90000B1F9001000EB8000CC
:101CC000B1EB400F92DA89F80F602078F74E0128C7
:101CD0000FD1B7F90000410091FBF8F0B6F9001000
:101CE000884206DA95F83D00C00702D1012103F0D1
:101CF0007EF960780128A0D1B7F90000410091FB7E
:101D0000F8F0B6F90010884297DA95F88900C00714
:101D100093D10121BDE8F05F012003F068B970B5EF
:101D2000E34CA08F401C00B2A087B0F5E16F02DB4E
:101D30000020A08770BDB0F5DF6F11D90F230122FD
:101D40006421D220FEF718FA0F230022D821D720D1
:101D5000FEF712FA0F230022D821DC20FEF70CFA3E
:101D6000B4F93C00A0F5E0610739E3D1D14ED24C83
:101D7000D24D30882188884205D0B4F90010B5F9D9
:101D8000000022F053F9708861888842D2D0B4F9FB
:101D90000210B5F90200BDE8704022F047B910B555
:101DA000C74C082200212088401C20802046FEF7D6
:101DB00078FAC448B4F9001000EB410142880A8463
:101DC000B0F84E00A1F86C0010BD70B5BF48BE4D14
:101DD000B0F90030BE48B5F9002090F900109A42E1
:101DE0001BDABC4C0A290EDABB4BB3F900300F2BBF
:101DF0000BDD491C49B201700A2906DB2280012053
:101E000002F0A1FC01E00A210170B5F90000B4F96B
:101E10000010884200DA208070BDFDDD0029FBD073
:101E2000491E49B201700029F6DCBDE8704000206F
:101E300002F089BC2DE9FC5FDFF87492A749A94F35
:101E4000B9F82800B1F90010A84C4843A4499D4DA9
:101E500090FBF1F09C494FF4FA660880B7F908202E
:101E6000B4F90030A04953434FF42F7293FBF2F3BF
:101E7000B1F90000AB80B7F91830B1F9021059433D
:101E800091FBF6F1A5F84E10B7F90210B4F9023043
:101E90004B4393FBF2F1A5F85010B7F904104843F7
:101EA00090FBF6F06880DC20FEF79DF9F0BBDFF8D0
:101EB00008E2804A45F6386ABEF80000118845F607
:101EC0009263401A8A494FF4967845F2FA5BB1F969
:101ED000001045F21364414386480088504501D004
:101EE000984202D191FBF8F10FE0584506D0A0428C
:101EF00004D0A0F5AC4CBCF1110C02D191FBF6F171
:101F000003E04FF47A7C91FBFCF101EBD1714910B5
:101F100049422981BEF8021052888A1A7449B1F9DF
:101F200002105143504503D0984200E014E002D122
:101F300091FBF8F00EE0584505D0A04203D0A0F583
:101F4000AC42113A02D191FBF6F003E04FF47A7003
:101F500091FBF0F0A5F85400B7F90C0040F6B73C3F
:101F60000146A0F22130012300248646604501D2BB
:101F70002C7300E02B73604844F62068E346B0F908
:101F800000204A4392FBF8F2A2F211126A81B7F9DB
:101F90000E20A2F2213700975F4502D285F8584003
:101FA00001E085F85830B0F90200DFF838C150433D
:101FB00090FBF8F0A0F21110504FA5F85600BCF9B4
:101FC0000400B7F90070784390FBF6F0364E30808D
:101FD000BCF90A604A48B446A6F221365E4501D2F1
:101FE000046000E00360474E44F62067DFF8F480A9
:101FF000B6F90060019606FB0CF696FBF7F6424F29
:10200000A6F211163E80B8F9146040F6B737B44610
:10201000A6F22136BE4201D2446000E04360DFF800
:10202000E4B044F62067DFF8E080BBF90260B24616
:1020300006FB0CF696FBF7F6A6F21116A8F802605E
:10204000284E40F6B737B6F90660B446A6F22136F8
:10205000BE4201D2846000E08360BBF9046006FBED
:102060000CF644F6206C96FBFCF6A6F2111636B27E
:10207000A8F80460B346009F40F6B736B74201D2D5
:10208000046000E00360019F574397FBFCF7A7F251
:1020900011174246A8F80070B64537D2446036E0C2
:1020A000A800001024010010E8010010EA0100104F
:1020B000080000102CC00720D6ED0720569D020016
:1020C000E40100103CF00720EE0100102601001092
:1020D0005204001050040010060100102C040010DF
:1020E000B0AD0100286A0010200400102404001084
:1020F000280400108001001030C007203AC00720DB
:102100007C0A082034C00720AA02001043600AFBA2
:1021100001F393FBFCF1A1F211110FFA81F8FD4BD1
:10212000FD4FA2F802801A88B7F900104FF47A6CBC
:10213000514391FBFCF1F94A89B2F94E11806429AF
:1021400001D3F849098831805988B7F9023008F27B
:1021500011184B4393FBFCF15180F349F34BDFF82B
:10216000D0C3B1F90020B3F90060564341F2707258
:1021700096FBF2F6ACF80060B1F90270B3F90260B8
:102180007E4396FBF2F6ACF80260B1F90460B3F955
:102190000430734393FBF2F3ACF80430DFF894C3DC
:1021A000B1F90660BCF90030734393FBF2F6E24BE1
:1021B0001E80B1F90870BCF902607E4396FBF2F60E
:1021C0005E80B1F90A10BCF904604E4396FBF2F14F
:1021D0009980DA490BF21112A1F800804A80426816
:1021E0000A7280684872D6480178552906D1B5F937
:1021F0000210C82902DD2A89A9F83820407855281C
:102200000BD1B5F94E00C82807DDB5F95400B5F972
:102210000810884201DDA9F83800CA480088A0F5F6
:10222000AC412F3903D0283101D0143903D1C6482D
:102230000188A9F83810C5480021DFF814C3B0F9A7
:1022400000202EE0C1EBC10000EB40000CEB800051
:10225000C378192B1CD28379C67903EB062343621A
:10226000037A467A03EB06230362837AC67A03EB8A
:102270000623C361037B8362437B80F85230837BF8
:1022800080F84230037C467C03EB0623C36406E0FF
:10229000C46144620462846280F84240C464491CA0
:1022A000C9B29142CEDB4FF00A09B5F90830B5F951
:1022B000540093FBF9F390FBF9F018444042A54910
:1022C00003B2A54F0B80A8463C8000200FE000BF62
:1022D000C0EBC00505EB45050CEB8506F578052D33
:1022E00003D2756A3E8835443D80401CC0B290429E
:1022F000EEDB3888184400B20880002800DA0C8031
:10230000964B062098619648B0F90050F5B300222C
:102310005EE000BFC2EBC20000EB40000CEB8000AF
:1023200090F89316192939D200F296600178467810
:1023300001EB062602EB420103EB4111CE618678E8
:10234000C77806EB0726CE620679477906EB0726A3
:102350008E6186790E62C67981F84660067A477A80
:1023600006EB07268E62867AC77A06EB07264E6250
:102370008C70067B81F85960467B81F85A60867BB9
:1023800081F85860C67B81F85B6000E022E0067C43
:1023900081F85C60407C81F85D0017E002EB420050
:1023A00003EB40101921C461C4628461046280F8A7
:1023B000464044628462817080F8594080F85A40F7
:1023C00080F8584080F85B4080F85C40521CD2B2E4
:1023D000AA429FDB634D287825F041F80603687810
:1023E00025F03DF806EB0026A87825F038F806EB36
:1023F0000016E87825F033F830445B4E7081287978
:1024000025F02DF80703687925F029F807EB002758
:10241000A87925F024F807EB0017E87925F01FF8D4
:10242000384481B24FF0640AB1FBFAF0308115F8FC
:10243000140C25F014F8070315F8130C25F00FF809
:1024400007EB002715F8120C25F009F807EB001729
:1024500015F8110C25F003F8391891FBF9F0A0F2EA
:102460001110B080287A24F0FAFF0703687A24F06C
:10247000F6FF07EB0027A87A24F0F1FF07EB00171F
:10248000E87A24F0ECFF3844F084A87B24F0E7FFDE
:102490000703E87B24F0E3FF07EB0027287C24F008
:1024A000DEFF07EB0017687C24F0D9FF384400B248
:1024B000F08190FBFAF0B6F9261091FBF0F07082F3
:1024C0002A48B0F9000003280DDA3189A8F8021073
:1024D000B188A8F80A10B6F90A2092FBF9F1A8F819
:1024E0000810BDE8FC9FA8F80240A8F80A40A8F828
:1024F0000840F6E71E4A1F481178052901D0012936
:1025000005D1517819B91C490978552938D01B498A
:10251000098839E0B00200102E040010B602001045
:1025200004020010EE0100101E0B082062040010CF
:10253000BC0200106EC00720C2020010D60A08209C
:102540007E01001080010010E60100106C010010F7
:10255000CCF10720EA0100105C040010ECFE07201B
:102560006E0100100F7600107CF10720122600107B
:1025700070020010C6000010EE0000109001001064
:102580000178002901D0491E01707047FF48416859
:1025900021F4402141F480214160416821F440311F
:1025A00041F480314160416821F4404141F480416F
:1025B0004160416C21F4402141F400214164416CAF
:1025C00021F4403141F400314164416C21F4404137
:1025D00041F400414164EE48016821F0E06101608E
:1025E000016841F400110160016821F4803101604B
:1025F000016821F47F4141F4807101608115C1605F
:10260000E4488903016070472DE9F041E24C60889D
:102610002188401A00B203F011F9A51D2880A08876
:102620006188401A00B203F009F96880A088218807
:10263000401A00B203F002F94FF49672A880A4F198
:102640008801904201DAA0880AE0B5F902009042C0
:1026500001DA608804E0B5F90000904201DA2088D0
:10266000488591F802C00023BCF1000F22D0CB486E
:10267000B1F92A2004681444046044681444446096
:10268000846814448460C4682244C2604A8E521C28
:1026900012B24A86B2F5805F00DB4B86B1F9322078
:1026A00094052FD1921250F8224024120C8540F844
:1026B000223027E0BA4FC8780C7907EB8015B1F9C2
:1026C0002A2045F82420A20710D100252A4607EB2E
:1026D000801600BF56F82270521CD2B23D44102A18
:1026E000F8D32A11AD4D203D25F81020401CC0B272
:1026F000C870102806D3641CE0B2CB700871102893
:1027000000D30B710CF1010C4B701CF00100A04ABE
:10271000887005D0106820F0FF00001D106034E0C4
:10272000C97808070028106820F0FF0002DB00F1DC
:10273000010001E000F1020010609A48036843F0D4
:1027400080530360036A43F080430362036E43F0E7
:1027500080630366CB07436908D043F0805343612D
:102760008B07436B05D423F0804304E023F08053B0
:10277000F5E743F0804343634907416F02D421F0FA
:10278000806101E041F080614167106840F0807035
:102790001060BDE8F081F0B57F488838B0F92010AE
:1027A00019B1A1F10101018485E000227F4C8273FF
:1027B00013467D49B4F9004011E000BFC3EBC305E7
:1027C00005EB450501EB8505AE78012E05D1ED78C9
:1027D000142D02D2857B6D1C85735B1CDBB2A3427A
:1027E000ECDB867B022E66D341F28833C0E91A23E4
:1027F0000023026717E000BFC3EBC30505EB4505E7
:1028000001EB8505AF78012F0BD16D6A876EBD4254
:1028100000DD8566C76EBD4200DAC566076F3D44C0
:1028200005675B1CDBB2A342E6DB036F012593FB6C
:10283000F6F74767C36E03B9C566836E64267343B4
:10284000C66E93FBF6F38367A02B00DD4573782BF0
:1028500001DA42732FE0407B01282CD100226FF077
:10286000310326E0C2EBC20000EB400001EB800028
:102870008578012D1BD1456ABD4205DDB0F8505069
:10288000A5F10105A0F8505005DAB0F8505005F157
:102890000105A0F85050B0F950509D4202DAA0F85E
:1028A000503004E0322D02DD3225A0F85050521C89
:1028B000D2B2A242D6DB00BFF0BD70B5334801688A
:1028C0003B4A11400160374C216841F47C71216022
:1028D000C16921F44021C161216E41F0007121667E
:1028E000416821F040614160206840F00050206064
:1028F0003148304B32490278304893F83C50B1F9B6
:1029000000100078154307D030B1052904DDA56912
:1029100045F48075A56103E0E56945F48075E561DE
:1029200093F88830134307D030B1052904DDA0693E
:1029300040F04000A06103E0E06940F04000E06149
:10294000D220FDF750FC1F4D48B16868012801D026
:1029500028B108E0A06940F00050A06103E0E06900
:1029600040F00050E061D220FDF73DFC164E10B162
:102970002868662846D03068C00738B3E06F40F05A
:102980002000E067D220FDF72EFC20E000C00240CE
:102990000040034000E100E090000010486A001091
:1029A0002866001000C00920CCF107206C0100103F
:1029B000FF00F0FF3CF007201C040010C9000010CD
:1029C00006010010A800001014C007201CE010B180
:1029D000286866281DD03068C007E0B1A06940F0C3
:1029E0002000A061D220FDF7FEFB10B12868682806
:1029F00016D0FF480078012817D0A06940F4007075
:102A0000A06116E06868B8E7A06F40F02000A067FA
:102A1000B8E76868E1E7E06940F02000E061E1E7DD
:102A200068680028E9D0012803D1E06940F400700B
:102A3000E061D220FDF7D7FB10B128686F2803D0E2
:102A4000EC48007828B109E0686810B1012805D089
:102A500008E0E06940F01000E06103E0A06940F0A8
:102A60001000A061D220FDF7BEFB10B128686B28D2
:102A700003D0E148007828B109E0686810B1012866
:102A800005D008E0A06940F08000A06103E0E069A3
:102A900040F08000E061D220FDF7A5FB10B128686E
:102AA000702803D0D548007820B908E0686830B1B4
:102AB000012803D1E06940F04000E06170BDA069E9
:102AC00040F04000A06170BD2DE9F05FCC4C0026C5
:102AD0004FF00108207D0A2807D2401CC0B22075A3
:102AE0000A2802D3267584F81580A4F84660A4F855
:102AF0004860CD20FDF777FBC24DDFF80C93A8B3FB
:102B0000C2484FF6FF720168CE2908D0CF2909D0FC
:102B1000D12909D0D2290BD0D0290CD011E0A4F8AA
:102B200048200EE040680AE04068A4F8460008E04B
:102B3000A4F8462005E04068A4F84600C043A4F885
:102B40004800002730E000BF08FA07F0B4F848104A
:102B500083460842C7EBC70000EB400005EB80004E
:102B600005D030F8401F491C018002E021E0A0F8A8
:102B70004060C7EBC70000EB400005EB80008246D9
:102B8000403032220021FDF781FBBAF940001428C1
:102B900001DD8AF82C80B4F846101BEA010F01D041
:102BA0008AF82C607F1CFFB2B9F900008742CBDDA8
:102BB00046E0607DB8B3002108464346B9F90020DD
:102BC0000AE000BFC0EBC00707EB470705EB87072C
:102BD000401C87F82C30C0B29042F3DD8C4B0020B3
:102BE000B3F9003014E000BFC0EBC00707EB4707A4
:102BF00005EB870797F802C0BCF1020F02D0BCF1C9
:102C0000010F03D1491C87F82C60C9B2401CC0B227
:102C1000904201DA9942E7DB7E48B0F900003C2897
:102C20000EDA00200AE00BE0C0EBC00101EB41012D
:102C300005EB8101401C81F82C60C0B29042F3DDAD
:102C400000206323B9F900100EE000BFC0EBC00202
:102C500002EB420205EB8202D76B1FB182F82C30E7
:102C60007F1ED763401CC0B28842EFDB6675667476
:102C700000200DE0C0EBC00202EB420205EB820235
:102C80009278012A02D1627C521C6274401CC0B24C
:102C90008842EFDBBDE8F09F2DE9F0410746C0EB2D
:102CA000C700584900EB400011F82020032A73D1D7
:102CB00001EB800494F84250A807B4F9460010D5FF
:102CC0004FF4966188421ADA401C00B2A4F846001C
:102CD000884214DBA4F846106078C0070FD10122A7
:102CE00009E060B1401E00B2A4F8460038B960782F
:102CF000C00704D000220021384601F06DFE2807ED
:102D0000B4F948004FF00A064FF000010ED50A282A
:102D10001FDA401C00B2A4F848000A2819DBA4F806
:102D200048606078800714D4012209E000280DDD96
:102D3000A0F1010000B2A4F8480050B94FF0000221
:102D40004FF00101384601F047FE02E001DAA4F835
:102D50004810E806B4F94A000ED50A2817DA401CD4
:102D600000B2A4F84A000A2811DBA4F84A6060788F
:102D700040070CD4012206E048B1401E00B2A4F87E
:102D80004A0020B900220221384601F025FE607871
:102D9000000702D0042012E028E01F48007820B18C
:102DA000E078142801D9052009E094F84200800653
:102DB00001D5022003E0E078142801D20120A070A0
:102DC000E0780A2894F82C0002D340F0800001E05B
:102DD00000F07F000A4984F82C00B4F95000B1F9E2
:102DE0001C10084420634FF47A706063D1E4000043
:102DF000390200102BC007202AC007201D04001034
:102E000008000010CCF107206C010010A800001091
:102E100066C0072006010010F300001070B5002006
:102E2000FF490346B1F90C200121FE4D01FA00F4DF
:102E3000224201D0295400E02B54401CC0B20C287F
:102E4000F4D3F94C2878F94E217881420CD0B6F9A8
:102E50000010012908DB01287ED0002301220B216C
:102E6000F3A000BF1FF0FEFA6178687881420BD0B2
:102E7000B6F90010022907DB01286ED000230222D8
:102E80000B21F0A01FF0EEFAA178A87881420BD0B8
:102E9000B6F90010032907DB01287CD000230322A8
:102EA0000B21EDA01FF0DEFAE178E87881420BD02B
:102EB000B6F90010042907DB012872D00023042290
:102EC0000B21EAA01FF0CEFA2179287981420BD09C
:102ED000B6F90010052907DB012867D00023052279
:102EE0000B21E7A01FF0BEFA6179687981420BD00F
:102EF000B6F90010062907DB01285CD00023062262
:102F00000B21E4A01FF0AEFAA179A87981420BD081
:102F1000B6F90010072907DB012851D0002307224A
:102F20000B21E1A01FF09EFAE179E87981420BD0F4
:102F3000B6F90010082907DB012846D00023082233
:102F40000B21DEA01FF08EFA217A287A81420FD061
:102F5000B6F90010092901E013E017E008DB0128A9
:102F600038D0002309220B21D9A000BF1FF07AFA24
:102F70000020295C2154401CC0B20C28F9D370BD3C
:102F800009E001231A460B21D6A06BE70123022298
:102F90000B21D9A076E7012303220B21DBA081E7D7
:102FA000FFE7012304220B21DDA08BE7012305228B
:102FB0000B21E0A096E7012306220B21E2A0A1E766
:102FC000012307220B21E5A0ACE7012308220B21F6
:102FD000E7A0B7E7012309220B21EAA0C6E770B5F5
:102FE000C820FDF700F9EC490022A0B3EB4C012307
:102FF0002068C92803D0CA28104611D02CE0002030
:1030000000EB400404EB001411F82450322D02D2DE
:103010006D1C01F82450401CC0B20228F0D325E0FA
:10302000D4F8045003FA00F4254200EB400409D020
:1030300004EB001611F82640322C07D2641C01F86C
:10304000264003E004EB001401F82420401CC0B229
:103050000228E7D30AE01FE000EB400404EB001471
:10306000401CC0B201F824200228F5D35FF0000014
:1030700000EB400404EB001411F8245001EB84042D
:10308000142D02D984F83C3001E084F83C20401C27
:10309000C0B20228ECD372E700EB400303EB00134D
:1030A000401C01F8232001EB8303C0B283F83C20CD
:1030B0000228F1D363E72DE9F041B948B949142456
:1030C000B0F90070B848B1F90220B1F90050D0E968
:1030D0000063B648214617B1012F03D005E00280F6
:1030E00013B902E0058006B10180B14FDFF8C48258
:1030F000B7F9007017B1012F04D008E0A8F800203C
:103100001BB904E0A8F800500EB1A8F80010AA49B5
:10311000AB4B0A88A9490A809F4AB3F90030128A4A
:103120009A4201DA0A220A80A64DB0F90020B1F9CC
:103130000010B5F900008A4201DA401C05E0A249FE
:10314000B1F900108A4201DD401E28800A220021C8
:103150009C48FDF79BF8B5F900009C490125002625
:10316000092801DD0D7002E0012800DA0E7098498F
:10317000B8F90000974FB1F90010884202DD388895
:10318000401C06E09449B1F90010884202DA388800
:10319000401E38800A2200218E48FDF777F8B7F9E3
:1031A00000008E49092801DD0D7002E0012800DAD7
:1031B0000E708C4A00208A49B2F900200FE000BF4F
:1031C000C0EBC00303EB430301EB8307BB6AA342DD
:1031D00003DDFF780A2F00D2DCB2401CC0B290425F
:1031E000EEDB8148814FB0F90000844202DD38886F
:1031F000401C06E07E48B0F90000844202DA3888BC
:10320000401E38800A2200217848FDF73FF8B7F9C0
:1032100000007849092801DD0D70E7E5ECE00000C9
:103220001E0B0820F40A08200A6B0010760100101B
:103230004176746F6D6174202331206973204F468D
:10324000460000004176746F6D617420233220695E
:1032500073204F46460000004176746F6D61742004
:103260002333206973204F46460000004176746F77
:103270006D6174202334206973204F46460000009E
:103280004176746F6D6174202335206973204F4639
:10329000460000004176746F6D617420233620690A
:1032A00073204F46460000004176746F6D617420B4
:1032B0002337206973204F46460000004176746F23
:1032C0006D6174202338206973204F46460000004A
:1032D0004176746F6D6174202339206973204F46E5
:1032E000460000004176746F6D61742023312069BF
:1032F00073204F4E200000004176746F6D61742082
:103300002332206973204F4E200000004176746FF5
:103310006D6174202333206973204F4E200000001C
:103320004176746F6D6174202334206973204F4E91
:10333000200000004176746F6D6174202335206990
:1033400073204F4E200000004176746F6D61742031
:103350002336206973204F4E200000004176746FA1
:103360006D6174202337206973204F4E20000000C8
:103370004176746F6D6174202338206973204F4E3D
:10338000200000004176746F6D617420233920693C
:1033900073204F4E200000003CF00720A8000010D2
:1033A00012020010AA0200107C0A082062C0072046
:1033B0001402001058040010160200106A040010D5
:1033C0001A02001068040010180200102BC0072019
:1033D0001C02001074C007201E0200102AC0072023
:1033E000CCF107206C0100102002001076C00720ED
:1033F000220200101D0400100128BFF60EAF0E704F
:10340000F4E42DE9FC5F0546FF4830F9151011B1D1
:10341000491E20F81510FC4A121D32F9151011B181
:10342000491E22F8151005EB450101EB0513F7497C
:1034300001EB8304F64BB4F90810B3F9003099425C
:1034400002DD642320F81530002902DA642122F815
:103450001510ED4930F815307C3900264BB132F8A3
:10346000153033B1B1F85E30B3B140F6B830A1F8E1
:103470005C00A1F85C6094F83E00401CC0B284F887
:103480003E000A2801D384F83E60E24FDFF88883CB
:103490003888322809D017E04FF41673A1F85E304F
:1034A00020F8156022F81560E3E794F83C00F8B9BD
:1034B000B4F9020050281BDA94F83D00C00717D178
:1034C0000121284601F093FDB7F90000C8280FDD5F
:1034D000B4F90800FCF714FFB8F90010884207DDC2
:1034E00094F83D00C00703D00021284601F07FFD7D
:1034F000C948B4F90810B0F900004042814212DD19
:10350000607B0A280CD2401CC0B260730A2875D3B5
:10351000A07B002872D0A673284601F018FC6DE04D
:103520000A2060736AE069DA607BF0B3401E10F035
:10353000FF00607362D1A07BB8BB0120A073B748C5
:10354000B74F0088401C00F0070004EB4000008CDF
:10355000ADF80400B88B8DF800004FF063024FF017
:1035600001016846FCF787FE04F11C049DF8000089
:103570002076387E8DF800004FF00C024FF00101EC
:103580006846FCF778FE9DF800006076387B8DF881
:1035900000001F2201216846FCF76DFE9DF8000027
:1035A000A0769DF80400E07600E027E0387A8DF8F8
:1035B0000000172200216846FCF75DFE9DF8000020
:1035C000207738798DF800003B2200216846FCF70F
:1035D00052FE9DF80000607738788DF800003B229D
:1035E00000216846FCF747FE9DF80000A0779DF893
:1035F0000500E07726806680A4F11C0448F6A04808
:1036000094F83E0088BBB4F908106069DFF814A292
:103610000844DFF8149245F2555B6061404525DBB4
:1036200039F915205A4503D1804830F8157001E06A
:1036300039F815703AF8150020F004FC80B2B84251
:103640000AD2616900F10100A1F50041A1F54A61CA
:1036500061613AF915202BE031D93AF9150039B2F8
:1036600020F0E4FCC4F8148029E04FE0704988425F
:1036700025DC39F915205A4503D16C4830F815700E
:1036800001E039F815703AF8150020F0DBFB80B244
:10369000B84205D93AF9150039B220F0C7FC3846CE
:1036A00058B16269401E02EB080161613AF91520C8
:1036B00001B2104620F0BAFC01E05D4860613AF8C2
:1036C000150020F0BFFB014639F91500584502D11D
:1036D000564830F915004FF47A72514308B1B1FBE6
:1036E000F0F00A21B0FBF1F0208252480088012856
:1036F00006D1514905EB850001EBC000408A2082CC
:1037000004F1100064220021FCF7C0FDA07B012819
:1037100013D1A08B4746B8420ED2B4F90800FCF78B
:10372000EFFDA18B084480B2A083B84205D3A683E5
:10373000E08B401CE08300E0A6834048B4F90A1007
:10374000B0F90000814201DD207BF0B3B4F8400005
:10375000B0F10100A4F840004FF4167904F14000E4
:103760004A460021FCF792FDB4F9400040F24E2792
:10377000B84205DB94F83F1041F0010184F83F1096
:103780000A2805DC94F83F0020F0010084F83F008F
:103790002B48B4F90A10B0F90000814201DD207B0A
:1037A00080B3B4F84200401EA4F8420004F1420085
:1037B0004A460021FCF76AFDB4F94200B84207DB33
:1037C00094F83F1041F0020100E040E084F83F101F
:1037D0000A2805DC94F83F0020F0020084F83F003E
:1037E000606C40453BDA401C6064404538DB154F57
:1037F000666437F8150020F025FB401C01B237F94C
:10380000150021E027E00000840000103CF00720B4
:1038100032010010040100102A010010E401001020
:10382000204002402A9D0200580200105002001061
:103830006073FFFF680100107CF107204401001055
:1038400042010010469D020020F0F0FB08E0B4F8B1
:103850004000401C7EE7B4F84200401CA4E76664C8
:10386000FB4F3888002854D0FA48B0F9000048458A
:10387000B4F9020004DAC11700EB9170801003E084
:10388000052190FBF1F000B2A188C1EB400000B22D
:10389000FCF736FD00EB8000400000B20C2190FBED
:1038A000F1F000B2E080B7F90010884233DDB4F9DE
:1038B0000800FCF725FDE849B1F9001001EB810192
:1038C000884228DAE5487321B0F9000048436421B2
:1038D00090FBF1F0B4F9021000B288421BDA94F8C0
:1038E0003D00800717D4B4F84800401C00B2A0F592
:1038F0003061A4F84800B83903D10121284601F00D
:10390000B1FCB4F9481040F6BD30814201DBA4F8A7
:103910004800BDE8FC9FA4F84860FAE710B5D04C19
:103920000020A1790A2907D2491CC9B2A1710A292C
:1039300002D3A07101212172E179052905D2491C28
:10394000C9B2E171052900D1E071BE20FCF74BFC42
:10395000C44928B1C4480268BF2A0FD140680CE0AE
:10396000207A58B1BB4800880880A07D022802D187
:10397000BE4800880880BE4800880880B1F9000071
:1039800062214143642291FBF2F1BA4B1980662116
:10399000484390FBF2F0B849088010BD2DE9F04192
:1039A000AF4CB4F9260008B1401EE084B348B44DD2
:1039B000B44E00882880B6F908000A27002806DAE5
:1039C000FCF79EFC90FBF7F0298808442880B6F9A4
:1039D0005400002806DAFCF793FC90FBF7F02988E6
:1039E00008442880A849B5F90000A84AB1F9001098
:1039F0003C2390FBF1F1491CC9B2A174B2F900203B
:103A000090FBF2F0401CC2B2A148E274B0F9005041
:103A1000A94201DD018004E0AA4203DAE18C09B980
:103A20000280E3849B490A889B490AB10A88028084
:103A3000B1F90020BDE8F04101219548FCF726BC12
:103A40002DE9F05F9548864CB0F9001094486187E5
:103A5000008810B1934800886087B4F95C0010B109
:103A6000401EA4F85C00B4F95E0010B1401EA4F83A
:103A70005E0084484FF00A0890F83F20920703D177
:103A800090F88B00800702D091FBF8F06087607A95
:103A90004FF000094FF0010B0A2808D2401CC0B2B9
:103AA00060720A2803D384F8099084F80AB0E120F0
:103AB000FCF799FB7C4F6B4BDFF8F0A1D0B36A4960
:103AC0000868642808D069280AD06E280CD0E52838
:103AD0001ED0E6281ED005E14968E08B084400E1CD
:103AE0004868E18B081AFCE0A08B401E00B2A0835E
:103AF0001E2806DD5949B7F90000B1F900108842C7
:103B000005DA0A230022E721E620FCF735FBE9E08D
:103B10004868E6E0B7F90000B3F90010884212DD0A
:103B2000A0EB01000A2806DDB4F91C00002802DD24
:103B3000401FD6E01CE0B4F91C00002836D0A17A62
:103B4000A1B3401ECDE031DA081A0A2807DDB4F926
:103B50001C0040F2F731884201DA401DC1E0B4F99F
:103B60001C00B0F57F7F21DAA17AF9B1401CB8E0E2
:103B7000A07AD8B14E48008818B19AF8A302282834
:103B800014D9B4F91E00E086B4F93810628F91FBA5
:103B9000F8F5B5EB420F56DC0DDAC2EB02168E4299
:103BA00009DAB4F85C1021B1401E91E09AE00A38BD
:103BB0008EE0C01E8CE0C2EB02168E4201DD954203
:103BC000F2DCB7F90050B3F90030294F394E9D426D
:103BD00030DAB7F90070B6F90060A7EB0606A3EB80
:103BE0000607AF4214DD002919DAB4F85C1069B990
:103BF0000A306DE0B4F85C1041B915E0C2EB421335
:103C000003EB8212B2FBF8F28A4262DD401C5FE0F5
:103C1000F71706EB9776A3EBA606AE4206DD02EB9E
:103C200082038B42EADDE5E7801C51E05B1E9D428A
:103C3000E4DB4EE04DDDB7F90010B6F90020891A3B
:103C4000CA18AA4238DAB4F85C100029AFD0ABE742
:103C500046010010340100102A0100102401001058
:103C600008000010FE010010A80000102C01001038
:103C70001A0100105A04001064C007205C040010F0
:103C800068C007203CF007202E0100103001001012
:103C900066C00720400100106C01001032010010C6
:103CA0007CC0072024020010E8010010CCF107209E
:103CB000100200101C010010CA1701EB927103EBF7
:103CC000A101A94219DAB4F85C100029BFD1801E05
:103CD000E08640F2F2320A21FF48FCF7D7FAE08E84
:103CE000E083A083FD4884F80C9084F80B904D4647
:103CF00052465B46B0F9001010E05B1C9D42A6DC0A
:103D0000E7E700BFC0EBC00606EB460602EB8606FF
:103D1000F6781E2E00D22373401CE072E07A8842AF
:103D2000F0DB207B20B94FF41670A083E083E0869F
:103D3000E94840F2F2320A211A38FCF7A7FAA572D4
:103D4000BDE8F09F2DE9F05FE74E0020E449DFF881
:103D500094834FF00A0B8246B6F9003024E0E34A20
:103D6000E34C125C34F91220B2F5FA6F0A560DDA00
:103D70000A2A08DA521C52B20A540A2A12DB012219
:103D800008F800200EE001F800B00BE0002A07DB85
:103D9000521E52B20A54002A04DC08F800A001E0C6
:103DA00001F800A0401CC0B29842D8DB0024DFF824
:103DB0004493D14DD14F71E0D14830F81400002820
:103DC00018F8040001D078B101E001280CD019F9ED
:103DD0000400002818DB401E40B209F80400002847
:103DE00014DC05F804A011E019F904100A2908DA16
:103DF000491C49B209F804100A2907DB012028559B
:103E000004E009F804B001E009F804A0395D285D78
:103E100081423FD0B04A363A918E491C91860128A2
:103E200007D014B3012C25D0022C28D0032C2BD082
:103E300030E034B1012C09D0022C0CD0032C0FD06F
:103E400028E001231A460F21AEA021E0012302221F
:103E50000F21AFA01CE0012303220F21AFA017E028
:103E6000012304220F21B0A012E0002301220F2120
:103E7000B0A00DE0002302220F21B3A008E0002330
:103E800003220F21B5A003E0002304220F21B8A0D4
:103E90001EF0E8FA285D3855641CE4B2B6F900005B
:103EA000844289DB4CE7B749B74A0120087010709B
:103EB0004870507070472DE9F05FB548DFF8D4E2E4
:103EC000DFF8C8C2B0F90070BEF90000824CC0EB48
:103ED0000011363CBCF902506FF01D0A6FF0950BD3
:103EE0000026DFF8A082B4F93E000AEB81020BEB5A
:103EF0008103BD4204DCA84FB7F90070BD4205DA6A
:103F0000824203DD834201DA88F80060A34DE14676
:103F1000BCF908C0B5F900509B4FBCEB450F03DC62
:103F20006D42BCEB450F04DA824202DD834200DAC7
:103F30003E706FF0090202EB81017546814220D18B
:103F4000A07DF0B998F8000001281AD1387801282E
:103F500017D14FF4D6701FF075FF9149B1F90010D9
:103F600088420ED08F48008858B199F83D00C007AC
:103F700007D14FF4D67020F059F88B480178491CCE
:103F800001708349B9F902204846B1F900108A420C
:103F900006DC8149B0F94E20B1F900108A420FDAEF
:103FA000B5F90010B4F93E20C1EB01110AEB810311
:103FB000934205DD0BEB8101914201DA88F8016043
:103FC0007649B9F95400B1F90010B0EB410F03DCA8
:103FD0004942B0EB410F0EDAB5F90000B4F93E10DA
:103FE000C0EB00100AEB80028A4204DD0BEB80007C
:103FF000884200DA7E70B5F90000C0EB00116FF066
:10400000090000EB8100B4F93E10884222D1A07D66
:1040100000BB98F8010001281CD17878012819D13B
:104020004FF4E57630461FF00DFF02465C48B0F9CC
:1040300002108A420ED05B48008802280AD199F803
:104040008900C00706D130461FF0F0FF56480178BE
:10405000491C0170B5F900006FF00101C0EB0010C0
:1040600001EB8000B4F93E10884202D1BDE8F05F58
:1040700019E765E62DE9F0034C484D4ADFF834C1F5
:1040800000784FF000084FF0010910B34A4861462C
:10409000B0F900604948B1F90010B0F90070484823
:1040A000BE42B0F900304748B0F900404648B0F988
:1040B00000504648B0F900000CDA834203DB84422A
:1040C00001DB854206DA4248B0F90000814202DA9B
:1040D00080E0A9E087E097E03E0000106C0100104E
:1040E0005AC007203502001072010010269D020000
:1040F000286A001053040010390200105EC0072027
:10410000C8020010534B20233120416C61726D00B6
:10411000534B20233220416C61726D00534B20239E
:104120003320416C61726D00534B20233420416C6D
:1041300061726D00534B20233120416C61726D2000
:104140006973206F66660000534B20233220416C58
:1041500061726D206973206F66660000534B2023E7
:104160003320416C61726D206973206F66660000B8
:10417000534B20233420416C61726D206973206F92
:10418000666600005E0400106AC007203CF007204D
:1041900064C007203A0100105A0400102A010010E0
:1041A000580200106A0100106CC00720E9000010DE
:1041B0001E04001078C00720E80100105E01001006
:1041C000F0010010F2010010F401001026010010AF
:1041D0005C010010491C09B2ACF80010814213D1F7
:1041E00082F8008013E0AF4FB7F90070BE420BDDDC
:1041F000834209DD844207DD854205DD21B1491E88
:1042000008B2ACF8000050B11078002809D1BDE820
:10421000F0030F2301226E21D220FBF7ADBF82F8FD
:104220000090BDE8F0037047ACF80080F7E79E48C7
:10423000002102880AB1018070479C4A1288002A36
:10424000FAD1012202809A48016070472DE9F04FAF
:104250009848DFF864829A490378984898F90020D2
:10426000B1F90010B0F9000088B023B1022B34D0AE
:10427000012B7ED0FDE0934E934B347896F801C02D
:10428000B3F90A501F7BB3F9566093F8583022B146
:10429000012A0FD1552C14D10FE0552C03D18542A2
:1042A00068DC002F66D1BCF1550F03D1864261DC7A
:1042B000002B5FD108B0BDE8F08F8D42FADA002FF5
:1042C000F8D1BCF1550F7ED18E42F3DA002B7AD0B3
:1042D000F0E700BF88F80000ECE77D4C7B4B94F8DA
:1042E00003C0B3F90030A76AE56F009594F8575002
:1042F0000195D4F8D050029594F8AB500395D4F8BA
:104300002451049594F8FF500595D4F878510695FA
:1043100094F85351AE46D4F8CC51079594F8A75170
:10432000D4F87462AB46D4F82052B146AA4694F849
:10433000FB5194F84F42DBB387421BDCBCF11E0FEC
:1043400018D2012B05DD009E864213DC019E1E2E35
:1043500010D2022B05DD029E86420BDC039E1E2E30
:1043600008D2032B08DD049E864203DC059E1E2E28
:1043700001E05CE07DE07CD2042B05DD069E8642F8
:1043800077DCBEF11E0F74D2052B05DD079E864239
:104390006FDCBBF11E0F6CD2062B03DD824568DC9F
:1043A0001E2D66D2072B03DD814562DC1E2C60D2F8
:1043B000012A8DD13BB18F428ADABCF10A0F87D234
:1043C000022B2DDB00E06BE00098884284DA019834
:1043D0000A28F4D2032B23DB02988842ECDA0398F4
:1043E0000A28ECD2042B1BDB04988842E4DA0598F7
:1043F0000A28E4D2052B13DB06988842DCDABEF1EA
:104400000A0FDCD2062B0BDB07988842D4DABBF10B
:104410000A0FD4D2072B03DB8A45CDDA0A2DCED280
:10442000082B3DDB8945C7DA0A2C39D342E72A4CF1
:10443000284BB4F90050B4F90260AA46274DB3F9ED
:104440000030B4F90440D5E900C7AD68B94693B16E
:1044500082450EDCBCF1000F0BD1012B04DD86423E
:1044600007DCB9F1000F04D1022B04DD844200DC2B
:104470000DB101202EE7012AD8D18BB18A45D5DABA
:10448000BCF1000FD2D1022B04DB8E42CEDAB9F19F
:10449000000FCBD1032B03DB8C42C7DA002DC5D133
:1044A000002017E7600100107CC00720780400108E
:1044B00074040010E80000100800001058010010FB
:1044C0005A0100107E0100103CF007206C01001022
:1044D000CCF1072070010010AA0200107C0A08200D
:1044E00070B5FB480278FB48016812B141F0010148
:1044F00001E021F001010022F74C01605FF00101B1
:1045000002EB420303EB021304EB830393F83D3009
:10451000DB0706D0551C01FA05F305689D431D43D2
:1045200004E0531C056801FA03F39D43521CD2B208
:104530000560022AE4D3E94C002200BFC2EBC203AB
:1045400003EB430304EB83035B7833B1D51C01FA1F
:1045500005F305689D431D4303E0D31C01FA03F3F3
:104560009D43521CD2B205600C2AE7D32A46D94D8E
:1045700000231435EC5C34B103F10F0601FA06F4A4
:10458000A243224304E003F10F0401FA04F4A2431E
:104590005B1CDBB2062BEDD3D14D00230260EC5C3B
:1045A000012C2FD003F1190401FA04F4A2435B1C7F
:1045B000DBB2042BF3D30260836822EA0301C160FB
:1045C00044680C43C74944600D8815B124F0007459
:1045D00044604C881CB1446824F0806444608C883A
:1045E0001CB1446824F000644460C98819B1416872
:1045F00021F0805141609343D943BB4B01611B883B
:104600003BB109E003F1190601FA06F4A243224383
:10461000CDE761F001010161036941681940C0E91A
:10462000011270BDF8B54FF4606528461FF00AFC12
:10463000401C04463F2800D9002421B228461FF020
:10464000F5FC40F6026630461FF0FCFB3F2800D028
:10465000204601B230461FF0E9FC28461FF0F2FB6D
:104660004FF4806101EB4010054655208DF80000A5
:1046700000268DF8016052208DF802008DF803604D
:10468000694628461FF057FD6946281D00961FF011
:1046900052FD964CA08B8DF80000207E8DF8010015
:1046A000207B8DF802008DF80360694605F1080053
:1046B0001FF041FD207A8DF8000020798DF801006F
:1046C00020788DF802008A48D0F880018DF8030028
:1046D000694605F10C001FF02EFD41248DF80040C5
:1046E0008DF801408DF802408DF80340694605F1D0
:1046F00010001FF020FD8DF800408DF801408DF86E
:1047000002408DF80340694605F114001FF013FDC7
:104710008DF800408DF801408DF802408DF803407F
:10472000694605F118001FF006FD8DF800408DF870
:1047300001408DF802408DF80340694605F11C00E8
:104740001FF0F9FCF8BD2DE9F843684D604A203DA3
:1047500000262F154FF46061012802D000287DD07B
:1047600037E101201070884608461FF06BFB401CA3
:1047700004463F2800D9002421B240461FF056FCD1
:1047800040F6026948461FF05DFB3F2800D02046F6
:1047900001B248461FF04AFC40461FF053FB07EBAE
:1047A000401750208DF800008DF8016041248DF8ED
:1047B00002408DF80360694638461FF0BCFC69462C
:1047C000381D00961FF0B7FC05F12005A88B8DF869
:1047D0000000287E8DF80100287B8DF802008DF8FE
:1047E0000360694607F108001FF0A5FC287A8DF8E0
:1047F000000028798DF8010028788DF802008DF8E6
:104800000360694607F10C001FF095FC8DF800402D
:104810008DF801408DF802408DF80340694607F19C
:1048200010001FF088FC8DF800408DF801408DF8D5
:1048300002408DF80340694607F114001FF07BFC2D
:104840008DF800408DF801408DF802408DF803404E
:10485000694607F118001FF06EFC00E011E08DF8CA
:1048600000408DF801408DF802408DF80340694604
:1048700007F11C001FF05FFC0023012202211DA094
:10488000A5E014481670B046026822F001020260EA
:10489000154A12881AB1426822F0010242600846A5
:1048A0001FF0D0FA064634464FEA070909EB4417D1
:1048B000694638461FF043FB9DF8000050283ED162
:1048C0009DF80100D8BB9DF80200412837D121E0B6
:1048D000F300001010C007203CF00720CCF10720A7
:1048E00039020010D80200102201001020400240BE
:1048F00000C00F404D61696E20706F77657220694E
:1049000073206F6666000000641E00E03F24B4421E
:10491000CCD15EE0694607F110001FF010FB9DF856
:10492000000041280BD19DF80100412807D19DF8D6
:104930000200412803D19DF80300412802D0002C39
:10494000E4D0E1E705F12005A88B8DF80000287E72
:104950008DF80100287B8DF8020044468DF8038015
:10496000694607F110001FF0E6FB287A8DF8000079
:1049700028798DF8010028788DF802008DF8034021
:10498000694607F114001FF0D6FBFF484224017866
:104990008DF8001040788DF801008DF802408DF8F8
:1049A0000340694607F118001FF0C5FB8DF8004071
:1049B0008DF801408DF802408DF80340694607F1FB
:1049C0001C001FF0B8FB01231A460221EFA01DF0C6
:1049D00049FD00BFBDE8F8832DE9F84F05460C00FE
:1049E0004FF054060BD0012C04D0022C04D0032C21
:1049F00004D004E0552602E0752600E04C26E94983
:104A0000C5EBC503DFF898A303EB43034FF0000B9E
:104A10004FF460604FF4806901EB8301012A02D0FA
:104A2000002A7DD090E134B1012C08D0022C0AD0AC
:104A3000032C0CD00FE04A7842F001020AE04A78D9
:104A400042F0020206E04A7842F0040202E04A78AC
:104A500042F008024A7081F8534080461FF0F2F994
:104A6000401C87B23F2F00D9002739B240461FF0C3
:104A7000DDFA40F602601FF0E5F980B23F2800D071
:104A8000384601B240F602601FF0D0FA40461FF0EF
:104A9000D9F909EB401087B253208DF800008DF84A
:104AA00001508DF80260D8468DF803B0694638464B
:104AB0001FF041FB6946381DCDF800801FF03BFB1D
:104AC000BAF83C000AF120068DF80000307E8DF81F
:104AD0000100307B8DF802008DF80380694607F1F4
:104AE00008001FF028FB307A8DF8000030798DF82F
:104AF000010030788DF802008DF80380694607F1D7
:104B00000C001FF018FB41268DF800608DF8016045
:104B10008DF802608DF80360694607F1100000E02F
:104B200084E01FF008FB8DF800608DF801608DF8BF
:104B300002608DF80360694607F114001FF0FBFA6C
:104B40008DF800608DF801608DF802608DF80360CB
:104B5000694607F118001FF0EEFA8DF800608DF835
:104B600001608DF802608DF80360694607F11C0052
:104B70001FF0E1FA25B1012D20D0022D3AD0E3E05B
:104B800034B1012C09D0022C0CD0032C0FD0DBE067
:104B900000230122042184A00DE001231A460421F0
:104BA00087A008E00223012204218CA003E0032354
:104BB0000122042191A01DF055FCC5E034B1012C67
:104BC00009D0022C0CD0032C0FD0BDE00023022210
:104BD000042192A0EFE701230222042195A0EAE735
:104BE00002231A4604219AA0E5E7032302220421A6
:104BF0009FA0E0E734B1012C09D0022C0CD0032C8B
:104C00000FD0A1E0002303220421A1A0D3E70123B8
:104C100003220421A4A0CEE7022303220421A9A099
:104C2000C9E703231A460421AEA0C4E734B1012C1E
:104C300008D0022C0AD0032C0CD00FE04A7822F0C6
:104C400001020AE04A7822F0020206E04A7822F0E5
:104C5000040202E04A7822F008024A701FF0F2F8DB
:104C600084B2A04609EB441087B2694638461FF06B
:104C700066F99DF80000532824D19DF80100A84250
:104C800020D19DF80200B0421CD1694607F1100006
:104C90001FF055F99DF80000412813D106E0641E6D
:104CA000A4B200E03F244445DCD14DE09DF8010072
:104CB000412807D19DF80200412803D19DF8030047
:104CC000412802D0002CEDD0E9E7BAF83C000AF107
:104CD00020048DF80000207E8DF80100207B8DF8E7
:104CE00002005D468DF803B0694607F110001FF021
:104CF00022FA207A8DF8000020798DF801002078C2
:104D00008DF802008DF80350694607F114001FF07A
:104D100012FA42248DF800408DF801408DF80240CF
:104D20008DF80340694607F118001FF004FA8DF86A
:104D300000408DF801408DF802408DF8034069462F
:104D400007F11C001FF0F7F900BFBDE8F88F2DE94F
:104D5000FC41064600EB460000EB0611694800EBFB
:104D60008104E08B05280DD367484FF46067008805
:104D7000801D00F0070004EB4000008CADF804003B
:104D80003846C3E030E10000500400104D61696E08
:104D900020706F776572206973206F6E00000000CD
:104DA00000400240CCF107204250532023312041E3
:104DB0006C61726D2C206F7665726865617400009D
:104DC00042505320233120416C61726D2C20766F4C
:104DD0006C746167652069732075700042505320C0
:104DE000233120416C61726D2C20766F6C74616789
:104DF0006520697320646F776E0000004250532075
:104E0000233120416C61726D2C20636F6E6E65637F
:104E100074206973206C6F7374000000425053203B
:104E2000233220416C61726D2C206F76657268654B
:104E30006174000042505320233220416C61726D36
:104E40002C20766F6C746167652069732075700023
:104E500042505320233220416C61726D2C20766FBA
:104E60006C7461676520697320646F776E00000061
:104E700042505320233220416C61726D2C20636FAD
:104E80006E6E656374206973206C6F73740000002C
:104E900042505320233320416C61726D2C206F7679
:104EA00065726865617400004250532023332041CD
:104EB0006C61726D2C20766F6C746167652069730C
:104EC0002075700042505320233320416C61726D75
:104ED0002C20766F6C7461676520697320646F772E
:104EE0006E00000042505320233320416C61726DEC
:104EF0002C20636F6E6E656374206973206C6F7312
:104F0000740000003CF00720E40100101EF09AFF3E
:104F1000401C85B23F2D00D9002529B238461FF02C
:104F200085F840F6026840461EF08CFF80B23F28AC
:104F300000D0284601B240461FF078F838461EF0EF
:104F400081FF4FF4806101EB401085B242208DF863
:104F500000008DF8016057208DF8020000268DF8C2
:104F60000360694628461FF0E6F8A07F8DF8000030
:104F7000E07F8DF801009DF804008DF802009DF897
:104F800005008DF803006946281D1FF0D4F804F1D0
:104F9000340105F108001FF0CEF804F1380105F1E5
:104FA0000C001FF0C8F8FF4CA08B8DF80000207E8D
:104FB0008DF80100207B8DF802008DF803606946B2
:104FC00005F110001FF0B7F8207A8DF80000207965
:104FD0008DF8010020788DF802008DF80360694695
:104FE00005F114001FF0A7F800BFBDE8FC812DE912
:104FF000F84F0646EC48DFF8AC9306EB460202EBAE
:1050000006124FF0000B4FF0420AA9F120094FF4AD
:1050100060674FF4806500EB8200012902D000290F
:105020007ED01DE110F83D1F41F0010101703846AE
:105030001EF008FF401C84B23F2C00D9002421B28E
:1050400038461EF0F3FF40F6026840461EF0FAFEB6
:1050500080B23F2800D0204601B240461EF0E6FF55
:1050600038461EF0EFFE05EB401085B28DF800A02B
:105070008DF8016043208DF802005F468DF803B083
:10508000694628461FF057F86946281D00971FF00B
:1050900052F8B9F83C0009F120048DF80000207E98
:1050A0008DF80100207B8DF802008DF803706946B1
:1050B00005F108001FF03FF8207A8DF800002079F4
:1050C0008DF8010020788DF802008DF80370694694
:1050D00005F10C001FF02FF841248DF800408DF8E9
:1050E00001408DF802408DF80340694605F110003B
:1050F0001FF021F88DF800408DF801408DF8024036
:105100008DF80340694605F114001FF014F88DF87E
:1051100000408DF801408DF802408DF8034000E01A
:1051200021E0694605F118001FF005F88DF80040F0
:105130008DF801408DF802408DF80340694605F175
:105140001C001EF0F8FF16B1012E05D088E00123E7
:105150001A46052195A003E001230222052198A00B
:105160001DF080F97CE010F83D1F21F00101017075
:1051700038461EF067FE87B23C46A84608EB44104E
:1051800085B2694628461EF0DAFE9DF800004228E6
:1051900024D19DF80100B04220D19DF8020043289F
:1051A0001CD106E0641EA4B200E03F24BC42E5D15D
:1051B00056E0694605F110001EF0C1FE9DF80000A2
:1051C00041280BD19DF80100412807D19DF802002C
:1051D000412803D19DF80300412802D0002CE4D0DF
:1051E000E0E7B9F83C0009F120048DF80000207ECA
:1051F0008DF80100207B8DF802005E468DF803B02B
:10520000694605F110001EF096FF207A8DF8000027
:1052100020798DF8010020788DF802008DF8036068
:10522000694605F114001EF086FF8DF800A08DF888
:1052300001A08DF802A054468DF803A0694605F13F
:1052400018001EF078FF8DF800408DF801408DF8B1
:1052500002408DF80340694605F11C001EF06BFF0B
:1052600000BF72E52DE9F84FDFF8388106464FF0B0
:10527000000A4FF04209A8F120084FF460604FF493
:105280008065012902D000297DD037E106EB460177
:1052900001EB06124449074601EB820111F83D2F4C
:1052A00042F002020A701EF0CDFD401C84B23F2C79
:1052B00000D9002421B238461EF0B8FE40F6026B39
:1052C00058461EF0BFFD80B23F2800D0204601B2F4
:1052D00058461EF0ABFE38461EF0B4FD05EB4010FC
:1052E00085B28DF800908DF8016053208DF8020092
:1052F00057468DF803A0694628461EF01CFF6946F4
:10530000281D00971EF017FFB8F83C0008F1200494
:105310008DF80000207E8DF80100207B8DF80200C2
:105320008DF80370694605F108001EF004FF207A2D
:105330008DF8000020798DF8010020788DF80200AA
:105340008DF80370694605F10C001EF0F4FE41244F
:105350008DF800408DF801408DF802408DF8034033
:10536000694605F110001EF0E6FE8DF800408DF84C
:1053700001408DF802408DF80340694605F11400A4
:105380001EF0D9FE00E042E08DF800408DF80140AB
:105390008DF802408DF80340694605F118001EF0B3
:1053A000CAFE17E0204002403CF007204241542052
:1053B000233120416C61726D2C206C6F737400007E
:1053C00042415420233220416C61726D2C206C6F5D
:1053D000737400008DF800408DF801408DF8024094
:1053E0008DF80340694605F11C001EF0A4FE16B1BD
:1053F000012E05D082E0022301220521FBA003E05B
:1054000002231A460521FFA01DF02CF876E01EF0BD
:1054100019FD87B23C46AB460BEB441085B269469A
:1054200028461EF08CFD9DF80000422824D19DF8EE
:105430000100B04220D19DF8020043281CD106E0B3
:10544000641EA4B200E03F24BC42E5D156E06946A8
:1054500005F110001EF073FD9DF8000041280BD1EE
:105460009DF80100412807D19DF80200412803D191
:105470009DF80300412802D0002CE4D0E0E7B8F802
:105480003C0008F120048DF80000207E8DF801001A
:10549000207B8DF8020056468DF803A0694605F181
:1054A00010001EF048FE207A8DF8000020798DF85B
:1054B000010020788DF802008DF80360694605F13F
:1054C00014001EF038FE8DF800908DF801908DF8D4
:1054D00002904C468DF80390694605F118001EF0C5
:1054E0002AFE8DF800408DF801408DF802408DF8BD
:1054F0000340694605F11C001EF01DFE00BF24E4B8
:10550000F3B5054600EB4500C44900EB051001EB7F
:105510008000C34983B04FF46066B1F9001000EB1E
:105520004100B0F92200019030461EF08BFC401C77
:1055300004463F2800D9002421B230461EF076FDF3
:1055400040F6026738461EF07DFC3F2800D020461A
:1055500001B238461EF06AFD30461EF073FC4FF46F
:10556000806101EB401442208DF800008DF801505D
:105570004B208DF8020000268DF803606946204616
:105580001EF0D9FD9DF810008DF800009DF8110067
:105590008DF801009DF804008DF802009DF80500CB
:1055A0008DF803006946201D1EF0C5FD4FF4FC7008
:1055B0001EF081FC9B4D2946286004F108001EF076
:1055C000BAFD4FF4FE701EF076FC6860291D04F1F0
:1055D0000C001EF0B0FD944DA88B8DF80000287EC5
:1055E0008DF80100287B8DF802008DF80360694674
:1055F00004F110001EF09FFD287A8DF80000287934
:105600008DF8010028788DF802008DF80360694656
:1056100004F114001EF08FFD05B0F0BD2DE9F84F28
:10562000814E0027203E35153C46BA464FF04209D0
:10563000012802D0002871D0FCE04FF460673846A2
:105640001EF000FC401C04463F2800D9002421B273
:1056500038461EF0EBFC40F6026840461EF0F2FBB6
:105660003F2800D0204601B240461EF0DFFC3846FD
:105670001EF0E8FB05EB40158DF800908DF801A0B9
:105680005A208DF8020054468DF803A0694628463A
:105690001EF051FD6946281D00941EF04CFD06F1D8
:1056A0002006B08B8DF80000307E8DF80100307B35
:1056B0008DF802008DF80340694605F108001EF0E0
:1056C0003AFD307A8DF8000030798DF8010030789D
:1056D0008DF802008DF80340694605F10C001EF0BC
:1056E0002AFD41248DF800408DF801408DF80240DC
:1056F0008DF80340694605F110001EF01CFD8DF881
:1057000000408DF801408DF802408DF80340694655
:1057100005F114001EF00FFD4EE0FFE74FEA05080B
:1057200008EB4415694628461EF009FC9DF8000068
:10573000422803D19DF802005A2804D0ECB3641E1D
:10574000BC42EDD176E0694605F110001EF0F7FB92
:105750009DF800004128F1D19DF801004128EDD1CC
:105760009DF802004128E9D19DF803004128E5D1C8
:1057700006F12006B08B8DF80000307E8DF8010018
:10578000307B8DF8020054468DF803A0694605F180
:1057900010001EF0D0FC307A8DF8000030798DF8C2
:1057A000010030788DF802008DF80340694605F15C
:1057B00014001EF0C0FC4C4600E03DE08DF80040B7
:1057C0008DF801408DF802408DF80340694605F1DF
:1057D00018001EF0B0FC8DF800408DF801408DF8E7
:1057E00002408DF80340694620E000004241542009
:1057F000233120416C61726D2C20617373696D657A
:105800007472790042415420233220416C61726DE0
:105810002C20617373696D65747279003CF0072008
:10582000E40100109C0000102040024005F11C0023
:105830001EF081FC00BF14E53F2471E7002801DA67
:10584000404200B2704710B54FF434701EF0FAFABF
:10585000FF4C207040F2D2201EF0F4FA60704FF43A
:1058600035701EF0EFFAA07040F2D6201EF0EAFA72
:10587000E0704FF436701EF0E5FA207240F2DA2044
:105880001EF0E0FA60724FF437701EF0DBFAA0727F
:1058900040F2DE201EF0D6FAE0724FF443701EF0A4
:1058A000D1FA207140F20E301EF0CCFA60714FF444
:1058B00044701EF0C7FAA07140F212301EF0C2FA16
:1058C000E07110BDE34810B5016821F0E0610160AE
:1058D0004168E24AC1F30B13DF4C117824F8113010
:1058E000491CC9B21170032903D2016841F08071CB
:1058F000016010BD2DE9F0470746DDE90A090E46B3
:10590000DDE9085A01B21446984698201EF08EFB35
:1059100000219A201EF08AFB002176201EF086FBD3
:105920000121CA201EF082FB3C21C2201EF07EFB1A
:1059300039B278201EF07AFB04EBD470401001B22B
:10594000C8201EF073FB31B27A201EF06FFB21B22B
:105950007C201EF06BFB4621C6201EF067FB502109
:105960007E201EF063FB0FFA88F182201EF05EFBA2
:10597000BB2184201EF05AFB002186201EF056FB1E
:105980000A2188201EF052FB0FFA89F1DE201EF05A
:105990004DFB29B28C201EF049FBE8000A2190FB48
:1059A000F1F001B28E201EF041FB0121A0201EF07B
:1059B0003DFB0121A2201EF039FB0121A4201EF095
:1059C00035FBA02192201EF031FB0FFA8AF19420C2
:1059D0001EF02CFB032196201EF028FB3221CC2048
:1059E0001EF024FB2821CE201EF020FB5521BC20D8
:1059F0001EF01CFB1E21BE201EF018FB0121802082
:105A00001EF014FB4621D0201EF010FB3C21D420B8
:105A10001EF00CFB1921D2201EF008FB5021D620CD
:105A20001EF004FB4621D8201EF000FB5B21DA208B
:105A30001EF0FCFA5021DC201EF0F8FA884C002100
:105A4000B4F900001EF0F2FA864D0021B5F900000D
:105A50001EF0ECFA844E4FF0FF373946B6F90000DD
:105A60001EF0E4FAB4F9020000211EF0DFFAB5F9E5
:105A7000020000211EF0DAFAB6F9020039461EF0E3
:105A8000D5FAB4F9040000211EF0D0FAB5F90400EB
:105A900000211EF0CBFAB6F9040039461EF0C6FA12
:105AA000B4F9060000211EF0C1FAB5F90600002184
:105AB0001EF0BCFAB6F9060039461EF0B7FA0A2104
:105AC0004FF419701EF0B2FABDE8F0470B214FF405
:105AD00018701EF0ABBA2DE9FF47002107231828E4
