:020000040000FA
:10000000D07F0010E1000000E5000000E7000000E4
:10001000E9000000EB000000ED000000000000001F
:10002000000000000000000000000000EF000000E1
:10003000F100000000000000F30000003B5F03003F
:10004000F7000000758F0300A98F0300F700000080
:10005000F700000043C30300F7000000F7000000B2
:10006000F7000000F7000000F7000000F7000000B4
:10007000F7000000F7000000F7000000F7000000A4
:10008000F7000000F7000000F7000000F700000094
:10009000F7000000F70000008F790000F700000073
:1000A000F7000000EFC00300F7000000F7000000B9
:1000B0009DE90300F7000000F7000000F7000000D2
:1000C000F7000000F7000000F7000000DFF80CD098
:1000D0003EF0CAFC00480047E5600300D07F0010F6
:1000E00005480047FEE7FEE7FEE7FEE7FEE7FEE71E
:1000F000FEE7FEE7FEE7FEE7CD000000FEE710B5F5
:100100003FF08CF93FF0E8F93FF0DAF9AFF3008007
:10011000BDE810403FF0A6B910B53FF065FF40F0D4
:1001200083FBBDE810403FF0B7BF3FF0CBBE3FF0D0
:1001300093BC09B1002070473FF098B80020704789
:1001400030B54FF000003D4BA3F1140202F10A0458
:10015000115C61B1255CA94209D1195C39B1A1F1E9
:100160000101C9B2195411B94FF000011154115CC9
:10017000215400F10100C0B20A28E9D330BD70B5A6
:100180004FF000042D4EA6F1140604F10104E4B270
:10019000355D1DB1854201D00A2CF6D33055274874
:1001A0000C3040F82410283040F82420343803550F
:1001B00070BD4FF00001214AA2F1140201F10101CA
:1001C000C9B2535C834201D00A29F7D3535C8342FE
:1001D00012D11A480C3050F8213019480360174BDF
:1001E000343353F8213043604FF000005054134A29
:1001F00050544FF001007047002070474FF000014D
:100200000E4AA2F1140201F10101C9B2535C83420A
:1002100001D00A29F7D3525C82420CD107480C3036
:1002200050F8212006480260044A343252F8211066
:10023000416001207047002070470000B0F60720A1
:10024000100000100D4BDA601870597070470B4A9F
:100250001161907070470949088170470749B1F9E9
:100260000800002809D0A0F1010000B20881002890
:1002700003D10146084601F097BC704718000010F2
:1002800090F900308B4200DA027090F9003093420E
:1002900000DD0170704790F900308B4200DA017088
:1002A00090F90010914200DD02707047B0F9003003
:1002B0008B4200DA0180B0F90010914200DD02802B
:1002C0007047B0F900308B4200DA0280B0F900309C
:1002D000934200DD01807047FE21C0B23EF0B0BB0A
:1002E0008021C0B23EF0ACBB1C21C0B23EF0A8BB26
:1002F0007021C0B23EF0A4BB70477047FFFFFFFF04
:10030000002802DAC0F1000000B270474FF0000090
:10031000FC4A4FF02001115400F10100C0B2C8287E
:10032000F9D3704701464FF00000F64A00F1010092
:10033000C0B2135C8B4201D0C828F7D3704710B508
:100340004FF00001F04C4FF00A020346B0FBF2F010
:1003500002FB1033635401F10101C9B20529F4D342
:1003600010BDF0B5E94D4FF0010129704FF00501C6
:10037000E54B4FF020064FF000072A7842B15A189B
:1003800012F8014C24B9814202D902F8016C07E04D
:1003900003EB010212F8014D04F1300414702F70C8
:1003A000A1F10101C9B20029E7D1F0BDFEB50346B4
:1003B0004FF02B07002B04DAC3F1000003B24FF01B
:1003C0002D074FF000004FF00A046D4693FBF4F642
:1003D00004FB16332B5433B200F1010040B20A285B
:1003E000F4DB4FF001034FF000044FF009004FF031
:1003F000200643B115F800C0BCF1000F03D19042B4
:1004000001DD2E5408E02B5C03F130032B544FF038
:10041000000304F10104E4B2A0F1010040B200289D
:10042000E7DA2D2F04D1204604F10104E4B22F5461
:100430008AB160B207E005EB000313F8013C2B54CE
:10044000A0F1010040B29042F5DC4FF02E00A8541C
:1004500004F10104E4B20846FFF764FF4FF0000125
:10046000A84A06E0A0EB01066B5C935501F101017F
:1004700049B2A142F6DBFEBDFEB503464FF02B07A5
:10048000002B03DAC3F100034FF02D074FF00000FB
:100490004FF00A046D461E4693FBF4F304FB13660B
:1004A0002E5400F1010040B20A28F4DB4FF00103A2
:1004B0004FF000044FF009004FF0200643B115F84B
:1004C00000C0BCF1000F03D1904201DD2E5408E0C2
:1004D0002B5C03F130032B544FF0000304F10104B3
:1004E000E4B2A0F1010040B20028E7DA2D2F04D1D8
:1004F000204604F10104E4B22F548AB160B207E04F
:1005000005EB000313F8013C2B54A0F1010040B2AD
:100510009042F5DC4FF02E00A85404F10104E4B23F
:100520000846FFF7FFFE4FF00001764A06E0A0EB19
:1005300001066B5C935501F1010149B2A142F6DB62
:10054000FEBD2DE9FE414FF02B0C002803DAC0F16F
:1005500000004FF02D0C4FF000044FF00A056F46DD
:10056000064690FBF5F005FB10663E5504F10104CC
:1005700064B20A2CF4DB4FF001054FF000044FF099
:1005800009004FF0200645B117F80080B8F1000FC0
:1005900003D1984201DD3E5408E03D5C05F1300591
:1005A0003D544FF0000504F10104E4B2A0F1010054
:1005B00040B20028E7DABCF12D0F05D1204604F146
:1005C0000104E4B207F800C08BB160B207E007EBAA
:1005D000000515F8015C3D54A0F1010040B29842BD
:1005E000F5DC4FF02E00F85404F10104E4B201EB05
:1005F000810002EB8000C1B24FF00000414A06E0EA
:10060000A1EB00053B5C535500F1010040B2A04254
:10061000F6DBBDE8FE8170B50D4616461C46FFF7B9
:100620008EFE601CC0B2FFF79CFE05EB850006EB5A
:100630008000C1B24FF00000334B324DA04201D2D6
:100640001A5C6A5407D31A5C202A04D064B105EB03
:10065000010606F8012CA1F10101C9B200F1010067
:10066000C0B20528EAD370BD6A54F4E730B5044639
:1006700008461546FFF756FEFF280CD0214A07E032
:1006800000EB050304F10104D15400F10100C0B2F4
:1006900021780029F4D130BD70B50D461446FFF71E
:1006A0004EFE601CC0B2FFF75CFE2846FFF73AFE24
:1006B0004FF00001144A134D24B9535C202B01D094
:1006C0002B5415E0A14202D2535C2B5410E008D108
:1006D0004FF02E032B5405EB0006535C06F8013C4B
:1006E00006E0535C202B03D005EB000606F8013C26
:1006F000A0F10100C0B201F10101C9B20529DBD3AB
:1007000070BD000022C307205E00001082C40720D5
:100710001044002801DA084403E0884201DBA0EB22
:100720000100C0B270472DE9FE4F04460D464FF45C
:10073000606039F062F962424021FFF7E9FF4FEA59
:10074000401000F58060044602A9204639F0DCF92B
:1007500001A904F1080039F0D7F9694604F10C0049
:1007600039F0D2F92846FFF7DDFD83469DF80800F1
:10077000DFF828A6DFF828964FF040064FF0300546
:100780004FF021074FF023084FF02004552845D0A3
:10079000CF22D12150287DD0E22351287BD042287E
:1007A0007AD0532879D0492878D14FF0C0010BF185
:1007B0000100C0B209F80B104FF0C20200F10101B4
:1007C000C9B209F800204FF02E0201F10100C0B2B9
:1007D00009F801204FF0C80200F10101C9B209F87F
:1007E00000204FF0ED0501F10100C2B209F80150FF
:1007F00002F10100C0B209F802309DF80910092980
:100800007DD201F1310100F10102D2B209F80010EC
:1008100002F10100C0B209F80240F5E39DF80A00B8
:10082000522815D14FF0C2010BF10100C0B209F8F6
:100830000B104FF0EA0200F10101C9B209F80020E3
:100840004FF0EB0201F1010000F0FF0B09F801206D
:100850000BF10100C0B209F80B4000F10101C9B26F
:1008600009F8004001F10100C0B209F8014000F1AF
:100870000101C9B209F8004001F10100C0B209F854
:1008800001409DF80410BAF83C20914250D19DF8E7
:10089000051004E092E054E11CE2FEE346E09AF821
:1008A0003820914244D19DF806109AF82C209142AC
:1008B0003ED100F10101C9B209F8005001F1010077
:1008C000C0B209F801704FF03A0200F10101C9B25B
:1008D00009F8002001F10100C0B209F8015000F14F
:1008E0000101C9B209F8006001F10100C0B209F8C4
:1008F000012000F10101C9B209F8005000E0FDE358
:1009000009F801809DF800004FF000024FF021012E
:10091000FFF7C2FE9DF8010000224021FFF7BCFE58
:100920009DF8020000222321FFF7B6FEBDE8FE8FEE
:1009300000F10101C9B209F8004001F10100C0B2A3
:1009400009F8015000F10101C9B209F8007001F184
:100950000100C0B209F8016000F10101C9B209F853
:10096000004001F10100C0B209F8014000F10101AD
:10097000C9B209F8005009F801809DF806004FF04F
:1009800000024FF02101FFF787FE9DF804000022CE
:100990002321FFF781FE9DF80500401E0C2803D39C
:1009A0004FF001008DF805009DF80510FD4800226C
:1009B00000EB81004021FFF759FEB7E74FF0C0037D
:1009C0000BF10100C0B209F80B304FF0C20300F187
:1009D000010C0CF0FF0C09F800304FF02E030CF165
:1009E0000100C0B209F80C3000F10103DBB209F8D4
:1009F000002003F10100C0B209F8031000F1010169
:100A0000C9B209F8004001F10100C2B209F8014081
:100A100002F10100C0B209F802409DF80410BAF8D2
:100A20003C20914247D19DF805109AF83820914218
:100A300041D19DF806109AF82C2091423BD100F14B
:100A40000101C9B209F8005001F10100C0B209F872
:100A500001704FF03A0200F10101C9B209F800201B
:100A600001F10100C0B209F8015000F10101C9B261
:100A700009F8006001F10100C0B209F8012000F19D
:100A80000101C9B209F8005009F801809DF8000081
:100A90004FF000024FF02101FFF7FEFD9DF801002D
:100AA00000224021FFF7F8FD9DF8020000222321DB
:100AB000FFF7F2FD3AE700F10101C9B209F8004081
:100AC00001F10100C0B209F8015000F10101C9B201
:100AD00009F8007001F10100C0B209F8016000F1ED
:100AE0000101C9B209F8004001F10100C0B209F8E2
:100AF000014000F10101C9B209F8005009F8018074
:100B00009DF806004FF000024FF02101FFF7C4FDF1
:100B10009DF8040000222321FFF7BEFD9DF805008B
:100B2000401E0C2803D34FF001008DF805009DF8FE
:100B300005109C48002200EB81004021FFF796FD44
:100B4000F4E64FF0C0010BF10100C0B209F80B1040
:100B50004FF0C20200F10101C9B209F800204FF0C4
:100B60002E0201F10100C0B209F801204FF0550238
:100B700000F10101C9B209F8002001F10100C0B281
:100B800009F801304FF0FB0200F10101C9B209F888
:100B900000204FF0F50001F10102D2B209F8010086
:100BA00002F10100C0B209F802409DF80410BAF841
:100BB0003C20914247D19DF805109AF83820914287
:100BC00041D19DF806109AF82C2091423BD100F1BA
:100BD0000101C9B209F8005001F10100C0B209F8E1
:100BE00001704FF03A0200F10101C9B209F800208A
:100BF00001F10100C0B209F8015000F10101C9B2D0
:100C000009F8006001F10100C0B209F8012000F10B
:100C10000101C9B209F8005009F801809DF80000EF
:100C20004FF000024FF02101FFF736FD9DF8010063
:100C300000224021FFF730FD9DF802000022232111
:100C4000FFF72AFD72E600F10101C9B209F8004080
:100C500001F10100C0B209F8015000F10101C9B26F
:100C600009F8007001F10100C0B209F8016000F15B
:100C70000101C9B209F8004001F10100C0B209F850
:100C80000140024600F10100C1B209F8025009F822
:100C900001809DF806004FF000024FF02101FFF7A0
:100CA000FBFC9DF8040000222321FFF7F5FC9DF8D2
:100CB0000500401E0C2803D34FF001008DF80500FD
:100CC0009DF805103748002200EB81004021FFF716
:100CD000CDFC2BE69DF80A0043287DD14FF0C001E2
:100CE0000BF10100C0B209F80B104FF0C20200F185
:100CF0000101C9B209F800204FF02E0201F10100F4
:100D0000C0B209F801204FF0C10200F10101C9B2DF
:100D100009F800204FF0E00001F10102D2B209F819
:100D200001004FF0F20102F10100C0B209F8021017
:100D30009DF80920092A11D202F1310200F10101C6
:100D4000C9B209F8002001F10100C2B209F801405E
:100D500002F10100C0B209F8024034E0A2F1090139
:100D60005A2921D202F101024FF00A0CB2FBFCF326
:100D700003F1300B00F10101C9B209F800B00CFB1E
:100D8000132000F1300001F10102D2B209F8010094
:100D900002F10100C0B209F8024014E00040024034
:100DA00022C30720A816040000F10101C9B209F806
:100DB000004001F10100C2B209F8014002F1010056
:100DC000C0B209F802409DF80410BAF83C209142E4
:100DD0004DD19DF8051000E092E09AF8382091423C
:100DE00045D19DF806109AF82C2091423FD100F190
:100DF0000101C9B209F8005001F10100C2B209F8BD
:100E000001704FF03A0302F10100C0B209F802305C
:100E100000F10101C9B209F8005001F10100C0B2AE
:100E200009F8016000F10101C9B209F8003001F1CF
:100E30000100C0B209F8015000F1010101F0FF0BFF
:100E400009F800809DF800004FF000024FF02101EA
:100E5000FFF722FC9DF8010000224021FFF71CFC57
:100E60009DF8020000222321FFF716FC48E000F164
:100E70000101C9B209F8004001F10100C0B209F84E
:100E8000015000F10101CAB209F8007002F101003D
:100E9000C1B209F8026001F10100C0B209F80140D5
:100EA00000F10101C9B209F8004001F10100C0B22E
:100EB00009F8015000F1010101F0FF0B09F8008071
:100EC0009DF806004FF000024FF02101FFF7E4FB10
:100ED0009DF8040000222321FFF7DEFB9DF80500AA
:100EE000401E0C2803D34FF001008DF805009DF83B
:100EF0000510FF48002200EB81004021FFF7B6FB00
:100F00009DF80A0053287ED14FF0C0030BF1010079
:100F1000C0B209F80B304FF0C20200F10101C9B2B2
:100F200009F800204FF02E0201F10100C0B209F8CB
:100F300001204FF0C10200F10101C9B209F80020FF
:100F40004FF0E00001F10102D2B209F801004FF0C8
:100F5000F20102F10100C0B209F802109DF8091077
:100F60004FF0430C092911D201F1310100F10102C6
:100F7000D2B209F8001002F10100C1B209F8023042
:100F800001F10100C0B209F801C021E009395A2974
:100F90000FD200F10101C9B209F8003001F10100DE
:100FA000C2B209F801C002F10100C0B209F8024062
:100FB0000EE000F10101C9B209F8004001F10100A1
:100FC000C2B209F8014002F10100C0B209F80240C2
:100FD0009DF80410BAF83C2091424ED19DF80510BE
:100FE0009AF83820914248D19DF806109AF82C20A2
:100FF000914242D100F10101C9B209F8005001F15A
:101000000100C0B201E085E0FEE309F801704FF095
:101010003A0200F10101C9B209F8002001F1010012
:10102000C0B209F8015000F10101C9B209F800602D
:1010300001F10100C0B209F8012000F10101C9B2BB
:1010400009F8005001F1010000F0FF0B09F80180E0
:101050009DF800004FF000024FF02101FFF71CFB4C
:101060009DF8010000224021FFF716FB9DF80200C9
:1010700000222321FFF710FB4CE000F10101C9B26F
:1010800009F8004001F10100C0B209F8015000F177
:101090000101C9B209F8007000E006E301F10100A6
:1010A000C0B209F8016000F10101C9B209F80040BD
:1010B00001F10100C0B209F8014000F10101C9B21B
:1010C00009F8005001F1010000F0FF0B09F8018060
:1010D0009DF806004FF000024FF02101FFF7DCFA07
:1010E0009DF8040000222321FFF7D6FA9DF80500A1
:1010F000401E0C2805D34FF0010000E0D0E38DF82E
:1011000005009DF805107A48002200EB810040217F
:10111000FFF7ACFA9DF80A005A2877D14FF0C201C8
:101120000BF10100C0B209F80B104FF0C70200F13B
:101130000101C9B209F8002001F10100C0B209F8AB
:10114000014000F10101C9B209F8004001F10100BC
:10115000C0B209F8014000F10101C9B209F800402C
:1011600001F10100C0B209F801409DF80410BAF87D
:101170003C2091424BD19DF805109AF838209142BD
:1011800045D19DF806109AF82C2091423FD100F1EC
:101190000101C9B209F8005001F10100C0B209F81B
:1011A00001704FF03A0200F10101C9B209F80020C4
:1011B00001F10100C0B209F8015000F10101C9B20A
:1011C00009F8006001F10100C0B209F8012000F146
:1011D0000101C9B209F8005001F1010000F0FF0B54
:1011E00009F801809DF800004FF000024FF0210146
:1011F000FFF752FA9DF8010000224021FFF74CFA58
:101200009DF8020000222321FFF746FA48E000F192
:101210000101C9B209F8004001F10100C2B209F8A8
:10122000015002F10100C0B209F8027000F10101A1
:10123000C9B209F8006001F10100C0B209F801402B
:1012400000F10101C9B209F8004001F10100C0B28A
:1012500009F8015000F1010101F0FF0B09F80080CD
:101260009DF806004FF000024FF02101FFF714FA3D
:101270009DF8040000222321FFF70EFA9DF80500D7
:10128000401E0C2803D34FF001008DF805009DF897
:1012900005101748002200EB81004021FFF7E6F916
:1012A0009DF80A0057287ED14FF0C1010BF10100D3
:1012B000C0B209F80B104FF0E00200F10101C9B211
:1012C00009F800204FF0F20001F10102D3B209F851
:1012D00001009DF809104FF0F00E092915D201F117
:1012E000310103F10100C0B209F8031002E000006F
:1012F000A816040000F10101C9B209F800E001F1EB
:101300000100C2B209F801402EE0A1F109005A28FB
:101310001BD201F101014FF00A0BB1FBFBF202F10C
:10132000300C03F10100C0B209F803C00BFB12122C
:1013300002F1300200F10101C9B209F8002001F107
:101340000100C2B209F801E00EE003F10100C0B2F1
:1013500009F8034000F10101C9B209F8004001F1A8
:101360000100C2B209F8014002F10100C0B209F85F
:1013700002409DF80410BAF83C2091424DD19DF8EE
:1013800005109AF83820914247D19DF806109AF836
:101390002C20914241D100F10101C9B209F800505D
:1013A00001F1010000E081E0C2B209F801704FF0E4
:1013B0003A0302F10100C0B209F8023000F1010164
:1013C000C9B209F8005001F10100C0B209F801608A
:1013D00000F10101C9B209F8003001F10100C0B209
:1013E00009F8015000F1010101F0FF0B09F800803C
:1013F0009DF800004FF000024FF02101FFF74CF97B
:101400009DF8010000224021FFF746F99DF80200F7
:1014100000222321FFF740F948E000F10101C9B2A1
:1014200009F8004001F10100C0B209F8015000F1D3
:101430000101C9B209F8007001F10100C2B209F856
:10144000016002F10100C0B209F8024000F101019F
:10145000C9B209F8004001F10100C0B209F8015019
:1014600000F1010101F0FF0B09F800809DF8060072
:101470004FF000024FF02101FFF70EF99DF8040034
:1014800000222321FFF708F99DF80500401E0C28D3
:1014900003D34FF001008DF805009DF80510FF48BB
:1014A000002200EB81004021FFF7E0F89DF80A00E0
:1014B0004B287FF40EAC4FF0C1010BF10100C0B21C
:1014C00009F80B104FF0E00200F10101C9B209F870
:1014D00000204FF0F20201F10100C0B209F8012032
:1014E0009DF80910092915D201F1310100F101021D
:1014F000D2B209F800104FF0EA0102F10100C0B2C7
:1015000009F802104FF0E50200F10101C9B209F833
:10151000002030E0A1F109025A2A1DD201F1010197
:101520004FF00A0BB1FBFBF303F1300C00F10102A9
:10153000D2B209F800C00BFB131101F1300102F126
:101540000100C0B209F802104FF0EA0200F10101F7
:10155000C9B209F800200EE000F10101C9B209F892
:10156000004001F10100C0B209F8014000F10101A1
:10157000C9B209F8004001F10100C0B209F8014008
:101580009DF80410BAF83C20914248D19DF805100E
:101590009AF83820914242D19DF806109AF82C20F2
:1015A00091423CD100F10101C9B209F8005001F1AA
:1015B0000100C0B209F801704FF03A0200F10101D8
:1015C000C9B209F8002001F10100C0B209F80150C8
:1015D00000F10101C9B209F8006001F10100C0B2D7
:1015E00009F8012000F10101C9B209F8005009F819
:1015F00001809DF800004FF000024FF02101FFF73D
:101600004BF89DF8010000224021FFF745F89DF8B6
:10161000020000222321FFF73FF8BDE8FE8F00F112
:101620000101C9B209F8004001F10100C0B209F896
:10163000015000F10101C9B209F8007001F1010087
:10164000C0B209F8016000F10101C9B209F8004017
:1016500001F10100C0B209F8014000F10101C9B275
:1016600009F8005009F801809DF806004FF00002CB
:101670004FF02101FFF710F89DF80400002223210C
:10168000FFF70AF89DF80500401E0C2803D34FF021
:1016900001008DF805009DF805108048002200EB40
:1016A00081004021FEF7E2FFB7E74FF0C0030BF1E6
:1016B0000100C0B209F80B304FF0C20300F1010C79
:1016C0000CF0FF0C09F800304FF02E030CF1010074
:1016D000C0B209F80C304FF0C10C00F10103DBB2CD
:1016E00009F800C003F1010000F0FF0C09F8032025
:1016F0000CF10100C0B209F80C109DF80920092A6C
:101700000CD202F1310200F10101C9B209F8002046
:1017100001F10100C2B209F8014024E0A2F109017F
:101720005A2916D202F101024FF00A0BB2FBFBF369
:1017300003F1300C00F10101C9B209F800C00BFB44
:10174000132000F1300001F10102D2B209F80100CA
:1017500009E000F10101C9B209F8004001F10100FE
:10176000C2B209F8014002F10100C0B209F802401A
:101770009DF80410BAF83C20914249D19DF805101B
:101780009AF83820914243D19DF806109AF82C20FF
:1017900091423DD100F10101C9B209F8005001F1B7
:1017A0000100C0B209F801704FF03A0200F10101E6
:1017B000C9B209F8002001F10100C0B209F80150D6
:1017C00000F10101C9B209F8006001F10100C0B2E5
:1017D00009F8012000F10101C9B209F8005009F827
:1017E00001809DF800004FF000024FF02101FEF74C
:1017F00053FF9DF8010000224021FEF74DFF00221B
:101800009DF80200232100E06FE0FEF745FF04E7AA
:1018100000F10101C9B209F8004001F10100C0B2B4
:1018200009F8015000F10101C9B209F8007001F195
:101830000100C0B209F8016000F10101C9B209F864
:10184000004001F10100C0B209F8014000F10101BE
:10185000C9B209F8005009F801809DF806004FF060
:1018600000024FF02101FEF717FF9DF8040000224F
:101870002321FEF711FF9DF80500401E0C2803D31D
:101880004FF001008DF805009DF805100348002277
:1018900000EB81004021FEF7E9FEBEE6A816040039
:1018A000A1F109025A2A16D201F101014FF00A06EC
:1018B000B1FBF6F303F1300500F10102D2B209F8F1
:1018C000005006FB131101F1300102F10100C0B21A
:1018D00009F8021009E000F10101C9B209F800405D
:1018E00001F10100C0B209F8014009F8004094E696
:1018F000F0B50446084616461F46FEF713FD02469D
:101900001046FF4DFF2806D108E0295404F10104D8
:1019100000F10100C0B221780029F6D1F948007821
:10192000002806D0002F04D002EB06014FF05F0024
:101930006854F0BD2DE9F04F0746DDE909058846FA
:1019400091469A46FEF7EEFCEE4B2021EC4C0A2223
:101950004FF0640C012D09D11E783EB104EB000656
:10196000A6F10E06B1707170317017E097FBF2FBB3
:1019700002FB1B7E04EB00060EF1300E06F80CECA9
:101980009BFBF2FE02FB1EBB0BF1300B06F80DBCFD
:1019900097FBFCF707F1300706F80E7C022D09D102
:1019A0001E783EB104EB0006A6F10A06B170717014
:1019B000317017E098FBF2F702FB178B04EB00067F
:1019C000A6F10A060BF1300B86F802B097FBF2FB8A
:1019D00002FB1B7707F13007777098FBFCF707F1E4
:1019E00030073770032D09D11E783EB104EB000695
:1019F000A6F10606B1707170317017E099FBF2F72D
:101A000002FB179804EB0006A6F1060608F1300861
:101A100086F8028097FBF2F802FB187707F130078F
:101A2000777099FBFCF707F130073770042D09D167
:101A30001B783BB121542044A0F102004170017099
:101A4000BDE8F08F9AFBF2F102FB11A303F1300322
:101A5000235491FBF2F302FB13112044A0F1020086
:101A600001F1300141709AFBFCF101F1300101708C
:101A7000E6E717B501EB810002EB8000C2B29DF8EA
:101A80000030A14803F00F01445C9D498C54A2F141
:101A90000102D2B200EB13131B788B54A2F10102A6
:101AA000D2B29DF8013003F00F04045D8C54A2F112
:101AB0000102D2B200EB13131B788B54A2F1010286
:101AC000D2B29DF8023003F00F04045D8C54A2F1F1
:101AD0000102D2B200EB13131B788B54A2F1010266
:101AE000D3B29DF8032002F00F04045DCC54A3F19F
:101AF0000103DBB200EB12100078C8541EBD30B5F4
:101B0000824901247E4B91F9012091F904108A4207
:101B100004D100EB800003F8204030BD4D1CAA42E8
:101B200006D100F1010000EB800003F8204030BD39
:101B30008D1CAA4206D100F1020000EB800003F8E0
:101B4000204030BDCD1CAA4206D100F1030000EBBD
:101B5000800003F8204030BD0D1DAA4206D100F1DF
:101B6000040000EB800003F8204030BD4D1DAA4268
:101B700006D100F1050000EB800003F8204030BDE5
:101B80008D1DAA4206D100F1060000EB800003F88B
:101B9000204030BDC91D8A42FBD100F1070000EB97
:101BA000800003F8204030BD594B1A88A2F1010291
:101BB000104400B21880574A00EB8000024453489A
:101BC00013680360127902714278114441707047C2
:101BD00070B54F4DB5F9004004F101062E804D4D12
:101BE00004EB84042544494C26682E6026792E7126
:101BF000207061702271A37070BD2DE9F0418046A4
:101C00000F461646FEF782FB3D4C4FF0000518F8D4
:101C1000010B04F8010B05F10105EDB2142DF6D30B
:101C20004FF0000017F8011B04F8011B00F1010040
:101C3000C0B21428F6D34FF0000016F8011B04F8C8
:101C4000011B00F10100C0B21428F6D34FF00000D0
:101C500013F8011B04F8011B00F10100C0B21428A5
:101C6000F6D3BDE8F08110B5029CFFF7C6FF274808
:101C7000C378827841789F20FFF7AAFF642094FB05
:101C8000F0F0BDE81040C0B2FEF7E5BA2DE9FE4322
:101C90000D464FEA401000F58060044602A9204638
:101CA00037F032FF01A904F1080037F02DFF694633
:101CB00004F10C0037F028FF2846FEF733FB104CE8
:101CC0004FF0200600F10101C9B226544FF0300751
:101CD00001F10100C0B267544FF0210800F1010189
:101CE000C9B204F800804FF0400901F10100C0B210
:101CF00004F8019000F10101C9B226540CE0000083
:101D000022C30720EAC007203E170400A8C207200C
:101D100010C107200010082001F10100C0B2665474
:101D200000F10101C9B227544FF0230201F1010073
:101D3000C5B262549DF806004FF000024FF0210139
:101D4000FEF7AAFC9DF8040000222321FEF7A4FC64
:101D50009DF80500401E0C2803D34FF001008DF8BC
:101D600005009DF805001A49002201EB8000402182
:101D7000FEF77CFC05F10100C0B2665500F10101DF
:101D8000C9B2275401F10100C0B204F801804FF03C
:101D90003A0200F10101C9B2225401F10100C0B2BE
:101DA000675400F10101CDB204F800909DF80000E5
:101DB0004FF000024FF02101FEF76EFC9DF801008C
:101DC00000224021FEF768FC6655BDE8FE83000056
:101DD000A81604002DE9FC410446FE4E4FF0000712
:101DE000F775F07C4FF00103022808D0FA49095D2D
:101DF000552906D04FF06500F075BDE8FC81F375FC
:101E0000FBE704EB440101EB0412F44901EB82050A
:101E100095F83D10CA0703D04FF06600F075ECE767
:101E200095F83F20920703D54FF06700F075E4E77F
:101E3000890703D54FF06800F075DEE7E84AB5F989
:101E40000810B2F90020914203DD4FF06900F075EF
:101E5000D3E75242914203DA4FF06A00F075CCE7C3
:101E6000DC490128097D00D111B1012804D005E029
:101E70004FF06B00F075C0E701297ED04FF0640091
:101E8000F075F374A6F8583019464FF4F87037F02F
:101E9000B2FE3475A6F85A4021464FF4FA7037F076
:101EA000AAFEAF61CF48002130F9140037F0A3FE3D
:101EB0007775A6F85C7039464FF4FB7037F09BFEDF
:101EC000C948008800F1010000F0070005EB400060
:101ED000008C0190C54DA88B00904FF063024FF02D
:101EE00001016846FEF7D7F9BA4C9DF80000A0340E
:101EF0002070287E00900C2201216846FEF7CBF965
:101F00009DF800006070287B00901F220121684628
:101F1000FEF7C1F99DF80000A0709DF80400E07084
:101F20004FF4FC70216837F0A7FE287A0090172242
:101F300000216846FEF7AFF99DF80000207128796E
:101F400000903B2200216846FEF7A5F99DF80000AD
:101F50006071287800903B2200216846FEF79BF9CB
:101F60009DF80000A0719DF80500E0714FF4FE702F
:101F7000616837F081FE40E7FFE74FF06C00F075D5
:101F80003BE72DE9F047934CE07C01287DD12146C9
:101F90000126097D607DC1F1010206FA02F1914F2F
:101FA0008E4D0AB210B1012834D038E01423CA2172
:101FB000C820FEF7E4F814234FF0FF32CE21CD20E5
:101FC000FEF7DDF8207D00EB400101EB001005EB92
:101FD0008000B0F90800FEF793F9217D01EB410282
:101FE00002EB011205EB820293691844906148F6F6
:101FF000A043984213DBA0EB0300906137F8110077
:1020000037F0FBFC401C01B2207D37F9100037F09F
:10201000F2FD04E01423CA21C820FEF7B0F8217DA8
:102020004FF4F87901EB410000EB011005EB800063
:102030004FF00008B0F902206D48B0F9000000EB45
:102040008000B2EB400F47DAB4F8540000F1010011
:1020500000B2A4F854001E2840DBE07C012822D105
:10206000607D00BB37F8110037F0C7FC01B2614852
:10207000227D30F9120037F0BEFD207D37F81000C8
:1020800037F0BBFC81B2207D00E049E005F062FA48
:102090005948217D30F91100002137F0ACFD4FF097
:1020A0003200A083E083207D4B49C0F10100085C31
:1020B000552808D084F81380A4F858800021484699
:1020C00037F099FD0AE06675A4F85C6001214FF4D1
:1020D000FB7037F090FD01E0A4F85480217D01EB06
:1020E000410000EB011005EB8000B0F90220C1F1C6
:1020F000010000EB400101EB001005EB8000B0F99E
:10210000020082420CDB607D012809D184F8138033
:10211000A4F858804846BDE8F047002137F06BBD71
:10212000BDE8F08770B505464FF00006294CE07C0D
:1021300018BB04F11A044FF0020104F8071CE187F0
:102140004FF4F87037F057FDE586C5EB05104FEA00
:1021500080010D46A1874FF4F97037F04CFD2946F8
:102160004FF4FF7037F047FD3046208760864FF010
:1021700001064FF0010005F082FA304670BD10B53F
:10218000144CE07C022813D104F11A04E08E05F00F
:1021900076FA4FF000006086E086208704F8070C8E
:1021A000E0870146BDE810404FF4F87037F023BDDA
:1021B00010BD70B50D4C203C94F838000F4D2978B7
:1021C00008440C281CD9A08F401C01B2B82037F05D
:1021D00012FD1AE004C0072098C107200CF7072061
:1021E00034C107201A1004005C0000102040024097
:1021F0002EC107203610040016100400F3C007207B
:10220000B4F93C10B82037F0F6FC94F83810287870
:1022100001440C2907D994F838100C380144B62031
:1022200037F0E9FC05E094F838100144B62037F0A7
:10223000E2FC94F82C001C2804D91C21B42037F0AF
:10224000DAFC04E094F82C10B42037F0D4FC04F14C
:102250002004217A4FF0AE0037F0CDFC2179B02078
:1022600037F0C9FC2178BDE87040B22037F0C3BC1C
:1022700010B5FF48FF4C007830B3FF48828FFF490C
:1022800009888A4220D190F83820FD4909888A427D
:102290001AD190F82C10FB4A1288914214D190F870
:1022A0002810F94A128891420ED190F82410F74A6A
:1022B0001288914208D190F82000F5490988884297
:1022C00002D14FF00100A075A07D00280CD0F1488C
:1022D0000088C0B2FFF726FF002805D04FF00000AD
:1022E000A075BDE8104064E710BD70B5E14CE07C1E
:1022F000022844D1B4F84E004FF4616100258842B1
:1023000015D200F1010080B2A4F84E0088420ED32D
:10231000A4F84E50B4F8500048B1A0F1010024F8E0
:10232000500F608800F101006080A4F15004B4F8FF
:102330004C003C2823D200F1010080B2A4F84C00EC
:102340003C281CD324F84C5F6089A0F1010001B245
:1023500061814FF4F97037F04EFC6089A4F14C04B0
:1023600000280CD1E574A4F8585001464FF4F870D9
:1023700037F041FCBDE87040002005F080B970BD29
:10238000C5486FF03B010088C0EB001001EB8000F6
:10239000B849A1F8400070472DE9F05FDFF8D4821A
:1023A000DFF8F8A20025B8F84000BD4E401C01B28D
:1023B000B948A8F84010DFF8EC92B0F900000A27FD
:1023C000C0EB00124FF0010B08F14604B1EB820F95
:1023D00061DBF0B3A8F840502570657088F80D50A7
:1023E000B1480078552811D1B6F9020050280DDD0A
:1023F000B6F90800FDF784FFB9F90010884203DB45
:1024000096F83D00C00701D084F800B0A648407897
:10241000552811D1B6F94E0050280DDDB6F95400FB
:10242000FDF76EFFB9F90010884203DB96F88900CA
:10243000C00701D084F801B09C48007880B9BAF98F
:102440000000FDF75DFFB9F90010884206DB9848EF
:1024500000E020E090F83D00C00701D088F80DB002
:102460009448007838B998F80E0020B198F8130015
:1024700028B1022803D02570657088F80D502078A7
:10248000012820D0607801281DD098F80D0001287F
:1024900019D0A8F842504146B8F94200DFF8D4817B
:1024A000002808F164087ED0A0F1010000B28B463C
:1024B000A1F84200052809DD0F231E226421E12036
:1024C000FDF75DFE0AE0A8F84270E4E7002805DDAC
:1024D0000F231E226921E120FDF751FEBBF84200C7
:1024E000052811D1B6F90800FDF70AFFA8F8000089
:1024F000B6F95400FDF704FFA8F80200BAF900008D
:10250000FDF7FEFEABF822005A48B0F84200002862
:1025100054D1B6F90800FDF7F3FEDFF858B10BF11E
:10252000680BABF80000B6F95400FDF7E9FEABF814
:102530000200BAF90000FDF7E3FEDFF838A1AAF8BF
:102540002400AAF84450B8F90000BBF90010084470
:10255000B9F90010884202DA2078012830D0B6F9A3
:102560000200C82804DD25700021084604F03EFD65
:10257000B8F90200BBF902100844B9F9001088420A
:1025800002DA607801281ED0B6F94E00C82804DDB2
:1025900065700021012004F029FDBAF92200BAF982
:1025A0002410084400E011E0B9F90010884205DA6F
:1025B0009AF80D00012801D1AAF84470BDE8F09FF7
:1025C000AAF84470D4E7AAF84470E6E7B1F94400E9
:1025D000E8B3A0F1010000B20F46A1F844000528BD
:1025E00006DD0F23C8226421E120FDF7C8FD07E0C6
:1025F000002805DD0F23C8226921E120FDF7BFFD7A
:10260000B7F84400052810D1B6F90800FDF778FEA8
:10261000A8F80000B6F95400FDF772FEA8F8020011
:10262000BAF90000FDF76CFE78841248B0F8440057
:102630000028C3D1B6F90800FDF762FE0D4F6837D8
:102640003880B6F95400FDF75BFE788000E06FE05B
:10265000BAF90000FDF754FEDFF818A0AAF824002C
:102660008AF80C50B8F90000B7F90010084423E0CC
:10267000F3C0072004C0072000400240A6C1072085
:10268000A4C10720A2C107209CC107209EC107202A
:10269000A0C10720A8C1072044C10720FEC1072010
:1026A0000CF7072034C1072098C107203100001023
:1026B000A4F70720FAC00720B9F90010884202DA0F
:1026C000207801282ED0B6F90200C82804DD257034
:1026D0000021084604F08AFCB8F90200B7F902109C
:1026E0000844B9F90010884202DA607801281CD049
:1026F000B6F94E00C82804DD65700021012004F001
:1027000075FCBAF92200BAF924100844B9F900108E
:102710008842BFF653AF9AF80D00012889D18AF894
:102720000CB04BE78AF80CB0D6E78AF80CB0E8E7B3
:10273000087B88460028F4D00F2300226E21E12078
:10274000FDF71DFDB6F90800FDF7DAFDB9F9001037
:10275000884207DD2078012804D125700021084631
:1027600004F044FCB6F95400FDF7CAFDB9F90010B5
:10277000884206DD6078012803D16570002104F0ED
:1027800035FCBAF90000FDF7BBFDB9F9001088422D
:1027900008DD98F80D00012804D188F80D500020BC
:1027A00004F024FA207830B9607820B998F80D0048
:1027B00008B988F80C50E620FDF7FBFC18B1FF487B
:1027C0000068E7280AD0FE48FE49B0F90000B1F9D8
:1027D000001000EB8000B1EB400FA2DA88F80C503B
:1027E0002078F94D01280FD1B9F90000B5F9001092
:1027F000400090FBF7F0884206DA96F83D00C007EB
:1028000002D1012104F0F2FB6078012810D1B9F95E
:102810000000B5F90010400090FBF7F0884207DA9D
:1028200096F88900C00703D10121084604F0DEFBB9
:1028300098F80D0001287FF474AFB9F90000B5F9DC
:102840000010400090FBF7F08842C6DADF4890F8AD
:102850003D00C007EFD1BDE8F05F012004F0C6B92C
:102860002DE9F047DA4CE08F401C00B2E087B0F56C
:10287000E16F02DB4FF00000E087B4F93E00B0F5F5
:10288000DF6F11D90F2301226421D220FDF777FCDD
:102890000F230022D821D720FDF771FC0F2300223F
:1028A000D821DC20FDF76BFCB4F93E00A0F5E06117
:1028B000073933D1C74DC84CC84E288821880A270C
:1028C000DFF81C83DFF81C93884210D0B6F90800AB
:1028D00090FBF7F000B2FDF713FDB8F90010884245
:1028E00005DAB4F90010B9F9000037F084F9688806
:1028F0006188884212D0B6F9080090FBF7F000B268
:10290000FDF7FEFCB8F90010884207DAB4F90210AE
:10291000B9F90200BDE8F04737F06DB9BDE8F087BE
:1029200010B5B14C208800F1010020804FF0080262
:102930004FF000012046FDF7C4FCA849B4F900009F
:1029400001EB40004A880284B1F84E10A0F86C10E8
:1029500010BD70B5A54DA648A64AB5F90010B0F94E
:10296000003092F9000099421FDAA34C0A280FDACE
:10297000A24BB3F900300F2B0ADD00F1010040B289
:1029800010700A2809DB2180012003F0F9FB04E024
:102990000A2802DB4FF00A001070B5F90000B4F904
:1029A0000010884200DA208070BDFDDD0028FBD0D9
:1029B000A0F1010040B210700028F5DCBDE87040C5
:1029C000002003F0DDBB2DE9FE4F8D488D4A8F4975
:1029D00090F89C0302908E4BB2F900B0B1F9001050
:1029E0000191DFF82482B3F900A0DFF828C28A4CF5
:1029F000774E45F211654FF4FA77072837D0314604
:102A0000874B0A8D7F49DFF8049241F2707AB1F961
:102A10000010B9F900904A43B3F90610B3F9143025
:102A200001FB09F1DFF8E89191FBFAF1B9F90090A7
:102A30007A4803FB09F393FBFAF3008809B21BB24F
:102A4000A84257D14FF47A6092FBF0F000B2A8F898
:102A50000000ACF800102380644A1080814200DA44
:102A60001180B2F9000083427EDA13807CE06D4869
:102A7000574B0178427803F18C0301EB02211FFAD6
:102A800081F9A3F800908178C27801EB02218AB223
:102A90005A80017990F805E001EB0E2189B2998006
:102AA00001FB0BF141F2707391FBF3F10FFA81FB23
:102AB000A8F800B0019902FB01F292FBF3F109B210
:102AC000ACF8001009FB0AF999FBF3F212B222806C
:102AD0008379C07903EB0023534803804348A0F86F
:102AE00000B0594500DA0180B0F900108A423BDAA3
:102AF000028039E0A0F5AC49B9F12F0908D019F1ED
:102B0000280905D0B9F1140902D019F1190914D115
:102B100049F6404092FBF0F000B2A8F80000ACF893
:102B200000102380314A1080814200DA1180B2F90E
:102B30000000834218DA138016E03C49A0F5AA434E
:102B4000B1F900202249098D5143FA3B01D05A1EA8
:102B500006D148F6B80091FBF0F02449088003E064
:102B600091FBF7F0214908800298072803D03048EC
:102B700001882D480180DFF8A880B8F900102D4A9F
:102B8000B2F9000048434FF4FA6990FBF9F0134C96
:102B90006080B8F90800284BB3F9001001FB00F180
:102BA0004FF42F7C91FBFCF0A080B8F91810B2F91B
:102BB000020000FB01F090FBF9F03FE01000001074
:102BC0002EC1072000C2072002C20720A4F7072059
:102BD00004C00720360000102E2200100CF707203A
:102BE0003CC10720421004005C0000100CC207200A
:102BF00030C1072066000010640000100EC10720DD
:102C00006CF9072062C407200EC20720460000109E
:102C100064C4072010C2072012C207209AC10720EF
:102C2000486800100EFD07201AC207205AC407206A
:102C300014C207203200001052C40720A4F84E002E
:102C4000B8F90210B3F9020000FB01F090FBFCF0B0
:102C5000A4F850004FF0DC00FDF7D0FA45F2136CF9
:102C6000F0BBDFF8F8A3BAF80000DFF8F4B3BBF864
:102C70000010A0EB0100FB4AB2F9001001FB00F1CB
:102C8000F94845F638630088984204D0A0F5BC4E58
:102C9000BEF1920E04D14FF4967E91FBFEF10FE04F
:102CA000A0F5A84EBEF5FD7E03D0604501D0A84238
:102CB00002D191FBF9F103E04FF47A7E91FBFEF132
:102CC0002181BAF80210BBF802A0A1EB0A0AB2F9FE
:102CD000021001FB0AF1984205D0A0F5BC4200E0C9
:102CE00017E0923A04D14FF4967091FBF0F00EE0A9
:102CF000A0F5AA42FA3A03D0604501D0A84202D119
:102D000091FBF9F003E04FF47A7091FBF0F0A4F836
:102D10005400B8F90C0040F6B7318246A0F22130D9
:102D200000234FF0010B0090884201D2237301E091
:102D300084F80CB0CD48B0F9002002FB0AF244F64A
:102D4000206092FBF0F2A2F211126281B8F90E201B
:102D500040F6B731A2F2213E8E4502D284F85830B7
:102D600001E084F858B0C149B1F90210514344F66A
:102D7000206091FBF0F0A0F21110BD49A1F85600BF
:102D8000B8F90410BB48B0F9000001FB00F04FF4A3
:102D9000FA6290FBF2F0DFF8E0E2AEF80000B8F97A
:102DA0000220B648B0F9000002FB00F2AE4845F23E
:102DB000FA540088A04204D14FF4C87992FBF9F28A
:102DC00001E092FBF7F20FFA82F9AD4AA2F8009007
:102DD000AEF80090C646AB4AB2F9002001FB02F102
:102DE00004D14FF4C87291FBF2F101E091FBF7F1CD
:102DF000A54A11804FF000073946A44AA44CB2F905
:102E000000200BE0C1EBC10808EB480804EB880880
:102E1000D8F82480474401F10101C9B29142F1DBA5
:102E20009C490F80BEF90A8040F6B73EA8F22131D6
:102E3000994F714501D23B6001E0C7F800B0974956
:102E4000B1F9001001FB08F844F6206E98FBFEF87B
:102E5000A8F21118DFF848E2AEF80080DDF8008033
:102E600040F6B73EF04501D23B6001E0C7F800B044
:102E700001FB0AF144F6206891FBF8F1A1F211116F
:102E8000DFF81C82A8F8001094F8A012DFF8148272
:102E9000092940D194F8A61294F8A7A2DFF808E215
:102EA00001EB0A21CEF8001094F8A8A294F8A9B278
:102EB0000AEB0B2ACEF804A094F8AAB294F8ABE27D
:102EC0000BEB0E2BDFF8E4E10FFA8BFBAEF800B052
:102ED000BBF1000F1FD1A1EB0A0A6249B1F9001042
:102EE00001FB0AF1A0F5A84ABAF5FD7A0DD0BAF1B6
:102EF000010A0AD0604508D0A84206D0BAF13405CC
:102F000003D0283501D0143D03D14FF4FA6591FB6D
:102F1000F5F1A8F80010564DA5F80290A0F5AC41C7
:102F2000023903D12889A8F8000002E0B8F80000AF
:102F30002881DFF87CC1BCF80000DFF878A1BAF97D
:102F4000001041434FF47A6B91FBFBF05A4980B279
:102F50000880DFF868E1642802D2AEF8000003E0E0
:102F600057480088AEF80000BCF802C0BAF9020069
:102F700000FB0CF090FBFBF048805249B1F90000D7
:102F8000DFF844C1BCF900A00AFB00FA41F27070FE
:102F90009AFBF0FBDFF834A1AAF800B0B1F902E027
:102FA000BCF902B00BFB0EFB9BFBF0FBAAF802B0D6
:102FB000B1F904B0BCF904C00CFB0BFC9CFBF0FCA9
:102FC000AAF804C0B1F906A0DFF804C1BCF900B04A
:102FD0000BFB0AFB9BFBF0FBDFF8F8A0AAF800B0A4
:102FE000B1F908E0BCF902B00BFB0EFB9BFBF0FB58
:102FF000AAF802B0B1F90A10BCF904C00CFB01FC3C
:103000009CFBF0F0AAF804002548DFF8CCB041881A
:1030100001F211110FFA81FAABF800A0808800F2DA
:1030200011100FFA80FCABF802C07868C1B28BF8BF
:103030000810B868C0B28BF80900284F01B910B168
:1030400001294DD04DE00AEB0C0000EBD0706FF47D
:10305000887101EB6000388061E000002E220010D2
:103060003600001056C407209AC107203A0000100D
:103070000CF707204400001000C207202C000010AD
:1030800006C207204800001004C207207CC10720A8
:103090006CF9072008C207207C0F08203E000010B2
:1030A000E2C20720FEC107208C00001034C20720B6
:1030B00092C407205CC40720E8C2072028C207206A
:1030C0000CC20720B268001078000010EEC2072082
:1030D00098C40720F4C20720D60F08201CC207207E
:1030E00008B129B106E0ACF2111CA7F800C016E047
:1030F000012802D0012905D011E0AAF2111AA7F87F
:1031000000A00CE001280AD1FF480078052803D26E
:10311000FE480088388002E04FF014003880FC48F8
:103120000178552904D1B9F1C80F01DD298931870A
:10313000407855280AD1B5F94E00C82806DDB5F902
:103140005400B5F90810884200DD3087B8F8000057
:1031500030874FF000012FE0C1EBC10000EB4000D1
:1031600004EB8000C678192E1CD28679C77906EB4D
:1031700007264662067A477A06EB07260662867AB3
:10318000C77A06EB0726C661067B8662467B80F817
:103190005260867B80F84260067C477C06EB0726FF
:1031A000C66406E0C36143620362836280F8423012
:1031B000C36401F10101C9B29142CDDBD54EB5F92D
:1031C00008104FF00A0091FBF0F1B5F9545095FB4F
:1031D000F0F00844C0F1000007B23780CE4D2B80DC
:1031E0004FF0000012E0C0EBC00101EB410104EB25
:1031F000810191F803C0BCF1050F04D2496AB5F80A
:1032000000C06144298000F10100C0B29042EADBB5
:103210002888384400B23080002800DA33803380B8
:103220002B804FF000000FE0C0EBC00101EB41012B
:1032300004EB8101CF78052F03D2496A2F883944E6
:10324000298000F10100C0B29042EDDB298803EB38
:10325000010000B23080002800DA3380AF48B0F9B6
:103260000050002D66D04FF00002AD4E60E002F13C
:103270001400C0EBC00000EB400004EB8000C178FC
:10328000192939D28179C77901EB072702EB42016D
:1032900006EB4111CF61077A90F809C007EB0C27C4
:1032A000CF62877A90F80BC007EB0C278F61077B02
:1032B0000F62477B81F84670877B90F80FC007EB61
:1032C0000C278F62077C90F811C007EB0C274F6228
:1032D0008B70877C81F85970C77C81F85A70077DA4
:1032E00081F85870477D81F85B70877D81F85C704C
:1032F000C07D81F85D0018E002EB420006EB401053
:10330000C361C3628361036280F8463043628362B3
:103310004FF01901817080F8593080F85A3080F8E8
:10332000583080F85B3080F85C3002F10102D2B294
:10333000AA429CDBBDE8FE8F7A4A7B4910780428BC
:1033400001D0012805D1507818B97848007855285F
:1033500003D0774800880870704708780028FBD0B1
:10336000A0F10100087070477248416821F44021C3
:1033700041F480214160416821F4403141F48031C1
:103380004160416821F4404141F480414160416C19
:1033900021F4402141F400214164416C21F4403189
:1033A00041F400314164416C21F4404141F4004159
:1033B00041646148016821F0E0610160016841F405
:1033C00000110160016821F480310160016821F47D
:1033D0007F4141F4807101604FF48071C1605748B2
:1033E0004FF48001016070472DE9F041544C608832
:1033F0002188401A00B204F086FAA61D3080A08809
:103400006188401A00B204F07EFA7080A08821889A
:10341000401A00B204F077FAB0804FF49671A4F12C
:103420009205884202DAA08868850CE0B6F90200AD
:10343000884202DA6088688505E0B6F900008842B3
:1034400001DA20886885AF7800262FB33D48B5F9AA
:103450002A1002680A44026042680A444260826894
:103460000A448260C2681144C160698E01F10101A1
:1034700009B26986B1F5805F00DB6E86B5F932105E
:103480008A0531D14FEAA12150F821204FEA2222AA
:103490002A8540F8216027E02B48EC782A7900EB58
:1034A0008413B5F92A1043F8221090070FD1014672
:1034B00053F820C0614400F10100C0B21028F7D3D6
:1034C0004FEA21101F49A1F1200121F81400641CCA
:1034D000E0B2E870102807D3EE7002F10102D0B21A
:1034E0002871102800D32E716E7007F1010707F0C4
:1034F0000100A870104A30B1106820F0FF0000F100
:103500000400106060E021E006C107202CC2072003
:1035100098C1072002C2072026C207207EC10720CB
:10352000EC030820A8C20720CAC00720F4C0072067
:10353000AAC1072000C002400040034000E100E0B3
:1035400096C007206868001048640010E9780807F2
:1035500006D4106820F0FF0000F10100106005E0C3
:10356000106820F0FF0000F102001060FA480368C4
:1035700043F080530360036A43F080430362036EA9
:1035800043F080630366CB070AD0436943F080535E
:1035900043618B0709D4436B23F08043436308E006
:1035A000436923F080534361F3E7436B43F0804367
:1035B0004363490704D4416F21F08061416703E010
:1035C000416F41F080614167106840F08070106089
:1035D000BDE8F081F0B5E14CB4F9200018B1A0F1DC
:1035E000010020848DE04FF00005E5722846DD499A
:1035F000DB4BB1F9002012E0C0EBC00101EB41014F
:1036000003EB81018E78012E06D1C978142903D2EB
:10361000E17A01F10101E17200F10100C0B29042D2
:10362000EADBE67A022E6CD341F288302067E56649
:1036300065674FF0000117E0C1EBC10000EB4000EF
:1036400003EB80008778012F0BD1406AE76EB84208
:1036500000DDE066276FB84200DA2067676F384404
:10366000606701F10101C9B29142E5DB606F90FB37
:10367000F6F6A667206F012100B92167E06E4FF0D2
:10368000640700FB07F0276F90FBF7F0E067A028C6
:1036900000DDA172782800DAA572A07A012830D165
:1036A0004FF000016FF0310429E0C1EBC10000EBE5
:1036B000400003EB80008578012D1DD1456AB5429D
:1036C00005DDB0F85050A5F10105A0F8505005DA1D
:1036D000B0F8505005F10105A0F85050B0F9505025
:1036E000A54201DAA0F85040B0F95050322D03DD68
:1036F0004FF03205A0F8505001F10101C9B29142DA
:10370000D3DB00BFF0BD2DE9F04197480168974A2F
:1037100001EA02010160904C216841F47C71216052
:10372000C16921F44021C161216E41F0007121661F
:10373000416821F040614160206840F00050206005
:103740008C488B4D8D4902788B4895F83C30B1F907
:1037500000100078134307D030B1052904DDA369B8
:1037600043F48073A36103E0E36943F48073E3618E
:1037700095F88830134307D030B1052904DDA069DE
:1037800040F04000A06103E0E06940F04000E061EB
:10379000D220FCF733FD7A4D10B12868642848D058
:1037A000E06940F00050E061D220FCF727FD754E43
:1037B00010B1286866284BD03068C00754D0A06F7D
:1037C00040F00070A0677048DFF8C081704F00883B
:1037D000A0F5AA41FA3901D0491E6FD1D220FCF7D9
:1037E0000DFD10B12868662843D03068C0074DD061
:1037F000A06F40F00070A067D220FCF7FFFC10B172
:1038000028686A2847D03068384252D0A06940F012
:103810008000A061D220FCF7F1FC10B12868672875
:103820004DD098F8000080B3A06940F01000A0616E
:10383000F0E16868012806D00028B5D1E06940F0C1
:103840000050E061B0E7A06940F00050A061ABE734
:10385000686820B1A06F40F00070A067B3E7E06F28
:1038600040F00070E067AEE7E06F40F00070E067A6
:10387000A9E7686820B1A06F40F00070A067BBE7BF
:10388000E06F40F00070E067B6E727E0E06F40F0DF
:103890000070E067B0E7686830B10128BAD1A0696C
:1038A00040F08000A061B5E7E06940F08000E06191
:1038B000B0E7E06940F08000E061ABE713E06868E2
:1038C00010B1012805D0A5E1E06940F01000E061E9
:1038D000A0E1A06940F01000A0619BE1E06940F028
:1038E0001000E06196E1A0F5AC41073972D1D22019
:1038F000FCF784FC10B12868672823D098F80000F2
:1039000048B3A06940F01000A061D220FCF776FC1B
:1039100010B12868662847D03068C00750D0A06F23
:1039200040F00070A067D220FCF768FC10B1286856
:103930006A284AD03068384257D0A06940F08000E9
:10394000A06167E1686828B30128DED1A06940F072
:103950001000A061D9E722E000C0092004C00720C0
:103960006CF907207CC1072000C00240FF00F0FF77
:103970000CF707202F000010CFC007200EC1072032
:1039800010000010B0C007209AC10720D1C0072046
:10399000F8070010E06940F01000E061B5E7E06969
:1039A00040F01000E061B0E7686820B1E06940F0E5
:1039B0000070E061B7E7A06940F00070A061B2E775
:1039C000A06B40F00070A063ADE7686818B10128F3
:1039D00006D01FE10EE0E06940F08000E06119E1EF
:1039E000A06940F08000A06114E1E06940F080002F
:1039F000E0610FE1A0F5AC411B3970D1D220FCF79A
:103A0000FDFB10B12868672831D098F80000B8B3E2
:103A1000A06940F01000A061D220FCF7EFFB10B1CC
:103A20002868662837D03068C00740D0A06F40F0C3
:103A30000070A067D220FCF7E1FB10B128686A286B
:103A40003AD03068384245D0A06940F08000A0618B
:103A5000D220FCF7D3FB10B128686A2840D0306828
:103A600038424CD0A06940F02000A061D2E06868E4
:103A700038B10128D0D1A06940F01000A061CBE797
:103A800004E0E06940F01000E061C5E7E06940F063
:103A90001000E061C0E7686820B1E06940F00070A4
:103AA000E061C7E7A06940F00070A061C2E7A06BC9
:103AB00040F00070A063BDE7686830B10128C7D14D
:103AC000A06940F08000A061C2E7E06940F080009A
:103AD000E061BDE7E06940F08000E061B8E713E035
:103AE000686810B1012805D094E0E06940F020003A
:103AF000E0618FE0A06940F02000A0618AE0E06909
:103B000040F02000E06185E0A0F5AC41113901D022
:103B10000F3163D1D220FCF771FB10B12868662801
:103B200023D03068C0072CD0A06F40F00070A06791
:103B3000D220FCF763FB10B128686A2826D03068D1
:103B4000384231D0A06940F08000A061D220FCF75B
:103B500055FB10B1286867282BD098F8000090B367
:103B6000A06940F01000A06154E0686820B1A06F27
:103B700040F00070A067DBE7E06F40F00070E067A6
:103B8000D6E7E06F40F00070E067D1E7686830B1D9
:103B90000128DBD1A06940F08000A061D6E7E06990
:103BA00040F08000E061D1E7E06940F08000E06132
:103BB000CCE7686810B1012806D02BE0E06940F03E
:103BC0001000E06126E004E0A06940F01000A06170
:103BD00020E0E06940F01000E0611BE0D220FCF73B
:103BE0000DFB10B1286866282DD03068C00736D08C
:103BF000A06F40F00070A067D220FCF7FFFA10B170
:103C000028686A2830D0306838423BD0A06940F03C
:103C10002000A061D220FCF7F1FA10B128687128C9
:103C200036D0F948B0F9000088B301280AD1D22073
:103C3000FCF7E4FA10B12868722844D0A06940F477
:103C40000070A061C4E4686820B1E06940F00070D1
:103C5000E061D1E7A06940F00070A061CCE7A06B03
:103C600040F00070A063C7E7686830B10128D1D187
:103C7000A06940F02000A061CCE7E06940F020009E
:103C8000E061C7E7E06940F02000E061C2E70DE0D5
:103C9000686830B10128D5D1A06940F40070A061F6
:103CA00096E4E06940F40070E06191E4D748008850
:103CB00020B1A06940F40070A06189E4E06940F49B
:103CC0000070E06184E4E06940F40070E0617FE44A
:103CD0002DE9F05FCE4E00274FF0010A707C0A28D4
:103CE00008D200F10100C0B270740A2802D37774C0
:103CF00086F812A0A6F84870A6F84A70CD20FCF706
:103D00007DFADFF81083DFF810B3A0B3C3494FF694
:103D1000FF730868CE2801D1A6F84A30CF2802D117
:103D20004A68A6F84A20D12802D14A68A6F8482055
:103D3000D22801D1A6F84830D02806D14868A6F884
:103D400048006FEA0000A6F84A004FF0000437E090
:103D5000B6F84A000AFA04F919EA000F0CD0C4EBCD
:103D6000C40000EB400008EB800030F8401F01F178
:103D70000101018008E028E0C4EBC40000EB400032
:103D800008EB8000A0F84070C4EBC40000EB4000DA
:103D900008EB800505F1400032220021FCF786FA8D
:103DA000B5F94000142801DD85F82CA0B6F84800CC
:103DB00019EA000F01D085F82C7004F10104E4B277
:103DC000BBF900008442C3DD8AE0B07CF0B34FF061
:103DD00000042146BBF900000AE0C1EBC10202EB7E
:103DE000420208EB820282F82CA001F10101C9B263
:103DF0008142F2DD4FF0000122E0C2B2202A01D957
:103E00004FF02002337E834201DB4FF000030B446E
:103E1000DBB2B3FBF2F502FB1532C2EBC20202EBDE
:103E2000420208EB82029378022B01D0012B04D1CD
:103E300082F82C7004F10104E4B201F10101C9B26D
:103E4000814206DA764AB2F9002000E048E0944266
:103E5000D3DB717EC1EBC10101EB410108EB8101B4
:103E600081F82C706F49B1F900103C290FDA4FF03E
:103E700000010AE0C1EBC10202EB420208EB820240
:103E800082F82C7001F10101C9B28142F2DD66496C
:103E9000098879B14FF000010AE0C1EBC10202EBE1
:103EA000420208EB820282F82CA001F10101C9B2A2
:103EB0008142F2DD4FF000016FF031030EE0C1EB03
:103EC000C10202EB420208EB820292F82C40012C64
:103ED00001D1A2F8503001F10101C9B28142EEDDF9
:103EE0004FF000004FF06304BBF900300FE0C0EB6F
:103EF000C00101EB410108EB8101CA6B22B181F8DD
:103F00002C40A2F10102CA6300F10100C0B2984244
:103F1000EDDBB774B7734FF00001084613E0C0EB58
:103F2000C00202EB420208EB82029478012C07D116
:103F3000B47B04F10104B473D2698A4200DD91B20A
:103F400000F10100C0B29842E9DBB187BDE8F09F03
:103F500070B50A23364C3548002522680068B2FB4C
:103F6000F3F6B0FBF3F1334AB1420BD111780F29CC
:103F700002D201F10101117011780A2903D32E49EF
:103F8000086000E0157020602C482D4CB0F900004E
:103F9000B4F90020B0FBF3F1B2FBF3F3294A9942E4
:103FA0000BD111780F2902D201F1010111701178A2
:103FB0000A2903D32449088000E01570208070BDD1
:103FC00010B5194B4FF00000188020484FF0010445
:103FD0004FF4FA62B0F900101D480129B0F9000051
:103FE00006D002290FD11B49B1F91A10A0B336E04F
:103FF0001849B1F9161008B9914203DC012802D121
:10400000914200DA1C8010BD92C1072052C20720E5
:1040100004C007206CF907207CC1072010000010A5
:104020008AC407200EC107205EC20720A0C4072053
:104030008000001086000010A0C20720840000103D
:10404000A4C40720A6C407202EC207205AC20720F6
:104050005CC2072048680010FFE7914203DC01289A
:10406000D1D19142CFDA1C80CDE72DE9F04106464F
:10407000C6EBC600FF4900EB400011F82020032AE0
:1040800077D101EB800494F84250A80717D5B4F912
:1040900046104FF49662914222DA01F1010108B212
:1040A000A4F8460090421BDBA4F846206078C007C5
:1040B00016D101220021304602F0EDFA10E0B4F9E9
:1040C000461069B1A1F1010108B2A4F8460038B95F
:1040D0006078C00704D000221146304602F0DBFAB7
:1040E00029074FF00A074FF0000015D5B4F9481022
:1040F0000A2926DA01F1010108B2A4F848000A28C9
:104100001FDBA4F84870607880071AD4012211469A
:10411000304602F0C0FA14E0B4F9481000290DDD71
:10412000A1F1010108B2A4F8480050B94FF0000213
:104130004FF00101304602F0AEFA02E001DAA4F8D5
:104140004800E80616D5B4F94A100A2920DA01F128
:10415000010108B2A4F84A000A2819DBA4F84A7041
:104160006078400714D401220221304602F093FA0D
:104170000EE046E0B4F94A0050B1A0F1010000B2EF
:10418000A4F84A0020B900220221304602F083FA46
:104190006078000703D04FF00400A07017E0B64825
:1041A000007830B1E078142803D94FF00500A070F2
:1041B0000DE094F84200800603D54FF00200A07095
:1041C00005E0E078142802D24FF00100A070E078FA
:1041D0000A2806D394F82C0040F0800084F82C00C4
:1041E00005E094F82C0000F07F0084F82C00A3492F
:1041F000B4F95000B1F91C10084420634FF47A70F0
:1042000060631FE570B54FF000009D499D4D4FF074
:104210000104B1F90C20034604FA00F10A4201D06E
:104220002C5400E02B5400F10100C0B20C28F3D351
:10423000954E2878954C317881420BD0B4F9001016
:10424000012907DB01287ED0002301220B2190A049
:1042500033F0C9FD7178687881420BD0B4F9001051
:10426000022907DB01286FD0002302220B218DA039
:1042700033F0B9FDB178A87881420BD0B4F90010C1
:10428000032907DB012872D0002303220B218AA017
:1042900033F0A9FDF178E87881420BD0B4F9001031
:1042A000042907DB012879D0002304220B2187A0F1
:1042B00033F099FD3179287981420BD0B4F900109F
:1042C000052907DB012871D0002305220B2184A0DA
:1042D00033F089FD7179687981420BD0B4F900100F
:1042E000062907DB012868D0002306220B2181A0C4
:1042F00033F079FDB179A87981420BD0B4F900107F
:10430000072907DB01285FD0002307220B217EA0AD
:1043100033F069FDF179E87981420BD0B4F90010EE
:10432000082907DB012856D0002308220B217BA097
:1043300033F059FD317A287A81420ED0B4F9001059
:1043400009290ADB01E013E019E001284AD0002323
:1043500009220B2176A033F046FD4FF00000295CC6
:10436000315400F10100C0B20C28F8D370BD0EE04A
:1043700001231A460B2173A033F035FD6AE70123B0
:1043800002220B2174A033F02EFD73E706E0012317
:1043900003220B2175A033F026FD7BE701230422C5
:1043A0000B2177A033F01FFD84E7FFE701230522EF
:1043B0000B2178A033F017FD8CE7012306220B2197
:1043C00079A033F010FD95E7012307220B217BA094
:1043D00033F009FD9EE7012308220B217CA033F076
:1043E00002FDA7E7012309220B217EA033F0FBFC8D
:1043F000B3E770B5C820FBF701FF7F490022A8B3DF
:104400007E4B01241868C9281CD0CA282FD010461A
:1044100000EB400303EB001301F8232000F101003F
:10442000C0B20228F4D34FF0000000EB400303EBCE
:10443000001311F82350142D1AD901EB830383F8CC
:104440003C4001E14FF0000000EB400303EB00159E
:1044500011F82530322B03D203F1010301F8253086
:1044600000F10100C0B20228EED3DCE7F3E0C7E0C0
:10447000E6E000006CF90720FAC0072004C007201E
:10448000B2680010F40F08205010082086C10720E1
:104490004176746F6D6174202331206973204F461B
:1044A000460000004176746F6D61742023322069EC
:1044B00073204F46460000004176746F6D61742092
:1044C0002333206973204F46460000004176746F05
:1044D0006D6174202334206973204F46460000002C
:1044E0004176746F6D6174202335206973204F46C7
:1044F000460000004176746F6D6174202336206998
:1045000073204F46460000004176746F6D61742041
:104510002337206973204F46460000004176746FB0
:104520006D6174202338206973204F4646000000D7
:104530004176746F6D6174202339206973204F4672
:10454000460000004176746F6D617420233120694C
:1045500073204F4E200000004176746F6D6174200F
:104560002332206973204F4E200000004176746F83
:104570006D6174202333206973204F4E20000000AA
:104580004176746F6D6174202334206973204F4E1F
:10459000200000004176746F6D617420233520691E
:1045A00073204F4E200000004176746F6D617420BF
:1045B0002336206973204F4E200000004176746F2F
:1045C0006D6174202337206973204F4E2000000056
:1045D0004176746F6D6174202338206973204F4ECB
:1045E000200000004176746F6D61742023392069CA
:1045F00073204F4E200000000CF707201000001021
:104600004FF000005E6804FA00F31E420CD000EB8D
:10461000400303EB001511F82530322B0AD203F1C9
:10462000010301F8253005E000EB400303EB001324
:1046300001F8232000F10100C0B20228E3D3F2E622
:1046400001EB830383F83C2000F10100C0B2022893
:10465000FFF4EBAE8AE64FF0000000EB400303EB03
:10466000001301F8232001EB830383F83C2000F1C1
:104670000100C0B20228F0D378E62DE9F041FD4DEB
:10468000FD48FE4CB5F90010B0F90020B4F9000067
:10469000914203DD00F10100208003E002DAA0F185
:1046A0000100208006220021F448FBF7FFFDB4F949
:1046B0000000F3490126052800DD0E7000240128C2
:1046C00000DA0C70EF49B5F90000EF4AB1F90010BB
:1046D000EE4F8B1E98420FDA92F900101E291EDA57
:1046E00001F1010149B211701E2918DB3988A1F1CD
:1046F00001013980147012E088420FDD92F9001038
:104700001E290CDA01F1010149B211701E2906DBE4
:10471000398801F101013980147000E01470DC491E
:10472000B1F90010884205DD14220021D748FBF7BB
:10473000BDFD07E0D74800210088093002B2D34808
:10474000FBF7B4FDF020FBF759FD28B1D248016812
:10475000F12901D140683880B7F90010CF4801290C
:1047600001DC067000E00470CD48DFF83883B0F952
:104770000000A0F13201282921D8B5F90010CA4F54
:10478000814203DD388800F101003880C748B0F964
:104790000000814203DA3888A0F101003880062247
:1047A0000021C148FBF782FDB7F90000052801DDB3
:1047B00088F80060012804DA88F8004001E088F8F1
:1047C0000040BB48BB4FB0F90000A0F132011E29E8
:1047D0001FD8B5F90010B84D814203DD288800F1DB
:1047E00001002880B548B0F90000814203DA28882A
:1047F000A0F10100288006220021AF48FBF756FDFA
:10480000B5F90000052800DD3E70012800DA3C7093
:10481000F7E43C70F5E42DE9FC5F0546A84931F961
:10482000150018B1A0F1010021F81500A44A121DCD
:1048300032F9150018B1A0F1010022F8150005EBBE
:10484000450000EB05139F484FF0640B00EB830419
:104850009D4BB4F90800B3F90030984201DD21F80E
:1048600015B0002801DA22F815B0954831F8153056
:10487000803800274BB132F8153033B1B0F86030D2
:10488000A3B140F6B831A0F85E10A0F85E7094F8BD
:104890003E00401CC0B284F83E000A2801D384F8D0
:1048A0003E708A4E3088322809D017E04FF41673D4
:1048B000A0F8603021F8157022F81570E5E794F83B
:1048C0003C0058B9B4F90200502807DA94F83D00CA
:1048D000C00703D10121284602F088FBB6F9000089
:1048E0007B4EC8280FDDB4F90800FBF709FDB6F9C7
:1048F0000010884207DD94F83D00C00703D0002176
:10490000284602F073FB7248B4F90810B0F90000B1
:104910004042814214DD607B0A280DD200F1010083
:10492000C0B260730A2871D3A07B00286ED0A77331
:10493000284602F0C9F869E04FF00A00607365E0AC
:1049400064DA607BF0B3A0F10100C0B26073C8BB51
:10495000A07BB8BB4FF00100A0735E48008800F157
:10496000010000F0070004EB4000008C00905A4E5C
:10497000B08B01904FF063024FF0010101A8FBF7EB
:104980008AFC04F11C049DF804002076307E01901E
:104990004FF00C024FF0010101A8FBF77CFC9DF8E1
:1049A00004006076307B01901F22012101A8FBF7F3
:1049B00072FC9DF80400A0769DF80000E076307A45
:1049C000019000E022E01722002101A8FBF763FC20
:1049D0009DF804002077307901903B22002101A846
:1049E000FBF759FC9DF804006077307801903B227A
:1049F000002101A8FBF74FFC9DF80400A0779DF86B
:104A00000100E07727806780A4F11C0448F6A048E5
:104A100094F83E0000282CD1B4F9081060690844CD
:104A20006061DFF8B890DFF8B8A0404565DB3AF97F
:104A30001510A1F5AA40553803D12A4830F8156061
:104A400001E03AF8156039F8150034F0D6FF80B26D
:104A5000B04249D26169A1F50041A1F54A616161A5
:104A600039F9152000F1010001B2104635F0C3F804
:104A70006EE09CE01CC2072054C107208800001093
:104A80003000001056C107202E00001030C2072051
:104A900058C107202AC20720100000104EC407206A
:104AA0005EC107202F000010A8C4072060C10720A6
:104AB0005AC107204FC407208A0000105CC107209C
:104AC00084C007200CF707203CC107200CC1072039
:104AD00034C107205C000010204002401610040082
:104AE00088C2072080C2072032D939F9150031B2B7
:104AF00035F081F8C4F814802AE0FA49884227DCAE
:104B00003AF91510A1F5AA40553803D1F64830F806
:104B1000156001E03AF8156039F8150034F06DFFC2
:104B200080B2B04205D939F9150031B235F063F8D9
:104B3000304658B161694144616139F91520A0F1ED
:104B4000010001B2104635F056F801E0E548606119
:104B500039F8150034F051FF01463AF91500A0F577
:104B6000AA42553A02D1E04830F915004FF47A7262
:104B700001FB02F158B1B1FBF0F04FF00A01B0FBBC
:104B8000F1F02082D9480088012803D009E04FF0D5
:104B90000000F2E7D649C5EB451001EB4000408A22
:104BA000208204F1100064220021FBF77FFBA07B30
:104BB000012813D1A08B40450FD2B4F90800FBF7B0
:104BC0009FFBA18B084480B2A083404506D3A783F6
:104BD000E08B00F10100E08300E0A783C549B4F950
:104BE0000A00B1F90010884201DD207BE8B3B4F877
:104BF0004000A0F10100A4F840004FF4167904F140
:104C000040004A460021FBF751FBB4F9400040F256
:104C10004E26B04205DB94F83F1041F0010184F8C4
:104C20003F100A2805DC94F83F0020F0010084F8CA
:104C30003F00B149B4F90A00B1F90010884201DD22
:104C4000207BA0B3B4F84200A0F10100A4F8420018
:104C500004F142004A460021FBF728FBB4F9420068
:104C6000B04207DB94F83F1000E021E041F0020180
:104C700084F83F100A2805DC94F83F0020F0020079
:104C800084F83F00606C404520DA00F10100606468
:104C900040451CDB6764994E36F8150034F0ADFED4
:104CA000401C01B236F9150034F0A5FF0FE006E014
:104CB000B4F8400000F10100A4F840009DE7B4F80A
:104CC000420000F10100A4F84200C1E767648C4E85
:104CD000308800285ED08B48B0F90000484508DADB
:104CE000B4F902004FEAE07100EB91704FEAA000C6
:104CF00006E0B4F902004FF0050190FBF1F000B2BC
:104D00004FEA4000A188A0EB010000B2FBF7F8FADF
:104D100000EB80004FEA400000B24FF00C0190FB26
:104D2000F1F000B2E080B6F90010884234DDB4F949
:104D30000800FBF7E5FA01467348B0F9000000EB04
:104D40008000814228DA71487321B0F9000048439D
:104D500090FBFBF0B4F9021000B288421CDA94F820
:104D60003D00800718D4B4F8480000F1010000B2FB
:104D7000A4F84800A0F53061B83903D101212846D4
:104D800002F07FFAB4F9481040F6BD30814201DBF1
:104D9000A4F84800BDE8FC9FA4F84870FAE738B5CD
:104DA0005B485D4C01885B48B0F9002039B15B4835
:104DB000006830B14FF01400ADF8000005E022802B
:104DC00027E057480088ADF80000564BBDF90010A9
:104DD000196055480029B0F9000012DB282902DDCE
:104DE0004FF028011960A2EB000101EB81014FEAAD
:104DF00041011A6801FB02F14FF0C80291FBF2F188
:104E000008444A49C97C022902D14948B0F9000046
:104E100020804848008810B1474800882080BE2084
:104E2000FBF7ECF928B145480168BF2901D140687A
:104E30002080B4F900004FF0620100FB01F14FF057
:104E4000640291FBF2F13E4B19804FF0660100FBCA
:104E500001F090FBF2F03B49088038BD2DE9F041AC
:104E6000324CB4F9260010B1A0F10100E0843648BC
:104E7000364D00882880364F0A26B7F908000028EA
:104E800006DAFBF73DFA90FBF6F029880844288003
:104E9000B7F95400002806DAFBF732FA90FBF6F077
:104EA0002988084428802B48B5F90010B0F9000083
:104EB00091FBF0F000F10100C0B2E073264AB2F9B4
:104EC000002091FBF2F101F10101C9B22174234BE1
:104ED0004FF03C05B3F90020904241DD1880E58495
:104EE00044E000006073FFFF80C2072072C107200A
:104EF00098F807204EC107204CC10720321004004B
:104F000050C107203EC1072034C107202EC1072011
:104F10006CC1072026C1072020C207207C0F082073
:104F2000E2C207207000001024C1072004C007203F
:104F300036C1072052C207204AC2072010000010C5
:104F40006C00001088C4072026C2072074000010DF
:104F50000CF7072038C107203AC107208AC4072070
:104F6000914203DAE08C08B91980E584F848018899
:104F7000F84809B101881980B0F90020BDE8F04176
:104F80000121F548FBF792B92DE9F05FF348F44CA5
:104F9000B0F900106187F348008810B1F24800882A
:104FA0006087B4F95E0018B1A0F10100A4F85E00BA
:104FB000B4F9600018B1A0F10100A4F86000EB485A
:104FC0004FF00A0590F83F20920703D190F88B002C
:104FD000800702D091FBF5F06087A07900260127B9
:104FE0000A2807D200F10100C0B2A0710A2801D33B
:104FF000A671E771E120FBF701F9DD4BDFF874C31F
:10500000DFF8748340F2F23B80B3DC49086864281F
:1050100009D069280CD0DA4A6E280FD0E52822D0B2
:10502000E62824D03CE14868E18B0844A08337E1BE
:105030004968E08BA0EB0100A08331E1A08BA0F1D7
:10504000010000B2A0831E2806DDCE49B2F900009F
:10505000B1F900108842E5DA0A230022E721E620B0
:10506000FBF78DF81CE14868A08319E13AE0B2F93A
:105070000010B3F90000814217DDBCF90010081AD6
:10508000282807DDB4F91C00002803DDA0F1050085
:10509000A08305E1B4F91C00002805D0E1790029BE
:1050A00002D0A0F10100A083FAE0BCF90010814217
:1050B0000BDA401A282809DDB4F91C0040F2F73158
:1050C000884203DA00F10500A083E9E0B4F91C008E
:1050D000B0F57F7F05DAE179002902D000F1010007
:1050E000A083DDE0E079002872D0A748008818B1DD
:1050F00098F8A30228286BD9B4F91E00E086B4F909
:105100003810628F91FBF5F9B9EB420F0ADDB4F864
:105110005E1019B1A0F10100E086B8E0A0F10A002C
:10512000E086B4E00EDAC2EB021A8A450ADAB4F875
:105130005E1019B1A0F10100E086A8E0A0F1030023
:10514000E086A4E0C2EB021A8A4505DD914503DD45
:10515000A0F10100E0869AE0BCF900C0B3F900308C
:10516000DFF82892DFF828A29C4564DAB9F90090AC
:10517000BAF900A0A9EB0A09A3EB090AE24528DD68
:1051800000290ADAB4F85E1019B100F10100E086D6
:105190007DE000F10A00E08679E002EB82038B42B9
:1051A0000ADDB4F85E1019B100F10100E0866EE08E
:1051B00000F10200E0866AE0C2EB421303EB8212C8
:1051C000B2FBF5F28A4262DD00F10100E0865EE0AA
:1051D00066E04FEAE97A09EB9A79A3EBA909E14580
:1051E0001ADD02EB82038B420ADDB4F85E1019B1BE
:1051F00000F10100E0864AE000F10200E08646E0AE
:10520000C2EB421303EB8212B2FBF5F28A423EDD9F
:1052100000F10100E0863AE05B1E9C4537DAC2EB04
:10522000421303EB8212B2FBF5F28A422FDD00F14A
:105230000100E0862BE02ADDB9F90010BAF9002060
:10524000891ACA1862450ADAB4F85E1019B1A0F1D9
:105250000100E0861BE0A0F10A00E08617E0CA1713
:1052600001EB927103EBA10161450ADAB4F85E101B
:1052700019B1A0F10100E08609E0A0F10200E0868A
:1052800005E05B1C9C4502DDA0F10100E08634488E
:105290005A460A213630FBF709F8E08EE083A083F6
:1052A000667226722B48B0F900200CE0C0EBC001FA
:1052B00001EB410108EB8101C9781E2900D2677218
:1052C00000F101002072207A9042EFDB607A20B971
:1052D0004FF41670A083E083E08621485A460A21E5
:1052E0001C30FAF7E3FFE671BDE8F09F2DE9F05FAF
:1052F0004FF00000294A274B274D4FF0010A4FF08D
:105300000A0B0646B2F9004052E02549254F095CD8
:1053100037F91110B1F5FA6F0EDA19560A2908DAC1
:1053200001F1010149B219540A293EDB05F800A038
:105330003BE003F800B038E01956002934DDA1F154
:10534000010149B2195400292FDC2E542DE0000030
:105350004AC107207CC107208AC407203CC107201E
:1053600004C0072052C2072048C207200CF70720BC
:1053700020C2072004C207206CF90720100000108B
:1053800000C207202EC1072034C2072024C10720F5
:1053900026C1072090C2072065C2072082C10720CE
:1053A0000E100400486800101E5400F10100C0B245
:1053B000A042AADB4FF00004DFF8FC93FF4FDFF8B8
:1053C000008482E0FF4830F9140010B9295D0129FA
:1053D0000FD008B1285D60B119F90400002819DB6D
:1053E000A0F1010040B209F80400002814DC3E5589
:1053F00012E019F904000A2809DA00F1010040B2AC
:1054000009F804000A2807DB07F804A004E009F8FB
:1054100004B001E009F8046018F80410385D814216
:105420004DD0E94A918E01F101019186012807D002
:1054300054B3012C2FD0022C34D0032C39D03EE0B1
:1054400034B1012C0BD0022C10D0032C15D036E037
:1054500001231A460F21DDA032F0C5FC2FE0012305
:1054600002220F21DCA032F0BEFC28E0012303223F
:105470000F21DCA032F0B7FC21E0012304220F2130
:10548000DBA032F0B0FC1AE0002301220F21DBA0E8
:1054900032F0A9FC13E0002302220F21DCA032F03D
:1054A000A2FC0CE0002303220F21DEA032F09BFCC3
:1054B00005E0002304220F21DFA032F094FC385DC8
:1054C00008F8040004F10104E4B2E048B0F9000077
:1054D0008442FFF677AF07E7DD4A4FF00100107016
:1054E000DC4908705070487070472DE9F05FDB4868
:1054F000DFF86C93DFF86083B0F900C0B9F9000001
:10550000B14CC0EB0011B8F902706FF01D0A6FF0DA
:10551000950B0025CE4EB4F940000AEB81020BEB4F
:105520008103674505DCDFF83CC3BCF900C0674573
:1055300004DA824202DD834200DA3570CA4FB8F9DC
:1055400008C0B7F900E0C34FBCEB4E0F04DCCEF14E
:10555000000EBCEB4E0F04DA824202DD834200DA19
:105560003D706FF0090202EB8101814220D1E07CA5
:10557000F0B9307801281BD13878012818D14FF4C0
:10558000D67034F03AFAB949B1F9001088420FD018
:10559000B748008860B198F83D00C00708D14FF4C3
:1055A000D67034F028FBB348017801F10101017095
:1055B000AA48B8F90210B0F90000814206DCA948F7
:1055C000B8F94E10B0F9000081420EDAB9F90000C6
:1055D000B4F94010C0EB00100AEB80028A4204DDEF
:1055E0000BEB8000884200DA75709F49B8F95400CF
:1055F000B1F90010B0EB410F03DC4942B0EB410FB1
:105600000EDAB9F90000B4F94010C0EB00100AEB53
:1056100080028A4204DD0BEB8000884200DA7D7054
:10562000B9F90000C0EB00116FF0090000EB810038
:10563000B4F94010884221D1E07CF8B97078012893
:105640001CD17878012819D14FF4E575284634F03B
:10565000D4F98649B1F9021088420FD084480088F5
:1056600002280BD198F88900C00707D1284634F0EA
:10567000C2FA8048017801F101010170B9F9000016
:105680006FF00101C0EB001001EB8000B4F9401095
:10569000884202D1BDE8F05F1EE725E62DE9F00360
:1056A0007548764F764E00784FF0000C4FF00108A9
:1056B000E8B374483946B0F900507348B1F90010A6
:1056C000B0F9009071484D45B0F900207048B0F92C
:1056D00000307048B0F900406F48B0F9000013DAAC
:1056E000824203DB834201DB84420DDA6B48B0F96E
:1056F0000020914223DA01F1010108B23880904282
:105700001DD186F800C01AE0DFF894C1BCF900C0D2
:10571000654514DD824212DD834210DD84420EDDD8
:1057200069B1A1F1010108B2388040B900E002E09E
:1057300086F8008003E0A7F800C086F80080307883
:10574000002807D1BDE8F0030F2301226E21D220EB
:10575000FAF715BDBDE8F0037047F8B5514F524D4B
:105760000024388898B1514A116801F10101116093
:105770004F48B0F90000C0EB4013C3EB0020B1EB81
:10578000001F00DB3C80288808B13C801460494839
:105790000126008878B1388868B93A484649B0F996
:1057A0000000B1F90010884205DA081A4349B1F93E
:1057B0000010884284E095E06700001069C207206D
:1057C00083C40720FAC2072004C00720534B2023BC
:1057D0003120416C61726D00534B20233220416CAB
:1057E00061726D00534B20233320416C61726D0058
:1057F000534B20233420416C61726D00534B2023A6
:105800003120416C61726D206973206F6666000003
:10581000534B20233220416C61726D206973206FDD
:1058200066660000534B20233320416C61726D206B
:105830006973206F66660000534B20233420416C4F
:1058400061726D206973206F6666000082C1072057
:105850008CC40720760000100CF7072088C40720AE
:1058600044C107206C00001034C1072088C2072003
:1058700078C107208EC40720EFC00720AAC40720E4
:1058800050C4072000C2072068C107200EC20720AD
:1058900010C2072012C2072030C1072066C10720AE
:1058A0006AC1072052C2072058C20720A4C207209D
:1058B0004CC207204EC2072020C2072050C207203A
:1058C00010DDFF480A21B0F9000090FBF1F0FD491E
:1058D0000988401A00B2FAF713FD052802DA288871
:1058E00000B93E80F848B0F90000012803D0022832
:1058F00001D02C8026E02C80F44BF5494FF4FA625D
:10590000012802D002280FD01CE0B3F9000018B91A
:10591000B1F91630934205DC012813D1B1F9160014
:1059200090420FDA2E800DE0B3F9000018B9B1F9FA
:105930001A30934205DC012804D1B1F91A009042D3
:1059400000DA2E802888E349012801D00C70F8BDC8
:10595000087800F10100C0B208701E28F7D30C705F
:1059600041F288300090DCA3E1A2E7A1ECA0FCF7B3
:105970007AF9F8BD08B5F048002102880AB1018023
:1059800008BDEE4A12884AB14FF4FA600090D2A3E3
:10599000EBA2F1A1F6A0FCF766F908BD4FF00102F9
:1059A0000280F948016008BD2DE9F041F74C207EE6
:1059B00060764FF000052576F54EB6F90000002818
:1059C00002DDB0F5FA7F02DD3580BDE8F081A07E12
:1059D00000F10100C0B2A0763C281AD3A5764FF49E
:1059E0009477384634F009F800F1010000B2A4F8C9
:1059F0006200E84AB6F90010B2F9002001FB02F19A
:105A0000814201DCA4F86250B4F96210384634F0E7
:105A1000F2F8B4F96200B6F9001090FBF1F02076CC
:105A2000D3E710B500214FF4947034F0E4F8D7496F
:105A30004FF03A00887610BD70B5D74CD748D84A99
:105A4000B4F90010B0F900600025B2F90000D54BA0
:105A5000B14204DCD44EB6F90060B1420FDA1D80C9
:105A6000D249B1F9001088421BDA00F1010000B2FE
:105A70001080884215D1012000F0D5FC11E080B1E2
:105A8000B3F9000005280CDA00F1010000B218801B
:105A9000052806DB1580C648007810B1002000F00C
:105AA000C2FCC448B4F90010B0F9000000EB80005B
:105AB000B1EB400F0BDAC0480068002807D1BDE801
:105AC0007040142301227221D220FAF758BB70BD16
:105AD0002DE9F04F87B0B948AC4CB949B94A0078C4
