:020000040000FA
:10000000F8760010E1000000E5000000E7000000C5
:10001000E9000000EB000000ED000000000000001F
:10002000000000000000000000000000EF000000E1
:10003000F100000000000000F300000097F802004B
:10004000F70000002D2C0300592C0300F7000000DE
:10005000F70000008561030091810300F7000000B4
:10006000F7000000F7000000F7000000F7000000B4
:10007000F7000000F7000000F7000000F7000000A4
:10008000F7000000F7000000F7000000F700000094
:10009000F7000000F700000091760000F700000074
:1000A000F7000000575F0300F7000000F7000000B2
:1000B000C58A0300F7000000F7000000F700000009
:1000C000F7000000F7000000F7000000DFF80CD098
:1000D00038F0DAFD0048004751FA0200F8760010C7
:1000E00005480047FEE7FEE7FEE7FEE7FEE7FEE71E
:1000F000FEE7FEE7FEE7FEE7CD000000FEE710B5F5
:1001000039F0ECFB39F048FC39F03AFCAFF30080F1
:10011000BDE8104039F006BC10B53AF0C5F93AF028
:10012000E3FDBDE810403AF017BA3AF02BB939F0C8
:10013000F3BE09B10020704739F0F8BA00207047CB
:1001400070B5374A0020A2F11401064601F10A03F6
:100150000C5C54B11D5CAC4207D1145C2CB1641E24
:1001600014F0FF04145400D10E540C5C1C54401CB9
:10017000C0B20A28ECD370BD70B5294D0024143DDF
:10018000641CE4B22E5D1EB1864201D00A2CF7D366
:10019000285523480C3040F82410283040F82420FB
:1001A0003438035570BD1E4A0021143A491CC9B2A7
:1001B000535C834201D00A29F8D3DBB2834210D1C9
:1001C00017480C3050F8213016480360144B343374
:1001D00053F82130436000205054114A50540120FC
:1001E0007047002070470E4A0021143A491CC9B2DA
:1001F000535C834201D00A29F8D3DAB282420CD18F
:1002000007480C3050F8212006480260044A343276
:1002100052F8211041600120704700207047000013
:100220007C600010240000100C4BDA6018705970CC
:1002300070470A4A116190707047084908817047F9
:100240000648B0F90810002907D0491E09B20181FB
:10025000002902D1084601F0A9B970472C0000100E
:1002600090F900308B4200DA027090F9003093422E
:1002700000DD0170704790F900308B4200DA0170A8
:1002800090F90010914200DD02707047B0F9003023
:100290008B4200DA0180B0F90010914200DD02804B
:1002A0007047B0F900308B4200DA0280B0F90030BC
:1002B000934200DD0180704710B5044638F0F6FC2B
:1002C000002805D0204638F0FAFC10B1A4F1300027
:1002D00010BD204638F0FFFC10B1A4F1570010BD4E
:1002E000204638F001FD0028F9D0A4F1370010BDF8
:1002F0000048704770C0030070477047FFFFFFFF62
:10030000002801DA404200B270470020FF4A202155
:100310001154401CC0B2C828FAD370470146FB4AAA
:100320000020401CC0B2135C8B4201D0C828F8D317
:10033000704710B50021F64C0A2200BFB0FBF2F363
:1003400002FB13006054491CC9B218460529F5D3B5
:1003500010BDF0B5EF4B0121202719700521EC4AA3
:10036000002601E01C7844B1541814F8015C25B94A
:10037000814202D904F8017C05E0541814F8015DAB
:10038000303525701E70491E11F0FF01EAD1F0BD15
:10039000FEB52B23002802DA404200B22D230025AF
:1003A0000A266C4690FBF6F706FB170060556D1C9D
:1003B0006DB238B20A2DF5DB012600250920202771
:1003C00000E046B114F800C0BCF1000F03D1904228
:1003D00001DD275405E0265C3036265400266D1CCE
:1003E000EDB2401E40B20028EBDA2D2B02D163554E
:1003F0006D1CEDB26AB168B205E0231813F8013C38
:100400002354401E40B29042F7DC2E206D1CA054B5
:10041000EDB20846FFF782FF0021BC4A04E0635CAE
:10042000461A491C935549B2A942F8DBFEBDFEB5F8
:100430002B23002801DA40422D2300250A266C4692
:10044000074690FBF6F006FB107767556D1C6DB202
:100450000A2DF5DB012600250920202700E046B102
:1004600014F800C0BCF1000F03D1904201DD275405
:1004700005E0265C3036265400266D1CEDB2401E89
:1004800040B20028EBDA2D2B02D163556D1CEDB282
:100490006AB168B205E0231813F8013C2354401EEA
:1004A00040B29042F7DC2E206D1CA054EDB20846FD
:1004B000FFF734FF0021954A04E0635C461A491CAB
:1004C000935549B2A942F8DBFEBDFEB52B260028A4
:1004D00001DA40422D2600240A276D46844690FB0F
:1004E000F7F007FB10CC05F804C0641C64B20A2CBA
:1004F000F4DB0127002009244FF0200C00E04FB16D
:1005000015F804E0BEF1000F04D19C4202DD05F8AD
:1005100004C005E02F5D30372F550027401CC0B2C6
:10052000641E64B2002CEADA2D2E02D12E54401C37
:10053000C0B26BB144B205E02E1916F8016C2E550D
:10054000641E64B29C42F7DC2E24401CEC54C0B202
:1005500001EB810102EB8101CAB200216B4B04E087
:100560006C5C561A491C9C5549B28142F8DBFEBDB1
:1005700070B50D4616461C46FFF7DBFE601CC0B288
:10058000FFF7E7FE05EB850006EB8000C1B2604A8D
:100590005E4B0020A04201D2155C5D5406D3155C71
:1005A000202D03D04CB15E1806F8015C491E401C9A
:1005B000C0B2C9B20528EDD370BD5D54F6E730B5C1
:1005C000044608461546FFF7A9FEFF2809D04F4A02
:1005D0002178002905D04319641C401CD154C0B2B5
:1005E000F6E730BD70B50D461446FFF7A2FE601C5D
:1005F000C0B2FFF7AEFE2846FFF790FE444B434AD9
:10060000002124B95D5C202D01D015540FE0A142DA
:1006100001D25D5CF9E704D14FF02E0515545D5C05
:1006200002E05D5C202D02D0161806F8015C401E29
:10063000491CC9B2C0B20529E3D370BD801801D5E9
:10064000084402E0884200DB401AC0B270472DE93E
:10065000FE4F04460D464FF4606032F0DDFF62420B
:100660004021FFF7EBFF400100F58060044602A93E
:1006700033F04FF8694604F1080033F04AF801A955
:1006800004F10C0033F045F82846FFF747FE064614
:100690009DF8080030252327DFF870B020244FF0A4
:1006A000C2094FF0400C4FF0210A55285AD04FF0A4
:1006B000CF0E502870D0E22351286ED04FF04E0854
:1006C00042286BD053286AD04FF0ED0E492867D0EE
:1006D000D3214FF0EE084FF0E70973287BD075283F
:1006E0007AD0662879D19DF80A005A287FD1D42182
:1006F0000BF80610761CF1B2F0230BF80180491CB0
:10070000C9B258460BF80130491C05E072030010CD
:10071000CE040010D3040010C9B2EC220BF8012063
:10072000491CC9B22E220BF80120491CC9B2E0268F
:1007300000F80190491CC9B24654491CC9B243543F
:10074000491CC9B24254491CC9B24454491CC9B2DB
:100750004454491C9DF80020C9B2FF4EB38F9A4201
:100760007ED01EE09DF80A0052280DD10BF80690AD
:10077000761CF1B2EA220BF80120491CC9B2EB2227
:100780000BF80120491CCEB258460BF80640761CE7
:10079000F1B20BF8014042E02BE069E0AAE0FEE391
:1007A000FEE34454491CC9B24554491CC9B200F87F
:1007B00001A0491CC9B200F801C0491CC9B2445487
:1007C000491CC9B24454491CC9B24554491CC9B258
:1007D0000BF80170FDE3FDE3FDE308E09DF8011077
:1007E000DE48002200EB81004021FFF7E8FEBDE873
:1007F000FE8FC0210BF80610761CF1B22E220BF8EA
:100800000190491CC9B258460BF80120491CC9B2D5
:100810000BF801E0491CC9B2D1220BF80120491C98
:10082000C9B24454491CC9B24454491CC9B24454C5
:10083000491CC9B24454491CC9B24454491CC9B2E8
:10084000C54A4454491C9DF80030968FC9B2B34242
:10085000A7D19DF8013092F83860B342A1D100E0F1
:10086000F9E39DF8023092F82C2093422CD098E7BF
:10087000C0210BF80610761CF1B22E220BF8019065
:10088000491CC9B258460BF80120491CC9B255226F
:100890000BF80120491CC9B2FB220BF80130491C9E
:1008A000C9B24254491CC9B2F5224254491CC9B2CA
:1008B0004454491CC9B2445445E700BF9DF8022086
:1008C00096F82C309A42D2D14554491CC9B23A22EA
:1008D00000F801A0491CC9B24254491CC9B2455490
:1008E000491CC9B200F801C0491CC9B24254491C94
:1008F000C9B253E39DF80A0043287ED1C0210BF80A
:100900000610761CF1B22E220BF80190491CC9B2D8
:1009100058460BF80120491CC9B2C1220BF801202E
:10092000491CC9B2E0220BF80120491CC9B2F222CD
:100930004254491CC9B200F80180491CCEB29DF84E
:100940000910092902D23131815514E0A1F10902BF
:100950005A2A0FD2491C0A23B1FBF3F290463032D7
:100960008255761C03FB1811F6B230318155761C86
:10097000F1B205E08455761CF1B24454491CC9B269
:10098000754E4454491CC9B24454491C9DF800207A
:10099000B38FC9B29A423CD19DF8012096F8383005
:1009A0009A4236D19DF8022096F82C309A4230D1E6
:1009B0004554491CC9B23A2200F801A0491CC9B2E9
:1009C0004254491CC9B24554491CC9B200F801C07F
:1009D000491CC9B24254491CC9B200224554491CA1
:1009E000C9B20BF80170491CCEB29DF80400212158
:1009F000FFF7F8FD9DF8050000E042E000224021ED
:100A0000FFF7F0FD9DF8060000222321FFF7EAFD25
:100A100037E04454491CC9B200224554491CC9B2AC
:100A200000F801A0491CC9B200F801C0491CC9B2B4
:100A30004454491CC9B24454491CC9B24554491CC8
:100A4000C9B20BF80170491CCEB29DF802002121F9
:100A5000FFF7C8FD9DF8000000222321FFF7C2FD2B
:100A60009DF80100401E0C2802D301208DF80100E2
:100A70009DF801103948002200EB81004021FFF76A
:100A80009EFD9DF80A0053286AD1C0220BF806206B
:100A9000761CF1B22E230BF80190491CC9B25846BE
:100AA0000BF80130491CC9B2C1230BF80130491CB5
:100AB000C9B2E0230BF80130491CC9B2F2234354F8
:100AC000491C9DF809304326C9B2092B08D231339D
:100AD0004354491CC9B24254491CC9B246540EE0A1
:100AE000093B5A2B04D24254491CC9B2465403E074
:100AF0004454491CC9B24454491CC9B24454164E0A
:100B0000491C9DF80020B38FC9B29A4240D19DF88C
:100B1000012096F838309A423AD19DF8022096F892
:100B20002C309A4234D14554491CC9B23A2200F8BB
:100B300001A0491CC9B24254491CC9B24554491CC0
:100B4000C9B200F801C0491CC9B24254491CC9B21B
:100B50004554491CC9B204E00040024074BB030084
:100B60004EE00BF80170491CCEB29DF80400002243
:100B70002121FFF737FD9DF8050000224021FFF7F6
:100B800031FD9DF8060000222321FFF72BFD37E001
:100B90004454491CC9B200224554491CC9B200F84A
:100BA00001A0491CC9B200F801C0491CC9B2445493
:100BB000491CC9B24454491CC9B24554491CC9B264
:100BC0000BF80170491CCEB29DF802002121FFF7FD
:100BD00009FD9DF8000000222321FFF703FD9DF889
:100BE0000100401E0C2802D301208DF801009DF861
:100BF0000110F948002200EB81004021FFF7DFFCE3
:100C00009DF80A005A285BD10BF80690761CF1B2C9
:100C1000C7220BF80120491CC9B258460BF8014005
:100C2000491CC9B2ED4E0BF80140491CC9B20BF882
:100C30000140491CC9B24454491CC9B24454491C1E
:100C40009DF80020B38FC9B29A423AD19DF8012095
:100C500096F838309A4234D19DF8022096F82C301C
:100C60009A422ED14554491CC9B23A2200F801A03B
:100C7000491CC9B24254491CC9B24554491CC9B2A5
:100C800000F801C0491CC9B24254491CC9B2002233
:100C90004554491CC9B20BF80170491CCEB29DF8ED
:100CA00004002121FFF79EFC9DF805000022402151
:100CB000FFF798FC9DF8060000222321FFF792FC25
:100CC00037E04454491CC9B200224554491CC9B2FA
:100CD00000F801A0491CC9B200F801C0491CC9B202
:100CE0004454491CC9B24454491CC9B24554491C16
:100CF000C9B20BF80170491CCEB29DF80200212147
:100D0000FFF770FC9DF8000000222321FFF76AFC2A
:100D10009DF80100401E0C2802D301208DF801002F
:100D20009DF80110AC48002200EB81004021FFF744
:100D300046FC9DF80A0057287CD1C1210BF806100B
:100D4000761CF1B2E0220BF80120491CC9B2F22254
:100D50000BF80120491CCEB29DF80910584609290C
:100D600006D231318155761CF1B2F022425419E09D
:100D7000A1F109025A2A11D2491C0A23B1FBF3F24C
:100D8000904630328255761C03FB1811F6B2303192
:100D90008155761CF1B2F022425406E08455761C4F
:100DA000F1B24454491CC9B24454491CC9B28B4ED7
:100DB0004454491C9DF80020B38FC9B29A423AD1DD
:100DC0009DF8012096F838309A4234D19DF80220DF
:100DD00096F82C309A422ED14554491CC9B23A2279
:100DE00000F801A0491CC9B24254491CC9B245547B
:100DF000491CC9B200F801C0491CC9B24254491C7F
:100E0000C9B200224554491CC9B20BF80170491CF3
:100E1000CEB29DF804002121FFF7E4FB9DF8050008
:100E200000224021FFF7DEFB9DF80600002223216F
:100E3000FFF7D8FB37E04454491CC9B2002245549F
:100E4000491CC9B200F801A0491CC9B200F801C090
:100E5000491CC9B24454491CC9B24454491CC9B2C2
:100E60004554491CC9B20BF80170491CCEB29DF81B
:100E700002002121FFF7B6FB9DF80000002223218C
:100E8000FFF7B0FB9DF80100401E0C2802D30120A3
:100E90008DF801009DF801104F48002200EB810001
:100EA0004021FFF78CFB9DF80A004B287FF49FAC94
:100EB000C1210BF80610761CF1B2E0220BF80120DC
:100EC000491CC9B2F2220BF80120491C9DF8090007
:100ED000C9B24FF0E50909280ED231300BF80100F4
:100EE000491CC8B2EA210BF80010401CC0B20BF834
:100EF0000090401CC0B220E0A0F109025A2A18D28A
:100F0000401C0A23B0FBF3F2904630320BF801206C
:100F1000491C03FB1800C9B230300BF80100491C12
:100F2000C8B2EA210BF80010401CC0B20BF80090C8
:100F300005E00BF80140491CC8B20BF80040401C0A
:100F4000C1B2264A0BF80140491C9DF80030968F2B
:100F50005846C9B2B3427FF404AC9DF8013092F810
:100F60003860B342F7D19DF8023092F82C209342BA
:100F7000F1D14554491CC9B200F801A0491CCAB2BC
:100F80003A218154521CD2B28554521CD2B200F87C
:100F900002C0521CD2B28154521CD1B201E01FE0F7
:100FA000ACE04554491CC9B20BF801709DF804002F
:100FB00000222121FFF716FB9DF8050000224021A9
:100FC000FFF710FB9DF8060000222321FFF70AFB24
:100FD0000DE487E1D5E002E174BB0300004002406C
:100FE000C0210BF80610761CF1B22E220BF80190EE
:100FF000491CC9B258460BF80120491CC9B2C1228C
:101000000BF80120491CC9B2D1220BF801E0491CA0
:10101000C9B25B464254491CC9B20BF80180491C55
:10102000C8B29DF80910092902D23131195414E0CF
:10103000A1F109025A2A0FD2491C4FF00A08B1FB4C
:10104000F8F606F130021A54401C08FB1611C0B223
:101050003031195404E05CE11C54401CC0B21C54F3
:10106000401CC1B2FF4E5C54491CC9B218465C54C6
:10107000491C9DF80020B38FC9B29A4225D19DF832
:10108000012096F838309A421FD19DF8022096F838
:101090002C309A4219D14554491CC9B23A2200F861
:1010A00001A0491CC9B24254491CC9B24554491C4B
:1010B000C9B200F801C0491CC9B24254491CC9B2A6
:1010C0004554491CC9B2475470E74454491CC9B23D
:1010D0004554491CC9B200F801A0491CC9B200F826
:1010E00001C0491CC9B24454491CC9B24454491CEA
:1010F000C9B24554491CC9B24754F3E0C0210BF8AA
:101100000610761CF1B22E220BF80190491CC9B2D0
:1011100058460BF80120491CC9B2C8220BF801201F
:10112000491CC9B20BF801E0491CC9B24354491C1F
:10113000C9B24754491C9DF80920C9B2092A02D2F4
:101140003132425412E0A2F109035A2B0DD2521C43
:101150000A25B2FBF5F303F130064654491C05FBA2
:101160001322C9B23032425403E04454491CC9B27C
:101170004454491CC9B24454491CC9B20BF801403B
:1011800026E79DF80A005A28FAD10BF80610761CBB
:10119000F1B2F1220BF80120491CC9B2EA220BF886
:1011A0000120491CC9B2F0230BF80180491CC9B2C7
:1011B00058460BF80130491CC9B22E224254491C32
:1011C000C9B2E02600F80190491CC9B24654491C36
:1011D000C9B24354491CC9B24254FFF72FBB9DF812
:1011E0000A005A28CCD10BF80610761CF0B2F02673
:1011F0000BF80060401CC0B2E0210BF80010401C4E
:10120000C0B2D8460BF80030401CC0B22E220BF8FA
:1012100000E0401CC0B2434608F80020401CC0B2A9
:1012200008F80090401CC0B208F80010401CC0B282
:1012300008F80060401CC0B21A54401CC0B208F844
:101240000040401CC1B287489DF80020838F9A421D
:101250002AD19DF8012090F838309A4224D19DF887
:10126000022090F82C0082421ED108F80150491C3F
:10127000C9B23A2208F801A0491CC9B2404608F890
:101280000120491CC9B208F80150491CC9B208F82C
:1012900001C0491CC9B24254491CC9B24554491C39
:1012A000C9B208F8017081E608F80140491CC9B2CA
:1012B000404608F80150491CC9B208F801A0491C71
:1012C000C9B208F801C0491CC9B208F80140491C5C
:1012D000C9B208F80140491CC9B24554491CC9B2F9
:1012E00008F801709DF8020000222121FFF77AF929
:1012F0009DF8000000222321FFF774F99DF80100FA
:10130000401E0C28FFF46AAA01208DF80100FFF7A7
:1013100065BA9DF8012096F838309A423FF4CEAA7B
:10132000FFF73FBA70B50446084615461E46FEF75D
:10133000F5FF4D4B0146FF2804D106E01A54641C0A
:10134000401CC0B22278002AF8D148480078002812
:1013500004D0002E02D029445F20585470BD2DE9DE
:10136000FF4F8146DDE90D048A469346FEF7D6FF1E
:101370002022DFF8F8803C490A234FF0640C012C4E
:1013800009D198F8005035B10D18A5F10E05AA70D5
:101390006A702A7020E099FBF3F603FB16970D188C
:1013A0003037A5F10E05022CAF7096FBF3F703FB67
:1013B000176606F130066E7099FBFCF606F13006F2
:1013C00005F80E6B08D198F800602EB1A5F10A055A
:1013D000AA706A702A7021E09AFBF3F603FB16A745
:1013E0000D183037A5F10A05032CAF7096FBF3F703
:1013F00003FB176606F130066E709AFBFCF606F1E9
:101400003006674605F80A6B08D198F800602EB1DF
:10141000A5F10605AA706A702A7029E09BFBF3F615
:1014200003FB16B70D183037A5F10605042CAF7075
:1014300096FBF3F703FB176606F130066E709BFB15
:10144000FCF606F13006674605F8066B10D198F8F1
:1014500000406CB1A5F102050A546A702A70BDE81B
:10146000FF8F000000400240720300107D0000105A
:10147000039C94FBF3F203FB124430340C5492FBB4
:10148000F3F403FB14220844A0F10200303242704E
:10149000039991FBF7F101F130010170DFE710B51D
:1014A0000C46FEF73BFFB5490CB1032200E00422D5
:1014B0000A5410BD17B501EB810002EB8000C2B2E7
:1014C0009DF80030AE4803F00F0100EB1313445CAD
:1014D000AA498C54521ED2B21B788B549DF801300D
:1014E000521E03F00F04D2B2045D8C54521E00EB66
:1014F0001313D2B21B788B549DF80230521E03F0A6
:101500000F04D2B2045D8C54521E00EB1313D2B2FE
:101510001B788B549DF80330521E03F00F04D2B297
:10152000045D8C54521E00EB1310D2B20078885424
:101530001EBD30B593490123904D91F9012091F9D9
:10154000041000EB80048A4202D105F8243030BD3B
:101550008A4D4C1C00EB800005EB8000A24201D1BB
:10156000037530BD8C1CA24202D180F8283030BDFA
:10157000CC1CA24202D180F83C3030BD0C1DA242EE
:1015800002D180F8503030BD4C1DA24202D180F80B
:10159000643030BD8C1DA24202D180F8783030BD5D
:1015A000C91D8A42FBD180F88C3030BD764A138841
:1015B0005B1E1BB21380002B01DC002313809BB247
:1015C000184400B21080714A00EB800002446D485C
:1015D00013680360127902714278114441707047B8
:1015E000F0B5694D694FB5F9004004EB8406641C01
:1015F0002C80644C3E442568356025793571207017
:1016000061702271A370F0BDF0B505460E46174615
:10161000FEF77BFE594C0020401C15F8011BC0B2A0
:1016200004F8011B1428F7D35FF00000401C16F8E3
:10163000011BC0B204F8011B1428F7D35FF00000AF
:10164000401C17F8011BC0B204F8011B1428F7D383
:101650005FF00000401C13F8011BC0B204F8011B2E
:101660001428F7D3F0BD30B56425039C94FBF5F442
:10167000474D2C70474C2060474801604748026046
:101680004748036030BD2DE9FE4340010D4600F59B
:101690008060044602A932F03CF8694604F1080073
:1016A00032F037F801A904F10C0032F032F8284684
:1016B000FEF734FE314C202530262554401CC0B2A4
:1016C0004FF021082654401CC0B24FF0400C04F8E3
:1016D0000080401CC0B2232104F800C0401CC0B2EE
:1016E00000222554401CC0B22554401CC0B22654D0
:1016F000401CC0B22154401CC7B29DF802002121F9
:10170000FEF770FF9DF8000000222321FEF76AFF1C
:101710009DF80100401E0C2802D301208DF8010025
:101720009DF801001F49002201EB80004021FEF7D7
:1017300046FFE5557F1CF8B23A212654401CC0B242
:10174000002204F80080401CC0B22154401CC0B2EA
:1017500021212654401CC0B204F800C0401CC6B26F
:101760009DF80400FEF73EFF9DF805000022402191
:10177000FEF738FFA555BDE8FE8300007203001098
:10178000FEBB0300F00200104EC10720D86000101D
:101790008B000010C8020010CC020010D002001014
:1017A000D402001074BB03002DE9FF410546002759
:1017B000FF4C01216777607E022805D0FD4A525D0B
:1017C000552A04D065200EE06177BDE8FF8105EB66
:1017D000450202EB0513F84A02EB830696F83D201A
:1017E000D30702D066206077EFE796F83F309B077B
:1017F00001D56720F7E7920701D56820F3E7EF4AA4
:10180000B6F90830B2F90020934201DD6920EAE719
:101810005242934201DA6A20E5E7012804D1A07E12
:1018200000287ED001287DD0642060776176A4F8FE
:10183000681040F29A2031F0E3FFA5762946A4F81B
:101840006A5040F29E2031F0DBFFDD48B761002195
:1018500030F9150031F0D4FFE776A4F86C70394602
:101860004FF4287031F0CCFFD648D74D0088401C8B
:1018700000F0070006EB4000008CADF80000A88BDC
:101880008DF804004FF063024FF0010101A8FEF74C
:10189000F2FCC74C9DF80400CC342070287E8DF8F3
:1018A00004000C22012101A8FEF7E5FC9DF80400CC
:1018B0006070287B8DF804001F22012101A8FEF72B
:1018C000DAFC9DF80400A0709DF80000E07040F282
:1018D000A220216831F0CFFF287A8DF8040017226A
:1018E000002101A8FEF7C7FC9DF8040020712879AB
:1018F0008DF804003B22002101A8FEF7BCFC9DF8F6
:101900000400607128788DF804003B22002101A8B2
:10191000FEF7B1FC9DF80400A0719DF80100E07194
:1019200001E006E007E040F2A620616831F0A3FF85
:101930004BE76B2057E76C2055E72DE9F0479C4CAF
:10194000607E01287ED120460127807EE17EC0F1A5
:10195000010207FA02F09A4E974D02B211B1012925
:1019600033D037E01423CA21C820FEF705FC142326
:101970004FF0FF32CE21CD20FEF7FEFBA07E00EB24
:10198000400101EB001005EB8000B0F90800FEF704
:10199000B7FCA17E01EB410202EB011205EB8202D2
:1019A0009369184448F6A0439061984212DBC01A2C
:1019B000906136F8110031F02FFE401C01B2A07E7C
:1019C00036F9100031F01CFF04E01423CA21C820AE
:1019D000FEF7D2FBA07EA84600EB400101EB00120F
:1019E00005EB8201794AB1F902100025B2F9002015
:1019F00040F29A2902EB8202B1EB420F42DAB4F8CC
:101A00006410491C09B2A4F864101E293CDB617EF5
:101A1000012921D1E17EF9B936F8100031F0FCFD41
:101A200001B26B48A27E30F9120031F0E9FEA07ECF
:101A300036F8100031F0F0FD81B2A07E04F0FCFF1A
:101A4000644800E041E0A17E30F91100002131F04E
:101A5000D7FE32206085A085A07E5649C0F10100E6
:101A6000085C552807D06576A4F8685000214846E0
:101A700031F0C6FE08E0E776A4F86C7001214FF45F
:101A80002870F5E7A4F86450A17E01EB410000EB5B
:101A90000112C1F1010101EB410303EB011108EB5C
:101AA000820208EB8100B2F90220B0F90200824202
:101AB0000BDBE07E012808D16576A4F86850484623
:101AC000BDE8F047002131F09BBEBDE8F08770B55E
:101AD000374C05460026607E60BB3F4800880128E1
:101AE00028D002216176A4F8681040F29A2031F0E3
:101AF00087FEC5EB0510A4F860508000A4F86600CE
:101B000015B91E20A4F8660004F15C044FF4277098
:101B1000B4F90A1031F074FEB4F90A104FF42A70C7
:101B200031F06EFE0020E08020806080012630468B
:101B300005F044F8304670BD10B51D4C607E02289B
:101B400012D104F12A04E08E05F038F800206086F6
:101B5000E086208704F8110CE0870146BDE81040BC
:101B600040F29A2031F04CBE10BD70B5164C203CAE
:101B700094F83800194D297808440C2803D9A08F0F
:101B8000401C01B201E0B4F93C10B82031F038FE3D
:101B900094F83810287801440C2994F8381000D9AA
:101BA0000C380144B62031F02BFE94F82C0017E0DD
:101BB00000C00720BC01001034EB07201E010010FC
:101BC000E0B4030072C10720204002401801001059
:101BD000FCB40300DCB403007402001086000010A3
:101BE0001C2801D91C2101E094F82C10B42031F0FC
:101BF00007FE04F12004217A4FF0AE0031F000FE20
:101C00002179B02031F0FCFD2178BDE87040B22090
:101C100031F0F6BD10B5FE48FE4C007830B3FE48FA
:101C2000818FFE4A1288914220D190F83810FC4AE8
:101C3000128891421AD190F82C10FA4A12889142D7
:101C400014D190F82810F84A128891420ED190F8D9
:101C50002410F64A1288914208D190F82000F449E5
:101C60000988884202D10120207702E0207F0028E5
:101C70000BD0F0480088C0B2FFF729FF002804D03D
:101C800000202077BDE810406FE710BD38B5E14C6B
:101C9000607E022819D1E8480078012816D0E7486C
:101CA000008898B1E64800784FF00A01B0FBF1F2E5
:101CB00001FB1200002808D141F288300090E1A316
:101CC000E6A2ECA1F1A0FFF7CEFC38BDB4F85E00AF
:101CD0004FF461610025884212D2401C80B2A4F802
:101CE0005E0088420CD3A4F85E50B4F8600038B1AE
:101CF000401E24F8600F6088401C6080A4F16004DE
:101D0000B4F85C003C28E0D2401C80B2A4F85C002F
:101D10003C28DAD324F85C5F6089401E01B26181FF
:101D20004FF4277031F06CFD6089A4F15C0418B1A8
:101D3000DC4800880128C8D16576A4F868500021E5
:101D400040F29A2031F05CFDBDE83840002004F0FC
:101D500035BFB04910B54A7E0020002A10D1D14AC3
:101D60001288012A0CD091F82520002A08D10120E0
:101D700081F8250001464FF4C97031F00AFD0120B9
:101D800010BDA44890F82510002906D0102180F835
:101D900025104FF4C97031F0FCBC70479D4910B557
:101DA0004A7E0020002A10D1BE4A1288012A0CD097
:101DB00091F82520002A08D1012081F82800014649
:101DC0004FF4CA7031F0E5FC012010BD914890F845
:101DD0002810002906D0132180F828104FF4CA706B
:101DE00031F0D7BC7047B0486FF03B010088C0EBC2
:101DF000001001EB80008749A1F84C0070472DE9E5
:101E0000F05FDFF81092A8480026B9F84C10A74FF1
:101E1000491C09B2A9F84C10B0F90000A44DC0EB60
:101E200000124FF0010B09F152044FF00A08B1EB18
:101E3000820F5ADBF0B3A9F84C602670DFF874A269
:101E4000667089F813609AF80000552811D1B5F929
:101E5000020050280DDDB5F90800FEF751FAB7F978
:101E60000010884203DB95F83D00C00701D084F8DC
:101E700000B09AF80100552811D1B5F94E0050284C
:101E80000DDDB5F95400FEF73BFAB7F900108842B2
:101E900003DB95F88900C00701D084F801B08648BB
:101EA000007890B999F81410484671B1417E19B183
:101EB000022900E019E008D190F8251029B990F81E
:101EC000281011B97D49097821B12670667089F80A
:101ED000136008E0217801291DD0617801291AD00A
:101EE000C17C012917D0A9F84E604846B9F94E10B7
:101EF000DFF82091DFF8C8A109F18009F1B383462A
:101F00000246491E08B2A2F84E00052806DD0F233E
:101F10001E22642107E0A9F84E80E6E700281BDDB9
:101F20000F231E226921E120FEF726F9BBF84E009F
:101F3000052811D1B5F90800FEF7E2F9A9F800006B
:101F4000B5F95400FEF7DCF9A9F80200BAF900006F
:101F5000FEF7D6F9ABF854002E48B0F84E00002832
:101F600041D1AB46B5F90800FEF7CAF9294D8435D1
:101F70002880BBF95400FEF7C3F900E038E0688020
:101F8000BAF90000FEF7BCF9DFF888A0AAF85600FD
:101F9000AAF85060B9F90000B5F900100844B7F983
:101FA0000010884202DA2078012817D0BBF902001D
:101FB000C82804DD00212670084604F019FAB9F992
:101FC0000200B5F902100844B7F90010884202DA9D
:101FD0006078012805D0BBF94E00D4E0AAF8508003
:101FE000EDE7AAF85080BDE8F09F6670002140E15F
:101FF000B0F9501059B180460246491E08B2A2F805
:10200000500005285EDD0F23C82264215FE0C4E094
:102010008600001000C0072000400240CA010010E6
:10202000C8010010C6010010C0010010C20100105C
:10203000C4010010CC0100108C020010240200101A
:102040002040024020202020C2C5CDD2C8CBDFD600
:10205000C8DF212121202020000000002020202096
:1020600020CDC5C8D1CFD0C0C2CDC02020202020D7
:102070000000000020202020C7C0C1CBCECAC8D09D
:10208000CEC2C0CD2020202000000000C2DBD0C086
:10209000C2CDC8C2C0DED9C8C920C7C0D0DFC420E5
:1020A0000000000074020010300100101E0100103A
:1020B00034EB0720BC0100108F0000104B00001013
:1020C0002602001000281BDD0F23C8226921E12011
:1020D000FEF752F8B8F85000052811D1B5F90800FC
:1020E000FEF70EF9A9F80000B5F95400FEF708F95B
:1020F000A9F80200BAF90000FEF702F9A8F85400A6
:10210000FF48B0F8500000287FF46DAFDFF8F4838B
:10211000B8F90800FEF7F4F8F94D84352880B8F9CD
:102120005400FEF7EDF86880BAF90000FEF7E8F811
:10213000DFF8CC83A8F8560088F81260B9F90000DF
:10214000B5F900100844B7F90010884202DA207887
:1021500001281CD0EB48B0F90200C82804DD00219A
:102160002670084604F044F9B9F90200B5F90210E6
:102170000844B7F90010884202DA6078012809D0D3
:10218000E048B0F94E00C8283FF72FAF2BE788F89A
:1021900012B0E9E788F812B025E78146807C002874
:1021A000F4D00F2300226E21E120FDF7E5FFB5F901
:1021B0000800FEF7A5F8B7F90010884207DD20787F
:1021C000012804D100212670084604F011F9B5F960
:1021D0005400FEF795F8B7F90010884206DD6078E4
:1021E000012803D16670002104F002F9207830B98B
:1021F000607820B999F8131009B989F81260E620BF
:10220000FDF7D1FF18B1C0480068E7280AD0BF48E1
:10221000BF49B0F90000B1F9001000EB8000B1EB4C
:10222000400FB3DA89F812602078BA4E01280FD136
:10223000B7F90000410091FBF8F0B6F900108842B0
:1022400006DA95F83D00C00702D1012104F0D0F86C
:10225000607801289AD1B7F90000410091FBF8F0AD
:10226000B6F90010884291DA95F88900C0078DD13F
:102270000121BDE8F05F012004F0BAB82DE9F04774
:102280009F4CB4F84A00401C00B2A4F84A00B0F5D4
:10229000E16F03DB0020A4F84A0016E4B0F5DF6F1D
:1022A00014D994F8280088B90F2301226421D22080
:1022B000FDF762FF0F230022D821D720FDF75CFF36
:1022C0000F230022D821DC20FDF756FFB4F94A0085
:1022D000A0F5E0610739E0D194F828000028DCD1AE
:1022E0008D4F8E4C874D388821880A26DFF8308242
:1022F000DFF83092884210D0B5F9080090FBF6F074
:1023000000B2FDF7FDFFB8F90010884205DAB4F914
:102310000010B9F9000031F073FA788861888842BA
:10232000BBD0B5F9080090FBF6F000B2FDF7E8FF6E
:10233000B8F900108842B0DAB4F90210B9F9020015
:10234000BDE8F04731F05CBA10B5774C08220021A7
:102350002088401C20802046FDF7A3FF6948B4F97F
:10236000001000EB410142880A84B0F84E00A1F849
:102370006C0010BD70B56E486C4DB0F900306D4802
:10238000B5F9002090F900109A421BDA6A4C0A292C
:102390000EDA6A4BB3F900300F2B0BDD491C49B242
:1023A00001700A2906DB2280012003F035FB01E0E1
:1023B0000A210170B5F90000B4F90010884200DA72
:1023C000208070BDFDDD0029FBD0491E49B201709F
:1023D0000029F6DCBDE87040002003F01DBB2DE9AC
:1023E000F05F57480A21DFF85CC10088DFF83CA1A4
:1023F000B0FBF1F201FB12024149DFF84C9141F2CE
:1024000070758E8E3AB9B0F5166F04D0B0F5965F40
:1024100001D0A84261D14F494C4A4D4B99F8F47311
:10242000B1F90040B2F90020B3F90030DFF828E13B
:102430004A49DFF82CB14846072F25D0564396FB72
:10244000FCF0484AAEF80000B2F90600584390FB91
:10245000F5F00880B2F91400604390FBF5F0ABF89A
:102460000000BEF90020AAF80020B1F90010504683
:10247000914200DA0180BBF90010B0F900209142CE
:1024800033DAAAF8001030E000F2FA30DFF870C05A
:10249000067847780CF1B80C06EB07261FFA86F889
:1024A000ACF800808678C77808FB02F806EB0726B0
:1024B000B7B2ACF80270067998FBF5F299F8FF0311
:1024C00007FB03F706EB002080B2ACF80400AEF87F
:1024D000002097FBF5F20A80BEE72348B0F9000020
:1024E000464396FBFCF0AAF80000DFF878801F4F07
:1024F0004FF4FA66B8F90020B7F90010514337E0FD
:1025000000C0072034EB0720240000101801001041
:10251000280200102A02001056C107204A5A001053
:102520002801001008B5030072C10720380200100E
:102530001A01001076C10720D4040010AA00001070
:10254000BE010010B0AD010070ED0720B80400100E
:1025500066C10720BA0400103A0200103C020010C5
:102560003E02001028600010B004001052C1072085
:1025700091FBF6F1FF4C6180B8F90820FE4BB3F9EE
:102580000010514391FBF6F1A180B8F91810B7F98A
:1025900002204A4392FBF6F1A4F84E10B8F902105B
:1025A000B3F90200484390FBF6F0A4F85000DC2099
:1025B000FDF719FEE8BBF148DFF8C4B3DFF8C4E368
:1025C0000088BBF8001045F69262401ABEF9001070
:1025D00045F213674143EC484FF47A7C0088A0F53C
:1025E000BC43383B01D0904204D14FF4967391FB29
:1025F000F3F10CE0A0F5AA43FA3B03D0B84201D0B6
:10260000173B02D191FBF6F101E091FBFCF1218136
:10261000DA49BBF802304988CB1ABEF90210594397
:10262000A0F5BC43383B01D0904206D14FF49670E0
:1026300000E011E091FBF0F00CE0A0F5AA42FA3ABC
:1026400003D0B84201D0173A02D191FBF6F001E075
:1026500091FBFCF0A4F85400B8F90C1040F6B73721
:102660000A46A1F22131012300208B46B94201D252
:10267000207300E02373C64944F62068DFF80CC3DA
:10268000B1F90010BE46514391FBF8F1A1F21111CE
:102690006181BCF90E108C46A1F22131714502D244
:1026A00084F8580001E084F85830B94944F62067AE
:1026B000B1F9021001FB0CF191FBF7F1A1F211113C
:1026C000A4F85610B349DFF8D0C2B1F900100229BE
:1026D00002D0042919D056E0BCF92810052906DAE1
:1026E000BCF81E1019B9BCF8141061812073BCF934
:1026F0005210052947DABCF84810F1BBBCF83E106F
:10270000A4F8561084F858003DE0BCF928706FF02A
:1027100013084146052F05DABCF81E7017B9BCF93D
:1027200014102073BCF95270052F08DABCF84870F9
:102730002FB9BCF93E708F4201DD2073394611F18B
:10274000140700D06181BCF97C10052906DABCF8B9
:10275000721019B9BCF9688084F85800BCF9A61049
:10276000052909DABCF89C1031B9BCF99210414531
:1027700002DD84F85800884600E004E018F11401F6
:1027800001D0A4F85680DFF80482844FB8F9041011
:10279000B7F90070794391FBF6F1814E77463180AD
:1027A000B8F90A607F49B446A6F22136BE4201D28A
:1027B000087000E00B70DFF8F0E1DFF8F081BB4556
:1027C000BEF9006006FB0CF644F6206C96FBFCF6A6
:1027D000A6F21116A8F8006001D2487000E04B7014
:1027E000BEF90260F346564396FBFCF2A2F21112C8
:1027F00012B2A8F802209646644AB2F90620A2F264
:102800002136BE4201D2887000E08B70BBF90430E3
:10281000674E534393FBFCF2A2F2111212B2DFF89F
:1028200094C1A8F8042093463388BCF900204FF4E3
:102830007A685A4392FBF8F25F4B92B25F4F1A806C
:10284000642A01D3BAF800203A807288BCF9026089
:10285000DFF870C1564396FBF8F25A80584ABCF92B
:102860000030B2F90060734393FBF5F6564B1E80BF
:10287000B2F90270BCF902607E4396FBF5F65E8009
:10288000BCF90470B2F90460DFF840C1774397FBEC
:10289000F5F69E80B2F90660BCF90030734393FBF5
:1028A000F5F64B4B1E80B2F90870BCF902607E430E
:1028B00096FBF5F65E80B2F90A60BCF9042072431B
:1028C00092FBF5F29A800EF2111213B2414E0BF206
:1028D000111215B2338075804A783272897871721C
:1028E0003D4E22B1012A0ED012B10DD020E011B11F
:1028F000012910D01CE0591901EBD1716FF48872D5
:1029000002EB610113E011B1012908D010E0A5F23A
:10291000111535800CE0A3F21113338008E02F4924
:102920000978052902D22E49098800E01421318056
:102930002C490A78552A07D1B4F90220C82A03DDA8
:10294000294A2389A2F84430497855290CD1B4F991
:102950004E10C82908DDB4F95410B4F9082091428A
:1029600002DD214AA2F8441020490022B1F90050AA
:102970006DE0000034EB0720A80400104A5A001054
:1029800056C10720AC040010BE01001028600010E2
:102990005AC1072074010010CCEB072064C1072046
:1029A0002802001089020010B20400102A0300104F
:1029B00088C107205EC107203003001054020010B8
:1029C00082040820E20400103603001090C10720A2
:1029D0003C030010B8030820460200109C000010C1
:1029E0008EC10720BC01001000C007206801001044
:1029F000C2EBC20101EB021309EB8301CB78192B67
:102A00001CD28B79CE7903EB06234B620B7A4E7A7C
:102A100003EB06230B628B7ACE7A03EB0623CB61A2
:102A20000B7B8B624B7B81F852308B7B81F8423081
:102A30000B7C4E7C03EB0623CB6406E0C861486246
:102A40000862886281F84200C864521CD2B2AA426D
:102A5000CEDBB4F908300A2293FBF2F3B4F9544008
:102A6000FB4994FBF2F21A44524214B2DFF8E4C379
:102A70000C800022ACF800004B4610E0C2EBC2060E
:102A800006EB021603EB8607FE78052E05D27E6A5A
:102A9000BCF800703E44ACF80060521CD2B2AA42AE
:102AA000ECDBBCF80020224412B20A80002A00DAD3
:102AB0000880E949B1F90050002D61D00024DFF809
:102AC0009CC35BE0C4EBC40101EB041103EB810187
:102AD00091F83327192A37D201F236710A784E78E5
:102AE00002EB062604EB44020CEB4212D6618E7810
:102AF000CF7806EB0726D6620E794F7906EB0726CC
:102B000096618E791662CE7982F846600E7A4F7A97
:102B100006EB072696628E7ACF7A06EB0726566278
:102B200090700E7B82F859604E7B82F85A608E7BE3
:102B300082F85860CE7B82F85B600E7C82F85C6025
:102B4000497C82F85D1017E004EB44010CEB411165
:102B50001922C861C8628861086281F8460048622B
:102B600088628A7081F8590081F85A0081F858000B
:102B700081F85B0081F85C00641CE4B2AC42A1DB2C
:102B8000BDE8F09FB64AB7481178052901D0012960
:102B900005D1517819B9B4490978552902D0B349FA
:102BA000098803E00178002901D0491E01707047AF
:102BB000AF48416821F4402141F4802141604168DF
:102BC00021F4403141F480314160416821F44041B9
:102BD00041F480414160416C21F4402141F40021E5
:102BE0004164416C21F4403141F400314164416C55
:102BF00021F4404141F4004141649E48016821F0C4
:102C0000E0610160016841F400110160016821F494
:102C100080310160016821F47F4141F480710160DD
:102C20008115C16094488903016070472DE9F04126
:102C3000924C60882188401A00B204F0E5FCA51D82
:102C40002880A0886188401A00B204F0DDFC68800A
:102C5000A0882188401A00B204F0D6FC4FF4967286
:102C6000A880A4F1BE01904201DAA0880AE0B5F97B
:102C70000200904201DA608804E0B5F90000904259
:102C800001DA2088C88691F805C00023BCF1000F46
:102C900022D07B48B1F936200468144404604468AB
:102CA00014444460846814448460C4682244C2604C
:102CB000CA8F521C12B2CA87B2F5805F00DBCB8785
:102CC000B1F93E2094052FD1921250F822402412DF
:102CD0008C8640F8223027E06A4F8879CC7907EB60
:102CE0008015B1F9362045F82420A20710D100251F
:102CF0002A4607EB801600BF56F82270521CD2B24B
:102D00003D44102AF8D32A115D4D203D25F81020AE
:102D1000401CC0B28871102806D3641CE0B28B71CD
:102D2000C871102800D3CB710CF1010C0B711CF091
:102D30000100504A487105D0106820F0FF00001DC6
:102D4000106034E0897908070028106820F0FF003F
:102D500002DB00F1010001E000F1020010604A48CE
:102D6000036843F080530360036A43F080430362C7
:102D7000036E43F080630366CB07436908D043F0DA
:102D8000805343618B07436B05D423F0804304E0F9
:102D900023F08053F5E743F0804343634907416FD5
:102DA00002D421F0806101E041F080614167106848
:102DB00040F080701060BDE8F081F0B52F49BE3959
:102DC000B1F92E0018B1A0F10100C885ADE04FF0B7
:102DD000000C2F4B81F811C060462C4AB3F900500B
:102DE00011E000BFC0EBC00303EB001302EB830351
:102DF0009C78012C05D1DB78142B02D24B7C5B1C18
:102E00004B74401CC0B2A842ECDB4E7C022E5BD35C
:102E10001A4841F288333E38C0E902C30023C0F8A3
:102E200010C039E0C3EBC30404EB031402EB8407C6
:102E3000BC78012C0BD17C6A8768BC4200DD8460C1
:102E4000C768BC4200DAC46007693C44046121E001
:102E50002A020010DA0400106A010010DCF70720D3
:102E6000F00200104200001087000010CE01001098
:102E700000C002400040034000E100E0BEC0072067
:102E800048600010285C001000C0092070ED072089
:102E9000680100105B1CDBB2AB42C3DB0369012499
:102EA00093FBF6F74761C36803B9C460836864267F
:102EB0007343C66893FBF6F38361A02B00DD0C74AB
:102EC000782B02DA81F810C02FE0087C01282CD181
:102ED00000216FF0310426E0C1EBC10000EB0110CE
:102EE00002EB80008378012B1BD1436ABB4205DDD6
:102EF000B0F85030A3F10103A0F8503005DAB0F873
:102F0000503003F10103A0F85030B0F95030A34223
:102F100002DAA0F8504004E0322B02DD3223A0F8A0
:102F20005030491CC9B2A942D6DB00BFF0BD2DE923
:102F3000F047F9480168F94A11400160F84C2168EE
:102F400041F47C712160C16921F44021C161216E8D
:102F500041F000712166416821F0406141602068C4
:102F600040F000502060F048EE4B0278EF4893F8B4
:102F70003C500178EE481543B0F9000007D031B15C
:102F8000052804DDA56945F48075A56103E0E569C0
:102F900045F48075E56193F88830134307D031B16B
:102FA000052804DDA06940F04000A06103E0E0696D
:102FB00040F04000E061D220FDF715F9DD4D60B131
:102FC0002868642809D16868012801D028B108E080
:102FD000A06940F00050A06103E0E06940F00050BB
:102FE000E061D220FDF7FFF8D34E10B128686628C3
:102FF00015D03068C007A0B1A06F40F00070A06786
:10300000D220FDF7F0F810B128686C280ED0306897
:10301000800710D4E06940F01000E0610FE06868BC
:10302000E9E7E06F40F00070E067E9E768680028D2
:10303000F0D0012803D1A06940F01000A061D22097
:10304000FDF7D1F8DFF8F482BD4F10B128686D2884
:103050000BD098F8000002280DD0306840070DD43E
:10306000E06940F40070E0610CE068680028F7D087
:10307000012803D006E038780028F1D0A06940F498
:103080000070A061D220FDF7AEF810B128686A2860
:1030900004D0306810F4FF6F05D009E0686810B103
:1030A000012805D008E0E06940F08000E06103E01D
:1030B000A06940F08000A061D220FDF794F8A149FA
:1030C00010B128686B2806D098F80000012804D0B9
:1030D000087820B108E06868FBE7387820B1A0697B
:1030E00040F02000A06103E0E06940F02000E061D2
:1030F0009548008801287ED100234D7EDFF84C8260
:10310000DFF84CC2934CDFF8509218465FF0010292
:1031100039F91010CE070ED0904E914FB6F90060DD
:10312000B7F9007006EB8606B7EB460F03DA02FA32
:1031300000F61E43F3B28E0707D58A4E3678022E6C
:1031400003D102FA00F61E43F3B24E0705D5022D55
:1031500003D102FA00F61E43F3B20E0706D5824EE3
:1031600036681EB102FA00F61E43F3B2CE0607D54A
:1031700098F80060012E03D102FA00F61E43F3B264
:103180008E0607D598F80060022E03D102FA00F6E9
:103190001E43F3B24E061BD59CF80160F60603D51C
:1031A000B4F90060012E0FDA9CF85D60F60603D5D5
:1031B000B4F90060022E07DA9CF8B960F60607D56C
:1031C000B4F90060032E03DB02FA00F61E43F3B2EB
:1031D0000E061DD59CF80160360703D0B4F90060D7
:1031E000012E11DA9CF85D60360703D0B4F9006057
:1031F000022E09DA00E018E09CF8B960360707D023
:10320000B4F90060032E03DB02FA00F61E43F3B2AA
:10321000090403D402FA00F15940CBB2401CC0B2F9
:103220000428FFF475AF51480370BDE8F0872DE91D
:10323000F05F444C00254FF00108E07D0A2807D2DA
:10324000401CC0B2E0750A2802D3E57584F81880E6
:10325000A4F85850A4F85A50CD20FCF7C4FF3C4EB7
:10326000DFF8F090A0B333484FF6FF720168CE2923
:1032700008D0CF2909D0D12909D0D2290BD0D02903
:103280000CD011E0A4F85A200EE040680AE0406833
:10329000A4F8580008E0A4F8582005E04068A4F815
:1032A0005800C043A4F85A0000272FE008FA07F09E
:1032B000B4F85A1082460842C7EBC70000EB07106B
:1032C00006EB800005D030F8401F491C018002E069
:1032D0004EE0A0F84050C7EBC70000EB071006EB2C
:1032E00080008346403032220021FCF7CFFFBBF93B
:1032F0004000142801DD8BF82C80B4F858101AEA2D
:10330000010F01D08BF82C507F1CFFB2B9F90000DF
:103310008742CBDDAEE0000000C00240FF00F0FFBE
:1033200000C0092034EB072050C1072047000010DF
:10333000AA00001024000010FCC00720820000102A
:10334000A004001000C0072078010010A0000010A9
:1033500070ED0720680100104203001018010010F2
:10336000280200104B000010F8C0072000050010D4
:10337000207EE8B34FF0000C6146B9F9000009E087
:10338000C1EBC10202EB011206EB8202491C82F87A
:103390002C80C9B28142F3DD002120E0C2B2202A94
:1033A00000D92022A37F834200DB00230B44DBB241
:1033B000B3FBF2F702FB1732C2EBC20303EB0212BC
:1033C00006EB82039A78022A01D0012A05D10CF17A
:1033D000010C83F82C500CF0FF0C491CC9B281423F
:1033E00004DAFF4AB2F900209445D7DBE17F00E020
:1033F00040E0C1EBC10202EB011106EB810181F853
:103400002C50F849B1F900103C290DDA002109E0EF
:10341000C1EBC10202EB011206EB8202491C82F8E9
:103420002C50C9B28142F3DDEF49098871B1002106
:103430000AE000BFC1EBC10202EB011206EB8202FF
:10344000491C82F82C80C9B28142F3DD00216FF063
:1034500031030DE0C1EBC10202EB011206EB820267
:1034600092F82C70012F01D1A2F85030491CC9B23A
:103470008142EFDD00206323B9F900200EE000BF98
:10348000C0EBC00101EB001106EB8101CF6B1FB156
:1034900081F82C307F1ECF63401CC0B29042EFDB1E
:1034A000257600202575014612E000BFC1EBC1035F
:1034B00003EB011306EB83039F78012F06D1277DD1
:1034C0007F1C2775DB69834200DD98B2491CC9B2B5
:1034D0009142EBDB04F12004C4492085A57084F8F7
:1034E0000180B1F900104746A4F120044FF000001C
:1034F000A1F1050312E000BFC0EBC00C0CEB001CF7
:1035000006EB8C0CDCF828C08C4501DB84F82270BB
:103510009C4501DB84F82150401CC0B29042EBDB9B
:1035200094F8220001280BD094F82300002805D03D
:1035300094F82100002801D084F82350BDE8F09FC2
:1035400084F82370FAE770B5A9480A21A94D0368E9
:1035500000242868B3FBF1F2B0FBF1F6A648B242B2
:103560000AD102780F2A01D2521C0270D0B20A2866
:1035700003D3A248036000E004702B60A048A14B75
:10358000B0F90020B3F90000B2FBF1F5B0FBF1F1A6
:103590009D488D420AD101780F2901D2491C017042
:1035A000C8B20A2803D39948028000E004701A8048
:1035B00070BD2DE9F04F964C8D23964EB4F9300036
:1035C000322785B04FF00A0C4FF00108002518B1E2
:1035D000401E00B22086E8B36078E0B38C49B12287
:1035E0004FF00308B1F97410022861D0A34681247A
:1035F000D2234FF0820C4FF0CF0E4FF028094FF03E
:10360000A90A04286ED008287DD014282CD10029BE
:103610002AD150208DF804008DF808008DF805E0BF
:10362000D7218DF800408DF80610E4208DF8013088
:10363000C5218DF809908DF802208DF807108DF8BE
:103640000AA08DF80C008DF803C08DF80B800D21B9
:10365000684601E00BE016E034F045FD35801521A9
:103660008BF80110ABF8307005B0BDE8F08F6570D5
:10367000A07818B1012804D0A57004E084F8028075
:1036800001E00220A070AF208DF800003F208DF8EF
:10369000010021208DF802008DF803308DF804C060
:1036A0000521684634F01FFD358084F8018017E05D
:1036B0000029D9D106208DF8000030208DF80100B6
:1036C00035208DF802008DF804308DF803208DF838
:1036D00005C00621684634F006FD358084F8018077
:1036E0002786C1E70029BFD18DF8004056208DF80C
:1036F00001308DF804008DF802208DF803C08DF89C
:1037000005E0CC2000E017E08DF80600D4208DF80D
:10371000070041208DF808008DF809905F208DF892
:103720000AA08DF80C008DF80B800D21684634F04E
:10373000DAFC3580052193E7002995D1C3208DF867
:10374000040055208DF80500C5208DF808008DF87F
:1037500000408DF801308DF809905A208DF8022034
:103760008DF806308DF80AA08DF80C008DF803C096
:103770008DF807308DF80B800D21684634F0B3FCCE
:10378000358009216CE72DE9F04FDFF88C9089B086
:10379000DFF888B099F80010DFF874A0491CC9B2AE
:1037A000002689F800100A2902D389F8006000E099
:1037B000C1BB9AF814105046A1B3417E90F8252061
:1037C0009AF82800114301439BF80000014364D19B
:1037D000DFF84CC09CF80000401C8CF8000022E090
:1037E0007CC10720AA000010A6C107201401001008
:1037F000E804001098C107209EC10720E8020010CD
:10380000EC0400109CC10720EE04001058020010C8
:1038100000C00720DCC10720A20000104B000010F0
:103820000204082039E0FF48DFF80484B0F90020E2
:10383000FD480280FD48B8F90010B0F9004060462C
:103840004078FC4BA242B3F90050FB4BB3F9003077
:103850000DDD171B052F0ADB012B03D0022B06D130
:10386000052D04DD401C8CF80100491E0EE0A2422B
:103870000EDAA21A052A0BDB012B03D0022B07D18B
:10388000052D05DD401E8CF80100491CA8F800102C
:1038900064225142E648FCF7F9FCE7480088012819
:1038A00065D19AF819009AF82510554608439AF8F8
:1038B000281008439BF80010084358D199F80000DD
:1038C000DE4BDFF87C83082853D0DE486FF014010C
:1038D000B5F92C40B0F90020C2EB021001EB8007D3
:1038E000B5F94C108F420BD06FF0130707EB800730
:1038F0008F4205D06FF0120707EB8000884201D19C
:1039000042F4804418888DF80C0006208DF80D00D4
:103910008DF80E6064208DF80F00E01704EB106046
:1039200001128DF8101020468DF81100062103A811
:1039300032F0ACFE8DF8120000128DF81300062153
:1039400003A832F0A3FEA5F87E40B8F90000A8B3A2
:1039500002280CD19DF811009DF81010CDE900103F
:103960006423002202960621052034F091FB09B061
:103970007BE618888DF80C0004208DF80D008DF87A
:103980000E6002208DF80F008DF8106001248DF874
:103990001140062103A832F079FE8DF812000012C2
:1039A0008DF81300B8F9000048B10228DFD1CDE945
:1039B00000640223002204210296D5E709E00024D6
:1039C00003AD285D34F086F8641CE4B2082CF8D30B
:1039D000CDE7002403AD285D34F07CF8641CE4B22C
:1039E000082CF8D3C3E72DE9F0410746C0EBC70028
:1039F000954900EB071011F82020032A73D101EB41
:103A0000800494F84250A807B4F9460010D54FF44A
:103A1000966188421ADA401C00B2A4F84600884237
:103A200014DBA4F846106078C0070FD1012209E02A
:103A300060B1401E00B2A4F8460038B96078C007F3
:103A400004D000220021384602F059FA2807B4F9C0
:103A500048004FF00A064FF000010ED50A281FDA81
:103A6000401C00B2A4F848000A2819DBA4F84860FA
:103A70006078800714D4012209E000280DDDA0F150
:103A8000010000B2A4F8480050B94FF000024FF016
:103A90000101384602F033FA02E001DAA4F84810D6
:103AA000E806B4F94A000ED50A2817DA401C00B21D
:103AB000A4F84A000A2811DBA4F84A60607840079D
:103AC0000CD4012206E048B1401E00B2A4F84A001E
:103AD00020B900220221384602F011FA607800076E
:103AE00002D0042012E028E05848007820B1E078A5
:103AF000142801D9052009E094F84200800601D578
:103B0000022003E0E078142801D20120A070E078C0
:103B10000A2894F82C0002D340F0800001E000F065
:103B20007F004B4984F82C00B4F95000B1F92A10F9
:103B3000084420634FF47A706063BDE8F08170B58B
:103B400044490020444DB1F90C200121034600BF37
:103B500001FA00F4224201D0295400E02B54401C09
:103B6000C0B20C28F4D33D4C28783D4E21788142D8
:103B70000CD0B6F90010012908DB01284FD0002332
:103B800001220B2137A000BF2DF072FD617868780B
:103B900081420BD0B6F90010022907DB01283FD083
:103BA000002302220B2134A02DF062FDA178A87819
:103BB00081420BD0B6F90010032907DB012830D071
:103BC000002303220B2131A02DF052FDE178E8788B
:103BD00081420BD0B6F90010042907DB012873D00D
:103BE000002304220B212EA02DF042FD21792879FB
:103BF00081420BD0B6F90010052907DB01287ED0E1
:103C0000002305220B212BA02DF032FD617968796C
:103C1000814263D0B6F9001006295FDB55E097E0DA
:103C20009BE09FE0300200107C0200107E0200103A
:103C300080020010AAC10720860100108A0100102E
:103C4000880100103001001070ED07208F00001077
:103C500000C0072082040820D6030820960408200C
:103C6000720100104176746F6D61742023312069F8
:103C700073204F46460000004176746F6D617420DA
:103C80002332206973204F46460000004176746F4E
:103C90006D6174202333206973204F464600000075
:103CA0004176746F6D6174202334206973204F4610
:103CB000460000004176746F6D61742023352069E1
:103CC00073204F464600000051E0012859D00023E0
:103CD00006220B21F6A000BF2DF0CAFCA179A8791D
:103CE00081420BD0B6F90010072907DB01284DD01F
:103CF000002307220B21F3A02DF0BAFC00E03BE0EB
:103D0000E179E87981420BD0B6F90010082907DB88
:103D1000012840D0002308220B21EFA02DF0A8FCA1
:103D2000217A287A81420BD0B6F90010092907DBE5
:103D3000012835D0002309220B21ECA02DF098FC9E
:103D40000020295C2154401CC0B20C28F9D370BD5E
:103D500001231A460B21EAA016E7012302220B21B8
:103D6000ECA021E7012303220B21EFA02CE7012384
:103D700004220B21F1A037E7012305220B21F4A037
:103D800042E7012306220B21F6A0A5E70123072223
:103D90000B21F9A0B0E7012308220B21FBA0BDE70E
:103DA000012309220B21FEA0C8E770B5C820FCF74B
:103DB0001AFA0022FF49A0B3FF4C01232068C9284A
:103DC00003D0CA28104611D02CE0002000EB40049C
:103DD00004EB001411F82450322D02D26D1C01F8AE
:103DE0002450401CC0B20228F0D325E0D4F804507F
:103DF00003FA00F4254200EB400409D004EB00165E
:103E000011F82640322C07D2641C01F8264003E04A
:103E100004EB001401F82420401CC0B20228E7D3B0
:103E20000AE01FE000EB400404EB0014401CC0B2A9
:103E300001F824200228F5D35FF0000000EB4004D5
:103E400004EB001411F8245001EB8404142D02D962
:103E500084F83C3001E084F83C20401CC0B20228C9
:103E6000ECD370BD00EB400303EB0013401C01F8E2
:103E7000232001EB8303C0B283F83C200228F1D356
:103E800070BD2DE9FE4F0546CC4830F9151011B133
:103E9000491E20F81510C949091D31F9152012B124
:103EA000521E21F8152005EB4502C24B02EB05120C
:103EB00003EB8204C24B0292B4F90820B3F900303C
:103EC0009A4202DD642320F81530002A02DA6422C7
:103ED00021F81520B94A30F815309C3A00264BB12C
:103EE00031F8153033B1B2F87030B3B140F6B830B4
:103EF000A2F86E00A2F86E6094F83E00401CC0B2BA
:103F000084F83E000A2801D384F83E60AD4FDFF804
:103F1000B8823888322809D017E04FF41673A2F817
:103F2000703020F8156021F81560E3E794F83C0044
:103F3000F8B9B4F9020050281BDA94F83D00C00724
:103F400017D10121284602F053FAB7F90000C8281A
:103F50000FDDB4F90800FCF7D3F9B8F90010884276
:103F600007DD94F83D00C00703D00021284602F089
:103F70003FFA9548B4F90810B0F900004042814278
:103F800012DD607B0A280CD2401CC0B260730A2884
:103F900075D3A07B002872D0A673284602F09DF945
:103FA0006DE00A2060736AE069DA607BF0B3401E5E
:103FB00010F0FF00607362D1A07BB8BB0120A0733A
:103FC0008248834F0088401C00F0070004EB40004B
:103FD000008CADF80400B88B8DF800004FF0630240
:103FE0004FF001016846FCF746F904F11C049DF806
:103FF00000002076387E8DF800004FF00C024FF064
:1040000001016846FCF737F99DF800006076387BBF
:104010008DF800001F2201216846FCF72CF99DF85D
:104020000000A0769DF80400E07600E027E0387AF2
:104030008DF80000172200216846FCF71CF99DF856
:104040000000207738798DF800003B220021684677
:10405000FCF711F99DF80000607738788DF80000C2
:104060003B2200216846FCF706F99DF80000A07786
:104070009DF80500E07726806680A4F11C0448F6D0
:10408000A04994F83E0080B9B4F908106069DFF8DF
:1040900044A10844DFF8408145F2555B6061484522
:1040A00004DB38F915205A4598E008E1B8E0000033
:1040B0004176746F6D6174202336206973204F46FA
:1040C000460000004176746F6D61742023372069CB
:1040D00073204F46460000004176746F6D61742076
:1040E0002338206973204F46460000004176746FE4
:1040F0006D6174202339206973204F46460000000B
:104100004176746F6D6174202331206973204F4EA6
:10411000200000004176746F6D61742023322069A5
:1041200073204F4E200000004176746F6D61742043
:104130002333206973204F4E200000004176746FB6
:104140006D6174202334206973204F4E20000000DD
:104150004176746F6D6174202335206973204F4E52
:10416000200000004176746F6D6174202336206951
:1041700073204F4E200000004176746F6D617420F3
:104180002337206973204F4E200000004176746F62
:104190006D6174202338206973204F4E2000000089
:1041A0004176746F6D6174202339206973204F4EFE
:1041B0002000000034EB0720240000109CC00720E2
:1041C00028010010A80000101E01001072C1072075
:1041D00020400240DCB40300C002001003D1FF48BD
:1041E00030F8157001E038F815703AF815002FF026
:1041F00013FA80B2B8420AD2616900F10100A1F558
:104200000041A1F54A6161613AF915202AE030D9EF
:104210003AF9150039B22FF0F3FAC4F8149028E0F7
:10422000EF49884225DC38F915205A4503D1EB487F
:1042300030F8157001E038F815703AF815002FF0D5
:10424000EBF980B2B84205D93AF9150039B22FF02E
:10425000D7FA384658B16269401E02EB0901616124
:104260003AF9152001B210462FF0CAFA01E0DC48F5
:1042700060613AF815002FF0CFF9014638F91500C2
:10428000584502D1D54830F915004FF47A725143A0
:1042900008B1B1FBF0F00A21B0FBF1F02082D14867
:1042A0000088012805D1D049029801EB8000408A9E
:1042B000208204F1100064220021FBF7E7FFA07BBD
:1042C000012813D1A08B4F46B8420ED2B4F9080092
:1042D000FCF716F8A18B084480B2A083B84205D33E
:1042E000A683E08B401CE08300E0A683BF49B4F9BD
:1042F0000A00B1F90010884201DD207BE8B3B4F870
:104300004000401EA4F840004FF4167804F140002D
:1043100042460021FBF7BAFFB4F9400040F24E27B5
:10432000B84205DB94F83F1041F0010184F83F10DA
:104330000A2805DC94F83F0020F0010084F83F00D3
:10434000AB49B4F90A00B1F90010884201DD207BC5
:1043500090B3B4F84200401EA4F8420004F14200B9
:1043600042460021FBF792FFB4F94200B84207DB56
:1043700094F83F1041F0020100E01EE084F83F1085
:104380000A2805DC94F83F0020F0020084F83F0082
:10439000606C484519DA401C6064484516DB954F4F
:1043A000666437F815002FF037F9401C01B237F971
:1043B00015002FF025FA09E003E0B4F84000401C96
:1043C000A0E7B4F84200401CC6E766648A4F38880C
:1043D000002854D08948B0F900004045B4F90200E3
:1043E00004DAC11700EB9170801003E0052190FB07
:1043F000F1F000B2A188C1EB400000B2FBF780FFF2
:1044000000EB8000400000B20C2190FBF1F000B204
:10441000E080B7F90010884233DDB4F90800FBF7FB
:104420006FFF7749B1F9001001EB8101884228DA6A
:1044300074487321B0F900004843642190FBF1F007
:10444000B4F9021000B288421BDA94F83D008007EC
:1044500017D4B4F84800401C00B2A0F53061A4F8AD
:104460004800B83903D10121284602F0B1F9B4F966
:10447000481040F6BD30814201DBA4F84800BDE899
:10448000FE8FA4F84860FAE72DE9FF5F5E4C5F4EAF
:10449000DFF87C912078DFF87CA100254FF0640BD9
:1044A00001281FD199F80000012801D03C2030706C
:1044B0000A230022E621E120FBF75EFE5648B0F910
:1044C0000010BAF90000421E914204DB401C8142F8
:1044D00001DC02202070307820B1401E10F0FF0077
:1044E00030700AD02078DFF834C1DFF834814D4FC6
:1044F00002280AD003285CD0F4E04B482570022142
:1045000001704A4981F800B0ECE0BAF90020652159
:1045100002FB01F0B0FBFBF302EB421000EB4000AA
:10452000B0FBFBF0ACF80030A8F8000099F80000F0
:10453000E246C346022801D03C2030700A23BF2146
:10454000BE20FBF719FE0A230022E621E120FBF73B
:1045500013FE3849BAF900800020DFF8D4A0BBF977
:104560000020B1F9001010E0C0EBC00303EB001C09
:104570000AEB8C03DB69434501DA934203DC2B49E8
:10458000401C087008E0401CC0B28842ECDB0320ED
:10459000207029483D7005703078002808D0401EF2
:1045A00010F0FF00307003D11F4925700220087001
:1045B00098E0BAF90020652102FB01F0B0FBFBF0A6
:1045C000ACF8000002EB421000EB4000B0FBFBF047
:1045D000E246C346A8F8000030E00000B802001030
:1045E0006073FFFF6001001074EC07203A010010B7
:1045F00038010010F8B403003C0100102A0100103B
:104600001E010010180100104E000010A60000103E
:1046100051C10720320100102C020010820200104C
:1046200084020010A40000104F000010ADC107204C
:1046300070ED072068010010A500001099F8000037
:10464000032800D03D700A23BF21BE20FBF794FD54
:104650000A230022E621E120FBF78EFDBAF9008053
:104660005946DFF834A40126B1F900200020DFF814
:1046700024B4BAF900100EE0C0EBC00303EB001C39
:104680000BEB8C03DB69434501DA934201DC002626
:1046900003E0401CC0B28842EEDBD720FBF783FD6D
:1046A00078B1FE480068D9280BD13878401CC1B2D7
:1046B0003970BAF90000814203DBF9492570032003
:1046C0000870012E0ED1EE20CDE90005029503956C
:1046D000397803461622084633F0BDF8F1480178D0
:1046E000491C0170217889F80010BDE8FF9F2DE971
:1046F000F84FED4C0025607A0A2807D2401CC0B262
:1047000060720A2802D365720120E072A07A05283F
:1047100005D2401CC0B2A072052800D1A572BE20EF
:10472000FBF761FDE14928B1DC480268BF2A1CD1D2
:10473000406884E0E07A002817D0DD4BDD481A7825
:10474000552A04D05A78552A01D0008877E0DA48F3
:10475000DFF868A3DFF868B3B0F90060D948DA4A37
:10476000DFF8688316B1012E4FD069E0994614270F
:10477000A57386466B467E42A07B19F80050552DE6
:104780000FD023F81060401CC0B2A0730228F3D3EE
:10479000BDF90030BDF90250CD48AB4212DD0360D7
:1047A00012E000EB400505EB001C0EEB8C0C9CF8B6
:1047B0000C5015B123F81070E5E7BCF80A5023F847
:1047C0001050E0E72B460560002B02DAB2F900003A
:1047D00011E0282B01DD28230360B8F90050B2F95D
:1047E00000300068EA1A02EB820252004243C820FD
:1047F00092FBF0F01844627E022A20D19AF8002041
:10480000012A1CD1BBF9000019E040880A30088059
:10481000607E022806D19AF80000012802D1BBF878
:1048200000000880B1F90030B2F90000834200DBDB
:104830000880B1F90020B8F90000824200DB08804E
:10484000A448008818B9A4480078022802D1A348D7
:1048500000880880B1F9000062214143642291FB85
:10486000F2F19F4B19806621484390FBF2F09D497D
:104870000880BDE8F88F2DE9F0418B4CB4F9320087
:1048800008B1401E60869848984D8E4E008828805A
:10489000B6F908000A27002806DAFBF731FD90FB7D
:1048A000F7F0298808442880B6F95400002806DA71
:1048B000FBF726FD90FBF7F02988084428808C49F7
:1048C000B5F900008B4AB1F900103C2390FBF1F1DF
:1048D000491CC9B26175B2F9002090FBF2F0401C8E
:1048E000C2B28548A275B0F90050A94201DD01802D
:1048F00004E0AA4203DA618E09B9028063867F4927
:104900000A8865490AB10A880280B1F90020BDE829
:10491000F04101217848FBF7B9BC2DE9F05F7848F8
:10492000614C0088A4F846006A48008818B96A48B3
:104930000078022803D173480088A4F8460094F850
:1049400025000A2803D170480088A4F8460094F88E
:1049500028000A2802D00B2802D005E06B4800E0AE
:104960006B480088A4F84600B4F96E0010B1401EF0
:10497000A4F86E00B4F9700010B1401EA4F87000E5
:1049800050484FF00A0890F83F10890703D190F87B
:104990008B00800705D0B4F84600B0FBF8F0A4F80F
:1049A0004600207B4FF000094FF0010A0A2808D288
:1049B000401CC0B220730A2803D384F80C9084F8FA
:1049C0000DA0E120FBF70FFC524F384BDFF8C4B0CD
:1049D00088B332480168642908D069290AD06E2951
:1049E0000CD0E52928D0E62928D06EE14068A18DB9
:1049F00008449BE04068A18D081A97E0608D401E36
:104A000000B260851E2806DD4349B7F90000B1F900
:104A1000001088420CDAE078401CC0B2E070FA283E
:104A200005D10A230022E721E620FBF7A5FB4CE194
:104A300084F8039049E17CE0406877E0B7F9001022
:104A4000B3F90000814214DD4FF01102A1EB000028
:104A500084F824200A2805DDB4F94200002801DD8D
:104A6000401F63E0B4F94200002801D0617B79B9AE
:104A70002BE15ADA1222401A84F824200A284DDD4C
:104A8000B4F9420040F2F731884247DA401D4DE068
:104A90006CE0000070ED0720680100102400001099
:104AA0004F000010A500001000C0072048020010B1
:104AB000BC0100102A010010600100108C020010DF
:104AC0002001001034EB07200E010010100100102F
:104AD00080C10720FA0400104B000010680200108B
:104AE0004C0200104A020010DA04001084C10720B2
:104AF00024010010260100107CC10720360100109F
:104B00002801001066020010AA010010B001001078
:104B1000B80100102802001018010010B4F942007A
:104B2000B0F57F7F01DA617B91BBCEE0A4F8420053
:104B3000CBE0607B00287DD0FF48008818B19BF84F
:104B4000E302282876D9252004F8240FB4F90800B8
:104B5000E083B4F92010628C91FBF8F5A4F12404F1
:104B6000B5EB420F06DD4FF026018FE0401EDDE77A
:104B70000A38DBE70DDAC2EB02168E4209DA27218A
:104B800084F82410B4F86E100029EFD1C01ECDE7D0
:104B90004EE0C2EB02168E4203DD954201DD282174
:104BA00090E0B7F90050B3F90030E44FE44E9D4275
:104BB0005FDA4FF0290C84F824C0B7F90070B6F919
:104BC0000060A7EB0606A3EB0607AF421CDD2A2315
:104BD00084F82430002907DA2B2184F82410B4F853
:104BE0006E1029BB0A30A1E702EB82038B4201DD84
:104BF0002C2118E0C2EB421303EB8212B2FBF8F255
:104C00008A4262DD2D2121E0F71706EB9776A3EBB0
:104C1000A606AE421DDD2E2384F8243002EB82036B
:104C20008B420ADD2F2184F82410B4F86E1011B1E4
:104C3000401C7BE753E0801C78E7C2EB421303EB98
:104C40008212B2FBF8F28A423FDD302184F8241050
:104C5000EEE75B1E9D4238DA312384F82430C2EB44
:104C6000421303EB8212B2FBF8F28A422DDD3221AD
:104C7000ECE72ADD332184F82410B7F90010B6F9E7
:104C80000020891ACA18AA4208DA342184F82410AC
:104C9000B4F86E1000293FF46BAF67E7CA1701EB59
:104CA000927103EBA101A94208DA352184F824109E
:104CB000B4F86E100029F0D1801E37E75B1C9D42CE
:104CC00003DD362184F8241050E740F2F2320A2145
:104CD0009C48FBF7DBFAB4F84200A08560859A484F
:104CE00084F80F9084F80E904D465A465346B0F91A
:104CF00000100BE0C0EBC00606EB001602EB8606C8
:104D0000F6781E2E00D2E373401CA073A07B88426D
:104D1000F0DBE07B40B98D48008800EB800040006C
:104D20006085A085A4F84200864840F2F2320A214C
:104D30001838FBF7ABFA6573BDE8F09F2DE9F05F1B
:104D4000854E00208249DFF80C824FF00A0B824624
:104D5000B6F9003024E0814A814C125C34F912200B
:104D6000B2F5FA6F0A560DDA0A2A08DA521C52B264
:104D70000A540A2A12DB012208F800200EE001F88A
:104D800000B00BE0002A07DD521E52B20A54002A7E
:104D900004DC08F800A001E001F800A0401CC0B24B
:104DA0009842D8DB0024DFF8BC916F4D6F4F71E063
:104DB0006F4830F81400002818F8040001D078B1CA
:104DC00001E001280CD019F90400002818DB401E6E
:104DD00040B209F80400002814DC05F804A011E032
:104DE00019F904100A2908DA491C49B209F8041013
:104DF0000A2907DB0120285504E009F804B001E086
:104E000009F804A0395D285D81423FD04D4A921EC9
:104E10001188491C1180012807D014B3012C25D01A
:104E2000022C28D0032C2BD030E034B1012C09D037
:104E3000022C0CD0032C0FD028E001231A460F219E
:104E40004CA021E0012302220F214DA01CE00123F0
:104E500003220F214DA017E0012304220F214EA0B1
:104E600012E0002301220F214EA00DE000230222B8
:104E70000F2151A008E0002303220F2153A003E0DB
:104E8000002304220F2156A02CF0F2FB285D385598
:104E9000641CE4B2B6F90000844289DB4CE7554952
:104EA000554A0120087010704870507070472DE905
:104EB000F05F5348DFF84CE1DFF840C1B0F9007013
:104EC000BEF900001F4CC0EB0011423CBCF902507F
:104ED0006FF01D0A6FF0950B0026DFF81881B4F90A
:104EE0004C000AEB81020BEB8103BD4204DC464F10
:104EF000B7F90070BD4205DA824203DD834201DA70
:104F000088F80060414DE146BCF908C0B5F9005091
:104F1000394FBCEB450F03DC6D42BCEB450F04DAA7
:104F2000824202DD834200DA3E706FF0090202EB3A
:104F30008101754681426BE05E0200100E01001097
:104F40001001001042C007206801001096010010F7
:104F5000D80200108C0200106E010010D3B40300C0
:104F60002860001077C1072090020010D6040010BE
:104F70004A030010534B20233120416C61726D00B5
:104F8000534B20233220416C61726D00534B202320
:104F90003320416C61726D00534B20233420416CEF
:104FA00061726D00534B20233120416C61726D2082
:104FB0006973206F66660000534B20233220416CDA
:104FC00061726D206973206F66660000534B202369
:104FD0003320416C61726D206973206F666600003A
:104FE000534B20233420416C61726D206973206F14
:104FF00066660000DC04001086C1072034EB072041
:105000004A020010300100104C0200101E01001076
:1050100020D1607EF0B998F8000001281AD13878C4
:10502000012817D14FF4EF702EF0F6FAFF49B1F9CD
:10503000001088420ED0FE48008858B199F83D0013
:10504000C00707D14FF4EF702EF0DAFBF948017872
:10505000491C0170F849B9F902204846B1F900101D
:105060008A4206DCF549B0F94E20B1F900108A42B7
:105070000FDAB5F90010B4F94C20C1EB01110AEBBD
:105080008103934205DD0BEB8101914201DA88F83F
:105090000160EB49B9F95400B1F90010B0EB410FD0
:1050A00003DC4942B0EB410F0EDAB5F90000B4F968
:1050B0004C10C0EB00100AEB80028A4204DD0BEBBF
:1050C0008000884200DA7E70B5F90000C0EB001164
:1050D0006FF0090000EB8100B4F94C10884222D136
:1050E000607E00BB98F8010001281CD17878012867
:1050F00019D14FF4FE7630462EF08EFA0246CB4898
:10510000B0F902108A420ED0C948008802280AD19C
:1051100099F88900C00706D130462EF071FBC548CA
:105120000178491C0170B5F900006FF00101C0EB76
:10513000001001EB8000B4F94C10884202D1BDE8A8
:10514000F05FACE6F8E52DE9F003BE48BE4ADFF8B3
:10515000FCC200784FF000084FF00109F0B3BC48E2
:105160006146B0F90060BB48B1F90010B0F90070B9
:10517000B948BE42B0F90030B848B0F90040B8486C
:10518000B0F90050B748B0F9000013DA834203DBEE
:10519000844201DB85420DDAB348B0F90000814258
:1051A00019DA491C09B2ACF80010814213D182F817
:1051B000008015E0AD4FB7F90070BE420BDD8342B1
:1051C00009DD844207DD854205DD21B1491E08B2B3
:1051D000ACF8000060B11078002800E00DE009D1C3
:1051E000BDE8F0030F2301226E21D220FAF7C4BFDD
:1051F00082F80090BDE8F0037047ACF80080F7E754
:10520000F0B5934800249A4BB0F900209148B0F9CA
:1052100000509848AA42B0F9001004DC934EB6F949
:105220000060B2420CDA904AB2F9002091421ADAD8
:10523000491C09B20180914215DB1C70028015E007
:105240008D4FB7F900703E4496420CDAED1B954243
:1052500009DD41B1491E09B20180002903DC0121A9
:1052600019700480F0BD18780028FBD183490A200A
:105270000870F0BD824808B5017819B100210170AD
:105280000A2013E07F49804AB1F90010527E114391
:1052900009D04FF4FA6000907CA382A287A18DA070
:1052A000FCF7E1F908BD022101700120BDE80840CA
:1052B00001F072BD2DE9F041734C8C4D0026A07FAA
:1052C000E077A677B5F90000002802DDB0F5FA7F97
:1052D00002DD2E80BDE8F08194F82000401CC0B2B1
:1052E00084F820003C2819D34FF4947784F8206088
:1052F00038462EF091F9401C00B27D4AA4F87200A5
:10530000B5F90010B2F900205143814201DCA4F844
:105310007260B4F9721038462EF072FAB4F9720065
:10532000B5F9001090FBF1F0A077D3E710B500219C
:105330004FF494702EF064FA53493A2081F820001B
:1053400010BD70B56B48424C0025B0F900606A484A
:10535000B4F90030694AB0F90010B34204DC684E79
:10536000B6F90060B3420CDA1580664AB2F9002043
:10537000914217DA491C09B20180914212D10120F1
:105380000EE079B1B2F9001005290BDA491C09B217
:105390001180052906DB05805B48007810B10020EC
:1053A00000F084FC5948B4F90010B0F9000000EB9B
:1053B0008000B1EB400F0BDA55480068002807D198
:1053C000BDE87040142301227221D220FAF7D4BE26
:1053D00070BD2DE9F04F4F48DFF8AC804F4903789E
:1053E0004D4898F90020B1F90010B0F9000088B0DC
:1053F00023B1022B15D0012B14D082E1484E494B2A
:10540000347896F801C0B3F90A501F7BB3F956609F
:1054100093F8583022B1012A05D1552C04D193E0DC
:1054200082E0A0E04AE18CE092E00000C0020010BF
:1054300064010010DE0400104A0200104C0200104B
:105440001E01001082000010A0040010F0040010E3
:1054500028020010540100103A0200103C02001013
:105460003E0200101A0100105201001056010010F7
:10547000490000106402001058010010480000109C
:105480004B0000107402001000C0072020202020D4
:10549000202020202020202020202020202020200C
:1054A0000000000020202020E7E0E1EBEEEAE8F039
:1054B000EEE2E0ED2120202000000000202020204E
:1054C000202020E7E0F0FFE42020202020202020E2
:1054D000000000002020202020D3F1EAEEF0E5EDCE
:1054E000EDFBE920202020200000000062010010D8
:1054F000680100107A0100107A020010FC0400100C
:105500007C0100107E010010A000001018010010A6
:10551000DC020010810000104E010010500100104C
:10552000BC01001034EB0720552C03D185427EDCF2
:10553000002F7CD1BCF1550F03D1864277DC002BC4
:1055400075D108B0BDE8F08F8D42FADA002FF8D19E
:10555000BCF1550F6DD18E42F3DA002B69D0F0E724
:1055600088F80000EDE7744C724B94F803C0B3F96F
:105570000030A76AD4F88450009594F85F500195E4
:10558000D4F8E050029594F8BB500395D4F83C5100
:10559000049594F817510595D4F89851069594F808
:1055A0007351AE46D4F8F451079594F8CF51D4F81E
:1055B000AC62AB46D4F85052B146AA4694F82B528E
:1055C00094F88742A3B3874231DCBCF11E0F2ED280
:1055D000012B05DD009E864229DC019E1E2E26D26F
:1055E000022B05DD029E864221DC039E1E2E1ED26A
:1055F000032B05DD049E864219DC059E1E2E16D265
:10560000042B05DD069E86427BDCBEF11E0F78D2A0
:10561000052B05DD079E864273DCBBF11E0F70D2A1
:10562000062B03DD82456CDC1E2D6AD202E068E0A9
:1056300006E042E0072B03DD814562DC1E2C60D2D0
:10564000012A8CD1CBB38F4289DABCF10A0F86D202
:10565000022B2BDB0098884284DA01980A28F6D2C4
:10566000032B23DB02988842EEDA03980A28EED255
:10567000042B1BDB04988842E6DA05980A28E6D258
:10568000052B13DB06988842DEDABEF10A0FDED264
:10569000062B0BDB07988842D6DABBF10A0FD6D26D
:1056A000072B03DB8A45CFDA0A2DD0D2082B3FDB4C
:1056B0008945C9DA0A2C3BD343E739E0204C1F4B1C
:1056C000B4F90050B4F90260AA461E4DB3F9003097
:1056D000B4F9044095F800C06F78AD78B94693B13D
:1056E00082450EDCBCF1000F0BD1012B04DD86429C
:1056F00007DCB9F1000F04D1022B04DD844200DC89
:105700000DB101202CE7012AD6D18BB18A45D3DA1D
:10571000BCF1000FD0D1022B04DB8E42CCDAB9F100
:10572000000FC9D1032B03DB8C42C5DA002DC3D196
:10573000002015E76801001070ED07206C010010D3
:105740002A0300108902001070B5FF480278FF4854
:10575000016812B141F0010101E021F00101016095
:105760000021FB4C5FF0010301EB410202EB01124F
:1057700004EB820292F83D20D20706D04D1C03FABA
:1057800005F205689543154304E04A1C056803FAD1
:1057900002F29543491CC9B205600229E4D3ED4CDD
:1057A000002100BFC1EBC10202EB011204EB820237
:1057B000527812F0EF0F06D0CD1C03FA05F20568FF
:1057C0009543154303E0CA1C03FA02F29543491CB2
:1057D000C9B205600C29E5D32946DC4D00225035BD
:1057E000AC5C34B102F10F0603FA06F4A143214385
:1057F00004E002F10F0403FA04F4A143521CD2B2F4
:10580000062AEDD3D44D00220160AC5C012C2FD0D0
:1058100002F1180403FA04F4A143521CD2B2042A80
:10582000F3D30160846821EA0402C2604368134331
:10583000CA4A4360158815B123F0807343605388CA
:105840001BB1436823F00073436093881BB1436826
:1058500023F080634360D2881AB1426822F000626C
:1058600042608C43BE4BE24302611B883BB109E0BE
:1058700002F1180603FA06F4A1432143CDE7B94B20
:105880001A430261036942681A40C0E90121B6491E
:10589000B64A0988126801F03F0141EA02224261DA
:1058A000C46922EA04010162836994430B43E14322
:1058B0000B404162AE49C0E9063209688162046B5F
:1058C00021EA04024263C36A8C431343E243134058
:1058D0008263C0E90B31A7490968C163446C21EABE
:1058E00004028264036C8C431343E2431340C2649A
:1058F000C0E9103170BDF8B54FF4606528462DF051
:105900008BFE401C04463F2800D9002421B22846C3
:105910002DF076FF40F6026630462DF07DFE3F28E2
:1059200000D0204601B230462DF06AFF28462DF007
:1059300073FE4FF4806101EB4010054655208DF851
:10594000000000268DF8016052208DF802008DF8CD
:105950000360694628462DF0D8FF6946281D009649
:105960002DF0D3FF844CA08B8DF80000207E8DF8A5
:105970000100207B8DF802008DF80360694605F177
:1059800008002DF0C2FF207A8DF8000020798DF8F4
:10599000010020788DF802007848D0F880018DF859
:1059A0000300694605F10C002DF0AFFF41248DF88E
:1059B00000408DF801408DF802408DF803406946A3
:1059C00005F110002DF0A1FF8DF800408DF8014089
:1059D0008DF802408DF80340694605F114002DF062
:1059E00094FF8DF800408DF801408DF802408DF84D
:1059F0000340694605F118002DF087FF8DF800403F
:105A00008DF801408DF802408DF80340694605F19C
:105A10001C002DF07AFFF8BD2DE9F843564D4A4A97
:105A2000203D00262F154FF46061012802D0002888
:105A30007DD038E101201070884608462DF0ECFD3D
:105A4000401C04463F2800D9002421B240462DF0D6
:105A5000D7FE40F6026948462DF0DEFD3F2800D013
:105A6000204601B248462DF0CBFE40462DF0D4FD35
:105A700007EB401750208DF800008DF8016041249D
:105A80008DF802408DF80360694638462DF03DFFE1
:105A90006946381D00962DF038FF05F12005A88BCA
:105AA0008DF80000287E8DF80100287B8DF802001B
:105AB0008DF80360694607F108002DF026FF287A6B
:105AC0008DF8000028798DF8010028788DF8020003
:105AD0008DF80360694607F10C002DF016FF8DF874
