:020000040000FA
:10000000107F0010E1000000E5000000E7000000A4
:10001000E9000000EB000000ED000000000000001F
:10002000000000000000000000000000EF000000E1
:10003000F100000000000000F3000000772403003E
:10004000F7000000195303004D530300F7000000B0
:10005000F70000006F850300F7000000F7000000C4
:10006000F7000000F7000000F7000000F7000000B4
:10007000F7000000F7000000F7000000F7000000A4
:10008000F7000000F7000000F7000000F700000094
:10009000F7000000F70000002F700000F7000000DC
:1000A000F7000000F9820300F7000000F7000000ED
:1000B000CD9C0300F7000000F7000000F7000000EF
:1000C000F7000000F7000000F7000000DFF80CD098
:1000D00039F046FE00480047F1250300107F00106C
:1000E00005480047FEE7FEE7FEE7FEE7FEE7FEE71E
:1000F000FEE7FEE7FEE7FEE7CD000000FEE710B5F5
:100100003AF000FB3AF05CFB3AF04EFBAFF30080B4
:10011000BDE810403AF01ABB10B53BF0DBF83BF0FD
:100120008FFCBDE810403BF02DB93BF041B83AF0F0
:1001300009BE09B1002070473AF00CBA00207047A0
:1001400030B54FF000003D4BA3F1140202F10A0458
:10015000115C61B1255CA94209D1195C39B1A1F1E9
:100160000101C9B2195411B94FF000011154115CC9
:10017000215400F10100C0B20A28E9D330BD70B5A6
:100180004FF000042D4EA6F1140604F10104E4B270
:10019000355D1DB1854201D00A2CF6D33055274874
:1001A0000C3040F82410283040F82420343803550F
:1001B00070BD4FF00001214AA2F1140201F10101CA
:1001C000C9B2535C834201D00A29F7D3535C8342FE
:1001D00012D11A480C3050F8213019480360174BDF
:1001E000343353F8213043604FF000005054134A29
:1001F00050544FF001007047002070474FF000014D
:100200000E4AA2F1140201F10101C9B2535C83420A
:1002100001D00A29F7D3525C82420CD107480C3036
:1002200050F8212006480260044A343252F8211066
:10023000416001207047002070470000CC6B001027
:100240000C0000100D4BDA601870597070470B4AA3
:100250001161907070470949088170470749B1F9E9
:100260000800002809D0A0F1010000B20881002890
:1002700003D10146084601F09ABB704714000010F4
:1002800090F900308B4200DA027090F9003093420E
:1002900000DD0170704790F900308B4200DA017088
:1002A00090F90010914200DD02707047B0F9003003
:1002B0008B4200DA0180B0F90010914200DD02802B
:1002C0007047B0F900308B4200DA0280B0F900309C
:1002D000934200DD018070470146002000E0401C91
:1002E0000A5C002AFBD17047084400EB104080B242
:1002F0007047010241EA102080B27047FFFFFFFF04
:10030000002802DAC0F1000000B270474FF0000090
:10031000FC4A4FF02001115400F10100C0B2C8287E
:10032000F9D3704701464FF00000F64A00F1010092
:10033000C0B2135C8B4201D0C828F7D3704710B508
:100340004FF00001F04C4FF00A020346B0FBF2F010
:1003500002FB1033635401F10101C9B20529F4D342
:1003600010BDF0B5E94D4FF0010129704FF00501C6
:10037000E54B4FF020064FF000072A7842B15A189B
:1003800012F8014C24B9814202D902F8016C07E04D
:1003900003EB010212F8014D04F1300414702F70C8
:1003A000A1F10101C9B20029E7D1F0BDFEB50346B4
:1003B0004FF02B07002B04DAC3F1000003B24FF01B
:1003C0002D074FF000004FF00A046D4693FBF4F642
:1003D00004FB16332B5433B200F1010040B20A285B
:1003E000F4DB4FF001034FF000044FF009004FF031
:1003F000200643B115F800C0BCF1000F03D19042B4
:1004000001DD2E5408E02B5C03F130032B544FF038
:10041000000304F10104E4B2A0F1010040B200289D
:10042000E7DA2D2F04D1204604F10104E4B22F5461
:100430008AB160B207E005EB000313F8013C2B54CE
:10044000A0F1010040B29042F5DC4FF02E00A8541C
:1004500004F10104E4B20846FFF764FF4FF0000125
:10046000A84A06E0A0EB01066B5C935501F101017F
:1004700049B2A142F6DBFEBDFEB503464FF02B07A5
:10048000002B03DAC3F100034FF02D074FF00000FB
:100490004FF00A046D461E4693FBF4F304FB13660B
:1004A0002E5400F1010040B20A28F4DB4FF00103A2
:1004B0004FF000044FF009004FF0200643B115F84B
:1004C00000C0BCF1000F03D1904201DD2E5408E0C2
:1004D0002B5C03F130032B544FF0000304F10104B3
:1004E000E4B2A0F1010040B20028E7DA2D2F04D1D8
:1004F000204604F10104E4B22F548AB160B207E04F
:1005000005EB000313F8013C2B54A0F1010040B2AD
:100510009042F5DC4FF02E00A85404F10104E4B23F
:100520000846FFF7FFFE4FF00001764A06E0A0EB19
:1005300001066B5C935501F1010149B2A142F6DB62
:10054000FEBD2DE9FE414FF02B0C002803DAC0F16F
:1005500000004FF02D0C4FF000044FF00A056F46DD
:10056000064690FBF5F005FB10663E5504F10104CC
:1005700064B20A2CF4DB4FF001054FF000044FF099
:1005800009004FF0200645B117F80080B8F1000FC0
:1005900003D1984201DD3E5408E03D5C05F1300591
:1005A0003D544FF0000504F10104E4B2A0F1010054
:1005B00040B20028E7DABCF12D0F05D1204604F146
:1005C0000104E4B207F800C08BB160B207E007EBAA
:1005D000000515F8015C3D54A0F1010040B29842BD
:1005E000F5DC4FF02E00F85404F10104E4B201EB05
:1005F000810002EB8000C1B24FF00000414A06E0EA
:10060000A1EB00053B5C535500F1010040B2A04254
:10061000F6DBBDE8FE8170B50D4616461C46FFF7B9
:100620008EFE601CC0B2FFF79CFE05EB850006EB5A
:100630008000C1B24FF00000334B324DA04201D2D6
:100640001A5C6A5407D31A5C202A04D064B105EB03
:10065000010606F8012CA1F10101C9B200F1010067
:10066000C0B20528EAD370BD6A54F4E730B5044639
:1006700008461546FFF756FEFF280CD0214A07E032
:1006800000EB050304F10104D15400F10100C0B2F4
:1006900021780029F4D130BD70B50D461446FFF71E
:1006A0004EFE601CC0B2FFF75CFE2846FFF73AFE24
:1006B0004FF00001144A134D24B9535C202B01D094
:1006C0002B5415E0A14202D2535C2B5410E008D108
:1006D0004FF02E032B5405EB0006535C06F8013C4B
:1006E00006E0535C202B03D005EB000606F8013C26
:1006F000A0F10100C0B201F10101C9B20529DBD3AB
:1007000070BD000058020010F4C00720F9C0072097
:100710001044002801DA084403E0884201DBA0EB22
:100720000100C0B270472DE9FE4F04460D464FF45C
:10073000606035F013FB62424021FFF7E9FF4FEAAA
:10074000401000F58060044602A9204635F08DFB7C
:1007500001A904F1080035F088FB694604F10C009A
:1007600035F083FB2846FFF7DDFD83469DF8080042
:10077000DFF8F0A5DFF8F0954FF040064FF03005B8
:100780004FF021074FF023084FF0200455282FD0B9
:10079000CF22D12150287DD042287CD053287BD035
:1007A00049287AD14FF0C8010BF10100C0B209F815
:1007B0000B104FF0ED0200F10101C9B209F8002061
:1007C0004FF0E20201F10100C0B209F801209DF8EA
:1007D000091009297DD201F1310100F10102D2B2E3
:1007E00009F8001002F10100C0B209F80240FEE36E
:1007F0009DF80A00522815D14FF0C2010BF10100FB
:10080000C0B209F80B104FF0EA0200F10101C9B2C1
:1008100009F800204FF0EB0201F1010000F0FF0B9E
:1008200009F801200BF10100C0B209F80B4000F1FA
:100830000101CAB209F8004002F10100C1B209F891
:10084000024001F10100C0B209F801409DF8041016
:10085000BAF83C2091424FD19DF805109AF8382003
:10086000914249D19DF806109AF82C20914243D12B
:1008700000F10101C9B209F8005001F10100C0B254
:1008800009F801704FF03A0200F10101C9B209F80C
:10089000002003E076E02CE1FEE32BE001F1010013
:1008A000C0B209F8015000F10101C9B209F80060B5
:1008B00001F10100C0B209F8012000F10101C9B243
:1008C00009F8005009F801809DF800004FF000027F
:1008D00000E0FEE34FF02101FFF7DEFE9DF801008E
:1008E00000224021FFF7D8FE9DF8020000222321BC
:1008F000FFF7D2FEBDE8FE8F00F10101C9B209F891
:10090000004001F10100C0B209F8015000F10101FD
:10091000C9B209F8007001F10100C0B209F8016024
:1009200000F10101C9B209F8004001F10100C0B2B3
:1009300009F8014000F10101C9B209F8005009F8B5
:1009400001809DF806004FF000024FF02101FFF7F3
:10095000A3FE9DF8040000222321FFF79DFE9DF8D1
:100960000500401E0C2803D34FF001008DF8050050
:100970009DF80510FD48002200EB81004021FFF7A3
:1009800075FEB7E70BF10100C0B209F80B2000F1CA
:100990000102D2B209F8001002F10100C0B209F858
:1009A000024000F10101C9B209F8004001F1010063
:1009B000C0B209F8014000F10101C9B209F80040D4
:1009C00001F10102D0B209F801409DF80410BAF813
:1009D0003C20914247D19DF805109AF83820914269
:1009E00041D19DF806109AF82C2091423BD100F19C
:1009F0000101C9B209F8005001F10100C0B209F8C3
:100A000001704FF03A0200F10101C9B209F800206B
:100A100001F10100C0B209F8015000F10101C9B2B1
:100A200009F8006001F10100C0B209F8012000F1ED
:100A30000101C9B209F8005009F801809DF80000D1
:100A40004FF000024FF02101FFF726FE9DF8010054
:100A500000224021FFF720FE9DF802000022232102
:100A6000FFF71AFE46E700F10101C9B209F800409C
:100A700001F10100C0B209F8015000F10101C9B251
:100A800009F8007001F10100C2B209F8016002F139
:100A90000100C0B209F8024000F10101C9B209F831
:100AA000004001F10100C0B209F8015009F80080CE
:100AB0009DF806004FF000024FF02101FFF7ECFD1A
:100AC0009DF8040000222321FFF7E6FD9DF80500B4
:100AD000401E0C2803D34FF001008DF805009DF84F
:100AE0000510A248002200EB81004021FFF7BEFD67
:100AF00000E79DF80A0043287DD14FF0C1010BF1BA
:100B00000100C0B209F80B104FF0E00200F1010142
:100B1000C9B209F800204FF0F20201F10100C0B2A1
:100B200009F801209DF80920092A13D202F13102A7
:100B300000F10101C9B209F800204FF0C00201F133
:100B40000100C0B209F8012000F10101C9B209F8A1
:100B5000004030E0A2F109015A291DD202F1010240
:100B60004FF00A0CB2FBFCF303F1300B00F1010172
:100B7000C9B209F800B00CFB132202F1300201F1F6
:100B80000100C0B209F801204FF0C00200F10101DC
:100B9000C9B209F800200EE000F10101C9B209F85C
:100BA000004001F10100C0B209F8014000F101016B
:100BB000C9B209F8004001F10100C0B209F80140D2
:100BC0009DF80410BAF83C2091424DD19DF80510D3
:100BD0009AF83820914247D19DF806109AF82C20B7
:100BE000914241D100F10101C9B209F8005001F16F
:100BF0000100C0B200E080E009F801704FF03A0255
:100C000000F10101C9B209F8002001F10100C0B2F0
:100C100009F8015000F10101C9B209F8006001F1C1
:100C20000100C0B209F8012000F10101C9B209F8C0
:100C3000005001F1010000F0FF0B09F801809DF860
:100C400000004FF000024FF02101FFF725FD9DF855
:100C5000010000224021FFF71FFD9DF80200002245
:100C60002321FFF719FD48E000F10101C9B209F89D
:100C7000004001F10100C0B209F8015000F101018A
:100C8000C9B209F8007001F10100C0B209F80160B1
:100C900000F10101C9B209F8004001F10100C0B240
:100CA00009F8014000F10101C9B209F8005001F151
:100CB000010000F0FF0B09F801809DF806004FF0DD
:100CC00000024FF02101FFF7E7FC9DF8040000222D
:100CD0002321FFF7E1FC9DF80500401E0C2803D3FB
:100CE0004FF001008DF805009DF805101F48002207
:100CF00000EB81004021FFF7B9FC9DF80A00532862
:100D00007ED14FF0C1010BF10100C0B209F80B1008
:100D10004FF0E00200F10101C9B209F800204FF0E4
:100D2000F20201F10100C0B209F801209DF809109A
:100D30004FF0430309291BD201F1310100F10102F7
:100D4000D2B209F800104FF0C00002F1010101F029
:100D5000FF0C09F802000CF10100C1B209F80C30D7
:100D60002AE000000040024058020010B8C703000B
:100D700009395A2911D24FF0C00200F10101C9B25C
:100D800009F8002001F10100C0B209F8013000F1BA
:100D90000101C9B209F800400EE000F10101C9B239
:100DA00009F8004001F10100C0B209F8014000F16A
:100DB0000101C9B209F8004001F10100C0B209F80F
:100DC00001409DF80410BAF83C2091424DD19DF8A5
:100DD00005109AF83820914247D19DF806109AF8EC
:100DE0002C20914241D100F10101C9B209F8005013
:100DF00001F10100C0B209F801704FF03A0200E0C1
:100E00007CE000F10101C9B209F8002001F1010004
:100E1000C0B209F8015000F10101C9B209F800603F
:100E200001F10100C0B209F8012000F10101C9B2CD
:100E300009F8005001F1010000F0FF0B09F80180F2
:100E40009DF800004FF000024FF02101FFF724FC55
:100E50009DF8010000224021FFF71EFC9DF80200D2
:100E600000222321FFF718FC48E000F10101C9B27C
:100E700009F8004001F10100C0B209F8015000F189
:100E80000101C9B209F8007001F10100C2B209F80C
:100E9000016002F10100C0B209F8024000F1010155
:100EA000C9B209F8004001F10100C0B209F80150CF
:100EB00000F1010101F0FF0B09F800809DF8060028
:100EC0004FF000024FF02101FFF7E6FB9DF8040010
:100ED00000222321FFF7E0FB9DF80500401E0C28AF
:100EE00003D34FF001008DF805009DF80510FF4871
:100EF000002200EB81004021FFF7B8FB9DF80A00BB
:100F00005A2875D14FF0C2000BF10101C9B209F89E
:100F10000B004FF0C70201F10100C0B209F8012037
:100F200000F10101C9B209F8004001F10100C0B2AD
:100F300009F8014000F10101C9B209F8004001F1CE
:100F40000100C2B209F8014002F10100C0B209F883
:100F500002409DF80410BAF83C2091424ED19DF811
:100F600005109AF83820914248D19DF806109AF859
:100F70002C20914242D100F10101C9B209F8005080
:100F800001F10100C0B209F801704FF03A0300F11D
:100F90000101CAB209F8003002F10100C1B209F83A
:100FA000025001F10100C0B209F8016000F1010135
:100FB000C9B209F8003001F10100C0B209F80150CE
:100FC00000F1010101F0FF0B09F800809DF800001D
:100FD0004FF000024FF02101FFF75EFB9DF801008A
:100FE00000224021FFF758FB9DF8020001E056E384
:100FF0004DE000222321FFF74FFB48E000F1010103
:10100000C9B209F8004001F10100C0B209F801506D
:1010100000F10101C9B209F8007001F10100C0B28C
:1010200009F8016000F10101C9B209F8004001F1BD
:101030000100C0B209F8014000F10101C9B209F88C
:10104000005001F1010000F0FF0B09F801809DF84C
:1010500006004FF000024FF02101FFF71DFB9DF845
:10106000040000222321FFF717FB9DF80500401E16
:101070000C2803D34FF001008DF805009DF80510F2
:101080009A48002200EB81004021FFF7EFFA9DF81B
:101090000A0057287ED100E002E24FF0C1010BF1B7
:1010A0000100C0B209F80B104FF0E00200F101019D
:1010B000C9B209F800204FF0F20001F10102D3B2E9
:1010C00009F801009DF809104FF0F00E092913D21C
:1010D00000E0CAE201F1310103F10100C0B209F8F8
:1010E000031000F10101C9B209F800E001F10100AB
:1010F000C2B209F801402EE0A1F109005A281BD222
:1011000001F101014FF00A0BB1FBFBF202F1300CCF
:1011100003F10100C0B209F803C00BFB121202F187
:10112000300200F10101C9B209F8002001F101000B
:10113000C2B209F801E00EE003F10100C0B209F803
:10114000034000F10101C9B209F8004001F10100BA
:10115000C2B209F8014002F10100C0B209F8024030
:101160009DF80410BAF83C2091424DD19DF805102D
:101170009AF83820914247D19DF806109AF82C2011
:10118000914241D100F10101C9B209F8005001F1C9
:10119000010000E081E0C0B209F801704FF03A02AE
:1011A00000F10101C9B209F8002001F10100C0B24B
:1011B00009F8015000F10101C9B209F8006001F11C
:1011C0000100C0B209F8012000F10101C9B209F81B
:1011D000005001F1010000F0FF0B09F801809DF8BB
:1011E00000004FF000024FF02101FFF755FA9DF883
:1011F000010000224021FFF74FFA9DF80200002273
:101200002321FFF749FA48E000F10101C9B209F8CA
:10121000004001F10100C2B209F8015002F10100E1
:10122000C0B209F8027000F10101C9B209F800600A
:1012300001F10100C0B209F8014000F10101C9B299
:1012400009F8004001F10100C0B209F8015000F1B5
:10125000010101F0FF0B09F800809DF806004FF036
:1012600000024FF02101FFF717FA9DF80400002259
:101270002321FFF711FA9DF80500401E0C2803D327
:101280004FF001008DF805009DF805101748002269
:1012900000EB81004021FFF7E9F99DF80A004B2897
:1012A0007FF426AC4FF0C1010BF10100C0B209F888
:1012B0000B1003464FF0E00C00F10100C1B209F839
:1012C00003C04FF0F20301F10102D0B209F801307E
:1012D0009DF80910092918D201F1310100F101022C
:1012E000D2B209F800104FF0EA0101E0B8C70300DC
:1012F00002F10100C0B209F802104FF0E50200F15E
:101300000101C9B209F8002030E0A1F109025A2A0E
:101310001DD201F101014FF00A0BB1FBFBF303F108
:10132000300C00F10102D2B209F800C00BFB13111E
:1013300001F1300102F10100C0B209F802104FF0D2
:10134000EA0200F10101C9B209F800200EE000F143
:101350000101C9B209F8004001F10100C0B209F869
:10136000014000F10101C9B209F8004001F101009A
:10137000C0B209F801409DF80410BAF83C2091422F
:1013800048D19DF805109AF83820914242D19DF835
:1013900006109AF82C2091423CD100F10101C9B20B
:1013A00009F8005001F10100C0B209F801704FF0D6
:1013B0003A0200F10101C9B209F8002001F101006F
:1013C000C0B209F8015000F10101C9B209F800608A
:1013D00001F10100C0B209F8012000F10101C9B218
:1013E00009F8005009F801809DF800004FF0000254
:1013F0004FF02101FFF750F99DF801000022402134
:10140000FFF74AF99DF8020000222321FFF744F973
:10141000BDE8FE8F00F10101C9B209F8004001F1F9
:101420000100C0B209F8015000F10101C9B209F888
:10143000007001F10100C0B209F8016000F1010182
:10144000C9B209F8004001F10100C0B209F8014039
:1014500000F10101C9B209F8005009F801809DF8B6
:1014600006004FF000024FF02101FFF715F99DF83B
:10147000040000222321FFF70FF99DF80500401E0C
:101480000C2803D34FF001008DF805009DF80510DE
:10149000FF48002200EB81004021FFF7E7F8B7E7A3
:1014A0004FF0C1030BF10100C0B209F80B3000F19D
:1014B0000103DBB209F8002003F10100C0B209F812
:1014C00003109DF80920092A0CD202F1310200F123
:1014D0000101C9B209F8002001F10100C0B209F808
:1014E000014024E0A2F109015A2916D202F10102B9
:1014F0004FF00A0BB2FBFBF303F1300C00F10101DA
:10150000C9B209F800C00BFB132202F1300201F14D
:101510000100C0B209F8012009E000F10101C9B2DF
:1015200009F8004001F10100C0B209F8014000F1E2
:101530000101C9B209F8004001F10100C0B209F887
:1015400001409DF80410BAF83C20914247D19DF823
:1015500005109AF83820914241D19DF806109AF86A
:101560002C2091423BD100F10101C9B209F8005091
:1015700001F10100C0B209F801704FF03A0200F128
:101580000101C9B209F8002001F10100C0B209F857
:10159000015000F10101C9B209F8006001F1010038
:1015A000C0B209F8012000F10101C9B209F80050E8
:1015B00009F801809DF800004FF000024FF0210172
:1015C000FFF76AF89DF8010000224021FFF764F858
:1015D0009DF8020000222321FFF75EF818E700F1D2
:1015E0000101C9B209F8004001F10100C0B209F8D7
:1015F000015000F10101C9B209F8007001F10100C8
:10160000C0B209F8016000F10101C9B209F8004057
:1016100001F10100C0B209F8014000F10101C9B2B5
:1016200009F8005009F801809DF806004FF000020B
:101630004FF02101FFF730F89DF80400002223212C
:10164000FFF72AF89DF80500401E0C2803D34FF041
:1016500001008DF805009DF805108D48002200EB73
:1016600081004021FFF702F8D2E6A1F109025A2ACF
:1016700016D201F101014FF00A06B1FBF6F303F1B6
:10168000300500F10102D2B209F8005006FB131137
:1016900001F1300102F10100C0B209F8021009E0C5
:1016A00000F10101C9B209F8004001F10100C0B226
:1016B00009F8014009F80040AAE6F0B504460846DA
:1016C00016461F46FEF72EFE02461046714DFF28B5
:1016D00006D108E0295404F1010400F10100C0B270
:1016E00021780029F6D16C480078002806D0002F18
:1016F00004D002EB06014FF05F006854F0BD2DE905
:10170000F04F0746DDE90905884691469A46FEF7FF
:1017100009FE614B20215F4C0A224FF0640C012D21
:1017200009D11E783EB104EB0006A6F10E06B17099
:101730007170317017E097FBF2FB02FB1B7E04EB2C
:1017400000060EF1300E06F80CEC9BFBF2FE02FBDD
:101750001EBB0BF1300B06F80DBC97FBFCF707F135
:10176000300706F80E7C022D09D11E783EB104EB3D
:101770000006A6F10A06B1707170317017E098FB8F
:10178000F2F702FB178B04EB0006A6F10A060BF139
:10179000300B86F802B097FBF2FB02FB1B7707F1D8
:1017A0003007777098FBFCF707F130073770032D8F
:1017B00009D11E783EB104EB0006A6F10606B17011
:1017C0007170317017E099FBF2F702FB179804EB88
:1017D0000006A6F1060608F1300886F8028097FB9D
:1017E000F2F802FB187707F13007777099FBFCF7E6
:1017F00007F130073770042D09D11B783BB1215414
:101800002044A0F1020041700170BDE8F08F9AFB06
:10181000F2F102FB11A303F13003235491FBF2F325
:1018200002FB13112044A0F1020001F130014170CC
:101830009AFBFCF101F130010170E6E717B501EB0D
:10184000810002EB8000C2B29DF80030134803F023
:101850000F01445C0F498C54A2F10102D2B200EB9B
:1018600013131B788B54A2F10102D2B29DF8013000
:1018700003F00F04045D8C54A2F10102D2B200EB1C
:1018800013131B788B54A2F10102D2B208E00000BE
:10189000B8C70300580200104800001042C80300F7
:1018A0009DF8023003F00F04045D8C54A2F1010294
:1018B000D2B200EB13131B788B54A2F10102D3B206
:1018C0009DF8032002F00F04045DCC54A3F1010342
:1018D000DBB200EB12100078C8541EBD10B501EB4E
:1018E000810102EB8101C9B2B34A00F00F03D45C5D
:1018F000B24B5C54A1F10101C9B202EB10100078A7
:10190000585410BD30B5AE490124AC4B91F90120BB
:1019100091F904108A4204D100EB800003F82040C2
:1019200030BD4D1CAA4206D100F1010000EB800041
:1019300003F8204030BD8D1CAA4206D100F1020000
:1019400000EB800003F8204030BDCD1CAA4206D138
:1019500000F1030000EB800003F8204030BD0D1DB6
:10196000AA4206D100F1040000EB800003F82040F9
:1019700030BD4D1DAA4206D100F1050000EB8000EC
:1019800003F8204030BD8D1DAA4206D100F10600AB
:1019900000EB800003F8204030BDC91D8A42FBD116
:1019A00000F1070000EB800003F8204030BD854BBC
:1019B0001A88A2F10102104400B21880824A00EB9A
:1019C000800002447E4813680360127902714278F5
:1019D00011444170704770B57A4DB5F9004004F17B
:1019E00001062E80784D04EB84042544744C26684F
:1019F0002E6026792E71207061702271A37070BDE7
:101A00002DE9F04180460F461646FEF77FFC6B4CF1
:101A10004FF0000518F8010B04F8010B05F1010562
:101A2000EDB2142DF6D34FF0000017F8011B04F8A7
:101A3000011B00F10100C0B21428F6D34FF00000E2
:101A400016F8011B04F8011B00F10100C0B21428B4
:101A5000F6D34FF0000013F8011B04F8011B00F14E
:101A60000100C0B21428F6D3BDE8F08110B5029C85
:101A7000FFF7C6FF5248C378827841789720FFF776
:101A8000AAFF642094FBF0F0BDE81040C0B2FEF75E
:101A9000E2BB2DE9FE430D464FEA401000F58060A1
:101AA000044602A9204634F0E0F901A904F1080037
:101AB00034F0DBF9694604F10C0034F0D6F928461D
:101AC000FEF730FC3D4C4FF0200600F10101C9B299
:101AD00026544FF0300701F10100C0B267544FF0B7
:101AE000210800F10101C9B204F800804FF040095B
:101AF00001F10100C0B204F8019000F10101C9B286
:101B0000265401F10100C0B2665400F10101C9B2CE
:101B100027544FF0230201F10100C5B262549DF831
:101B200006004FF000024FF02101FEF7B5FD9DF8D1
:101B3000040000222321FEF7AFFD9DF80500401EA2
:101B40000C2803D34FF001008DF805009DF8050027
:101B50001E49002201EB80004021FEF787FD05F1C0
:101B60000100C0B2665500F10101C9B2275401F16C
:101B70000100C0B204F801804FF03A0200F1010107
:101B8000C9B2225401F10100C0B2675400F1010151
:101B9000CDB204F800909DF800004FF000024FF025
:101BA0002101FEF779FD9DF8010000224021FEF79A
:101BB00073FD6655BDE8FE8342C80300580200105D
:101BC000D80100106C000010286C0010B8C703008A
:101BD0002DE9FC410446FE4E4FF00007F775F07CFE
:101BE0004FF00103022808D0FA49095D552906D0B3
:101BF0004FF06500F075BDE8FC81F375FBE704EB81
:101C0000440101EB0412F44901EB820595F83D1003
:101C1000CA0703D04FF06600F075ECE795F83F2057
:101C2000920703D54FF06700F075E4E7890703D505
:101C30004FF06800F075DEE7E84AB5F90810B2F930
:101C40000020914203DD4FF06900F075D3E7524266
:101C5000914203DA4FF06A00F075CCE7DC490128C5
:101C6000097D00D111B1012804D005E04FF06B00CF
:101C7000F075C0E701297ED04FF06400F075F37471
:101C8000A6F8523019464FF4F87034F065F93475FF
:101C9000A6F8544021464FF4FA7034F05DF9AF6174
:101CA000CF48002130F9140034F056F97775A6F8C2
:101CB000567039464FF4FB7034F04EF9C94800882D
:101CC00000F1010000F0070005EB4000008C0190DE
:101CD000C54DA88B00904FF063024FF0010168469C
:101CE000FEF7D9FABA4C9DF8000098342070287E8F
:101CF00000900C2201216846FEF7CDFA9DF8000005
:101D00006070287B00901F2201216846FEF7C3FA0D
:101D10009DF80000A0709DF80400E0704FF4FC7086
:101D2000216834F054F9287A00901722002168467F
:101D3000FEF7B1FA9DF800002071287900903B224F
:101D400000216846FEF7A7FA9DF800006071287828
:101D500000903B2200216846FEF79DFA9DF80000A6
:101D6000A0719DF80500E0714FF4FE70616834F0D9
:101D70002EF940E7FFE74FF06C00F0753BE72DE9E7
:101D8000F047934CE07C01287DD121460126097D56
:101D9000607DC1F1010206FA02F1914F8E4D0AB247
:101DA00010B1012834D038E01423CA21C820FEF72E
:101DB000E6F914234FF0FF32CE21CD20FEF7DFF9F4
:101DC000207D00EB400101EB001005EB8000B0F935
:101DD0000800FEF795FA217D01EB410202EB0112AA
:101DE00005EB820293691844906148F6A04398423B
:101DF00013DBA0EB0300906137F8110033F0AEFF66
:101E0000401C01B2207D37F9100034F0A5F804E041
:101E10001423CA21C820FEF7B2F9217D4FF4F879C6
:101E200001EB410000EB011005EB80004FF00008D2
:101E3000B0F902206D48B0F9000000EB8000B2EB71
:101E4000400F47DAB4F84E0000F1010000B2A4F8E8
:101E50004E001E2840DBE07C012822D1607D00BBC3
:101E600037F8110033F07AFF01B26148227D30F972
:101E7000120034F071F8207D37F8100033F06EFF57
:101E800081B2207D00E049E004F09CFE5948217DAC
:101E900030F91100002134F05FF84FF03200208358
:101EA0006083207D4B49C0F10100085C552808D0B3
:101EB00084F81380A4F852800021484634F04CF88E
:101EC0000AE06675A4F8566001214FF4FB7034F007
:101ED00043F801E0A4F84E80217D01EB410000EBC6
:101EE000011005EB8000B0F90220C1F1010000EB08
:101EF000400101EB001005EB8000B0F902008242C6
:101F00000CDB607D012809D184F81380A4F852808D
:101F10004846BDE8F047002134F01EB8BDE8F08720
:101F200070B505464FF00006294CE07C18BB04F163
:101F300012044FF002016170A4F840104FF4F870E1
:101F400034F00AF82587C5EB05104FEA80010D46ED
:101F5000E1874FF4F97033F0FFFF29464FF4FF702B
:101F600033F0FAFF30466087A0864FF001064FF04D
:101F7000010004F0F0FE304670BD10B5144CE07C5A
:101F8000022813D104F11204208F04F0E4FE4FF074
:101F90000000A086208760876070A4F8400001469A
:101FA000BDE810404FF4F87033F0D6BF10BD70B5E7
:101FB0000D4C203C94F838000F4D297808440C282B
:101FC0001CD9A08F401C01B2B82033F0C5FF1AE025
:101FD00008C00720E2000010F0EE07208E0000107D
:101FE0002AC1030048010010204002408800001070
:101FF00046C1030026C1030051000010B4F93C1093
:10200000B82033F0A9FF94F83810287801440C293F
:1020100007D994F838100C380144B62033F09CFFEF
:1020200005E094F838100144B62033F095FF94F899
:102030002C001C2804D91C21B42033F08DFF04E0AF
:1020400094F82C10B42033F087FF04F12004217A97
:102050004FF0AE0033F080FF2179B02033F07CFFE9
:102060002178BDE87040B22033F076BF10B5FF484C
:10207000FF4C007830B3FF48828FFF4909888A42BD
:1020800020D190F83820FD4909888A421AD190F869
:102090002C10FB4A1288914214D190F82810F94A6A
:1020A000128891420ED190F82410F74A128891427A
:1020B00008D190F82000F5490988884202D14FF0F4
:1020C0000100A075A07D00280CD0F1480088C0B2A6
:1020D000FFF726FF002805D04FF00000A075BDE8EF
:1020E000104064E710BD70B5E14CE07C022844D19B
:1020F000B4F848004FF461610025884215D200F120
:10210000010080B2A4F8480088420ED3A4F84850D9
:10211000B4F84A0048B1A0F1010024F84A0F6088E1
:1021200000F101006080A4F14A04B4F846003C28A4
:1021300023D200F1010080B2A4F846003C281CD351
:1021400024F8465F6089A0F1010001B261814FF47B
:10215000F97033F001FF6089A4F1460400280CD126
:10216000E574A4F8525001464FF4F87033F0F4FED1
:10217000BDE87040002004F0EEBD70BDC5486FF0B2
:102180003B010088C0EB001001EB8000B849488794
:1021900070472DE9F05FDFF8D882DFF8FCA2002558
:1021A000B8F83A00BD4E401C01B2BA48A8F83A103F
:1021B000DFF8EC92B0F900000A27C0EB00124FF0F4
:1021C000010B08F14004B1EB820F61DBF0B3A8F81A
:1021D0003A502570657088F80D50B248007855283F
:1021E00011D1B6F9020050280DDDB6F90800FEF74E
:1021F00087F8B9F90010884203DB96F83D00C00764
:1022000001D084F800B0A7484078552811D1B6F91C
:102210004E0050280DDDB6F95400FEF771F8B9F9FB
:102220000010884203DB96F88900C00701D084F8CB
:1022300001B09D48007880B9BAF90000FEF760F857
:10224000B9F90010884206DB984800E020E090F8D9
:102250003D00C00701D088F80DB09548007838B926
:1022600098F80E0020B198F8130028B1022803D086
:102270002570657088F80D50207801281FD060788F
:1022800001281CD098F80D00012818D0A8F83C505F
:102290004146B8F93C00DFF8D881002808F15C0815
:1022A0007ED0A0F1010000B28B468887052809DDA9
:1022B0000F231E226421E120FDF761FF0AE0A8F848
:1022C0003C70E5E7002805DD0F231E226921E1208F
:1022D000FDF755FFBBF83C00052811D1B6F9080001
:1022E000FEF70EF8A8F80000B6F95400FEF708F85B
:1022F000A8F80200BAF90000FEF702F8ABF81E00D9
:102300005B48808F002854D1B6F90800FDF7F8FF2C
:10231000DFF85CB10BF1600BABF80000B6F95400CC
:10232000FDF7EEFFABF80200BAF90000FDF7E8FF99
:10233000DFF83CA1AAF82000AAF83E50B8F9000046
:10234000BBF900100844B9F90010884202DA20787D
:10235000012830D0B6F90200C82804DD257000211C
:10236000084604F085F9B8F90200BBF902100844E8
:10237000B9F90010884202DA607801281ED0B6F957
:102380004E00C82804DD65700021012004F070F9BA
:10239000BAF91E00BAF920100844B9F9001000E09B
:1023A0000FE0884205DA9AF80D00012801D1AAF859
:1023B0003E70BDE8F09FAAF83E70D4E7AAF83E70E0
:1023C000E6E7B1F93E00F0B3A0F1010000B20F461C
:1023D000C887052806DD0F23C8226421E120FDF708
:1023E000CEFE07E0002805DD0F23C8226921E12089
:1023F000FDF7C5FEF88F052810D1B6F90800FDF7E6
:102400007FFFA8F80000B6F95400FDF779FFA8F89F
:102410000200BAF90000FDF773FFF8831448C08F7B
:102420000028C6D1B6F90800FDF76AFF104F6037E3
:102430003880B6F95400FDF763FF7880BAF90000E0
:10244000FDF75EFF00E06BE0DFF824A0AAF82000B3
:102450008AF80C50B8F90000B7F900100844B9F92F
:102460000010884227DA2078012823E0510000106C
:1024700008C0072000400240F0000010EE000010ED
:10248000EC000010E6000010E8000010EA00001068
:10249000F20000109E0000104A010010F0EE07202C
:1024A0008E000010E20000102F00001088EF0720BF
:1024B000570000102ED0B6F90200C82804DD2570A0
:1024C0000021084604F0D4F8B8F90200B7F9021068
:1024D0000844B9F90010884202DA607801281CD05B
:1024E000B6F94E00C82804DD65700021012004F013
:1024F000BFF8BAF91E00BAF920100844B9F9001063
:102500008842BFF656AF9AF80D00012889D18AF8A3
:102510000CB04EE78AF80CB0D6E78AF80CB0E8E7C2
:10252000087B88460028F4D00F2300226E21E1208A
:10253000FDF725FEB6F90800FDF7E2FEB9F9001037
:10254000884207DD2078012804D125700021084643
:1025500004F08EF8B6F95400FDF7D2FEB9F9001078
:10256000884206DD6078012803D16570002104F0FF
:102570007FF8BAF90000FDF7C3FEB9F900108842F0
:1025800008DD98F80D00012804D188F80D500020CE
:1025900003F02BFF207830B9607820B998F80D004F
:1025A00008B988F80C50E620FDF703FE18B1FF4883
:1025B0000068E7280AD0FE48FE49B0F90000B1F9EA
:1025C000001000EB8000B1EB400FA2DA88F80C504D
:1025D0002078F94D01280FD1B9F90000B5F90010A4
:1025E000400090FBF7F0884206DA96F83D00C007FD
:1025F00002D1012104F03CF86078012810D1B9F92A
:102600000000B5F90010400090FBF7F0884207DAAF
:1026100096F88900C00703D10121084604F028F884
:1026200098F80D0001287FF474AFB9F90000B5F9EE
:102630000010400090FBF7F08842C6DADF4890F8BF
:102640003D00C007EFD1BDE8F05F012003F0CDBE33
:1026500070B5DB4C208F401C00B22087B0F5E16FD5
:1026600002DB4FF000002087B4F93800B0F5DF6FCF
:1026700011D90F2301226421D220FDF780FD0F2301
:102680000022D821D720FDF77AFD0F230022D82180
:10269000DC20FDF774FDB4F93800A0F5E0610739DE
:1026A00018D1C84EC84CC94D30882188884205D001
:1026B000B4F90010B5F9000033F04EFC7088618861
:1026C000884207D0B4F90210B5F90200BDE87040A5
:1026D00033F042BC70BD10B5BD4C208800F1010044
:1026E00020804FF008024FF000012046FDF7E9FD81
:1026F000B849B4F9000001EB40004A880284B1F8FF
:102700004E10A0F86C1010BD70B5B34DB348B44A6C
:10271000B5F90010B0F9003092F9000099421FDAC3
:10272000B04C0A280FDAB04BB3F900300F2B0ADD9A
:1027300000F1010040B210700A2809DB218001205D
:1027400003F0B0F904E00A2802DB4FF00A00107031
:10275000B5F90000B4F90010884200DA208070BD9D
:10276000FDDD0028FBD0A0F1010040B21070002870
:10277000F5DCBDE87040002003F094B92DE9FE4F70
:102780009A489B4A9C4B90F89C030290B2F900B087
:102790009A49B3F900200192DFF858C2B1F900104C
:1027A000974BDFF86082984E45F2116445F2FA5576
:1027B00045F22F670091072839D08149DFF84C9204
:1027C000DFF834A28A8C8A49BAF900A041F2707B02
:1027D000B1F9001030884A43B9F90610B9F91490DC
:1027E00001FB0AF1DFF814A291FBFBF1BAF900A09A
:1027F00009B209FB0AF999FBFBF90FFA89F9A04222
:102800005CD14FF47A6092FBF0F000B2ACF80000BB
:102810001980A8F80090704A1080814200DA118077
:10282000B2F90000814501DAA2F800907FE0784813
:10283000DFF88C910178427809F1840901EB0221DB
:102840001FFA81FAA9F800A08178C27801EB022171
:1028500089B2A9F80210027990F805E002EB0E2285
:1028600092B2A9F8042002FB0BF241F2707992FBBC
:10287000F9F20FFA82FBACF800B0019A01FB02F109
:1028800091FBF9F109B21980009A0AFB02FA9AFB4E
:10289000F9F212B2A8F800208379C07903EB002086
:1028A0005C4B18804C48A0F800B0594500DA018014
:1028B000B0F900108A423ADA028038E0B84207D014
:1028C000A0F5AC4ABAF1070A02D0BAF1140A15D140
:1028D00049F6404092FBF0F000B2ACF800001980DD
:1028E000A8F800903C4A1080814200DA1180B2F9C9
:1028F000000081451BDAA2F8009018E04649B1F9C2
:1029000000202F49898C5143A84203D0A0F5AA4248
:10291000FB3A06D148F6B80091FBF0F02E4908804A
:1029200005E04FF4FA7091FBF0F02B490880029813
:10293000072803D03948374900880880DFF8CCA041
:10294000BAF900203649B1F9000050434FF4FA6952
:1029500090FBF9F0DFF87C80A8F80200BAF90830A3
:10296000304AB2F9000000FB03F04FF42F7390FBE4
:10297000F3F0A8F80400BAF91800B1F9021001FB4D
:1029800000F191FBF9F0A8F84E00BAF90210B2F983
:10299000020000FB01F090FBF3F0A8F850004FF0AC
:1029A000DC00FDF72BFC45F213623DE00C0000104B
:1029B000880000104C0100104E01001088EF072025
:1029C00008C007208C0300107AEE072052C10300D4
:1029D00048010010F0EE0720520100108A0000109C
:1029E000B4030010FAC007206A000010CCF00720E2
:1029F000DAC00720540100109C030010DCC007203F
:102A00005601001058010010E4000010786B00100F
:102A10006EF4072060010010D2C007205A01001098
:102A200088030010CAC00720D8BBFE480088FE49B2
:102A30000988A0EB0100DFF8F4C3BCF9001001FB2A
:102A400000F1308845F6386B45F6926E584501D056
:102A5000704504D14FF4967391FBF3F10CE0A8425A
:102A600003D0904201D0A04202D191FBF9F103E0E2
:102A70004FF47A7391FBF3F1A8F80810E9494988FB
:102A8000E94B5B88A1EB0301BCF9023003FB01F3C6
:102A9000584501D0704505D14FF4967093FBF0F086
:102AA0000DE00EE0A84203D0904201D0A04202D136
:102AB00093FBF9F003E04FF47A7093FBF0F0A8F881
:102AC0005400BAF90C3040F6B73EA3F2213B002186
:102AD0004FF0010CF34502D288F80C1001E088F8A1
:102AE0000CC0D348B0F90000584344F6206A90FB6C
:102AF000FAF0A0F21110A8F80A00CE4840F6B73E4E
:102B0000B0F90E00A0F2213AF24502D288F858102E
:102B100001E088F858C0DFF81CE3DFF814A3BAF925
:102B200002A00AFB00FA44F620609AFBF0F0A0F243
:102B30001110DFF80483A8F85600BEF90480BF48DE
:102B4000B0F9000008FB00F84FF4FA6098FBF0F0D1
:102B5000DFF8EC92A9F800003088A0F5AA45FA3D0C
:102B600004D14FF4C87598FBF5F503E04FF4FA75FE
:102B700098FBF5F50FFA85FAA9F800A0BEF90A80CE
:102B800040F6B739A8F22135AE4E4D4501D231603D
:102B900001E0C6F800C0AC4DB5F9005005FB08F8DF
:102BA00044F6206E98FBFEF8A8F21118DFF89CE2BC
:102BB000AEF80080CB4501D2316001E0C6F800C01C
:102BC0005D4344F6206395FBF3F3A3F211139F4D8D
:102BD0002B809F4DDFF87C8295F8A032092B40D1E5
:102BE00095F8A63295F8A7C2DFF86C9203EB0C2398
:102BF000C9F8003095F8A8C295F8A9B20CEB0B2CD7
:102C0000C9F804C095F8AA9295F8ABB209EB0B2964
:102C1000DFF848B20FFA89F9ABF80090B9F1000F6C
:102C20001FD1A3EB0C0C814BB3F9003003FB0CF369
:102C3000A0F5A84CBCF5FD7C0DD0BCF1010C0AD070
:102C4000904208D0A04206D0B84204D0BCF10C0299
:102C500001D0143A03D14FF4FA6293FBF2F3A8F8CF
:102C60000030DFF8D4C1ACF802A0B8F90020ACF80D
:102C70000820DFF8EC81B8F80040DFF8E891B9F9F6
:102C8000003063434FF47A6E93FBFEF3764C9BB2B5
:102C90002380DFF8D8B1642B02D2ABF8003003E018
:102CA000734B1B88ABF80030B8F80280B9F90230DA
:102CB00003FB08F393FBFEF363806E4CB4F9003022
:102CC000DFF8B481B8F9009009FB03F941F27073A1
:102CD00099FBF3FBDFF8A491A9F800B0B4F902E086
:102CE000B8F902B00BFB0EFB9BFBF3FBA9F802B09B
:102CF000B4F904B0B8F9048008FB0BF898FBF3F8BA
:102D0000A9F80480B4F906B0DFF87481B8F900902E
:102D100009FB0BF999FBF3FBDFF86891A9F800B008
:102D2000B4F908E0B8F902B00BFB0EFB9BFBF3FB18
:102D3000A9F802B0B4F90A40B8F9048008FB04F815
:102D400098FBF3F3A9F80430404BDFF83CB15C8802
:102D500004F211140FFA84F8ABF800809B8803F298
:102D600011130FFA83F9ABF802907368DCB28BF899
:102D70000840B368DBB28BF80930444E04B913B194
:102D8000012C0AD00AE008EB090303EBD3736FF4BC
:102D9000887404EB630333801EE00BB12CB106E0B2
:102DA000A9F21119A6F8009016E0012B02D0012C0F
:102DB00005D011E0A8F21118A6F800800CE0012B54
:102DC0000AD1334B1B78052B03D2324B1B8833803F
:102DD00002E04FF0140333802F4B1C78552C04D1A4
:102DE000BAF1C80F01DD2D4CA2865B78552B09D1B5
:102DF000BCF94E30C82B05DDBCF95430934201DDDF
:102E0000264CA386B84205D0A0F5AC43073B01D0C1
:102E1000143B01D1214882864FF000032048B0F9CD
:102E200000406FE07AEE07208C030010CEC0072030
:102E300090030010786B0010F0EE07209A0300104A
:102E40004C0100107C0908209403001012020010AD
:102E5000CCF007204A01001018C1072076010010AD
:102E600018020010D4C007201E0200106A010010D2
:102E7000520100101E0A082010C107202402001071
:102E8000C60300102A020010D609082062010010B3
:102E9000630000106E010010E200001008C007205F
:102EA000D0000010C3EBC30000EB400005EB800036
:102EB000C678192E1CD28679C77906EB072646629A
:102EC000067A477A06EB07260662867AC77A06EB09
:102ED0000726C661067B8662467B80F85260867B49
:102EE00080F84260067C477C06EB0726C66406E055
:102EF000C16141620162816280F84210C16403F1E4
:102F00000103DBB2A342CDDB4FF00A0092FBF0F2EB
:102F1000BCF95430FB4E93FBF0F01044C0F10000BC
:102F200007B23780F84B19804FF0000012E0C0EB79
:102F3000C00202EB420205EB820292F803C0BCF130
:102F4000050F04D2526AB3F800C062441A8000F13F
:102F50000100C0B2A042EADB1888384400B23080D9
:102F6000002800DA3180318019804FF000000FE036
:102F7000C0EBC00202EB420205EB8202D778052FBC
:102F800003D2526A1F883A441A8000F10100C0B28D
:102F9000A042EDDB1A8801EB020000B2308000286D
:102FA00000DA3180D94C4FF00600A061D848B0F962
:102FB0000060002E65D04FF0000360E003F11400C4
:102FC000C0EBC00000EB400005EB8000C278192A7E
:102FD00039D28279C77902EB072703EB430204EB6E
:102FE0004212D761077A90F809C007EB0C27D76225
:102FF000877A90F80BC007EB0C279761077B176265
:10300000477B82F84670877B90F80FC007EB0C2750
:103010009762077C90F811C007EB0C2757629170FC
:10302000877C82F85970C77C82F85A70077D82F8D5
:103030005870477D82F85B70877D82F85C70C07D38
:1030400082F85D0018E003EB430004EB4010C1611F
:10305000C1628161016280F84610416281624FF075
:103060001902827080F8591080F85A1080F85810B0
:1030700080F85B1080F85C1003F10103DBB2B3420F
:103080009CDBBDE8FE8FA34AA3491078042801D039
:10309000012805D1507818B9A0480078552803D0E8
:1030A0009F4800880870704708780028FBD0A0F17E
:1030B0000100087070479B48416821F4402141F4A9
:1030C00080214160416821F4403141F48031416008
:1030D000416821F4404141F480414160416C21F458
:1030E000402141F400214164416C21F4403141F41C
:1030F00000314164416C21F4404141F4004141649C
:103100008948016821F0E0610160016841F4001123
:103110000160016821F480310160016821F47F4180
:1031200041F4807101604FF48071C1607F484FF4B9
:103130008001016070472DE9F0417D4C6088218855
:10314000401A00B203F02FFFA61D3080A0886188CE
:10315000401A00B203F027FF7080A0882188401A2F
:1031600000B203F020FFB0804FF49671A4F18A05FD
:10317000884202DAA088E8840CE0B6F902008842AE
:1031800002DA6088E88405E0B6F90000884201DAD6
:103190002088E884AF7800262FB36648B5F926105A
:1031A00002680A44026042680A44426082680A4433
:1031B0008260C2681144C160E98D01F1010109B268
:1031C000E985B1F5805F00DBEE85B5F92E108A0543
:1031D00031D14FEAA12150F821204FEA2222AA84BE
:1031E00040F8216027E05448EC782A7900EB8413FA
:1031F000B5F9261043F8221090070FD1014653F875
:1032000020C0614400F10100C0B21028F7D34FEA9A
:1032100021104849A1F1200121F81400641CE0B2FA
:10322000E870102807D3EE7002F10102D0B22871C5
:10323000102800D32E716E7007F1010707F001000E
:10324000A870394A30B1106820F0FF0000F1040086
:1032500010603DE0E978080706D4106820F0FF0010
:1032600000F10100106005E0106820F0FF0000F19F
:10327000020010603148036843F080530360036A22
:1032800043F080430362036E43F080630366CB0721
:103290000AD0436943F0805343618B0709D4436BE1
:1032A00023F08043436308E0436923F08053436184
:1032B000F3E7436B43F080434363490704D4416F12
:1032C00021F08061416703E0416F41F08061416717
:1032D000106840F080701060BDE8F081F0B5144CCB
:1032E0008A3CB4F91C0018B1A0F10100A083B0E041
:1032F0004FF00005E57228461249114BB1F9002044
:1033000035E000004E01001008C10720ECFD072049
:10331000D2000010D80100102A0000105200001046
:10332000F400001000C002400040034000E100E053
:1033300092C00720986B00107867001000C0092029
:10334000CCF00720D0000010C0EBC00101EB410120
:1033500003EB81018E78012E06D1C978142903D29E
:10336000E17A01F10101E17200F10100C0B2904285
:10337000EADBE67A022E6CD341F28830A0666566FD
:10338000E5664FF0000117E0C1EBC10000EB400023
:1033900003EB80008778012F0BD1406A676EB8423B
:1033A00000DD6066A76EB84200DAA066E76E3844BA
:1033B000E06601F10101C9B29142E5DBE06E90FBEC
:1033C000F6F62667A06E012100B9A166606E4FF087
:1033D000640700FB07F0A76E90FBF7F06067A0287A
:1033E00000DDA172782800DAA572A07A012830D118
:1033F0004FF000016FF0310429E0C1EBC10000EB98
:10340000400003EB80008578012D1DD1456AB5424F
:1034100005DDB0F85050A5F10105A0F8505005DACF
:10342000B0F8505005F10105A0F85050B0F95050D7
:10343000A54201DAA0F85040B0F95050322D03DD1A
:103440004FF03205A0F8505001F10101C9B291428C
:10345000D3DB00BFF0BD2DE9F041FF480168FF4A12
:1034600001EA02010160FE4C216841F47C71216097
:10347000C16921F44021C161216E41F000712166D2
:10348000416821F040614160206840F000502060B8
:10349000F548F44DF6490278F44895F83C30B1F916
:1034A00000100078134307D030B1052904DDA3696B
:1034B00043F48073A36103E0E36943F48073E36141
:1034C00095F88830134307D030B1052904DDA06991
:1034D00040F04000A06103E0E06940F04000E0619E
:1034E000D220FCF78BFEE34D70B16868012801D053
:1034F00028B10DE0A06940F00050A06108E0E0694B
:1035000040F00050E06103E0E06940F00050E0610D
:10351000D220FCF773FED84E10B1286866283AD046
:103520003068C00743D0E06F40F00070E067D348D8
:10353000D34F0088A0F5AA41FA3901D0491E74D1B1
:10354000D220FCF75BFE10B12868662834D03068C2
:10355000C0073DD0E06F40F00070E067D220FCF77C
:103560004DFE10B128686A2837D0306810F4FF6F1C
:1035700042D0A06940F08000A061D220FCF73EFE5E
:1035800010B1286867283CD0387878B3A06940F03B
:103590001000A061A0E6686820B1E06F40F0007004
:1035A000E067C4E7A06F40F00070A067BFE7A06FBE
:1035B00040F00070A067BAE7686820B1E06F40F0A3
:1035C0000070E067CAE7A06F40F00070A067C5E731
:1035D000A06F40F00070A067C0E7686838B10128AC
:1035E000CBD1A06940F08000A061C6E717E0E06998
:1035F00040F08000E061C0E7E06940F08000E061F9
:10360000BBE7686830B10128C4D1A06940F0100060
:10361000A06161E6E06940F01000E0615CE6E0690D
:1036200040F01000E06157E6FFE7A0F5AC41073934
:1036300062D1D220FCF7E2FD10B12868672823D0C0
:10364000387878B3A06940F01000A061D220FCF770
:10365000D5FD10B1286866282AD03068C00733D05D
:10366000E06F40F00070E067D220FCF7C7FD10B1BA
:1036700028686A282DD0306810F4FF6F37D0A06911
:1036800040F08000A06127E6686830B10128DDD1F4
:10369000A06940F01000A061D8E7E06940F0100098
:1036A000E061D3E7FFE7E06940F01000E061CDE7BB
:1036B000686820B1A06940F00070A061D4E7E069BB
:1036C00040F00070E061CFE7E06B40F00070E06335
:1036D000CAE7686830B101289BD1A06940F080003A
:1036E000A061F9E5E06940F08000E061F4E5E0699F
:1036F00040F08000E061EFE5A0F5AC411B3971D1ED
:10370000D220FCF77BFD10B12868672833D03878C9
:1037100080B3A06940F01000A061D220FCF76EFDDC
:1037200010B12868662839D03068C00742D0E06FF1
:1037300040F00070E067D220FCF760FD10B128680F
:103740006A283CD0306810F4FF6F46D0A06940F082
:103750008000A061D220FCF751FD10B128686A28D2
:1037600041D0306810F4FF6F4BD0A06940F02000CA
:10377000A061B1E50DE0686830B10128CDD1A06944
:1037800040F01000A061C8E7E06940F01000E0617F
:10379000C3E7E06940F01000E061BEE7686820B16F
:1037A000A06940F00070A061C5E7E06940F00070DA
:1037B000E061C0E7E06B40F00070E063BBE7686881
:1037C00030B10128C6D1A06940F08000A061C1E7F6
:1037D000E06940F08000E061BCE7E06940F0800013
:1037E000E061B7E712E0686830B10128C1D1A06993
:1037F00040F02000A0616FE5E06940F02000E0614A
:103800006AE5E06940F02000E06165E5A0F5AC41C3
:1038100011397AD1D220FCF7F1FC10B12868662862
:103820003AD03068C00743D0E06F40F00070E067E6
:10383000D220FCF7E3FC10B128686A283DD030683C
:1038400010F4FF6F47D0A06940F08000A061D22043
:10385000FCF7D4FCC8B115E000C00240FF00F0FF47
:1038600000C00920F0EE0720C7C007202D0000107F
:103870006A0000100C000010B0C00720E400001027
:1038800030000010286867282AD0387888B3A069EB
:1038900040F01000A0611FE5686820B1E06F40F0C3
:1038A0000070E067C4E7A06F40F00070A067BFE75A
:1038B000A06F40F00070A067BAE7686830B10128D7
:1038C000C5D1A06940F08000A061C0E7E06940F088
:1038D0008000E061BBE7E06940F08000E061B6E7AE
:1038E000686840B1012886D1A06940F01000A0614D
:1038F000F2E405E009E0E06940F01000E061EBE48B
:10390000E06940F01000E061E6E4D220FCF776FCCC
:1039100010B12868662816D03068C0071FD0E06F45
:1039200040F00070E067D220FCF768FC10B1286816
:103930006A2819D0306810F4FF6F23D0A06940F0D6
:103940002000A061C8E4686820B1A06940F0007060
:10395000A061E8E7E06940F00070E061E3E7E06B58
:1039600040F00070E063DEE7686830B1012892D172
:10397000A06940F02000A061AEE4E06940F02000C2
:10398000E061A9E4E06940F02000E061A4E42DE9F1
:10399000F05FFF4E4FF0010A4FF00008707C0A28DC
:1039A00009D200F10100C0B270740A2803D386F86E
:1039B000118086F812A0A6F84280A6F84480CD2097
:1039C000FCF71CFCF34FDFF8D0B3A0B3F34A4FF67B
:1039D000FF711068CE2801D1A6F84410CF2802D17B
:1039E0005368A6F84430D12802D15368A6F8423073
:1039F000D22801D1A6F84210D02806D15068A6F8E6
:103A000042006FEA0000A6F844004FF0000437E0DF
:103A1000B6F844000AFA04F919EA000F0CD0C4EB16
:103A2000C40000EB400007EB800030F8401F01F1BC
:103A30000101018008E028E0C4EBC40000EB400075
:103A400007EB8000A0F84080C4EBC40000EB40000E
:103A500007EB800505F1400032220021FCF726FC2F
:103A6000B5F94000142801DD85F82CA0B6F8420015
:103A700019EA000F01D085F82C8004F10104E4B2AA
:103A8000BBF900008442C3DD47E0B07CB8B34FF01F
:103A900000010846BBF900200AE0C0EBC00303EBBD
:103AA000430307EB830383F82CA000F10100C0B2AD
:103AB0009042F2DD4FF00000B94BB3F9005012E034
:103AC000C0EBC00303EB430307EB83039C78022C9A
:103AD00001D0012C04D183F82C8001F10101C9B27D
:103AE00000F10100C0B2904201DAA942E8DBAD4822
:103AF000B0F900003C2810DA4FF000000BE00CE0B9
:103B0000C0EBC00101EB410107EB810181F82C8082
:103B100000F10100C0B29042F2DD4FF000004FF022
:103B20006304BBF900300FE0C0EBC00101EB4101C1
:103B300007EB8101CA6B22B181F82C40A2F101028E
:103B4000CA6300F10100C0B29842EDDB86F8128032
:103B500086F80E804FF000000FE0C0EBC00101EBD3
:103B6000410107EB81018978012903D1B17B01F182
:103B70000101B17300F10100C0B29842EDDBBDE874
:103B8000F09F2DE9F0410646C6EBC600814900EBE7
:103B9000400011F82020032A77D101EB800494F82B
:103BA0004250A80717D5B4F946104FF496629142D7
:103BB00022DA01F1010108B2A4F8460090421BDBB1
:103BC000A4F846206078C00716D1012200213046B3
:103BD00002F0B7F810E0B4F9461069B1A1F10101A3
:103BE00008B2A4F8460038B96078C00704D00022B3
:103BF0001146304602F0A5F829074FF00A074FF0AA
:103C0000000015D5B4F948100A2926DA01F101019E
:103C100008B2A4F848000A281FDBA4F848706078AE
:103C200080071AD401221146304602F08AF814E0C7
:103C3000B4F9481000290DDDA1F1010108B2A4F882
:103C4000480050B94FF000024FF00101304602F039
:103C500078F802E001DAA4F84800E80616D5B4F9CD
:103C60004A100A2920DA01F1010108B2A4F84A0039
:103C70000A2819DBA4F84A706078400714D401229E
:103C80000221304602F05DF80EE046E0B4F94A0049
:103C900050B1A0F1010000B2A4F84A0020B90022FE
:103CA0000221304602F04DF86078000703D04FF053
:103CB0000400A07017E03C48007830B1E078142888
:103CC00003D94FF00500A0700DE094F84200800683
:103CD00003D54FF00200A07005E0E078142802D26E
:103CE0004FF00100A070E0780A2806D394F82C0069
:103CF00040F0800084F82C0005E094F82C0000F0DF
:103D00007F0084F82C002249B4F95000B1F9181052
:103D1000084420634FF47A7060633BE470B54FF061
:103D200000002249224D4FF00104B1F90C20034656
:103D300004FA00F10A4201D02C5400E02B5400F1A7
:103D40000100C0B20C28F3D31A4E28781A4C3178EF
:103D500081420BD0B4F90010012907DB01287ED085
:103D6000002301220B2115A030F070FA71786878D9
:103D700081420BD0B4F90010022907DB01286FD073
:103D8000002302220B2112A030F060FAB17829E062
:103D900008C00720CCF00720D00000100C00001055
:103DA000C00300106A000010570000101E0A08200F
:103DB000F40908205A6C0010DA0000104176746F84
:103DC0006D6174202331206973204F464600000046
:103DD0004176746F6D6174202332206973204F46E1
:103DE00046000000A87881420BD0B4F900100329E6
:103DF00007DB012872D0002303220B21FCA030F046
:103E000025FAF178E87881420BD0B4F90010042942
:103E100007DB012879D0002304220B21F9A030F020
:103E200015FA3179287981420BD0B4F900100529AF
:103E300007DB012871D0002305220B21F6A030F00A
:103E400005FA7179687981420ED0B4F9001006291B
:103E50000ADB012868D0002306220B2101E03EE0A6
:103E600044E0F2A030F0F2F9B179A87981420BD0A8
:103E7000B4F90010072907DB01285CD000230722D2
:103E80000B21EFA030F0E2F9F179E87981420BD013
:103E9000B4F90010082907DB012853D000230822B9
:103EA0000B21ECA030F0D2F9317A287A81420BD084
:103EB000B4F90010092907DB01284AD000230922A0
:103EC0000B21E9A030F0C2F94FF00000295C315419
:103ED00000F10100C0B20C28F8D370BD0EE0012340
:103EE0001A460B21E5A030F0B1F93FE70123022289
:103EF0000B21E7A030F0AAF948E706E001230322EE
:103F00000B21E8A030F0A2F97BE7012304220B216A
:103F1000E9A030F09BF984E7FFE7012305220B219C
:103F2000EAA030F093F98CE7012306220B21ECA0E4
:103F300030F08CF998E7012307220B21EDA030F037
:103F400085F9A1E7012308220B21EFA030F07EF9CB
:103F5000AAE7012309220B21F0A030F077F9B3E79B
:103F600070B5C820FCF74AF9F1490022A8B3F14B1B
:103F700001241868C9281CD0CA282FD0104600EB8D
:103F8000400303EB001301F8232000F10100C0B24D
:103F90000228F4D34FF0000000EB400303EB0013C2
:103FA00011F82350142D39D901EB830383F83C40D9
:103FB00038E04FF0000000EB400303EB001511F870
:103FC0002530322B03D203F1010301F8253000F133
:103FD0000100C0B20228EED3DCE729E04FF0000078
:103FE0005E6804FA00F31E420CD000EB400303EBC2
:103FF000001511F82530322B0AD203F1010301F824
:10400000253005E000EB400303EB001301F823200B
:1040100000F10100C0B20228E3D3BBE701EB830348
:1040200083F83C2000F10100C0B20228B4D354E769
:104030004FF0000000EB400303EB001301F82320D6
:1040400001EB830383F83C2000F10100C0B2022899
:10405000F0D342E72DE9F041B74DB848B84CB5F977
:104060000010B0F90020B4F90000914203DD00F126
:104070000100208003E002DAA0F101002080062286
:104080000021AF48FCF712F9B4F90000AD49012650
:10409000052800DD0E700024012800DA0C70AA4902
:1040A000B5F90000A94AB1F90010A94F8B1E98423A
:1040B0000FDA92F900101E291EDA01F1010149B24E
:1040C00011701E2918DB3988A1F1010139801470A3
:1040D00012E088420FDD92F900101E290CDA01F17E
:1040E000010149B211701E2906DB398801F1010175
:1040F0003980147000E014709649B1F900108842BC
:1041000005DD142200219248FCF7D0F807E0924820
:1041100000210088093002B28D48FCF7C7F8F02072
:10412000FCF76CF828B183480168F12901D1406897
:104130003880B7F900108948012901DC067000E0D9
:1041400004708748DFF81C82B0F90000A0F132014A
:10415000282921D8B5F90010834F814203DD388822
:1041600000F1010038808148B0F90000814203DA93
:104170003888A0F101003880062200217A48FCF737
:1041800095F8B7F90000052801DD88F800600128DE
:1041900004DA88F8004001E088F800407448754F60
:1041A000B0F90000A0F132011E291FD8B5F90010A6
:1041B000714D814203DD288800F1010028806F489D
:1041C000B0F90000814203DA2888A0F101002880BC
:1041D000062200216848FCF769F8B5F900000528B7
:1041E00000DD3E70012800DA3C7096E5C8E0000072
:1041F0004176746F6D6174202333206973204F46BC
:10420000460000004176746F6D617420233420698C
:1042100073204F46460000004176746F6D61742034
:104220002335206973204F46460000004176746FA5
:104230006D6174202336206973204F4646000000CC
:104240004176746F6D6174202337206973204F4667
:10425000460000004176746F6D6174202338206938
:1042600073204F46460000004176746F6D617420E4
:104270002339206973204F46460000004176746F51
:104280006D6174202331206973204F4E200000009F
:104290004176746F6D6174202332206973204F4E14
:1042A000200000004176746F6D6174202333206913
:1042B00073204F4E200000004176746F6D617420B2
:1042C0002334206973204F4E200000004176746F24
:1042D0006D6174202335206973204F4E200000004B
:1042E0004176746F6D6174202336206973204F4EC0
:1042F000200000004176746F6D61742023372069BF
:1043000073204F4E200000004176746F6D61742061
:104310002338206973204F4E200000004176746FCF
:104320006D6174202339206973204F4E20000000F6
:10433000F0EE07200C00001062010010AE0000102B
:10434000CC030010C8C00720B0000010C6C0072072
:1043500072010010B20000106C0100108403001004
:10436000B8000010C7C0072016C10720BA0000100F
:10437000B400001085030010CE030010B60000103A
:104380003C70CAE42DE9FC5F0546FF4931F9150090
:1043900018B1A0F1010021F81500FB4A121D32F9F5
:1043A000150018B1A0F1010022F8150005EB450039
:1043B00000EB0513F5484FF0640B00EB8304F44B5E
:1043C000B4F90800B3F90030984201DD21F815B0C6
:1043D000002801DA22F815B0EB4831F815307838AA
:1043E00000274BB132F8153033B1B0F85A30A3B1D1
:1043F00040F6B831A0F85810A0F8587094F83E0074
:10440000401CC0B284F83E000A2801D384F83E70F4
:10441000E04E3088322809D017E04FF41673A0F828
:104420005A3021F8157022F81570E5E794F83C0031
:1044300058B9B4F90200502807DA94F83D00C007D3
:1044400003D10121284602F013F9B6F90000D24E3B
:10445000C8280FDDB4F90800FBF752FFB6F90010C9
:10446000884207DD94F83D00C00703D000212846AC
:1044700002F0FEF8C848B4F90810B0F90000404254
:10448000814214DD607B0A280DD200F10100C0B228
:1044900060730A2871D3A07B00286ED0A7732846CA
:1044A00001F011FF69E04FF00A00607365E064DA23
:1044B000607BF0B3A0F10100C0B26073C8BBA07B09
:1044C000B8BB4FF00100A073B448008800F10100B0
:1044D00000F0070004EB4000008C0090B04EB08B61
:1044E00001904FF063024FF0010101A8FBF7D3FEEA
:1044F00004F11C049DF804002076307E01904FF0FA
:104500000C024FF0010101A8FBF7C5FE9DF8040065
:104510006076307B01901F22012101A8FBF7BBFED2
:104520009DF80400A0769DF80000E076307A0190B6
:1045300000E022E01722002101A8FBF7ACFE9DF865
:1045400004002077307901903B22002101A8FBF77D
:10455000A2FE9DF804006077307801903B22002194
:1045600001A8FBF798FE9DF80400A0779DF80100D4
:10457000E07727806780A4F11C0448F6A04894F8EF
:104580003E0000287ED1B4F90810606908446061DB
:10459000DFF81092DFF810A240452ADB3AF9151037
:1045A000A1F5AA40553803D1804830F8156001E0E4
:1045B0003AF8156039F8150031F0D0FB80B2B042FE
:1045C0000ED26169A1F50041A1F54A61616139F935
:1045D000152000F1010001B2104631F0BDFC33E0BE
:1045E00032D939F9150031B231F0B6FCC4F8148073
:1045F0002AE06F49884227DC3AF91510A1F5AA4054
:10460000553803D1694830F8156001E03AF8156073
:1046100039F8150031F0A2FB80B2B04205D939F962
:10462000150031B231F098FC304658B1616941440F
:10463000616139F91520A0F1010001B2104631F095
:104640008BFC01E05A48606139F8150031F086FBB7
:1046500001463AF91500A0F5AA42553A02D153484D
:1046600030F915004FF47A7201FB02F168B1B1FB29
:10467000F0F04FF00A01B0FBF1F020824D480088C5
:10468000012800E011E003D009E04FF00000F0E75E
:10469000494905EB850001EBC000408A208204F106
:1046A000100064220021FBF701FEA07B012813D13A
:1046B000A08B40450FD2B4F90800FBF721FEA18B77
:1046C000084480B2A083404506D3A783E08B00F165
:1046D0000100E08300E0A7833849B4F90A00B1F98A
:1046E0000010884201DD207BE8B3B4F84000A0F15F
:1046F0000100A4F840004FF4167904F140004A4646
:104700000021FBF7D3FDB4F9400040F24E26B04241
:1047100005DB94F83F1041F0010184F83F100A28AE
:1047200005DC94F83F0020F0010084F83F002449A4
:10473000B4F90A00B1F90010884201DD207B10B302
:10474000B4F84200A0F10100A4F8420004F14200D4
:104750004A460021FBF7AAFDB4F94200B04207DB4C
:1047600094F83F1000E040E041F0020184F83F106F
:104770000A2805DC94F83F0020F0020084F83F008E
:10478000606C40451EE037E080C00720F0EE072057
:1047900096000010680000108E0000104801001004
:1047A0002040024026C10300C0010010B8010010E3
:1047B0006073FFFFCC0000107CF00720A800001001
:1047C000A60000101FDA00F10100606440451BDB09
:1047D0006764FF4E36F8150031F0C0FA401C01B294
:1047E00036F9150031F0B8FB0EE0B4F8400000F1E6
:1047F0000100A4F840007EE7B4F8420000F1010097
:10480000A4F84200A2E76764F24E308800285ED028
:10481000F148B0F90000484508DAB4F902004FEA5F
:10482000E07100EB91704FEAA00006E0B4F90200DD
:104830004FF0050190FBF1F000B24FEA4000A18873
:10484000A0EB010000B2FBF75BFD00EB80004FEA3C
:10485000400000B24FF00C0190FBF1F000B2E0809C
:10486000B6F90010884234DDB4F90800FBF748FDC2
:104870000146DA48B0F9000000EB8000814228DAF6
:10488000D7487321B0F90000484390FBFBF0B4F91E
:10489000021000B288421CDA94F83D00800718D458
:1048A000B4F8480000F1010000B2A4F84800A0F5F7
:1048B0003061B83903D10121284602F03DF8B4F93E
:1048C000481040F6BD30814201DBA4F84800BDE845
:1048D000FC9FA4F84870FAE738B5C248C24C00887B
:1048E00038B1C248006840B14FF01400ADF8000084
:1048F00007E0B948008820802AE0BD480088ADF86C
:104900000000BC4ABDF900101160BB480029B0F995
:10491000000015DB282902DD4FF028011160B7499E
:10492000B1F90010A1EB000101EB81014FEA410157
:10493000126801FB02F14FF0C80291FBF2F108444A
:10494000AF49C97C022902D1AE48B0F900002080ED
:10495000AD48008810B1AD4800882080BE20FBF72C
:104960004DFC28B1AA480168BF2901D140682080C8
:10497000B4F900004FF0620100FB01F14FF0640256
:1049800091FBF2F1A34B19804FF0660100FB01F09F
:1049900090FBF2F0A049088038BD2DE9F041984C19
:1049A000B4F9220010B1A0F1010060849B489C4D35
:1049B000008828809B4F0A26B7F90800002806DAED
:1049C000FBF79EFC90FBF6F0298808442880B7F995
:1049D0005400002806DAFBF793FC90FBF6F02988D8
:1049E000084428809048B5F90010B0F9000091FB08
:1049F000F0F000F10100C0B2E0738C4AB2F900207F
:104A000091FBF2F101F10101C9B22174884B4FF021
:104A10003C05B3F90020904202DD1880658405E072
:104A2000914203DA608C08B9198065848148018855
:104A3000814809B101881980B0F90020BDE8F04132
:104A400001217B48FBF732BC2DE9F05F7B486C4CC1
:104A5000B0F90010E1866C48008810B178480088F1
:104A6000E086B4F9580018B1A0F10100A4F858008C
:104A7000B4F95A0018B1A0F10100A4F85A0069482D
:104A80004FF00A0590F83F20920703D190F88B0071
:104A9000800702D091FBF5F0E086A079002601277F
:104AA0000A2807D200F10100C0B2A0710A2801D380
:104AB000A671E771E120FBF7A1FBDFF888C14A4B43
:104AC000DFF8848140F2F23B78B3514908686428EA
:104AD00008D069280BD06E280FD0E52822D0E62810
:104AE00024D07AE14868618B0844208375E14868E6
:104AF000618BA1EB000020836FE1208BA0F101000E
:104B000000B220831E2806DD3549BCF90000B1F94A
:104B100000108842E5DA0A230022E721E620FBF7AD
:104B20002EFB5AE14868208357E136E0BCF90000CB
:104B3000B3F90010884216DDA0EB01000A2807DD5A
:104B4000B4F91800002803DDA0F10500208344E13A
:104B5000B4F91800002805D0E179002902D0A0F1AD
:104B60000100208339E10BDA081A0A2809DDB4F9BB
:104B7000180040F2F731884203DA00F10500208383
:104B80002BE1B4F91800B0F57F7F05DAE17900294F
:104B900002D000F1010020831FE1E07900286FD0EE
:104BA0002A48008818B198F8A302282868D9B4F9CF
:104BB0001A006086B4F93410E28E91FBF5F9B9EB76
:104BC000420F4DDDB4F8581001B141E044E000005F
:104BD00042C10300AA000010980000108E000010CF
:104BE00088000010C6000010640100107C09082035
:104BF0001202001004C107207E0000108000001087
:104C000008C0072090000010940100108C010010D3
:104C10000C00001000C10720BE03001008C10720CF
:104C2000C2030010F0EE0720920000109400001064
:104C3000C0030010A4000010D00000109600001067
:104C40008A0100104C010010CCF007207601001002
:104C5000A0F101006086B8E0A0F10A006086B4E02F
:104C60000FDAC2EB021A8A450BDAB4F8581019B100
:104C7000A0F101006086A8E0A0F103006086A4E036
:104C8000ABE0C2EB021A8A4505DD914503DDA0F1D8
:104C90000100608699E0BCF900C0B3F90030DFF88C
:104CA0002495DFF824A59C4563DAB9F90090BAF998
:104CB00000A0A9EB0A09A3EB090AE24527DD0029B8
:104CC0000ADAB4F8581019B100F1010060867CE0EE
:104CD00000F10A00608678E002EB82038B420ADD75
:104CE000B4F8581019B100F1010060866DE000F1D0
:104CF0000200608669E0C2EB421303EB8212B2FB52
:104D0000F5F28A4261DD00F1010060865DE04FEA64
:104D1000E97A09EB9A79A3EBA909E1451ADD02EBDF
:104D200082038B420ADDB4F8581019B100F101007A
:104D300060864AE000F10200608646E0C2EB421362
:104D400003EB8212B2FBF5F28A423EDD00F1010074
:104D500060863AE05B1E9C4537DAC2EB421303EBF8
:104D60008212B2FBF5F28A422FDD00F1010060866B
:104D70002BE02ADDB9F90010BAF90020891ACA1807
:104D800062450ADAB4F8581019B1A0F10100608642
:104D90001BE0A0F10A00608617E0CA1701EB9271D0
:104DA00003EBA10161450ADAB4F8581019B1A0F17A
:104DB0000100608609E0A0F10200608605E05B1C4E
:104DC0009C4502DDA0F1010060865A460A21FF4899
:104DD000FBF76CFA608E6083208366722672FC4853
:104DE000B0F900200CE0C0EBC00101EB410108EB81
:104DF0008101C9781E2900D2677200F1010020727A
:104E0000207A9042EFDB607A20B94FF4167020834D
:104E100060836086ED485A460A211A38FBF746FA45
:104E2000E671BDE8F09F2DE9F05F4FF00000EB4A1E
:104E3000E84BE94D4FF0010A4FF00A0B0646B2F974
:104E4000004025E0E649E74F095C37F91110B1F55C
:104E5000FA6F0EDA19560A2908DA01F1010149B28E
:104E600019540A2911DB05F800A00EE003F800B080
:104E70000BE01956002907DBA1F1010149B21954D1
:104E8000002902DC2E5400E01E5400F10100C0B2E3
:104E9000A042D7DB4FF00004DFF84C93D34FDFF88C
:104EA000508383E0D34830F9140010B9295D0129FB
:104EB0000FD008B1285D60B119F90400002819DB92
:104EC000A0F1010040B209F80400002814DC3E55AE
:104ED00012E019F904000A2809DA00F1010040B2D1
:104EE00009F804000A2807DB07F804A004E009F821
:104EF00004B001E009F8046018F80410385D81423C
:104F00004ED0B24A323A118E01F1010111860128C8
:104F100007D054B3012C2FD0022C34D0032C39D01D
:104F20003EE034B1012C0BD0022C10D0032C15D054
:104F300036E001231A460F21AFA02FF087F92FE0AA
:104F4000012302220F21AFA02FF080F928E00123D6
:104F500003220F21AEA02FF079F921E001230422D2
:104F60000F21AEA02FF072F91AE0002301220F21C9
:104F7000ADA02FF06BF913E0002302220F21AFA0A8
:104F80002FF064F90CE0002303220F21B0A02FF0D2
:104F90005DF905E0002304220F21B2A02FF056F99D
:104FA000385D08F8040004F10104E4B28B48B0F95C
:104FB00000008442FFF676AF33E7AF4A4FF00100BE
:104FC0001070AE4908705070487070472DE9F05F5E
:104FD000AC48DFF8B492DFF8A882B0F900C0B9F9A4
:104FE00000007A4CC0EB0011323CB8F902706FF04F
:104FF0001D0A6FF0950B00259F4EB4F93A000AEB9D
:1050000081020BEB8103674505DCDFF880C2BCF948
:1050100000C0674504DA824202DD834200DA35705F
:105020009B4FB8F908C0B7F900E0944FBCEB4E0FA6
:1050300004DCCEF1000EBCEB4E0F04DA824202DD3E
:10504000834200DA3D706FF0090202EB8101814278
:1050500020D1E07CF0B9307801281BD138780128C4
:1050600018D14FF4D67030F079FE8A49B1F90010AA
:1050700088420FD08848008860B198F83D00C0078A
:1050800008D14FF4D67030F067FF8448017801F101
:10509000010101707B48B8F90210B0F900008142AB
:1050A00006DC7A48B8F94E10B0F9000081420EDAF9
:1050B000B9F90000B4F93A10C0EB00100AEB800215
:1050C0008A4204DD0BEB8000884200DA757070497B
:1050D000B8F95400B1F90010B0EB410F03DC4942BC
:1050E000B0EB410F0EDAB9F90000B4F93A10C0EB99
:1050F00000100AEB80028A4204DD0BEB800088423C
:1051000000DA7D70B9F90000C0EB00116FF0090002
:1051100000EB8100B4F93A10884221D1E07CF8B963
:10512000707801281CD17878012819D14FF4E575E1
:10513000284630F013FE5749B1F9021088420FD0CB
:105140005548008802280BD198F88900C00707D17C
:10515000284630F001FF5148017801F1010101704A
:10516000B9F900006FF00101C0EB001001EB800005
:10517000B4F93A10884202D1BDE8F05F1DE750E66D
:105180002DE9F0034648474F474E00784FF0000C9A
:105190004FF00108A8B145483946B0F900504448DD
:1051A000B1F90010B0F900904248B0F9002042482F
:1051B000B0F900304148B0F900404148B0F9000072
:1051C00080E0AAE07E000010800000103AC00720B6
:1051D000D0000010B50300109D010010D600001093
:1051E00022C10300786B0010FCC00720A101001051
:1051F000B903001030020010534B20233120416CC2
:1052000061726D00534B20233220416C61726D003E
:10521000534B20233320416C61726D00534B20238C
:105220003420416C61726D00534B20233120416C5E
:1052300061726D206973206F66660000534B2023F6
:105240003220416C61726D206973206F66660000C8
:10525000534B20233320416C61726D206973206FA2
:1052600066660000534B20233420416C61726D2030
:105270006973206F666600000AC10720C40300102E
:10528000F0EE0720BE0300109E00001000C10720B2
:105290008E000010C0010010CE0000100CC10720CD
:1052A0004D00001020C10720860300104C010010A3
:1052B000C2000010540100105601001058010010E7
:1052C0008A0000104D4513DA824203DB834201DB82
:1052D00084420DDAFF48B0F90020914221DA01F151
:1052E000010108B2388090421BD186F800C018E056
:1052F000DFF8E4C3BCF900C0654512DD824210DD71
:1053000083420EDD84420CDD59B1A1F1010108B2E6
:10531000388030B986F8008003E0A7F800C086F82E
:1053200000803078002807D1BDE8F0030F23012268
:105330006E21D220FAF723BFBDE8F0037047F8B51D
:10534000E64EE74F0024308898B1E64A116801F133
:1053500001011160E448B0F90000C0EB4013C3EB59
:105360000020B1EB001F00DB3480388808B13480A6
:105370001460DE480125008800B33088F0B9DC48AD
:10538000DC49B0F90000B1F90010884216DA081AB9
:10539000D949B1F90010884210DDD8480A21B0F986
:1053A000000090FBF1F0D6490988401A00B2FAF7E4
:1053B000A7FF052802DA388800B93580B7F9000060
:1053C000D04B012803D0022801D01C8026E01C808D
:1053D000CD4ECE494FF4FA62012802D002280FD0F8
:1053E0001CE0B6F9000018B9B1F91660964205DC68
:1053F000012813D1B1F9160090420FDA1D800DE09B
:10540000B6F9000018B9B1F91A60964205DC012816
:1054100004D1B1F91A00904200DA1D801888BC4905
:10542000012801D00C70F8BD087800F10100C0B26D
:1054300008701E28F7D30C7041F288300090B5A395
:10544000BAA2C0A1C5A0FCF711FBF8BDA34800217A
:1054500002880AB1018070474FF001020280A14822
:10546000016070472DE9F04F87B0C248C24CC34974
:10547000C34A007894F90030B1F90010B2F9002065
:1054800048B102283CD001287ED04FF001002070A6
:1054900007B0BDE8F08FBB4FDFF8EC82B7F90A0028
:1054A0003D7BB7F9566098F800C097F8587098F8A7
:1054B00001802BB1012BEBD1BCF1550F15D110E0C0
:1054C000BCF1550F02D1884207DC35B9B8F1550F50
:1054D000DED18E4201DC002FDAD04FF001002070C7
:1054E000D6E79042D4DA002DD2D1B8F1550F03D1CE
:1054F0009642CDDA002FCBD14FF000002070C7E7E5
:10550000A34EA248B56AB0F90000F67818B18D42F2
:105510007ADC1E2E78D2DFF878C20128DCF87C70A5
:105520009CF857C0CDF818C006DD8F426CDCDDF862
:1055300018C0BCF11E0F67D2DFF854C20228DCF895
:10554000D080CDF814809CF8ABC0CDF810C008DD39
:10555000DDF814C08C4557DCDDF810C0BCF11E0F1F
:1055600052D2DFF82CC20328DCF82481CDF80C805D
:105570009CF8FFC0CDF808C00ADDDDF80CC08C45F2
:1055800042DCDDF808C000E080E0BCF11E0F3BD239
:10559000DFF8FC810428D8F878C198F85381CDF859
:1055A000048006DD8C452FDCDDF80480B8F11E0F89
:1055B0002AD2DFF8DC910528D9F8CC8199F8A79197
:1055C000CDF8009006DD88451EDCDDF80090B9F1CD
:1055D0001E0F19D2DFF8B8A106289AF8FBE1DAF815
:1055E000209204DD89450FDCBEF11E0F0CD2DFF8DE
:1055F000A0B10728DBF874A29BF84FB208DD8A45FA
:1056000002DCBBF11E0F03D34FF0010020703FE717
:10561000012BFCD118B19542F9DA0A2EF7D20228F3
:1056200004DB9742F3DA06990A29F0D2032805DB56
:1056300005999142EBDA04990A29E8D2042805DB9E
:1056400003999142E3DA02990A29E0D2052804DBA2
:105650009445DCDA01990A29D9D2062804DB904561
:10566000D5DA00990A29D2D2072804DB9145CEDA8F
:10567000BEF10A0FCBD2082804DB9245C7DABBF192
:105680000A0FC4D24FF00000207001E74148424D9C
:10569000424EB0F90000B5F90050366810B18D42A5
:1056A00017DCB6B93C4FDFF8F4C00128B7F9027037
:1056B000DCF804C004DD8F4279DCBCF1000F76D148
:1056C000DFF8D480DFF8D490B8F90480D9F80890D6
:1056D00066E06CE0C0000010C400001094010010EF
:1056E00096010010D80300108E01001090010010E8
:1056F0004C01001064010010920100104A010010DA
:105700009600001024C1072098010010786B00104B
:10571000DC0300102020202020202020202020201A
:1057200020202020202020200000000020202020F9
:1057300020C7C0CFD0C5D9C5CD2121212020202010
:105740000000000020202020202020C7C0D0DFC47F
:1057500020202020202020200000000020202020C9
:1057600020D3D1CACED0C5CDCDDBC920202020206A
:10577000000000004C00001008C00720BC00001012
:10578000BE000010F0EE0720E2000010D000001074
:10579000CCF00720D4000010120200107C09082071
:1057A000022808DD884502DCB9F1000F03D04FF074
:1057B000010020706CE6012BFCD118B19542F9DA9A
:1057C000002EF7D1022804DB9742F3DABCF1000F78
:1057D000F0D1032804DB9045ECDAB9F1000FE9D1F0
:1057E0004FF00000207053E630B5FF48FF4B0178C2
:1057F000186819B140F00100186002E020F00100C3
:1058000018604FF00000FA4D4FF0010400EB40012A
:1058100001EB001105EB810191F83D10C9070AD099
:1058200000F1010204FA02F11A6822EA010242EAD6
:1058300001021A6007E000F101011A6804FA01F19F
:1058400022EA01021A6000F10100C0B20228DDD391
:105850004FF00000E74DC0EBC00202EB420105EB48
:105860008101497851B100F1030104FA01F219688C
:1058700021EA020141EA0201196007E000F1030197
:1058800004FA01F2196821EA0201196000F101002D
:10589000C0B20C28DFD34FF00000D44D05F1140541
:1058A000295C51B100F10F0104FA01F2196821EAF3
:1058B000020141EA0201196007E000F10F0104FA58
:1058C00001F2196821EA0201196000F10100C0B279
:1058D0000628E5D34FF00000C74D295C012936D0DA
:1058E00000F1190104FA01F2196821EA02011960B4
:1058F00000F10100C0B20428EFD39C68186820EAC8
:105900000401D9605A6842EA01025A60BB490D8815
:1059100015B122F000725A604A881AB15A6822F012
:1059200080625A608A881AB15A6822F000625A600E
:10593000C98819B1596821F08051596024EA0004DE
:105940006FEA04011961AE4A12885AB10DE000F104
:10595000190104FA01F2196821EA020141EA02017F
:105960001960C5E761F0010119611A69596801EA16
:1059700002015960986030BDF8B54FF46065284663
:1059800030F0ECF900F1010004463F2C01D94FF052
:10599000000421B2284630F0DFFA40F602663046B5
:1059A00030F0DCF93F2800D0204601B2304630F01C
:1059B000D3FA284630F0D2F94FF4806101EB40145D
:1059C0004FF055008DF800004FF000068DF8016093
:1059D0004FF052008DF802008DF8036069462046B2
:1059E00030F03FFB00966946201D30F03AFB854DB4
:1059F000A88B8DF80000287E8DF80100287B8DF89B
:105A000002008DF80360694604F1080030F029FBBC
:105A1000287A8DF8000028798DF8010028788DF813
:105A200002007948D0F880018DF80300694604F13E
:105A30000C0030F016FB4FF041058DF800508DF84A
:105A400001508DF802508DF80350694604F11000A2
:105A500030F007FB8DF800508DF801508DF80250A2
:105A60008DF80350694604F1140030F0FAFA8DF80D
:105A700000508DF801508DF802508DF803506946A2
:105A800004F1180030F0EDFA8DF800508DF8015057
:105A90008DF802508DF80350694604F11C0030F077
:105AA000E0FAF8BD2DE9F843564F4F49203F4FF437
:105AB00060654FF000084FF48069012802D000288B
:105AC0007ED03BE14FF001000870284630F046F9E7
:105AD00000F1010004463F2C01D94FF0000421B22F
