:020000040000FA
:10000000D0760010E1000000E5000000E7000000ED
:10001000E9000000EB000000ED000000000000001F
:10002000000000000000000000000000EF000000E1
:10003000F100000000000000F3000000FB64040079
:10004000F7000000C19B0400F59B0400F7000000CE
:10005000F7000000B3D70400AFF90400F700000078
:10006000F7000000F7000000F7000000F7000000B4
:10007000F7000000F7000000F7000000F7000000A4
:10008000F7000000F7000000F7000000F700000094
:10009000F7000000F700000023A80000F7000000B0
:1000A000F700000039D50400F7000000F700000059
:1000B00089010500F7000000F7000000F7000000CC
:1000C000F7000000F7000000F7000000DFF80CD098
:1000D00050F0EAF800480047CB660400D0760010E4
:1000E00005480047FEE7FEE7FEE7FEE7FEE7FEE71E
:1000F000FEE7FEE7FEE7FEE7CD000000FEE710B5F5
:1001000050F072FE50F0CEFE50F0C0FEAFF3008013
:10011000BDE8104050F08CBE10B551F04BFC52F0D1
:1001200069F8BDE8104051F09DBC51F0B1BB51F0F1
:1001300079B909B10020704750F07EBD00207047AA
:1001400030B54FF000003D4BA3F1140202F10A0458
:10015000115C61B1255CA94209D1195C39B1A1F1E9
:100160000101C9B2195411B94FF000011154115CC9
:10017000215400F10100C0B20A28E9D330BD70B5A6
:100180004FF000042D4EA6F1140604F10104E4B270
:10019000355D1DB1854201D00A2CF6D33055274874
:1001A0000C3040F82410283040F82420343803550F
:1001B00070BD4FF00001214AA2F1140201F10101CA
:1001C000C9B2535C834201D00A29F7D3535C8342FE
:1001D00012D11A480C3050F8213019480360174BDF
:1001E000343353F8213043604FF000005054134A29
:1001F00050544FF001007047002070474FF000014D
:100200000E4AA2F1140201F10101C9B2535C83420A
:1002100001D00A29F7D3525C82420CD107480C3036
:1002200050F8212006480260044A343252F8211066
:1002300041600120704700207047000044600010BA
:10024000080000100D4BDA601870597070470B4AA7
:100250001161907070470949088170470749B1F9E9
:100260000800002809D0A0F1010000B20881002890
:1002700003D10146084601F08ABF7047E8C0072055
:1002800090F900308B4200DA027090F9003093420E
:1002900000DD0170704790F900308B4200DA017088
:1002A00090F90010914200DD02707047B0F9003003
:1002B0008B4200DA0180B0F90010914200DD02802B
:1002C0007047B0F900308B4200DA0280B0F900309C
:1002D000934200DD01807047FE21C0B24FF0D0BFD5
:1002E0008021C0B24FF0CCBF1C21C0B24FF0C8BFBC
:1002F0007021C0B24FF0C4BF70477047FFFFFFFFCF
:10030000002802DAC0F1000000B270474FF0000090
:10031000FC4A4FF02001115400F10100C0B2C8287E
:10032000F9D3704701464FF00000F64A00F1010092
:10033000C0B2135C8B4201D0C828F7D3704710B508
:100340004FF00001F04C4FF00A020346B0FBF2F010
:1003500002FB1033635401F10101C9B20529F4D342
:1003600010BDF0B5E94D4FF0010129704FF00501C6
:10037000E54B4FF020064FF000072A7842B15A189B
:1003800012F8014C24B9814202D902F8016C07E04D
:1003900003EB010212F8014D04F1300414702F70C8
:1003A000A1F10101C9B20029E7D1F0BDFEB50346B4
:1003B0004FF02B07002B04DAC3F1000003B24FF01B
:1003C0002D074FF000004FF00A046D4693FBF4F642
:1003D00004FB16332B5433B200F1010040B20A285B
:1003E000F4DB4FF001034FF000044FF009004FF031
:1003F000200643B115F800C0BCF1000F03D19042B4
:1004000001DD2E5408E02B5C03F130032B544FF038
:10041000000304F10104E4B2A0F1010040B200289D
:10042000E7DA2D2F04D1204604F10104E4B22F5461
:100430008AB160B207E005EB000313F8013C2B54CE
:10044000A0F1010040B29042F5DC4FF02E00A8541C
:1004500004F10104E4B20846FFF764FF4FF0000125
:10046000A84A06E0A0EB01066B5C935501F101017F
:1004700049B2A142F6DBFEBDFEB503464FF02B07A5
:10048000002B03DAC3F100034FF02D074FF00000FB
:100490004FF00A046D461E4693FBF4F304FB13660B
:1004A0002E5400F1010040B20A28F4DB4FF00103A2
:1004B0004FF000044FF009004FF0200643B115F84B
:1004C00000C0BCF1000F03D1904201DD2E5408E0C2
:1004D0002B5C03F130032B544FF0000304F10104B3
:1004E000E4B2A0F1010040B20028E7DA2D2F04D1D8
:1004F000204604F10104E4B22F548AB160B207E04F
:1005000005EB000313F8013C2B54A0F1010040B2AD
:100510009042F5DC4FF02E00A85404F10104E4B23F
:100520000846FFF7FFFE4FF00001764A06E0A0EB19
:1005300001066B5C935501F1010149B2A142F6DB62
:10054000FEBD2DE9FE414FF02B0C002803DAC0F16F
:1005500000004FF02D0C4FF000044FF00A056F46DD
:10056000064690FBF5F005FB10663E5504F10104CC
:1005700064B20A2CF4DB4FF001054FF000044FF099
:1005800009004FF0200645B117F80080B8F1000FC0
:1005900003D1984201DD3E5408E03D5C05F1300591
:1005A0003D544FF0000504F10104E4B2A0F1010054
:1005B00040B20028E7DABCF12D0F05D1204604F146
:1005C0000104E4B207F800C08BB160B207E007EBAA
:1005D000000515F8015C3D54A0F1010040B29842BD
:1005E000F5DC4FF02E00F85404F10104E4B201EB05
:1005F000810002EB8000C1B24FF00000414A06E0EA
:10060000A1EB00053B5C535500F1010040B2A04254
:10061000F6DBBDE8FE8170B50D4616461C46FFF7B9
:100620008EFE601CC0B2FFF79CFE05EB850006EB5A
:100630008000C1B24FF00000334B324DA04201D2D6
:100640001A5C6A5407D31A5C202A04D064B105EB03
:10065000010606F8012CA1F10101C9B200F1010067
:10066000C0B20528EAD370BD6A54F4E730B5044639
:1006700008461546FFF756FEFF280CD0214A07E032
:1006800000EB050304F10104D15400F10100C0B2F4
:1006900021780029F4D130BD70B50D461446FFF71E
:1006A0004EFE601CC0B2FFF75CFE2846FFF73AFE24
:1006B0004FF00001144A134D24B9535C202B01D094
:1006C0002B5415E0A14202D2535C2B5410E008D108
:1006D0004FF02E032B5405EB0006535C06F8013C4B
:1006E00006E0535C202B03D005EB000606F8013C26
:1006F000A0F10100C0B201F10101C9B20529DBD3AB
:1007000070BD0000420300109C040010A104001002
:100710001044002801DA084403E0884201DBA0EB22
:100720000100C0B270472DE9FE4F04460D464FF45C
:10073000606049F088FF62424021FFF7E9FF4FEA1D
:10074000401000F58060044602A920464AF002F8F5
:1007500001A904F1080049F0FDFF694604F10C000D
:1007600049F0F8FF2846FFF7DDFD82469DF80800B6
:10077000DFF824B7DFF824874FF040064FF030054C
:100780004FF021074FF023094FF0200455287DD06A
:10079000CF214FF0D10C502879D0E223512877D0C7
:1007A000422876D0532875D04FF0ED0E492872D0EC
:1007B000D322EE214FF0E70C73286DD075286CD052
:1007C00066286BD19DF80A005A28FAD14FF0D4025E
:1007D0000AF10100C0B20BF80A2000F10102D3B205
:1007E0000BF800104FF0F00203F10100C0B20BF85B
:1007F00003204FF0EC0300F10101C9B20BF8003007
:100800004FF02E0301F10100C0B20BF8013000F1EE
:100810000101C9B20BF800C04FF0E00C01F101007A
:10082000C0B20BF801C000F10101C9B20BF8002001
:1008300001F10100C0B20BF8013000F10101C9B2B1
:100840000BF8004001F10100C0B20BF801409DF827
:100850000410B8F83C2091427ED19DF8051098F81C
:1008600038209142F8D19DF8061098F82C2091423A
:10087000F2D100F10101C9B20BF8005001F1010001
:10088000C0B20BF801704FF03A0208E038E00FE117
:10089000E0E1B8E2FDE3FDE3FDE3FDE32EE000F17E
:1008A0000101C9B20BF8002001F10100C0B20BF840
:1008B000015000F10101C9B20BF8006001F1010023
:1008C000C0B20BF8012000F10101C9B20BF80050D1
:1008D0000BF801909DF800004FF000024FF021014D
:1008E000FFF7DAFE9DF8010000224021FFF7D4FE59
:1008F0009DF8020000222321FFF7CEFEBDE8FE8F07
:100900009DF80A00522815D14FF0C2010AF10100EA
:10091000C0B20BF80A104FF0EA0200F10101C9B2AF
:100920000BF800204FF0EB0001F1010202F0FF0A8A
:100930000BF801000AF10100C0B20BF80A4000F107
:100940000101C9B20BF8004001F10100C0B20BF87F
:10095000014000F1010100E0FCE3C9B20BF80040E6
:1009600001F10100C0B20BF8014000F10101C9B270
:100970000BF8004001F10100C2B20BF8014002F196
:100980000100C0B20BF802409DF80410B8F83C20FA
:10099000914247D19DF8051098F83820914241D1F5
:1009A0009DF8061098F82C2091423BD100F10101EE
:1009B000C9B20BF8005001F10100C0B20BF8017090
:1009C0004FF03A0200F10101C9B20BF8002001F129
:1009D0000100C0B20BF8015000F10101C9B20BF8DF
:1009E000006001F10100C0B20BF8012000F101012B
:1009F000C9B20BF800500BF801909DF800004FF0C1
:100A000000024FF02101FFF747FE9DF80100002290
:100A10004021FFF741FE9DF8020000222321FFF74D
:100A20003BFE6BE700F10101C9B20BF8004001F198
:100A30000100C0B20BF8015000F10101C9B20BF87E
:100A4000007001F10100C0B20BF8016000F101017A
:100A5000C9B20BF8004001F10100C0B20BF801402F
:100A600000F10101C9B20BF800500BF801909DF89C
:100A700006004FF000024FF02101FFF70DFE9DF838
:100A8000040000222321FFF707FE9DF80500401E09
:100A90000C2803D34FF001008DF805009DF80510D8
:100AA000FF48002200EB81004021FFF7DFFD25E732
:100AB0004FF0C0020AF10100C0B20BF80A204FF05B
:100AC000C20300F10102D2B20BF800304FF02E0346
:100AD00002F10100C0B20BF8023000F10102D2B203
:100AE0000BF8001002F10100C0B20BF802C000F1D7
:100AF0000101C9B20BF8004001F10100C0B20BF8CE
:100B0000014000F10101C9B20BF8004001F1010000
:100B1000C0B20BF8014000F10101C9B20BF800406E
:100B200001F10100C0B20BF801409DF80410B8F8C3
:100B30003C20914248D19DF8051098F83820914208
:100B400042D19DF8061098F82C2091423CD100F13A
:100B50000101C9B20BF8005001F10100C0B20BF85D
:100B6000017003464FF03A0200F10100C1B20BF8E8
:100B7000032001F10100C0B20BF8015000F10101A6
:100B8000C9B20BF8006001F10100C0B20BF80120FE
:100B900000F10101C9B20BF800500BF801909DF86B
:100BA00000004FF000024FF02101FFF775FD9DF8A6
:100BB000010000224021FFF76FFD9DF80200002296
:100BC0002321FFF769FD99E600F10101C9B20BF895
:100BD000004001F10100C0B20BF8015000F1010129
:100BE000C9B20BF8007001F10100C0B20BF801604E
:100BF00000F10101C9B20BF8004001F10100C0B2DF
:100C00000BF8014000F10101C9B20BF800500BF8DC
:100C100001909DF806004FF000024FF02101FFF710
:100C20003BFD9DF8040000222321FFF735FD9DF8D0
:100C30000500401E0C2803D34FF001008DF805007D
:100C40009DF805109648002200EB81004021FFF737
:100C50000DFD53E64FF0C0010AF10100C0B20BF8E0
:100C60000A104FF0C20200F10101C9B20BF80020D6
:100C70004FF02E0201F10100C0B20BF801204FF03D
:100C8000550200F10101C9B20BF8002001F1010089
:100C9000C0B20BF801304FF0FB0200F10101C9B204
:100CA0000BF800204FF0F50201F10100C0B20BF883
:100CB000012000F10101C9B20BF8004001F101006F
:100CC000C0B20BF8014000F10101C9B20BF80040BD
:100CD00001F10100C0B20BF801409DF80410B8F812
:100CE0003C20914247D19DF8051098F83820914258
:100CF00041D19DF8061098F82C2091423BD100F18B
:100D00000101C9B20BF8005001F10100C0B20BF8AB
:100D100001704FF03A0200F10101C9B20BF8002056
:100D200001F10100C0B20BF8015000F10101C9B29C
:100D30000BF8006001F10100C0B20BF8012000F1D6
:100D40000101C9B20BF800500BF801909DF80000AA
:100D50004FF000024FF02101FFF79EFC9DF80100CB
:100D600000224021FFF798FC9DF802000022232179
:100D7000FFF792FCC2E500F10101C9B20BF8004097
:100D800001F10100C0B20BF8015000F10101C9B23C
:100D90000BF8007001F10100C0B20BF8016000F126
:100DA0000101C9B20BF800400A4601F10101C8B2C5
:100DB0000BF80240024600F10100C1B20BF80250EC
:100DC0000BF801909DF806004FF000024FF0210152
:100DD000FFF762FC9DF8040000222321FFF75CFC72
:100DE0009DF80500401E0C2803D34FF001008DF83C
:100DF00005009DF805102A48002200EB81004021E3
:100E0000FFF734FC7AE59DF80A0043287DD14FF0C6
:100E1000C0010AF10100C0B20BF80A104FF0C20283
:100E200000F10101C9B20BF800204FF02E0201F1D0
:100E30000100C0B20BF801204FF0C10200F1010126
:100E4000C9B20BF800204FF0E00201F10100C0B27E
:100E50000BF801204FF0F20200F10101C9B20BF8CA
:100E600000204FF04E0201F10100C0B20BF801204A
:100E70009DF80920092A18D202F1310200F101017E
:100E8000C9B20BF8002001F10100C0B20BF801401B
:100E900000F10101C9B205E0420300100040024028
:100EA0007C3005000BF800402EE0A2F109015A2920
:100EB0001BD202F101024FF00A0CB2FBFCF303F16A
:100EC000300A00F10101C9B20BF800A00CFB13229B
:100ED00002F1300201F10100C0B20BF8012000F173
:100EE0000101C9B20BF800400EE000F10101C9B2E6
:100EF0000BF8004001F10100C0B20BF8014000F115
:100F00000101C9B20BF8004000E09FE001F10100CF
:100F1000C0B20BF801409DF80410B8F83C20914293
:100F20004BD19DF8051098F83820914245D19DF895
:100F3000061098F82C2091423FD100F10101C9B26E
:100F40000BF8005001F10100C0B20BF801704FF036
:100F50003A0200F10101C9B20BF8002001F10100D1
:100F6000C0B20BF8015000F10101C9B20BF80060EA
:100F700001F10100C0B20BF8012000F10101C9B27A
:100F80000BF8005001F1010000F0FF0A0BF801908E
:100F90009DF800004FF000024FF02101FFF77CFBAD
:100FA0009DF8010000224021FFF776FB9DF802002A
:100FB00000222321FFF770FB48E000F10101C9B2D4
:100FC0000BF8004001F10100C0B20BF8015000F134
:100FD0000101C9B20BF8007001F10100C2B20BF8B7
:100FE000016002F10100C0B20BF8024000F1010102
:100FF000C9B20BF8004001F10100C0B20BF801507A
:1010000000F1010101F0FF0A0BF800909DF80600C5
:101010004FF000024FF02101FFF73EFB9DF8040066
:1010200000222321FFF738FB9DF80500401E0C2805
:1010300003D34FF001008DF805009DF80510FF481F
:10104000002200EB81004021FFF710FB9DF80A0011
:1010500053287ED14FF0C0030AF10100C0B20BF853
:101060000A304FF0C20200F10101C9B20BF80020B2
:101070004FF02E0201F10100C0B20BF801204FF039
:10108000C10200F10101C9B20BF800204FF0E000ED
:1010900003E0A5E3FCE3FCE3FCE301F10102D2B2CF
:1010A0000BF801004FF0F20102F10100C0B20BF8A1
:1010B00002109DF809104FF0430C092911D201F1DB
:1010C000310100F10102D2B20BF8001002F101006F
:1010D000C1B20BF8023001F10100C0B20BF801C03F
:1010E00021E009395A290FD200F10101C9B20BF8E8
:1010F000003001F10100C2B20BF801C002F10100A1
:10110000C0B20BF802400EE000F10101C9B20BF8C9
:10111000004001F10100C2B20BF8014002F10100F0
:10112000C0B20BF802409DF80410B8F83C20914280
:101130004ED19DF8051098F83820914248D19DF87D
:10114000061098F82C20914242D100F10101C9B259
:1011500001E086E0FEE30BF8005001F10100C2B2AD
:101160000BF801704FF03A0302F10100C0B20BF826
:10117000023000F10101C9B20BF8005001F1010089
:10118000C0B20BF8016000F10101C9B20BF80030E8
:1011900001F10100C0B20BF8015000F1010101F0B2
:1011A000FF0A0BF800909DF800004FF000024FF08E
:1011B0002101FFF771FA9DF8010000224021FFF79D
:1011C0006BFA9DF8020000222321FFF765FA48E040
:1011D00000F10101C9B20BF8004001F10100C0B2F9
:1011E0000BF8015000F10101C9B20BF8007001F1D8
:1011F0000100C2B20BF8016002F10100C0B20BF8AD
:10120000024000F10101C9B20BF8004001F10100F8
:10121000C0B20BF8015000F1010101F0FF0A0BF818
:1012200000909DF806004FF000024FF02101FFF7FB
:1012300033FA9DF8040000222321FFF72DFA9DF8D0
:101240000500401E0C2803D34FF001008DF8050067
:101250009DF805107948002200EB81004021FFF73E
:1012600005FA9DF80A005A2877D14FF0C2000AF11A
:101270000101C9B20BF80A004FF0C70201F10100E9
:10128000C0B20BF8012000F10101C9B20BF8004017
:1012900001F10100C0B20BF8014000F10101C9B237
:1012A0000BF8004001F10100C2B20BF8014002F15D
:1012B0000100C0B20BF802409DF80410B8F83C20C1
:1012C00091424BD19DF8051098F83820914245D1B4
:1012D0009DF8061098F82C2091423FD100F10101B1
:1012E000C9B20BF8005001F10100C0B20BF8017057
:1012F0004FF03A0200F10101C9B20BF8002001F1F0
:101300000100C0B20BF8015000F10101C9B20BF8A5
:10131000006001F10100C0B20BF8012000F10101F1
:10132000C9B20BF8005001F1010000F0FF0A0BF800
:1013300001909DF800004FF000024FF02101FFF7EF
:10134000ABF99DF8010000224021FFF7A5F99DF8B7
:10135000020000222321FFF79FF948E000F101017C
:10136000C9B20BF8004001F10100C0B20BF8015006
:1013700000F10101C9B20BF8007001F10100C0B227
:101380000BF8016000F10101C9B20BF8004001F156
:101390000100C0B20BF8014000F10101C9B20BF825
:1013A000005001F1010000F0FF0A0BF801909DF8D8
:1013B00006004FF000024FF02101FFF76DF99DF894
:1013C000040000222321FFF767F99DF80500401E65
:1013D0000C2803D34FF001008DF805009DF805108F
:1013E0001648002200EB81004021FFF73FF99DF8ED
:1013F0000A0057287DD14FF0C1010AF10100C0B2A7
:101400000BF80A104FF0E00200F10101C9B20BF82D
:1014100000204FF0F20201F10100C0B20BF80120F0
:101420009DF80920092A16D202F1310200F10101CA
:10143000C9B20BF800204FF0F00201E07C3005004B
:1014400001F10100C0B20BF8012000F10101C9B2A5
:101450000BF8004030E0A2F109015A291DD202F137
:1014600001024FF00A0CB2FBFCF303F1300A00F169
:101470000101C9B20BF800A00CFB132202F13002EB
:1014800001F10100C0B20BF801204FF0F00200F1B1
:101490000101C9B20BF800200EE000F10101C9B250
:1014A0000BF8004001F10100C0B20BF8014000F15F
:1014B0000101C9B20BF8004001F10100C0B20BF804
:1014C00001409DF80410B8F83C2091424DD19DF8A0
:1014D000051098F83820914247D19DF8061098F8E9
:1014E0002C20914241D100F10101C9B20BF800500A
:1014F00000E083E001F10100C2B20BF801704FF08F
:101500003A0302F10100C0B20BF8023000F1010110
:10151000C9B20BF8005001F10100C0B20BF8016034
:1015200000F10101C9B20BF8003001F10100C0B2B5
:101530000BF8015000F1010101F0FF0A0BF80090D7
:101540009DF800004FF000024FF02101FFF7A4F8D2
:101550009DF8010000224021FFF79EF89DF802004F
:1015600000222321FFF798F848E000F10101C9B2F9
:101570000BF8004001F10100C2B20BF8015002F17A
:101580000100C0B20BF8027000F10101C9B20BF802
:10159000006001F10100C0B20BF8014000F101014F
:1015A000C9B20BF8004001F10100C0B20BF80150C4
:1015B00000F1010101F0FF0A0BF800909DF8060010
:1015C0004FF000024FF02101FFF766F89DF804008C
:1015D00000222321FFF760F89DF80500401E0C282B
:1015E00003D34FF001008DF805009DF80510FF486A
:1015F000002200EB81004021FFF738F89DF80A0037
:101600004B287FF47BA94FF0C1020AF10100C0B260
:1016100059460BF80A204FF0E00200F10103DBB25B
:101620000A544FF0F20003F10102D2B2C85402F1A1
:101630000100C0B201F802909DF809304FF0E50BAF
:10164000092B15D203F1310300F10102D2B20B5480
:101650004FF0EA0302F10100C0B28B5400F1010225
:10166000D3B201F800B003F10100C2B2CC542CE0B7
:10167000A3F109025A2A20D203F101034FF00A0A0A
:10168000B3FBFAFC0CF1300E00F10102D2B201F80A
:1016900000E00AFB1C3303F1300302F10100C0B289
:1016A0008B544FF0EA0200F10103DBB20A5403F15C
:1016B0000100C2B201F803B007E000F10102D3B2A9
:1016C0000C5403F10100C2B2CC5402F10100C0B2CB
:1016D0008C549DF80420B8F83C309A4241D19DF8D2
:1016E000052098F838309A423BD19DF8062098F8AA
:1016F0002C309A4235D100F10102D2B20D5402F1E0
:101700000100C0B28F544FF03A0300F10102D2B28F
:101710000B5402F10100C0B28D5400F10102D2B2AB
:101720000E5402F10100C0B28B5400F10102D2B29A
:101730000D5401F802909DF800004FF000024FF0A8
:101740002101FEF7A9FF9DF8010000224021FEF7CC
:10175000A3FF9DF8020000222321FEF79DFFBDE8B4
:10176000FE8F00F10102D2B20C5402F10100C0B2AE
:101770008D5400F10102D2B20F5402F10100C0B247
:101780008E5400F10102D2B20C5402F10100C0B239
:101790008C5400F10102D2B20D5401F802909DF870
:1017A00006004FF000024FF02101FEF775FF9DF893
:1017B000040000222321FEF76FFF9DF80500401E64
:1017C0000C2803D34FF001008DF805009DF805109B
:1017D0008648002200EB81004021FEF747FFBEE76C
:1017E0004FF0C0020AF10100C0B20BF80A204FF01E
:1017F000C20300F10102D2B20BF800304FF02E0309
:1018000002F10100C0B20BF802304FF0C10300F149
:101810000102D2B20BF8003002F10100C0B20BF8A5
:10182000021000F10101C9B20BF800C001F1010082
:10183000C0B20BF801909DF8091009290CD201F1F2
:10184000310100F10102D2B20BF8001002F10100E7
:10185000C0B20BF8024028E0A1F109025A2A1AD2BC
:1018600001F101014FF00A0AB1FBFAF202F1300373
:1018700000F1010C0CF0FF0C0BF800300AFB121108
:1018800001F130010CF10100C0B20BF80C100CE0BA
:10189000AEE017E1EFE100F10101C9B20BF8004041
:1018A00001F10100C0B20BF8014000F10101C9B221
:1018B0000BF8004001F10100C0B20BF801409DF8A7
:1018C0000410B8F83C20914249D19DF8051098F8D1
:1018D0003820914243D19DF8061098F82C2091426F
:1018E0003DD100F10101C9B20BF8005001F1010036
:1018F000C0B20BF801704FF03A0200F10101C9B219
:101900000BF8002001F10100C0B20BF8015000F10A
:101910000101C9B20BF8006001F10100C0B20BF87F
:10192000012000F10101C9B20BF800500BF8019041
:101930009DF800004FF000024FF02101FEF7ACFED1
:101940009DF8010000224021FEF7A6FE9DF802004E
:10195000002200E064E22321FEF79EFEFFE600F194
:101960000101C9B20BF8004001F10100C0B20BF84F
:10197000015000F10101C9B20BF8007001F1010042
:10198000C0B20BF8016000F10101C9B20BF80040D0
:1019900001F10100C0B20BF8014000F10101C9B230
:1019A0000BF800500BF801909DF806004FF0000274
:1019B0004FF02101FEF770FE9DF804000022232164
:1019C000FEF76AFE9DF80500401E0C2803D34FF079
:1019D00001008DF805009DF805100448002200EB79
:1019E00081004021FEF742FEB9E600007C30050090
:1019F0004FF0C0010AF10100C0B20BF80A104FF01D
:101A0000C20200F10101C9B20BF800204FF02E0212
:101A100001F10100C0B20BF801204FF0C80200F143
:101A20000101C9B20BF8002001F10100C0B20BF8AE
:101A300001E000F10101C9B20BF8003001F1010031
:101A4000C0B20BF801909DF8091009290CD201F1E0
:101A5000310100F10102D2B20BF8001002F10100D5
:101A6000C0B20BF8024025E0A1F109025A2A16D2B1
:101A700001F101014FF00A06B1FBF6F303F1300565
:101A800000F10102D2B20BF8005006FB131101F174
:101A9000300102F10100C0B20BF802100AE000F1BF
:101AA0000101C9B20BF800400A4601F10101C8B2B8
:101AB0000BF8024000F10101C9B20BF800400BF82D
:101AC00001404CE69DF80A005A288DD10AF1010028
:101AD000C0B20BF80A204FF0F10300F10102D2B2BC
:101AE0000BF800304FF0EA0302F10100C0B20BF82E
:101AF000023000F10102D3B20BF800104FF0F002F7
:101B000003F10100C0B20BF803204FF02E0300F1E7
:101B10000101C9B20BF8003001F10100C0B20BF8AD
:101B200001C04FF0E00C00F10101C9B20BF800C098
:101B300001F10100C0B20BF8012000F10101C9B2AE
:101B40000BF8003001F10100C0B20BF801409DF824
:101B50000410B8F83C20914247D19DF8051098F840
:101B60003820914241D19DF8061098F82C209142DE
:101B70003BD100F10101C9B20BF8005001F10100A5
:101B8000C0B20BF801704FF03A0200F10101C9B286
:101B90000BF8002001F10100C0B20BF8015000F178
:101BA0000101C9B20BF8006001F10100C0B20BF8ED
:101BB000012000F10101C9B20BF800500BF80190AF
:101BC0009DF800004FF000024FF02101FEF764FD88
:101BD0009DF8010000224021FEF75EFD9DF8020005
:101BE00000222321FEF758FDB9E500F10101C9B239
:101BF0000BF8004001F10100C0B20BF8015000F1F8
:101C00000101C9B20BF8007001F10100C0B20BF87C
:101C1000016000F10101C9B20BF8004001F10100BF
:101C2000C0B20BF8014000F10101C9B20BF800503D
:101C30000BF801909DF806004FF000024FF02101D3
:101C4000FEF72AFD9DF8040000222321FEF724FD63
:101C50009DF80500401E0C2803D34FF001008DF8BD
:101C600005009DF80510F948002200EB8100402195
:101C7000FEF7FCFC73E59DF80A005A28B4D10AF17E
:101C80000100C0B20BF80A204FF0F00A00F1010188
:101C9000C9B20BF800A04FF0E00201F10100C0B2A0
:101CA0000BF8012000F10101C9B20BF8003001F17D
:101CB0000100C0B20BF801E04FF02E0300F101016A
:101CC000C9B20BF8003001F10100C0B20BF801C03D
:101CD00000F10101C9B20BF8002001F10100C0B20E
:101CE0000BF801A000F10101C9B20BF8003001F1BD
:101CF0000100C0B20BF801409DF80410B8F83C2078
:101D0000914247D19DF8051098F83820914241D171
:101D10009DF8061098F82C2091423BD100F101016A
:101D2000C9B20BF8005001F10100C0B20BF801700C
:101D30004FF03A0200F10101C9B20BF8002001F1A5
:101D40000100C0B20BF8015000F10101C9B20BF85B
:101D5000006001F10100C0B20BF8012000F10101A7
:101D6000C9B20BF800500BF801909DF800004FF03D
:101D700000024FF02101FEF78FFC9DF801000022C8
:101D80004021FEF789FC9DF8020000222321FEF786
:101D900083FCE4E400F10101C9B20BF8004001F159
:101DA0000100C0B20BF8015000F10101C9B20BF8FB
:101DB000007001F10100C0B20BF8016000F10101F7
:101DC000C9B20BF8004001F10100C0B20BF80140AC
:101DD00000F10101C9B20BF800500BF801909DF819
:101DE00006004FF000024FF02101FEF755FC9DF870
:101DF000040000222321FEF74FFC9DF80500401E41
:101E00000C2803D34FF001008DF805009DF8051054
:101E10008E48002200EB81004021FEF727FC9EE463
:101E200000F10101C9B20BF8004001F10100C0B29C
:101E30000BF8015000F10101C9B20BF8007001F17B
:101E40000100C0B20BF8016000F10101C9B20BF84A
:101E5000004001F10100C0B20BF8014000F10101A6
:101E6000C9B20BF800500BF801909DF806004FF036
:101E700000024FF02101FEF70FFC9DF80400002244
:101E80002321FEF709FC9DF80500401E0C2803D312
:101E90004FF001008DF805009DF805106B480022F9
:101EA00000EB81004021FEF7E1FB58E4F0B5044669
:101EB000084616461F46FEF735FA02461046644DA0
:101EC000FF2806D108E0295404F1010400F10100C3
:101ED000C0B221780029F6D15E480078002806D0EB
:101EE000002F04D002EB06014FF05F006854F0BDF4
:101EF0002DE9F04F0746DDE90905884691469A46E7
:101F0000FEF710FA534B2021514C0A224FF0640C7B
:101F1000012D09D11E783EB104EB0006A6F10E0694
:101F2000B1707170317017E097FBF2FB02FB1B7E02
:101F300004EB00060EF1300E06F80CEC9BFBF2FEF3
:101F400002FB1EBB0BF1300B06F80DBC97FBFCF738
:101F500007F1300706F80E7C022D09D11E783EB13C
:101F600004EB0006A6F10A06B1707170317017E03B
:101F700098FBF2F702FB178B04EB0006A6F10A06AA
:101F80000BF1300B86F802B097FBF2FB02FB1B77DC
:101F900007F13007777098FBFCF707F130073770CF
:101FA000032D09D11E783EB104EB0006A6F106060A
:101FB000B1707170317017E099FBF2F702FB17985E
:101FC00004EB0006A6F1060608F1300886F8028048
:101FD00097FBF2F802FB187707F13007777099FB4F
:101FE000FCF707F130073770042D09D11B783BB19E
:101FF00021542044A0F1020041700170BDE8F08F2F
:102000009AFBF2F102FB11A303F13003235491FB7D
:10201000F2F302FB13112044A0F1020001F13001A0
:1020200041709AFBFCF101F130010170E6E710B557
:102030000C46FEF777F906491CB14FF003020A542B
:1020400010BD4FF004020A5410BD00007C300500A2
:10205000420300104D00001017B501EB810002EBA8
:102060008000C2B29DF80030CE4803F00F01445CFE
:10207000CD498C54A2F10102D2B200EB13131B78AC
:102080008B54A2F10102D2B29DF8013003F00F048B
:10209000045D8C54A2F10102D2B200EB13131B7841
:1020A0008B54A2F10102D2B29DF8023003F00F046A
:1020B000045D8C54A2F10102D2B200EB13131B7821
:1020C0008B54A2F10102D3B29DF8032002F00F0459
:1020D000045DCC54A3F10103DBB200EB12100078D5
:1020E000C8541EBD30B5B1490124AF4B91F9012050
:1020F00091F904108A4204D100EB800003F82040DB
:1021000030BD4D1CAA4206D100F1010000EB800059
:1021100003F8204030BD8D1CAA4206D100F1020018
:1021200000EB800003F8204030BDCD1CAA4206D150
:1021300000F1030000EB800003F8204030BD0D1DCE
:10214000AA4206D100F1040000EB800003F8204011
:1021500030BD4D1DAA4206D100F1050000EB800004
:1021600003F8204030BD8D1DAA4206D100F10600C3
:1021700000EB800003F8204030BDC91D8A42FBD12E
:1021800000F1070000EB800003F8204030BD884BD1
:102190001A88A2F1010212B21A80002A02DC4FF062
:1021A00000021A801A88104400B21880814A00EB9D
:1021B000800002447D4813680360127902714278FE
:1021C00011444170704770B5794DB5F9004004F184
:1021D00001062E80774D04EB84042544734C266859
:1021E0002E6026792E71207061702271A37070BDEF
:1021F0002DE9F04180460F461646FEF787F86A4CF7
:102200004FF0000518F8010B04F8010B05F101056A
:10221000EDB2142DF6D34FF0000017F8011B04F8AF
:10222000011B00F10100C0B21428F6D34FF00000EA
:1022300016F8011B04F8011B00F10100C0B21428BC
:10224000F6D34FF0000013F8011B04F8011B00F156
:102250000100C0B21428F6D3BDE8F08130B5039C6C
:102260004FF0640594FBF5F4534D2C70534C2060F3
:1022700053480160534802605348036030BD2DE964
:10228000FE430D464FEA401000F58060044602A967
:10229000204648F05FFA01A904F1080048F05AFA14
:1022A000694604F10C0048F055FA2846FEF73AF862
:1022B0003D4C4FF0200600F10101C9B226544FF009
:1022C000300701F10100C0B267544FF0210800F15E
:1022D0000101C9B204F800804FF0400901F101008A
:1022E000C0B204F8019000F10101C9B2265401F115
:1022F0000100C0B2665400F10101C9B227544FF089
:10230000230201F10100C5B262549DF806004FF0AE
:1023100000024FF02101FEF7BFF99DF804000022F2
:102320002321FEF7B9F99DF80500401E0C2803D3C0
:102330004FF001008DF805009DF8050023490022AB
:1023400001EB80004021FEF791F905F10100C0B2D8
:10235000665500F10101C9B2275401F10100C0B274
:1023600004F801804FF03A0200F10101C9B2225491
:1023700001F10100C0B2675400F10101CDB204F8CF
:1023800000909DF800004FF000024FF02101FEF791
:1023900083F99DF8010000224021FEF77DF9665582
:1023A000BDE8FE830631050042030010C0020010A4
:1023B0006E040010A06000105B0000109802001076
:1023C0009C020010A0020010A40200107C30050046
:1023D0002DE9FC410646F94D4FF000072F76287D88
:1023E0004FF0010302280FD006EB460101EB061265
:1023F000F34901EB820494F83D10CA0706D04FF070
:1024000066002876BDE8FC812B76FBE794F83F2038
:10241000920703D54FF067002876F3E7890703D5C5
:102420004FF068002876EDE7E64AB4F90810B2F9F3
:102430000020914203DD4FF069002876E2E7524226
:10244000914203DA4FF06A002876DBE7DB49012886
:10245000497D00D111B1012804D005E04FF06B0097
:102460002876CFE701297ED04FF0640028762B75BF
:10247000A5F8623019464FF4F87048F0E2F96E752D
:10248000A5F8646031464FF4FA7048F0DAF9A761B4
:10249000CD48002130F9160048F0D3F9AF75A5F802
:1024A000667039464FF4FB7048F0CBF9C748008896
:1024B00000F1010000F0070004EB4000008C0190E7
:1024C000C34DA88B00904FF063024FF001016846A6
:1024D000FDF7E1FEB94C9DF80000C4342070287E61
:1024E00000900C2201216846FDF7D5FE9DF8000002
:1024F0006070287B00901F2201216846FDF7CBFE0B
:102500009DF80000A0709DF80400E0704FF4FC708E
:10251000216848F0D7F9287A0090172200216846F0
:10252000FDF7B9FE9DF800002071287900903B224C
:1025300000216846FDF7AFFE9DF800006071287825
:1025400000903B2200216846FDF7A5FE9DF80000A3
:10255000A0719DF80500E0714FF4FE70616848F0CD
:10256000B1F94FE7FFE74FF06C0028764AE72DE915
:10257000F047924C207D01287DD121460126497DDE
:10258000A07DC1F1010206FA02F18F4F8C4D0AB213
:1025900010B1012834D038E01423CA21C820FDF737
:1025A000EEFD14234FF0FF32CE21CD20FDF7E7FDE5
:1025B000607D00EB400101EB001005EB8000B0F9FD
:1025C0000800FDF79DFE617D01EB410202EB011267
:1025D00005EB820293691844906148F6A043984243
:1025E00013DBA0EB0300906137F8110048F02BF8E3
:1025F000401C01B2607D37F9100048F022F904E078
:102600001423CA21C820FDF7BAFD617D4FF4F87983
:1026100001EB410000EB011005EB80004FF00008DA
:10262000B0F902206B48B0F9000000EB8000B2EB7B
:10263000400F47DAB4F85E0000F1010000B2A4F8E0
:102640005E001E2840DB207D012822D1A07D00BB3A
:1026500037F8110047F0F7FF01B25F48627D30F9AB
:10266000120048F0EEF8607D37F8100047F0EBFFFD
:1026700081B2607D00E049E007F090F95748617D44
:1026800030F91100002148F0DCF84FF03200E0840E
:102690002085607D5249C0F10100085C552808D0B2
:1026A00084F81480A4F862800021484648F0C9F8F4
:1026B0000AE0A675A4F8666001214FF4FB7048F0AB
:1026C000C0F801E0A4F85E80617D01EB410000EB01
:1026D000011005EB8000B0F90220C1F1010000EB10
:1026E000400101EB001005EB8000B0F902008242CE
:1026F0000CDBA07D012809D184F81480A4F8628045
:102700004846BDE8F047002148F09BB8BDE8F08797
:1027100070B505464FF00006284C207D90BB31482F
:10272000008801282ED04FF002012175A4F8621014
:102730004FF4F87048F085F8A4F85A50C5EB05102E
:102740004FEA8000A4F860001DB94FF01E00A4F805
:10275000600004F156044FF4F970B4F90A1048F01F
:1027600070F8B4F90A104FF4FF7048F06AF84FF0AF
:102770000000E080208060804FF001064FF00100F3
:1027800007F0A1F9304670BD10B50C4C207D022831
:1027900013D104F12404E08E07F095F94FF0000006
:1027A0006086E086208704F8100CE0870146BDE8CB
:1027B00010404FF4F87048F044B810BD10C0072026
:1027C00028EB0720EE000010E62905009804001011
:1027D00020400240E8000010022A0500E22905001E
:1027E0008C0100104002001070B5FF4C94F83800C6
:1027F000FE4D297808440C2806D9A08F401C01B250
:10280000B82048F01EF804E0B4F93C10B82048F0B5
:1028100018F894F83810287801440C2907D994F84E
:1028200038100C380144B62048F00BF805E094F855
:1028300038100144B62048F004F894F82C001C2805
:1028400004D91C21B42047F0FCFF04E094F82C10BC
:10285000B42047F0F6FF04F12004217A4FF0AE00D7
:1028600047F0EFFF2179B02047F0EBFF2178BDE87A
:102870007040B22047F0E5BF10B5DC48DC4C007872
:1028800030B3D948828FDB4909888A4220D190F839
:102890003820D94909888A421AD190F82C10D74A91
:1028A0001288914214D190F82810D54A128891428A
:1028B0000ED190F82410D34A1288914208D190F892
:1028C0002000D1490988884202D14FF00100E0750B
:1028D000E07D00280CD0CD480088C0B2FFF718FF7B
:1028E000002805D04FF00000E075BDE810407BE700
:1028F00063E738B5BE4C207D022816D1C448007865
:10290000012813D0C34800784FF00A01B0FBF1F260
:1029100001FB1200002808D141F288300090BEA3CC
:10292000C3A2C9A1CEA0FFF799FC38BDB4F85800E6
:102930004FF461610025884215D200F1010080B298
:10294000A4F8580088420ED3A4F85850B4F85A009E
:1029500048B1A0F1010024F85A0F608800F101008D
:102960006080A4F15A04B4F856003C28DDD200F18E
:10297000010080B2A4F856003C28D6D324F8565F54
:102980006089A0F1010001B261814FF4F97047F054
:1029900058FF6089A4F1560418B1B748008801288F
:1029A000C3D12575A4F8625000214FF4F87047F0A8
:1029B00048FFBDE83840002007F085B82DE9F84F02
:1029C000DFF82C82B8F9700018B1A0F10100A8F866
:1029D000700098F8200028B9142300226421D22026
:1029E000FDF7CDFB98F82000894D4FF4C97B0128F5
:1029F00039D198F82100012803D04FF00500A8F83C
:102A00006E00B8F96E0068B1A0F1010000B2A8F83C
:102A10006E0038B94FF00B0088F820000146584688
:102A200047F0D8FE2878012817D14FF0020088F827
:102A300020000146584647F0CDFE00231A460121EA
:102A4000DC20FFF7C0FB00231A461946DB20FFF706
:102A5000BAFB4FF49660FDF7FEFB142300226421BD
:102A6000D220FDF78CFB98F820004FF00F090228C8
:102A700018D198F82100022802D1B8F86E0008B9E0
:102A8000A8F86E90B8F86E00A0F10100A8F86E00EA
:102A90004FF014034FF000024FF064014FF0D200EA
:102AA000FDF76DFB98F820000A2400264FF0010A7C
:102AB00041F28837032831D198F82100032802D148
:102AC000B8F86E0008B9A8F86E40B8F86E00A0F12A
:102AD000010000B2A8F86E000A2801D0092806D12A
:102AE00066A36CA271A177A00097FFF7B7FB687887
:102AF00001280DD188F820400A21584647F06AFE87
:102B000088F822A0A8F82660A8F83C60A8F82860F9
:102B1000142300226421D220FDF731FB98F8200015
:102B20000A285ED1324998F8210080310A2808D05D
:102B30006A484FF46162B0F9000000FB02F00862DD
:102B40004E62086AA0F1010008624A6A02F10102BD
:102B50004A6240B988F820900F21584647F03AFE63
:102B6000002007F0ABFA287838B94FF00C0088F84D
:102B700020000146584647F02DFE687838B94FF0DE
:102B80000D0088F820000146584647F023FEB8F9AA
:102B90003E00B8F8401090FBF4F04FF47A7288428F
:102BA00016DDB8F92630142B12DC98F82230012BF0
:102BB0000ED1B8F870305BB988F82260A8F82620EA
:102BC000A8F83C20A8F828204FF06E03A8F8703031
:102BD000884207DAB8F92600904203DB98F8220011
:102BE0007EE09EE08AE000000040024056000010B7
:102BF00010C007209A0100109801001096010010E3
:102C00009001001092010010940100109C0100102E
:102C10005A0200102040024020202020C2C5CDD200
:102C2000C8CBDFD6C8DF21212120202000000000F2
:102C30002020202020CDC5C8D1CFD0C0C2CDC020FB
:102C4000202020200000000020202020C7C0C1CB71
:102C5000CECAC8D0CEC2C0CD2020202000000000A7
:102C6000C2DBD0C0C2CDC8C2C0DED9C8C920C7C06F
:102C7000D0DFC420000000004002001020202020EF
:102C8000CDC0CFD0DFC6C5CDC8DF2020202020207A
:102C9000000000002020202020C2DBD1CECACEC3FD
:102CA000CE202020202020200000000020202020F6
:102CB0002020D2D3CCC1CBC5D02020202020202062
:102CC000000000002020202020C2CACBDED7C8D2BE
:102CD000C520202020202020000000007C010010C2
:102CE00060B9B8F8700048B988F822A0A8F8264062
:102CF000A8F83C40A8F82840A8F8704098F82200AE
:102D000010B1012807D00CE0142300226421D22046
:102D1000FDF735FA05E0142301226421D220FDF7E6
:102D20002EFA98F820000B2820D198F821000B28C3
:102D300002D1B8F86E0008B9A8F86E40B8F86E0075
:102D4000A0F1010000B2A8F86E000A2801D00928FD
:102D500006D1EFA3F4A2FAA1FFA00097FFF77EFA35
:102D6000142300226421D220FDF709FA98F82000EC
:102D70000C282CD198F821000C2802D1B8F86E004C
:102D800008B9A8F86E40B8F86E00A0F1010000B2D2
:102D9000A8F86E000A2801D0092809D1AFF28813DB
:102DA000AFF27412AFF26011EBA00097FFF756FA82
:102DB0002878012805D188F820400A21584647F094
:102DC00009FD142300226421D220FDF7D8F998F8D8
:102DD00020000D2829D198F821000D2802D1B8F83B
:102DE0006E0008B9A8F86E40B8F86E00A0F10100B6
:102DF00000B2A8F86E000A2801D0092806D1DCA389
:102E0000E1A2E7A1D4A00097FFF728FA687801288B
:102E100005D188F820400A21584647F0DBFC1423EE
:102E200000226421D220FDF7AAF998F820000E288C
:102E30002DD198F821000E2802D1B8F86E0008B9FB
:102E4000A8F86E40B8F86E00A0F1010000B2A8F832
:102E50006E000A2801D0092809D1AFF2E013AFF2C1
:102E6000CC12AFF2B811D4A00097FFF7F7F9687849
:102E700038B988F820600021584647F0ABFCFFF7CE
:102E800083FC142301226421D220FDF778F998F8FD
:102E9000200040F6B8370F2838D198F821000F28C5
:102EA00002D1B8F86E0008B9A8F86E40B8F86E0004
:102EB000A0F1010000B2A8F86E000A2801D009288C
:102EC00006D1C3A3C8A2CEA1D3A00097FFF7C6F92D
:102ED000B8F96E00062801D0052809D1AFF26423A5
:102EE000AFF25022AFF23C21D1A00097FFF7B6F924
:102EF000687828B988F820600021584647F06AFCB5
:102F0000142300226421D220FDF739F998F820001B
:102F1000102838D198F82100102802D1B8F86E0096
:102F200008B9A8F86E40B8F86E00A0F1010000B230
:102F3000A8F86E000A2801D0092806D1C2A3C8A2A9
:102F4000AFA1B5A00097FFF789F9B8F96E00062880
:102F500001D0052809D1AFF2DC23AFF2C822AFF2CD
:102F6000B421B3A00097FFF779F9687828B988F8F9
:102F700020600021584647F02DFC142300226421D4
:102F8000D220FDF7FCF898F8200088F82100BDE871
:102F9000F88F10B54FF00000B7490A7D002A12D112
:102FA000B64A1288012A0ED091F82020002A0AD1B0
:102FB0004FF0010081F8200001464FF4C97047F03E
:102FC00009FC4FF0010093E4AB4890F82010002971
:102FD00007D04FF0100180F820104FF4C97047F06F
:102FE000F9BB70472DE9F84FA34EA54D96F8230085
:102FF00001283BD196F82400012803D04FF00500AA
:10300000A6F87200B6F9720070B1A0F1010000B22A
:10301000A6F8720040B94FF00C0086F82300014674
:103020004FF4CA7047F0D6FB2878012818D14FF02A
:10303000020086F8230001464FF4CA7047F0CAFB2D
:1030400000231A460121DE20FFF7BDF800231A46AF
:103050001946DD20FFF7B7F84FF49660FDF7FBF84F
:10306000142300226421D220FDF789F896F823006A
:1030700002281AD196F82400022802D1B6F872006C
:1030800018B94FF00F00A6F87200B6F87200A0F160
:103090000100A6F872004FF014034FF000024FF049
:1030A00064014FF0D200FDF76AF896F823000A2475
:1030B000002741F28838032828D196F824000328F5
:1030C00002D1B6F8720020B9A6F87240F784B7872B
:1030D0003785B6F87200A0F1010000B2A6F87200C0
:1030E0000A2801D009280BD1AFF27043AFF25C423D
:1030F000AFF24841AFF23440CDF80080FFF7AEF8B0
:103100006878012803D186F82340BBE0CCE0C5E015
:103110002020C1C5C720C2C5CDD2C8CBDFD6C8C804
:103120002121202000000000202020202020C2CAD1
:10313000CBDED7C5CD20202020202020000000009D
:10314000202020CDC520CCCEC6C5D220C1DBD2DC0C
:103150002020202000000000D3D0C0C2CDC8D2C59E
:10316000CBDCCDDBC920C7C0D0DFC420000000000D
:103170002A202020D2D3CCC1CBC5D0C021212120F0
:1031800020202020000000002020CFCED1CBC52061
:10319000C2CACBDED7C5CDC8DF202020000000008A
:1031A0002020C1D3C4C5D220CFD0CEC4CECBC6C57B
:1031B000CD202020000000002A20202020C2DBCAD1
:1031C000CBDED7C8D2C52020202020200000000060
:1031D0002020202020C7C0C2C5D0D8C5CD202020A7
:1031E0002020202000000000202020202020D3D1FB
:1031F000CFC5D8CDCE2020202020202000000000E8
:1032000020202020202020C7C0D0DFC42020202064
:103210002020202000000000202020D3D0C0C2CDDC
:10322000C8D2C5CBDCCDDBC92020202000000000A7
:103230002020202020C2DBCACBDED7C8D2C5202068
:1032400020202020000000002020202020202020FE
:1032500020202020202020202020202000000000EE
:103260002020202020CFD0C5CAD0C0D9C5CD202055
:10327000202020200000000010C007204002001085
:103280005A0200100A214FF4CA7047F0A3FA4FF017
:10329000010086F82200F784B787378514230022BF
:1032A0006421D220FCF76BFF96F82300DFF810941E
:1032B0004FF47A7B4FF00B0A0A287ED196F824004F
:1032C0000A280AD0FF484FF46161B0F9000000FB02
:1032D00001F0C9F82800C9F82C70D9F82800A0F12D
:1032E0000100C9F82800D9F82C1001F10101C9F832
:1032F0002C1030B986F823A00B214FF4CA7047F088
:1033000069FA287840B94FF00D0086F8230001468D
:103310004FF4CA7047F05EFA687840B94FF00E007B
:1033200086F8230001464FF4CA7047F053FAE64886
:103330003C22B0F90010E548B0F9000000F11E038E
:10334000994220DA0A3881421DDDE148E149B0F9AD
:103350000000B1F9001090FBF4F0884210DAB6F9E1
:10336000740090B1A0F1010000B2A6F8740060B939
:1033700086F823A00B214FF4CA7047F02BFA04E023
:10338000A6F8742001E0A6F87420B6F93E00B6F85D
:10339000401090FBF4F0884218DDB6F92620142A7C
:1033A00014DC96F82220012A10D1B6F870206AB9F0
:1033B00086F82270A6F826B000E02FE0A6F83CB010
:1033C000A6F828B04FF06E02A6F87020884212DAF4
:1033D000B6F9260058450EDB96F8220058B9B6F823
:1033E000700040B94FF0010086F82200F484B487E1
:1033F0003485A6F8704096F8220010B1012807D055
:103400000CE0142300226421D220FCF7B8FE05E072
:10341000142301226421D220FCF7B1FE96F8230088
:103420000B2874D196F824000B2808D0AA484FF432
:103430006161B0F9000000FB01F0C9F82800D9F87B
:103440002800A0F10100C9F82800D9F82C1001F1DA
:103450000101C9F82C1058B94FF0120086F823006A
:1034600001464FF4CA7047F0B5F9002006F0DAFFC4
:10347000287840B94FF0100086F8230001464FF439
:10348000CA7047F0A7F9687840B94FF0110086F884
:10349000230001464FF4CA7047F09CF9B6F93E008C
:1034A000B6F8401090FBF4F0884216DDB6F92620FD
:1034B000142A12DC96F82220012A0ED1B6F87020C8
:1034C0005AB986F82270A6F826B0A6F83CB0A6F83D
:1034D00028B04FF06E02A6F87020884212DAB6F9D2
:1034E000260058450EDB96F8220058B9B6F8700051
:1034F00040B94FF0010086F82200F484B487348587
:10350000A6F8704096F8220010B1012807D00CE010
:10351000142300226421D220FCF731FE05E014239D
:1035200001226421D220FCF72AFE96F823000C2801
:1035300024D196F824000C2802D1B6F8720008B9FC
:10354000A6F87240B6F87200A0F1010000B2A6F829
:1035500072000A2801D009280AD1AFF24C43AFF219
:103560003842AFF224415DA0CDF80080FEF776FE30
:10357000142300226421D220FCF701FE96F82300D8
:103580000D282ED196F824000D2802D1B6F872002D
:1035900008B9A6F87240B6F87200A0F1010000B2B6
:1035A000A6F872000A2801D009280AD1AFF69813AC
:1035B000AFF68412AFF6701148A0CDF80080FEF788
:1035C0004DFE2878012806D186F823400A214FF4C1
:1035D000CA7047F0FFF8142300226421D220FCF7C0
:1035E000CEFD96F823000E282DD196F824000E2843
:1035F00002D1B6F8720008B9A6F87240B6F87200A7
:10360000A0F1010000B2A6F872000A2801D0092832
:1036100009D138A3AFF29042AFF27C412FA0CDF890
:103620000080FEF71BFE6878012806D186F823404B
:103630000A214FF4CA7047F0CDF814230022642108
:10364000D220FCF79CFD96F8230010282ED196F886
:103650002400102802D1B6F8720008B9A6F872400A
:10366000B6F87200A0F1010000B2A6F872000A28B4
:1036700001D009280AD1AFF66023AFF64C22AFF68D
:10368000382116A0CDF80080FEF7E8FD2878012843
:1036900006D186F823A00B214FF4CA7047F09AF8A0
:1036A000142300226421D220FCF769FD96F8230040
:1036B000112857D196F8240011282AD126E00000BD
:1036C00090C0072082010010FA0100107E01001056
:1036D000F2010010840100108A01001020D4CED025
:1036E000CCCEC2CED7CDDBC920C7C0D0DFC420200E
:1036F0000000000020202020D2D3CCC1CBC5D0C0F8
:10370000212121202020202000000000B6F8720096
:1037100008B9A6F87240B6F87200A0F1010000B234
:10372000A6F872000A2801D009280BD1AFF23C0399
:10373000AFF2AC52AFF29851AFF26000CDF800801A
:10374000FEF78CFD6878012806D186F823A00B21AE
:103750004FF4CA7047F03EF8142300226421D220AF
:10376000FCF70DFD96F823000F2830D196F82400C1
:103770000F2802D1B6F8720008B9A6F87240B6F860
:103780007200A0F1010000B2A6F872000A2801D070
:1037900009280BD1AFF61C33AFF60832AFF6F4218F
:1037A000AFF27450CDF80080FEF758FD687840B94C
:1037B00086F8237000214FF4CA7047F00BF8FEF72B
:1037C000E3FF142300226421D220FCF7D8FC96F8F2
:1037D000230040F6B83812283FD196F8240012286A
:1037E00002D1B6F8720008B9A6F87240B6F87200B5
:1037F000A0F1010000B2A6F872000A2801D0092841
:103800000AD1AFF23463AFF22062AFF20C61FFA0D5
:10381000CDF80080FEF722FDB6F97200062801D02F
:1038200005280BD1AFF6AC33AFF69832AFF6843142
:10383000AFF20460CDF80080FEF710FD687830B973
:1038400086F8237000214FF4CA7046F0C3FF14239A
:1038500000226421D220FCF792FC96F82300132862
:103860003FD196F82400132802D1B6F8720008B9A7
:10387000A6F87240B6F87200A0F1010000B2A6F8F6
:1038800072000A2801D009280AD1AFF24463AFF2CE
:103890003062AFF29461DDA0CDF80080FEF7DEFC6F
:1038A000B6F97200062801D005280BD1AFF63443D3
:1038B000AFF62042AFF60C41AFF28C60CDF800803D
:1038C000FEF7CCFC687830B986F8237000214FF4FD
:1038D000CA7046F07FFF142300226421D220FCF737
:1038E0004EFC16F8230F7070BDE8F88F10B54FF03E
:1038F0000000CC490A7D002A12D1CB4A1288012A45
:103900000ED091F82020002A0AD14FF0010081F852
:10391000230001464FF4CA7046F05CFF4FF00100EF
:1039200010BDC04890F82310002907D04FF01301B4
:1039300080F823104FF4CA7046F04CBF7047BB4864
:103940006FF03B010088C0EB001001EB8000B5492F
:10395000A1F8460070472DE9F05FDFF8C882DFF874
:10396000D0A20025B8F84600B24E401C01B2AF48C4
:10397000A8F84610DFF8C092B0F900000A27C0EBA3
:1039800000124FF0010B08F14C04B1EB820F69DB20
:10399000002867D0A8F846502570657088F80E504A
:1039A000A6480078552811D1B6F9020050280DDD3F
:1039B000B6F90800FCF7A4FCB9F90010884203DB53
:1039C00096F83D00C00701D084F800B09B484078CD
:1039D000552811D1B6F94E0050280DDDB6F9540026
:1039E000FCF78EFCB9F90010884203DB96F88900D9
:1039F000C00701D084F801B09148007870B9BAF9D5
:103A00000000FCF77DFCB9F90010884204DB8D480A
:103A100090F83D00C00701D088F80EB08A480078C1
:103A200080B998F80F0068B198F8140008B102281E
:103A300008D198F8200028B998F8230010B98348D5
:103A4000007818B12570657088F80E50207801282C
:103A500020D0607801281DD098F80E00012819D0D8
:103A6000A8F848504146B8F94800DFF8B881002866
:103A700008F178087ED0A0F1010000B28B46A1F8D1
:103A80004800052809DD0F231E226421E120FCF7F0
:103A900076FB0AE0A8F84870E4E7002805DD0F236C
:103AA0001E226921E120FCF76AFBBBF848000528CB
:103AB00011D1B6F90800FCF723FCA8F80000B6F90C
:103AC0005400FCF71DFCA8F80200BAF90000FCF74E
:103AD00017FCABF84E005348B0F84800002858D106
:103AE000B6F90800FCF70CFCDFF838B10BF17C0BE1
:103AF000ABF80000B6F95400FCF702FCABF802008A
:103B0000BAF90000FCF7FCFBDFF818A1AAF8500096
:103B1000AAF84A50B8F90000BBF900100844B9F9F6
:103B20000010884202DA2078012834D0B6F9020069
:103B3000C82804DD25700021084605F07BFCB8F993
:103B40000200BBF902100844B9F90010884202DAF9
:103B50006078012822D0B6F94E00C82804DD6570CF
:103B60000021012005F066FCBAF94E00BAF95010A8
:103B7000084400E01BE0B9F90010884209DA9AF81D
:103B80000E00012805D132480088012809D0AAF882
:103B90004A70BDE8F09FAAF84A70D0E7AAF84A70C8
:103BA000E2E7012005F046FA8AF80E50F1E7B1F994
:103BB0004A0048B3A0F1010000B20F46A1F84A0044
:103BC000052806DD0F23C8226421E120FCF7D7FA7F
:103BD00007E0002805DD0F23C8226921E120FCF75A
:103BE000CEFAB7F84A00052838D1B6F90800FCF734
:103BF00087FBA8F80000B6F95400FCF781FBA8F891
:103C00000200BAF9000025E08EE00000202020200C
:103C1000D4CED0CCCEC2CED7CDDBC9202020202020
:103C20000000000010C0072040020010000100103A
:103C3000F201001028EB0720EE0000108C010010AC
:103C400071040010C0EB07205F0000101C00001082
:103C500068010010FCF754FBA7F84E00FF48B0F8CD
:103C60004A00002895D1B6F90800FCF749FBFB4F44
:103C70007C373880B6F95400FCF742FB7880BAF9FB
:103C80000000FCF73DFBDFF8D4A3AAF850008AF847
:103C90000D50B8F90000B7F900100844B9F9001048
:103CA000884202DA2078012832D0B6F90200C8280A
:103CB00004DD25700021084605F0BCFBB8F90200C0
:103CC000B7F902100844B9F90010884202DA6078A6
:103CD000012820D0B6F94E00C82804DD6570002107
:103CE000012005F0A7FBBAF94E00BAF950100844BC
:103CF000B9F900108842BFF659AF9AF80E000128B2
:103D0000B0D1D7480088022808D08AF80DB040E723
:103D10008AF80DB0D2E78AF80DB0E4E7012005F08B
:103D200089F98AF80E5034E7487B88460028EED09F
:103D30000F2300226E21E120FCF721FAB6F90800DA
:103D4000FCF7DEFAB9F90010884207DD2078012877
:103D500004D125700021084605F06CFBB6F954002B
:103D6000FCF7CEFAB9F90010884206DD6078012828
:103D700003D16570002105F05DFBBAF90000FCF786
:103D8000BFFAB9F90010884208DD98F80E00012842
:103D900004D188F80E50002005F04CF9207830B995
:103DA000607820B998F80E0008B988F80D50E62020
:103DB000FCF7FFF918B1AB480068E7280AD0AA4819
:103DC000AA49B0F90000B1F9001000EB8000B1EB96
:103DD000400F9CDA88F80D502078A54D01280FD1AE
:103DE000B9F90000400090FBF7F1B5F900008142FD
:103DF00006DA96F83D00C00702D1012105F01AFB52
:103E00006078012810D1B9F90000B5F90010400020
:103E100090FBF7F0884207DA96F88900C00703D1D3
:103E20000121084605F006FB98F80E0001287FF4F2
:103E3000BDAEB9F90000B5F90010400090FBF7F0F5
:103E40008842C6DA8B4890F83D00C007EFD1BDE844
:103E5000F05F012005F0EEB8704710B5864C208861
:103E600000F1010020804FF008024FF000012046D1
:103E7000FCF727FA8149B4F9000001EB40004A88B9
:103E80000284B1F84E10A0F86C1010BD70B57C4DD6
:103E90007C487D4AB5F90010B0F9003092F9000075
:103EA00099421FDA794C0A280FDA794BB3F90030BE
:103EB0000F2B0ADD00F1010040B210700A2809DB67
:103EC0002180012004F06DFB04E00A2802DB4FF0A2
:103ED0000A001070B5F90000B4F90010884200DA49
:103EE000208070BDFDDD0028FBD0A0F1010040B2B4
:103EF00010700028F5DCBDE87040002004F051BBD4
:103F00002DE9FC5F6348644A654990F8F403654B0A
:103F10000190DFF888C1B2F90090B1F900B0B3F9AF
:103F200000A0614D614C4D4F45F21166072836D017
:103F30003946604BCA8D5849DFF86481DFF86491D7
:103F4000B1F90010B8F900804A43B3F90610B3F98B
:103F5000143001FB08F141F27078B9F9009091FB3F
:103F6000F8F103FB09F393FBF8F3514809B21BB2D4
:103F70000088B04254D14FF47A6092FBF0F000B266
:103F8000ACF80000298023803D4A1080814200DA8D
:103F90001180B2F90000834200DA1380B1E0464894
:103FA0002E4B0178427803F1B00301EB02211FFA96
:103FB00081F8A3F800808178C27801EB02218AB2EF
:103FC0005A80017990F805E001EB0E2189B29980C1
:103FD00001FB09F141F2707391FBF3F10FFA81F9E2
:103FE000ACF8009002FB0BF292FBF3F109B22980CE
:103FF00008FB0AF898FBF3F212B222808379C079A9
:1040000003EB00202D4B18801D48A0F80090494577
:1040100000DA0180B0F900108A4272DA028070E0A2
:10402000A0F5AC48B8F12F080BD018F1280808D03B
:10403000B8F1140805D0B8F1010802D018F11A0837
:1040400046D149F6404092FBF0F000B2ACF80000D7
:10405000298023800A4A1080814231E010C0072065
:104060006801001008000010E8000010F4010010C2
:10407000F6010010C0EB07209804001028EB072081
:1040800004020010EA00001080C107207EC1072052
:104090007C000010B0ED07206EC107200602001062
:1040A0008804001070C10720080200100A020010E6
:1040B0008E010010F05F0010AAF10720120200101C
:1040C00000DA1180B2F9000083421ADA138018E096
:1040D000FF49A0F5AA43B1F90020FE49C98D51431B
:1040E000FA3B01D05A1E06D148F6B80091FBF0F019
:1040F000F949088005E04FF4FA7091FBF0F0F649B9
:1041000008800198072803D0F4480188F44801800A
:10411000DFF8D083B8F90020F349B1F9000050432B
:104120004FF4FA6590FBF5F0F04C6080B8F9083078
:10413000EF4AB2F9000000FB03F04FF42F7390FB3D
:10414000F3F0A080B8F91800B1F9021001FB00F1FA
:1041500091FBF5F0A4F84E00B8F90210B2F9020094
:1041600000FB01F090FBF3F0A4F850004FF0DC00EE
:10417000FCF744F845F2136AE8BBDFF87893B9F826
:104180000000DFF874B3BBF80010A0EB0100DB4ABD
:10419000B2F9001001FB00F1D94845F6386345F645
:1041A000926C0088984201D0604504D14FF4967E0D
:1041B00091FBFEF10FE0A0F5A84EBEF5FD7E03D009
:1041C000504501D0B04202D191FBF5F103E04FF42C
:1041D0007A7E91FBFEF12181B9F80210BBF80290C2
:1041E000A1EB0909B2F9021001FB09F1984201D0D3
:1041F000604506D100E015E04FF4967091FBF0F0B9
:104200000EE0A0F5AA42FA3A03D0504501D0B042E0
:1042100002D191FBF5F003E04FF47A7091FBF0F0DE
:10422000A4F85400B8F90C0040F6B7318446A0F267
:10423000213000234FF001090090884201D22373FE
:1042400001E084F80C90AF4AB2F9000000FB0CF0DA
:1042500044F6206E90FBFEF0A0F211106081B8F9D8
:104260000E0040F6B731A0F2213B8B4502D284F814
:10427000583001E084F85890B2F90210414344F6F6
:10428000206091FBF0F0A0F211109849A1F85600BF
:10429000B8F904109C48B0F9000001FB00F04FF49D
:1042A000FA6290FBF2F0DFF864E2AEF80000B8F9D1
:1042B00002209748B0F9000002FB00F2904845F256
:1042C000FA544FF4C8750088A04202D192FBF5F26F
:1042D00003E04FF4FA7B92FBFBF20FFA82FB8D4A6C
:1042E000A2F800B0AEF800B08B4AB2F9002001FB92
:1042F00002F102D191FBF5F103E04FF4FA7291FB68
:10430000F2F1864D09B22980642918DA4FF00001D4
:10431000834ADFF810E2B2F900800EE0C1EBC1027F
:1043200002EB01120EEB8202B5F90040126AA242C2
:1043300000DD2A8001F10101C9B24145EEDB4FF0F9
:1043400000052946764A774CB2F900200BE0C1EB14
:10435000C10808EB011804EB8808D8F8248045440C
:1043600001F10101C9B29142F1DB6F490D805D4954
:10437000DFF8B881B1F90A5040F6B731A5F2213E15
:104380008E4502D288F8003001E088F80090684934
:10439000B1F900104D4344F6206E95FBFEF5A5F2F1
:1043A0001115DFF890E1AEF80050009D40F6B73EE1
:1043B000754502D288F8003001E088F8009001FBD2
:1043C0000CF144F6206591FBF5F1A1F21111594D64
:1043D000298094F83017DFF860C109293FD194F89B
:1043E000361794F83757DFF854E101EB0521CEF882
:1043F000001094F8385794F8399705EB0925CEF852
:10440000045094F83A9794F83BE709EB0E29DFF84B
:1044100030E10FFA89F9AEF80090B9F1000F1ED122
:10442000A1EB05053549B1F9001001FB05F1A0F537
:10443000AA45FA3D0DD06D1E0BD0504509D0B042B3
:1044400007D0343D05D0283503D0143D01D06D1E72
:1044500003D14FF4FA6591FBF5F1ACF80010234D50
:10446000A5F802B0A0F5AC41023903D12889ACF817
:10447000000002E0BCF800002881DFF8C890B9F81D
:104480000010DFF8C4A0BAF9000048434FF47A6680
:1044900090FBF6F02D4980B20880DFF8B4E0642884
:1044A00002D2AEF8000003E00B480088AEF800002E
:1044B000B9F80290BAF9020000FB09F090FBF6F09F
:1044C00048802449B1F90000234EB6F9009045E038
:1044D00066C1072010C00720040200100C02001063
:1044E00012020010F05F00105AC1072028EB0720CD
:1044F00078040010EEC107205EC107207C04001084
:104500008E01001062C1072086040010F401001023
:1045100052C10720FA0100108A040010F8010010AF
:1045200038010010B0ED0720FC0100105702001008
:1045300080040010FA020010F2010010A8C1072048
:104540002802001092C1072068C107200003001054
:104550001E02001076040820B204001009FB00F9C6
:1045600041F2707099FBF0FADFF83894A9F800A0D6
:10457000B1F902E0B6F902A00AFB0EFA9AFBF0FAD2
:10458000A9F802A0B1F904A0B6F9046006FB0AF686
:1045900096FBF0F6A9F80460B1F906A0DFF80894DC
:1045A000B9F9006006FB0AF696FBF0FAFF4EA6F892
:1045B00000A0B1F908E0B9F902A00AFB0EFA9AFBD3
:1045C000F0FAA6F802A0B1F90A10B9F9049009FBB3
:1045D00001F999FBF0F0B080F548F64E418801F200
:1045E00011110FFA81F9A6F80090808800F21110DD
:1045F0000FFA80FAA6F802A098F80110317298F824
:1046000002007072EC4E01B910B101290AD00AE023
:1046100009EB0A0000EBD0706FF4887101EB6000C9
:1046200030801EE008B129B106E0AAF2111AA6F8FE
:1046300000A016E0012802D0012905D011E0A9F25E
:104640001119A6F800900CE001280AD1DB48007887
:10465000052803D2DA480088308002E04FF01400C9
:104660003080D8480178552904D1BBF1C80F01DD4D
:104670002989F987407855280AD1B5F94E00C8280C
:1046800006DDB5F95400B5F90810884200DDF88759
:10469000BCF80000F8874FF000012FE0C1EBC1002B
:1046A00000EB011004EB8000C678192E1CD286792D
:1046B000C77906EB07264662067A477A06EB072695
:1046C0000662867AC77A06EB0726C661067B866293
:1046D000467B80F85260867B80F84260067C477C8F
:1046E00006EB0726C66406E0C36143620362836289
:1046F00080F84230C36401F10101C9B29142CDDBBF
:10470000B14EB5F908104FF00A0091FBF0F1B5F980
:10471000545095FBF0F00844C0F1000007B2378018
:10472000AA4D2B804FF0000012E0C0EBC00101EB5E
:10473000001104EB810191F803C0BCF1050F04D214
:10474000496AB5F800C06144298000F10100C0B297
:104750009042EADB2888384400B23080002800DA32
:10476000338033802B804FF000000FE0C0EBC0019E
:1047700001EB001104EB8101CF78052F03D2496AC8
:104780002F883944298000F10100C0B29042EDDB4E
:10479000298803EB010000B23080002800DA338062
:1047A0008B48B0F90050002D66D04FF00002894EC2
:1047B00060E002F11400C0EBC00101EB001004EB5B
:1047C0008000C178192939D28179C77901EB07278F
:1047D00002EB420106EB4111CF61077A90F809C064
:1047E00007EB0C27CF62877A90F80BC007EB0C27FA
:1047F0008F61077B0F62477B81F84670877B90F85B
:104800000FC007EB0C278F62077C90F811C007EBF5
:104810000C274F628B70877C81F85970C77C81F8B8
:104820005A70077D81F85870477D81F85B70877DED
:1048300081F85C70C07D81F85D0018E002EB4200F9
:1048400006EB4010C361C3628361036280F84630A7
:10485000436283624FF01901817080F8593080F80B
:104860005A3080F8583080F85B3080F85C3002F1C4
:104870000102D2B2AA429CDBBDE8FC9F564A5749CE
:104880001078042801D0012805D1507818B954486F
:104890000078552803D0534800880870704708787E
:1048A0000028FBD0A0F10100087070474E48416815
:1048B00021F4402141F480214160416821F44031DC
:1048C00041F480314160416821F4404141F480412C
:1048D0004160416C21F4402141F400214164416C6C
:1048E00021F4403141F400314164416C21F44041F4
:1048F00041F4004141643D48016821F0E0610160FC
:10490000016841F400110160016821F48031016007
:10491000016821F47F4141F4807101604FF480719E
:10492000C16033484FF48001016070472DE9F041C8
:10493000304C60882188401A00B205F02EFFA61D79
:104940003080A0886188401A00B205F026FF708090
:10495000A0882188401A00B205F01FFFB0804FF4F4
:104960009671A4F1B605884202DAA08828860CE088
:10497000B6F90200884202DA6088288605E0B6F9B6
:104980000000884201DA20882886EF780026AFB33D
:104990001948B5F9301002680A44026042680A44B6
:1049A00042602CE00603001098C107200C030010A1
:1049B000FA020010F8030820140200106C00001026
:1049C000B00400108C010010F60100108CC107200B
:1049D0003A0100101CF80720C0020010120000105D
:1049E000570000109E01001000C00240004003402C
:1049F00000E100E0C6C00720106000101CE08268E3
:104A00000A448260C2681144C160298F01F101012A
:104A100009B22987B1F5805F00DB2E87B5F9381020
:104A20008A052FD14FEAA12150F821204FEA2222F6
:104A3000EA8540F8216025E0F8482C796A7900EB96
:104A40008413B5F9301043F8221090070DD10146B8
:104A500053F820C0614400F10100C0B21028F7D320
:104A60004FEA2110EE4921F81400641CE0B22871CD
:104A7000102807D32E7102F10102D0B268711028FC
:104A800000D36E71AE7007F1010707F00100E87006
:104A9000E44A30B1106820F0FF0000F1040010601B
:104AA0003DE02979080706D4106820F0FF0000F1E6
:104AB0000100106005E0106820F0FF0000F1020026
:104AC0001060D948036843F080530360036A43F0E1
:104AD00080430362036E43F080630366CB070AD012
:104AE000436943F0805343618B0709D4436B23F040
:104AF0008043436308E0436923F080534361F3E755
:104B0000436B43F080434363490704D4416F21F072
:104B10008061416703E0416F41F080614167106847
:104B200040F080701060BDE8F081F0B5BF4DB5F980
:104B30002A0018B1A0F10100688596E04FF0000648
:104B40002E733046BB49BA4BB1F9002012E0C0EBDE
:104B5000C00101EB001103EB81018C78012C06D11F
:104B6000C978142903D2297B01F10101297300F1CD
:104B70000100C0B29042EADB2F7B022F75D3AB4C11
:104B800041F2883004F1800460602660A6604FF036
:104B900000011CE0C1EBC10000EB011003EB800041
:104BA00090F802C0BCF1010F0ED1406AD4F800C0E9
:104BB000604500DD2060D4F804C0604500DA606024
:104BC000D4F808C06044A06001F10101C9B291426B
:104BD000E0DBA06890FBF7F7E7606068012100B9AF
:104BE000616020684FF0640C00FB0CF0D4F804C046
:104BF00090FBFCF02061A02800DDE972782800DA43
:104C0000EE72E87A012830D14FF000016FF03104E4
:104C100029E0C1EBC10000EB011003EB80008578B7
:104C2000012D1DD1456ABD4205DDB0F85050A5F1FA
:104C30000105A0F8505005DAB0F8505005F1010513
:104C4000A0F85050B0F95050A54201DAA0F85040F9
:104C5000B0F95050322D03DD4FF03205A0F850501E
:104C600001F10101C9B29142D3DB00BFF0BD2DE9D2
:104C7000F05F71480168714A01EA020101606A4C03
:104C8000216841F47C712160C16921F44021C16136
:104C9000216E41F000712166416821F04061416060
:104CA000206840F0005020606648654D67490278F2
:104CB000654895F83C30B1F900100078134307D0EF
:104CC00030B1052904DDA36943F48073A36103E0D7
:104CD000E36943F48073E36195F88830134307D0A8
:104CE00030B1052904DDA06940F04000A06103E077
:104CF000E06940F04000E061D220FBF77FFA544DBC
:104D000010B12868642848D0E06940F00050E061A4
:104D1000D220FBF773FA4F4E10B1286866284BD0AB
:104D20003068C00754D0A06F40F00070A0674A48B8
:104D3000DFF828814A4F0088A0F5AA41FA3901D04E
:104D4000491E6AD1D220FBF759FA10B128686628AB
:104D500043D03068C0074DD0A06F40F00070A0670E
:104D6000D220FBF74BFA10B128686A2847D0306888
:104D7000384279D0A06940F08000A061D220FBF7D2
:104D80003DFA10B12868672873D098F8000080B306
:104D9000A06940F01000A061F8E16868012806D021
:104DA0000028B5D1E06940F00050E061B0E7A069AB
:104DB00040F00050A061ABE7686820B1A06F40F000
:104DC0000070A067B3E7E06F40F00070E067AEE707
:104DD000E06F40F00070E067A9E7686820B1A06F5D
:104DE00040F00070A067BBE7E06F40F00070E06744
:104DF000B6E74DE0E06F40F00070E067B0E768684C
:104E000030B10128BAD1A06940F08000A061B5E7B7
:104E1000E06940F08000E061B0E73EE0F05B001048
:104E2000F05F00100040034000C0092010C00720C0
:104E3000B0ED07203801001000C00240FF00F0FF75
:104E400028EB072070040010170000107C000010F1
:104E50000800001000C107208E0100101B00001088
:104E6000F807001000E004E0E06940F08000E06135
:104E700084E7686810B1012805D087E1E06940F057
:104E80001000E06182E1A06940F01000A0617DE1C6
:104E9000E06940F01000E06178E1A0F5AC4107392D
:104EA00062D1D220FBF7AAF910B12868672823D075
:104EB00098F8000070B3A06940F01000A061D22003
:104EC000FBF79CF910B12868662828D03068C00725
:104ED00031D0A06F40F00070A067D220FBF78EF9B0
:104EE00010B128686A282BD03068384237D0A069C2
:104EF00040F08000A06149E1686830B10128DED14E
:104F0000A06940F01000A061D9E7E06940F010000E
:104F1000E061D4E7E06940F01000E061CFE7686845
:104F200020B1E06940F00070E061D6E7A06940F090
:104F30000070A061D1E7A06B40F00070A063CCE7E7
:104F4000686810B1012805D020E1E06940F08000D8
:104F5000E0611BE1A06940F08000A06116E1E0691A
:104F600040F08000E06111E1A0F5AC411B3901D0B7
:104F7000491E70D1D220FBF741F910B1286867288B
:104F800031D098F80000B8B3A06940F01000A061DB
:104F9000D220FBF733F910B12868662837D0306883
:104FA000C00740D0A06F40F00070A067D220FBF790
:104FB00025F910B128686A283AD03068384245D0BF
:104FC000A06940F08000A061D220FBF717F910B172
:104FD00028686A2840D0306838424CD0A06940F038
:104FE0002000A061D2E0686838B10128D0D1A06962
:104FF00040F01000A061CBE704E0E06940F0100051
:10500000E061C5E7E06940F01000E061C0E7686872
:1050100020B1E06940F00070E061C7E7A06940F0AE
:105020000070A061C2E7A06B40F00070A063BDE714
:10503000686830B10128C7D1A06940F08000A06144
:10504000C2E7E06940F08000E061BDE7E06940F060
:105050008000E061B8E713E0686810B1012805D06E
:1050600094E0E06940F02000E0618FE0A06940F04A
:105070002000A0618AE0E06940F02000E06185E066
:10508000A0F5AC41113901D00F3163D1D220FBF72B
:10509000B5F810B12868662823D03068C0072CD036
:1050A000A06F40F00070A067D220FBF7A7F810B106
:1050B00028686A2826D03068384231D0A06940F08C
:1050C0008000A061D220FBF799F810B1286867280A
:1050D0002BD098F8000090B3A06940F01000A061B8
:1050E00054E0686820B1A06F40F00070A067DBE773
:1050F000E06F40F00070E067D6E7E06F40F00070CE
:10510000E067D1E7686830B10128DBD1A06940F0E1
:105110008000A061D6E7E06940F08000E061D1E75F
:10512000E06940F08000E061CCE7686810B10128D8
:1051300006D02BE0E06940F01000E06126E004E0DA
:10514000A06940F01000A06120E0E06940F010008C
:10515000E0611BE0D220FBF751F810B12868662807
:1051600026D03068C0072FD0A06F40F00070A06735
:10517000D220FBF743F810B128686A2829D030689C
:10518000384234D0A06940F02000A061D220FBF763
:1051900035F8DFF8FC83FF4FFF4E10B12868712807
:1051A0002AD0FE48B0F9000080B3012868D072E030
:1051B000686820B1E06940F00070E061D8E7A0695C
:1051C00040F00070A061D3E7A06B40F00070A063D6
:1051D000CEE7686830B10128D8D1A06940F020003E
:1051E000A061D3E7E06940F02000E061CEE7E0692C
:1051F00040F02000E061C9E7686810B1012806D0DE
:1052000049E0E06940F40070E06144E004E0A06936
:1052100040F40070A0613EE0E148E249B0F90000CE
:10522000D8B9327D022A18D00A78B2B93A78A2B930
:1052300096F820208AB996F8232072B9B8F9002090
:105240000A2392FBF3F2D84BB3F900309A4204DA06
:10525000E06940F40070E0611DE060B9307D022833
:1052600009D0087838B9387828B996F8200010B9EC
:1052700096F8230078B1A06940F40070A0610AE0BC
:10528000D220FAF7BBFF10B12868722817D0A069A6
:1052900040F40070A061D220FAF7B0FFDFF80C9361
:1052A000C34C10B1286875280ED02078C0071ED0D6
:1052B00099F8000040F0010089F800001DE0E06965
:1052C00040F40070E061E6E7686810B1012807D09B
:1052D00013E099F8000000F0FE0089F800000CE0EF
:1052E00099F8000040F0010089F8000005E099F805
:1052F000000000F0FE0089F80000D220FAF77EFFDF
:1053000010B12868762809D02078C00719D099F8FC
:10531000000040F0020089F8000018E0686810B151
:10532000012807D013E099F8000000F0FD0089F88B
:1053300000000CE099F8000040F0020089F800003D
:1053400005E099F8000000F0FD0089F80000D22087
:10535000FAF754FF10B12868772809D02078C007E1
:1053600019D099F8000040F0040089F8000018E016
:10537000686810B1012807D013E099F8000000F028
:10538000FB0089F800000CE099F8000040F00400F0
:1053900089F8000005E099F8000000F0FB0089F8AA
:1053A0000000D220FAF72AFF10B12868782809D027
:1053B0002078C00719D099F8000040F0080089F85B
:1053C000000018E0686810B1012807D013E099F8D0
:1053D000000000F0F70089F800000CE099F80000E8
:1053E00040F0080089F8000005E099F8000000F09E
:1053F000F70089F800006F48008801287ED14FF03F
:1054000000000146DFF8B0A1DFF8B0916C4DDFF885
:10541000B4B14FF001033BF911205FEAC27C10D018
:10542000DFF8A4C1B8F900E0BCF900C00CEB8C0CAB
:10543000BEEB4C0F05DA03FA01FC4CEA000C0CF051
:10544000FF005FEA827C0AD597F800C0BCF1020F2A
:1054500005D103FA01FC4CEA000C0CF0FF005FEAF6
:10546000427C0AD596F814C0BCF1020F05D103FAAC
:1054700001FC4CEA000C0CF0FF005FEA027C0CD54A
:10548000DFF848C1DCF800C0BCF1000F05D003FA1A
:1054900001FC4CEA000C0CF0FF005FEAC26C0AD57C
:1054A0009AF800C0BCF1010F05D103FA01FC4CEAE7
:1054B000000C0CF0FF005FEA826C0AD59AF800C07D
:1054C000BCF1020F05D103FA01FC4CEA000C0CF010
:1054D000FF005FEA426C25D599F801C05FEACC6C09
:1054E00004D5B5F900C0BCF1010F15DA99F85DC01B
:1054F0005FEACC6C06D5B5F900C000E047E0BCF12E
:10550000020F09DA99F8B9C05FEACC6C0AD5B5F98F
:1055100000C0BCF1030F05DB03FA01FC4CEA000CF0
:105520000CF0FF005FEA026C23D599F801C05FEA36
:105530000C7C04D0B5F900C0BCF1010F13DA99F866
:105540005DC05FEA0C7C04D0B5F900C0BCF1020F6D
:1055500009DA99F8B9C05FEA0C7C0AD0B5F900C045
:10556000BCF1030F05DB03FA01FC4CEA000C0CF064
:10557000FF00120404D403FA01F282EA0002D0B25E
:1055800001F10101C9B20429FFF445AF20701FE009
:10559000F40100101C00001010C007205001001082
:1055A0003A0200101D00001070010010730000107E
:1055B000D40400104801001070000010B0ED072066
:1055C0003801001012030010E8000010FCC0072092
:1055D000BDE8F09F2DE9F05FF94E00274FF0010A7A
:1055E000B07C0A2808D200F10100C0B2B0740A28C9
:1055F00002D3B77486F813A0A6F85270A6F85470B8
:10560000CD20FAF7FBFDDFF8BC83DFF8BCB3A0B315
:10561000EE4A4FF6FF731068CE2801D1A6F8543039
:10562000CF2802D15168A6F85410D12802D1516870
:10563000A6F85210D22801D1A6F85230D02806D1AF
:105640005068A6F852006FEA0000A6F854004FF028
:10565000000437E0B6F854000AFA04F919EA000F1A
:105660000CD0C4EBC40000EB041008EB800030F851
:10567000401F01F10101018008E028E0C4EBC400F3
:1056800000EB041008EB8000A0F84070C4EBC400ED
:1056900000EB041008EB800505F1400032220021E8
:1056A000FAF704FEB5F94000142801DD85F82CA0B6
:1056B000B6F8520019EA000F01D085F82C7004F1F9
:1056C0000104E4B2BBF900008442C3DD8AE0F07C4F
:1056D000F0B34FF000042146BBF900000AE0C1EB33
:1056E000C10202EB011208EB820282F82CA001F148
:1056F0000101C9B28142F2DD4FF0000122E0C2B2E5
:10570000202A01D94FF02002737E834201DB4FF043
:1057100000030B44DBB2B3FBF2F502FB1532C2EB24
:10572000C20303EB021208EB82029378022B01D032
:10573000012B04D182F82C7004F10104E4B201F1D0
:105740000101C9B2814206DAA14AB2F9002000E0A3
:1057500048E09442D3DBB17EC1EBC10202EB011100
:1057600008EB810181F82C709A49B1F900103C29AD
:105770000FDA4FF000010AE0C1EBC10202EB0112A7
:1057800008EB820282F82C7001F10101C9B281425A
:10579000F2DD9149098879B14FF000010AE0C1EBCF
:1057A000C10202EB011208EB820282F82CA001F187
:1057B0000101C9B28142F2DD4FF000016FF0310307
:1057C0000EE0C1EBC10202EB011208EB820292F87B
:1057D0002C40012C01D1A2F8503001F10101C9B2D5
:1057E0008142EEDD4FF000004FF06304BBF9001082
:1057F0000FE0C0EBC00202EB001208EB8202D36B99
:1058000023B182F82C40A3F10103D36300F101001E
:10581000C0B28842EDDBF774F7734FF00002104618
:1058200013E0C0EBC00303EB001308EB83039C7889
:10583000012C07D1F47B04F10104F473DB6993427A
:1058400000DD9AB200F10100C0B28842E9DBA6F89F
:105850004220777786F81CA04FF000005F4AB2F92B
:105860000030A3F1050410E0C0EBC00202EB00120F
:1058700008EB8202926A9A4201DB86F81DA0A242DE
:1058800000DB377700F10100C0B28842ECDB707FAB
:10589000012807D0B07F002803D0307F002800D037
:1058A000B77774E686F81EA071E670B50A234D4CF2
:1058B0004B48002522680068B2FBF3F6B0FBF3F119
:1058C000494AB1420BD111780F2902D201F10101ED
:1058D000117011780A2903D34449086000E015705B
:1058E00020604348434CB0F90000B4F90020B0FBFD
:1058F000F3F1B2FBF3F3404A99420BD111780F292F
:1059000002D201F10101117011780A2903D33B4938
:10591000088000E01570208070BD70472DE9F04FC1
:1059200089B0374E00243078401CC0B230700A284D
:1059300000D334703078334FDFF8CCB0204DF0BB5B
:10594000E87BE0B3287D95F82010084395F82310F4
:105950000843397808437ED1DFF8B09099F8000009
:1059600000F1010089F800002948B0F90010294829
:1059700001802948DFF8A4A0B0F900204846BAF910
:1059800000C0437826489142B0F900805846B0F9EB
:10599000000047DDA1EB020EBEF1050F42DB01283E
:1059A00004D002283ED1B8F1050F3BDD03F101031D
:1059B00089F80130ACF1010CAAF800C046E04AE0D9
:1059C00010C00720B0ED07203801001008000010BB
:1059D000A80400107C00001046020010E400001033
:1059E000B8040010A0C10720A6C10720B80200100B
:1059F000A4C10720BC040010BE0400102202001045
:105A0000720000101C000010560100104204082013
:105A1000FC0100104A0200104C0200104E0200105F
:105A2000C0C10720914211DA511A05290EDB012865
:105A300004D002280AD1B8F1050F07DDA3F1010354
:105A400089F801300CF1010CAAF800C0642251421F
:105A5000FF48FAF72BFCBBF80000012867D1287D2E
:105A600095F82010084395F8231008433978084327
:105A70005DD13078F74BF84F08285BD0B5F9286036
:105A8000F6486FF01402B0F90000C0EB001102EB11
:105A9000810CB5F9462094450BD06FF0130C0CEB3C
:105AA000810C944505D06FF0120C0CEB81019142F2
:105AB00001D140F4804618888DF810004FF00600A0
:105AC0008DF811008DF812404FF064008DF813002E
:105AD0004FEAE67006EB10604FEA20218DF81410B3
