:020000040000FA
:10000000887E0010E1000000E5000000E70000002D
:10001000E9000000EB000000ED000000000000001F
:10002000000000000000000000000000EF000000E1
:10003000F100000000000000F3000000DD000300FC
:10004000F70000007D3F0300A93F0300F700000018
:10005000F7000000D57403008D950300F700000041
:10006000F7000000F7000000F7000000F7000000B4
:10007000F7000000F7000000F7000000F7000000A4
:10008000F7000000F7000000F7000000F700000094
:10009000F7000000F7000000257E0000F7000000D8
:1000A000F7000000A7720300F7000000F70000004F
:1000B00089A80300F7000000F7000000F700000027
:1000C000F7000000F7000000F7000000DFF80CD098
:1000D0003BF09EF80048004797020300887E00101E
:1000E00005480047FEE7FEE7FEE7FEE7FEE7FEE71E
:1000F000FEE7FEE7FEE7FEE7CD000000FEE710B5F5
:100100003DF02EFC3DF0BAFC3DF0ACFC3DF03AFC7D
:10011000AFF30080BDE810403DF076BC10B53EF076
:1001200087FA3FF0F7F83EF0DBFABDE810403EF00A
:1001300053BC3EF09BB93DF063BF09B1002070474E
:100140003CF06CBC0020704770B5374A0020A2F12B
:100150001401064601F10A030C5C54B11D5CAC426B
:1001600007D1145C2CB1641E14F0FF04145400D1A8
:100170000E540C5C1C54401CC0B20A28ECD370BD59
:1001800070B5294D0024143D641CE4B22E5D1EB1EF
:10019000864201D00A2CF7D3285523480C3040F86A
:1001A0002410283040F824203438035570BD1E4AEE
:1001B0000021143A491CC9B2535C834201D00A2978
:1001C000F8D3DBB2834210D117480C3050F82130FD
:1001D00016480360144B343353F821304360002039
:1001E0005054114A505401207047002070470E4A65
:1001F0000021143A491CC9B2535C834201D00A2938
:10020000F8D3DAB282420CD107480C3050F82120E2
:1002100006480260044A343252F82110416001203D
:10022000704700207047000040F4072008010010CC
:100230000C4BDA601870597070470A4A116190705F
:1002400070470849088170470648B0F9081000292E
:1002500007D0491E09B20181002902D1084601F0E8
:10026000A5B970471001001090F900308B4200DAF8
:10027000027090F90030934200DD0170704790F9F0
:1002800000308B4200DA017090F90010914200DDDD
:1002900002707047B0F900308B4200DA0180B0F98B
:1002A0000010914200DD02807047B0F900308B42AF
:1002B00000DA0280B0F90030934200DD018070471F
:1002C00010B504463AF0ECFF002805D020463AF07D
:1002D000F0FF10B1A4F1300010BD20463AF0F5FF58
:1002E00010B1A4F1570010BD20463BF000F80028E3
:1002F000F9D0A4F1370010BD70477047FFFFFFFF32
:10030000002801DA404200B270470020FF4A202155
:100310001154401CC0B2C828FAD370470146FB4AAA
:100320000020401CC0B2135C8B4201D0C828F8D317
:10033000704710B50021F64C0A2200BFB0FBF2F363
:1003400002FB13006054491CC9B218460529F5D3B5
:1003500010BDF0B5EF4B0121202719700521EC4AA3
:10036000002601E01C7844B1541814F8015C25B94A
:10037000814202D904F8017C05E0541814F8015DAB
:10038000303525701E70491E11F0FF01EAD1F0BD15
:10039000FEB52B23002802DA404200B22D230025AF
:1003A0000A266C4690FBF6F706FB170060556D1C9D
:1003B0006DB238B20A2DF5DB012600250920202771
:1003C00000E046B114F800C0BCF1000F03D1904228
:1003D00001DD275405E0265C3036265400266D1CCE
:1003E000EDB2401E40B20028EBDA2D2B02D163554E
:1003F0006D1CEDB26AB168B205E0231813F8013C38
:100400002354401E40B29042F7DC2E206D1CA054B5
:10041000EDB20846FFF782FF0021BC4A04E0635CAE
:10042000461A491C935549B2A942F8DBFEBDFEB5F8
:100430002B23002801DA40422D2300250A266C4692
:10044000074690FBF6F006FB107767556D1C6DB202
:100450000A2DF5DB012600250920202700E046B102
:1004600014F800C0BCF1000F03D1904201DD275405
:1004700005E0265C3036265400266D1CEDB2401E89
:1004800040B20028EBDA2D2B02D163556D1CEDB282
:100490006AB168B205E0231813F8013C2354401EEA
:1004A00040B29042F7DC2E206D1CA054EDB20846FD
:1004B000FFF734FF0021954A04E0635C461A491CAB
:1004C000935549B2A942F8DBFEBDFEB52B260028A4
:1004D00001DA40422D2600240A276D46844690FB0F
:1004E000F7F007FB10CC05F804C0641C64B20A2CBA
:1004F000F4DB0127002009244FF0200C00E04FB16D
:1005000015F804E0BEF1000F04D19C4202DD05F8AD
:1005100004C005E02F5D30372F550027401CC0B2C6
:10052000641E64B2002CEADA2D2E02D12E54401C37
:10053000C0B26BB144B205E02E1916F8016C2E550D
:10054000641E64B29C42F7DC2E24401CEC54C0B202
:1005500001EB810102EB8101CAB200216B4B04E087
:100560006C5C561A491C9C5549B28142F8DBFEBDB1
:1005700070B50D4616461C46FFF7DBFE601CC0B288
:10058000FFF7E7FE05EB850006EB8000C1B2604A8D
:100590005E4B0020A04201D2155C5D5406D3155C71
:1005A000202D03D04CB15E1806F8015C491E401C9A
:1005B000C0B2C9B20528EDD370BD5D54F6E730B5C1
:1005C000044608461546FFF7A9FEFF2809D04F4A02
:1005D0002178002905D04319641C401CD154C0B2B5
:1005E000F6E730BD70B50D461446FFF7A2FE601C5D
:1005F000C0B2FFF7AEFE2846FFF790FE444B434AD9
:10060000002124B95D5C202D01D015540FE0A142DA
:1006100001D25D5CF9E704D14FF02E0515545D5C05
:1006200002E05D5C202D02D0161806F8015C401E29
:10063000491CC9B2C0B20529E3D370BD801801D5E9
:10064000084402E0884200DB401AC0B270472DE93E
:10065000FE4F04460D464FF4606034F085F9624267
:100660004021FFF7EBFF400100F58060044602A93E
:1006700034F0F7F9694604F1080034F0F2F901A901
:1006800004F10C0034F0EDF92846FFF747FE06466A
:100690009DF8080030252327DFF870B020244FF0A4
:1006A000C2094FF0400C4FF0210A55285AD04FF0A4
:1006B000CF0E502870D0E22351286ED04FF04E0854
:1006C00042286BD053286AD04FF0ED0E492867D0EE
:1006D000D3214FF0EE084FF0E70973287BD075283F
:1006E0007AD0662879D19DF80A005A287FD1D42182
:1006F0000BF80610761CF1B2F0230BF80180491CB0
:10070000C9B258460BF80130491C05E0AEC30720BA
:100710004C01001051010010C9B2EC220BF801206D
:10072000491CC9B22E220BF80120491CC9B2E0268F
:1007300000F80190491CC9B24654491CC9B243543F
:10074000491CC9B24254491CC9B24454491CC9B2DB
:100750004454491C9DF80020C9B2FF4EB38F9A4201
:100760007ED01EE09DF80A0052280DD10BF80690AD
:10077000761CF1B2EA220BF80120491CC9B2EB2227
:100780000BF80120491CCEB258460BF80640761CE7
:10079000F1B20BF8014042E02BE069E0AAE0FEE391
:1007A000FEE34454491CC9B24554491CC9B200F87F
:1007B00001A0491CC9B200F801C0491CC9B2445487
:1007C000491CC9B24454491CC9B24554491CC9B258
:1007D0000BF80170FDE3FDE3FDE308E09DF8011077
:1007E000DE48002200EB81004021FFF7E8FEBDE873
:1007F000FE8FC0210BF80610761CF1B22E220BF8EA
:100800000190491CC9B258460BF80120491CC9B2D5
:100810000BF801E0491CC9B2D1220BF80120491C98
:10082000C9B24454491CC9B24454491CC9B24454C5
:10083000491CC9B24454491CC9B24454491CC9B2E8
:10084000C54A4454491C9DF80030968FC9B2B34242
:10085000A7D19DF8013092F83860B342A1D100E0F1
:10086000F9E39DF8023092F82C2093422CD098E7BF
:10087000C0210BF80610761CF1B22E220BF8019065
:10088000491CC9B258460BF80120491CC9B255226F
:100890000BF80120491CC9B2FB220BF80130491C9E
:1008A000C9B24254491CC9B2F5224254491CC9B2CA
:1008B0004454491CC9B2445445E700BF9DF8022086
:1008C00096F82C309A42D2D14554491CC9B23A22EA
:1008D00000F801A0491CC9B24254491CC9B2455490
:1008E000491CC9B200F801C0491CC9B24254491C94
:1008F000C9B253E39DF80A0043287ED1C0210BF80A
:100900000610761CF1B22E220BF80190491CC9B2D8
:1009100058460BF80120491CC9B2C1220BF801202E
:10092000491CC9B2E0220BF80120491CC9B2F222CD
:100930004254491CC9B200F80180491CCEB29DF84E
:100940000910092902D23131815514E0A1F10902BF
:100950005A2A0FD2491C0A23B1FBF3F290463032D7
:100960008255761C03FB1811F6B230318155761C86
:10097000F1B205E08455761CF1B24454491CC9B269
:10098000754E4454491CC9B24454491C9DF800207A
:10099000B38FC9B29A423CD19DF8012096F8383005
:1009A0009A4236D19DF8022096F82C309A4230D1E6
:1009B0004554491CC9B23A2200F801A0491CC9B2E9
:1009C0004254491CC9B24554491CC9B200F801C07F
:1009D000491CC9B24254491CC9B200224554491CA1
:1009E000C9B20BF80170491CCEB29DF80400212158
:1009F000FFF7F8FD9DF8050000E042E000224021ED
:100A0000FFF7F0FD9DF8060000222321FFF7EAFD25
:100A100037E04454491CC9B200224554491CC9B2AC
:100A200000F801A0491CC9B200F801C0491CC9B2B4
:100A30004454491CC9B24454491CC9B24554491CC8
:100A4000C9B20BF80170491CCEB29DF802002121F9
:100A5000FFF7C8FD9DF8000000222321FFF7C2FD2B
:100A60009DF80100401E0C2802D301208DF80100E2
:100A70009DF801103948002200EB81004021FFF76A
:100A80009EFD9DF80A0053286AD1C0220BF806206B
:100A9000761CF1B22E230BF80190491CC9B25846BE
:100AA0000BF80130491CC9B2C1230BF80130491CB5
:100AB000C9B2E0230BF80130491CC9B2F2234354F8
:100AC000491C9DF809304326C9B2092B08D231339D
:100AD0004354491CC9B24254491CC9B246540EE0A1
:100AE000093B5A2B04D24254491CC9B2465403E074
:100AF0004454491CC9B24454491CC9B24454164E0A
:100B0000491C9DF80020B38FC9B29A4240D19DF88C
:100B1000012096F838309A423AD19DF8022096F892
:100B20002C309A4234D14554491CC9B23A2200F8BB
:100B300001A0491CC9B24254491CC9B24554491CC0
:100B4000C9B200F801C0491CC9B24254491CC9B21B
:100B50004554491CC9B204E000400240A002040010
:100B60004EE00BF80170491CCEB29DF80400002243
:100B70002121FFF737FD9DF8050000224021FFF7F6
:100B800031FD9DF8060000222321FFF72BFD37E001
:100B90004454491CC9B200224554491CC9B200F84A
:100BA00001A0491CC9B200F801C0491CC9B2445493
:100BB000491CC9B24454491CC9B24554491CC9B264
:100BC0000BF80170491CCEB29DF802002121FFF7FD
:100BD00009FD9DF8000000222321FFF703FD9DF889
:100BE0000100401E0C2802D301208DF801009DF861
:100BF0000110F948002200EB81004021FFF7DFFCE3
:100C00009DF80A005A285BD10BF80690761CF1B2C9
:100C1000C7220BF80120491CC9B258460BF8014005
:100C2000491CC9B2ED4E0BF80140491CC9B20BF882
:100C30000140491CC9B24454491CC9B24454491C1E
:100C40009DF80020B38FC9B29A423AD19DF8012095
:100C500096F838309A4234D19DF8022096F82C301C
:100C60009A422ED14554491CC9B23A2200F801A03B
:100C7000491CC9B24254491CC9B24554491CC9B2A5
:100C800000F801C0491CC9B24254491CC9B2002233
:100C90004554491CC9B20BF80170491CCEB29DF8ED
:100CA00004002121FFF79EFC9DF805000022402151
:100CB000FFF798FC9DF8060000222321FFF792FC25
:100CC00037E04454491CC9B200224554491CC9B2FA
:100CD00000F801A0491CC9B200F801C0491CC9B202
:100CE0004454491CC9B24454491CC9B24554491C16
:100CF000C9B20BF80170491CCEB29DF80200212147
:100D0000FFF770FC9DF8000000222321FFF76AFC2A
:100D10009DF80100401E0C2802D301208DF801002F
:100D20009DF80110AC48002200EB81004021FFF744
:100D300046FC9DF80A0057287CD1C1210BF806100B
:100D4000761CF1B2E0220BF80120491CC9B2F22254
:100D50000BF80120491CCEB29DF80910584609290C
:100D600006D231318155761CF1B2F022425419E09D
:100D7000A1F109025A2A11D2491C0A23B1FBF3F24C
:100D8000904630328255761C03FB1811F6B2303192
:100D90008155761CF1B2F022425406E08455761C4F
:100DA000F1B24454491CC9B24454491CC9B28B4ED7
:100DB0004454491C9DF80020B38FC9B29A423AD1DD
:100DC0009DF8012096F838309A4234D19DF80220DF
:100DD00096F82C309A422ED14554491CC9B23A2279
:100DE00000F801A0491CC9B24254491CC9B245547B
:100DF000491CC9B200F801C0491CC9B24254491C7F
:100E0000C9B200224554491CC9B20BF80170491CF3
:100E1000CEB29DF804002121FFF7E4FB9DF8050008
:100E200000224021FFF7DEFB9DF80600002223216F
:100E3000FFF7D8FB37E04454491CC9B2002245549F
:100E4000491CC9B200F801A0491CC9B200F801C090
:100E5000491CC9B24454491CC9B24454491CC9B2C2
:100E60004554491CC9B20BF80170491CCEB29DF81B
:100E700002002121FFF7B6FB9DF80000002223218C
:100E8000FFF7B0FB9DF80100401E0C2802D30120A3
:100E90008DF801009DF801104F48002200EB810001
:100EA0004021FFF78CFB9DF80A004B287FF49FAC94
:100EB000C1210BF80610761CF1B2E0220BF80120DC
:100EC000491CC9B2F2220BF80120491C9DF8090007
:100ED000C9B24FF0E50909280ED231300BF80100F4
:100EE000491CC8B2EA210BF80010401CC0B20BF834
:100EF0000090401CC0B220E0A0F109025A2A18D28A
:100F0000401C0A23B0FBF3F2904630320BF801206C
:100F1000491C03FB1800C9B230300BF80100491C12
:100F2000C8B2EA210BF80010401CC0B20BF80090C8
:100F300005E00BF80140491CC8B20BF80040401C0A
:100F4000C1B2264A0BF80140491C9DF80030968F2B
:100F50005846C9B2B3427FF404AC9DF8013092F810
:100F60003860B342F7D19DF8023092F82C209342BA
:100F7000F1D14554491CC9B200F801A0491CCAB2BC
:100F80003A218154521CD2B28554521CD2B200F87C
:100F900002C0521CD2B28154521CD1B201E01FE0F7
:100FA000ACE04554491CC9B20BF801709DF804002F
:100FB00000222121FFF716FB9DF8050000224021A9
:100FC000FFF710FB9DF8060000222321FFF70AFB24
:100FD0000DE487E1D5E002E1A002040000400240F8
:100FE000C0210BF80610761CF1B22E220BF80190EE
:100FF000491CC9B258460BF80120491CC9B2C1228C
:101000000BF80120491CC9B2D1220BF801E0491CA0
:10101000C9B25B464254491CC9B20BF80180491C55
:10102000C8B29DF80910092902D23131195414E0CF
:10103000A1F109025A2A0FD2491C4FF00A08B1FB4C
:10104000F8F606F130021A54401C08FB1611C0B223
:101050003031195404E05CE11C54401CC0B21C54F3
:10106000401CC1B2FF4E5C54491CC9B218465C54C6
:10107000491C9DF80020B38FC9B29A4225D19DF832
:10108000012096F838309A421FD19DF8022096F838
:101090002C309A4219D14554491CC9B23A2200F861
:1010A00001A0491CC9B24254491CC9B24554491C4B
:1010B000C9B200F801C0491CC9B24254491CC9B2A6
:1010C0004554491CC9B2475470E74454491CC9B23D
:1010D0004554491CC9B200F801A0491CC9B200F826
:1010E00001C0491CC9B24454491CC9B24454491CEA
:1010F000C9B24554491CC9B24754F3E0C0210BF8AA
:101100000610761CF1B22E220BF80190491CC9B2D0
:1011100058460BF80120491CC9B2C8220BF801201F
:10112000491CC9B20BF801E0491CC9B24354491C1F
:10113000C9B24754491C9DF80920C9B2092A02D2F4
:101140003132425412E0A2F109035A2B0DD2521C43
:101150000A25B2FBF5F303F130064654491C05FBA2
:101160001322C9B23032425403E04454491CC9B27C
:101170004454491CC9B24454491CC9B20BF801403B
:1011800026E79DF80A005A28FAD10BF80610761CBB
:10119000F1B2F1220BF80120491CC9B2EA220BF886
:1011A0000120491CC9B2F0230BF80180491CC9B2C7
:1011B00058460BF80130491CC9B22E224254491C32
:1011C000C9B2E02600F80190491CC9B24654491C36
:1011D000C9B24354491CC9B24254FFF72FBB9DF812
:1011E0000A005A28CCD10BF80610761CF0B2F02673
:1011F0000BF80060401CC0B2E0210BF80010401C4E
:10120000C0B2D8460BF80030401CC0B22E220BF8FA
:1012100000E0401CC0B2434608F80020401CC0B2A9
:1012200008F80090401CC0B208F80010401CC0B282
:1012300008F80060401CC0B21A54401CC0B208F844
:101240000040401CC1B287489DF80020838F9A421D
:101250002AD19DF8012090F838309A4224D19DF887
:10126000022090F82C0082421ED108F80150491C3F
:10127000C9B23A2208F801A0491CC9B2404608F890
:101280000120491CC9B208F80150491CC9B208F82C
:1012900001C0491CC9B24254491CC9B24554491C39
:1012A000C9B208F8017081E608F80140491CC9B2CA
:1012B000404608F80150491CC9B208F801A0491C71
:1012C000C9B208F801C0491CC9B208F80140491C5C
:1012D000C9B208F80140491CC9B24554491CC9B2F9
:1012E00008F801709DF8020000222121FFF77AF929
:1012F0009DF8000000222321FFF774F99DF80100FA
:10130000401E0C28FFF46AAA01208DF80100FFF7A7
:1013100065BA9DF8012096F838309A423FF4CEAA7B
:10132000FFF73FBA70B50446084615461E46FEF75D
:10133000F5FF4D4B0146FF2804D106E01A54641C0A
:10134000401CC0B22278002AF8D148480078002812
:1013500004D0002E02D029445F20585470BD2DE9DE
:10136000FF4F8146DDE90D048A469346FEF7D6FF1E
:101370002022DFF8F8803C490A234FF0640C012C4E
:1013800009D198F8005035B10D18A5F10E05AA70D5
:101390006A702A7020E099FBF3F603FB16970D188C
:1013A0003037A5F10E05022CAF7096FBF3F703FB67
:1013B000176606F130066E7099FBFCF606F13006F2
:1013C00005F80E6B08D198F800602EB1A5F10A055A
:1013D000AA706A702A7021E09AFBF3F603FB16A745
:1013E0000D183037A5F10A05032CAF7096FBF3F703
:1013F00003FB176606F130066E709AFBFCF606F1E9
:101400003006674605F80A6B08D198F800602EB1DF
:10141000A5F10605AA706A702A7029E09BFBF3F615
:1014200003FB16B70D183037A5F10605042CAF7075
:1014300096FBF3F703FB176606F130066E709BFB15
:10144000FCF606F13006674605F8066B10D198F8F1
:1014500000406CB1A5F102050A546A702A70BDE81B
:10146000FF8F000000400240AEC30720B5C0072038
:10147000039C94FBF3F203FB124430340C5492FBB4
:10148000F3F403FB14220844A0F10200303242704E
:10149000039991FBF7F101F130010170DFE710B51D
:1014A0000C46FEF73BFFB5490CB1032200E00422D5
:1014B0000A5410BD17B501EB810002EB8000C2B2E7
:1014C0009DF80030AE4803F00F0100EB1313445CAD
:1014D000AA498C54521ED2B21B788B549DF801300D
:1014E000521E03F00F04D2B2045D8C54521E00EB66
:1014F0001313D2B21B788B549DF80230521E03F0A6
:101500000F04D2B2045D8C54521E00EB1313D2B2FE
:101510001B788B549DF80330521E03F00F04D2B297
:10152000045D8C54521E00EB1310D2B20078885424
:101530001EBD30B593490123904D91F9012091F9D9
:10154000041000EB80048A4202D105F8243030BD3B
:101550008A4D4C1C00EB800005EB8000A24201D1BB
:10156000037530BD8C1CA24202D180F8283030BDFA
:10157000CC1CA24202D180F83C3030BD0C1DA242EE
:1015800002D180F8503030BD4C1DA24202D180F80B
:10159000643030BD8C1DA24202D180F8783030BD5D
:1015A000C91D8A42FBD180F88C3030BD764A138841
:1015B0005B1E1BB21380002B01DC002313809BB247
:1015C000184400B21080714A00EB800002446D485C
:1015D00013680360127902714278114441707047B8
:1015E000F0B5694D694FB5F9004004EB8406641C01
:1015F0002C80644C3E442568356025793571207017
:1016000061702271A370F0BDF0B505460E46174615
:10161000FEF77BFE594C0020401C15F8011BC0B2A0
:1016200004F8011B1428F7D35FF00000401C16F8E3
:10163000011BC0B204F8011B1428F7D35FF00000AF
:10164000401C17F8011BC0B204F8011B1428F7D383
:101650005FF00000401C13F8011BC0B204F8011B2E
:101660001428F7D3F0BD30B56425039C94FBF5F442
:10167000474D2C70474C2060474801604748026046
:101680004748036030BD2DE9FE4340010D4600F59B
:101690008060044602A933F0E4F9694604F10800C9
:1016A00033F0DFF901A904F10C0033F0DAF9284630
:1016B000FEF734FE314C202530262554401CC0B2A4
:1016C0004FF021082654401CC0B24FF0400C04F8E3
:1016D0000080401CC0B2232104F800C0401CC0B2EE
:1016E00000222554401CC0B22554401CC0B22654D0
:1016F000401CC0B22154401CC7B29DF802002121F9
:10170000FEF770FF9DF8000000222321FEF76AFF1C
:101710009DF80100401E0C2802D301208DF8010025
:101720009DF801001F49002201EB80004021FEF7D7
:1017300046FFE5557F1CF8B23A212654401CC0B242
:10174000002204F80080401CC0B22154401CC0B2EA
:1017500021212654401CC0B204F800C0401CC6B26F
:101760009DF80400FEF73EFF9DF805000022402191
:10177000FEF738FFA555BDE8FE830000AEC3072085
:101780002A0304002CC30720DAC40720CA6400100F
:10179000C3C0072004C3072008C307200CC30720C9
:1017A00010C30720A00204002DE9F047FC4E0027DB
:1017B000707F022801D086F82270DFF8E893DFF806
:1017C000E8A3DFF8E883B9F80000F94DF94C48B117
:1017D0002F802780B9F8020000287ED06F806780B4
:1017E000BDE8F087BAF90000B8F9022000EB8003E9
:1017F000EF48B2EB430FB0F90010EE48B0F900002B
:101800000EDA41F001012980C00718D10023082217
:101810000521E9A030F062FB208840F001000DE0D6
:1018200021F001012980C00709D0012308220521E8
:10183000E9A030F053FB208820F00100208098F8C8
:101840003F00C00728880FD040F002002880208881
:10185000800719D4022308220521E9A030F03EFBBD
:10186000208840F002000EE020F00200288020884E
:10187000800709D5032308220521EBA030F02EFBB9
:10188000208820F00200208098F83F0080072888F8
:101890000FD540F0040028802088400719D4042385
:1018A00008220521EDA030F019FB208840F004004B
:1018B0000EE020F0040028802088400709D5052389
:1018C00008221946D8A030F009FB208820F0040037
:1018D0002080B8F90800002800E07CE0288802DABF
:1018E00040F0080001E020F008002880707F012807
:1018F00001D1B07FA0B1288820F010002880208876
:10190000C00609D5072308220521DFA030F0E6FA3A
:10191000208820F010002080707F022811D021E064
:10192000288840F0100028802088C0061AD406239A
:1019300008220521DCA030F0D1FA208840F0100008
:10194000E9E7288840F020002880208880061AD403
:1019500008231A460521DCA030F0C0FA208840F0A8
:1019600020000FE0288820F02000288020888006B2
:1019700009D5092308220521DBA030F0AFFA208821
:1019800020F02000208096F822000028288810D01F
:1019900040F040002880208840063FF51BAF0A2316
:1019A00008220521D8A030F099FA208840F04000A4
:1019B0000FE020F040002880208840067FF50AAF25
:1019C0000B2308220521D9A030F088FA208820F0C6
:1019D00040002080FEE6BAF90000B8F94E1000EB96
:1019E0008000B1EB400F688847460FDA40F00100F5
:1019F00068806088C00719D1002308220521D5A07E
:101A000030F06CFA608840F001000EE020F0010038
:101A100068806088C00709D0012308220521D5A06D
:101A200030F05CFA608820F00100608097F88B004D
:101A3000C00768880FD040F0020068806088800787
:101A400019D4022308220521D4A030F047FA608877
:101A500040F002000EE020F00200688060888007FD
:101A600009D5032308220521D6A030F037FA608873
:101A700020F00200608097F88B00800768880FD5FF
:101A800040F0040068806088400719D404230822CD
:101A90000521D9A030F022FA608840F004000EE061
:101AA00020F0040068806088400709D505230822DB
:101AB0001946C4A030F012FA608820F0040060805B
:101AC000B7F954000028688802DA40F0800001E08D
:101AD00020F080006880707F012802D1B07F01284B
:101AE00014D0688820F0100068806088C00609D58E
:101AF000072308220521CBA030F0F0F9608820F000
:101B000010006080707F022811D021E0688840F0CA
:101B1000100068806088C0061AD4062308220521B8
:101B2000C8A030F0DBF9608840F01000E9E7688871
:101B300040F020006880608880061AD408231A4686
:101B40000521C8A030F0CAF9608840F020000FE0FD
:101B5000688820F0200068806088800609D5092305
:101B600008220521C7A030F0B9F9608820F02000D4
:101B7000608096F822000028688810D040F040006D
:101B80006880608840063FF52BAE0A2308220521B5
:101B9000C4A030F0A3F9608840F04000A4E193E1D4
:101BA000100000105002001050C10720FCF4072064
:101BB0008EC50720202300104241542023312041AC
:101BC0006C61726D2C206261747465727920697326
:101BD000206C6F77000000004241542023312041E7
:101BE0006C61726D20636C6561722C20626174742B
:101BF000657279206973206E6F74206C6F770000B6
:101C000042415420233120416C61726D2C2068695F
:101C1000676820626174746572792074656D70659F
:101C20007261747572650000424154202331204175
:101C30006C61726D20636C6561722C2062617474DA
:101C40006572792074656D70657261747572652056
:101C50006973206E6F726D616C0000004241542008
:101C6000233120416C61726D2C206D6178696D7536
:101C70006D20626174746572792074656D7065722F
:101C800061747572650000004241542023312C209C
:101C9000636170616369747920636865636B206454
:101CA000697361626C6564004241542023312C20C9
:101CB000636170616369747920636865636B206533
:101CC0006E61626C656400004241542023312C65D2
:101CD0007175616C697A696E6720636861726765A6
:101CE000206973206F6E00004241542023312C651F
:101CF0007175616C697A696E672063686172676586
:101D0000206973206F6666004241542023312C65A0
:101D10007175616C697A696E672063686172676565
:101D200020626C6F636B65640000000042415420C8
:101D300023312C657175616C697A696E67206368FF
:101D400061726765206973206E6F7420626C6F63C7
:101D50006B65640042415420233220416C61726DF6
:101D60002C2062617474657279206973206C6F77BE
:101D70000000000042415420233220416C61726D0A
:101D800020636C6561722C206261747465727920C5
:101D90006973206E6F74206C6F770000424154208D
:101DA000233220416C61726D2C2068696768206263
:101DB0006174746572792074656D70657261747593
:101DC0007265000042415420233220416C61726DE3
:101DD00020636C6561722C20626174746572792075
:101DE00074656D7065726174757265206973206EBB
:101DF0006F726D616C00000042415420233220411B
:101E00006C61726D2C206D6178696D756D206261F9
:101E100074746572792074656D7065726174757221
:101E2000650000004241542023322C206361706120
:101E30006369747920636865636B206469736162A8
:101E40006C6564004241542023322C206361706130
:101E50006369747920636865636B20656E61626C89
:101E6000656400004241542023322C657175616C19
:101E7000697A696E6720636861726765206973209B
:101E80006F6E00004241542023322C657175616CE5
:101E9000697A696E6720636861726765206973207B
:101EA0006F6666004241542023322C657175616C67
:101EB000697A696E672063686172676520626C6F1A
:101EC000636B65640000000020F04000688060885B
:101ED00040067FF585AC0B2308220521F5A02FF0E5
:101EE000FDFF608820F04000608079E42DE9FF412B
:101EF000FA4C0027054684F82170607F01210228F2
:101F000005D0F74A525D552A05D065200FE084F8C8
:101F10002110BDE8FF8105EB450202EB0513F14AF4
:101F200002EB830696F83D20D30703D0662084F8A1
:101F30002100EEE796F83F309B0701D56720F6E7D2
:101F4000920701D56820F2E7E74AB6F90830B2F9FE
:101F50000020934201DD6920E9E75242934201DA11
:101F60006A20E4E7012804D1A07F00287ED0012860
:101F70007DD0642084F821006177A4F86A1040F2D3
:101F80009A2032F0E5FDA5772946A4F86C5040F27E
:101F90009E2032F0DDFDD548B761002130F91500F3
:101FA00032F0D6FDE777A4F86E7039464FF428700A
:101FB00032F0CEFDCE48CF4D0088401C00F0070027
:101FC00006EB4000008CADF80000A88B8DF80400F3
:101FD0004FF063024FF0010101A8FEF750F9BF4C2A
:101FE0009DF80400D0342070287E8DF804000C2267
:101FF000012101A8FEF743F99DF804006070287BD9
:102000008DF804001F22012101A8FEF738F99DF880
:102010000400A0709DF80000E07040F2A22021684A
:1020200032F0D1FD287A8DF804001722002101A892
:10203000FEF725F99DF80400207128798DF8040039
:102040003B22002101A8FEF71AF99DF804006071F7
:1020500028788DF804003B22002101A8FEF70FF933
:102060009DF80400A0719DF8010001E007E008E080
:10207000E07140F2A620616832F0A5FD49E76B20CF
:1020800055E76C2053E72DE9F047944C607F012819
:102090007ED120460127807FE17FC0F1010207FA4F
:1020A00002F0924E8F4D02B211B1012933D037E0C8
:1020B0001423CA21C820FEF763F814234FF0FF321F
:1020C000CE21CD20FEF75CF8A07F00EB400101EBB4
:1020D000001005EB8000B0F90800FEF711F9A17FB0
:1020E00001EB410202EB011205EB820293691844F5
:1020F00048F6A0439061984212DBC01A906136F80E
:10210000110032F031FC401C01B2A07F36F9100002
:1021100032F01EFD04E01423CA21C820FEF730F877
:10212000A07FA84600EB400101EB001205EB820105
:10213000714AB1F902100025B2F9002040F29A2943
:1021400002EB8202B1EB420F42DAB4F86610491C8E
:1021500009B2A4F866101E293CDB617F012921D158
:10216000E17FF9B936F8100032F0FEFB01B26348A6
:10217000A27F30F9120032F0EBFCA07F36F810009D
:1021800032F0F2FB81B2A07F05F020F85C4800E05D
:1021900041E0A17F30F91100002132F0D9FC32205A
:1021A000A085E085A07F4E49C0F10100085C55285C
:1021B00007D06577A4F86A500021484632F0C8FC81
:1021C00008E0E777A4F86E7001214FF42870F5E776
:1021D000A4F86650A17F01EB410000EB0112C1F1B0
:1021E000010101EB410303EB011108EB820208EB53
:1021F0008100B2F90220B0F9020082420BDBE07FDD
:10220000012808D16577A4F86A504846BDE8F04730
:10221000002132F09DBC68E670B5304C05460026C2
:10222000607F60BB37480088012828D00221617791
:10223000A4F86A1040F29A2032F08AFCC5EB05102F
:10224000A4F862508000A4F8680015B91E20A4F814
:10225000680004F15E044FF42770B4F90A1032F0FC
:1022600077FCB4F90A104FF42A7032F071FC0020A8
:10227000E080208060800126304605F069F8304615
:1022800070BD10B5154C607F022812D104F12C04EA
:10229000E08E05F05DF800206086E086208704F877
:1022A0000F0CE0870146BDE8104040F29A2032F062
:1022B0004FBC10BD4241542023322C657175616CB6
:1022C000697A696E67206368617267652069732047
:1022D0006E6F7420626C6F636B6564001000001099
:1022E000F8C10720FCF4072056C107200CFC0300AE
:1022F00048C507202040024050C1072028FC0300A9
:1023000008FC0300B0C2072070B5FF4C94F83800F9
:10231000FE4D297808440C2803D9A08F401C01B237
:1023200001E0B4F93C10B82032F012FC94F83810F7
:10233000287801440C2994F8381000D90C3801444D
:10234000B62032F005FC94F82C001C2801D91C2181
:1023500001E094F82C10B42032F0FAFB04F12004D0
:10236000217A4FF0AE0032F0F3FB2179B02032F049
:10237000EFFB2178BDE87040B22032F0E9BB10B528
:10238000E248E34C007838B3DF48818FE14A128895
:10239000914221D190F83810DF4A128891421BD126
:1023A00090F82C10DD4A1288914215D190F828102F
:1023B000DB4A128891420FD190F82410D94A128832
:1023C000914209D190F82000D7490988884203D169
:1023D000012084F8200003E094F8200000280CD0AD
:1023E000D2480088C0B2FFF717FF002805D00020B0
:1023F00084F82000BDE8104086E75AE738B5C44CA1
:10240000607F02281DD1CA48007801281AD0C94827
:102410000088002816D0012084F82200C6480078E1
:102420004FF00A01B0FBF1F201FB1200002808D1C5
:1024300041F288300090C1A3C6A2CCA1D1A0FFF781
:1024400012F938BDB4F860004FF46161002588428C
:1024500012D2401C80B2A4F8600088420CD3A4F8C9
:102460006050B4F8620038B1401E24F8620F6088F2
:10247000401C6080A4F16204B4F85E003C2822D2C3
:10248000401C80B2A4F85E003C281CD324F85E5F98
:102490006089401E01B261814FF4277032F058FB11
:1024A0006089A4F15E0418B1BC48008801280AD1F3
:1024B0006577A4F86A50002140F29A2032F048FB78
:1024C000002004F045FF84F8225038BD904910B533
:1024D0004A7F0020002A0ED1B04A1288012A0AD071
:1024E000CA78002A07D10120C87001464FF4C9708C
:1024F00032F0F7FA0120DCE68548C178002905D0E2
:102500001021C1704FF4C97032F0EBBA70478049A6
:1025100010B54A7F0020002A0ED1A04A1288012A55
:102520000AD0CA78002A07D10120487101464FF429
:10253000CA7032F0D6FA0120BBE67548417900290D
:1025400005D0132141714FF4CA7032F0CABA7047F6
:1025500093486FF03B010088C0EB001001EB800056
:102560006B49A1F84E0070472DE9F05FDFF8A091AC
:102570008B480026B9F84E108A4F491C09B2A9F8B9
:102580004E10B0F90000884DC0EB00124FF0010B67
:1025900009F154044FF00A08B1EB820F58DBF0B395
:1025A000A9F84E602670DFF804A2667089F81760FB
:1025B0009AF80000552811D1B5F9020050280DDD18
:1025C000B5F90800FDF79CFEB7F90010884203DB5F
:1025D00095F83D00C00701D084F800B09AF80100DA
:1025E000552811D1B5F94E0050280DDDB5F954002C
:1025F000FDF786FEB7F90010884203DB95F88900E5
:10260000C00701D084F801B06948007880B999F812
:102610001810484661B1417F19B1022900E017E066
:1026200006D1C17821B9417911B96249097821B13E
:102630002670667089F8176008E0217801291DD09E
:10264000617801291AD0C17D012917D0A9F85060FD
:102650004846B9F95010DFF8B890DFF85CA109F1ED
:102660008209F1B383460246491E08B2A2F850001F
:10267000052806DD0F231E22642107E0A9F85080FB
:10268000E6E700281BDD0F231E226921E120FDF76C
:1026900077FDBBF85000052811D1B5F90800FDF70A
:1026A0002FFEA9F80000B5F95400FDF729FEA9F89E
:1026B0000200BAF90000FDF723FEABF856001448FB
:1026C000B0F8500000281ED1AB46B5F90800FDF760
:1026D00017FE0F4D86352880BBF95400FDF710FE1C
:1026E00000E094E06880BAF90000FDF709FEDFF829
:1026F00020A0AAF85800AAF85260B9F90000B5F96C
:10270000001008445AE07DE000400240BEC00720AF
:102710001000001006C2072004C2072002C20720D2
:10272000FCC10720FEC1072000C2072008C2072005
:10273000C8C2072060C2072020400240202020207D
:10274000C2C5CDD2C8CBDFD6C8DF212121202020B1
:10275000000000002020202020CDC5C8D1CFD0C04F
:10276000C2CDC020202020200000000020202020FA
:10277000C7C0C1CBCECAC8D0CEC2C0CD2020202079
:1027800000000000C2DBD0C0C2CDC8C2C0DED9C8C4
:10279000C920C7C0D0DFC42000000000B0C207209D
:1027A00068C1072056C10720FCF40720F8C10720A4
:1027B000C7C0072083C0072062C20720B7F90010F6
:1027C000884202DA2078012817D0BBF90200C82815
:1027D00004DD00212670084604F0CEF9B9F90200A4
:1027E000B5F902100844B7F90010884202DA60789F
:1027F000012805D0BBF94E007AE0AAF85280EDE737
:10280000AAF85280BDE8F09F66700021E5E0B0F9BB
:102810005210E9B380460246491E08B2A2F852009F
:10282000052803DD0F23C822642104E000281BDDF6
:102830000F23C8226921E120FDF7A2FCB8F852005D
:10284000052811D1B5F90800FDF75AFDA9F80000D7
:10285000B5F95400FDF754FDA9F80200BAF90000DB
:10286000FDF74EFDA8F85600FF48B0F852000028CA
:10287000C8D1DFF8F883B8F90800FDF741FDFA4D3B
:1028800086352880B8F95400FDF73AFD688000E0ED
:1028900037E0BAF90000FDF733FDDFF8CC83A8F884
:1028A000580088F81660B9F90000B5F9001008441E
:1028B000B7F90010884202DA207801281BD0EB48D3
:1028C000B0F90200C82804DD00212670084604F093
:1028D00053F9B9F90200B5F902100844B7F900102C
:1028E000884202DA6078012808D0E048B0F94E004A
:1028F000C82889DC86E788F816B0EAE788F816B0B9
:1029000080E78146807D0028F4D00F2300226E21CD
:10291000E120FDF735FCB5F90800FDF7F1FCB7F94A
:102920000010884207DD2078012804D1002126709C
:10293000084604F021F9B5F95400FDF7E1FCB7F9B8
:102940000010884206DD6078012803D166700021FE
:1029500004F012F9207830B9607820B999F817108E
:1029600009B989F81660E620FDF721FC18B1C048C6
:102970000068E7280AD0BF48BF49B0F90000B1F9A4
:10298000001000EB8000B1EB400FB3DA89F816605D
:102990002078BA4E01280FD1B7F90000410091FB11
:1029A000F8F0B6F90010884206DA95F83D00C00745
:1029B00002D1012104F0E0F8607801289AD1B7F93A
:1029C0000000410091FBF8F0B6F90010884291DA5E
:1029D00095F88900C0078DD10121BDE8F05F012085
:1029E00004F0CAB82DE9F0479F4CB4F84C00401CE5
:1029F00000B2A4F84C00B0F5E16F03DB0020A4F8AE
:102A00004C0008E4B0F5DF6F13D9607988B90F2363
:102A100001226421D220FDF7B3FB0F230022D8212D
:102A2000D720FDF7ADFB0F230022D821DC20FDF7D6
:102A3000A7FBB4F94C00A0F5E0610739E1D160795A
:102A40000028DED18E4F8F4C884D388821880A2689
:102A5000DFF83482DFF83492884210D0B5F90800EC
:102A600090FBF6F000B2FDF74BFCB8F9001088427D
:102A700005DAB4F90010B9F9000032F069F8788885
:102A800061888842BDD0B5F9080090FBF6F000B22D
:102A9000FDF736FCB8F900108842B2DAB4F902103A
:102AA000B9F90200BDE8F04732F052B810B5784CE1
:102AB000082200212088401C20802046FDF7F5FBDD
:102AC0006A48B4F9001000EB410142880A84B0F86A
:102AD0004E00A1F86C0090E470B56F486D4DB0F9F0
:102AE00000306E48B5F9002090F900109A421BDAC8
:102AF0006B4C0A290EDA6B4BB3F900300F2B0BDD50
:102B0000491C49B201700A2906DB2280012003F02A
:102B100047FB01E00A210170B5F90000B4F900108B
:102B2000884200DA208070BDFDDD0029FBD0491EFF
:102B300049B201700029F6DCBDE87040002003F0C6
:102B40002FBB2DE9F05F58480A21DFF860C10088EB
:102B5000DFF840A1B0FBF1F201FB12024249DFF8BD
:102B6000509141F27075CE8E3AB9B0F5166F04D01F
:102B7000B0F5965F01D0A84261D150494D4A4E4B05
:102B800099F8F473B1F90040B2F90020B3F90030BC
:102B9000DFF82CE14B49DFF830B14846072F25D04C
:102BA000564396FBFCF0494AAEF80000B2F9060025
:102BB000584390FBF5F00880B2F91400604390FB95
:102BC000F5F0ABF80000BEF90020AAF80020B1F93A
:102BD00000105046914200DA0180BBF90010B0F9B4
:102BE0000020914233DAAAF8001030E000F2FA3007
:102BF000DFF874C0067847780CF1BC0C06EB0726AA
:102C00001FFA86F8ACF800808678C77808FB02F8CF
:102C100006EB0726B7B2ACF80270067998FBF5F21E
:102C200099F8FF0307FB03F706EB002080B2ACF82E
:102C30000400AEF8002097FBF5F20A80BEE72448B6
:102C4000B0F90000464396FBFCF0AAF80000DFF85C
:102C50007C80204F4FF4FA66B8F90020B7F90010D5
:102C6000514391FBF6F137E010000010FCF407200F
:102C70000801001050C1072064C2072066C2072067
:102C80002C0100103663001060C1072034FC0300E3
:102C900048C5072074C2072052C107204CC5072031
:102CA00052010010E2C00720FAC10720B0AD0100B8
:102CB00084F707203C01001038C507203E010010B2
:102CC00076C2072078C207207AC20720BCF307200B
:102CD0003401001028010010FF4C6180B8F9082071
:102CE000FE4BB3F90010514391FBF6F1A180B8F906
:102CF0001810B7F902204A4392FBF6F1A4F84E10DF
:102D0000B8F90210B3F90200484390FBF6F0A4F8BA
:102D10005000DC20FDF76BFAE8BBF148DFF8C4B3E4
:102D2000DFF8C4E30088BBF8001045F69262401A51
:102D3000BEF9001045F213674143EC484FF47A7C2A
:102D40000088A0F5BC43383B01D0904204D14FF439
:102D5000967391FBF3F10CE0A0F5AA43FA3B03D084
:102D6000B84201D0173B02D191FBF6F101E091FB93
:102D7000FCF12181DA49BBF802304988CB1ABEF94F
:102D800002105943A0F5BC43383B01D0904206D114
:102D90004FF4967000E011E091FBF0F00CE0A0F52C
:102DA000AA42FA3A03D0B84201D0173A02D191FBB5
:102DB000F6F001E091FBFCF0A4F85400B8F90C1017
:102DC00040F6B7370A46A1F22131012300208B4695
:102DD000B94201D2207300E02373C64944F620684B
:102DE000DFF80CC3B1F90010BE46514391FBF8F176
:102DF000A1F211116181BCF90E108C46A1F22131B2
:102E0000714502D284F8580001E084F85830B9497D
:102E100044F62067B1F9021001FB0CF191FBF7F1C8
:102E2000A1F21111A4F85610B349DFF8D0C2B1F9DC
:102E30000010022902D0042919D056E0BCF928104C
:102E4000052906DABCF81E1019B9BCF81410618106
:102E50002073BCF95210052947DABCF84810F1BBC1
:102E6000BCF83E10A4F8561084F858003DE0BCF9B8
:102E700028706FF013084146052F05DABCF81E7064
:102E800017B9BCF914102073BCF95270052F08DA79
:102E9000BCF848702FB9BCF93E708F4201DD207339
:102EA000394611F1140700D06181BCF97C10052965
:102EB00006DABCF8721019B9BCF9688084F85800B9
:102EC000BCF9A610052909DABCF89C1031B9BCF987
:102ED0009210414502DD84F85800884600E004E085
:102EE00018F1140101D0A4F85680DFF80482844F51
:102EF000B8F90410B7F90070794391FBF6F1814EEF
:102F000077463180B8F90A607F49B446A6F2213687
:102F1000BE4201D2087000E00B70DFF8F0E1DFF88C
:102F2000F081BB45BEF9006006FB0CF644F6206C50
:102F300096FBFCF6A6F21116A8F8006001D24870C4
:102F400000E04B70BEF90260F346564396FBFCF27C
:102F5000A2F2111212B2A8F802209646644AB2F9FF
:102F60000620A2F22136BE4201D2887000E08B70AA
:102F7000BBF90430674E534393FBFCF2A2F21112EB
:102F800012B2DFF894C1A8F8042093463388BCF944
:102F900000204FF47A685A4392FBF8F25F4B92B2EA
:102FA0005F4F1A80642A01D3BAF800203A807288F1
:102FB000BCF90260DFF870C1564396FBF8F25A8004
:102FC000584ABCF90030B2F90060734393FBF5F640
:102FD000564B1E80B2F90270BCF902607E4396FB2C
:102FE000F5F65E80BCF90470B2F90460DFF840C108
:102FF000774397FBF5F69E80B2F90660BCF9003086
:10300000734393FBF5F64B4B1E80B2F90870BCF985
:1030100002607E4396FBF5F65E80B2F90A60BCF969
:103020000420724392FBF5F29A800EF2111213B251
:10303000414E0BF2111215B2338075804A7832720C
:10304000897871723D4E22B1012A0ED012B10DD095
:1030500020E011B1012910D01CE0591901EBD17108
:103060006FF4887202EB610113E011B1012908D0FD
:1030700010E0A5F2111535800CE0A3F21113338096
:1030800008E02F490978052902D22E49098800E075
:10309000142131802C490A78552A07D1B4F902202D
:1030A000C82A03DD294A2389A2F8463049785529E0
:1030B0000CD1B4F94E10C82908DDB4F95410B4F994
:1030C0000820914202DD214AA2F846102049002240
:1030D000B1F900506DE00000FCF4072028C507207E
:1030E000366300102C0100102CC50720FAC1072000
:1030F000BCF3072030010010ACC10720E0F5072029
:1031000036C5072064C20720C5C20720360100105B
:1031100066C3072058C5072030C507206CC30720A9
:1031200090C20720200E08206401001072C30720FF
:1031300060C5072078C30720CC0D082082C2072075
:10314000D4C007205EC50720F8C10720100000107A
:10315000A0C10720C2EBC20101EB021309EB8301FE
:10316000CB78192B1CD28B79CE7903EB06234B62DB
:103170000B7A4E7A03EB06230B628B7ACE7A03EB43
:103180000623CB610B7B8B624B7B81F852308B7BB0
:1031900081F842300B7C4E7C03EB0623CB6406E0C7
:1031A000C86148620862886281F84200C864521CA3
:1031B000D2B2AA42CEDBB4F908300A2293FBF2F372
:1031C000B4F95440FB4994FBF2F21A44524214B24F
:1031D000DFF8E4C30C800022ACF800004B4610E09E
:1031E000C2EBC20606EB021603EB8607FE78052E3D
:1031F00005D27E6ABCF800703E44ACF80060521CF8
:10320000D2B2AA42ECDBBCF80020224412B20A80FF
:10321000002A00DA0880E949B1F90050002D61D098
:103220000024DFF89CC35BE0C4EBC40101EB041194
:1032300003EB810191F83327192A37D201F2367155
:103240000A784E7802EB062604EB44020CEB42129D
:10325000D6618E78CF7806EB0726D6620E794F7945
:1032600006EB072696618E791662CE7982F8466063
:103270000E7A4F7A06EB072696628E7ACF7A06EBA5
:103280000726566290700E7B82F859604E7B82F85A
:103290005A608E7B82F85860CE7B82F85B600E7C31
:1032A00082F85C60497C82F85D1017E004EB440111
:1032B0000CEB41111922C861C8628861086281F86B
:1032C0004600486288628A7081F8590081F85A0085
:1032D00081F8580081F85B0081F85C00641CE4B25E
:1032E000AC42A1DBBDE8F09FB64AB748117805298A
:1032F00001D0012905D1517819B9B4490978552966
:1033000002D0B349098803E00178002901D0491EA1
:1033100001707047AF48416821F4402141F4802199
:103320004160416821F4403141F48031416041689D
:1033300021F4404141F480414160416C21F440213D
:1033400041F400214164416C21F4403141F40031E9
:103350004164416C21F4404141F4004141649E4884
:10336000016821F0E0610160016841F40011016031
:10337000016821F480310160016821F47F4141F44A
:10338000807101608115C1609448890301607047B4
:103390002DE9F041924C60882188401A00B204F077
:1033A000FDFCA51D2880A0886188401A00B204F0A9
:1033B000F5FC6880A0882188401A00B204F0EEFC79
:1033C0004FF49672A880A4F1C201904201DAA0885D
:1033D0000AE0B5F90200904201DA608804E0B5F92C
:1033E0000000904201DA2088088791F809C0002384
:1033F000BCF1000F25D07B48B1F938200468144493
:103400000460446814444460846814448460C4685C
:103410002244C260B1F84020521C12B2A1F84020F0
:10342000B2F5805F01DBA1F84030B1F9402094058E
:103430002ED1921250F822402412CC8640F822302D
:1034400026E0694F887ACC7A07EB8015B1F93820ED
:1034500045F82420A2070FD100252A4607EB801645
:1034600056F82270521CD2B23D44102AF8D32A11C9
:103470005C4D203D25F81020401CC0B288721028F9
:1034800006D3641CE0B28B72C872102800D3CB72D2
:103490000CF1010C0B721CF001004F4A487205D070
:1034A000106820F0FF00001D106034E0897A0807E2
:1034B0000028106820F0FF0002DB00F1010001E0AD
:1034C00000F1020010604948036843F08053036034
:1034D000036A43F080430362036E43F08063036634
:1034E000CB07436908D043F0805343618B07436B9C
:1034F00005D423F0804304E023F08053F5E743F044
:10350000804343634907416F02D421F0806101E0A9
:1035100041F080614167106840F080701060BDE844
:10352000F081F0B52E49C239B1F9300018B1A0F1DF
:1035300001000886ADE04FF0000C2E4B81F815C05D
:1035400060462B4AB3F9005011E000BFC0EBC00346
:1035500003EB001302EB83039C78012C05D1DB788D
:10356000142B02D24B7D5B1C4B75401CC0B2A84291
:10357000ECDB4E7D022E5BD3194841F28833423892
:10358000C0E903C30023C0F814C039E0C3EBC3048F
:1035900004EB031402EB8407BC78012C2ED17C6A67
:1035A000C768BC4200DDC4600769BC4200DA046140
:1035B000476921E066C207205C010010A2C1072014
:1035C000F00108202CC307207AC00720BFC00720C5
:1035D0000AC2072000C002400040034000E100E0B2
:1035E000D2000010DCF30720BCEF072000C0092048
:1035F00084F70720A0C107203C4444615B1CDBB278
:10360000AB42C3DB4369012493FBF6F7876103698F
:1036100003B90461C36864267343066993FBF6F338
:10362000C361A02B00DD0C75782B02DA81F814C081
:103630002FE0087D01282CD100216FF0310426E015
:10364000C1EBC10000EB011002EB80008378012B7D
:103650001BD1436ABB4205DDB0F85030A3F1010332
:10366000A0F8503005DAB0F8503003F10103A0F8AB
:103670005030B0F95030A34202DAA0F8504004E0D4
:10368000322B02DD3223A0F85030491CC9B2A942C6
:10369000D6DB00BFF0BD2DE9F047F9480168F94AD3
:1036A00011400160F84C216841F47C712160C169CE
:1036B00021F44021C161216E41F000712166416811
:1036C00021F040614160206840F000502060F048E7
:1036D000EE4B0278EF4893F83C500178EE481543E2
:1036E000B0F9000007D031B1052804DDA56945F423
:1036F0008075A56103E0E56945F48075E56193F89F
:103700008830134307D031B1052804DDA06940F0AB
:103710004000A06103E0E06940F04000E061D22099
:10372000FCF765FDDD4D60B12868642809D1686843
:10373000012801D028B108E0A06940F00050A06144
:1037400003E0E06940F00050E061D220FCF74FFD5B
:10375000D34E10B12868662815D03068C007A0B1D4
:10376000A06F40F00070A067D220FCF740FD10B1C0
:1037700028686C280ED03068800710D4E06940F0CB
:103780001000E0610FE06868E9E7E06F40F000706A
:10379000E067E9E768680028F0D0012803D1A06954
:1037A00040F01000A061D220FCF721FDDFF8F48288
:1037B000BD4F10B128686D280BD098F80000022882
:1037C0000DD0306840070DD4E06940F40070E0612E
:1037D0000CE068680028F7D0012803D006E03878AC
:1037E0000028F1D0A06940F40070A061D220FCF75D
:1037F000FEFC10B128686A2804D0306810F4FF6F0E
:1038000005D009E0686810B1012805D008E0E0693A
:1038100040F08000E06103E0A06940F08000A0611A
:10382000D220FCF7E4FCA14910B128686B2806D02F
:1038300098F80000012804D0087820B108E06868F2
:10384000FBE7387820B1A06940F02000A06103E0D8
:10385000E06940F02000E0619548008801287ED1B1
:1038600000234D7FDFF84C82DFF84CC2934CDFF829
:10387000509218465FF0010239F91010CE070ED0B1
:10388000904E914FB6F90060B7F9007006EB8606CE
:10389000B7EB460F03DA02FA00F61E43F3B28E07C7
:1038A00007D58A4E3678022E03D102FA00F61E435F
:1038B000F3B24E0705D5022D03D102FA00F61E43DE
:1038C000F3B20E0706D5824E36681EB102FA00F634
:1038D0001E43F3B2CE0607D598F80060012E03D13F
:1038E00002FA00F61E43F3B28E0607D598F8006080
:1038F000022E03D102FA00F61E43F3B24E061BD588
:103900009CF80160F60603D5B4F90060012E0FDAC9
:103910009CF85D60F60603D5B4F90060022E07DA64
:103920009CF8B960F60607D5B4F90060032E03DBF6
:1039300002FA00F61E43F3B20E061DD59CF8016094
:10394000360703D0B4F90060012E11DA9CF85D60EF
:10395000360703D0B4F90060022E09DA00E018E05F
:103960009CF8B960360707D0B4F90060032E03DB7A
:1039700002FA00F61E43F3B2090403D402FA00F17E
:103980005940CBB2401CC0B20428FFF475AF514877
:103990000370BDE8F0872DE9F05F444C00254FF03F
:1039A0000108E07E0A2807D2401CC0B2E0760A284F
:1039B00002D3E57684F81C80A4F85A50A4F85C5031
:1039C000CD20FCF714FC3C4EDFF8F090A0B3334858
:1039D0004FF6FF720168CE2908D0CF2909D0D1292E
:1039E00009D0D2290BD0D0290CD011E0A4F85C204A
:1039F0000EE040680AE04068A4F85A0008E0A4F825
:103A00005A2005E04068A4F85A00C043A4F85C00BE
:103A100000272FE008FA07F0B4F85C10824608424D
:103A2000C7EBC70000EB071006EB800005D030F8AD
:103A3000401F491C018002E04EE0A0F84050C7EB57
:103A4000C70000EB071006EB8000834640303222AF
:103A50000021FCF71FFCBBF94000142801DD8BF8A6
:103A60002C80B4F85A101AEA010F01D08BF82C50B0
:103A70007F1CFFB2B9F900008742CBDDB0E0000047
:103A800000C00240FF00F0FF00C00920FCF4072046
:103A9000260100107FC00720E2C0072008010010A7
:103AA00024C00720BAC0072022C50720100000103C
:103AB000B0C10720D8C0072084F70720A0C1072085
:103AC0007EC3072050C1072064C2072083C007209F
:103AD00020C0072080010010207FE8B34FF0000CC9
:103AE0006146B9F9000009E0C1EBC10202EB011225
:103AF00006EB8202491C82F82C80C9B28142F3DDB8
:103B0000002121E0C2B2202A00D9202294F82330DB
:103B1000834200DB00230B44DBB2B3FBF2F702FB72
:103B20001732C2EBC20303EB021206EB82039A7850
:103B3000022A01D0012A05D10CF1010C83F82C5086
:103B40000CF0FF0C491CC9B2814204DAFF4AB2F9F9
:103B500000209445D6DB00E042E094F82410C1EB4D
:103B6000C10202EB011106EB810181F82C50F849EA
:103B7000B1F900103C290DDA002109E0C1EBC102C6
:103B800002EB011206EB8202491C82F82C50C9B2EA
:103B90008142F3DDEF49098871B100210AE000BFDD
:103BA000C1EBC10202EB011206EB8202491C82F852
:103BB0002C80C9B28142F3DD00216FF031030DE0AA
:103BC000C1EBC10202EB011206EB820292F82C70EB
:103BD000012F01D1A2F85030491CC9B28142EFDD5A
:103BE00000206323B9F900200EE000BFC0EBC00144
:103BF00001EB001106EB8101CF6B1FB181F82C3076
:103C00007F1ECF63401CC0B29042EFDB25770020BF
:103C10002576014612E000BFC1EBC10303EB01139F
:103C200006EB83039F78012F06D1277E7F1C277622
:103C3000DB69834200DD98B2491CC9B29142EBDBDB
:103C400004F12604C449A084657004F82689B1F9FA
:103C5000001047464FF00000A1F1050312E000BF3D
:103C6000C0EBC00C0CEB001C06EB8C0CDCF828C085
:103C70008C4501DB84F827709C4501DB84F82650D5
:103C8000401CC0B29042EBDB94F8270001280BD017
:103C900094F82800002805D094F82600002801D0C8
:103CA00084F82850BDE8F09F84F82870FAE770B5D2
:103CB000AA480A21AA4D036800242868B3FBF1F240
:103CC000B0FBF1F6A748B2420AD102780F2A01D21E
:103CD000521C0270D0B20A2803D3A348036000E04C
:103CE00004702B60A148A24BB0F90020B3F900008A
:103CF000B2FBF1F5B0FBF1F19E488D420AD101789B
:103D00000F2901D2491C0170C8B20A2803D39A486E
:103D1000028000E004701A8070BD2DE9F04F974CCE
:103D20008D23974EB4F93200322785B04FF00A0C3C
:103D30004FF00108002518B1401E00B26086E8B3BC
:103D40006078E0B38D49B1224FF00308B1F97610E5
:103D5000022861D0A3468124D2234FF0820C4FF079
:103D6000CF0E4FF028094FF0A90A04286ED008287A
:103D70007DD014282CD100292AD150208DF80400A0
:103D80008DF808008DF805E0D7218DF800408DF8FA
:103D90000610E4208DF80130C5218DF809908DF8CA
:103DA00002208DF807108DF80AA08DF80C008DF810
:103DB00003C08DF80B800D21684601E00BE016E092
:103DC00035F08FFB358015218BF80110ABF8327080
:103DD00005B0BDE8F08F6570A07818B1012804D057
:103DE000A57004E084F8028001E00220A070AF20FA
:103DF0008DF800003F208DF8010021208DF8020091
:103E00008DF803308DF804C00521684635F069FB54
:103E1000358084F8018017E00029D9D106208DF87B
:103E2000000030208DF8010035208DF802008DF85B
:103E300004308DF803208DF805C00621684635F062
:103E400050FB358084F801806786C1E70029BFD127
:103E50008DF8004056208DF801308DF804008DF863
:103E600002208DF803C08DF805E0CC2000E017E0BB
:103E70008DF80600D4208DF8070041208DF8080049
:103E80008DF809905F208DF80AA08DF80C008DF850
:103E90000B800D21684635F024FB3580052193E722
:103EA000002995D1C3208DF8040055208DF8050018
:103EB000C5208DF808008DF800408DF801308DF890
:103EC00009905A208DF802208DF806308DF80AA04E
:103ED0008DF80C008DF803C08DF807308DF80B803D
:103EE0000D21684635F0FDFA358009216CE72DE992
:103EF000F04FDFF8909089B0DFF88CB099F800109F
:103F0000DFF878A0491CC9B289F800104FF000080A
:103F10000A2902D389F8008000E0E9BB9AF818105A
:103F20005046C9B3417FC2789AF805001143014356
:103F30009BF80000014363D1144E3078401C307070
:103F40001348B0F900201348028026E052C507202C
:103F5000E2C0072078C507204CC1072068C50720AC
:103F60006C0100106EC5072024C3072070010010EB
:103F70006CC507207201001094C2072010000010C9
:103F800074630010DAC0072083C00720160E0820D3
:103F90006CC20720B8C2072032E0FF48DFF8FCC33C
:103FA000B0F900403046BCF900104078FC4BA2420A
:103FB000B3F90050FB4BB3F900300CDD171B052F94
:103FC00009DB012B03D0022B05D1052D03DD401C9D
:103FD0007070491E0DE0A2420DDAA21A052A0ADB12
:103FE000012B03D0022B06D1052D04DD401E70707D
:103FF000491CACF8001064225142E848FCF74AF929
:10400000E8480088012865D19AF81D109AF8032025
:10401000504611439AF8052011439BF800201143A4
:1040200058D199F80010E04AE04D082954D0E049F1
:10403000B0F92E406FF01406B1F90030BAF94E0015
:10404000C3EB031106EB810686420BD06FF013061B
:1040500006EB8106864205D06FF0120606EB810161
:10406000814201D143F4804410888DF80C00062071
:104070008DF80D008DF80E8064208DF80F00E0178C
:1040800004EB106001128DF8101020468DF811001D
:10409000062103A833F0A2FC8DF8120000128DF85F
:1040A0001300062103A833F099FCC2480480B5F937
:1040B0000000B8B302280DD19DF811009DF8101032
:1040C000CDE9001064230022CDF8088006210520E8
:1040D00035F0DCF909B07CE610888DF80C0004207E
:1040E0008DF80D008DF80E8002208DF80F008DF8F0
:1040F000108001248DF81140062103A833F06EFCD6
:104100008DF8120000128DF81300B5F9000050B1BF
:104110000228DFD1CDE90084022300220421CDF85A
:104120000880D4E709E0002403AD285D34F0D0FE18
:10413000641CE4B2082CF8D3CCE7002403AD285D5E
:1041400034F0C6FE641CE4B2082CF8D3C2E72DE9B3
:10415000F0410746C0EBC700974900EB071011F884
:104160002020032A73D101EB800494F84250A80761
:10417000B4F9460010D54FF4966188421ADA401C13
:1041800000B2A4F84600884214DBA4F84610607818
:10419000C0070FD1012209E060B1401E00B2A4F8AF
:1041A000460038B96078C00704D0002200213846A4
:1041B00002F069FA2807B4F948004FF00A064FF0F8
:1041C00000010ED50A281FDA401C00B2A4F84800EE
:1041D0000A2819DBA4F848606078800714D401220B
:1041E00009E000280DDDA0F1010000B2A4F84800AC
:1041F00050B94FF000024FF00101384602F043FA87
:1042000002E001DAA4F84810E806B4F94A000ED535
:104210000A2817DA401C00B2A4F84A000A2811DB69
:10422000A4F84A60607840070CD4012206E048B147
:10423000401E00B2A4F84A0020B9002202213846EC
:1042400002F021FA6078000702D0042012E029E091
:104250005A48007820B1E078142801D9052009E0F7
:1042600094F84200800601D5022003E0E07814288B
:1042700001D20120A070E0780A2894F82C0002D323
:1042800040F0800001E000F07F004A4984F82C00F3
:104290008039B4F95000B1F92C10084420634FF470
:1042A0007A706063BDE8F08170B545490020454DE6
:1042B000B1F90C200121034601FA00F4224201D099
:1042C000295400E02B54401CC0B20C28F4D33E4CBF
:1042D00028783E4E217881420CD0B6F90010012991
:1042E00008DB012854D0002301220B2138A000BF95
:1042F0002DF0F4FD6178687881420BD0B6F900109A
:10430000022907DB012844D0002302220B2135A01B
:104310002DF0E4FDA178A87881420BD0B6F9001009
:10432000032907DB012835D0002303220B2132A00B
:104330002DF0D4FDE178E87881420BD0B6F9001079
:10434000042907DB012826D0002304220B212FA0FB
:104350002DF0C4FD2179287981420BD0B6F90010E7
:10436000052907DB01287ED0002305220B212CA084
:104370002DF0B4FD6179687981425FD0B6F9001003
:1043800006295BDB01286FD0002306220B2151E0B8
:1043900090E094E098E09CE0BAC20720BCC20720FD
:1043A0007CC50720C2C10720C6C10720C4C10720A1
:1043B00068C107209000001084F70720C7C00720BD
:1043C000200E0820EA0D0820340E0820AAC107207C
:1043D0004176746F6D6174202331206973204F46DC
:1043E000460000004176746F6D61742023322069AD
:1043F00073204F46460000004176746F6D61742053
:104400002333206973204F46460000004176746FC5
:104410006D6174202334206973204F4646000000EC
:104420004176746F6D6174202335206973204F4687
:1044300046000000F7A000BF2DF050FDA179A8793B
:1044400081420BD0B6F90010072907DB01284FD0B5
:10445000002307220B21F4A02DF040FDE179E8793B
:1044600081420FD001E039E03DE0B6F900100829A3
:1044700008DB012841D0002308220B21EFA000BF58
:104480002DF02CFD217A287A81420BD0B6F900104C
:10449000092907DB012835D0002309220B21ECA0D4
:1044A0002DF01CFD0020295C2154401CC0B20C28BA
:1044B000F9D370BD01231A460B21EAA018E70123A6
:1044C00002220B21ECA023E7012303220B21EFA002
:1044D0002EE7012304220B21F1A039E70123052255
:1044E0000B21F4A044E7012306220B21F6A0A3E749
:1044F000012307220B21F9A0AEE7012308220B219B
:10450000FBA0BDE7012309220B21FEA0C8E770B57F
:10451000C820FBF76CFE0022FF49A0B3FF4C01232B
:104520002068C92803D0CA28104611D02CE00020EA
:1045300000EB400404EB001411F82450322D02D299
:104540006D1C01F82450401CC0B20228F0D325E0B5
:10455000D4F8045003FA00F4254200EB400409D0DB
:1045600004EB001611F82640322C07D2641C01F827
:10457000264003E004EB001401F82420401CC0B2E4
:104580000228E7D30AE01FE000EB400404EB00142C
:10459000401CC0B201F824200228F5D35FF00000CF
:1045A00000EB400404EB001411F8245001EB8404E8
:1045B000142D02D984F83C3001E084F83C20401CE2
:1045C000C0B20228ECD370BD00EB400303EB001334
:1045D000401C01F8232001EB8303C0B283F83C2088
:1045E0000228F1D370BD2DE9FE4F0546CC4830F9C5
:1045F000151011B1491E20F81510C949091D31F9CE
:10460000152012B1521E21F8152005EB4502C24BB0
:1046100002EB051203EB8204C24B0292B4F90820AC
:10462000B3F900309A4202DD642320F81530002AE5
:1046300002DA642221F81520B94A30F81530A03A80
:1046400000264BB131F8153033B1B2F87230B3B146
:1046500040F6B830A2F87000A2F8706094F83E00FE
:10466000401CC0B284F83E000A2801D384F83E60A2
:10467000AD4FDFF8B8823888322809D017E04FF400
:104680001673A2F8723020F8156021F81560E3E780
:1046900094F83C00F8B9B4F9020050281BDA94F8F9
:1046A0003D00C00717D10121284602F065FAB7F98D
:1046B0000000C8280FDDB4F90800FBF721FEB8F9A7
:1046C0000010884207DD94F83D00C00703D00021A8
:1046D000284602F051FA9548B4F90810B0F90000E4
:1046E0004042814212DD607B0A280CD2401CC0B2DD
:1046F00060730A2875D3A07B002872D0A673284661
:1047000002F0AFF96DE00A2060736AE069DA607B5D
:10471000F0B3401E10F0FF00607362D1A07BB8BB05
:104720000120A0738248834F0088401C00F00700DE
:1047300004EB4000008CADF80400B88B8DF800004D
:104740004FF063024FF001016846FBF798FD04F15A
:104750001C049DF800002076387E8DF800004FF094
:104760000C024FF001016846FBF789FD9DF800003F
:104770006076387B8DF800001F2201216846FBF728
:104780007EFD9DF80000A0769DF80400E07600E034
:1047900027E0387A8DF80000172200216846FBF7E1
:1047A0006EFD9DF80000207738798DF800003B22DF
:1047B00000216846FBF763FD9DF8000060773878BC
:1047C0008DF800003B2200216846FBF758FD9DF85C
:1047D0000000A0779DF80500E07726806680A4F1B0
:1047E0001C0448F6A04894F83E0080B9B4F90810BB
:1047F0006069DFF844A10844DFF8409145F2555B59
:104800006061404504DB39F915205A4598E008E11C
:10481000B8E000004176746F6D6174202336206922
:1048200073204F46460000004176746F6D6174201E
:104830002337206973204F46460000004176746F8D
:104840006D6174202338206973204F4646000000B4
:104850004176746F6D6174202339206973204F464F
:10486000460000004176746F6D6174202331206929
:1048700073204F4E200000004176746F6D617420EC
:104880002332206973204F4E200000004176746F60
:104890006D6174202333206973204F4E2000000087
:1048A0004176746F6D6174202334206973204F4EFC
:1048B000200000004176746F6D61742023352069FB
:1048C00073204F4E200000004176746F6D6174209C
:1048D0002336206973204F4E200000004176746F0C
:1048E0006D6174202337206973204F4E2000000033
:1048F0004176746F6D6174202338206973204F4EA8
:10490000200000004176746F6D61742023392069A6
:1049100073204F4E20000000FCF407200801001017
:10492000B000001060C10720E0C0072056C107207A
:1049300048C507202040024008FC0300FCC20720B5
:1049400003D1FC4830F8157001E039F815703AF8D9
:10495000150030F009F880B2B8420AD2616900F15E
:104960000100A1F50041A1F54A6161613AF9152004
:104970002AE030D93AF9150039B230F0E9F8C4F834
:10498000148028E0EC49884225DC39F915205A4585
:1049900003D1E84830F8157001E039F815703AF89D
:1049A00015002FF0E1FF80B2B84205D93AF91500A1
:1049B00039B230F0CDF8384658B16269401E02EB8A
:1049C000080161613AF9152001B2104630F0C0F8D3
:1049D00001E0D94860613AF815002FF0C5FF0146A3
:1049E00039F91500584502D1D24830F915004FF475
:1049F0007A72514308B1B1FBF0F00A21B0FBF1F03B
:104A00002082CE480088012805D1CD49029801EBCB
:104A10008000408A208204F1100064220021FBF70C
:104A200039FCA07B012813D1A08B4746B8420ED297
:104A3000B4F90800FBF764FCA18B084480B2A083A2
:104A4000B84205D3A683E08B401CE08300E0A68338
:104A5000BC49B4F90A00B1F90010884201DD207B9D
:104A6000E8B3B4F84000401EA4F840004FF41679B3
:104A700004F140004A460021FBF70CFCB4F9400069
:104A800040F24E27B84205DB94F83F1041F0010197
:104A900084F83F100A2805DC94F83F0020F001005C
:104AA00084F83F00A849B4F90A00B1F9001088421F
:104AB00001DD207B90B3B4F84200401EA4F8420010
:104AC00004F142004A460021FBF7E4FBB4F942003E
:104AD000B84207DB94F83F1041F0020100E01EE00D
:104AE00084F83F100A2805DC94F83F0020F002000B
:104AF00084F83F00606C404519DA401C6064404512
:104B000016DB6664914E36F815002FF02DFF401C21
:104B100001B236F9150030F01BF809E003E0B4F8F3
:104B20004000401CA0E7B4F84200401CC6E76664A1
:104B3000874E3088002854D08648B0F90000484598
:104B4000B4F9020004DAC11700EB9170801003E0A1
:104B5000052190FBF1F000B2A188C1EB400000B24A
:104B6000FBF7CEFB00EB8000400000B20C2190FB75
:104B7000F1F000B2E080B6F90010884233DDB4F9FC
:104B80000800FBF7BDFB7449B1F9001001EB81018E
:104B9000884228DA71487321B0F900004843642143
:104BA00090FBF1F0B4F9021000B288421BDA94F8DD
:104BB0003D00800717D4B4F84800401C00B2A0F5AF
:104BC0003061A4F84800B83903D10121284602F029
:104BD000C3F9B4F9481040F6BD30814201DBA4F8B6
:104BE0004800BDE8FE8FB4F948000028F9D0401E07
:104BF00000B2A4F848000028F3D103B02846BDE86D
:104C0000F04F002102F0A8B92DE9FF5F544C554E3A
:104C1000DFF854912078DFF854A100254FF0640BA1
:104C200001281FD199F80000012801D03C203070E4
:104C30000A230022E621E120FBF7A2FA4C48B0F952
:104C40000010BAF90000421E914204DB401C814270
:104C500001DC02202070307820B1401E10F0FF00EF
:104C600030700AD02078DFF80CC1DFF80C81434F98
:104C700002280AD003285CD0F4E0414825700221C4
:104C80000170404981F800B0ECE0BAF900206521DC
:104C900002FB01F0B0FBFBF302EB421000EB400023
:104CA000B0FBFBF0ACF80030A8F8000099F8000069
:104CB000E246C346022801D03C2030700A23BF21BF
:104CC000BE20FBF75DFA0A230022E621E120FBF774
:104CD00057FA2E49BAF900800020DFF8ACA0BBF9E2
:104CE0000020B1F9001010E0C0EBC00303EB001C82
:104CF0000AEB8C03DB69434501DA934203DC21496B
:104D0000401C087008E0401CC0B28842ECDB032065
:104D100020701F483D7005703078002808D0401E74
:104D200010F0FF00307003D1154925700220087083
:104D300098E02FE0F4C207206073FFFF98C10720BE
:104D400088F6072072C1072070C1072024FC0300E9
:104D500074C1072062C1072056C1072050C1072037
:104D600086C00720DEC00720270100106AC1072087
:104D700068C20720BEC20720C0C20720DCC00720CF
:104D800087C007207FC5072084F70720A0C1072020
:104D9000DDC00720BAF90020652102FB01F0B0FB5D
:104DA000FBF0ACF8000002EB421000EB4000B0FB5F
:104DB000FBF0A8F8000099F80000E246C34603287B
:104DC00000D03D700A23BF21BE20FBF7D9F90A238A
:104DD0000022E621E120FBF7D3F9BAF90080594619
:104DE000DFF830A40126B1F900200020DFF820B45C
:104DF000BAF900100FE000BFC0EBC00303EB001CCA
:104E00000BEB8C03DB69434501DA934201DC00269E
:104E100003E0401CC0B28842EEDBD720FBF7C7F9A5
:104E200078B1FD480068D9280BD13878401CC1B250
:104E30003970BAF90000814203DBF849257003207C
:104E40000870012E0ED1EE20CDE9000502950395E4
:104E5000397803461622084633F0FBFEF048017805
:104E6000491C0170217889F80010BDE8FF9F2DE9E9
:104E7000F84FEC4C0025607B0A2807D2401CC0B2DA
:104E800060730A2802D365730120E073A07B0528B4
:104E900005D2401CC0B2A073052800D1A573BE2066
:104EA000FBF7A5F9E04928B1DB480268BF2A1CD10D
:104EB000406884E0E07B002817D0DC4BDC481A789F
:104EC000552A04D05A78552A01D0008877E0D9486D
:104ED000DFF864A3DFF864B3B0F90060D848D94ABA
:104EE000DFF8648316B1012E4FD069E0994614278C
:104EF000A57486466B467E42A07C19F80050552D5D
:104F00000FD023F81060401CC0B2A0740228F3D365
:104F1000BDF90030BDF90250CC48AB4212DD036050
:104F200012E000EB400505EB001C0EEB8C0C9CF82E
:104F30000C5015B123F81070E5E7BCF80A5023F8BF
:104F40001050E0E72B460560002B02DAB2F90000B2
:104F500011E0282B01DD28230360B8F90050B2F9D5
:104F600000300068EA1A02EB820252004243C82075
:104F700092FBF0F01844627F022A20D19AF80020B8
:104F8000012A1CD1BBF9000019E040880A300880D2
:104F9000607F022806D19AF80000012802D1BBF8F0
:104FA00000000880B1F90030B2F90000834200DB54
:104FB0000880B1F90020B8F90000824200DB0880C7
:104FC000A348008818B9A3480078022802D1A24853
:104FD00000880880B1F9000062214143642291FBFE
:104FE000F2F19E4B19806621484390FBF2F09C49F8
:104FF0000880BDE8F88F2DE9F0418A4CB4F93400FF
:1050000008B1401EA0869748974D8D4E0088288095
:10501000B6F908000A27002806DAFBF771F990FBB9
:10502000F7F0298808442880B6F95400002806DAE9
:10503000FBF766F990FBF7F02988084428808B4934
:10504000B5F900008A4AB1F900103C2390FBF1F158
:10505000491CC9B26176B2F9002090FBF2F0401C05
:10506000C2B28448A276B0F90050A94201DD0180A5
:1050700004E0AA4203DAA18E09B90280A3867E4920
:105080000A8864490AB10A880280B1F90020BDE8A3
:10509000F04101217748FBF7FDB82DE9F05F774833
:1050A000604C0088A4F848006948008818B969482D
:1050B0000078022803D172480088A4F84800E078FC
:1050C0000A2803D16F480088A4F8480060790A28AC
:1050D00002D00B2802D005E06B4800E06B48008846
:1050E000A4F84800B4F9700010B1401EA4F8700094
:1050F000B4F9720010B1401EA4F8720050484FF08D
:105100000A0890F83F10890703D190F88B008007B8
:1051100005D0B4F84800B0FBF8F0A4F84800207CB3
:105120004FF000094FF0010A0A2808D2401CC0B213
:1051300020740A2803D384F8109084F811A0E12089
:10514000FBF755F8524F384BDFF8C4B088B33249FB
:105150000868642808D069280AD06E280CD0E52891
:1051600028D0E62828D072E14868E18D08446DE136
:105170004868E18D081A69E1A08D401E00B2A08543
:105180001E2806DD4349B7F90000B1F90010884236
:105190000CDAE079401CC0B2E071FA2805D10A238C
:1051A0000022E721E620FAF7EBFF50E184F80790B0
:1051B0004DE17BE0486849E1B7F90000B3F9001020
:1051C000884216DD4FF01102A0EB010084F829207F
:1051D0000A2805DDB4F92C00002801DD401F35E167
:1051E000B4F92C0000287DD0617C00297AD0401EC3
:1051F0002CE177DA1222081A84F829200A284BDDDC
:10520000B4F92C0040F2F731884245DA401D1DE127
:1052100084F70720A0C107200801001087C00720DD
:10522000DDC007201000001084C20720F8C107204D
:1052300062C1072098C10720C8C2072058C10720B3
:10524000FCF4072046C1072048C107205801001080
:105250007A01001083C00720A4C2072088C207205B
:1052600086C207205C01001054C507205CC10720DE
:105270005EC1072052C507206EC1072060C107200C
:10528000A2C20720E6C10720ECC10720F4C1072015
:1052900064C2072050C10720B4F92C00B0F57F7F0D
:1052A00020DA617C00291DD0401CCFE0607C002802
:1052B00018D0FF48008818B19BF8E302282811D9BC
:1052C00004F1280425206070B4F90600A083B4F925
:1052D0001E10228C91FBF8F5A4F12804B5EB420FC7
:1052E00008DD00E0B3E04FF026018DE0401EA2E0B3
:1052F0000A38A0E00CDAC2EB02168E4208DA272147
:1053000084F82910B4F870100029EFD1C01E92E083
:10531000C2EB02168E4203DD954201DD2821A5E095
:10532000B7F90050B3F90030E24FE34E9D425EDA28
:105330004FF0290C84F829C0B7F90070B6F9006065
:10534000A7EB0606A3EB0607AF421CDD2A2384F871
:105350002930002907DA2B2184F82910B4F87010BD
:1053600029BB0A3067E002EB82038B4201DD2C216E
:1053700018E0C2EB421303EB8212B2FBF8F28A424E
:105380005BDD2D2120E0F71706EB9776A3EBA60651
:10539000AE421CDD2E2384F8293002EB82038B42BF
:1053A00009DD2F2184F82910B4F8701009B1401CD0
:1053B00041E0801C3FE0C2EB421303EB8212B2FBE0
:1053C000F8F28A4239DD302184F82910EFE75B1EBC
:1053D0009D4232DA312384F82930C2EB421303EBC9
:1053E0008212B2FBF8F28A4227DD3221ECE724DD9B
:1053F000332184F82910B7F90010B6F90020891A72
:10540000CA18AA4208DA342184F82910B4F87010B6
:1054100000293FF46DAF69E7CA1701EB927103EB06
:10542000A101A9421EDA352184F82910B4F87010C0
:105430000029F0D1801EA4F8440040F2F2320A2183
:105440009E48FAF727FFB4F84400E085A0859C4801
:1054500084F8139084F812904D465A465346B0F99A
:10546000001013E05B1C9D42E7DD362184F8291013
:105470003CE700BFC0EBC00606EB001602EB860659
:10548000F6781E2E00D2E374401CA074A07C8842E3
:10549000F0DBE07C40B98B48008800EB80004000E6
:1054A000A085E085A4F84400844840F2F2320A2145
:1054B0001838FAF7EFFE6574BDE8F09F2DE9F05F4C
:1054C000834E00208049DFF804824FF00A0B8246A9
:1054D000B6F9003024E07F4A7F4C125C34F9122088
:1054E000B2F5FA6F0A560DDA0A2A08DA521C52B2DD
:1054F0000A540A2A12DB012208F800200EE001F803
:1055000000B00BE0002A07DD521E52B20A54002AF6
:1055100004DC08F800A001E001F800A0401CC0B2C3
:105520009842D8DB0024DFF8B4916D4D6D4F71E0E7
:105530006D4830F81400002818F8040001D078B144
:1055400001E001280CD019F90400002818DB401EE6
:1055500040B209F80400002814DC05F804A011E0AA
:1055600019F904100A2908DA491C49B209F804108B
:105570000A2907DB0120285504E009F804B001E0FE
:1055800009F804A0395D285D81423FD04B4A921E44
:105590001188491C1180012807D014B3012C25D093
:1055A000022C28D0032C2BD030E034B1012C09D0B0
:1055B000022C0CD0032C0FD028E001231A460F2117
:1055C0004AA021E0012302220F214BA01CE001236D
:1055D00003220F214BA017E0012304220F214CA02E
:1055E00012E0002301220F214CA00DE00023022233
:1055F0000F214FA008E0002303220F2151A003E058
:10560000002304220F2154A02CF068FC285D38559B
:10561000641CE4B2B6F90000844289DB4CE75349CC
:10562000534A0120087010704870507070472DE97F
:10563000F05F5148DFF844E1DFF838C1B0F900709D
:10564000BEF900001D4CC0EB0011443CBCF90250F7
:105650006FF01D0A6FF0950B0026DFF81081B4F98A
:105660004E000AEB81020BEB8103BD4204DC444F88
:10567000B7F90070BD4205DA824203DD834201DAE8
:1056800088F800603F4DE146BCF908C0B5F900500C
:10569000374FBCEB450F03DC6D42BCEB450F04DA22
:1056A000824202DD834200DA3E7075466CE0000003
:1056B0009AC2072046C1072048C1072054000010A5
:1056C000A0C10720D2C1072014C30720C8C20720E9
:1056D000A6C10720FFFB0300BCF307205401001004
:1056E000CCC207204DC5072086C30720534B20237B
:1056F0003120416C61726D00534B20233220416C8C
:1057000061726D00534B20233320416C61726D0038
:10571000534B20233420416C61726D00534B202386
:105720003120416C61726D206973206F66660000E4
:10573000534B20233220416C61726D206973206FBE
:1057400066660000534B20233320416C61726D204C
:105750006973206F66660000534B20233420416C30
:1057600061726D206973206F666600005E01001033
:1057700056C50720FCF4072086C2072068C1072011
:1057800088C2072056C107206FF0090202EB810191
:10579000814220D1607FF0B998F8000001281AD129
:1057A0003878012817D14FF4EF702FF0DDF8FF495A
:1057B000B1F9001088420ED0FD48008858B199F820
:1057C0003D00C00707D14FF4EF702FF0C1F9F94841
:1057D0000178491C0170F849B9F902204846B1F92D
:1057E00000108A4206DCF549B0F94E20B1F90010EC
:1057F0008A420FDAB5F90010B4F94E20C1EB01115D
:105800000AEB8103934205DD0BEB8101914201DA42
:1058100088F80160EA49B9F95400B1F90010B0EB19
:10582000410F03DC4942B0EB410F0EDAB5F900003D
:10583000B4F94E10C0EB00100AEB80028A4204DD7E
:105840000BEB8000884200DA7E70B5F90000C0EBF7
:1058500000116FF0090000EB8100B4F94E1088428E
:1058600022D1607F00BB98F8010001281CD1787814
:10587000012819D14FF4FE7630462FF075F8024614
:10588000CA48B0F902108A420ED0C94800880228DE
:105890000AD199F88900C00706D130462FF058F98F
:1058A000C4480178491C0170B5F900006FF001018E
:1058B000C0EB001001EB8000B4F94E10884202D119
:1058C000BDE8F05FABE6F7E52DE9F003BD48BE4A61
:1058D000DFF8F8C200784FF000084FF00109F0B38C
:1058E000BB486146B0F90060BA48B1F90010B0F9A0
:1058F0000070B948BE42B0F90030B848B0F9004075
:10590000B748B0F90050B748B0F9000013DA834245
:1059100003DB844201DB85420DDAB348B0F90000B5
:10592000814219DA491C09B2ACF80010814213D146
:1059300082F8008015E0AD4FB7F90070BE420BDD74
:10594000834209DD844207DD854205DD21B1491E20
:1059500008B2ACF8000060B11078002800E00DE05B
:1059600009D1BDE8F0030F2301226E21D220FAF7FE
:1059700007BC82F80090BDE8F0037047ACF80080E7
:10598000F7E7F0B592480024994BB0F90020914810
:10599000B0F900509748AA42B0F9001004DC934EC9
:1059A000B6F90060B2420CDA8F4AB2F90020914297
:1059B0001ADA491C09B20180914215DB1C70028081
:1059C00015E08D4FB7F900703E4496420CDAED1B9E
:1059D000954209DD41B1491E09B20180002903DC6D
:1059E000012119700480F0BD18780028FBD183498B
:1059F0000A200870F0BD824808B5017819B100216D
:105A000001700A2013E07F497F4AB1F90010527FEC
:105A1000114309D04FF4FA6000907CA381A287A1C2
:105A20008CA0FBF720FE08BD022101700120BDE81B
:105A3000084001F07BBD2DE9F041734C8B4D2334C0
:105A400000262078607004F82369B5F9000000286A
:105A500002DDB0F5FA7F02DD2E80BDE8F08194F81A
:105A60002500401CC0B284F825003C2819D34FF40F
:105A7000947784F8256038462EF076FF401C00B2FB
:105A80007B4AA4F87400B5F90010B2F90020514324
:105A9000814201DCA4F87460B4F9741038462FF028
:105AA00057F8B4F97400B5F9001090FBF1F084F8E0
:105AB0002300D2E710B500214FF494702FF048F87E
:105AC00051493A2081F8250010BD70B56948404C15
:105AD0000025B0F900606848B4F90030674AB0F9B1
