:020000040000FA
:1000000030660010E1000000E5000000E70000009D
:10001000E9000000EB000000ED000000000000001F
:10002000000000000000000000000000EF000000E1
:10003000F100000000000000F3000000C9DA020037
:10004000F7000000453A0300713A0300F700000092
:10005000F7000000816C0300B1BE0300F700000050
:10006000F7000000F7000000F7000000F7000000B4
:10007000F7000000F7000000F7000000F7000000A4
:10008000F7000000F7000000F7000000F700000094
:10009000F7000000F7000000098D0000F7000000E5
:1000A000F7000000756A0300F7000000F700000089
:1000B00025D30300F7000000F7000000F700000060
:1000C000F7000000F7000000F7000000DFF80CD098
:1000D0003DF0D8FD0048004779DC02003066001092
:1000E00005480047FEE7FEE7FEE7FEE7FEE7FEE71E
:1000F000FEE7FEE7FEE7FEE7CD000000FEE710B5F5
:1001000040F068F940F0F4F940F0E6F940F074F995
:10011000AFF30080BDE8104040F0B0B910B540F03A
:10012000C1FF41F031FE41F015F8BDE8104041F04B
:100130008DB940F0D5BE40F09DBC09B1002070479C
:100140003FF0A4B90020704770B5374A0020A2F1F3
:100150001401064601F10A030C5C54B11D5CAC426B
:1001600007D1145C2CB1641E14F0FF04145400D1A8
:100170000E540C5C1C54401CC0B20A28ECD370BD59
:1001800070B5294D0024143D641CE4B22E5D1EB1EF
:10019000864201D00A2CF7D3285523480C3040F86A
:1001A0002410283040F824203438035570BD1E4AEE
:1001B0000021143A491CC9B2535C834201D00A2978
:1001C000F8D3DBB2834210D117480C3050F82130FD
:1001D00016480360144B343353F821304360002039
:1001E0005054114A505401207047002070470E4A65
:1001F0000021143A491CC9B2535C834201D00A2938
:10020000F8D3DAB282420CD107480C3050F82120E2
:1002100006480260044A343252F82110416001203D
:1002200070470020704700007038001010C1072090
:100230000C4BDA601870597070470A4A116190705F
:1002400070470849088170470648B0F9081000292E
:1002500007D0491E09B20181002902D1084601F0E8
:1002600035BB70474400001090F900308B4200DA33
:10027000027090F90030934200DD0170704790F9F0
:1002800000308B4200DA017090F90010914200DDDD
:1002900002707047B0F900308B4200DA0180B0F98B
:1002A0000010914200DD02807047B0F900308B42AF
:1002B00000DA0280B0F90030934200DD018070471F
:1002C00003688B4200DA02600368934200DD01603C
:1002D000704740EA01039B0703D009E008C9121FD9
:1002E00008C0042AFAD203E011F8013B00F8013BF0
:1002F000521EF9D27047704700207047FFFFFFFF82
:10030000002801DA404200B270470020FF4A202155
:100310001154401CC0B2C828FAD370470146FB4AAA
:100320000020401CC0B2135C8B4201D0C828F8D317
:10033000704710B50021F64C0A2200BFB0FBF2F363
:1003400002FB13006054491CC9B218460529F5D3B5
:1003500010BDF0B5EF4B0121202719700521EC4AA3
:10036000002601E01C7844B1541814F8015C25B94A
:10037000814202D904F8017C05E0541814F8015DAB
:10038000303525701E70491E11F0FF01EAD1F0BD15
:10039000FEB52B23002802DA404200B22D230025AF
:1003A0000A266C4690FBF6F706FB170060556D1C9D
:1003B0006DB238B20A2DF5DB012600250920202771
:1003C00000E046B114F800C0BCF1000F03D1904228
:1003D00001DD275405E0265C3036265400266D1CCE
:1003E000EDB2401E40B20028EBDA2D2B02D163554E
:1003F0006D1CEDB26AB168B205E0231813F8013C38
:100400002354401E40B29042F7DC2E206D1CA054B5
:10041000EDB20846FFF782FF0021BC4A04E0635CAE
:10042000461A491C935549B2A942F8DBFEBD2DE995
:10043000FE41044616460020DDF824809C460A2230
:100440006D462746B4FBF2F402FB14772F54401C90
:1004500040B20A28F5DB0846FFF760FF0021AB4AEF
:1004600005E06B5C441A3033491C135549B2B14264
:10047000F7DBA9490978002906D0B8F1000F03D0AD
:10048000A0EB0C005F211154BDE8FE81FEB52B23CB
:10049000002801DA40422D2300250A266C46074633
:1004A00090FBF6F006FB107767556D1C6DB20A2DB8
:1004B000F5DB012600250920202700E046B114F8CD
:1004C00000C0BCF1000F03D1904201DD275405E0CC
:1004D000265C3036265400266D1CEDB2401E40B21C
:1004E0000028EBDA2D2B02D163556D1CEDB26AB1F9
:1004F00068B205E0231813F8013C2354401E40B2B3
:100500009042F7DC2E206D1CA054EDB20846FFF798
:1005100005FF00217D4A04E0635C461A491C93559F
:1005200049B2A942F8DBFEBD30B5002291B10129E4
:1005300012D0022912D0032912D0042913D0052980
:1005400014D0062914D0072914D0082914D0092959
:1005500014D014E0012212E00A2210E064220EE01E
:100560004FF47A720BE042F2107208E06B4A06E038
:100570006B4A04E06B4A02E06B4A00E06B4A0A25D2
:1005800002EB82014B00B0FBF2F1B0FBF3F302FB94
:100590001104B1FBF5F005FB1010401CB0FBF5F1A8
:1005A00005FB110003EB830100EB410000FB02405F
:1005B00030BD30B5002291B1012912D0022912D0EC
:1005C000032912D0042913D0052914D0062914D0E8
:1005D000072914D0082914D0092914D014E00122C5
:1005E00012E00A2210E064220EE04FF47A720BE06F
:1005F00042F2107208E0494A06E0494A04E0494ADA
:1006000002E0494A00E0494A02EB82014C00B0FB9B
:10061000F2F1B0FBF4F402FB11030A25B1FBF5F093
:1006200005FB101038B1401E04EB840100EB4100C3
:1006300000FB023030BD0920F6E7FEB52B2600286E
:1006400001DA40422D2600240A276D46844690FB9D
:10065000F7F007FB10CC05F804C0641C64B20A2C48
:10066000F4DB0127002009244FF0200C00E04FB1FB
:1006700015F804E0BEF1000F04D19C4202DD05F83C
:1006800004C005E02F5D30372F550027401CC0B255
:10069000641E64B2002CEADA2D2E02D12E54401CC6
:1006A000C0B26BB144B205E02E1916F8016C2E559C
:1006B000641E64B29C42F7DC2E24401CEC54C0B291
:1006C00001EB810102EB8101CAB200210F4B04E072
:1006D0006C5C561A491C9C5549B28142F8DBFEBD40
:1006E00070B50D4616461C46FFF723FE601CC0B2CF
:1006F000FFF72FFE05EB850006EB8000C1B2044A30
:10070000024B0020A04214D2155C11E0E2C4072085
:100710000A01001040C6072063C10720A08601001F
:1007200040420F008096980000E1F50500CA9A3B10
:100730005D5406D3155C202D03D04CB15E1806F82D
:10074000015C491E401CC0B2C9B20528DAD370BD95
:100750005D54F6E730B5044608461546FFF7DEFD62
:10076000FF2809D0FF4A2178002905D04319641CCD
:10077000401CD154C0B2F6E730BD70B50D461446EA
:10078000FFF7D7FD601CC0B2FFF7E3FD2846FFF777
:10079000C5FDF54BF34A002124B95D5C202D01D045
:1007A00015540FE0A14201D25D5CF9E704D14FF08E
:1007B0002E0515545D5C02E05D5C202D02D01618FC
:1007C00006F8015C401E491CC9B2C0B20529E3D33A
:1007D00070BD801801D5084402E0884200DB401A51
:1007E000C0B270472DE9FE4F04460D464FF46060DD
:1007F00033F022FE62424021FFF7EBFF400100F59B
:100800008060044602A933F094FE694604F10800B2
:1008100033F08FFE01A904F10C0033F08AFE284664
:10082000FFF77CFD06469DF8080030252327DFF8FA
:1008300034B320244FF0400C4FF0210A552851D0FA
:100840004FF0CF084FF0D10950287ED0E223512835
:100850007CD042287BD053287AD0492879D0D32124
:100860004FF0EE094FF0E708732873D0752872D067
:10087000662871D19DF80A005A28FAD1D4210BF8C4
:100880000610761CF0B2F0260BF80090401CC0B2A7
:10089000EC220BF80060401CC0B22E210BF80020A7
:1008A000401CC0B25B460BF80010401CC0B2E022F6
:1008B00003F80080401CC0B21A54401CC0B21E5441
:1008C000401CC0B21954401CC0B21C54401CC0B2E1
:1008D0001C54401CC1B2A5489DF80020838F9A4249
:1008E00072D0F4E39DF80A0052280ED1C2200BF812
:1008F0000600761CF0B2EA220BF80020401CC0B2C1
:10090000EB220BF80020401CC6B258460BF80640FC
:10091000761CF1B20BF80140491CC9B20BF801403A
:10092000491CC9B20BF801409EE000BF9DF80130A0
:1009300092F83860B34277D19DF8023092F82C20BB
:100940009342F8D14554491C07E03EE06DE0A1E038
:10095000FEE3FEE3FEE3FEE329E0C9B23A2200F83B
:1009600001A0491CC9B24254491CC9B24554491C92
:10097000C9B200F801C0491CC9B24254491CC9B2ED
:1009800000224554491CC9B20BF801709DF80400BF
:100990002121FFF7F2FE9DF8050000224021FFF71C
:1009A000ECFE9DF8060000222321FFF7E6FEBDE8DD
:1009B000FE8F00BF9DF801106D48002200EB810002
:1009C0004021FFF7C7FEF2E7FDE3C0210BF8061058
:1009D000761CF1B2C2220BF80120491CC9B22E22AA
:1009E0000BF80120491CC9B258460BF80180491C7C
:1009F000C9B20BF80190491CC9B24454491CC9B290
:100A00004454491CC9B24454491CC9B2FDE300BF57
:100A10009DF8012096F838309A428CD19DF802203A
:100A200096F82C309A428DD0F0E3C0210BF80610D6
:100A3000761CF1B2C2220BF80120491CC9B22E2249
:100A40000BF80120491CC9B255220BF80120491CA2
:100A5000C9B258460BF80130491CC9B2FB224254B6
:100A6000491CC9B2F5224254491CC9B24454491C1C
:100A7000C9B24454491CC9B24454491CC9B23B4A86
:100A80004454491C9DF80030968FC9B2B3423FF4DC
:100A90004DAFBBE39DF80A004FF0F209432869D13E
:100AA000C0210BF80610761CF1B2C2220BF801200F
:100AB000491CC9B22E220BF80120491CC9B2C1221F
:100AC0000BF80120491C5846C9B2E0224254491C87
:100AD000C9B24E2200F80190491CC9B24254491CC7
:100AE000CEB29DF80910092902D23131815514E0A6
:100AF000A1F109025A2A0FD2491C0A23B1FBF3F2D1
:100B0000904630328255761C03FB1811F6B2303114
:100B10008155761CF1B205E08455761CF1B244543F
:100B2000491CC9B2114E4454491CC9B24454491C11
:100B30009DF80020B38FC9B29A4244D19DF801209C
:100B400096F838309A423ED19DF8022096F82C3023
:100B50009A4238D14554491CC9B200F801A0491C39
:100B6000C9B208E0E2C407200A01001000400240B8
:100B7000182D04005FE03A224254491CC9B2455482
:100B8000491CC9B200F801C0491CC9B24254491CF1
:100B9000C9B200224554491CC9B20BF80170491C66
:100BA000CEB29DF804002121FFF7E7FD9DF8050076
:100BB00000224021FFF7E1FD9DF8060000222321DD
:100BC000FFF7DBFD37E04454491CC9B2002245540D
:100BD000491CC9B200F801A0491CC9B200F801C003
:100BE000491CC9B24454491CC9B24454491CC9B235
:100BF0004554491CC9B20BF80170491CCEB29DF88E
:100C000002002121FFF7B9FD9DF8000000222321F9
:100C1000FFF7B3FD9DF80100401E0C2802D3012010
:100C20008DF801009DF80110FF48002200EB8100C3
:100C30004021FFF78FFD9DF80A0053287BD1C0218A
:100C40000BF80610761CF2B2C2230BF80230521CCD
:100C5000D2B22E230BF80230521CD2B2C1230BF8B1
:100C60000230521C5846D2B2E0238354521CD2B2F6
:100C7000432600F80290521C9DF80930D2B2092B8D
:100C800008D231338354521CD2B28154521CD1B297
:100C900046540EE0093B5A2B04D28154521CD1B267
:100CA000465403E08454521CD1B24454491CC9B286
:100CB0004454DE4E491C9DF80020B38FC9B29A42BD
:100CC0003AD19DF8012096F838309A4234D19DF8F7
:100CD000022096F82C309A422ED14554491CC9B2B4
:100CE0003A2200F801A0491CC9B24254491CC9B2B9
:100CF0004554491CC9B200F801C0491CC9B242544C
:100D0000491CC9B200224554491CC9B20BF80170F4
:100D1000491CCEB29DF804002121FFF72EFD9DF85D
:100D2000050000224021FFF728FD9DF80600002263
:100D30002321FFF722FD37E04454491CC9B20022A9
:100D40004554491CC9B200F801A0491CC9B200F8B9
:100D500001C0491CC9B24454491CC9B24454491C7D
:100D6000C9B24554491CC9B20BF80170491CCEB236
:100D70009DF802002121FFF700FD9DF800000022F0
:100D80002321FFF7FAFC9DF80100401E0C2802D336
:100D900001208DF801009DF80110A348002200EB0E
:100DA00081004021FFF7D6FC9DF80A00542873D13A
:100DB000C1210BF80610761CF1B2E0230BF80130CC
:100DC000491CC9B24E220BF80190491CC9B25846C1
:100DD0000BF80120491C9DF80920C9B2092A02D24A
:100DE0003132425400E04454491CC9B2ED2242540D
:100DF000491CC9B2E3224354491CC9B28B4E425428
:100E0000491CC9B2F0224254491CC9B22E22425494
:100E1000491CC9B24454491C9DF80020B38FC9B283
:100E20009A423AD19DF8012096F838309A4234D14E
:100E30009DF8022096F82C309A422ED14554491C38
:100E4000C9B23A2200F801A0491CC9B24254491C57
:100E5000C9B24554491CC9B200F801C0491CC9B205
:100E60004254491CC9B200224554491CC9B20BF86E
:100E70000170491CCEB29DF804002121FFF77DFCD2
:100E80009DF8050000224021FFF777FC9DF8060041
:100E900000222321FFF771FC37E04454491CC9B2FA
:100EA00000224554491CC9B200F801A0491CC9B22E
:100EB00000F801C0491CC9B24454491CC9B2445489
:100EC000491CC9B24554491CC9B20BF80170491CF0
:100ED000CEB29DF802002121FFF74FFC9DF80000E3
:100EE00000222321FFF749FC9DF80100401E0C2839
:100EF00002D301208DF801009DF801104A4800221C
:100F000000EB81004021FFF725FC9DF80A005A28DC
:100F10006BD1C2210BF80610761CF1B2FB220BF844
:100F20000120491CC9B2F0260BF80160491CC9B266
:100F30002E230BF80130491C5846C9B2C72242542F
:100F4000491CC9B2E0224254491CC9B24654491C4A
:100F5000C9B2364E4354491CC9B24454491CC9B2A3
:100F60004454491CC9B24454491C9DF80020B38F15
:100F7000C9B29A423AD19DF8012096F838309A4287
:100F800034D19DF8022096F82C309A422ED1455447
:100F9000491CC9B23A2200F801A0491CC9B2425406
:100FA000491CC9B24554491CC9B200F801C0491CCA
:100FB000C9B24254491CC9B200224554491CC9B2A5
:100FC0000BF80170491CCEB29DF804002121FFF7F7
:100FD000D4FB9DF8050000224021FFF7CEFB9DF8D1
:100FE000060000222321FFF7C8FB3CE04454491CC3
:100FF000C9B24554491CC9B200F801A0491CC9B284
:1010000000F801C0491CC9B24454491CC9B2445437
:10101000491CC9B24554491CC9B20BF80170491C9E
:10102000CEB29DF8020003E0182D040000400240FB
:1010300000222121FFF7A1FB9DF8000000222321BF
:10104000FFF79BFB9DF80100401E0C2802D30120F6
:101050008DF801009DF80110FF48002200EB81008F
:101060004021FFF777FB9DF80A00572874D1C12172
:101070000BF80610761CF1B2E0220BF80120491C97
:10108000C9B258460BF80190491CCEB29DF8091020
:10109000092906D231318155761CF1B2F022425431
:1010A0001AE0A1F109025A2A12D2491C0A23B1FB03
:1010B000F3F2904630328255761C03FB1811F6B2DB
:1010C00030318155761CF1B2F022425407E0ABE199
:1010D0008455761CF1B24454491CC9B24454491C8D
:1010E000C9B2DE4E4454491CC9B24454491CC9B269
:1010F0004454491CC9B24454491CC9B24454491C03
:101100009DF80020B38FC9B29A4240D19DF80120CA
:1011100096F838309A423AD19DF8022096F82C3051
:101120009A4234D14554491CC9B23A2200F801A070
:10113000491CC9B24254491CC9B24554491CC9B2E0
:1011400000F801C0491CC9B24254491CC9B204E0AC
:10115000AAE0EDE031E169E153E04554491CC9B230
:1011600000220BF80170491CCEB29DF80400212129
:10117000FFF703FB9DF8050000224021FFF7FDFA71
:101180009DF8060000222321FFF7F7FA39E04454C6
:10119000491CC9B24554491CC9B200F801A0491CF8
:1011A000C9B200F801C0491CC9B24454491CC9B2B3
:1011B0004454491CC9B24554491CC9B20BF80170CA
:1011C000491CCEB200E09DE19DF8020000222121E1
:1011D000FFF7D3FA9DF8000000222321FFF7CDFA94
:1011E0009DF80100401E0C2802D301208DF801005B
:1011F0009DF801109848002200EB81004021FFF784
:10120000A9FA9DF80A004B2801E08CE04AE17FF43E
:10121000CEABC1210BF80610761CF1B2E0220BF820
:101220000120491CC9B20BF80190491C9DF8090026
:10123000C9B24FF0E50909280ED231300BF8010090
:10124000491CC8B2EA210BF80010401CC0B20BF8D0
:101250000090401CC0B220E0A0F109025A2A18D226
:10126000401C0A23B0FBF3F2904630320BF8012009
:10127000491C03FB1800C9B230300BF80100491CAF
:10128000C8B2EA210BF80010401CC0B20BF8009065
:1012900005E00BF80140491CC8B20BF80040401CA7
:1012A000C1B25846FFF7EBBBC0210BF80610761C05
:1012B000F1B2C2220BF80120491CC9B22E220BF850
:1012C0000120491CC9B2C1220BF80120491CC9B236
:1012D00058460BF80180491CC9B24E2200F8019013
:1012E000491CC9B24254491CCEB29DF809100929C3
:1012F00002D23131815514E0A1F109025A2A0FD2EC
:10130000491C0A23B1FBF3F2904630328255761C19
:1013100003FB1811F6B230318155761CF1B205E0AD
:101320008455761CF1B24454491CC9B24454ADE012
:10133000C0210BF80610761CF1B2C2220BF8012076
:10134000491CC9B22E220BF80120491CC9B2C8227F
:101350000BF80120491C5846C9B2ED224254491CE1
:10136000C9B24354491CC9B24754491C9DF80920CD
:10137000C9B2092A02D23132425412E0A2F1090361
:101380005A2B0DD2521C0A25B2FBF5F303F130069D
:101390004654491C05FB1322C9B23032425403E0C3
:1013A0004454491CC9B24454491CC9B24454491C50
:1013B000C9B20BF80140BDE8FE8F9DF80A005A281B
:1013C000F9D10BF80610761CF0B2F1220BF80020D0
:1013D000401CC0B2EA210BF80010401CC0B25B46B2
:1013E0000BF80090401CC0B2F0261E54401CC0B246
:1013F0002E211954401CC0B2E02203F80080401C8A
:10140000C0B21A54401CC0B21E54401CC0B2195481
:10141000401CC0B21C54FFF75CBA00BF9DF802200C
:1014200090F82C00824275D058463BE09DF80A00A7
:101430005A28C0D10BF80610761CF1B2F0260BF832
:101440000160491CC9B2E0220BF80120491CC9B255
:1014500058460BF8013003E0182D0400004002400C
:10146000491CC9B2ED230BF80130491CC9B22E2327
:101470004354491CC9B200F80180491CC9B2425406
:10148000491CC9B24654491CC9B24354491CC9B28B
:10149000FA4E4454491C9DF80020B38FC9B29A42B9
:1014A0003FF4B6AA4454491CC9B200224554491C11
:1014B000C9B200F801A0491CC9B200F801C0491C1A
:1014C000C9B24454491CC9B24454491CC9B2455418
:1014D000491CC9B20BF801709DF802002121FFF7E9
:1014E0004CF99DF8000000222321FFF746F99DF8F2
:1014F0000100401E0C28FFF45DAA01208DF80100B8
:10150000FFF758BA9DF8012090F838309A428BD1F5
:1015100084E7FFE75846FFF715BAF0B504460846DA
:1015200094461D46FEF7FAFE0023D54E0146FF28DD
:1015300006D109E03754401C641C5B1CC0B2DBB20E
:1015400027780FB1132BF5D3CE480078002804D0AC
:10155000002D02D061445F207054F0BD70B5044688
:10156000084615461E46FEF7D9FEC54B0146FF2824
:1015700004D106E01A54641C401CC0B22278002A30
:10158000F8D1C0480078002804D0002E02D02944A9
:101590005F20585470BD2DE9F047074689469246B2
:1015A0001846089CFEF7BAFEB64E20210A23B44A1C
:1015B000012C06D1357825B1151805F8091D69707B
:1015C0000CE097FBF3F5A84602EB000C30350CF865
:1015D000095C03FB187530350CF8085C15184FF0E2
:1015E0002F0805F8078C022C06D1377827B105F8AB
:1015F000061C05F8051C0AE099FBF3F707F1300C0F
:1016000003FB179705F806CC303705F8057C05F87D
:10161000048C032C06D1347824B105F8031D6970BD
:10162000A97012E064249AFBF4F6322105F8031D38
:101630003021697004FB16A191FBF3F19AFBF3F4DE
:101640003031A97003FB14A130311154BDE8F0878B
:101650002DE9FF4F8146DDE90D048A469346FEF7EA
:101660005DFE2022DFF81C8285490A234FF0640CBE
:10167000012C09D198F8005035B10D18A5F10E05CF
:10168000AA706A702A7020E099FBF3F603FB1697A4
:101690000D183037A5F10E05022CAF7096FBF3F74D
:1016A00003FB176606F130066E7099FBFCF606F137
:1016B000300605F80E6B08D198F800602EB1A5F140
:1016C0000A05AA706A702A7021E09AFBF3F603FB00
:1016D00016A70D183037A5F10A05032CAF7096FB3D
:1016E000F3F703FB176606F130066E709AFBFCF603
:1016F00006F13006674605F80A6B08D198F80060D5
:101700002EB1A5F10605AA706A702A7022E09BFB33
:10171000F3F603FB16B70D183037A5F10605042CB8
:10172000AF7096FBF3F703FB176606F130066E7099
:101730009BFBFCF606F13006674605F8066B09D1FF
:1017400098F8004034B1A5F102050A546A702A7075
:10175000BDE8FF8F039C94FBF3F203FB124430348B
:101760000C5492FBF3F403FB14220844A0F1020092
:1017700030324270039991FBF7F101F130010170B1
:10178000E6E710B50C46FEF7C9FD3D490CB1032252
:1017900000E004220A5410BD17B501EB810002EBF2
:1017A0008000C2B29DF80030374803F00F0100EB13
:1017B0001313445C32498C54521ED2B21B788B54A2
:1017C0009DF80130521E03F00F04D2B2045D8C5418
:1017D000521E00EB1313D2B21B788B549DF80230CB
:1017E000521E03F00F04D2B2045D8C54521E00EB63
:1017F0001313D2B21B788B549DF80330521E03F0A2
:101800000F04D2B2045D8C54521E00EB1310D2B2FE
:10181000007888541EBD01EB810102EB81011A4A58
:1018200010B500F00F03C9B2D45C154B02EB1010D9
:101830005C54491EC9B20078585410BD30B51349E4
:1018400001230F4D91F9012091F9041000EB800460
:101850008A4202D105F8243030BD094D4C1C00EB02
:10186000800005EB8000A24201D1037530BD8C1CC5
:10187000A2420DD180F8283030BD00000040024067
:10188000E2C4072063C10720A22D040058C407202A
:10189000CC1CA24202D180F83C30EDE70C1DA242E4
:1018A00002D180F85030E7E74C1DA24202D180F807
:1018B0006430E1E78C1DA24202D180F87830DBE78A
:1018C000C91D8A42D8D180F88C30D5E7734A138875
:1018D0005B1E1BB21380002B01DC002313809BB224
:1018E000184400B210806E4A00EB800002446D483C
:1018F0001368036012790271427811444170704795
:10190000F0B5664D664FB5F9004004EB8406641CE3
:101910002C80644C3E4425683560257935712070F3
:1019200061702271A370F0BDF0B505460E461746F2
:10193000FEF7EBFC5C4C0020401C15F8011BC0B20C
:1019400004F8011B1428F7D35FF00000401C16F8C0
:10195000011BC0B204F8011B1428F7D35FF000008C
:10196000401C17F8011BC0B204F8011B1428F7D360
:101970005FF00000401C13F8011BC0B204F8011B0B
:101980001428F7D3F0BD30B56425039C94FBF5F41F
:10199000464D2C70464C2060464801604648026027
:1019A0004648036068E72DE9FE4340010D4600F517
:1019B0008060044602A932F0BCFD694604F10800CB
:1019C00032F0B7FD01A904F10C0032F0B2FD284657
:1019D000FEF7A4FC344C202530262554401CC0B210
:1019E0004FF021082654401CC0B24FF0400C04F8C0
:1019F0000080401CC0B2232104F800C0401CC0B2CB
:101A000000222554401CC0B22554401CC0B22654AC
:101A1000401CC0B22154401CC7B29DF802002121D5
:101A2000FEF7ABFE9DF8000000222321FEF7A5FE85
:101A30009DF80100401E0C2802D301208DF8010002
:101A40009DF801001E49002201EB80004021FEF7B5
:101A500081FEE5557F1CF8B23A212654401CC0B2E5
:101A6000002204F80080401CC0B22154401CC0B2C7
:101A700021212654401CC0B204F800C0401CC6B24C
:101A80009DF80400FEF779FE9DF805000022402134
:101A9000FEF773FEA555BDE8FE8300000EC60720C5
:101AA00072E9072058C40720E2C4072070C107204C
:101AB0002CC4072030C4072034C4072038C40720B2
:101AC000182D04002DE9F05FFF4E002796F8240042
:101AD000022803D07770B770F7703771DFF8ECA386
:101AE000DFF8ECB3DFF8EC83BAF90000DFF8E89335
:101AF000FA4DFB4C08B102287ED1BBF9000000284A
:101B00007ADDF848B8F90220B0F9000000EB800354
:101B1000F248B2EB430FB0F90010F148B0F9000001
:101B20000EDA41F001012980C00718D100230822F4
:101B30000521EDA02EF0C3FB208840F001000DE050
:101B400021F001012980C00709D0012308220521C5
:101B5000EDA02EF0B4FB208820F00100208098F842
:101B60004310CA072A8809D042F002022A80B4F939
:101B7000002093070CD442F0020208E022F0020297
:101B80002A80B4F90020930702D522F002022280B5
:101B90008907298809D541F004012980B4F900108A
:101BA0004A070CD441F0040108E021F00401298027
:101BB000B4F900104A0702D521F004012180B9F9D7
:101BC0000010B8F908004A42904203DA288840F031
:101BD000080004E0884203DD288820F008002880FF
:101BE00096F82400012802D196F82500B8B128887B
:101BF00020F01000288000E042E12088C00609D5CE
:101C0000072308220521CAA02EF059FB208820F0C6
:101C10001000208096F82400022811D021E02888A6
:101C200040F0100028802088C0061AD4062308221D
:101C30000521C7A02EF043FB208840F01000E8E704
:101C4000288840F020002880208880061AD40823A5
:101C50001A460521C6A02EF032FB208840F0200055
:101C60000FE0288820F0200028802088800609D5F1
:101C7000092308220521C7A02EF021FB208820F08F
:101C8000200020807078002828880FD040F0400085
:101C900028802088400619D40A2308220521C6A0DE
:101CA0002EF00DFB208840F040000EE020F04000B8
:101CB00028802088400609D50B2308220521C7A0CB
:101CC0002EF0FDFA208820F040002080CC480078DB
:101CD0000228288823D020F0800028802088000651
:101CE00009D50B2308220521C6A02EF0E8FA20888A
:101CF00020F080002080B078002828881FD040F491
:101D0000807028802088C00529D40C230822052152
:101D1000C4A02EF0D4FA208840F480701EE040F079
:101D20008000288020880006E5D40A2308220521A7
:101D3000C4A02EF0C4FA208840F08000DAE720F436
:101D4000807028802088C00509D50D230822052130
:101D5000C4A02EF0B4FA208820F48070208070791E
:101D6000002828880FD040F4007028802088800543
:101D700019D40E2308220521C3A02EF0A0FA208832
:101D800040F400700EE020F4007028802088800568
:101D900009D50F2308220521C3A02EF090FA208830
:101DA00020F400702080F078002828880FD040F4BC
:101DB000806028802088400519D41023082205213E
:101DC000C1A02EF07CFA208840F480600EE020F460
:101DD000806028802088400509D51123082205212C
:101DE000C2A02EF06CFA208820F480602080F07968
:101DF000002828880FD040F4006028802088000543
:101E000019D4122308220521C2A02EF058FA2088E6
:101E100040F400600EE020F4006028802088000577
:101E200009D5132308220521C1A02EF048FA2088E5
:101E300020F4006020803079002828880FD040F4FA
:101E4000805028802088C0041CD414230822052137
:101E5000BFA02EF034FA208840F480500EE020F429
:101E6000805028802088C0040CD515230822052125
:101E7000C0A02EF024FA208820F48050208001E0B9
:101E80002F802780BAF9020008B1022803D1BBF8DD
:101E90000000022803D06F806780BDE8F09F1148E2
:101EA000B8F952104746B0F9000000EB8000B1EBE2
:101EB000400F688806DA40F0010068806088C0073B
:101EC00001D169E172E181E104C007205CC707200C
:101ED00066C207207439001020C207202CE80720B2
:101EE0004C01001018C207204241542023312041E8
:101EF0006C61726D2C2062617474657279206973F3
:101F0000206C6F77000000004241542023312041B3
:101F10006C61726D20636C6561722C2062617474F7
:101F2000657279206973206E6F74206C6F77000082
:101F30004241542023312C206361706163697479BC
:101F400020746573742073746F7070656400000092
:101F50004241542023312C2063617061636974799C
:101F6000207465737420737461727465640000007A
:101F70004241542023312C6C6576656C696E672074
:101F80006368617267652069732073746172746538
:101F9000640000004241542023312C6C6576656C4E
:101FA000696E672063686172676520697320737466
:101FB0006F707065640000004241542023312C6C26
:101FC0006576656C696E6720636861726765206914
:101FD0007320626C6F636B656400000042415420A3
:101FE00023312C6C6576656C696E6720636861725D
:101FF000676520697320756E626C6F636B65640042
:1020000022C107204241542023312C73706565643E
:10201000206368617267652069732073746F7070E4
:10202000656400004241542023312C73706565645F
:102030002063686172676520697320626C6F636BEF
:10204000656400004241542023312C73706565643F
:1020500020636861726765206973207374617274AC
:10206000656400004241542023312C73706565641F
:102070002063686172676520697320756E626C6F9A
:10208000636B6564000000004241542023312C65DD
:102090007175616C6973696E6720636861726765E9
:1020A000206973206F6E00004241542023312C655B
:1020B0007175616C6973696E6720636861726765C9
:1020C000206973206F6666004241542023312C65DD
:1020D0007175616C6973696E6720636861726765A9
:1020E00020697320626C6F636B6564004241542009
:1020F00023312C657175616C6973696E6720636843
:102100006172676520697320756E626C6F636B65C1
:10211000640000004241542023312C6D6F6C6469CF
:102120006E6720636861726765206973206F6E0057
:102130004241542023312C6D6F6C64696E672063BB
:102140006861726765206973206F66660000000031
:102150004241542023312C6D6F6C64696E6720639B
:10216000686172676520697320626C6F636B656478
:10217000000000004241542023312C6D6F6C6469D3
:102180006E672063686172676520697320756E628F
:102190006C6F636B65640000162308220521FFA0A5
:1021A0002EF08DF8608840F001000EE020F0010074
:1021B00068806088C00709D0172308220521FFA086
:1021C0002EF07DF8608820F00100608097F8930081
:1021D000C107698809D041F0020169802188890717
:1021E0000DD4618841F0020108E021F0020169800C
:1021F000B4F902108A0702D521F00201618080073C
:10220000688809D540F004006880B4F902004107ED
:102210000CD440F0040008E020F004006880B4F919
:102220000200410702D520F004006080B9F90000E7
:10223000B7F958104242914203DA688840F008002A
:1022400004E0814203DD688820F00800688096F889
:102250002400012802D196F82500A8B1688820F052
:10226000100068806088C00609D51D23082205215A
:10227000DCA02EF024F8608820F01000608096F832
:102280002400022811D021E0688840F01000688006
:102290006088C0061AD41C2308220521D9A02EF07C
:1022A0000EF8608840F01000E8E7688840F02000F1
:1022B0006880608880061AD41E2308220521D9A0D0
:1022C0002DF0FDFF608840F020000FE0688820F0CE
:1022D000200068806088800609D51F230822052118
:1022E000D9A02DF0ECFF608820F02000608070788D
:1022F000002868880FD040F0400068806088400661
:1023000019D4202308220521D8A02DF0D8FF6088F9
:1023100040F040000EE020F04000688060884006F9
:1023200009D5212308220521D9A02DF0C8FF6088F6
:1023300020F040006080DF4800780228688823D0C1
:1023400020F0800068806088000609D523230822D9
:102350000521D9A02DF0B3FF608820F080006080B7
:10236000B078002868881FD040F48070688060884A
:10237000C00529D4242308220521D7A02DF09FFFD2
:10238000608840F480701EE040F0800068806088C3
:102390000006E5D4222308220521D7A02DF08FFFC7
:1023A000608840F08000DAE720F480706880608800
:1023B000C00509D5252308220521D7A02DF07FFFD0
:1023C000608820F4807060807079002868880FD061
:1023D00040F4007068806088800519D426230822A4
:1023E0000521D6A02DF06BFF608840F400700EE050
:1023F00020F4007068806088800509D527230822B2
:102400000521D6A02DF05BFF608820F4007060806D
:10241000F078002868880FD040F480606880608879
:10242000400519D4282308220521D4A02DF047FF08
:10243000608840F480600EE020F4806068806088EE
:10244000400509D5292308220521D5A02DF037FF05
:10245000608820F480606080F079002868880FD060
:1024600040F4006068806088000519D42A2308229F
:102470000521D5A02DF023FF608840F400600EE018
:1024800020F4006068806088000509D52B230822AD
:102490000521D4A02DF013FF608820F40060608037
:1024A00030790028688810D040F4805068806088B7
:1024B000C0043FF5F2AC2C2308220521D1A02DF059
:1024C000FEFE608840F480500FE020F48050688069
:1024D0006088C0047FF5E1AC2D2308220521D2A03D
:1024E0002DF0EDFE608820F480506080D5E42DE969
:1024F000FF41D64C0027054684F8287094F8240044
:102500000121022805D0D24A525D552A05D0652006
:102510000DE084F82810BDE8FF81CE4A05EB850365
:1025200002EB031696F84120D30703D0662084F807
:102530002800F0E796F843309B0701D56720F6E7BF
:10254000920701D56820F2E7C34AB6F90830B2F91C
:102550000020934201DD6920E9E75242934201DA0B
:102560006A20E4E7012805D194F82500002813D05B
:10257000012812D004F12404642020712170A4F8F1
:102580004E1040F29A2032F04BF865702946A4F8BC
:10259000505040F29E2061E1D2E1D3E1424154200B
:1025A000233220416C61726D2C20626174746572FB
:1025B00079206973206C6F7700000000424154203D
:1025C000233220416C61726D20636C6561722C2036
:1025D00062617474657279206973206E6F74206C07
:1025E0006F7700004241542023322C2063617061D8
:1025F0006369747920746573742073746F70706587
:10260000640000004241542023322C206361706139
:10261000636974792074657374207374617274656E
:10262000640000004241542023322C6C6576656CB6
:10263000696E6720636861726765206973207374CF
:1026400061727465640000004241542023322C6C96
:102650006576656C696E672063686172676520697D
:10266000732073746F7070656400000042415420E1
:1026700023322C6C6576656C696E672063686172C5
:10268000676520697320626C6F636B65640000008E
:102690004241542023322C6C6576656C696E67204C
:1026A00063686172676520697320756E626C6F6321
:1026B0006B65640022C107204241542023322C73F1
:1026C0007065656420636861726765206973207353
:1026D000746F7070656400004241542023322C7383
:1026E0007065656420636861726765206973206244
:1026F0006C6F636B656400004241542023322C737D
:102700007065656420636861726765206973207312
:1027100074617274656400004241542023322C734A
:1027200070656564206368617267652069732075F0
:102730006E626C6F636B6564000000004241542060
:1027400023322C657175616C6973696E67206368EB
:1027500061726765206973206F6E000042415420EA
:1027600023322C657175616C6973696E67206368CB
:1027700061726765206973206F666600424154206C
:1027800023322C657175616C6973696E67206368AB
:102790006172676520697320626C6F636B656400AA
:1027A0004241542023322C657175616C6973696EE6
:1027B000672063686172676520697320756E626C5B
:1027C0006F636B65640000004241542023322C6D1E
:1027D0006F6C64696E6720636861726765206973F6
:1027E000206F6E004241542023322C6D6F6C64695F
:1027F0006E6720636861726765206973206F666623
:10280000000000004241542023322C6D6F6C64693B
:102810006E672063686172676520697320626C6F00
:10282000636B6564000000004241542023322C6D2C
:102830006F6C64696E672063686172676520697395
:1028400020756E626C6F636B6564000004C00720C6
:10285000CEC207207439001020C2072031F0E0FEFC
:10286000FF48F761002130F9150031F0D9FEA7705B
:10287000A4F8527039464FF4287031F0D1FEF9486F
:10288000F94D0088401C00F0070006EB4000808CEA
:10289000ADF80000A88B8DF804004FF063024FF0F4
:1028A000010101A8FDF7EBFCF04C9DF8040020703D
:1028B000287E8DF804000C22012101A8FDF7DFFC21
:1028C0009DF804006070287B8DF804001F22012110
:1028D00001A8FDF7D4FC9DF80400A0709DF800004D
:1028E000E07040F2A220216831F0D5FE287A8DF800
:1028F00004001722002101A8FDF7C1FC9DF8040087
:10290000207128798DF804003B22002101A8FDF7F1
:10291000B6FC9DF80400607128788DF804003B2215
:10292000002101A8FDF7ABFC9DF80400A0719DF803
:102930000100E07140F2A620616831F0ACFEEAE5EA
:102940006B20F4E56C20F2E52DE9F047C74CD43C50
:1029500094F8240001287ED12046012790F8250014
:1029600094F82610C0F1010207FA02F0BC4EC04DE7
:1029700002B211B1012932D036E01423CA21C82095
:10298000FDF7FEFB14234FF0FF32CE21CD20FDF7E3
:10299000F7FB94F8250000EB800005EB0010B0F980
:1029A0000800FDF7ADFC94F8251001EB810205EB62
:1029B0000212D369184448F6A043D061984213DB51
:1029C000C01AD06136F8110031F036FD401C01B25A
:1029D00094F8250036F9100031F022FE04E01423AB
:1029E000CA21C820FDF7CCFB94F82500A84600EBCF
:1029F000800205EB02119F4AB1F902100025B2F9DD
:102A0000002040F29A2902EB8202B1EB420F4CDA2D
:102A1000B4F86E10491C09B2A4F86E101E2946DBEA
:102A200094F82410012926D194F8261019BB36F801
:102A3000100031F001FD04F1240401B28E486278E7
:102A400030F9120031F0ECFD607836F8100031F00A
:102A5000F3FC81B200E04AE0607805F03DFB874876
:102A6000617830F91100002131F0DAFD3220208246
:102A70006082A4F12404824994F82500C0F1010089
:102A8000085C552809D084F82450A4F8725000211D
:102A90004FEA090031F0C4FD09E084F82670A4F87B
:102AA000767001214FF42870F4E7A4F86E5094F882
:102AB000251001EB8102C1F1010101EB810108EB5D
:102AC000021208EB0110B2F90220B0F902008242B2
:102AD0000DDB94F82600012809D184F82450A4F8CD
:102AE00072504846BDE8F047002131F099BDBDE87D
:102AF000F08770B55D4C0026D43C054694F8240060
:102B000070BB6048008801282AD004F134040221F7
:102B100004F8101CE18740F29A2031F081FDC5EBEA
:102B20000510E5868000A087A4F1340415B91E20A5
:102B3000A4F8700004F166044FF42770B4F90A1089
:102B400031F06EFDB4F90A104FF42A7031F068FDCF
:102B50000020E080208060800126304605F048FBA0
:102B6000304670BD10B5414CD43C94F82400022886
:102B700012D104F13404E08E05F03AFB00206086A7
:102B8000E086208704F8100CE0870146BDE810407D
:102B900040F29A2031F044BD10BD70B5324C203C5B
:102BA00094F83800384D297808440C2803D9A08FB0
:102BB000401C01B201E0B4F93C10B82031F030FD06
:102BC00094F83810287801440C2994F8381000D96A
:102BD0000C380144B62031F023FD94F82C001C2859
:102BE00001D91C2101E094F82C10B42031F018FD1B
:102BF00004F12004217A4FF0AE0031F011FD21796B
:102C0000B02031F00DFD2178BDE87040B22031F0E8
:102C100007BD10B51C48154C0078D43CF8B11248DB
:102C20002038818F194A1288914243D190F8381088
:102C3000174A128891423DD190F82C10154A1288FB
:102C4000914237D190F82810134A1288914231D11D
:102C500090F82410114A128891422BD120E029E0EB
:102C60007C2604000801001020400240D8C0072044
:102C70007439001018C20720982604007826040032
:102C8000CEC20720C4C307206BC10720DCC20720C7
:102C9000DAC20720D8C20720D2C20720D4C2072038
:102CA00090F82000FF490988884203D1012084F868
:102CB000270003E094F8270000280CD0FA48008889
:102CC000C0B2FFF716FF002805D0002084F82700C7
:102CD000BDE8104061E710BD38B5F44C94F824000D
:102CE00002281CD1F2480078012819D0F148008848
:102CF000002815D001206070EF4800784FF00A01DD
:102D0000B0FBF1F201FB1200002808D141F288303B
:102D10000090EAA3EFA2F5A1FAA0FEF734FE38BDB9
:102D2000B4F868004FF461610025884212D2401C5B
:102D300080B2A4F8680088420CD3A4F86850B4F8B4
:102D40006A0038B1401E24F86A0F6088401C608019
:102D5000A4F16A04B4F866003C2823D2401C80B277
:102D6000A4F866003C281DD324F8665F6089401EE5
:102D700001B261814FF4277031F052FC6089A4F1F7
:102D8000660418B1E548008801280BD184F8245066
:102D9000A4F87250002140F29A2031F041FC00204A
:102DA00005F026FA657038BDC04910B591F82420A9
:102DB0000020002A0ED1D94A1288012A0AD04A7965
:102DC000002A07D10120487101464FF4C97031F043
:102DD000F0FB012010BDB5484179002905D0102134
:102DE00041714FF4C97031F0E4BB7047AF4910B581
:102DF00091F824200020002A0ED1C84A1288012A06
:102E00000AD04A79002A07D10120C87101464FF43F
:102E1000CA7031F0CEFB012010BDA448C179002951
:102E200005D01321C1714FF4CA7031F0C2BB704795
:102E3000BB486FF03B010088C0EB001001EB800045
:102E40009A49A1F85A0070472DE9F05FDFF85C92CB
:102E5000B3480026B9F85A10B24F491C09B2A9F874
:102E60005A10B0F90000B04DC0EB00124FF0010B4A
:102E700009F160044FF00A08B1EB820F55DBF0B3A3
:102E8000A9F85A602670DFF8A4A2667089F81E605F
:102E90009AF80000552811D1B5F9020050280DDD2F
:102EA000B5F90800FDF72CFAB7F90010884203DBEA
:102EB00095F84100C00701D084F800B09AF80100ED
:102EC000552811D1B5F9520050280DDDB5F958003B
:102ED000FDF716FAB7F90010884203DB95F8910068
:102EE000C00701D084F801B09148007868B999F81A
:102EF0001F10484649B190F8241019B100E014E0C1
:102F0000022902D18B49097821B12670667089F8AF
:102F10001E6008E0217801291DD0617801291AD0AE
:102F2000817F012917D0A9F85C604846B9F95C1087
:102F3000DFF87891DFF800A209F18809F1B3834640
:102F40000246491E08B2A2F85C00052806DD0F23E0
:102F50001E22642107E0A9F85C80E6E700281BDD5B
:102F60000F231E226921E120FDF70AF9BBF85C005E
:102F7000052811D1B5F90800FDF7C2F9A9F800003C
:102F8000B5F95800FDF7BCF9A9F80200BAF900003C
:102F9000FDF7B6F9ABF862004448B0F85C000028D1
:102FA00041D1AB46B5F90800FDF7AAF93F4D8C3584
:102FB0002880BBF95800FDF7A3F900E038E06880ED
:102FC000BAF90000FDF79CF9DFF8E0A0AAF8640068
:102FD000AAF85E60B9F90000B5F900100844B7F925
:102FE0000010884202DA2078012817D0BBF90200CD
:102FF000C82804DD00212670084604F0A8FBB9F9B2
:103000000200B5F902100844B7F90010884202DA4C
:103010006078012805D0BBF95200C5E0AAF85E80AF
:10302000EDE7AAF85E80BDE8F09F6670002131E10F
:10303000B0F95E10A9B380460246491E08B2A2F854
:103040005E00052803DD0F23C822642104E0002868
:103050001BDD0F23C8226921E120FDF791F8B8F8A4
:103060005E00052811D1B5F90800FDF749F9A9F866
:103070000000B5F95800FDF743F9A9F80200BAF9C4
:103080000000FDF73DF9A8F862000848B0F85E00BE
:103090000028C8D1DFF89080B8F90800FDF730F9B2
:1030A0004CE08BE0D6C20720DEC2072004C0072018
:1030B000DCC3072062C307202040024020202020DC
:1030C000C2C5CDD2C8CBDFD6C8DF21212120202028
:1030D000000000002020202020CDC5C8D1CFD0C0C6
:1030E000C2CDC02020202020000000002020202071
:1030F000C7C0C1CBCECAC8D0CEC2C0CD20202020F0
:1031000000000000C2DBD0C0C2CDC8C2C0DED9C83A
:10311000C920C7C0D0DFC42000000000C4C30720FE
:1031200032C2072020C2072074390010CEC2072007
:1031300074C1072022C1072028C40720F94D288028
:10314000B8F95800FDF7DCF86880BAF90000FDF71F
:10315000D7F8A5F18C08A8F8640088F81D60B9F9C3
:103160000000B5F900100844B7F90010884202DAEF
:10317000207801281CD0EC48B0F90200C82804DDF2
:1031800000212670084604F0E2FAB9F90200B5F908
:1031900002100844B7F90010884202DA607801286A
:1031A00009D0E148B0F95200C8283FF73EAF3AE7EE
:1031B00088F81DB0E9E788F81DB034E78146407F04
:1031C0000028F4D00F2300226E21E120FCF7D8FF65
:1031D000B5F90800FDF794F8B7F90010884207DD4B
:1031E0002078012804D100212670084604F0AFFAA7
:1031F000B5F95800FDF784F8B7F90010884206DDEC
:103200006078012803D16670002104F0A0FA2078CC
:1032100030B9607820B999F81E1009B989F81D6095
:10322000E620FCF7C4FF18B1C0480068E7280AD0C0
:10323000BF48C049B0F90000B1F9001000EB8000B0
:10324000B1EB400FB3DA89F81D602078BA4E01283F
:103250000FD1B7F90000410091FBF8F0B6F900106A
:10326000884206DA95F84100C00702D1012104F036
:103270006EFA607801289AD1B7F90000410091FBFD
:10328000F8F0B6F90010884291DA95F89100C0077D
:103290008DD10121BDE8F05F012004F058BA2DE97D
:1032A000F047A04C8C3CB4F85800401C00B2A4F885
:1032B0005800B0F5E16F03DB0020A4F8580016E4D5
:1032C000B0F5DF6F13D9E07988B90F2301226421AB
:1032D000D220FCF755FF0F230022D821D720FCF77E
:1032E0004FFF0F230022D821DC20FCF749FFB4F95F
:1032F0005800A0F5E0610739E1D1E0790028DED17E
:103300008E4F8F4C884D388821880A26DFF834820A
:10331000DFF83492884210D0B5F9080090FBF6F03F
:1033200000B2FCF7EDFFB8F90010884205DAB4F9F5
:103330000010B9F9000031F073F97888618888428B
:10334000BDD0B5F9080090FBF6F000B2FCF7D8FF4D
:10335000B8F900108842B2DAB4F90210B9F90200E3
:10336000BDE8F04731F05CB910B5784C0822002177
:103370002088401C20802046FCF797FF6A48B4F95B
:10338000001000EB410142888A84B0F85200A1F895
:10339000740010BD2DE9F0416D49B1F9000008B18C
:1033A000401E08806C486B4E5E4CB0F900306B4894
:1033B000B6F900200A2790F900108C3C9A421ADADC
:1033C000674D0A290EDA674BB3F900300F2B0ADD7F
:1033D000491C49B201700A2905DB2A80012003F04B
:1033E00082FC00E00770B6F90000B5F900108842D1
:1033F0000EDA28800CE00BDD51B1491E49B2017094
:10340000002905DC002003F06EFC84F8337003E033
:1034100094F83300002803D014F8330F401E2070B6
:10342000BDE8F0812DE9F84F4F48DFF8F8A04F498B
:10343000AAF18C0A0288BAF83C004D4C012A64D0EB
:103440004C4A4E4B41F27076B2F900204D4D50433C
:1034500049F6404290FBF2F0474A00B21080B4F9BE
:103460000620B3F900305A4392FBF6F2444B12B2F5
:103470001A80B4F91430B5F900506B4393FBF6F39E
:103480001DB2414B82421D80324B188000DA1A80F7
:10349000B3F90060B54200DA1D800880824200DD89
:1034A0000A80B1F90000854200DD0D8030483749BF
:1034B0004FF4FA65B0F90030B1F900201A4C5A43C4
:1034C00092FBF5F2324B6280B0F90860B3F900204C
:1034D00072434FF42F7692FBF6F2A280B0F91820D7
:1034E000B1F90210514391FBF5F1A4F85210B0F973
:1034F0000210B3F90200484390FBF6F0A4F8540020
:10350000DC20FCF774FE58B1CAE0224AB2F9002070
:103510005043214A90FBF2F00E4A10800880C5E724
:103520003CE0000090C007207439001010C1072053
:1035300018C2072068C307206AC3072018C60720DF
:103540004AE807202AC20720A42604000801001028
:103550008A00001078C307201AC207201201001049
:1035600042C6072090C107207EC2072080C30720E3
:103570001C380010EC0000107AC3072028C6072072
:103580007CC30720EE0000107EC3072014C607206E
:10359000DC000010E4000010B0AD0100FF4800881E
:1035A000FF4945F6386C45F6926209880091401A49
:1035B000FC494FF4967845F2FA53B1F9001045F200
:1035C00013668E464143F84845F211694FF47A7B01
:1035D0000088604501D0904202D191FBF8F10AE0E9
:1035E000984203D0B04201D0484502D191FBF5F199
:1035F00001E091FBFBF12181EC49009FCF1B0EFB09
:1036000007F1604501D0904202D191FBF8F10AE048
:10361000984203D0B04201D0484502D191FBF5F168
:1036200001E091FBFBF16181DC49DD4F49887F8836
:103630000097CF1BDB49B1F902108E4679436746EC
:10364000B84201D0904202D191FBF8F10AE09842D1
:1036500003D0B04201D0484502D191FBF5F101E021
:1036600091FBFBF1A4F85810D049DDF800C02031DF
:10367000A1EB0C0C0EFB0CF1B84201D0904202D130
:1036800091FBF8F00AE0984203D0B04201D04845DF
:1036900002D191FBF5F001E091FBFBF0A4F85A0098
:1036A000C34940F6B7330020B1F90C204FF00109AF
:1036B000A2F221369E4201D2A07301E084F80E905E
:1036C000DFF8F0E288460F46BEF9001044F6206CA1
:1036D000514391FBFCF1A1F21111A181B7F90E1038
:1036E0009B46A1F221375F4502D284F85E0001E0DB
:1036F00084F85E90BEF902705B464F4397FBFCF185
:10370000A1F21111AC4FA4F85C10B8F90410B7F98C
:103710000070794391FBF5F1A84D2980B8F90A5062
:10372000A749A5F221379F4201D2087001E081F834
:103730000090C346DFF88C82B8F900706F4397FBA6
:10374000FCF7A14DA7F211179E422F8001D24870BD
:1037500001E081F80190B8F902705E46574397FB8B
:10376000FCF2A2F2111212B26A809346B6F9062058
:1037700040F6B733A2F221379F4201D2887001E0B0
:1037800081F802908F4B924F4FF47A6CB3F904306A
:10379000914E534344F6206293FBF2F2A2F21112CF
:1037A0000FFA82F8A5F80480884DB7F900202B881D
:1037B0005A4392FBFCF2874B92B2642A1A8001D3DF
:1037C000864A128832806D88B7F9022008F21118F3
:1037D0006A4392FBFCF25A80814B824DDFF808C2AB
:1037E000B3F90020B5F90060564341F2707296FBC0
:1037F000F2F6ACF80060B3F90270B5F902607E43EE
:1038000096FBF2F6ACF80260B3F90460B5F9045027
:10381000754395FBF2F5ACF80450DFF8D0C1B3F96D
:103820000660BCF90050754395FBF2F6704D2E8092
:10383000B3F90870BCF902607E4396FBF2F66E8025
:10384000B3F90A30BCF904605E4396FBF2F2AA8039
:103850000BF21112674B12B20FFA88F51A805D80D5
:103860008B460E4649781972B6785E72624B21B16A
:1038700001290ED011B10DD020E016B1012E10D0CB
:103880001CE0511901EBD1716FF4887202EB6101F8
:1038900013E016B1012E08D010E0A5F211151D801D
:1038A0000CE0A2F211121A8008E0544909780529A7
:1038B00002D25349098800E0142119805149524A23
:1038C0000B78552B03D0B2F90030002B06DDB4F98C
:1038D0000230C82B02DD2589AAF84C5049785529B9
:1038E00003D0B2F9001001290BDDB4F95210C82938
:1038F00007DDB4F95810B4F90820914201DDAAF8A7
:103900004C10424AAAF84C005146B2F900300A2243
:10391000002B07DDB4F9085095FBF2F5854201DD77
:10392000A1F84C50012B09DDB4F95850B1F94C60A5
:1039300095FBF2F5B54201DDA1F84C50A1F84E001F
:10394000002B13DDB4F90A5095FBF2F5854201DD39
:10395000A1F84E50012B09DDB4F95A30B1F94E509F
:1039600093FBF2F3AB4201DDAAF84E302849002365
:10397000DFF8A0C0B1F900506EE000BF03EBC30157
:1039800001EB03110CEB8101CE78192E5BD28E79FD
:10399000CF7906EB07264E620E7A3DE04AE8072013
:1039A00018C60720E0000010D0C207206C5A001093
:1039B0001C3800101CC6072026C6072068C3072035
:1039C000D9C30720E600001092C4072054C6072080
:1039D00020C6072098C4072096C3072078C3072075
:1039E000A4E90720260100109EC407205CC607201A
:1039F000A4C407200056001088C3072081C10720F7
:103A00005AC60720CEC2072066C20720AAC20720D6
:103A10006AC20720783C00104F7A06EB07260E6238
:103A20008E7ACF7A06EB0726CE610E7B8E624E7BB6
:103A300081F856608E7B81F842600E7C4F7C06EBED
:103A400007260E6506E0C86148620862886281F850
:103A5000420008655B1CDBB2AB428FDBB4F9081097
:103A6000B4F9583091FBF2F1904693FBF8F211440F
:103A7000824606464942FA480BB2FA4903800022C0
:103A80000E800EE002EBC20404EB02140CEB840483
:103A9000E678052E03D2646A0E8834440C80521CEA
:103AA000D2B2AA42EEDB0988194409B2018000298A
:103AB00001DAA0F800A0EC48B0F90040ECB3002215
:103AC000EA4B64E002EBC20000EB02100CEB80005A
:103AD00090F8D31719293AD200F2D67001784578B8
:103AE00001EB052502EB420103EB4111CD61857825
:103AF000C67805EB0625CD620579467905EB0625E6
:103B00008D6185790D62C57981F84650057A467ACE
:103B100005EB06258D62857AC67A05EB06254D6292
:103B200081F802A0057B81F85950457B81F85A50F5
:103B3000857B81F85850C57B00E02AE081F85B5016
:103B4000057C81F85C50407C81F85D001DE002EB53
:103B5000420003EB40101925C0F81CA0C0F82CA0AF
:103B6000C0F818A0C0F820A080F846A0C0F824A093
:103B7000C0F828A0857080F859A080F85AA080F875
:103B800058A080F85BA080F85CA0521CD2B2A24280
:103B900098DBB74C207E36F09BFD0503607E36F047
:103BA00097FD05EB0025A07E36F092FD05EB001594
:103BB000E07E36F08DFD2844AE4D2B22AE4EB5F999
:103BC0000010514306EB41014881207F36F080FD13
:103BD0000703607F36F07CFD07EB0027A07F36F0FF
:103BE00077FD07EB0017E07F36F072FD384481B2B5
:103BF000B1FBF8F0B5F900102B22514306EB41015F
:103C00000881207836F064FD0703607836F060FDA7
:103C100007EB0027A07836F05BFD07EB0017E07894
:103C200036F056FD39184FF0640891FBF8F041B2B8
:103C3000B5F900002B22504306EB40004187207964
:103C400036F046FD0703607936F042FD07EB0027AA
:103C5000A07936F03DFD07EB0017E07936F038FD2E
:103C6000391891FBF8F041B2B5F900002B2250430E
:103C700006EB40008187207A36F02AFD0703607A40
:103C800036F026FD07EB0027A07A36F021FD07EB82
:103C90000017E07A36F01CFD391891FBF8F041B2BC
:103CA000B5F900002B22504306EB4000C187207B72
:103CB00036F00EFD0703607B36F00AFD07EB0027A8
:103CC000A07B36F005FD07EB0017E07B36F000FD2A
:103CD000391891FBF8F041B2B5F900002B2250439E
:103CE00006EB4000A0F84010207C36F0F1FC070302
:103CF000607C36F0EDFC07EB0027A07C36F0E8FC9A
:103D000007EB0017E07C36F0E3FC391891FBF8F084
:103D100041B2B5F900002B22504306EB4000A0F859
:103D20004210207D36F0D4FC0703607D36F0D0FCD5
:103D300007EB0027A07D36F0CBFC07EB0017E07DFA
:103D400036F0C6FC391891FBF8F041B2B5F9000025
:103D50002B22504306EB4000A0F8441094F82000BA
:103D600036F0B6FC070394F8210036F0B1FC07EBFF
:103D7000002794F8220036F0ABFC07EB001794F80C
:103D8000230036F0A5FCB5F900102B22514306EBB9
:103D900041013844488294F8260036F099FC070324
:103DA00094F8270036F094FC07EB002794F82800DD
:103DB00036F08EFC07EB001794F82900A4F15104AB
:103DC00036F086FC384401B2B5F900002B2250438E
:103DD00006EB4000018209B9A0F81090B0F912106A
:103DE00064225143B0F9102091FBF2F1818614F85E
:103DF0007F0F36F06DFC0703607836F069FC07EB47
:103E00000027A07836F064FC07EB0017E07836F066
:103E10005FFC3A18B5F900002B21414306EB410144
:103E2000CA81164A32F810000A282DD101F1080182
:103E3000A1F802A0A1F800A0A1F832A0A1F834A036
:103E4000A1F836A0A1F838A0A1F83AA0A1F83CA0AA
:103E5000A1F80AA0A1F10801A1F8109010E000005B
:103E60006AC30720200100106CC20720244A0010FA
:103E7000FD5A001064C307205C3B00106EE8072069
:103E8000A1F834A0A1F80EA0FB4840F6B732B0F973
:103E90000C00A0F22131914202D28BF800A001E087
:103EA0008BF80090F549B1F90010414344F62060C9
:103EB00091FBF0F0F249A0F211100880BDE8F88FF4
:103EC000F04AF1481178052901D0012905D151782E
:103ED00019B9EE490978552902D0ED49098803E05E
:103EE0000178002901D0491E0170704700EBC00124
:103EF00001EB0011E74800EB810090F85E1000290B
:103F000012D190F85F1000290ED1B0F8601000298E
:103F10000AD13C2100F85E1F03214170DE494FF4B5
:103F20006162098851434180704700EBC00202EB97
:103F30000012D848002100EB820000F85E1F41709B
:103F4000418070472DE9F041D44B0025D44F1D75B9
:103F50004FF03C0C4FF00208CE4CD24E85E0D249D7
:103F6000097849B900EBC00101EB001104EB8101B4
:103F700001F85E5F4D704D80397839B900EBC001B2
:103F800001EB001104EB8101A1F8605000EBC001CE
:103F900001EB001104EB810191F85E202AB991F840
:103FA0005F2012B9B1F860207AB38A78012A14D060
:103FB00081F86350187D00EBC00101EB001004EBA9
:103FC000800090F85E1059B3491EA0F8605011F0BF
:103FD000FF0180F85E100DD02FE091F863203C2A9D
:103FE000E8D2521CD2B281F863203C2AE2D3FFF718
:103FF0009CFFDFE790F85F1041B1491E80F85F1029
:1040000080F85EC080F8628021E016E039780129EE
:1040100013D1A1494FF4616209885143A0F860109F
:10402000B0F8601049B1491E0904090CA0F86010ED
:1040300003D180F85F8080F85EC0187D00EBC0017E
:1040400001EB001004EB800090F8620050B1187D85
:1040500000EBC00101EB001004EB800010F8621FC0
:10406000491E0170187D401C1875187DB6F90010A6
:104070008842FFF674AFBDE8F0818C48416821F4B6
:10408000402141F480214160416821F4403141F4F4
:1040900080314160416821F4404141F480414160F8
:1040A000416C21F4402141F400214164416C21F430
:1040B000403141F400314164416C21F4404141F40C
:1040C000004141647A48016821F0E06101600168C3
:1040D00041F400110160016821F480310160016840
:1040E00021F47F4141F4807101608115C160714804
:1040F0008903016070472DE9F041684CC83460883D
:104100002188401A00B204F0BBFDA51D2880A088BC
:104110006188401A00B204F0B3FD6880A08821884D
:10412000401A00B204F0ACFD4FF496725B49A880CF
:10413000904201DAA0880AE0B5F90200904201DA63
:10414000608804E0B5F90000904201DA2088C88751
:1041500091F80BC00023BCF1000F26D04648B1F9FE
:104160003E202030046814440460446814444460D1
:10417000846814448460C4682244C260B1F8462054
:10418000521C12B2A1F84620B2F5805F01DBA1F803
:104190004630B1F9462094052DD1921250F82240B4
:1041A00024128C8740F8223025E0434F087B4C7B5B
:1041B00007EB8015B1F93E2045F82420A2070ED167
:1041C00000252A4607EB801656F82270521CD2B200
:1041D0003D44102AF8D32A11274D25F81020401C01
:1041E000C0B20873102806D3641CE0B20B73487386
:1041F000102800D34B730CF1010C8B721CF00100E2
:104200002B4AC87205D0106820F0FF00001D106016
:1042100059E0097B08070028106820F0FF0002DB46
:1042200000F1010001E000F1020010602348036882
:1042300043F080530360036A43F080430362036EDC
:1042400043F080630366CB07436908D043F0805393
:1042500043618B07436B05D423F0804304E023F0D4
:104260008053F5E743F0804343634907416F27D408
:1042700021F0806126E000001C380010E6000010EC
:1042800092C4072058C407201AC107206CC1072018
:10429000E0C20720783C0010A0C2072004C007201D
:1042A0006AC107206AC2072069C1072000C0024016
:1042B0000040034000E100E01C34001000C0092071
:1042C00041F080614167106840F080701060D2E674
:1042D000F0B5DFF818C4BCF9380018B1401EACF8CE
:1042E0003800F0BD0520ACF838004FF0000E8CF817
:1042F0001BE07046FE49FF4AB2F9004013E000BFE0
:1043000000EBC00202EB001201EB82029378012B5A
:1043100007D1D278142A04D29CF81B20521C8CF8A6
:104320001B20401CC0B2A042EADB9CF81C00012507
:1043300010B18CF81CE001E08CF81C509CF81B605C
:10434000022ECED3E94841F288328030C0E904E23F
:104350000022C0F818E016E002EBC20303EB0213E0
:1043600001EB83039F78012F0BD15B6A0769BB4286
:1043700000DD03614769BB4200DA436187693B4462
:104380008361521CD2B2A242E6DB826992FBF6F252
:10439000C261436903B94561036964267343466991
:1043A00093FBF6F30362822B01DD8CF81A506E2B1F
:1043B00002DA8CF81AE035E09CF81A00012831D1B5
:1043C00000236FF031062BE003EBC30000EB03107A
:1043D00001EB80008578012D20D1456A954207DDEB
:1043E0009CF81C7027B9B0F854707F1EA0F8547068
:1043F000954207DA9CF81C5025B1B0F854506D1C5A
:10440000A0F85450B0F95450B54202DAA0F8546004
:1044100004E0322D02DD3225A0F854505B1CDBB2E3
:10442000A342D1DB00BFF0BD2DE9F047B2480168DF
:10443000B24A11400160B24C216841F47C712160A4
:10444000C16921F44021C161216E41F000712166F2
:10445000416821F040614160206840F000502060D8
:10446000A948A84BAA490278A84893F84050B1F946
:1044700000100078154307D030B1052904DDA56987
:1044800045F48075A56103E0E56945F48075E56153
:1044900093F89030134307D030B1052904DDA069AB
:1044A00040F04000A06103E0E06940F04000E061BE
:1044B000D220FBF79CFE974D60B12868642809D193
:1044C0006868012801D028B108E0A06940F00050D8
:1044D000A06103E0E06940F00050E061D220FBF70A
:1044E00086FE10B12868662816D08B480068C00781
:1044F000A0B1A06F40F02000A067D220FBF777FEAC
:1045000010B1286879280ED08448007880B1A0695D
:1045100040F08000A0610FE06868E9E7E06F40F0DC
:104520002000E067E9E768680028F0D0012803D19F
:10453000E06940F08000E061D220FBF758FE10B146
:1045400028687A2807D07648007848B1A06F40F0F4
:104550000070A06708E068680028F7D0012803D140
:10456000E06F40F00070E067D220FBF740FE10B132
:1045700028687B2807D06B48007848B1A06940F0D4
:104580004000A06108E068680028F7D0012803D146
:10459000E06940F04000E061D220FBF728FE10B156
:1045A00028687C2807D06048007848B1A06940F0AE
:1045B0001000A06108E068680028F7D0012803D146
:1045C000E06940F01000E0615848008801287ED181
:1045D00046490023DFF8588191F82450DFF810C1D4
:1045E000444CDFF8509118465FF0010239F9101081
:1045F000CE070ED0504E514FB6F90060B7F900709B
:1046000006EB8606B7EB460F03DA02FA00F61E4306
:10461000F3B28E0707D54A4E3678022E03D102FA3E
:1046200000F61E43F3B24E0705D5022D03D102FA60
:1046300000F61E43F3B20E0706D5424E36681EB191
:1046400002FA00F61E43F3B2CE0607D598F80060D2
:10465000012E03D102FA00F61E43F3B28E0607D5EF
:1046600098F80060022E03D102FA00F61E43F3B25E
:104670004E061BD59CF80160F60603D5B4F9006020
:10468000012E0FDA9CF86560F60603D5B4F90060D8
:10469000022E07DA9CF8C960F60607D5B4F9006067
:1046A000032E03DB02FA00F61E43F3B20E064CD5CE
:1046B0009CF80160360703D0B4F90060012E11DACE
:1046C0009CF86560360705D0B4F9006000E049E069
:1046D000022E07DA9CF8C960360736D0B4F90060BC
:1046E000032E32DB02FA00F61E432DE004C0072041
:1046F000783C00106AC2072000C00240FF00F0FFB3
:1047000000C0092074390010D20000101FC107201A
:1047100090C1072010C107206400001038C6072090
:10472000FE00001039C60720FF00001078C20720E5
:1047300085C10720AAC4072018C2072068C3072024
:1047400022C1072060000010F3B2090403D402FA6A
:1047500000F15940CBB2401CC0B20428FFF446AF70
:10476000FE480370BDE8F0872DE9F84FDFF8F0A3AD
:10477000012400259AF8221050460A2909D2491C22
:10478000C9B280F822100A2903D380F822508AF88F
:104790002340F34ECD2080367562B562FBF727FDCE
:1047A000DFF8C093DFF8C0B3B8B3F0484FF6FF723C
:1047B0000168CE290BD0CF290BD0D1290BD0D2291B
:1047C0000CD0D0290CD0B1F59A7F0ED00BE0B2629C
:1047D00009E0406806E04068706204E0726202E04E
:1047E000406805E0B062002734E0416804FA01F057
:1047F0007062C043F6E700BF04FA07F00090B16AA8
:10480000084207EBC70000EB071109EB810005D058
:1048100030F8401F491C018002E020E0A0F8405021
:1048200007EBC70000EB071109EB81008046403021
:1048300032220021FBF72EFDB8F94000142801DDDB
:1048400088F82C400098716A084201D088F82C50F2
:104850007F1CFFB2BBF900008742CDDD8AE09AF8E9
:1048600023005646E8B300231A464946BBF9000028
:104870000AE000BF02EBC20707EB021701EB870754
:10488000521C87F82C40D2B28242F3DD002224E091
:10489000C7B2202F00D9202796F82AC0844501DB13
:1048A0004FF0000C94440CF0FF0CBCFBF7F807FB36
:1048B00018C707EBC70C0CEB071701EB870797F836
:1048C00002C0BCF1020F02D0BCF1010F03D15B1C8E
:1048D00087F82C50DBB2521CD2B2824206DAA44FC7
:1048E00000E047E0B7F90070BB42D1DB9AF82B201B
:1048F00002EBC20303EB021201EB820282F82C509E
:104900009C4AB2F900203C2A0EDA00220AE000BFDD
:1049100002EBC20303EB021301EB8303521C83F887
:104920002C50D2B28242F3DD934A128872B1002237
:104930000AE000BF02EBC20303EB021301EB8303A7
:10494000521C83F82C40D2B28242F3DD00226FF079
:1049500031060DE002EBC20303EB021301EB83030C
:1049600093F82C70012F01D1A3F85460521CD2B2DD
:104970008242EFDD002063264946BBF900700DE05E
:1049800000EBC00202EB001201EB8202D36B1BB101
:1049900082F82C605B1ED363401CC0B2B842EFDBD0
:1049A0008AF82350002350468AF81F501A4613E015
:1049B00002EBC20606EB021601EB860C9CF80260C5
:1049C000012E07D1C67F761CC677DCF81C609E429C
:1049D00000DDB3B2521CD2B2BA42E9DB00F12C00C6
:1049E0004FF000024385654B85704470B3F9003089
:1049F000A0F12C00A3F1050612E000BF02EBC20CEF
:104A00000CEB021C01EB8C0CDCF828C09C4501DB94
:104A100080F82E40B44501DB80F82D50521CD2B2F4
:104A2000BA42EBDB90F82E1001290BD090F82F1032
:104A3000002905D090F82D10002901D08AF82F50B8
:104A4000BDE8F88F8AF82F40FAE770B54C480A2184
:104A50004C4D036800242868B3FBF1F2B0FBF1F67B
:104A60004948B2420AD102780F2A01D2521C027080
:104A7000D0B20A2803D34548036000E004702B60DD
:104A80004348444BB0F90020B3F90000B2FBF1F504
:104A9000B0FBF1F140488D420AD101780F2901D2D3
:104AA000491C0170C8B20A2803D33C48028000E0C8
:104AB00004701A8070BD70472DE9F041804600EB0C
:104AC000C001284801EB081110F82120032A44D125
:104AD00000EB810494F84250A807B4F9460010D5C1
:104AE0004FF4966188421ADA401C00B2A4F84600DE
:104AF000884214DBA4F846106078C0070FD1012269
:104B000009E060B1401E00B2A4F8460038B96078F0
:104B1000C00704D000220021404602F0F9FA28071D
:104B2000B4F948004FF00A074FF0000638D50A28BC
:104B300049DA401C00B2A4F848000A2843DBA4F874
:104B400048706078800704D401221146404602F084
:104B5000DFFA4046FFF7CAF935E0CFE07EC607200E
:104B600004C00720783C00106AC2072010C107204B
:104B700048C6072090C107207AC6072014C2072024
:104B800064C607202C010010320100104CC407201D
:104B90003001001068C607206AC607209AC30720A4
:104BA00000280DDDA0F1010000B2A4F8480050B9C2
:104BB0004FF000024FF00101404602F0A9FA02E076
:104BC00001DAA4F84860E806B4F94A0015D50A28C5
:104BD0001EDA401C00B2A4F84A000A2818DBA4F828
:104BE0004A706078400704D401220221404602F056
:104BF0008FFA4046FFF77AF90AE048B1401E00B24A
:104C0000A4F84A0020B900220221404602F080FAAE
:104C1000FF48B0F90000FF4AE169B2F90020801AAC
:104C2000814218DAA078012822D1B4F94C004FF45F
:104C3000967188420CDA401C00B2A4F84C008842FD
:104C400016DBA4F84C106078400711D401220BE069
:104C5000A4F84C600CE0B4F94C0048B1401E00B21E
:104C6000A4F84C0020B900220221404602F050FA7C
:104C70006078000701D0042011E0E748007820B1F7
:104C8000E078142801D9052009E094F84200800654
:104C900001D5022003E0E078142801D20120A070A1
:104CA000E0780A2894F82C0002D340F0800001E05C
:104CB00000F07F0084F82C00D84890F8331039B108
:104CC00094F82C1041F0020184F82C1066700CE06E
:104CD00094F86210002994F82C1002D041F00201DF
:104CE00001E001F0FD0184F82C10B4F95410B0F982
:104CF0003400084420634FF47A706063BDE8F081AB
:104D000070B5C7490020C74DB1F90C2001210346F9
:104D100001FA00F4224201D0295400E02B54401C37
:104D2000C0B20C28F4D3C04C2878C04E2178814200
:104D30000CD0B6F90010012908DB01287ED0002331
:104D400001220B21BAA000BF2BF0B9FA6178687874
:104D500081420BD0B6F90010022907DB01286ED082
:104D6000002302220B21B7A02BF0A9FAA178A87882
:104D700081420BD0B6F90010032907DB01287CD053
:104D8000002303220B21B4A02BF099FAE178E878F4
:104D900081420BD0B6F90010042907DB012872D03C
:104DA000002304220B21B1A02BF089FA2179287964
:104DB00081420BD0B6F90010052907DB012867D026
:104DC000002305220B21AEA02BF079FA61796879D6
:104DD00081420BD0B6F90010062907DB01285CD010
:104DE000002306220B21ABA02BF069FAA179A87948
:104DF00081420BD0B6F90010072907DB012851D0FA
:104E0000002307220B21A8A02BF059FAE179E879B9
:104E100081420BD0B6F90010082907DB012846D0E3
:104E2000002308220B21A5A02BF049FA217A287A29
:104E300081420FD0B6F90010092901E013E017E014
:104E400008DB012838D0002309220B21A0A000BFD5
:104E50002BF035FA0020295C2154401CC0B20C28EC
:104E6000F9D370BD09E001231A460B219DA06BE721
:104E7000012302220B21A0A076E7012303220B21AC
:104E8000A2A081E7FFE7012304220B21A4A08BE766
:104E9000012305220B21A7A096E7012306220B215F
:104EA000A9A0A1E7012307220B21ACA0ACE70123B5
:104EB00008220B21AEA0B7E7012309220B21B1A0E4
:104EC000C6E770B5C820FBF792F9B349002278B362
:104ED000B24C01232068C92803D0CA2810460FD03D
:104EE00027E0002000EB800401EB04142578322D2C
:104EF00001D26D1C2570401CC0B20228F2D321E003
:104F0000D4F8045003FA00F4254200EB800407D0E3
:104F100001EB04163478322C05D2641C347002E0A4
:104F200001EB04142270401CC0B20228EAD309E04D
:104F30001BE000EB800401EB0414401CC0B22270A3
:104F40000228F6D35FF0000000EB800401EB0414AC
:104F50002578142D02D984F8403001E084F84020EF
:104F6000401CC0B20228EFD37BE700EB800301EBCB
:104F70000313401C1A70C0B283F840200228F4D3F7
:104F80006FE72DE9FC5F05462448AC3030F9151079
:104F900011B1491E20F815102049B03131F9152002
:104FA00012B1521E21F815207B4A05EB850302EB56
:104FB00003147B4BB4F90820B3F900309A4202DDA8
:104FC000642320F81530002A02DA642221F8152023
:104FD00030F81530114A00264BB131F8153033B195
:104FE000B2F87A3093B140F6B830A2F87800A2F85F
:104FF000786094F84200401CC0B284F842000A284D
:1050000001D384F84260674F3888CDE0D1E00000DA
:1050100010C2072036C2072074C1072004C0072031
:10502000A4E907201E5600107C56001074C2072009
:105030004176746F6D6174202331206973204F466F
:10504000460000004176746F6D6174202332206940
:1050500073204F46460000004176746F6D617420E6
:105060002333206973204F46460000004176746F59
:105070006D6174202334206973204F464600000080
:105080004176746F6D6174202335206973204F461B
:10509000460000004176746F6D61742023362069EC
:1050A00073204F46460000004176746F6D61742096
:1050B0002337206973204F46460000004176746F05
:1050C0006D6174202338206973204F46460000002C
:1050D0004176746F6D6174202339206973204F46C7
:1050E000460000004176746F6D61742023312069A1
:1050F00073204F4E200000004176746F6D61742064
:105100002332206973204F4E200000004176746FD7
:105110006D6174202333206973204F4E20000000FE
:105120004176746F6D6174202334206973204F4E73
:10513000200000004176746F6D6174202335206972
:1051400073204F4E200000004176746F6D61742013
:105150002336206973204F4E200000004176746F83
:105160006D6174202337206973204F4E20000000AA
:105170004176746F6D6174202338206973204F4E1F
:10518000200000004176746F6D617420233920691E
:1051900073204F4E200000007439001010C107200A
:1051A0002AC207208EC10720DFF86084322809D088
:1051B00017E04FF41673A2F87A3020F8156021F842
:1051C000156014E794F84000F8B9B4F902005028CB
:1051D0001BDA94F84100C00717D10121284602F0DC
:1051E000B6FAB7F90000C8280FDDB4F90800FBF7DC
:1051F00087F8B8F90010884207DD94F84100C0072D
:1052000003D00021284602F0A2FAB4F90810FF48A2
:10521000B0F900004042814212DDE07B0A280CD246
:10522000401CC0B2E0730A2875D3207C002872D0DD
:105230002674284602F000FA6DE00A20E0736AE066
:1052400069DAE07BF0B3401E10F0FF00E07362D13A
:10525000207CB8BB01202074ED48EE4F0088401C34
:1052600000F0070004EB4000808CADF80400B88B20
:105270008DF800004FF063024FF001016846FAF725
:10528000FEFF04F120049DF800002076387E8DF8A2
:1052900000004FF00C024FF001016846FAF7EFFFF3
:1052A0009DF800006076387B8DF800001F220121F8
:1052B0006846FAF7E4FF9DF80000A0769DF8040028
:1052C000E07600E027E0387A8DF800001722002110
:1052D0006846FAF7D4FF9DF80000207738798DF8FA
:1052E00000003B2200216846FAF7C9FF9DF8000044
:1052F000607738788DF800003B2200216846FAF785
:10530000BEFF9DF80000A0779DF80500E07726809D
:105310006680A4F1200448F6A04894F8420088BBB7
:10532000B4F90810A069DFF8F0A20844DFF8EC92A5
:1053300045F2555BA061404525DB39F915205A45FA
:1053400003D1B74830F8157001E039F815703AF814
:1053500015002FF071F880B2B8420AD2A16900F1AD
:105360000100A1F50041A1F54A61A1613AF91520BA
:105370002BE031D93AF9150039B22FF051F9C4F8C0
:10538000188029E04FE0A749884225DC39F915202B
:105390005A4503D1A24830F8157001E039F815706C
:1053A0003AF815002FF048F880B2B84205D93AF91A
:1053B000150039B22FF034F9384658B1A269401EB1
:1053C00002EB0801A1613AF9152001B210462FF055
:1053D00027F901E09348A0613AF815002FF02CF866
:1053E000014639F91500584502D18D4830F91500AC
:1053F0004FF47A72514308B1B1FBF0F00A21B0FBCF
:10540000F1F0608288480088012806D12B20874966
:10541000684301EB4000408A608204F1120064227C
:105420000021FAF737FF207C012813D1208C474652
:10543000B8420ED2B4F90800FAF762FF218C084492
:1054400080B22084B84205D32684608C401C6084DE
:1054500000E026847649B4F90C00B1F900108842C6
:1054600001DDA07B78B3B4F84400401EA4F84400EA
:105470004FF4167904F144004A460021FAF70AFF76
:10548000B4F9440040F24E27B84205DB94F84310CB
:1054900041F0010184F843100A2805DC94F8430028
:1054A00020F0010084F8430094F84300C10710D0B5
:1054B000C0061AD40121284602F08FFA94F843005E
:1054C000C00706D011E0FFE7B4F8440000F1010086
:1054D000CCE794F84300C0060CD50021284602F022
:1054E0007CFA94F84300C00704D094F8430040F0DD
:1054F000100003E094F8430020F010004D4984F8B8
:105500004300B4F90C00B1F90010884201DDA07B22
:10551000D8B3B4F84600401EA4F8460004F1460093
:105520004A460021FAF7B6FEB4F94600B84205DB58
:1055300094F8431041F0020184F843100A2805DC76
:1055400094F8430020F0020084F8430094F84300EC
:10555000810709D5800613D40321284602F03DFABD
:1055600094F8430080070BD494F84300800611D5CB
:105570000221284602F031FA94F84300800709D549
:1055800094F8430040F0200008E0FFE7B4F846003C
:10559000401CC1E794F8430020F0200084F8430049
:1055A000A06C404510DA401CA06440450DDBA664A9
:1055B000214E36F815002EF03FFF401C01B236F99F
:1055C00015002FF02DF800E0A6641C4E308800284E
:1055D00072D01B48B0F900004845B4F9020004DA63
:1055E000C11700EB9170801003E0052190FBF1F0F2
:1055F00000B2A188C1EB400000B2FAF781FE00EBD7
:105600008000400000B20C211CE0000020C20720F6
:1056100008010010204002407826040004C407203E
:10562000FCC307206073FFFF62C207205C3B0010D1
:105630003CC207203AC20720942604003EC207203D
:105640002CC2072090FBF1F000B2E080B6F9001008
:10565000884233DDB4F90800FAF752FEFF49B1F988
:10566000001001EB8101884228DAFD487321B0F96E
:1056700000004843642190FBF1F0B4F9021000B23D
:1056800088421BDA94F84100800717D4B4F84C0024
:10569000401C00B2A0F53061A4F84C00B83903D129
:1056A0000121284602F032FBB4F94C1040F6BD301F
:1056B000814201DBA4F84C00BDE8FC9FB4F94C002A
:1056C0000028F9D0401E00B2A4F84C000028F3D105
:1056D0002846BDE8FC5F002102F018BB2DE9FF5F02
:1056E000E04CE14EDFF884932078DFF884A30025B6
:1056F0004FF0640B01281FD199F80000012801D058
:105700003C2030700A230022E621E120FAF738FD20
:10571000D848B0F90010BAF90000421E914204DBEB
:10572000401C814201DC02202070307820B1401EF4
:1057300010F0FF0030700AD02078DFF83CC3DFF8AB
:105740003C83CF4F02280AD003285CD0C2E0CD486A
:10575000257002210170CC4981F800B0BAE0BAF995
:105760000020652102FB01F0B0FBFBF302EB4210CD
:1057700000EB4000B0FBFBF0ACF80030A8F80000F4
:1057800099F80000E246C346022801D03C20307060
:105790000A23BF21BE20FAF7F3FC0A230022E621E8
:1057A000E120FAF7EDFCBA49BAF900800020DFF8F1
:1057B000DCA2BBF90020B1F9001010E000EBC0033F
:1057C00003EB001C0AEB8C03DB69434501DA9342CF
:1057D00003DCAD49401C087008E0401CC0B28842A0
:1057E000ECDB03202070AB483D700570307800285A
:1057F00070D0401E10F0FF0030706BD1A1492570B1
:105800000220087066E0BAF90020652102FB01F071
:10581000B0FBFBF0ACF8000002EB421000EB4000E4
:10582000B0FBFBF0A8F8000099F80000E246C34680
:10583000032800D03D700A23BF21BE20FAF7A0FC48
:105840000A230022E621E120FAF79AFCBAF9008047
:105850005946DFF83CA20126B1F900200020DFF80C
:105860002CB2BAF900100EE000EBC00303EB001CF1
:105870000BEB8C03DB69434501DA934201DC002624
:1058800003E0401CC0B28842EEDBD720FAF78FFC61
:1058900078B181480068D9280BD13878401CC1B252
:1058A0003970BAF90000814203DB76492570032084
:1058B0000870012E0ED1EE20CDE90005029503956A
:1058C000397803461622084634F089FE714801787B
:1058D000491C0170217889F80010BDE8FF9F2DE96F
:1058E000F84F6E4C0026E07B0A2807D2401CC0B25D
:1058F000E0730A2802D3E67301206074207C052837
:1059000005D2401CC0B22074052800D12674BE20E8
:10591000FAF76DFCDFF888B1624FDFF87C91624DD9
:1059200030B1D9F80010BF2917D1D9F8040082E0AE
:10593000607C002811D05D495D480A78552A04D062
:105940004A78552A01D0008875E0BBF900205948F3
:10595000DFF864A112B1012A52D06DE08E4626759F
:105960004FF0140C69466FF01303207D1EF80020E1
:10597000552A10D021F81030401CC0B220750228E2
:10598000F3D3BDF90020BDF902104C488A4213DD63
:105990001146026011E0474A00EB800802EB081252
:1059A00092F80E80B8F1000F02D021F810C0E3E7A2
:1059B000928921F81020DFE70160002902DAB7F9A7
:1059C000000011E0282901DD28210160BAF900104A
:1059D000B7F900200068891A01EB810149004143B1
:1059E000C82091FBF0F0104494F82410022922D131
:1059F0003349097801291ED13248B0F900001AE074
:105A000040880A30288094F82400022806D12C48C7
:105A10000078012802D12B4800882880B5F90010B1
:105A2000B7F90000814200DB2880B5F90010BAF90F
:105A30000000814200DB2880E07B0A2807D2401C5E
:105A4000C0B2E0730A2802D3E67301206074207CA0
:105A500005283CD2401CC0B2207435E020C207208B
:105A600018C2072025C107208BC10720D3000010D2
:105A700034C207206CC30720D2C30720D4C3072039
:105A800089C1072026C1072041010010783C001081
:105A90006AC207208AC1072010C1072004C007205E
:105AA00062C207200EC207208AC30720CEC2072089
:105AB0002CC207207439001010C2072018010010F2
:105AC000DCC3072022C20720052800D12674BE208F
:105AD000FAF78DFB38B1D9F80010BF291ED1D9F8DB
