:020000040000FA
:1000000038750010E1000000E5000000E700000086
:10001000E9000000EB000000ED000000000000001F
:10002000000000000000000000000000EF000000E1
:10003000F100000000000000F300000061E6030092
:10004000F7000000A1180400D5180400F700000014
:10005000F700000077520400F7000000F7000000EE
:10006000F7000000F7000000F7000000F7000000B4
:10007000F7000000F7000000F7000000F7000000A4
:10008000F7000000F7000000F7000000F700000094
:10009000F7000000F700000093840000F700000064
:1000A000F700000023500400F7000000F7000000F4
:1000B00045760400F7000000F7000000F70000009C
:1000C000F7000000F7000000F7000000DFF80CD098
:1000D00047F01EFB00480047FBE70300387500109F
:1000E00005480047FEE7FEE7FEE7FEE7FEE7FEE71E
:1000F000FEE7FEE7FEE7FEE7CD000000FEE710B5F5
:1001000047F0E0FF48F03CF848F02EF8AFF30080ED
:10011000BDE8104047F0FABF10B548F0B9FD49F00E
:10012000D7F9BDE8104048F00BBE48F01FBD48F0BD
:10013000E7BA09B10020704747F0ECBE00207047D5
:1001400030B54FF000003D4BA3F1140202F10A0458
:10015000115C61B1255CA94209D1195C39B1A1F1E9
:100160000101C9B2195411B94FF000011154115CC9
:10017000215400F10100C0B20A28E9D330BD70B5A6
:100180004FF000042D4EA6F1140604F10104E4B270
:10019000355D1DB1854201D00A2CF6D33055274874
:1001A0000C3040F82410283040F82420343803550F
:1001B00070BD4FF00001214AA2F1140201F10101CA
:1001C000C9B2535C834201D00A29F7D3535C8342FE
:1001D00012D11A480C3050F8213019480360174BDF
:1001E000343353F8213043604FF000005054134A29
:1001F00050544FF001007047002070474FF000014D
:100200000E4AA2F1140201F10101C9B2535C83420A
:1002100001D00A29F7D3525C82420CD107480C3036
:1002200050F8212006480260044A343252F8211066
:10023000416001207047002070470000305F0010CF
:10024000BC0000100D4BDA601870597070470B4AF3
:100250001161907070470949088170470749B1F9E9
:100260000800002809D0A0F1010000B20881002890
:1002700003D10146084601F0A5BC704708C007201D
:1002800090F900308B4200DA027090F9003093420E
:1002900000DD0170704790F900308B4200DA017088
:1002A00090F90010914200DD02707047B0F9003003
:1002B0008B4200DA0180B0F90010914200DD02802B
:1002C0007047B0F900308B4200DA0280B0F900309C
:1002D000934200DD01807047FE21C0B247F004BAAE
:1002E0008021C0B247F000BA1C21C0B247F0FCB96F
:1002F0007021C0B247F0F8B970477047FFFFFFFFA9
:10030000002802DAC0F1000000B270474FF0000090
:10031000FC4A4FF02001115400F10100C0B2C8287E
:10032000F9D3704701464FF00000F64A00F1010092
:10033000C0B2135C8B4201D0C828F7D3704710B508
:100340004FF00001F04C4FF00A020346B0FBF2F010
:1003500002FB1033635401F10101C9B20529F4D342
:1003600010BDF0B5E94D4FF0010129704FF00501C6
:10037000E54B4FF020064FF000072A7842B15A189B
:1003800012F8014C24B9814202D902F8016C07E04D
:1003900003EB010212F8014D04F1300414702F70C8
:1003A000A1F10101C9B20029E7D1F0BDFEB50346B4
:1003B0004FF02B07002B04DAC3F1000003B24FF01B
:1003C0002D074FF000004FF00A046D4693FBF4F642
:1003D00004FB16332B5433B200F1010040B20A285B
:1003E000F4DB4FF001034FF000044FF009004FF031
:1003F000200643B115F800C0BCF1000F03D19042B4
:1004000001DD2E5408E02B5C03F130032B544FF038
:10041000000304F10104E4B2A0F1010040B200289D
:10042000E7DA2D2F04D1204604F10104E4B22F5461
:100430008AB160B207E005EB000313F8013C2B54CE
:10044000A0F1010040B29042F5DC4FF02E00A8541C
:1004500004F10104E4B20846FFF764FF4FF0000125
:10046000A84A06E0A0EB01066B5C935501F101017F
:1004700049B2A142F6DBFEBDFEB503464FF02B07A5
:10048000002B03DAC3F100034FF02D074FF00000FB
:100490004FF00A046D461E4693FBF4F304FB13660B
:1004A0002E5400F1010040B20A28F4DB4FF00103A2
:1004B0004FF000044FF009004FF0200643B115F84B
:1004C00000C0BCF1000F03D1904201DD2E5408E0C2
:1004D0002B5C03F130032B544FF0000304F10104B3
:1004E000E4B2A0F1010040B20028E7DA2D2F04D1D8
:1004F000204604F10104E4B22F548AB160B207E04F
:1005000005EB000313F8013C2B54A0F1010040B2AD
:100510009042F5DC4FF02E00A85404F10104E4B23F
:100520000846FFF7FFFE4FF00001764A06E0A0EB19
:1005300001066B5C935501F1010149B2A142F6DB62
:10054000FEBD2DE9FE414FF02B0C002803DAC0F16F
:1005500000004FF02D0C4FF000044FF00A056F46DD
:10056000064690FBF5F005FB10663E5504F10104CC
:1005700064B20A2CF4DB4FF001054FF000044FF099
:1005800009004FF0200645B117F80080B8F1000FC0
:1005900003D1984201DD3E5408E03D5C05F1300591
:1005A0003D544FF0000504F10104E4B2A0F1010054
:1005B00040B20028E7DABCF12D0F05D1204604F146
:1005C0000104E4B207F800C08BB160B207E007EBAA
:1005D000000515F8015C3D54A0F1010040B29842BD
:1005E000F5DC4FF02E00F85404F10104E4B201EB05
:1005F000810002EB8000C1B24FF00000414A06E0EA
:10060000A1EB00053B5C535500F1010040B2A04254
:10061000F6DBBDE8FE8170B50D4616461C46FFF7B9
:100620008EFE601CC0B2FFF79CFE05EB850006EB5A
:100630008000C1B24FF00000334B324DA04201D2D6
:100640001A5C6A5407D31A5C202A04D064B105EB03
:10065000010606F8012CA1F10101C9B200F1010067
:10066000C0B20528EAD370BD6A54F4E730B5044639
:1006700008461546FFF756FEFF280CD0214A07E032
:1006800000EB050304F10104D15400F10100C0B2F4
:1006900021780029F4D130BD70B50D461446FFF71E
:1006A0004EFE601CC0B2FFF75CFE2846FFF73AFE24
:1006B0004FF00001144A134D24B9535C202B01D094
:1006C0002B5415E0A14202D2535C2B5410E008D108
:1006D0004FF02E032B5405EB0006535C06F8013C4B
:1006E00006E0535C202B03D005EB000606F8013C26
:1006F000A0F10100C0B201F10101C9B20529DBD3AB
:1007000070BD0000C2030010180500109EC0072035
:100710001044002801DA084403E0884201DBA0EB22
:100720000100C0B270472DE9FE4F04460D464FF45C
:10073000606041F0F8FD62424021FFF7E9FF4FEAB7
:10074000401000F58060044602A9204641F072FE88
:1007500001A904F1080041F06DFE694604F10C00A6
:1007600041F068FE2846FFF7DDFD83469DF808004E
:10077000DFF828A6DFF828964FF040064FF0300546
:100780004FF021074FF023084FF02004552845D0A3
:10079000CF22D12150287DD0E22351287BD042287E
:1007A0007AD0532879D0492878D14FF0C0010BF185
:1007B0000100C0B209F80B104FF0C20200F10101B4
:1007C000C9B209F800204FF02E0201F10100C0B2B9
:1007D00009F801204FF0C80200F10101C9B209F87F
:1007E00000204FF0ED0501F10100C2B209F80150FF
:1007F00002F10100C0B209F802309DF80910092980
:100800007DD201F1310100F10102D2B209F80010EC
:1008100002F10100C0B209F80240F5E39DF80A00B8
:10082000522815D14FF0C2010BF10100C0B209F8F6
:100830000B104FF0EA0200F10101C9B209F80020E3
:100840004FF0EB0201F1010000F0FF0B09F801206D
:100850000BF10100C0B209F80B4000F10101C9B26F
:1008600009F8004001F10100C0B209F8014000F1AF
:100870000101C9B209F8004001F10100C0B209F854
:1008800001409DF80410BAF83C20914250D19DF8E7
:10089000051004E092E054E11CE2FEE346E09AF821
:1008A0003820914244D19DF806109AF82C209142AC
:1008B0003ED100F10101C9B209F8005001F1010077
:1008C000C0B209F801704FF03A0200F10101C9B25B
:1008D00009F8002001F10100C0B209F8015000F14F
:1008E0000101C9B209F8006001F10100C0B209F8C4
:1008F000012000F10101C9B209F8005000E0FDE358
:1009000009F801809DF800004FF000024FF021012E
:10091000FFF7C2FE9DF8010000224021FFF7BCFE58
:100920009DF8020000222321FFF7B6FEBDE8FE8FEE
:1009300000F10101C9B209F8004001F10100C0B2A3
:1009400009F8015000F10101C9B209F8007001F184
:100950000100C0B209F8016000F10101C9B209F853
:10096000004001F10100C0B209F8014000F10101AD
:10097000C9B209F8005009F801809DF806004FF04F
:1009800000024FF02101FFF787FE9DF804000022CE
:100990002321FFF781FE9DF80500401E0C2803D39C
:1009A0004FF001008DF805009DF80510FD4800226C
:1009B00000EB81004021FFF759FEB7E74FF0C0037D
:1009C0000BF10100C0B209F80B304FF0C20300F187
:1009D000010C0CF0FF0C09F800304FF02E030CF165
:1009E0000100C0B209F80C3000F10103DBB209F8D4
:1009F000002003F10100C0B209F8031000F1010169
:100A0000C9B209F8004001F10100C2B209F8014081
:100A100002F10100C0B209F802409DF80410BAF8D2
:100A20003C20914247D19DF805109AF83820914218
:100A300041D19DF806109AF82C2091423BD100F14B
:100A40000101C9B209F8005001F10100C0B209F872
:100A500001704FF03A0200F10101C9B209F800201B
:100A600001F10100C0B209F8015000F10101C9B261
:100A700009F8006001F10100C0B209F8012000F19D
:100A80000101C9B209F8005009F801809DF8000081
:100A90004FF000024FF02101FFF7FEFD9DF801002D
:100AA00000224021FFF7F8FD9DF8020000222321DB
:100AB000FFF7F2FD3AE700F10101C9B209F8004081
:100AC00001F10100C0B209F8015000F10101C9B201
:100AD00009F8007001F10100C0B209F8016000F1ED
:100AE0000101C9B209F8004001F10100C0B209F8E2
:100AF000014000F10101C9B209F8005009F8018074
:100B00009DF806004FF000024FF02101FFF7C4FDF1
:100B10009DF8040000222321FFF7BEFD9DF805008B
:100B2000401E0C2803D34FF001008DF805009DF8FE
:100B300005109C48002200EB81004021FFF796FD44
:100B4000F4E64FF0C0010BF10100C0B209F80B1040
:100B50004FF0C20200F10101C9B209F800204FF0C4
:100B60002E0201F10100C0B209F801204FF0550238
:100B700000F10101C9B209F8002001F10100C0B281
:100B800009F801304FF0FB0200F10101C9B209F888
:100B900000204FF0F50001F10102D2B209F8010086
:100BA00002F10100C0B209F802409DF80410BAF841
:100BB0003C20914247D19DF805109AF83820914287
:100BC00041D19DF806109AF82C2091423BD100F1BA
:100BD0000101C9B209F8005001F10100C0B209F8E1
:100BE00001704FF03A0200F10101C9B209F800208A
:100BF00001F10100C0B209F8015000F10101C9B2D0
:100C000009F8006001F10100C0B209F8012000F10B
:100C10000101C9B209F8005009F801809DF80000EF
:100C20004FF000024FF02101FFF736FD9DF8010063
:100C300000224021FFF730FD9DF802000022232111
:100C4000FFF72AFD72E600F10101C9B209F8004080
:100C500001F10100C0B209F8015000F10101C9B26F
:100C600009F8007001F10100C0B209F8016000F15B
:100C70000101C9B209F8004001F10100C0B209F850
:100C80000140024600F10100C1B209F8025009F822
:100C900001809DF806004FF000024FF02101FFF7A0
:100CA000FBFC9DF8040000222321FFF7F5FC9DF8D2
:100CB0000500401E0C2803D34FF001008DF80500FD
:100CC0009DF805103748002200EB81004021FFF716
:100CD000CDFC2BE69DF80A0043287DD14FF0C001E2
:100CE0000BF10100C0B209F80B104FF0C20200F185
:100CF0000101C9B209F800204FF02E0201F10100F4
:100D0000C0B209F801204FF0C10200F10101C9B2DF
:100D100009F800204FF0E00001F10102D2B209F819
:100D200001004FF0F20102F10100C0B209F8021017
:100D30009DF80920092A11D202F1310200F10101C6
:100D4000C9B209F8002001F10100C2B209F801405E
:100D500002F10100C0B209F8024034E0A2F1090139
:100D60005A2921D202F101024FF00A0CB2FBFCF326
:100D700003F1300B00F10101C9B209F800B00CFB1E
:100D8000132000F1300001F10102D2B209F8010094
:100D900002F10100C0B209F8024014E00040024034
:100DA000C203001058A3040000F10101C9B209F800
:100DB000004001F10100C2B209F8014002F1010056
:100DC000C0B209F802409DF80410BAF83C209142E4
:100DD0004DD19DF8051000E092E09AF8382091423C
:100DE00045D19DF806109AF82C2091423FD100F190
:100DF0000101C9B209F8005001F10100C2B209F8BD
:100E000001704FF03A0302F10100C0B209F802305C
:100E100000F10101C9B209F8005001F10100C0B2AE
:100E200009F8016000F10101C9B209F8003001F1CF
:100E30000100C0B209F8015000F1010101F0FF0BFF
:100E400009F800809DF800004FF000024FF02101EA
:100E5000FFF722FC9DF8010000224021FFF71CFC57
:100E60009DF8020000222321FFF716FC48E000F164
:100E70000101C9B209F8004001F10100C0B209F84E
:100E8000015000F10101CAB209F8007002F101003D
:100E9000C1B209F8026001F10100C0B209F80140D5
:100EA00000F10101C9B209F8004001F10100C0B22E
:100EB00009F8015000F1010101F0FF0B09F8008071
:100EC0009DF806004FF000024FF02101FFF7E4FB10
:100ED0009DF8040000222321FFF7DEFB9DF80500AA
:100EE000401E0C2803D34FF001008DF805009DF83B
:100EF0000510FF48002200EB81004021FFF7B6FB00
:100F00009DF80A0053287ED14FF0C0030BF1010079
:100F1000C0B209F80B304FF0C20200F10101C9B2B2
:100F200009F800204FF02E0201F10100C0B209F8CB
:100F300001204FF0C10200F10101C9B209F80020FF
:100F40004FF0E00001F10102D2B209F801004FF0C8
:100F5000F20102F10100C0B209F802109DF8091077
:100F60004FF0430C092911D201F1310100F10102C6
:100F7000D2B209F8001002F10100C1B209F8023042
:100F800001F10100C0B209F801C021E009395A2974
:100F90000FD200F10101C9B209F8003001F10100DE
:100FA000C2B209F801C002F10100C0B209F8024062
:100FB0000EE000F10101C9B209F8004001F10100A1
:100FC000C2B209F8014002F10100C0B209F80240C2
:100FD0009DF80410BAF83C2091424ED19DF80510BE
:100FE0009AF83820914248D19DF806109AF82C20A2
:100FF000914242D100F10101C9B209F8005001F15A
:101000000100C0B201E085E0FEE309F801704FF095
:101010003A0200F10101C9B209F8002001F1010012
:10102000C0B209F8015000F10101C9B209F800602D
:1010300001F10100C0B209F8012000F10101C9B2BB
:1010400009F8005001F1010000F0FF0B09F80180E0
:101050009DF800004FF000024FF02101FFF71CFB4C
:101060009DF8010000224021FFF716FB9DF80200C9
:1010700000222321FFF710FB4CE000F10101C9B26F
:1010800009F8004001F10100C0B209F8015000F177
:101090000101C9B209F8007000E006E301F10100A6
:1010A000C0B209F8016000F10101C9B209F80040BD
:1010B00001F10100C0B209F8014000F10101C9B21B
:1010C00009F8005001F1010000F0FF0B09F8018060
:1010D0009DF806004FF000024FF02101FFF7DCFA07
:1010E0009DF8040000222321FFF7D6FA9DF80500A1
:1010F000401E0C2805D34FF0010000E0D0E38DF82E
:1011000005009DF805107A48002200EB810040217F
:10111000FFF7ACFA9DF80A005A2877D14FF0C201C8
:101120000BF10100C0B209F80B104FF0C70200F13B
:101130000101C9B209F8002001F10100C0B209F8AB
:10114000014000F10101C9B209F8004001F10100BC
:10115000C0B209F8014000F10101C9B209F800402C
:1011600001F10100C0B209F801409DF80410BAF87D
:101170003C2091424BD19DF805109AF838209142BD
:1011800045D19DF806109AF82C2091423FD100F1EC
:101190000101C9B209F8005001F10100C0B209F81B
:1011A00001704FF03A0200F10101C9B209F80020C4
:1011B00001F10100C0B209F8015000F10101C9B20A
:1011C00009F8006001F10100C0B209F8012000F146
:1011D0000101C9B209F8005001F1010000F0FF0B54
:1011E00009F801809DF800004FF000024FF0210146
:1011F000FFF752FA9DF8010000224021FFF74CFA58
:101200009DF8020000222321FFF746FA48E000F192
:101210000101C9B209F8004001F10100C2B209F8A8
:10122000015002F10100C0B209F8027000F10101A1
:10123000C9B209F8006001F10100C0B209F801402B
:1012400000F10101C9B209F8004001F10100C0B28A
:1012500009F8015000F1010101F0FF0B09F80080CD
:101260009DF806004FF000024FF02101FFF714FA3D
:101270009DF8040000222321FFF70EFA9DF80500D7
:10128000401E0C2803D34FF001008DF805009DF897
:1012900005101748002200EB81004021FFF7E6F916
:1012A0009DF80A0057287ED14FF0C1010BF10100D3
:1012B000C0B209F80B104FF0E00200F10101C9B211
:1012C00009F800204FF0F20001F10102D3B209F851
:1012D00001009DF809104FF0F00E092915D201F117
:1012E000310103F10100C0B209F8031002E000006F
:1012F00058A3040000F10101C9B209F800E001F1AE
:101300000100C2B209F801402EE0A1F109005A28FB
:101310001BD201F101014FF00A0BB1FBFBF202F10C
:10132000300C03F10100C0B209F803C00BFB12122C
:1013300002F1300200F10101C9B209F8002001F107
:101340000100C2B209F801E00EE003F10100C0B2F1
:1013500009F8034000F10101C9B209F8004001F1A8
:101360000100C2B209F8014002F10100C0B209F85F
:1013700002409DF80410BAF83C2091424DD19DF8EE
:1013800005109AF83820914247D19DF806109AF836
:101390002C20914241D100F10101C9B209F800505D
:1013A00001F1010000E081E0C2B209F801704FF0E4
:1013B0003A0302F10100C0B209F8023000F1010164
:1013C000C9B209F8005001F10100C0B209F801608A
:1013D00000F10101C9B209F8003001F10100C0B209
:1013E00009F8015000F1010101F0FF0B09F800803C
:1013F0009DF800004FF000024FF02101FFF74CF97B
:101400009DF8010000224021FFF746F99DF80200F7
:1014100000222321FFF740F948E000F10101C9B2A1
:1014200009F8004001F10100C0B209F8015000F1D3
:101430000101C9B209F8007001F10100C2B209F856
:10144000016002F10100C0B209F8024000F101019F
:10145000C9B209F8004001F10100C0B209F8015019
:1014600000F1010101F0FF0B09F800809DF8060072
:101470004FF000024FF02101FFF70EF99DF8040034
:1014800000222321FFF708F99DF80500401E0C28D3
:1014900003D34FF001008DF805009DF80510FF48BB
:1014A000002200EB81004021FFF7E0F89DF80A00E0
:1014B0004B287FF40EAC4FF0C1010BF10100C0B21C
:1014C00009F80B104FF0E00200F10101C9B209F870
:1014D00000204FF0F20201F10100C0B209F8012032
:1014E0009DF80910092915D201F1310100F101021D
:1014F000D2B209F800104FF0EA0102F10100C0B2C7
:1015000009F802104FF0E50200F10101C9B209F833
:10151000002030E0A1F109025A2A1DD201F1010197
:101520004FF00A0BB1FBFBF303F1300C00F10102A9
:10153000D2B209F800C00BFB131101F1300102F126
:101540000100C0B209F802104FF0EA0200F10101F7
:10155000C9B209F800200EE000F10101C9B209F892
:10156000004001F10100C0B209F8014000F10101A1
:10157000C9B209F8004001F10100C0B209F8014008
:101580009DF80410BAF83C20914248D19DF805100E
:101590009AF83820914242D19DF806109AF82C20F2
:1015A00091423CD100F10101C9B209F8005001F1AA
:1015B0000100C0B209F801704FF03A0200F10101D8
:1015C000C9B209F8002001F10100C0B209F80150C8
:1015D00000F10101C9B209F8006001F10100C0B2D7
:1015E00009F8012000F10101C9B209F8005009F819
:1015F00001809DF800004FF000024FF02101FFF73D
:101600004BF89DF8010000224021FFF745F89DF8B6
:10161000020000222321FFF73FF8BDE8FE8F00F112
:101620000101C9B209F8004001F10100C0B209F896
:10163000015000F10101C9B209F8007001F1010087
:10164000C0B209F8016000F10101C9B209F8004017
:1016500001F10100C0B209F8014000F10101C9B275
:1016600009F8005009F801809DF806004FF00002CB
:101670004FF02101FFF710F89DF80400002223210C
:10168000FFF70AF89DF80500401E0C2803D34FF021
:1016900001008DF805009DF805108048002200EB40
:1016A00081004021FEF7E2FFB7E74FF0C0030BF1E6
:1016B0000100C0B209F80B304FF0C20300F1010C79
:1016C0000CF0FF0C09F800304FF02E030CF1010074
:1016D000C0B209F80C304FF0C10C00F10103DBB2CD
:1016E00009F800C003F1010000F0FF0C09F8032025
:1016F0000CF10100C0B209F80C109DF80920092A6C
:101700000CD202F1310200F10101C9B209F8002046
:1017100001F10100C2B209F8014024E0A2F109017F
:101720005A2916D202F101024FF00A0BB2FBFBF369
:1017300003F1300C00F10101C9B209F800C00BFB44
:10174000132000F1300001F10102D2B209F80100CA
:1017500009E000F10101C9B209F8004001F10100FE
:10176000C2B209F8014002F10100C0B209F802401A
:101770009DF80410BAF83C20914249D19DF805101B
:101780009AF83820914243D19DF806109AF82C20FF
:1017900091423DD100F10101C9B209F8005001F1B7
:1017A0000100C0B209F801704FF03A0200F10101E6
:1017B000C9B209F8002001F10100C0B209F80150D6
:1017C00000F10101C9B209F8006001F10100C0B2E5
:1017D00009F8012000F10101C9B209F8005009F827
:1017E00001809DF800004FF000024FF02101FEF74C
:1017F00053FF9DF8010000224021FEF74DFF00221B
:101800009DF80200232100E06FE0FEF745FF04E7AA
:1018100000F10101C9B209F8004001F10100C0B2B4
:1018200009F8015000F10101C9B209F8007001F195
:101830000100C0B209F8016000F10101C9B209F864
:10184000004001F10100C0B209F8014000F10101BE
:10185000C9B209F8005009F801809DF806004FF060
:1018600000024FF02101FEF717FF9DF8040000224F
:101870002321FEF711FF9DF80500401E0C2803D31D
:101880004FF001008DF805009DF805100348002277
:1018900000EB81004021FEF7E9FEBEE658A30400FC
:1018A000A1F109025A2A16D201F101014FF00A06EC
:1018B000B1FBF6F303F1300500F10102D2B209F8F1
:1018C000005006FB131101F1300102F10100C0B21A
:1018D00009F8021009E000F10101C9B209F800405D
:1018E00001F10100C0B209F8014009F8004094E696
:1018F000F0B50446084616461F46FEF713FD02469D
:101900001046FF4DFF2806D108E0295404F10104D8
:1019100000F10100C0B221780029F6D1F948007821
:10192000002806D0002F04D002EB06014FF05F0024
:101930006854F0BD2DE9F04F0746DDE909058846FA
:1019400091469A46FEF7EEFCEE4B2021EC4C0A2223
:101950004FF0640C012D09D11E783EB104EB000656
:10196000A6F10E06B1707170317017E097FBF2FBB3
:1019700002FB1B7E04EB00060EF1300E06F80CECA9
:101980009BFBF2FE02FB1EBB0BF1300B06F80DBCFD
:1019900097FBFCF707F1300706F80E7C022D09D102
:1019A0001E783EB104EB0006A6F10A06B170717014
:1019B000317017E098FBF2F702FB178B04EB00067F
:1019C000A6F10A060BF1300B86F802B097FBF2FB8A
:1019D00002FB1B7707F13007777098FBFCF707F1E4
:1019E00030073770032D09D11E783EB104EB000695
:1019F000A6F10606B1707170317017E099FBF2F72D
:101A000002FB179804EB0006A6F1060608F1300861
:101A100086F8028097FBF2F802FB187707F130078F
:101A2000777099FBFCF707F130073770042D09D167
:101A30001B783BB121542044A0F102004170017099
:101A4000BDE8F08F9AFBF2F102FB11A303F1300322
:101A5000235491FBF2F302FB13112044A0F1020086
:101A600001F1300141709AFBFCF101F1300101708C
:101A7000E6E710B50C46FEF755FCA1491CB14FF046
:101A800003020A5410BD4FF004020A5410BD17B5EA
:101A900001EB810002EB8000C2B29DF800309A4851
:101AA00003F00F01445C96498C54A2F10102D2B2BA
:101AB00000EB13131B788B54A2F10102D2B29DF8F4
:101AC000013003F00F04045D8C54A2F10102D2B284
:101AD00000EB13131B788B54A2F10102D2B29DF8D4
:101AE000023003F00F04045D8C54A2F10102D2B263
:101AF00000EB13131B788B54A2F10102D3B29DF8B3
:101B0000032002F00F04045DCC54A3F10103DBB207
:101B100000EB12100078C8541EBD30B57B4901247B
:101B2000774B91F9012091F904108A4204D100EB1E
:101B3000800003F8204030BD4D1CAA4206D100F1C0
:101B4000010000EB800003F8204030BD8D1CAA424C
:101B500006D100F1020000EB800003F8204030BD08
:101B6000CD1CAA4206D100F1030000EB800003F86F
:101B7000204030BD0D1DAA4206D100F1040000EB4B
:101B8000800003F8204030BD4D1DAA4206D100F16F
:101B9000050000EB800003F8204030BD8D1DAA42F7
:101BA00006D100F1060000EB800003F8204030BDB4
:101BB000C91D8A42FBD100F1070000EB800003F849
:101BC000204030BD524B1A88A2F10102104400B2ED
:101BD0001880504A00EB800002444C4813680360B0
:101BE00012790271427811444170704770B5484DC6
:101BF000B5F9004004F101062E80464D04EB840443
:101C00002544424C26682E6026792E712070617022
:101C10002271A37070BD2DE9F04180460F46164633
:101C2000FEF774FB364C4FF0000518F8010B04F872
:101C3000010B05F10105EDB2142DF6D34FF00000B4
:101C400017F8011B04F8011B00F10100C0B21428B1
:101C5000F6D34FF0000016F8011B04F8011B00F149
:101C60000100C0B21428F6D34FF0000013F8011B96
:101C700004F8011B00F10100C0B21428F6D3BDE83E
:101C8000F08130B5039C4FF0640594FBF5F4224DD0
:101C90002C70224C206022480160224802602248B9
:101CA000036030BDF0B5DDE90646059D4FF06407E1
:101CB00095FBF7F5184F3D70184D286018480160E6
:101CC00018480260184803601848048018480670D5
:101CD000F0BD2DE9FE430D464FEA401000F580604F
:101CE000044602A9204640F0A5FB01A904F1080022
:101CF00040F0A0FB694604F10C0040F09BFB19E0AA
:101D0000C2030010FD000010E2A304004003001015
:101D10002C010010240408200B0100101C030010EB
:101D2000200300102403001028030010900200106C
:101D30000C0100102846FEF7F5FA3D4C4FF0200646
:101D400000F10101C9B226544FF0300701F1010042
:101D5000C0B267544FF0210800F10101C9B204F884
:101D600000804FF0400901F10100C0B204F8019079
:101D700000F10101C9B2265401F10100C0B266545C
:101D800000F10101C9B227544FF0230201F1010013
:101D9000C5B262549DF806004FF000024FF02101D9
:101DA000FEF77AFC9DF8040000222321FEF774FC64
:101DB0009DF80500401E0C2803D34FF001008DF85C
:101DC00005009DF805001B49002201EB8000402121
:101DD000FEF74CFC05F10100C0B2665500F10101AF
:101DE000C9B2275401F10100C0B204F801804FF0DC
:101DF0003A0200F10101C9B2225401F10100C0B25E
:101E0000675400F10101CDB204F800909DF8000084
:101E10004FF000024FF02101FEF73EFC9DF801005B
:101E200000224021FEF738FC6655BDE8FE83000025
:101E3000C203001058A304002DE9FC410646FC4DE6
:101E40004FF000072F76287D4FF0010302280FD0B6
:101E500006EB460101EB0612F64901EB820494F809
:101E60003D10CA0706D04FF066002876BDE8FC8119
:101E70002B76FBE794F83F20920703D54FF06700DD
:101E80002876F3E7890703D54FF068002876EDE759
:101E9000E94AB4F90810B2F90020914203DD4FF08D
:101EA00069002876E2E75242914203DA4FF06A0075
:101EB0002876DBE7DE490128497D00D111B10128F0
:101EC00004D005E04FF06B002876CFE701297ED0E3
:101ED0004FF0640028762B75A5F85C3019464FF456
:101EE000F87040F01EFB6E75A5F85E6031464FF449
:101EF000FA7040F016FBA761D048002130F91600B7
:101F000040F00FFBAF75A5F8607039464FF4FB70D9
:101F100040F007FBCA48008800F1010000F007000C
:101F200004EB4000008C0190C64DA88B00904FF050
:101F300063024FF001016846FEF7ADF9BC4C9DF815
:101F40000000A4342070287E00900C2201216846F5
:101F5000FEF7A1F99DF800006070287B00901F2219
:101F600001216846FEF797F99DF80000A0709DF8E2
:101F70000400E0704FF4FC70216840F013FB287AF5
:101F80000090172200216846FEF785F99DF80000B1
:101F90002071287900903B2200216846FEF77BF9EA
:101FA0009DF800006071287800903B22002168466F
:101FB000FEF771F99DF80000A0719DF80500E07131
:101FC0004FF4FE70616840F0EDFA4FE7FFE74FF025
:101FD0006C0028764AE72DE9F047954C207D0128D2
:101FE0007DD121460126497DA07DC1F1010206FA7D
:101FF00002F1924F8F4D0AB210B1012834D038E06F
:102000001423CA21C820FEF7BAF814234FF0FF3278
:10201000CE21CD20FEF7B3F8607D00EB400101EB4F
:10202000001005EB8000B0F90800FEF769F9617D4A
:1020300001EB410202EB011205EB820293691844A5
:10204000906148F6A043984213DBA0EB0300906137
:1020500037F8110040F067F9401C01B2607D37F994
:10206000100040F05EFA04E01423CA21C820FEF7F5
:1020700086F8617D4FF4F87901EB410000EB011027
:1020800005EB80004FF00008B0F902206E48B0F96F
:10209000000000EB8000B2EB400F47DAB4F85800C4
:1020A00000F1010000B2A4F858001E2840DB207D9A
:1020B000012822D1A07D00BB37F8110040F033F990
:1020C00001B26248627D30F9120040F02AFA607D68
:1020D00037F8100040F027F981B2607D00E049E058
:1020E00005F0BAFF5A48617D30F91100002140F037
:1020F00018FA4FF0320020846084607D5549C0F1A9
:102100000100085C552808D084F81480A4F85C808D
:102110000021484640F005FA0AE0A675A4F8606080
:1021200001214FF4FB7040F0FCF901E0A4F8588065
:10213000617D01EB410000EB011005EB8000B0F97F
:102140000220C1F1010000EB400101EB001005EBA2
:102150008000B0F9020082420CDBA07D012809D189
:1021600084F81480A4F85C804846BDE8F04700215C
:1021700040F0D7B9BDE8F08770B505464FF00006CE
:102180002B4C207D38BB34480088012823D004F133
:102190001E044FF0020104F80A1CE1874FF4F870A6
:1021A00040F0BFF9E586C5EB05104FEA80010D460A
:1021B000A1874FF4F97040F0B4F929464FF4FF704D
:1021C00040F0AFF93046208760864FF001064FF0AF
:1021D000010005F0D6FF304670BD10B5144C207DCF
:1021E000022813D104F11E04E08E05F0CAFF4FF05F
:1021F00000006086E086208704F80A0CE08701462C
:10220000BDE810404FF4F87040F08BB910BD70B5C8
:102210000C4C203C94F83800104D297808440C28C8
:102220001ED9A08F401C01B2B82040F07AF91CE002
:102230001000001020EB07209E010010C29C04003B
:10224000160500102040024098010010DE9C04009A
:10225000BE9C04001C020010500500100601001076
:10226000B4F93C10B82040F05CF994F838102878A4
:1022700001440C2907D994F838100C380144B620D1
:1022800040F04FF905E094F838100144B62040F0D2
:1022900048F994F82C001C2804D91C21B42040F0E3
:1022A00040F904E094F82C10B42040F03AF904F11D
:1022B0002004217A4FF0AE0040F033F92179B020AC
:1022C00040F02FF92178BDE87040B22040F029B9E4
:1022D00010B5FE48FE4C007830B3FE48828FFE49B0
:1022E00009888A4220D190F83820FC4909888A421E
:1022F0001AD190F82C10FA4A1288914214D190F811
:102300002810F84A128891420ED190F82410F64A0B
:102310001288914208D190F82000F4490988884237
:1023200002D14FF00100E075E07D00280CD0F048AC
:102330000088C0B2FFF720FF002805D04FF0000052
:10234000E075BDE8104062E710BD70B5E04C207D3F
:10235000022847D1B4F852004FF461610025884249
:1023600015D200F1010080B2A4F8520088420ED3C9
:10237000A4F85250B4F8540048B1A0F1010024F878
:10238000540F608800F101006080A4F15404B4F897
:1023900050003C2826D200F1010080B2A4F8500081
:1023A0003C281FD324F8505F6089A0F1010001B2DE
:1023B00061814FF4F97040F0B4F86089A4F15004E1
:1023C00018B1CC48008801280CD12575A4F85C50C0
:1023D00000214FF4F87040F0A4F8BDE870400020F0
:1023E00005F0CFBE70BDC4486FF03B010088C0EB64
:1023F000001001EB8000B649A1F8400070472DE9BC
:10240000F05FDFF8CC82DFF8F4A20025B8F84000D6
:10241000BB4E401C01B2B848A8F84010DFF8E49267
:10242000B0F900000A27C0EB00124FF0010B08F1D1
:102430004604B1EB820F61DBF0B3A8F84050257081
:10244000657088F80E50B0480078552811D1B6F95B
:10245000020050280DDDB6F90800FDF751FFB9F96B
:102460000010884203DB96F83D00C00701D084F8D5
:1024700000B0A5484078552811D1B6F94E00502833
:102480000DDDB6F95400FDF73BFFB9F900108842A5
:1024900003DB96F88900C00701D084F801B09B489F
:1024A000007880B9BAF90000FDF72AFFB9F90010E9
:1024B000884206DB964800E020E090F83D00C00727
:1024C00001D088F80EB09348007838B998F80F001A
:1024D00020B198F8140028B1022803D02570657047
:1024E00088F80E502078012820D0607801281DD06F
:1024F00098F80E00012819D0A8F842504146B8F9C2
:102500004200DFF8CC81002808F168087ED0A0F1F5
:10251000010000B28B46A1F84200052809DD0F2317
:102520001E226421E120FDF72AFE0AE0A8F842708D
:10253000E4E7002805DD0F231E226921E120FDF7D5
:102540001EFEBBF84200052811D1B6F90800FDF7C0
:10255000D7FEA8F80000B6F95400FDF7D1FEA8F8A0
:102560000200BAF90000FDF7CBFEABF8480058486E
:10257000B0F84200002858D1B6F90800FDF7C0FEB7
:10258000DFF84CB10BF16C0BABF80000B6F954005E
:10259000FDF7B6FEABF80200BAF90000FDF7B0FE99
:1025A000DFF82CA1AAF84A00AAF84450B8F90000B4
:1025B000BBF900100844B9F90010884202DA20780B
:1025C000012834D0B6F90200C82804DD25700021A6
:1025D000084605F08DFAB8F90200BBF9021008446C
:1025E000B9F90010884202DA6078012822D0B6F9E1
:1025F0004E00C82804DD65700021012005F078FA3E
:10260000BAF94800BAF94A10084400E01BE0B9F9E9
:102610000010884209DA9AF80E00012805D13E48D8
:102620000088012809D0AAF84470BDE8F09FAAF8F4
:102630004470D0E7AAF84470E2E7012005F058F8AA
:102640008AF80E50F1E7B1F94400F0B3A0F10100AF
:1026500000B20F46A1F84400052806DD0F23C8226A
:102660006421E120FDF78BFD07E0002805DD0F2345
:10267000C8226921E120FDF782FDB7F84400052852
:1026800011D1B6F90800FDF73BFEA8F80000B6F935
:102690005400FDF735FEA8F80200BAF90000FDF776
:1026A0002FFEA7F848000A48B0F844000028BCD123
:1026B000B6F90800FDF724FE054F6C373880B6F9EF
:1026C0005400FDF71DFE788028E07CE00601001034
:1026D00010000010004002402A02001028020010E2
:1026E0002602001020020010220200102402001016
:1026F0002C02001050050010AE01001082020010E4
:1027000020EB07209E0100101C020010F5040010B1
:10271000B8EB07200F01001014020010BAF90000F6
:10272000FDF7EEFDA7F16C0AAAF84A008AF80D50F1
:10273000B8F90000B7F900100844B9F90010884250
:1027400002DA2078012832D0B6F90200C82804DD68
:1027500025700021084605F0CBF9B8F90200B7F959
:1027600002100844B9F90010884202DA60780128A2
:1027700020D0B6F94E00C82804DD65700021012084
:1027800005F0B6F9BAF94800BAF94A100844B9F99F
:1027900000108842BFF656AF9AF80E00012886D185
:1027A000F9480088022808D08AF80DB03DE78AF879
:1027B0000DB0D2E78AF80DB0E4E7012004F098FFED
:1027C0008AF80E5031E7487B88460028EED00F2368
:1027D00000226E21E120FDF7D2FCB6F90800FDF7DA
:1027E0008FFDB9F90010884207DD2078012804D157
:1027F00025700021084605F07BF9B6F95400FDF775
:102800007FFDB9F90010884206DD6078012803D108
:102810006570002105F06CF9BAF90000FDF770FD54
:10282000B9F90010884208DD98F80E00012804D19B
:1028300088F80E50002004F05BFF207830B96078F3
:1028400020B998F80E0008B988F80D50E620FDF779
:10285000B0FC18B1CD480068E7280AD0CC48CD4973
:10286000B0F90000B1F9001000EB8000B1EB400FAF
:102870009CDA88F80D502078C74D01280FD1B9F99E
:102880000000B5F90010400090FBF7F0884206DA2E
:1028900096F83D00C00702D1012105F029F96078C2
:1028A000012810D1B9F90000B5F90010400090FBE3
:1028B000F7F0884207DA96F88900C00703D10121B2
:1028C000084605F015F998F80E0001287FF4BAAE15
:1028D000B9F90000B5F90010400090FBF7F088420C
:1028E000C6DAAE4890F83D00C007EFD1BDE8F05F12
:1028F000012004F0FDBE2DE9F047A94CE08F401CFB
:1029000000B2E087B0F5E16F02DB4FF00000E08736
:10291000B4F93E00B0F5DF6F11D90F230122642115
:10292000D220FDF72CFC0F230022D821D720FDF761
:1029300026FC0F230022D821DC20FDF720FCB4F96F
:102940003E00A0F5E061073933D1964D964C974E85
:10295000288821880A27DFF85882DFF858928842B1
:1029600010D0B6F9080090FBF7F000B2FDF7C8FCF4
:10297000B8F90010884205DAB4F90010B9F900007E
:102980003FF0CFFD68886188884212D0B6F9080010
:1029900090FBF7F000B2FDF7B3FCB8F900108842E5
:1029A00007DAB4F90210B9F90200BDE8F0473FF0C8
:1029B000B8BDBDE8F08710B57F4C208800F101005C
:1029C00020804FF008024FF000012046FDF779FC0F
:1029D0007649B4F9000001EB40004A880284B1F85E
:1029E0004E10A0F86C1010BD70B5744D7448754A47
:1029F000B5F90010B0F9003092F9000099421FDAE1
:102A0000714C0A280FDA714BB3F900300F2B0ADD35
:102A100000F1010040B210700A2809DB218001207A
:102A200004F01DF904E00A2802DB4FF00A001070E0
:102A3000B5F90000B4F90010884200DA208070BDBA
:102A4000FDDD0028FBD0A0F1010040B2107000288D
:102A5000F5DCBDE87040002004F001B92DE9FE4F1F
:102A60005B485E495B4A90F8F4035D4B0290B1F914
:102A700000B0DFF864C1B2F900A0B3F90010594DFD
:102A8000594C474F45F211664FF4FA7801910728E7
:102A900036D03946564B0A8D4E49DFF8409141F207
:102AA000707AB1F90010B9F900904A43B3F90610F1
:102AB000B3F9143001FB09F1DFF8249191FBFAF12D
:102AC000B9F90090494803FB09F393FBFAF3008836
:102AD00009B21BB2B04255D14FF47A6092FBF0F0CC
:102AE00000B2ACF8000029802380344A1080814273
:102AF00000DA1180B2F90000834200DA1380B6E0F8
:102B00003C48274B0178427803F1900301EB022106
:102B10001FFA81F9A3F800908178C27801EB0221B5
:102B20008AB25A80017990F805E001EB0E2189B252
:102B3000998001FB0AF141F2707391FBF3F10FFAF6
:102B400081FAACF800A002FB0BF292FBF3F109B2A0
:102B50002980019A09FB02F999FBF3F212B2228053
:102B60008379C07903EB0020234B18801348A0F829
:102B700000A0514500DA0180B0F900108A4276DAEF
:102B8000028074E03AE0000014020010BC00001063
:102B9000980100108402001086020010B8EB072094
:102BA00010000010FA040010F2C0072020EB0720EC
:102BB000A6010010EA9C0400160500109202001005
:102BC0009A010010200500101E0500102A010010B7
:102BD000A8ED072088C00720940200100A05001005
:102BE0008AC0072096020010980200101E020010F2
:102BF000DC5E0010A2F10720A0020010A0F5AC4995
:102C0000B9F12F0908D019F1280905D0B9F1140933
:102C100002D019F1190913D149F6404092FBF0F0A6
:102C200000B2ACF8000029802380F94A108081426C
:102C300000DA1180B2F90000834218DA138016E03E
:102C4000F449A0F5AA43B1F90020F349098D514395
:102C5000FA3B01D05A1E06D148F6B80091FBF0F0BD
:102C6000EB49088003E091FBF8F0E94908800298FD
:102C7000072803D0E9480188E9480180DFF8A4A3C8
:102C8000BAF90010E84BB3F9000048434FF4FA6575
:102C900090FBF5F0E54C6080BAF90810E44AB2F90F
:102CA000000000FB01F04FF42F7190FBF1F0A080C9
:102CB000BAF918C0B3F9020000FB0CF090FBF5F074
:102CC000A4F84E00BAF90230B2F9020000FB03F09A
:102CD00090FBF1F0A4F850004FF0DC00FDF78EFA05
:102CE00045F21369F0BBDFF84CC3BCF80000DFF815
:102CF00048B3BBF80010A0EB0100D04AB2F90010B5
:102D000001FB00F1CE4845F638630088984204D0B4
:102D1000A0F5BC4EBEF1920E04D14FF4967E91FB0D
:102D2000FEF10FE0A0F5A84EBEF5FD7E03D04845AC
:102D300001D0B04202D191FBF5F103E04FF47A7E6D
:102D400091FBFEF12181BCF80210BBF802C0A1EB9F
:102D50000C0CB2F9021001FB0CF1984205D0A0F561
:102D6000BC4200E017E0923A04D14FF4967091FB18
:102D7000F0F00EE0A0F5AA42FA3A03D0484501D09F
:102D8000B04202D191FBF5F003E04FF47A7091FB71
:102D9000F0F0A4F85400BAF90C00D6468446A0F22C
:102DA000213040F6B73100234FF0010A00908842ED
:102DB00001D2237301E084F80CA0A248B0F90020EE
:102DC00002FB0CF244F6206092FBF0F2A2F2111228
:102DD0006281BEF90E2040F6B731A2F2213B8B454D
:102DE00002D284F8583001E084F858A09549B1F92E
:102DF0000210514344F6206091FBF0F0A0F2111054
:102E00008A49A1F85600BEF904108F48B0F90000B5
:102E100001FB00F04FF4FA6290FBF2F08B4C208043
:102E2000BEF902208A48B0F9000002FB00F2844893
:102E300045F2FA550088A84204D14FF4C87592FBB8
:102E4000F5F201E092FBF8F20FFA82FB814AA2F858
:102E500000B0A4F800B0804AB2F9002001FB02F1F2
:102E600004D14FF4C87291FBF2F101E091FBF8F14B
:102E70007A4D09B22980642918DA4FF00001784AA6
:102E8000DFF8E0E1B2F900800EE0C1EBC10202EB35
:102E900001120EEB8202B5F90040126AA24200DD77
:102EA0002A8001F10101C9B24145EEDB4FF0000576
:102EB00029466B4A6B4CB2F900200BE0C1EBC1080C
:102EC00008EB011804EB8808D8F82480454401F188
:102ED0000101C9B29142F1DB63490D805149DFF82C
:102EE0008C81B1F90A5040F6B731A5F2213E8E45EA
:102EF00002D288F8003001E088F800A05C49B1F9FE
:102F000000104D4344F6206E95FBFEF5A5F2111519
:102F1000DFF860E1AEF80050009D40F6B73E754521
:102F200002D288F8003001E088F800A001FB0CF123
:102F300044F6206591FBF5F1A1F211114D4D298068
:102F400094F8E012DFF830C109293DD194F8E61277
:102F500094F8E752DFF824E101EB0521CEF80010E8
:102F600094F8E85294F8E9A205EB0A25CEF804504B
:102F700094F8EAA294F8EBE20AEB0E2ADFF800E1FB
:102F80000FFA8AFAAEF800A0BAF1000F1CD1A1EB3B
:102F900005052A49B1F9001001FB05F1A0F5AA4584
:102FA000FA3D0BD06D1E09D0484507D0B04205D080
:102FB000343D03D0283501D0143D03D14FF4FA65D8
:102FC00091FBF5F1ACF80010184DA5F802B0A0F592
:102FD000AC41023903D12889ACF8000002E0BCF80A
:102FE00000002881274E3188DFF89C90B9F9000055
:102FF00048434FF47A6A90FBFAF0244980B2088083
:10300000DFF88CE0642845D2AEF8000046E000000E
:103010009202001080C00720100000109A020010D9
:10302000A0020010DC5E0010F604001020EB072068
:1030300078C00720F2C00720FA0400107CC00720E7
:103040001E020010FE04001008050010840200108B
:10305000EE0400108A0200100C0500108802001017
:10306000E4010010A8ED07208C020010DD02001022
:10307000020500107A0300108202001040050010C3
:10308000B6020010AEC0072082C0072080030010E7
:10309000AC020010FC480088AEF800007688B9F950
:1030A0000200704390FBFAF04880F849B1F9000043
:1030B000F74EB6F9009009FB00F941F2707099FBE8
:1030C000F0FADFF8D093A9F800A0B1F902E0B6F960
:1030D00002A00AFB0EFA9AFBF0FAA9F802A0B1F9D5
:1030E00004A0B6F9046006FB0AF696FBF0F6A9F810
:1030F0000460B1F906A0DFF8A093B9F9006006FBFF
:103100000AF696FBF0FAE54EA6F800A0B1F908E041
:10311000B9F902A00AFB0EFA9AFBF0FAA6F802A08F
:10312000B1F90AA0B9F9041001FB0AF191FBF0F022
:10313000B080DB48DB4E418801F211110FFA81F9B2
:10314000A6F80090808800F211100FFA80FAA6F815
:1031500002A098F80110317298F802007072D24EF5
:1031600001B910B101290AD00AE009EB0A0000EB0D
:10317000D0706FF4887101EB600030801EE008B100
:1031800029B106E0AAF2111AA6F800A016E001285B
:1031900002D0012905D011E0A9F21119A6F800907A
:1031A0000CE001280AD1C1480078052803D2C048A4
:1031B0000088308002E04FF014003080BD48017874
:1031C000552904D1BBF1C80F01DD29893987407821
:1031D00055280AD1B5F94E00C82806DDB5F95400C6
:1031E000B5F90810884200DD3887BCF80000388740
:1031F0004FF000012FE0C1EBC10000EB011004EB28
:103200008000C678192E1CD28679C77906EB07266E
:103210004662067A477A06EB07260662867AC77AFE
:1032200006EB0726C661067B8662467B80F8526005
:10323000867B80F84260067C477C06EB0726C664E6
:1032400006E0C36143620362836280F84230C36474
:1032500001F10101C9B29142CDDB974EB5F90810D9
:103260004FF00A0091FBF0F1B5F9545095FBF0F0E6
:103270000844C0F1000007B23780904D2B804FF01A
:10328000000012E0C0EBC00101EB001104EB810172
:1032900091F803C0BCF1050F04D2496AB5F800C02B
:1032A0006144298000F10100C0B29042EADB288825
:1032B000384400B23080002800DA338033802B801D
:1032C0004FF000000FE0C0EBC00101EB001104EB78
:1032D0008101CF78052F03D2496A2F88394429808C
:1032E00000F10100C0B29042EDDB298803EB010040
:1032F00000B23080002800DA33807148B0F9005005
:10330000002D66D04FF000026E4E60E002F1140016
:10331000C0EBC00101EB001004EB8000C17819295B
:1033200039D28179C77901EB072702EB420106EB1D
:103330004111CF61077A90F809C007EB0C27CF62E3
:10334000877A90F80BC007EB0C278F61077B0F6221
:10335000477B81F84670877B90F80FC007EB0C27FE
:103360008F62077C90F811C007EB0C274F628B70BF
:10337000877C81F85970C77C81F85A70077D81F885
:103380005870477D81F85B70877D81F85C70C07DE7
:1033900081F85D0018E002EB420006EB4010C361CB
:1033A000C3628361036280F84630436283624FF0F8
:1033B0001901817080F8593080F85A3080F85830FF
:1033C00080F85B3080F85C3002F10102D2B2AA4290
:1033D0009CDBBDE8FE8F3C4A3C4910780B2801D0AD
:1033E000082805D1507818B939480078552803D0F5
:1033F000384800880870704708780028FBD0A0F192
:103400000100087070473448416821F4402141F4BC
:1034100080214160416821F4403141F480314160B4
:10342000416821F4404141F480414160416C21F404
:10343000402141F400214164416C21F4403141F4C8
:1034400000314164416C21F4404141F40041416448
:103450002248016821F0E0610160016841F4001137
:103460000160016821F480310160016821F47F412D
:1034700041F4807101604FF48071C16018484FF4CD
:10348000800101607047000092020010D45F0010BC
:103490003205001086030010B6C007208C03001010
:1034A0007A030010F0030820A20200101C01001093
:1034B000B4C007201C020010860200102C0500106A
:1034C000E601001014F8072040030010C6000010A9
:1034D000070100102E02001000C00240004003400F
:1034E00000E100E02DE9F041FF4C60882188401A9E
:1034F00000B204F08AFFA61D3080A0886188401ABF
:1035000000B204F082FF7080A0882188401A00B2C7
:1035100004F07BFFB0804FF49671A4F196058842C9
:1035200002DAA08868850CE0B6F90200884202DA67
:103530006088688505E0B6F90000884201DA2088D5
:103540006885EF7800262FB3E848B5F92A1002689D
:103550000A44026042680A44426082680A44826007
:10356000C2681144C160698E01F1010109B2698626
:10357000B1F5805F00DB6E86B5F932108A0531D176
:103580004FEAA12150F821204FEA22222A8540F853
:10359000216027E0D6482C796A7900EB8413B5F9CD
:1035A0002A1043F8221090070FD1014653F820C08B
:1035B000614400F10100C0B21028F7D34FEA211096
:1035C000CA49A1F1200121F81400641CE0B228715D
:1035D000102807D32E7102F10102D0B268711028B1
:1035E00000D36E71AE7007F1010707F00100E870BB
:1035F000C04A30B1106820F0FF0000F104001060F4
:103600003DE02979080706D4106820F0FF0000F19A
:103610000100106005E0106820F0FF0000F10200DA
:103620001060B548036843F080530360036A43F0B9
:1036300080430362036E43F080630366CB070AD0C6
:10364000436943F0805343618B0709D4436B23F0F4
:103650008043436308E0436923F080534361F3E709
:10366000436B43F080434363490704D4416F21F027
:103670008061416703E0416F41F0806141671068FC
:1036800040F080701060BDE8F081F0B5964C963C3B
:10369000B4F9240018B1A0F10100A08490E04FF02B
:1036A0000005257328469649944BB1F9002012E095
:1036B000C0EBC00101EB001103EB81018E78012EFC
:1036C00006D1C978142903D2217B01F101012173AC
:1036D00000F10100C0B29042EADB267B022E6FD3DC
:1036E00041F2883060672567A5674FF0000117E059
:1036F000C1EBC10000EB011003EB80008778012FC4
:103700000BD1406A276FB84200DD2067676FB8426F
:1037100000DA6067A76F3844A06701F10101C9B200
:103720009142E5DBA06F90FBF6F6E667606F012142
:1037300000B961676C4F206F163F4FF0640C00FBBF
:103740000CF0D4F874C090FBFCF03860A02800DDC9
:10375000E172782800DAE572E07A012830D14FF082
:1037600000016FF0310429E0C1EBC10000EB011052
:1037700003EB80008578012D1DD1456AB54205DD3A
:10378000B0F85050A5F10105A0F8505005DAB0F896
:10379000505005F10105A0F85050B0F95050A54225
:1037A00001DAA0F85040B0F95050322D03DD4FF04F
:1037B0003205A0F8505001F10101C9B29142D3DBAA
:1037C00000BFF0BD2DE9F05F4E4801684E4A01EAA6
:1037D00002010160484C216841F47C712160C1699B
:1037E00021F44021C161216E41F0007121664168E0
:1037F00021F040614160206840F000502060444862
:10380000424B45490278434893F83C50B1F90010C7
:103810000078154307D030B1052904DDA56945F4CA
:103820008075A56103E0E56945F48075E56193F86D
:103830008830134307D030B1052904DDA06940F07A
:103840004000A06103E0E06940F04000E061D22068
:10385000FCF7D4FC314D10B12868642870D0E069C1
:1038600040F00050E061D220FCF7C8FC2C4E10B1B3
:103870002868662875D03068C00771D0A06F40F006
:103880000070A0672748284F0088A0F5AA41FA39A0
:1038900001D0491E71D1D220FCF7B0FC10B12868CC
:1038A000662871D0D220FCF7A9FC10B128687228D4
:1038B00079D0A06F40F00070A067D220FCF79EFC8A
:1038C00010B128686A2874D03068384270D0A06976
:1038D00040F08000A061D220FCF790FC10B1286875
:1038E00067287AD0114824E0A6000010FC5E001082
:1038F000DC5A00100040034000C00920A8ED07205A
:10390000E401001000C00240FF00F0FF20EB0720A0
:10391000F4040010CB0000102A010010BC000010BD
:1039200020C007201E020010F8070010210100101F
:1039300006E0007880B3E06940F01000E061D9E172
:103940006868012806D000288DD1E06940F0005059
:10395000E06188E7A06940F00050A06183E700E0E3
:103960000DE0686820B1A06F40F00070A06789E7A3
:10397000E06F40F00070E06784E742E004E0E06F51
:1039800040F00070E0677DE7686838B1A06F40F0F4
:103990000070A06791E706E02EE00AE0E06F40F0DB
:1039A0000070E06789E7E06F40F00070E06784E74F
:1039B0000EE0686838B101288DD1A06940F0800020
:1039C000A06188E709E0E06940F08000E06182E7FB
:1039D000E06940F08000E0617DE7686810B101288F
:1039E00005D087E1E06940F01000E06182E1A06964
:1039F00040F01000A0617DE1A06940F01000A061DE
:103A000078E1DFF8F086A0F5AC41073962D1D22029
:103A1000FCF7F4FB10B12868672823D098F8000061
:103A200070B3A06940F01000A061D220FCF7E6FB63
:103A300010B12868662828D03068C00731D0A06F40
:103A400040F00070A067D220FCF7D8FB10B12868C6
:103A50006A282BD03068384237D0A06940F0800007
:103A6000A06147E1686830B10128DED1A06940F06B
:103A70001000A061D9E7E06940F01000E061D4E7F0
:103A8000E06940F01000E061CFE7686820B1E069CC
:103A900040F00070E061D6E7A06940F00070A061DE
:103AA000D1E7A06B40F00070A063CCE7686810B16C
:103AB000012805D01EE1E06940F08000E06119E1D5
:103AC000A06940F08000A06114E1E06940F080004E
:103AD000E0610FE1A0F5AC411B3970D1D220FCF7B9
:103AE0008DFB10B12868672831D098F80000B8B372
:103AF000A06940F01000A061D220FCF77FFB10B15C
:103B00002868662837D03068C00740D0A06F40F0E2
:103B10000070A067D220FCF771FB10B128686A28FA
:103B20003AD03068384245D0A06940F08000A061AA
:103B3000D220FCF763FB10B128686A2840D03068B7
:103B400038424CD0A06940F02000A061D2E0686803
:103B500038B10128D0D1A06940F01000A061CBE7B6
:103B600004E0E06940F01000E061C5E7E06940F082
:103B70001000E061C0E7686820B1E06940F00070C3
:103B8000E061C7E7A06940F00070A061C2E7A06BE8
:103B900040F00070A063BDE7686830B10128C7D16C
:103BA000A06940F08000A061C2E7E06940F08000B9
:103BB000E061BDE7E06940F08000E061B8E713E054
:103BC000686810B1012805D094E0E06940F0200059
:103BD000E0618FE0A06940F02000A0618AE0E06928
:103BE00040F02000E06185E0A0F5AC41113901D042
:103BF0000F3163D1D220FCF701FB10B12868662891
:103C000023D03068C0072CD0A06F40F00070A067B0
:103C1000D220FCF7F3FA10B128686A2826D0306861
:103C2000384231D0A06940F08000A061D220FCF77A
:103C3000E5FA10B1286867282BD098F8000090B3F7
:103C4000A06940F01000A06154E0686820B1A06F46
:103C500040F00070A067DBE7E06F40F00070E067C5
:103C6000D6E7E06F40F00070E067D1E7686830B1F8
:103C70000128DBD1A06940F08000A061D6E7E069AF
:103C800040F08000E061D1E7E06940F08000E06151
:103C9000CCE7686810B1012806D02BE0E06940F05D
:103CA0001000E06126E004E0A06940F01000A0618F
:103CB00020E0E06940F01000E0611BE0D220FCF75A
:103CC0009DFA10B12868662824D03068C0072DD02E
:103CD000A06F40F00070A067D220FCF78FFA10B1FF
:103CE00028686A2827D03068384232D0A06940F06E
:103CF0002000A061D220FCF781FAFF4EFF4F10B1E7
:103D0000286871282AD0FE48B0F9000080B3012845
:103D100049D053E0686820B1E06940F00070E0618C
:103D2000DAE7A06940F00070A061D5E7A06B40F031
:103D30000070A063D0E7686830B10128DAD1A069CB
:103D400040F02000A061D5E7E06940F02000E0618C
:103D5000D0E7E06940F02000E061CBE7686810B18F
:103D6000012806D02AE0E06940F40070E06125E017
:103D700004E0A06940F40070A0611FE0E148008801
:103D800038B9E148007D022803D0387808B9307886
:103D900020B1A06940F40070A0610FE0E06940F438
:103DA0000070E0610AE0D220FCF728FA10B1286820
:103DB000722817D0A06940F40070A061D220FCF7EF
:103DC0001DFADFF84883D24C10B1286875280ED050
:103DD0002078C0071ED098F8000040F0010088F855
:103DE00000001DE0E06940F40070E061E6E768680B
:103DF00010B1012807D013E098F8000000F0FE0091
:103E000088F800000CE098F8000040F0010088F805
:103E1000000005E098F8000000F0FE0088F80000BF
:103E2000D220FCF7EBF910B12868762809D0207869
:103E3000C00719D098F8000040F0020088F8000090
:103E400018E0686810B1012807D013E098F8000066
:103E500000F0FD0088F800000CE098F8000040F049
:103E6000020088F8000005E098F8000000F0FD006E
:103E700088F80000D220FCF7C1F910B12868772833
:103E800009D02078C00719D098F8000040F004004D
:103E900088F8000018E0686810B1012807D013E026
:103EA00098F8000000F0FB0088F800000CE098F89B
:103EB000000040F0040088F8000005E098F80000D9
:103EC00000F0FB0088F80000D220FCF797F910B151
:103ED0002868782809D02078C00719D098F8000001
:103EE00040F0080088F8000018E0686810B1012868
:103EF00007D013E098F8000000F0F70088F8000001
:103F00000CE098F8000040F0080088F8000005E098
:103F100098F8000000F0F70088F800007D4800885D
:103F200001287ED14FF000000146DFF8EC91DFF868
:103F3000EC817B4DDFF8ECA14FF001033AF9112041
:103F40005FEAC27C12D0DFF8E0C1BCF900C00CEB24
:103F50008C0BDFF8D8C1BCF900C0BCEB4B0F05DA05
:103F600003FA01FC4CEA000C0CF0FF005FEA827CD3
:103F70000AD596F800C0BCF1020F05D103FA01FC86
:103F80004CEA000C0CF0FF005FEA427C0AD597F87F
:103F900000C0BCF1020F05D103FA01FC4CEA000C91
:103FA0000CF0FF005FEA027C0CD5DFF884C1DCF87E
:103FB00000C0BCF1000F05D003FA01FC4CEA000C74
:103FC0000CF0FF005FEAC26C0AD599F800C0BCF1A2
:103FD000010F05D103FA01FC4CEA000C0CF0FF00C4
:103FE0005FEA826C0AD599F800C0BCF1020F05D1D6
:103FF00003FA01FC4CEA000C0CF0FF005FEA426C93
:1040000025D598F801C05FEACC6C04D5B5F900C09D
:10401000BCF1010F15DA98F85DC05FEACC6C06D5EB
:1040200000E049E0B5F900C0BCF1020F09DA98F8E8
:10403000B9C05FEACC6C0AD5B5F900C0BCF1030F7A
:1040400005DB03FA01FC4CEA000C0CF0FF005FEA10
:10405000026C23D598F801C05FEA0C7C04D0B5F956
:1040600000C0BCF1010F13DA98F85DC05FEA0C7C68
:1040700004D0B5F900C0BCF1020F09DA98F8B9C054
:104080005FEA0C7C0AD0B5F900C0BCF1030F05DB78
:1040900003FA01FC4CEA000C0CF0FF00120404D4FB
:1040A00003FA01F282EA0002D0B201F10101C9B2C1
:1040B0000429FFF443AF2070BDE8F09F2DE9F05FC5
:1040C000114E00274FF0010AB07C0A2808D200F1F7
:1040D0000100C0B2B0740A2802D3B77486F813A0E6
:1040E000A6F84C70A6F84E70CD20FCF787F8DFF8E4
:1040F0002C801FE0CD000010CE000010CF0000107B
:10410000FC010010C6020010100000102401001075
:10411000D5C00720F401001020010010A8ED0720F1
:10412000E4010010920300109801001084020010B6
:104130001CC00720DFF8FCB3A0B3FF4A4FF6FF73A3
:104140001068CE2801D1A6F84E30CF2802D1516890
:10415000A6F84E10D12802D15168A6F84C10D228EA
:1041600001D1A6F84C30D02806D15068A6F84C00F2
:104170006FEA0000A6F84E004FF0000437E0B6F8F2
:104180004E000AFA04F919EA000F0CD0C4EBC4007F
:1041900000EB041008EB800030F8401F01F1010132
:1041A000018008E028E0C4EBC40000EB041008EB39
:1041B0008000A0F84070C4EBC40000EB041008EBD2
:1041C000800505F1400032220021FCF76FF8B5F9B7
:1041D0004000142801DD85F82CA0B6F84C0019EA3F
:1041E000000F01D085F82C7004F10104E4B2BBF992
:1041F00000008442C3DD8AE0F07CF0B34FF000049D
:104200002146BBF900000AE0C1EBC10202EB01123A
:1042100008EB820282F82CA001F10101C9B28142AF
:10422000F2DD4FF0000122E0C2B2202A01D94FF0A6
:104230002002737E834201DB4FF000030B44DBB2AC
:10424000B3FBF2F502FB1532C2EBC20303EB021221
:1042500008EB82029378022B01D0012B04D182F863
:104260002C7004F10104E4B201F10101C9B28142F0
:1042700006DAB24AB2F9002000E048E09442D3DB0B
:10428000B17EC1EBC10202EB011108EB810181F8A3
:104290002C70AB49B1F900103C290FDA4FF0000146
:1042A0000AE0C1EBC10202EB011208EB820282F8C4
:1042B0002C7001F10101C9B28142F2DDA1490988E6
:1042C00079B14FF000010AE0C1EBC10202EB01122B
:1042D00008EB820282F82CA001F10101C9B28142EF
:1042E000F2DD4FF000016FF031030EE0C1EBC102CF
:1042F00002EB011208EB820292F82C40012C01D152
:10430000A2F8503001F10101C9B28142EEDD4FF057
:1043100000004FF06304BBF900100FE0C0EBC002D7
:1043200002EB001208EB8202D36B23B182F82C401F
:10433000A3F10103D36300F10100C0B28842EDDBB9
:10434000F774F7734FF00002104613E0C0EBC003A0
:1043500003EB001308EB83039C78012C07D1F47B5B
:1043600004F10104F473DB69934200DD9AB200F1B9
:104370000100C0B28842E9DBB287777786F81CA0DB
:104380004FF00000704AB2F90030A3F1050410E0CC
:10439000C0EBC00202EB001208EB8202926A9A4262
:1043A00001DB86F81DA0A24200DB377700F1010097
:1043B000C0B28842ECDB707F012807D0B07F0028B4
:1043C00003D0307F002800D0B77775E686F81EA0AE
:1043D00072E670B50A235E4C5C48002522680068CE
:1043E000B2FBF3F6B0FBF3F15A4AB1420BD11178AC
:1043F0000F2902D201F10101117011780A2903D3AA
:104400005549086000E0157020605448544CB0F9DC
:104410000000B4F90020B0FBF3F1B2FBF3F3514A12
:1044200099420BD111780F2902D201F101011170CB
:1044300011780A2903D34C49088000E015702080C8
:1044400070BD2DE9F04385B0484C494E00252078D9
:10445000401CC0B220700A2840D32570DFF814C178
:104460009CF8000000F101008CF80000424843492C
:10447000B0F9000008804249DFF8088162463746FB
:10448000B1F900105278B8F90030B7F900708842DD
:1044900006DDA0EB0109B9F10A0F01DB012F07D0FE
:1044A000884216DA081A0A2813DB012F09D010E017
:1044B00002F101028CF80120A3F10103A8F80030F9
:1044C00007E0A2F101028CF8012003F10103A8F832
:1044D0000030142251422B48FBF7E8FE2078DFF829
:1044E000A8802A4F082855D13088012852D1B8F821
:1044F00000008DF800004FF004008DF801008DF8E9
:1045000002504FF002008DF803008DF804504FF078
:1045100001008DF805004FF00601684641F052F9A0
:104520008DF806004FEA20208DF80700B7F900004B
:1045300070B32EE0E4010010BC000010A6C00720FC
:104540002A010010D002001094010010BCC0072006
:10455000380500103E0500103C0300103C0500101B
:10456000C0C00720C2C00720B00200102301001005
:10457000020200101A0408208C020010D40200105D
:10458000D6020010D802001006020010040200102B
:1045900044E00128FF486FF01402B0F90000C0EBBE
:1045A000001102EB8101FC4AB2F94020914232D164
:1045B000318801292FD1B8F800108DF800104FF084
:1045C00006018DF801108DF802504FF01E018DF894
:1045D00003104FEAE07100EB11614FEA21228DF8E0
:1045E00004208DF805004FF00601684641F0EAF816
:1045F0008DF806004FEA20208DF807003888002843
:1046000009D104466D46285D42F01DFB04F101040A
:10461000E4B2082CF7D305B0BDE8F0834FF00004F6
:10462000E94619F8040042F00EFB04F10104E4B27B
:10463000082CF6D3AEE710B5D84B4FF00000188029
:10464000D7484FF001044FF4FA62B0F90010D54892
:104650000129B0F9000006D002290FD1D249B1F9E1
:104660001A1060B10DE0D049B1F9161008B99142A5
:1046700003DC012802D1914200DA1C8010BD914276
:1046800003DC0128FAD19142F8DA1C8010BD2DE933
:10469000F0410646C6EBC600C44900EB061011F80F
:1046A0002020032A77D101EB800494F84250A80718
:1046B00017D5B4F946104FF49660814222DA01F121
:1046C000010109B2A4F8461081421BDBA4F84600A0
:1046D0006078C00716D101220021304602F051FD5A
:1046E00010E0B4F9461069B1A1F1010108B2A4F8D3
:1046F000460038B96078C00704D000221146304621
:1047000002F03FFD29074FF00A074FF0000015D5D2
:10471000B4F948000A2826DA00F1010000B2A4F832
:1047200048000A281FDBA4F84870607880071AD474
:1047300001221146304602F024FD14E0B4F948107D
:1047400000290DDDA1F1010108B2A4F8480050B91B
:104750004FF000024FF00101304602F012FD02E07E
:1047600001DAA4F84800E80616D5B4F94A000A2888
:1047700020DA00F1010000B2A4F84A000A2819DB8F
:10478000A4F84A706078400714D401220221304610
:1047900002F0F7FC0EE046E0B4F94A0050B1A0F197
:1047A000010001B2A4F84A1021B9002202213046CA
:1047B00002F0E7FC6078000703D04FF00400A0701F
:1047C00017E07B48007830B1E078142803D94FF027
:1047D0000500A0700DE094F84200800603D54FF06C
:1047E0000200A07005E0E078142802D24FF001002A
:1047F000A070E0780A2806D394F82C0040F08000DE
:1048000084F82C0005E094F82C0000F07F0084F878
:104810002C006149B4F95000B1F92010084420631C
:104820004FF47A706063BDE8F08170B54FF000001E
:104830006049614D4FF00104B1F90C20034604FAC0
:1048400000F10A4201D02C5400E02B5400F1010089
:10485000C0B20C28F3D3594E2878594C3178814294
:104860000BD0B4F90010012907DB01287ED000230A
:1048700001220B2153A03BF0B3FE7178687881428E
:104880000BD0B4F90010022907DB01286FD00023F8
:1048900002220B2150A03BF0A3FEB178A878814200
:1048A0000BD0B4F90010032907DB01286BD00023DB
:1048B00003220B214DA03BF093FEF178E878814272
:1048C0000BD0B4F90010042907DB01285CD00023C9
:1048D00004220B214AA03BF083FE317928798142E2
:1048E0000BD0B4F90010052907DB01284DD00023B7
:1048F00005220B2147A03BF073FE71796879814254
:104900000BD0B4F90010062907DB01283ED00023A4
:1049100006220B2144A03BF063FEB179A8798142C5
:104920000BD0B4F90010072907DB01282FD0002392
:1049300007220B2141A03BF053FEF179E879814237
:104940000BD0B4F90010082907DB012820D0002380
:1049500008220B213EA03BF043FE317A287A8142A7
:104960000ED0B4F9001009290ADB01E08DE093E0D4
:1049700001280ED0002309220B213AA03BF030FE83
:104980004FF0000078E08EE094E09AE0A0E0A6E02E
:10499000ACE0B2E0AE01001010000010D002001038
:1049A000CC020010CE020010DC5E0010A8ED072043
:1049B0000F010010D45F00100E04082056040820D8
:1049C000EE0100104176746F6D617420233120690F
:1049D00073204F46460000004176746F6D6174206D
:1049E0002332206973204F46460000004176746FE1
:1049F0006D6174202333206973204F464600000008
:104A00004176746F6D6174202334206973204F46A2
:104A1000460000004176746F6D6174202335206973
:104A200073204F46460000004176746F6D6174201C
:104A30002336206973204F46460000004176746F8C
:104A40006D6174202337206973204F4646000000B3
:104A50004176746F6D6174202338206973204F464E
:104A6000460000004176746F6D617420233920691F
:104A700073204F4646000000295C315400F10100CC
:104A8000C0B20C28FFF47EAF70BD01231A460B2183
:104A9000F2A03BF0A5FDF0E6012302220B21F4A0D9
:104AA0003BF09EFDF9E6012303220B21F5A03BF02C
:104AB00097FD02E7012304220B21F7A03BF090FDB4
:104AC0000BE7012305220B21F8A03BF089FD14E739
:104AD000012306220B21FAA03BF082FD1DE70123F2
:104AE00007220B21FBA03BF07BFD26E701230822D8
:104AF0000B21FDA03BF074FD2FE7012309220B21C0
:104B0000FEA03BF06DFD3BE770B5C820FBF776FBE0
:104B1000FF490022A8B3FF4B01241868C9281CD004
:104B2000CA282FD0104600EB400303EB001301F816
:104B3000232000F10100C0B20228F4D34FF000009E
:104B400000EB400303EB001311F82350142D39D967
:104B500001EB830383F83C4038E04FF0000000EBAA
:104B6000400303EB001511F82530322B03D203F17B
:104B7000010301F8253000F10100C0B20228EED394
:104B8000DCE729E04FF000005E6804FA00F31E4203
:104B90000CD000EB400303EB001511F82530322B4D
:104BA0000AD203F1010301F8253005E000EB4003D0
:104BB00003EB001301F8232000F10100C0B202282A
:104BC000E3D3BBE701EB830383F83C2000F1010052
:104BD000C0B20228B4D370BD4FF0000000EB400318
:104BE00003EB001301F8232001EB830383F83C203F
:104BF00000F10100C0B20228F0D370BD2DE9FE4FD4
:104C00000546C54931F9150018B1A0F1010021F898
:104C10001500C14A121D32F9150018B1A0F10100AA
:104C200022F8150005EB4500B94B00EB051003EB2E
:104C30008004BA4B0290B4F90800B3F900304FF089
:104C4000640B984201DD21F815B0002801DA22F842
:104C500015B0B14831F81530843800274BB132F81F
:104C6000153033B1B0F86430A3B140F6B831A0F8D4
:104C70006210A0F8627094F83E00401CC0B284F844
:104C80003E000A2801D384F83E70A54E30883228B1
:104C900009D017E04FF41673A0F8643021F81570AE
:104CA00022F81570E5E794F83C0058B9B4F9020011
:104CB000502807DA94F83D00C00703D101212846A7
:104CC00002F016FFB6F90000964EC8280FDDB4F9C1
:104CD0000800FBF715FBB6F90010884207DD94F8D1
:104CE0003D00C00703D00021284602F001FF8D4897
:104CF000B4F90810B0F900004042814214DD607B35
:104D00000A280DD200F10100C0B260730A2871D3E5
:104D1000A07B00286ED0A773284602F057FC69E0FC
:104D20004FF00A00607365E064DA607BF0B3A0F1D5
:104D30000100C0B26073C8BBA07BB8BB4FF00100DC
:104D4000A0737948008800F1010000F0070004EB2F
:104D50004000008C0090754EB08B01904FF06302C4
:104D60004FF0010101A8FBF796FA04F11C049DF82D
:104D700004002076307E01904FF00C024FF00101CC
:104D800001A8FBF788FA9DF804006076307B01905B
:104D90001F22012101A8FBF77EFA9DF80400A076EE
:104DA0009DF80000E076307A019000E022E01722C2
:104DB000002101A8FBF76FFA9DF8040020773079F5
:104DC00001903B22002101A8FBF765FA9DF8040041
:104DD0006077307801903B22002101A8FBF75BFA55
:104DE0009DF80400A0779DF80100E0772780678098
:104DF000A4F11C0448F6A04894F83E0000282AD1EB
:104E0000B4F90810606908446061DFF82491DFF8A4
:104E100024A1404520DB3AF91510A1F5AA405538E8
:104E200003D1454830F8156001E03AF8156039F8CB
:104E300015003DF078FA80B2B0420ED26169A1F55A
:104E40000041A1F54A61616139F9152000F10100C5
:104E500001B2104672E0D6E07CE072E04176746FF9
:104E60006D6174202331206973204F4E20000000B3
:104E70004176746F6D6174202332206973204F4E28
:104E8000200000004176746F6D6174202333206927
:104E900073204F4E200000004176746F6D617420C6
:104EA0002334206973204F4E200000004176746F38
:104EB0006D6174202335206973204F4E200000005F
:104EC0004176746F6D6174202336206973204F4ED4
:104ED000200000004176746F6D61742023372069D3
:104EE00073204F4E200000004176746F6D61742076
:104EF0002338206973204F4E200000004176746FE4
:104F00006D6174202339206973204F4E200000000A
:104F100020EB0720BC00001094000010A601001038
:104F2000280100109E0100101605001020400240CC
:104F3000BE9C0400140300100C0300103DF0F1FAB5
:104F400033E032D939F9150031B23DF0EAFAC4F84C
:104F500014802AE0FF49884227DC3AF91510A1F5B0
:104F6000AA40553803D1FC4830F8156001E03AF802
:104F7000156039F815003DF0D6F980B2B04205D978
:104F800039F9150031B23DF0CCFA304658B16169BB
:104F90004144616139F91520A0F1010001B21046C8
:104FA0003DF0BFFA01E0EB48606139F815003DF0D3
:104FB000BAF901463AF91500A0F5AA42553A02D1CC
:104FC000E54830F915004FF47A7201FB02F158B14F
:104FD000B1FBF0F04FF00A01B0FBF1F02082DF48A6
:104FE0000088012803D008E04FF00000F2E7DC4918
:104FF000029801EB8000408A208204F110006422B4
:105000000021FBF753F9A07B012813D1A08B404569
:105010000FD2B4F90800FBF773F9A18B084480B2F2
:10502000A083404506D3A783E08B00F10100E08315
:1050300000E0A783DFF82C93CB49DFF830A3B9F960
:105040000000B1F90010884202DD9AF80000E8B3D0
:10505000B4F84000A0F10100A4F8400004F14000C1
:105060004FF416720021FBF721F9B4F9400040F229
:105070004E26B04205DB94F83F1041F0010184F860
:105080003F100A2805DC94F83F0020F0010084F866
:105090003F00B749B9F90000B1F90010884202DDBC
:1050A0009AF80000B0B3B4F84200A0F10100A4F8EF
:1050B00042004FF4167904F142004A460021FBF702
:1050C000F5F8B4F94200B04207DB00E023E094F8C1
:1050D0003F1041F0020184F83F100A2805DC94F8E3
:1050E0003F0020F0020084F83F00606C404520DA69
:1050F00000F10100606440451CDB67649D4E36F89A
:1051000015003DF010F9401C01B236F915003DF0D4
:1051100008FA0FE006E0B4F8400000F10100A4F83E
:1051200040009BE7B4F8420000F10100A4F84200FF
:10513000BFE76764904E308800285ED08F48B0F992
:105140000000484508DAB4F902004FEAE07100EBCC
:1051500091704FEAA00006E0B4F902004FF005019B
:1051600090FBF1F000B24FEA4000A188A0EB0100F3
:1051700000B2FBF7C5F800EB80004FEA400000B238
:105180004FF00C0190FBF1F000B2E080B6F9001096
:10519000884234DDB4F90800FBF7B2F801467848DC
:1051A000B0F9000000EB8000814228DA75487321D5
:1051B000B0F90000484390FBFBF0B4F9021000B2D4
:1051C00088421CDA94F83D00800718D4B4F84800EF
:1051D00000F1010000B2A4F84800A0F53061B83930
:1051E00003D10121284602F0CEFDB4F9481040F663
:1051F000BD30814201DBA4F84800BDE8FE8FA4F871
:105200004870FAE738B56048624C01885F48B0F9E9
:1052100000305F48B0F9002039B15448007830B10F
:105220004FF01400ADF8000005E0238025E04D4864
:105230000088ADF80000584DBDF9001029605748AE
:105240000029B0F9000012DB282902DD4FF0280107
:105250002960A3EB000101EB81014FEA41012B68BA
:1052600001FB03F14FF0C80391FBF3F108444C49F3
:10527000097D022900D1104620804A48008818B9CB
:1052800049480078022802D14848008820804848D0
:105290000078052800D12280BE20FAF7AFFF28B1A0
:1052A00044480168BF2901D140682080B4F900005A
:1052B0004FF0620100FB01F14FF0640291FBF2F14B
:1052C0003D4B19804FF0660100FB01F090FBF2F0BE
:1052D0003A49088038BD2DE9F041314CB4F9260037
:1052E00010B1A0F10100E0843548364D00882880D7
:1052F000354E0A27B6F90800002806DAFBF700F851
:1053000090FBF7F0298808442880B6F9540000285B
:1053100006DAFAF7F5FF90FBF7F0298808442880B1
:105320002A48B5F90010B0F9000091FBF0F000F147
:105330000100C0B22074264AB2F9002091FBF2F1BC
:1053400001F10101CAB2627422494FF03C05B1F982
:10535000003041E06073FFFF0C030010DC0100101F
:10536000ACEC07207A030010B8010010DD02001039
:10537000B6010010DA9C0400BA010010A801001068
:105380009E01001098010010D6010010900100103D
:10539000A0010010A4020010280500108E010010CA
:1053A00010000010C6020010CE000010BE02001057
:1053B000CF000010BC00001026050010A4C007207C
:1053C0002C050010A8C0072020EB0720A201001028
:1053D000A4010010A6C00720984202DD0880E584E1
:1053E00005E09A4203DAE08C08B90A80E584FF48B8
:1053F0000288FF480AB102880A80A27F0AB10288A7
:105400000A80B0F90020BDE8F0410121F948FAF71F
:105410004DBF2DE9F05FF848F84CB0F900106187F6
:10542000F748008818B9F7480078022802D1F648F2
:1054300000886087B4F9620018B1A0F10100A4F8F7
:105440006200B4F9640018B1A0F10100A4F864008E
:10545000EE484FF00A0890F83F20920703D190F8E9
:105460008B00800702D091FBF8F06087E8480126A6
:10547000B0F90010491E052900D30680B0F90000DC
:10548000002500EB8001E079B0EB410F08DA00F174
:105490000100C0B2E071B0EB410F01DBE571267293
:1054A000E120FAF7ABFEDFF86C93DB4ADFF86CB370
:1054B000DB4F00287CD0DB490868642809D06928C4
:1054C0000CD0D94B6E280FD0E5282AD0E6282BD057
:1054D000D2E14868618C08442084CDE14868618C41
:1054E000A1EB00002084C7E1208CA0F1010000B2F4
:1054F00020841E2806DDCD49B3F90000B1F9001063
:1055000088420CDA6078401CC0B26070FA28DFD1A3
:105510000A230022E721E620FAF731FEACE16570AC
:10552000AAE148682084A7E1B3F90010B9F90000A6
:1055300081421BDD4FF00B01E177B2F90010A1EBC6
:105540000000282807DDB4F92000002803DDA0F1C1
:105550000500208490E1B4F920000028B8D0217A19
:105560000029B5D0A0F10100208485E1B2F9001036
:105570008142ADDA4FF00C02E277A0EB010028285F
:105580000ADDB4F9200040F2F731884204DA00F174
:105590000500208470E10BE0B4F92000B0F57F7FB6
:1055A00096DA217A002993D000F10100208463E18A
:1055B000207A00288CD09E48008818B19BF8E3021E
:1055C000282885D9B4F92200E0864FF01301E1774D
:1055D000B4F93810638F91FBF8FCBCEB430F0DDD81
:1055E0004FF01401E177B4F8621019B1A0F1010095
:1055F000E086DEE0A0F10A00E086DAE011DAC3EB33
:10560000031888450DDA4FF01501E177B4F8621000
:1056100019B1A0F10100E086CBE0A0F10300E08623
:10562000C7E0C3EB0318884508DD9C4506DD4FF055
:105630001601E177A0F10100E086BAE0B2F900C0FE
:10564000B9F90020DFF8EC91DFF8ECA1944576DAA7
:105650004FF0170884F81F80B9F90080BAF900905C
:10566000A8EB0908A2EB0809E1452EDD4FF018026E
:10567000E27700290DDA4FF01901E177B4F86210F2
:1056800019B100F10100E08693E000F10A00E08624
:105690008FE003EB83028A420DDD4FF01A01E177C0
:1056A000B4F8621019B100F10100E08681E000F168
:1056B0000200E0867DE0B1EB420F7ADA4FF01B0189
:1056C000E17700F10100E08673E04FEAE87908EB4A
:1056D0009978A2EBA808E0451EDD4FF01C02E277A6
:1056E00003EB83028A420DDD4FF01D01E177B4F830
:1056F000621019B100F10100E0865AE000F10200E9
:10570000E08656E0B1EB420F53DA4FF01E01E1772D
:1057100000F10100E0864CE0521E944549DA4FF05A
:105720001F02E27703EB8302B1EB420F41DA4FF045
:105730002001E17700F10100E0863AE0FFE738DD83
:105740004FF02101E177B9F90010BAF90030A1EB6F
:10575000030101EB020363450DDA4FF02201E1770B
:10576000B4F8621019B1A0F10100E08621E0A0F1C7
:105770000A00E0861DE0CB1701EB937102EBA1015B
:1057800061450DDA4FF02301E177B4F8621019B1E9
:10579000A0F10100E0860CE0A0F10200E08608E044
:1057A000521C944505DD4FF02401E177A0F1010082
:1057B000E0862248007848B921484078012805D180
:1057C0002048407810B94FF03200E0860B4840F294
:1057D000F2320A213630FAF769FDE08E60842084C7
:1057E0001948B0F9000088BB398830E0B4010010D6
:1057F000E4010010A6C00720A60100101000001050
:10580000C6020010CE000010BC02001020EB0720E2
:1058100016020010A402001088020010A8ED072054
:10582000D2C00720BC0000108402001098010010B4
:10583000B60200108E01001090010010CF00001081
:10584000E0020010F0040010020200100BE051B161
:10585000FF4909882184FF49098801EB81014FEA4A
:105860004101E1866184012801D0022804D1FA496E
:10587000E08E098808442084A5726572F7485A466C
:10588000B0F900100CE0C0EBC00303EB001302EB17
:105890008303DB781E2B00D2A67200F10100607238
:1058A000607A8842EFDBA07A20B94FF4167020842A
:1058B0006084E086B7F9000010B1A0F101003880E3
:1058C00040F2F2320A21E648FAF7F0FC2572BDE810
:1058D000F09F2DE9F05F4FF00000E44AE14BE24D0C
:1058E0004FF0010A4FF00A0B0646B2F9004025E0DE
:1058F000DF49E04F095C37F91110B1F5FA6F0EDAA4
:1059000019560A2908DA01F1010149B219540A2984
:1059100011DB05F800A00EE003F800B00BE019560B
:10592000002907DDA1F1010149B21954002902DC67
:105930002E5400E01E5400F10100C0B2A042D7DB9B
:105940004FF00004DFF83093CC4FDFF8348383E06E
:10595000CC4830F9140010B9295D01290FD008B1E5
:10596000285D60B119F90400002819DBA0F10100DD
:1059700040B209F80400002814DC3E5512E019F981
:1059800004000A2809DA00F1010040B209F8040015
:105990000A2807DB07F804A004E009F804B001E0D6
:1059A00009F8046018F80410385D81424ED0AC4A02
:1059B000203A918E01F101019186012807D054B35C
:1059C000012C2FD0022C34D0032C39D03EE034B13E
:1059D000012C0BD0022C10D0032C15D036E0012363
:1059E0001A460F21A8A03AF0FBFD2FE00123022266
:1059F0000F21A8A03AF0F4FD28E0012303220F2193
:105A0000A7A03AF0EDFD21E0012304220F21A7A079
:105A10003AF0E6FD1AE0002301220F21A6A03AF099
:105A2000DFFD13E0002302220F21A8A03AF0D8FDE9
:105A30000CE0002303220F21A9A03AF0D1FD05E0DC
:105A4000002304220F21ABA03AF0CAFD385D08F80C
:105A5000040004F10104E4B28448B0F90000844277
:105A6000FFF676AF33E7A84A4FF001001070A74960
:105A700008705070487070472DE9F05FA548DFF856
:105A80009892DFF88C82B0F900C0B9F90000744C2C
:105A9000C0EB0011203CB8F902706FF01D0A6FF0E6
:105AA000950B0025984EB4F940000AEB81020BEBF0
:105AB0008103674505DCDFF864C2BCF900C06745B7
:105AC00004DA824202DD834200DA3570944FB8F97D
:105AD00008C0B7F900E08D4FBCEB4E0F04DCCEF1EF
