:020000040000FA
:1000000050760010E1000000E5000000E70000006D
:10001000E9000000EB000000ED000000000000001F
:10002000000000000000000000000000EF000000E1
:10003000F100000000000000F3000000058404004F
:10004000F700000035BC040069BC0400F7000000A4
:10005000F7000000BBF704001F1A0500F7000000BE
:10006000F7000000F7000000F7000000F7000000B4
:10007000F7000000F7000000F7000000F7000000A4
:10008000F7000000F7000000F7000000F700000094
:10009000F7000000F7000000F7AD0000F7000000D7
:1000A000F700000041F50400F7000000F700000031
:1000B000F9210500F7000000F7000000F70000003C
:1000C000F7000000F7000000F7000000DFF80CD098
:1000D00052F034F900480047AB8504005076001018
:1000E00005480047FEE7FEE7FEE7FEE7FEE7FEE71E
:1000F000FEE7FEE7FEE7FEE7CD000000FEE710B5F5
:1001000052F0BCFE52F018FF52F00AFFAFF300802D
:10011000BDE8104052F0D6BE10B553F095FC54F037
:10012000B3F8BDE8104053F0E7BC53F0FBBB53F00D
:10013000C3B909B10020704752F0C8BD0020704714
:1001400030B54FF000003D4BA3F1140202F10A0458
:10015000115C61B1255CA94209D1195C39B1A1F1E9
:100160000101C9B2195411B94FF000011154115CC9
:10017000215400F10100C0B20A28E9D330BD70B5A6
:100180004FF000042D4EA6F1140604F10104E4B270
:10019000355D1DB1854201D00A2CF6D33055274874
:1001A0000C3040F82410283040F82420343803550F
:1001B00070BD4FF00001214AA2F1140201F10101CA
:1001C000C9B2535C834201D00A29F7D3535C8342FE
:1001D00012D11A480C3050F8213019480360174BDF
:1001E000343353F8213043604FF000005054134A29
:1001F00050544FF001007047002070474FF000014D
:100200000E4AA2F1140201F10101C9B2535C83420A
:1002100001D00A29F7D3525C82420CD107480C3036
:1002200050F8212006480260044A343252F8211066
:10023000416001207047002070470000E85E001018
:1002400010C107200D4BDA601870597070470B4AC7
:100250001161907070470949088170470749B1F9E9
:100260000800002809D0A0F1010000B20881002890
:1002700003D10146084601F082BF7047100000100C
:1002800090F900308B4200DA027090F9003093420E
:1002900000DD0170704790F900308B4200DA017088
:1002A00090F90010914200DD02707047B0F9003003
:1002B0008B4200DA0180B0F90010914200DD02802B
:1002C0007047B0F900308B4200DA0280B0F900309C
:1002D000934200DD01807047FE21C0B252F01AB88F
:1002E0008021C0B252F016B81C21C0B252F012B830
:1002F0007021C0B252F00EB870477047FFFFFFFF89
:10030000002802DAC0F1000000B270474FF0000090
:10031000FC4A4FF02001115400F10100C0B2C8287E
:10032000F9D3704701464FF00000F64A00F1010092
:10033000C0B2135C8B4201D0C828F7D3704710B508
:100340004FF00001F04C4FF00A020346B0FBF2F010
:1003500002FB1033635401F10101C9B20529F4D342
:1003600010BDF0B5E94D4FF0010129704FF00501C6
:10037000E54B4FF020064FF000072A7842B15A189B
:1003800012F8014C24B9814202D902F8016C07E04D
:1003900003EB010212F8014D04F1300414702F70C8
:1003A000A1F10101C9B20029E7D1F0BDFEB50346B4
:1003B0004FF02B07002B04DAC3F1000003B24FF01B
:1003C0002D074FF000004FF00A046D4693FBF4F642
:1003D00004FB16332B5433B200F1010040B20A285B
:1003E000F4DB4FF001034FF000044FF009004FF031
:1003F000200643B115F800C0BCF1000F03D19042B4
:1004000001DD2E5408E02B5C03F130032B544FF038
:10041000000304F10104E4B2A0F1010040B200289D
:10042000E7DA2D2F04D1204604F10104E4B22F5461
:100430008AB160B207E005EB000313F8013C2B54CE
:10044000A0F1010040B29042F5DC4FF02E00A8541C
:1004500004F10104E4B20846FFF764FF4FF0000125
:10046000A84A06E0A0EB01066B5C935501F101017F
:1004700049B2A142F6DBFEBDFEB503464FF02B07A5
:10048000002B03DAC3F100034FF02D074FF00000FB
:100490004FF00A046D461E4693FBF4F304FB13660B
:1004A0002E5400F1010040B20A28F4DB4FF00103A2
:1004B0004FF000044FF009004FF0200643B115F84B
:1004C00000C0BCF1000F03D1904201DD2E5408E0C2
:1004D0002B5C03F130032B544FF0000304F10104B3
:1004E000E4B2A0F1010040B20028E7DA2D2F04D1D8
:1004F000204604F10104E4B22F548AB160B207E04F
:1005000005EB000313F8013C2B54A0F1010040B2AD
:100510009042F5DC4FF02E00A85404F10104E4B23F
:100520000846FFF7FFFE4FF00001764A06E0A0EB19
:1005300001066B5C935501F1010149B2A142F6DB62
:10054000FEBD2DE9FE414FF02B0C002803DAC0F16F
:1005500000004FF02D0C4FF000044FF00A056F46DD
:10056000064690FBF5F005FB10663E5504F10104CC
:1005700064B20A2CF4DB4FF001054FF000044FF099
:1005800009004FF0200645B117F80080B8F1000FC0
:1005900003D1984201DD3E5408E03D5C05F1300591
:1005A0003D544FF0000504F10104E4B2A0F1010054
:1005B00040B20028E7DABCF12D0F05D1204604F146
:1005C0000104E4B207F800C08BB160B207E007EBAA
:1005D000000515F8015C3D54A0F1010040B29842BD
:1005E000F5DC4FF02E00F85404F10104E4B201EB05
:1005F000810002EB8000C1B24FF00000414A06E0EA
:10060000A1EB00053B5C535500F1010040B2A04254
:10061000F6DBBDE8FE8170B50D4616461C46FFF7B9
:100620008EFE601CC0B2FFF79CFE05EB850006EB5A
:100630008000C1B24FF00000334B324DA04201D2D6
:100640001A5C6A5407D31A5C202A04D064B105EB03
:10065000010606F8012CA1F10101C9B200F1010067
:10066000C0B20528EAD370BD6A54F4E730B5044639
:1006700008461546FFF756FEFF280CD0214A07E032
:1006800000EB050304F10104D15400F10100C0B2F4
:1006900021780029F4D130BD70B50D461446FFF71E
:1006A0004EFE601CC0B2FFF75CFE2846FFF73AFE24
:1006B0004FF00001144A134D24B9535C202B01D094
:1006C0002B5415E0A14202D2535C2B5410E008D108
:1006D0004FF02E032B5405EB0006535C06F8013C4B
:1006E00006E0535C202B03D005EB000606F8013C26
:1006F000A0F10100C0B201F10101C9B20529DBD3AB
:1007000070BD0000D6030010300500103505001044
:100710001044002801DA084403E0884201DBA0EB22
:100720000100C0B270472DE9FE4F04460D464FF45C
:1007300060604BF0C2FF62424021FFF7E9FF4FEAE1
:10074000401000F58060044602A920464CF03CF8B9
:1007500001A904F108004CF037F8694604F10C00D7
:100760004CF032F82846FFF7DDFD82469DF8080080
:10077000DFF824B7DFF824974FF040074FF030063A
:100780004FF021084FF023054FF0200455287DD06D
:10079000CF224FF0D10C502879D0E221512877D0C8
:1007A0004FF04E0E422874D0532873D04FF0ED0E08
:1007B000492870D0D323EE224FF0E70C73286BD07A
:1007C00075286AD0662869D19DF80A005A28FAD19E
:1007D0004FF0D4010AF10100C0B20BF80A1000F189
:1007E0000101C9B20BF800204FF0F00201F1010045
:1007F000C3B20BF801204FF0EC0103F10100C0B2CD
:100800000BF803104FF02E0300F10101C9B20BF8F1
:10081000003001F10100C0B20BF801C04FF0E00C54
:1008200000F10101C9B20BF800C001F10100C0B232
:100830000BF8012000F10101C9B20BF8003001F101
:100840000100C2B20BF8014002F10100C0B20BF886
:1008500002409DF80410B9F83C2091427ED19DF8E9
:10086000051099F838209142F8D19DF8061099F8B2
:100870002C209142F2D100F10101C9B20BF80060C5
:1008800001F10100C0B20BF8018008E03AE011E18B
:10089000E1E1B8E2FDE3FDE3FDE3FDE330E04FF02D
:1008A0003A0200F10101C9B20BF8002001F1010088
:1008B000C0B20BF8016000F10101C9B20BF8007081
:1008C00001F10100C0B20BF8012000F10101C9B231
:1008D0000BF800600BF801509DF800004FF000028B
:1008E0004FF02101FFF7D8FE9DF8010000224021C2
:1008F000FFF7D2FE9DF8020000222321FFF7CCFE75
:10090000BDE8FE8F9DF80A00522815D14FF0C201B4
:100910000AF10100C0B20BF80A104FF0EA0200F130
:100920000101C9B20BF800204FF0EB0001F1010208
:1009300002F0FF0A0BF801000AF10100C0B20BF847
:100940000A4000F10101C9B20BF8004001F10100B9
:10095000C0B20BF8014000F1010100E0F7E3C9B2B9
:100960000BF8004001F10100C0B20BF8014000F1AA
:100970000101CAB20BF8004002F10100C1B20BF84C
:10098000024001F10100C0B20BF801409DF80410D3
:10099000B9F83C20914247D19DF8051099F83820CC
:1009A000914241D19DF8061099F82C2091423BD1FB
:1009B00000F10101C9B20BF8006001F10100C0B201
:1009C0000BF801804FF03A0200F10101C9B20BF8B7
:1009D000002001F10100C0B20BF8016000F101013B
:1009E000C9B20BF8007001F10100C0B20BF8012090
:1009F00000F10101C9B20BF800600BF801509DF83D
:100A000000004FF000024FF02101FFF745FE9DF876
:100A1000010000224021FFF73FFE9DF80200002266
:100A20002321FFF739FE6BE700F10101C9B20BF892
:100A3000004001F10100C0B20BF8016000F10101BA
:100A4000C9B20BF8008001F10100C0B20BF80170CF
:100A500000F10101C9B20BF8004001F10100C0B280
:100A60000BF8014000F10101C9B20BF800600BF86E
:100A700001509DF806004FF000024FF02101FFF7F2
:100A80000BFE9DF8040000222321FFF705FE9DF8D0
:100A90000500401E0C2803D34FF001008DF805001F
:100AA0009DF80510FE48002200EB81004021FFF771
:100AB000DDFD25E74FF0C0010AF10100C0B20BF8DF
:100AC0000A104FF0C20300F10101C9B20BF8003067
:100AD0004FF02E0301F10100C0B20BF8013000F11C
:100AE0000101C9B20BF8002001F10100C0B20BF8FE
:100AF00001C000F10101C9B20BF8004001F1010091
:100B0000C0B20BF8014000F10101C9B20BF800407E
:100B100001F10100C0B20BF8014000F10101C9B2BE
:100B20000BF8004001F10100C0B20BF801409DF844
:100B30000410B9F83C20914247D19DF8051099F86E
:100B40003820914241D19DF8061099F82C2091420D
:100B50003BD100F10101C9B20BF8006001F10100C5
:100B6000C0B20BF801804FF03A0200F10101C9B2A6
:100B70000BF8002001F10100C0B20BF8016000F198
:100B80000101C9B20BF8007001F10100C0B20BF80D
:100B9000012000F10101C9B20BF800600BF801500F
:100BA0009DF800004FF000024FF02101FFF774FDA7
:100BB0009DF8010000224021FFF76EFD9DF8020024
:100BC00000222321FFF768FD9AE600F10101C9B276
:100BD0000BF8004001F10100C0B20BF8016000F118
:100BE0000101C9B20BF8008001F10100C0B20BF89D
:100BF000017000F10101C9B20BF8004001F10100E0
:100C0000C0B20BF8014000F10101C9B20BF800605D
:100C10000BF801509DF806004FF000024FF0210143
:100C2000FFF73AFD9DF8040000222321FFF734FD71
:100C30009DF80500401E0C2803D34FF001008DF8ED
:100C400005009DF805109648002200EB8100402128
:100C5000FFF70CFD54E64FF0C0020AF10100C0B2EC
:100C60000BF80A204FF0C20300F10102D2B20BF8D8
:100C700000304FF02E0302F10100C0B20BF8023039
:100C80004FF0550300F10102D2B20BF8003002F12F
:100C90000100C0B20BF802104FF0FB0100F101029D
:100CA000D2B20BF800104FF0F50002F10101C9B209
:100CB0000BF8020001F10100C0B20BF8014000F195
:100CC0000101C9B20BF8004001F10100C2B20BF8FA
:100CD000014002F10100C0B20BF802409DF804107F
:100CE000B9F83C20914247D19DF8051099F8382079
:100CF000914241D19DF8061099F82C2091423BD1A8
:100D000000F10101C9B20BF8006001F10100C0B2AD
:100D10000BF801804FF03A0200F10101C9B20BF863
:100D2000002001F10100C0B20BF8016000F10101E7
:100D3000C9B20BF8007001F10100C0B20BF801203C
:100D400000F10101C9B20BF800600BF801509DF8E9
:100D500000004FF000024FF02101FFF79DFC9DF8CD
:100D6000010000224021FFF797FC9DF802000022BD
:100D70002321FFF791FCC3E5024600F10100C1B257
:100D80000BF8024001F10100C0B20BF8016000F164
:100D90000101C9B20BF8008001F10100C0B20BF8EB
:100DA000017000F10101C9B20BF8004001F101002E
:100DB000C0B20BF8014000F10101C9B20BF80060AC
:100DC0000BF801509DF806004FF000024FF0210192
:100DD000FFF762FC9DF8040000222321FFF75CFC72
:100DE0009DF80500401E0C2803D34FF001008DF83C
:100DF00005009DF805102A48002200EB81004021E3
:100E0000FFF734FC7CE59DF80A0043287DD14FF0C4
:100E1000C0010AF10100C0B20BF80A104FF0C20283
:100E200000F10101C9B20BF800204FF02E0201F1D0
:100E30000100C0B20BF801204FF0C10200F1010126
:100E4000C9B20BF800204FF0E00201F10100C0B27E
:100E50000BF801204FF0F20200F10101C9B20BF8CA
:100E6000002001F10100C0B20BF801E09DF809205B
:100E7000092A17D202F1310200F10101C9B20BF8BF
:100E8000002001F10100C0B20BF8014000F10101A6
:100E9000C9B20BF8004034E0D60300100040024015
:100EA0004C510500A2F109015A291BD202F101029D
:100EB0004FF00A0CB2FBFCF303F1300A00F1010120
:100EC000C9B20BF800A00CFB132202F1300201F1B1
:100ED0000100C0B20BF8012000F10101C9B20BF80A
:100EE00000400EE000F10101C9B20BF8004001F131
:100EF0000100C0B20BF8014000F10101C9B20BF8CA
:100F0000004001F10100C0B200E09CE00BF801409C
:100F10009DF80410B9F83C2091424BD19DF8051082
:100F200099F83820914245D19DF8061099F82C2067
:100F300091423FD100F10101C9B20BF8006001F10B
:100F40000100C0B20BF801804FF03A0200F101013C
:100F5000C9B20BF8002001F10100C0B20BF801602A
:100F600000F10101C9B20BF8007001F10100C0B23B
:100F70000BF8012000F10101C9B20BF8006001F18A
:100F8000010000F0FF0A0BF801509DF800004FF03F
:100F900000024FF02101FFF77FFB9DF801000022C6
:100FA0004021FFF779FB9DF8020000222321FFF783
:100FB00073FB48E000F10101C9B20BF8004001F1F8
:100FC0000100C0B20BF8016000F10101C9B20BF8D9
:100FD000008001F10100C0B20BF8017000F10101C5
:100FE000C9B20BF8004001F10100C0B20BF801409A
:100FF00000F10101C9B20BF8006001F1010000F03D
:10100000FF0A0BF801509DF806004FF000024FF068
:101010002101FFF741FB9DF8040000222321FFF787
:101020003BFB9DF80500401E0C2803D34FF0010048
:101030008DF805009DF80510FF48002200EB8100A7
:101040004021FFF713FB9DF80A0053287ED14FF093
:10105000C0030AF10100C0B20BF80A304FF0C2021F
:1010600000F10101C9B20BF800204FF02E0201F18E
:101070000100C0B20BF801204FF0C10200F10101E4
:10108000C9B20BF8002001F101024FF0E000D2B22A
:1010900003E09EE3F5E3F5E3F5E30BF801004FF021
:1010A000F20102F10100C0B20BF802109DF8091024
:1010B0004FF0430C092911D201F1310100F1010275
:1010C000D2B20BF8001002F10100C1B20BF80230ED
:1010D00001F10100C0B20BF801C021E009395A2921
:1010E0000FD200F10101C9B20BF8003001F101008B
:1010F000C2B20BF801C002F10100C0B20BF802400D
:101100000EE000F10101C9B20BF8004001F101004D
:10111000C2B20BF8014002F10100C0B20BF802406C
:101120009DF80410B9F83C2091424ED19DF805106D
:1011300099F83820914248D19DF8061099F82C2052
:10114000914242D100F10101C9B201E086E0FDE324
:101150000BF8006001F10100C0B20BF801804FF004
:101160003A0200F10101C9B20BF8002001F10100BF
:10117000C0B20BF8016000F10101C9B20BF80070B8
:1011800001F10100C0B20BF8012000F10101C9B268
:101190000BF8006001F1010000F0FF0A0BF80150AC
:1011A0009DF800004FF000024FF02101FFF774FAA4
:1011B0009DF8010000224021FFF76EFA9DF8020021
:1011C00000222321FFF768FA48E000F10101C9B2CB
:1011D0000BF8004001F10100C0B20BF8016000F112
:1011E0000101C9B20BF8008001F10100C0B20BF897
:1011F000017000F10101C9B20BF8004001F10100DA
:10120000C0B20BF8014000F10101C9B20BF8006057
:1012100001F1010000F0FF0A0BF801509DF80600F3
:101220004FF000024FF02101FFF736FA9DF804005D
:1012300000222321FFF730FA9DF80500401E0C28FC
:1012400003D34FF001008DF805009DF805107A4892
:10125000002200EB81004021FFF708FA9DF80A0008
:101260005A2877D14FF0C2010AF10100C0B20BF841
:101270000A104FF0C70200F10101C9B20BF80020BB
:1012800001F10100C0B20BF8014000F10101C9B247
:101290000BF8004001F10100C0B20BF8014000F171
:1012A0000101C9B20BF8004001F10100C0B20BF816
:1012B00001409DF80410B9F83C2091424BD19DF8B3
:1012C000051099F83820914245D19DF8061099F8FB
:1012D0002C2091423FD100F10101C9B20BF800600E
:1012E00001F10100C0B20BF801804FF03A0200F1A9
:1012F0000101C9B20BF8002001F10100C0B20BF8E6
:10130000016000F10101C9B20BF8007001F10100A8
:10131000C0B20BF8012000F10101C9B20BF8006066
:1013200001F1010000F0FF0A0BF801509DF80000E8
:101330004FF000024FF02101FFF7AEF99DF80100D8
:1013400000224021FFF7A8F99DF802000022232186
:10135000FFF7A2F948E000F10101C9B20BF8004023
:1013600001F10100C0B20BF8016000F10101C9B246
:101370000BF8008001F10100C0B20BF8017000F120
:101380000101C9B20BF8004001F10100C0B20BF835
:10139000014000F10101C9B20BF8006001F1010048
:1013A00000F0FF0A0BF801509DF806004FF0000214
:1013B0004FF02101FFF770F99DF80400002223216E
:1013C000FFF76AF99DF80500401E0C2803D34FF083
:1013D00001008DF805009DF805101748002200EB6C
:1013E00081004021FFF742F99DF80A0057287ED17D
:1013F0004FF0C1010AF10100C0B20BF80A104FF022
:10140000E00200F10101C9B20BF800204FF0F20236
:1014100001F10100C0B20BF801209DF80920092A52
:1014200017D202F1310200F10101C9B20BF800201C
:101430004FF0F00202E000004C51050001F1010004
:10144000C0B20BF8012000F10101C9B20BF8004055
:1014500030E0A2F109015A291DD202F101024FF038
:101460000A0CB2FBFCF303F1300A00F10101C9B22E
:101470000BF800A00CFB132202F1300201F1010075
:10148000C0B20BF801204FF0F00200F10101C9B227
:101490000BF800200EE000F10101C9B20BF800408A
:1014A00001F10100C0B20BF8014000F10101C9B225
:1014B0000BF8004001F10100C0B20BF801409DF8AB
:1014C0000410B9F83C2091424DD19DF8051099F8CF
:1014D0003820914247D19DF8061099F82C2091426E
:1014E00041D100F10101C9B20BF8006000E083E0D6
:1014F00001F10100C0B20BF801804FF03A0200F197
:101500000101C9B20BF8002001F10100C0B20BF8D3
:10151000016000F10101C9B20BF8007001F1010096
:10152000C0B20BF8012000F10101C9B20BF8006054
:1015300001F1010000F0FF0A0BF801509DF80000D6
:101540004FF000024FF02101FFF7A6F89DF80100CF
:1015500000224021FFF7A0F89DF80200002223217D
:10156000FFF79AF848E000F10101C9B20BF800401A
:1015700001F10100C0B20BF8016000F10101C9B234
:101580000BF8008001F10100C0B20BF8017000F10E
:101590000101C9B20BF8004001F10100C0B20BF823
:1015A000014000F10101C9B20BF8006001F1010036
:1015B00000F0FF0A0BF801509DF806004FF0000202
:1015C0004FF02101FFF768F89DF804000022232165
:1015D000FFF762F89DF80500401E0C2803D34FF07A
:1015E00001008DF805009DF80510FC48002200EB75
:1015F00081004021FFF73AF89DF80A004B287FF45C
:101600007FA94FF0C1020AF10100C0B259460BF8A0
:101610000A204FF0E00300F10102D2B20B544FF068
:10162000F20302F10100C0B28B549DF809304FF073
:10163000E50B092B15D203F1310300F10102D2B2FF
:101640000B544FF0EA0302F10100C0B28B5400F1D9
:101650000102D3B201F800B003F10100C2B2CC54D0
:101660002CE0A3F109025A2A20D203F101034FF022
:101670000A0AB3FBFAFC0CF1300E00F10102D2B2FF
:1016800001F800E00AFB1C3303F1300302F1010012
:10169000C0B28B544FF0EA0200F10103DBB20A54EE
:1016A00003F10100C2B201F803B007E000F101024A
:1016B000D3B20C5403F10100C2B2CC5402F10100C8
:1016C000C0B28C549DF80420B9F83C309A4241D104
:1016D0009DF8052099F838309A423BD19DF80620B4
:1016E00099F82C309A4235D100F10102D2B20E5451
:1016F00002F10100C0B201F802804FF03A0300F19C
:101700000102D2B20B5402F10100C0B28E5400F1BA
:101710000102D2B20F5402F10100C0B28B5400F1A9
:101720000102D2B20E548D549DF800004FF0000219
:101730004FF02101FEF7B0FF9DF80100002240218B
:10174000FEF7AAFF9DF8020000222321FEF7A4FF66
:10175000BDE8FE8F00F10102D2B20C5402F101008B
:10176000C0B28E5400F10102D2B201F8008002F141
:101770000100C0B28F5400F10102D2B20C5402F148
:101780000100C0B28C5400F10102D2B20E548D544B
:101790009DF806004FF000024FF02101FEF77CFF9C
:1017A0009DF8040000222321FEF776FF9DF8050036
:1017B000401E0C2803D34FF001008DF805009DF862
:1017C00005108648002200EB81004021FEF74EFF05
:1017D000BEE74FF0C0010AF10100C0B20BF80A10D9
:1017E0004FF0C20300F10101C9B20BF800304FF015
:1017F0002E0301F10100C0B20BF801304FF0C1031C
:1018000000F10101C9B20BF8003001F10100C0B2D2
:101810000BF8012000F10101C9B20BF800C001F181
:101820000100C0B20BF801E09DF8091009290CD2A3
:1018300001F1310100F10102D2B20BF8001002F106
:101840000100C0B20BF8024028E0A1F109025A2AB7
:101850001AD201F101014FF00A0AB1FBFAF202F1CA
:10186000300300F1010C0CF0FF0C0BF800300AFB08
:10187000121101F130010CF10100C0B20BF80C1093
:101880000CE0ADE015E1EDE100F10101C9B20BF8AA
:10189000004001F10100C0B20BF8014000F101016C
:1018A000C9B20BF8004001F10100C0B20BF80140D1
:1018B0009DF80410B9F83C20914248D19DF80510DC
:1018C00099F83820914242D19DF8061099F82C20C1
:1018D00091423CD100F10101C9B20BF8006001F165
:1018E0000100C0B20BF801804FF03A0200F1010193
:1018F000C9B20BF8002001F10100C0B20BF8016081
:1019000000F10101C9B20BF8007001F10100C0B291
:101910000BF8012000F10101C9B20BF800600BF8CF
:1019200001509DF800004FF000024FF02101FEF73A
:10193000B3FE9DF8010000224021FEF7ADFE9DF8A8
:10194000020000222321FEF7A7FE01E75FE2024624
:1019500000F10100C1B20BF8024001F10100C0B278
:101960000BF8016000F10101C9B20BF8008001F130
:101970000100C0B20BF8017000F10101C9B20BF80F
:10198000004001F10100C0B20BF8014000F101017B
:10199000C9B20BF800600BF801509DF806004FF03B
:1019A00000024FF02101FEF777FE9DF804000022AF
:1019B0002321FEF771FE9DF80500401E0C2803D37D
:1019C0004FF001008DF805009DF805100348002236
:1019D00000EB81004021FEF749FEB9E64C510500BD
:1019E0004FF0C0020AF10100C0B20BF80A204FF01C
:1019F000C20300F10102D2B20BF800304FF02E0307
:101A000002F10100C0B20BF802304FF0C80300F140
:101A10000102D2B20BF8003002F10100C0B20BF8A3
:101A200002E000F10102D2B20BF8001002F1010055
:101A3000C0B20BF802509DF8091009290CD201F12F
:101A4000310100F10102D2B20BF8001002F10100E5
:101A5000C0B20BF8024024E0A1F109025A2A16D2C2
:101A600001F101014FF00A06B1FBF6F303F1300575
:101A700000F10102D2B20BF8005006FB131101F184
:101A8000300102F10100C0B20BF8021009E000F1D0
:101A90000101C9B20BF8004001F10100C0B20BF81E
:101AA000014000F10101C9B20BF800400BF8014000
:101AB0004EE69DF80A005A288FD10AF10100C0B203
:101AC0000BF80A304FF0F10300F10101C9B20BF835
:101AD00000304FF0EA0001F10103DBB20BF8010026
:101AE00003F10100C0B20BF803204FF0F00200F147
:101AF0000101C9B20BF800204FF02E0301F10100E3
:101B0000C0B20BF8013000F10101C9B20BF800C0FE
:101B10004FF0E00C01F10100C0B20BF801C000F180
:101B20000101C9B20BF8002001F10100C2B20BF8AB
:101B3000013002F10100C0B20BF802409DF8041020
:101B4000B9F83C20914247D19DF8051099F838200A
:101B5000914241D19DF8061099F82C2091423BD139
:101B600000F10101C9B20BF8006001F10100C0B23F
:101B70000BF801804FF03A0200F10101C9B20BF8F5
:101B8000002001F10100C0B20BF8016000F1010179
:101B9000C9B20BF8007001F10100C0B20BF80120CE
:101BA00000F10101C9B20BF800600BF801509DF87B
:101BB00000004FF000024FF02101FEF76DFD9DF88F
:101BC000010000224021FEF767FD9DF8020000227F
:101BD0002321FEF761FDBBE500F10101C9B20BF85D
:101BE000004001F10100C0B20BF8016000F10101F9
:101BF000C9B20BF8008001F10100C0B20BF801700E
:101C000000F10101C9B20BF8004001F10100C0B2BE
:101C10000BF8014000F10101C9B20BF800600BF8AC
:101C200001509DF806004FF000024FF02101FEF731
:101C300033FD9DF8040000222321FEF72DFD9DF8C1
:101C40000500401E0C2803D34FF001008DF805005D
:101C50009DF80510F948002200EB81004021FEF7B5
:101C600005FD75E59DF80A005A28B4D10AF1010076
:101C7000C0B20BF80A304FF0F00A00F10102D2B204
:101C80000BF800A04FF0E00302F10100C0B20BF826
:101C9000023000F10102D2B20BF8001002F1010093
:101CA000C0B20BF802E04FF02E0200F10101C9B200
:101CB0000BF8002001F10100C0B20BF801C000F1E7
:101CC0000101C9B20BF8003001F10100C0B20BF8FC
:101CD00001A000F10101C9B20BF8002001F10103DC
:101CE000D8B20BF801409DF80410B9F83C2091429D
:101CF00047D19DF8051099F83820914241D19DF8BF
:101D0000061099F82C2091423BD100F10101C9B293
:101D10000BF8006001F10100C0B20BF801804FF038
:101D20003A0200F10101C9B20BF8002001F10100F3
:101D3000C0B20BF8016000F10101C9B20BF80070EC
:101D400001F10100C0B20BF8012000F10101C9B29C
:101D50000BF800600BF801509DF800004FF00002F6
:101D60004FF02101FEF798FC9DF801000022402170
:101D7000FEF792FC9DF8020000222321FEF78CFC66
:101D8000E6E400F10101C9B20BF8004001F10100E5
:101D9000C0B20BF8016000F10101C9B20BF800807C
:101DA00001F10100C0B20BF8017000F10101C9B2EC
:101DB0000BF8004001F10100C0B20BF8014000F146
:101DC0000101C9B20BF800600BF801509DF8060044
:101DD0004FF000024FF02101FEF75EFC9DF8040079
:101DE00000222321FEF758FC9DF80500401E0C2818
:101DF00003D34FF001008DF805009DF805108F48C2
:101E0000002200EB81004021FEF730FCA0E40246F6
:101E100000F10100C1B20BF8024001F10100C0B2B3
:101E20000BF8016000F10101C9B20BF8008001F16B
:101E30000100C0B20BF8017000F10101C9B20BF84A
:101E4000004001F10100C0B20BF8014000F10101B6
:101E5000C9B20BF800600BF801509DF806004FF076
:101E600000024FF02101FEF717FC9DF8040000224C
:101E70002321FEF711FC9DF80500401E0C2803D31A
:101E80004FF001008DF805009DF805106B48002209
:101E900000EB81004021FEF7E9FB59E4F0B5044670
:101EA000084616461F46FEF73DFA02461046644DA8
:101EB000FF2806D108E0295404F1010400F10100D3
:101EC000C0B221780029F6D15E480078002806D0FB
:101ED000002F04D002EB06014FF05F006854F0BD04
:101EE0002DE9F04F0746DDE90905884691469A46F7
:101EF000FEF718FA534B2021514C0A224FF0640C84
:101F0000012D09D11E783EB104EB0006A6F10E06A4
:101F1000B1707170317017E097FBF2FB02FB1B7E12
:101F200004EB00060EF1300E06F80CEC9BFBF2FE03
:101F300002FB1EBB0BF1300B06F80DBC97FBFCF748
:101F400007F1300706F80E7C022D09D11E783EB14C
:101F500004EB0006A6F10A06B1707170317017E04B
:101F600098FBF2F702FB178B04EB0006A6F10A06BA
:101F70000BF1300B86F802B097FBF2FB02FB1B77EC
:101F800007F13007777098FBFCF707F130073770DF
:101F9000032D09D11E783EB104EB0006A6F106061A
:101FA000B1707170317017E099FBF2F702FB17986E
:101FB00004EB0006A6F1060608F1300886F8028058
:101FC00097FBF2F802FB187707F13007777099FB5F
:101FD000FCF707F130073770042D09D11B783BB1AE
:101FE00021542044A0F1020041700170BDE8F08F3F
:101FF0009AFBF2F102FB11A303F13003235491FB8E
:10200000F2F302FB13112044A0F1020001F13001B0
:1020100041709AFBFCF101F130010170E6E710B567
:102020000C46FEF77FF906491CB14FF003020A5433
:1020300010BD4FF004020A5410BD00004C510500C1
:10204000D6030010B900001017B501EB810002EBB8
:102050008000C2B29DF80030CE4803F00F01445C0E
:10206000CD498C54A2F10102D2B200EB13131B78BC
:102070008B54A2F10102D2B29DF8013003F00F049B
:10208000045D8C54A2F10102D2B200EB13131B7851
:102090008B54A2F10102D2B29DF8023003F00F047A
:1020A000045D8C54A2F10102D2B200EB13131B7831
:1020B0008B54A2F10102D3B29DF8032002F00F0469
:1020C000045DCC54A3F10103DBB200EB12100078E5
:1020D000C8541EBD30B5B1490124AF4B91F9012060
:1020E00091F904108A4204D100EB800003F82040EB
:1020F00030BD4D1CAA4206D100F1010000EB80006A
:1021000003F8204030BD8D1CAA4206D100F1020028
:1021100000EB800003F8204030BDCD1CAA4206D160
:1021200000F1030000EB800003F8204030BD0D1DDE
:10213000AA4206D100F1040000EB800003F8204021
:1021400030BD4D1DAA4206D100F1050000EB800014
:1021500003F8204030BD8D1DAA4206D100F10600D3
:1021600000EB800003F8204030BDC91D8A42FBD13E
:1021700000F1070000EB800003F8204030BD884BE1
:102180001A88A2F1010212B21A80002A02DC4FF072
:1021900000021A801A88104400B21880814A00EBAD
:1021A000800002447D48136803601279027142780E
:1021B00011444170704770B5794DB5F9004004F194
:1021C00001062E80774D04EB84042544734C266869
:1021D0002E6026792E71207061702271A37070BDFF
:1021E0002DE9F04180460F461646FEF78FF86A4CFF
:1021F0004FF0000518F8010B04F8010B05F101057B
:10220000EDB2142DF6D34FF0000017F8011B04F8BF
:10221000011B00F10100C0B21428F6D34FF00000FA
:1022200016F8011B04F8011B00F10100C0B21428CC
:10223000F6D34FF0000013F8011B04F8011B00F166
:102240000100C0B21428F6D3BDE8F08130B5039C7C
:102250004FF0640594FBF5F4534D2C70534C206003
:1022600053480160534802605348036030BD2DE974
:10227000FE430D464FEA401000F58060044602A977
:1022800020464AF0A1FA01A904F108004AF09CFA9C
:10229000694604F10C004AF097FA2846FEF742F826
:1022A0003D4C4FF0200600F10101C9B226544FF019
:1022B000300701F10100C0B267544FF0210800F16E
:1022C0000101C9B204F800804FF0400901F101009A
:1022D000C0B204F8019000F10101C9B2265401F125
:1022E0000100C0B2665400F10101C9B227544FF099
:1022F000230201F10100C5B262549DF806004FF0BF
:1023000000024FF02101FEF7C7F99DF804000022FA
:102310002321FEF7C1F99DF80500401E0C2803D3C8
:102320004FF001008DF805009DF8050023490022BB
:1023300001EB80004021FEF799F905F10100C0B2E0
:10234000665500F10101C9B2275401F10100C0B284
:1023500004F801804FF03A0200F10101C9B22254A1
:1023600001F10100C0B2675400F10101CDB204F8DF
:1023700000909DF800004FF000024FF02101FEF7A1
:102380008BF99DF8010000224021FEF785F9665582
:10239000BDE8FE83D6510500D6030010540300109B
:1023A0000205001094040820C70000102C03001040
:1023B0003003001034030010380300104C510500A6
:1023C0002DE9FC4106464FF00004FF4D4FF064003C
:1023D000A8774FF00107AF76A5F86870394640F24C
:1023E0009A204AF068FAEC76A5F86A40214640F255
:1023F0009E204AF060FADFF8D483C8F81840F44809
:102400000021B0F900004AF056FAA8F84A4000212D
:102410004FF4E3704AF04FFA2C77A5F86C40214650
:102420004FF428704AF047FA06EB460000EB06101E
:1024300008EB8001E748008800F1010000F0070088
:1024400001EB4000008C0190E34EB08B00904FF008
:1024500063024FF001016846FDF71DFF05F1F80426
:102460009DF800002070307E00900C22012168460B
:10247000FDF711FF9DF800006070307B00901F2277
:1024800001216846FDF707FF9DF80000A0709DF848
:102490000400E07040F2A22021684AF04DFA307A40
:1024A0000090172200216846FDF7F5FE9DF8000018
:1024B0002071307900903B2200216846FDF7EBFE49
:1024C0009DF800006071307800903B220021684642
:1024D000FDF7E1FE9DF80000A0719DF80500E07198
:1024E00040F2A62061684AF027FAAF70BDE8FC818F
:1024F0002DE9F04788B04FF01C02B84901A84FF011
:10250000C5FEB14EB64B0025B078012802D11D8022
:10251000B571B570B07E01287ED1B2484FF00A0780
:10252000B0F90000C0F1000090FBF7F000B2002805
:1025300001DA4FF00000AC4A7179D160491CA24C1D
:10254000C9B2803471710A2967D97571B17901F105
:102550000101C9B2B171062900D3B571B179916099
:1025600023F811004FF00001084633F810C0614411
:1025700009B200F10100C0B20628F6D34FF0060000
:1025800091FBF0F001B29948DFF85C820088A8F175
:102590001C0800EB40004FEA4000A8F800009448F7
:1025A00000884FEA4000A8F8020092480088A8F886
:1025B000040091484FF00303B0F9000090FBF3F0E2
:1025C000A8F806008D484FF00503B0F9000090FB15
:1025D000F3F0A8F808008A48B0F9000090FBF7F083
:1025E000A8F80A0087484FF01403B0F9000090FBE8
:1025F000F3F0A8F80C00844808F10E09B0F9007057
:10260000A9F8007081480088A9F802008048008875
:10261000A9F804007F4801E01BE161E00088A9F807
:1026200006007D480088A9F808007C480088A9F8C1
:102630000A007B48B0F900C0A9F80CC05160E180E5
:102640004FF0000038F910308B4204DD00F101003A
:10265000C0B20728F6D310600DF1040AC8B1421EBB
:10266000062A19D238F81230A3EB010109B238F862
:102670001080A3EB08031BB25AF820805AF82220DE
:10268000A8EB020808FB01F898FBF3F11144E164A0
:1026900006E00199E16403E0072801D30799E164AA
:1026A000C0B1411E062917D239F9103039F911206D
:1026B000A3EB02035AF82110E76CA7EB010703FB19
:1026C00007F35AF82000A0EB010093FBF0F0104450
:1026D000208105E0278103E0072801D3A4F808C082
:1026E000307F3B4F4FF4E378E0BB14234FF0FF32D1
:1026F000CE21CD20FDF743FDF17EDFF8D09001EB38
:10270000410000EB011009EB8000B0F90800FDF773
:10271000F7FDD9F818100144C9F8181048F6A04080
:1027200081420CDBA1EB0001C9F81810388849F090
:10273000C4FF401C01B2B7F900004AF0BCF8B9F878
:102740004A0000F1010081B2A9F84A103C2909D3DE
:10275000404649F0B2FF401C01B240464AF0ABF897
:10276000A9F84A502F48B4F90810B0F9000088427F
:102770006DDAB6F8640000F1010000B2A6F864005A
:102780001E2866DBB07E012856D1307FD8B9388844
:1027900049F093FF01B22448B0F900004AF08BF8E9
:1027A000404649F08AFF84B2388849F086FF81B2FA
:1027B0002246002007F0D6FB1C480021B0F900009B
:1027C0004AF079F834E037E008C0072070EB0720C2
:1027D000B84A05002C05001020400240784A050048
:1027E000585A001082020010C05E00105E020010F5
:1027F0006002001062020010640200106602001005
:10280000680200106A0200106C0200106E020010D4
:1028100070020010720200107402001076020010A4
:10282000780200108A020010D44A0500B44A05005C
:102830004FF03200B085F085B576A6F8685008B044
:102840000021BDE8F04740F29A204AF034B8A6F8DB
:10285000645008B0BDE8F08770B505464FF000063B
:10286000FF4CA07E90BBFF48008801282ED04FF07F
:102870000201A176A4F8681040F29A204AF01BF8F1
:10288000A4F86050C5EB05104FEA8000A4F866007C
:102890001DB94FF01E00A4F8660004F15C044FF46B
:1028A0002770B4F90A104AF006F8B4F90A104FF488
:1028B0002A704AF000F84FF00000E080208060802D
:1028C0004FF001064FF0010007F0E5FB304670BD08
:1028D00010B5E34CA07E022813D104F12A04E08E47
:1028E00007F0D9FB4FF000006086E086208704F8EF
:1028F000100CE0870146BDE8104040F29A2049F0F4
:10290000DABF10BD10B5D64AD7498032B1F90010F0
:10291000D06D0144D16548F6A0434FF4E474994268
:102920000CDBA1EB0301D165204649F0C6FE401C3B
:1029300001B22046BDE8104049F0BDBFCB488142FE
:102940000CDC01EB0300D065204649F0B6FE401ECA
:1029500001B22046BDE8104049F0ADBF10BD70B5D2
:10296000C34C94F83800C34D297808440C2806D984
:10297000A08F401C01B2B82049F09DFF04E0B4F9DB
:102980003C10B82049F097FF94F83810287801449B
:102990000C2907D994F838100C380144B62049F0B6
:1029A0008AFF05E094F838100144B62049F083FF0F
:1029B00094F82C001C2804D91C21B42049F07BFF7A
:1029C00004E094F82C10B42049F075FF04F12004C1
:1029D000217A4FF0AE0049F06EFF2179B02049F026
:1029E0006AFF2178BDE87040B22049F064BF10B59D
:1029F000A0489B4C007830B39D48828F9E4909883F
:102A00008A4220D190F838209C4909888A421AD1FC
:102A100090F82C109A4A1288914214D190F82810FC
:102A2000984A128891420ED190F82410964A128842
:102A3000914208D190F8200094490988884202D137
:102A40004FF001006077607F00280CD0904800882C
:102A5000C0B2FFF701FF002805D04FF000006077FB
:102A6000BDE810407BE710BD38B57D4CA07E022844
:102A700019D188480078012816D08748008898B175
:102A8000864800784FF00A01B0FBF1F201FB12001A
:102A9000002808D141F28830009081A386A28CA141
:102AA00091A0FFF7D3FB38BDB4F85E004FF461612D
:102AB0000025884215D200F1010080B2A4F85E0022
:102AC00088420ED3A4F85E50B4F8600048B1A0F17B
:102AD000010024F8600F608800F101006080A4F11B
:102AE0006004B4F85C003C28DDD200F1010080B243
:102AF000A4F85C003C28D6D324F85C5F6089A0F180
:102B0000010001B261814FF4277049F0D4FE608961
:102B1000A4F15C0418B1534800880128C3D1A576FC
:102B2000A4F86850002140F29A2049F0C4FEBDE8A4
:102B30003840002007F0AFBA2DE9F84FDFF82081C8
:102B4000B8F9760018B1A0F10100A8F8760098F85D
:102B5000260028B9142300226421D220FDF70FFBA0
:102B600098F826004B4D4FF4C97B012839D198F8CD
:102B70002700012803D04FF00500A8F87400B8F929
:102B8000740068B1A0F1010000B2A8F8740038B96F
:102B90004FF00B0088F826000146584649F054FED5
:102BA0002878012817D14FF0020088F82600014646
:102BB000584649F049FE00231A460121DE20FFF75E
:102BC000FAFA00231A461946DD20FFF7F4FA4FF40B
:102BD0009660FDF740FB142300226421D220FDF70C
:102BE000CEFA98F826004FF00F09022818D198F86D
:102BF0002700022802D1B8F8740008B9A8F8749028
:102C0000B8F87400A0F10100A8F874004FF01403A4
:102C10004FF000024FF064014FF0D200FDF7AFFA21
:102C200098F826000A2400264FF0010A41F288375E
:102C3000032871D198F82700032802D1B8F874004E
:102C400008B9A8F87440B8F87400A0F1010000B207
:102C5000A8F874000A2801D0092864D128A35CE0F0
:102C600008C00720D4020010820200106073FFFF2A
:102C700000400240C20000100602001004020010D2
:102C800002020010FC010010FE0100100002001002
:102C900008020010EE0200108002001020400240E6
:102CA00020202020C2C5CDD2C8CBDFD6C8DF21214D
:102CB00021202020000000002020202020CDC5C899
:102CC000D1CFD0C0C2CDC0202020202000000000E5
:102CD00020202020C7C0C1CBCECAC8D0CEC2C0CD14
:102CE0002020202000000000C2DBD0C0C2CDC8C21E
:102CF000C0DED9C8C920C7C0D0DFC4200000000092
:102D000020202020CDC0CFD0DFC6C5CDC8DF2020F9
:102D100020202020000000001CE0F4A2F9A1FFA068
:102D20000097FFF793FA687801280DD188F82640BC
:102D30000A21584649F088FD88F828A0A8F82C6098
:102D4000A8F84260A8F82E60142300226421D22043
:102D5000FDF715FA98F826000A287DD198F8270083
:102D6000F4490A2808D0F4484FF46162B0F9000031
:102D700000FB02F08863CE63886BA0F101008863DA
:102D8000CA6B02F10102CA6340B988F826900F218C
:102D9000584649F059FD002007F079FC287838B9E9
:102DA0004FF00C0088F826000146584649F04CFDCB
:102DB000687838B94FF00D0088F82600014658466B
:102DC00049F042FDB8F94400B8F8461090FBF4F021
:102DD0004FF47A72884216DDB8F92C30142B12DCCD
:102DE00098F82830012B0ED1B8F876305BB988F806
:102DF0002860A8F82C20A8F84220A8F82E204FF030
:102E00006E03A8F87630884213DAB8F92C009042A5
:102E10000FDB98F8280060B9B8F8760048B988F850
:102E200028A0A8F82C40A8F84240A8F82E40A8F8FE
:102E3000764098F8280010B1012807D00CE0142340
:102E400000226421D220FDF79AF905E01423012223
:102E50006421D220FDF793F998F826000B2820D1A1
:102E600098F827000B2802D1B8F8740008B9A8F820
:102E70007440B8F87400A0F1010000B2A8F8740022
:102E80000A2801D0092806D1ACA3B2A2B7A1BDA0DF
:102E90000097FFF7DBF9142300226421D220FDF70D
:102EA0006EF998F826000C282CD198F827000C28E9
:102EB00002D1B8F8740008B9A8F87440B8F87400E2
:102EC000A0F1010000B2A8F874000A2801D0092876
:102ED00009D1AFF23423AFF22022AFF20C21A9A026
:102EE0000097FFF7B3F92878012805D188F8264024
:102EF0000A21584649F0A8FC142300226421D2205C
:102F0000FDF73DF998F826000D2829D198F82700FB
:102F10000D2802D1B8F8740008B9A8F87440B8F8C0
:102F20007400A0F1010000B2A8F874000A2801D0D2
:102F3000092806D199A39FA2A4A192A00097FFF708
:102F400085F96878012805D188F826400A21584675
:102F500049F07AFC142300226421D220FDF70FF9F6
:102F600098F826000E282BD198F827000E2802D1B9
:102F7000B8F8740008B9A8F87440B8F87400A0F163
:102F8000010000B2A8F874000A2801D0092807D16E
:102F9000AFF2942355A25BA192A00097FFF756F9D8
:102FA000687838B988F826600021584649F04CFC0A
:102FB000FFF78EFC142301226421D220FDF7DFF8F5
:102FC00098F8260040F6B8370F2836D198F8270031
:102FD0000F2802D1B8F8740008B9A8F87440B8F8FE
:102FE0007400A0F1010000B2A8F874000A2801D012
:102FF000092806D181A387A28CA192A00097FFF790
:1030000025F9B8F97400062801D0052807D1AFF2D8
:10301000103336A23BA191A00097FFF717F968780B
:1030200028B988F826600021584649F00DFC142381
:1030300000226421D220FDF7A2F898F8260010287B
:1030400036D198F82700102802D1B8F8740008B9D2
:10305000A8F87440B8F87400A0F1010000B2A8F814
:1030600074000A2801D0092806D182A387A26FA183
:1030700074A00097FFF7EAF8B8F97400062801D0A9
:10308000052807D1AFF2883318A21EA173A00097BC
:10309000FFF7DCF8687828B988F8266000215846E0
:1030A00049F0D2FB142300226421D220FDF767F8F7
:1030B00098F8260088F82700BDE8F88F10B54FF083
:1030C00000001C49A1F180018A7E002A0DD1754AB9
:1030D0001288012A09D091F82620002A05D14FF044
:1030E000010081F826000146DEE0E3E020202020F8
:1030F00020C2DBD1CECACEC3CE202020202020206B
:1031000000000000202020202020D2D3CCC1CBC53D
:10311000D02020202020202000000000202020207F
:1031200020C2CACBDED7C8D2C52020202020202034
:103130000000000088C00720E80100102020C1C561
:10314000C720C2C5CDD2C8CBDFD6C8C82121202018
:1031500000000000202020202020C2CACBDED7C5DE
:10316000CD2020202020202000000000202020CD85
:10317000C520CCCEC6C5D220C1DBD2DC2020202089
:1031800000000000D3D0C0C2CDC8D2C5CBDCCDDB9F
:10319000C920C7C0D0DFC420000000002A202020A2
:1031A000D2D3CCC1CBC5D0C02121212020202020CA
:1031B000000000002020CFCED1CBC520C2CACBDE7C
:1031C000D7C5CDC8DF202020000000002020C1D3BB
:1031D000C4C5D220CFD0CEC4CECBC6C5CD202020F2
:1031E000000000002A20202020C2DBCACBDED7C886
:1031F000D2C52020202020200000000020202020F8
:1032000020C7C0C2C5D0D8C5CD2020202020202076
:1032100000000000202020202020D3D1CFC5D8CD11
:10322000CE20202020202020000000002020202070
:10323000202020C7C0D0DFC4202020202020202034
:1032400000000000202020D3D0C0C2CDC8D2C5CB02
:10325000DCCDDBC920202020000000002020202021
:1032600020C2DBCACBDED7C8D2C520202020202038
:1032700000000000202020202020202020202020CE
:1032800020202020202020200000000020202020BE
:1032900020CFD0C5CAD0C0D9C5CD20202020202025
:1032A00000000000D40200104FF4C97049F0CCFABD
:1032B0004FF0010010BDFB4890F82610002907D000
:1032C0004FF0100180F826104FF4C97049F0BCBAD5
:1032D00070472DE9F84FF34EF34D96F82900012879
:1032E0003BD196F82A00012803D04FF00500A6F83C
:1032F0007800B6F9780070B1A0F1010000B2A6F82C
:10330000780040B94FF00C0086F8290001464FF4D0
:10331000CA7049F099FA2878012818D14FF00200B4
:1033200086F8290001464FF4CA7049F08DFA00234F
:103330001A460121E020FEF73EFF00231A461946F7
:10334000DF20FEF738FF4FF49660FCF784FF14236C
:1033500000226421D220FCF712FF96F829000228EF
:103360001AD196F82A00022802D1B6F8780018B9C6
:103370004FF00F00A6F87800B6F87800A0F1010031
:10338000A6F878004FF014034FF000024FF06401EC
:103390004FF0D200FCF7F3FE96F829000A2400272C
:1033A00041F2883803283DD196F82A00032802D13B
:1033B000B6F8780028B9A6F87840B785A6F8427024
:1033C000F785B6F87800A0F1010000B2A6F8780001
:1033D0000A2801D009280BD1AFF2DC63AFF2F42246
:1033E000AFF2E021AFF2CC20CDF80080FEF72EFF47
:1033F0006878012810D106F1280674704FF00A0190
:103400004FF4CA7049F020FA4FF001003070B780D5
:103410007783F780A6F12806142300226421D220A6
:10342000FCF7ADFE96F82900DFF878924FF47A7B2E
:1034300009F180094FF00B0A0A287ED196F82A007C
:103440000A280AD099484FF46161B0F9000000FBE6
:1034500001F0C9F84000C9F84470D9F84000A0F163
:103460000100C9F84000D9F8441001F10101C9F880
:10347000441030B986F829A00B214FF4CA7049F0E6
:10348000E3F9287840B94FF00D0086F8290001468D
:103490004FF4CA7049F0D8F9687840B94FF00E007F
:1034A00086F8290001464FF4CA7049F0CDF98048EA
:1034B0003C22B0F900107F48B0F9000000F11E0373
:1034C000994220DA0A3881421DDD7B487B49B0F9F8
:1034D0000000B1F9001090FBF4F0884210DAB6F960
:1034E0007A0090B1A0F1010000B2A6F87A0060B9AC
:1034F00086F829A00B214FF4CA7049F0A5F904E021
:10350000A6F87A2001E0A6F87A20B6F94400B6F8C9
:10351000461090FBF4F0884218DDB6F92C20142AEE
:1035200014DC96F82820012A10D1B6F876206AB962
:1035300086F82870A6F82CB000E030E0A6F842B07B
:10354000A6F82EB04FF06E02A6F87620884213DA65
:10355000B6F92C0058450FDB96F8280060B9B6F88C
:10356000760048B94FF0010086F82800B485A6F827
:103570004240F485A6F8764096F8280010B101285C
:1035800007D00CE0142300226421D220FCF7F7FDC1
:1035900005E0142301226421D220FCF7F0FD96F807
:1035A00029000B2875D196F82A000B2808D044482A
:1035B0004FF46161B0F9000000FB01F0C9F8400070
:1035C000D9F84000A0F10100C9F84000D9F8441032
:1035D00001F10101C9F8441058B94FF0120086F802
:1035E000290001464FF4CA7049F02EF9002007F077
:1035F00002FA287840B94FF0100086F829000146F9
:103600004FF4CA7049F020F9687840B94FF01100C2
:1036100086F8290001464FF4CA7049F015F9B6F949
:103620004400B6F8461090FBF4F0884216DDB6F977
:103630002C20142A12DC96F82820012A0ED1B6F884
:1036400076205AB986F82870A6F82CB0A6F842B0B1
:10365000A6F82EB04FF06E02A6F87620884213DA54
:10366000B6F92C0058450FDB96F8280060B9B6F87B
:10367000760048B94FF0010086F82800B485A6F816
:103680004240F485A6F8764096F8280010B101284B
:1036900018D01DE0142300226421D220FCF76FFD16
:1036A00016E0000008C00720EE020010EE01001036
:1036B0008A020010EA01001082020010F0010010DE
:1036C000F6010010142301226421D220FCF757FDDB
:1036D00096F829000C2824D196F82A000C2802D14B
:1036E000B6F8780008B9A6F87840B6F87800A0F1E6
:1036F000010000B2A6F878000A2801D009280AD1F2
:10370000AFF2C853AFF2B452AFF2A051FFA0CDF860
:103710000080FEF79BFD142300226421D220FCF7D9
:103720002EFD96F829000D282ED196F82A000D2896
:1037300002D1B6F8780008B9A6F87840B6F8780053
:10374000A0F1010000B2A6F878000A2801D00928EB
:103750000AD1AFF6B423AFF6A022AFF68C21EBA0CE
:10376000CDF80080FEF772FD2878012806D186F892
:1037700029400A214FF4CA7049F066F81423002248
:103780006421D220FCF7FBFC96F829000E282DD1ED
:1037900096F82A000E2802D1B6F8780008B9A6F8E3
:1037A0007840B6F87800A0F1010000B2A6F87800E1
:1037B0000A2801D0092809D1DAA3AFF20862AFF2D2
:1037C000F451D2A0CDF80080FEF740FD68780128C2
:1037D00006D186F829400A214FF4CA7049F034F81E
:1037E000142300226421D220FCF7C9FC96F829009A
:1037F00010282ED196F82A00102802D1B6F87800A9
:1038000008B9A6F87840B6F87800A0F1010000B237
:10381000A6F878000A2801D009280AD1AFF680332B
:10382000AFF66C32AFF65831B8A0CDF80080FEF795
:103830000DFD2878012806D186F829A00B214FF428
:10384000CA7049F001F8142300226421D220FCF749
:1038500096FC96F8290011282DD196F82A001128F7
:1038600002D1B6F8780008B9A6F87840B6F8780022
:10387000A0F1010000B2A6F878000A2801D00928BA
:1038800009D1A8A3AFF2D462AFF2C0619FA0CDF876
:103890000080FEF7DBFC6878012806D186F829A0B5
:1038A0000B214FF4CA7048F0CFFF1423002264218B
:1038B000D220FCF764FC96F829000F2830D196F846
:1038C0002A000F2802D1B6F8780008B9A6F8784087
:1038D000B6F87800A0F1010000B2A6F878000A2836
:1038E00001D009280BD1AFF6E833AFF60002AFF2F2
:1038F000EC71AFF29860CDF80080FEF7A7FC687815
:1039000040B986F8297000214FF4CA7048F09CFF36
:10391000FEF7DEFF142300226421D220FCF72FFCE7
:1039200096F8290040F6B83812283FD196F82A00B8
:10393000122802D1B6F8780008B9A6F87840B6F88F
:103940007800A0F1010000B2A6F878000A2801D0A2
:1039500009280AD1AFF25C73AFF24872AFF234714A
:1039600076A0CDF80080FEF771FCB6F97800062845
:1039700001D005280BD1AFF67843AFF69002AFF631
:103980007C01AFF22870CDF80080FEF75FFC68780C
:1039900030B986F8297000214FF4CA7048F054FFFE
:1039A000142300226421D220FCF7E9FB96F82900B9
:1039B00013283FD196F82A00132802D1B6F87800D0
:1039C00008B9A6F87840B6F87800A0F1010000B276
:1039D000A6F878000A2801D009280AD1AFF26C7342
:1039E000AFF25872AFF2BC7154A0CDF80080FEF770
:1039F0002DFCB6F97800062801D005280BD1AFF6CA
:103A00000053AFF61812AFF60411AFF2B070CDF854
:103A10000080FEF71BFC687830B986F82970002119
:103A20004FF4CA7048F010FF142300226421D22002
:103A3000FCF7A5FB16F8290F7070BDE8F88F10B5DC
:103A40004FF0000043498A7E002A12D1424A128870
:103A5000012A0ED091F82620002A0AD14FF0010049
:103A600081F8290001464FF4CA7048F0EDFE4FF08E
:103A7000010010BD374890F82910002907D04FF0F9
:103A8000130180F829104FF4CA7048F0DDBE70476A
:103A900032486FF03B010088C0EB001001EB800062
:103AA0002C49A1F84C0070472DE9F05FDFF8A480A5
:103AB000DFF8ACA00025B8F84C002A4E401C01B23B
:103AC0002648A8F84C10DFF8A090B0F900000A27AB
:103AD000C0EB00124FF0010B08F15204B1EB820F62
:103AE0007EDB00287CD0A8F84C502570657088F8E3
:103AF00014501E480078552844D1B6F902005028C9
:103B000040DDB6F90800FCF7FBFB31E020D4CED055
:103B1000CCCEC2CED7CDDBC920C7C0D0DFC42020D9
:103B20000000000020202020D2D3CCC1CBC5D0C0C3
:103B30002121212020202020000000002020202002
:103B4000D4CED0CCCEC2CED7CDDBC92020202020F1
:103B50000000000008C00720D40200106C01001013
:103B60008202001070EB07205A010010F8010010CB
:103B7000B9F90010884203DB96F83D00C00701D078
:103B800084F800B0FF484078552811D1B6F94E00AE
:103B900050280DDDB6F95400FCF7B2FBB9F900105E
:103BA000884203DB96F88900C00701D084F801B091
:103BB000F548007870B9BAF90000FCF7A1FBB9F933
:103BC0000010884204DBF14890F83D00C00701D0A6
:103BD00088F814B0EE48007890B998F8150000E025
:103BE0001EE068B198F81A0008B1022808D198F8C8
:103BF000260028B998F8290010B9E648007818B1CD
:103C00002570657088F81450207801281ED06078DF
:103C100001281BD098F81400012817D0A8F84E509E
:103C20004146B8F94E00DFF8708300287ED0A0F13D
:103C3000010000B28B46A1F84E00052809DD0F23D4
:103C40001E226421E120FCF79AFA0AE0A8F84E70DF
:103C5000E6E7002805DD0F231E226921E120FCF79D
:103C60008EFABBF84E00052811D1B6F90800FCF712
:103C700047FBA8F80000B6F95400FCF741FBA8F890
:103C80000200BAF90000FCF73BFBABF85400C24855
:103C90009038B0F84E00002858D1B6F90800FCF76B
:103CA0002FFBDFF8F4B20BF1040BABF80000B6F910
:103CB0005400FCF725FBABF80200BAF90000FCF752
:103CC0001FFBABF1940AAAF85600AAF85050B8F9B5
:103CD0000000BBF900100844B9F90010884202DA6C
:103CE0002078012834D0B6F90200C82804DD2570F8
:103CF0000021084605F082FEB8F90200BBF9021067
:103D00000844B9F90010884202DA6078012822D00C
:103D1000B6F94E00C82804DD65700021012005F0C9
:103D20006DFEBAF95400BAF9561000E01CE00844E0
:103D3000B9F90010884209DA9AF81400012805D16F
:103D400096480088012809D0AAF85070BDE8F09F75
:103D5000AAF85070D0E7AAF85070E2E7012005F009
:103D60004DFC8AF81450F1E7B1F95000F0B3A0F11E
:103D7000010000B20F46A1F85000052806DD0F2310
:103D8000C8226421E120FCF7FAF907E0002805DDEC
:103D90000F23C8226921E120FCF7F1F9B7F85000A0
:103DA000052811D1B6F90800FCF7AAFAA8F8000016
:103DB000B6F95400FCF7A4FAA8F80200BAF900001A
:103DC000FCF79EFAA7F8540073489038B0F85000FA
:103DD0000028BBD1B6F90800FCF792FA6E4F3F1DE0
:103DE0003880B6F95400FCF78BFA00E055E0788093
:103DF000BAF90000FCF784FAA7F1940AAAF8560071
:103E00008AF81350B8F90000B7F900100844B9F95E
:103E10000010884202DA2078012832D0B6F9020078
:103E2000C82804DD25700021084605F0E7FDB8F933
:103E30000200B7F902100844B9F90010884202DA0A
:103E40006078012820D0B6F94E00C82804DD6570DE
:103E50000021012005F0D2FDBAF95400BAF956103C
:103E60000844B9F900108842BFF67DAF9AF81400F3
:103E70000128AED149480088022808D08AF813B03A
:103E800064E78AF813B0D2E78AF813B0E4E70120B8
:103E900005F0B4FB8AF8145058E7C87C884600281F
:103EA000EED00F2300226E21E120FCF768F9B6F96D
:103EB0000800FCF725FAB9F90010884207DD2078E0
:103EC000012804D125700021084605F097FDB6F9B8
:103ED0005400FCF715FAB9F90010884206DD607845
:103EE000012803D16570002105F088FDBAF90000B2
:103EF000FCF706FAB9F90010884208DD98F81400BA
:103F0000012804D188F81450002005F077FB2078B0
:103F100030B9607820B998F8140008B988F81350BF
:103F2000E620FCF746F918B11D480068E7280AD0DA
:103F30001C481D49B0F90000B1F9001000EB8000E9
:103F4000B1EB400F9CDA88F813502078174D012808
:103F50000FD1B9F90000400090FBF7F1B5F900006E
:103F6000814206DA96F83D00C00702D1012105F032
:103F700045FD6078012827D1B9F90000400090FB89
:103F8000F7F015E0F80100100505001008EC072017
:103F9000CB0000108700001098C00720D40100104B
:103FA00010C1072054010010840200108602001086
:103FB000B5F90010884207DA96F88900C00703D1E6
:103FC0000121084605F01AFD98F8140001287FF435
:103FD000CAAEB9F90000B5F90010400090FBF7F047
:103FE0008842AFDAFF4890F83D00C007EFD1BDE846
:103FF000F05F012005F002BB704710B5FA4C208835
:1040000000F1010020804FF008024FF0000120462F
:10401000FCF757F9F549B4F9000001EB40004A8874
:104020000284B1F84E10A0F86C1010BD70B5F04DC0
:10403000F048F14AB5F90010B0F9003092F90000EB
:1040400099421FDAED4C0A280FDAED4BB3F9003034
:104050000F2B0ADD00F1010040B210700A2809DBC5
:104060002180012004F084FD04E00A2802DB4FF0E7
:104070000A001070B5F90000B4F90010884200DAA7
:10408000208070BDFDDD0028FBD0A0F1010040B212
:1040900010700028F5DCBDE87040002004F068BD19
:1040A0002DE9F04F87B0D748D74BD94990F8F403A2
:1040B000D84A0690DFF854C3B3F90090B1F900B0C4
:1040C000B2F900A0D44FD54CD54E45F21165072862
:1040D00036D03146DFF838838A8E1946D24BB1F993
:1040E0000010B8F900804A43B3F90610DFF82493B2
:1040F00001FB08F141F27078B3F91430B9F900907E
:1041000091FBF8F103FB09F393FBF8F3C54809B2FF
:104110001BB20088A84254D14FF47A6092FBF0F0B1
:1041200000B2ACF8000039802380B14A108081428F
:1041300000DA1180B2F90000834200DA13807EE0D9
:10414000BA48B74B0178427803F1E40301EB02214E
:104150001FFA81F8A3F800808178C27801EB022170
:1041600089B25980027990F805E002EB0E2292B2F2
:104170009A8002FB09F241F2707392FBF3F20FFA9C
:1041800082F9ACF8009001FB0BF191FBF3F109B25D
:10419000398008FB0AF898FBF3F212B22280837987
:1041A000C07903EB0020A24B18809148A0F8009042
:1041B000494500DA0180B0F900108A423FDA0280F6
:1041C0003DE0A0F5AC48B8F12F080BD018F1280855
:1041D00008D0B8F1140805D0B8F1010802D018F1E0
:1041E0001A0813D149F6404092FBF0F000B2ACF847
:1041F0000000398023807E4A1080814200DA1180DD
:10420000B2F9000083421ADA138018E08949A0F558
:10421000AA43B1F900208249898E5143FA3B01D06B
:104220005A1E06D148F6B80091FBF0F0704908809C
:1042300005E04FF4FA7091FBF0F06D4908800698A4
:10424000072803D07C48018879480180764FB7F968
:1042500000207A49B1F9000050434FF4FA6890FB0E
:10426000F8F0624C6080B7F90830754AB2F9000086
:1042700000FB03F04FF42F7390FBF3F0A080B7F92D
:104280001800B1F9021001FB00F191FBF8F0A4F85D
:104290004E00B7F90210B2F9020000FB01F090FBEA
:1042A000F3F0A4F850004FF0DC00FBF7A7FF45F255
:1042B000136CE8BBDFF88CA1BAF80000DFF888B116
:1042C000BBF80010A0EB0100604AB2F9001001FB3E
:1042D00000F1544845F6386345F6926900889842E3
:1042E00001D0484504D14FF4967E91FBFEF10FE0DA
:1042F000A0F5A84EBEF5FD7E03D0604501D0A842D2
:1043000002D191FBF8F103E04FF47A7E91FBFEF1CC
:104310002181BAF80210BBF802A0A1EB0A0AB2F997
:10432000021001FB0AF1984201D0484506D100E095
:1043300015E04FF4967091FBF0F00EE0A0F5AA4264
:10434000FA3A03D0604501D0A84202D191FBF8F0BF
:1043500003E04FF47A7091FBF0F0A4F85400B7F941
:104360000C0040F6B73A8146A0F22130012200232A
:104370000590504501D2237300E022733449B1F90E
:10438000000000FB09F044F6206E90FBFEF0A0F266
:1043900011106081B7F90E00A0F2213BD34502D283
:1043A00084F8583001E084F85820B1F902104143F4
:1043B00044F6206091FBF0F0A0F211100B49A1F837
:1043C0005600B7F904102348B0F9000001FB00F0D3
:1043D0004FF4FA6490FBF4F01F4C2080B7F9028090
:1043E0001E483DE008EC07202C05001070EB07206C
:1043F000940200105601001046C107203605001037
:10440000E6000010F8ED072034C1072096020010E6
:104410001C05001036C10720980200109A020010F7
:1044200008C00720FA010010645E0010F2F10720B6
:10443000A20200102CC107209C02001020C10720FE
:104440000C0500109EC1072024C107201005001094
:1044500028C107201A0500108402001018C1072087
:10446000B0F9000008FB00F8FA4845F2FA544FF49E
:10447000C87B0088A04202D198FBFBF803E04FF410
:10448000FA7E98FBFEF8DFF8D0E30FFA88F8AEF872
:104490000080DFF8C8E3AEF80080F14FB7F9007094
:1044A00001FB07F102D191FBFBF103E04FF4FA7439
:1044B00091FBF4F1EB4C09B22180642919DA4FF039
:1044C0000001A646E84CB4F900B010E0C1EBC1040D
:1044D00004EB0117E54C04EB8704BEF90070246A75
:1044E000BC4201DDAEF8004001F10101C9B25945FD
:1044F000ECDB4FF0000B5946DB4CB4F90070DB4CA1
:104500000BE0C1EBC10E0EEB011E04EB8E0EDEF8CC
:1045100024E0F34401F10101C9B2B942F1DBD4490D
:10452000A1F800B0D34940F6B73AB1F90AB0D24980
:10453000ABF2213ECDF810E0D64501D20B7000E081
:104540000A70DFF838A3BAF900A0CDF80CA00AFB76
:104550000BFA44F6206E9AFBFEFAAAF2111ADFF863
:1045600020E3AEF800A0DDF814A040F6B73EF24517
:1045700001D20B7000E00A70DDF80CA00AFB09FA0A
:1045800044F620699AFBF9F9A9F21119DFF8F0E273
:10459000AEF80090DDF8109040F6B73AD14501D260
:1045A0004B7000E04A70B54AB2F9022002FB0BF2F0
:1045B00044F6206992FBF9F2A2F211120FFA82FA84
:1045C000AF4AA2F802A094F8E022DFF8B892092AD4
:1045D0005FD194F8E62294F8E7B2DFF8ACE202EBA0
:1045E0000B22CEF80020029294F8E82294F8E9B267
:1045F00002EB0B22CEF8042094F8EAB294F8EBE236
:104600000BEB0E2BDFF884E20FFA8BFBAEF800B059
:10461000BBF1000F05D0DFF878B24FF0320EABF8E7
:1046200000E036D1DDF808B0ABEB020B994AB2F9E5
:10463000002002FB0BF2A0F5A84BBBF5FD7B0FD0D1
:10464000BBF1010B0CD060450AD0A84208D0BBF1E9
:10465000340505D0283503D0143D01D06D1E03D19B
:104660004FF4FA6592FBF5F215B2A9F80050DFF8A5
:1046700020C2DFF824B2BCF9002042B1A2F101024D
:10468000ACF80020BBF80020A9F8002001E0ABF84E
:104690000050824AA2F80280CDF80480A0F5AC4513
:1046A000023D03D11089A9F8000002E0B9F800002A
:1046B0001081DFF8ECC1BCF80050DFF8E881B8F9F0
:1046C000000068434FF47A6B90FBFBF0764D80B2AC
:1046D0002880DFF8D8E1642802D2AEF8000003E0B9
:1046E00073480088AEF80000BCF802C0B8F90200B8
:1046F00000FB0CF090FBFBF068806E4DB5F90000FC
:10470000DFF8B4C1BCF9008008FB00F841F270701A
:1047100098FBF0FBDFF8A481A8F800B0B5F902B06F
:10472000BCF902E00EFB0BFE9EFBF0FBA8F802B00A
:10473000B5F904B0BCF904C00CFB0BFC9CFBF0FC0D
:10474000A8F804C0B5F906B0DFF874C1BCF9008060
:1047500008FB0BF898FBF0FBDFF86881A8F800B0C5
:10476000B5F908B0BCF902E00EFB0BFE9EFBF0FBB6
:10477000A8F802B0B5F90AB0BCF9045005FB0BF576
:1047800095FBF0F0A8F804000AF2111A0FFA8AFC5F
:10479000DFF834A13A48AAF800C0808800F211106E
:1047A0000FFA80F8AAF802804D788AF808508878C5
:1047B0008AF80900454905B910B1012D0AD00AE06F
:1047C0000CEB080000EBD0756FF4887000EB65000F
:1047D00008801EE008B12DB106E0A8F21118A1F87A
:1047E000008016E0012802D0012D05D011E0ACF2C6
:1047F000111CA1F800C00CE001280AD1344800784F
:10480000052803D233480088088002E04FF01400E6
:10481000088031490878552805D10198C82802DD5B
:104820001089A6F84400487855280BD1B2F94E00FB
:10483000C82807DDB2F95400B2F90810884201DD3A
:10484000A6F84400B9F80000A6F844004FF00001B3
:1048500074E00000FA0100108A02001084020010C7
:104860001E05001088020010A4010010F8ED0720BA
:104870008C020010645E0010EB02001014050010A2
:104880008E0300108202001054050010BC020010BC
:104890005C0500101005001042C1072070EB0720D6
:1048A00058C107202EC1072094030010B202001047
:1048B00094020010E4040820440500109A0300103C
:1048C00060C10720A003001040040820A4020010CB
:1048D000D80000105EC10720F8010010C1EBC10034
:1048E00000EB011004EB8000C578192D1CD28579EE
:1048F000C67905EB06254562057A467A05EB06255D
:104900000562857AC67A05EB0625C561057B856259
:10491000457B80F85250857B80F84250057C467C70
:1049200005EB0625C56406E0C3614362036283624A
:1049300080F84230C36401F10101C9B2B942CDDB54
:10494000F94DB2F908104FF00A0091FBF0F1B2F9FD
:10495000542092FBF0F00844C0F1000006B22E8013
:10496000F24A13804FF0000012E0C0EBC00101EBEF
:10497000001104EB810191F803C0BCF1050F04D2D2
:10498000496AB2F800C06144118000F10100C0B270
:10499000B842EADB1088304400B22880002800DAF0
:1049A0002B802B8013804FF000000FE0C0EBC00184
:1049B00001EB001104EB8101CE78052E03D2496A88
:1049C00016883144118000F10100C0B2B842EDDB1D
:1049D000118803EB010000B22880002800DA2B8048
:1049E000D348B0F90050002D66D04FF00002D14EF0
:1049F00060E002F11400C0EBC00101EB001004EB19
:104A00008000C178192939D28179C77901EB07274C
:104A100002EB420106EB4111CF61077A90F809C021
:104A200007EB0C27CF62877A90F80BC007EB0C27B7
:104A30008F61077B0F62477B81F84670877B90F818
:104A40000FC007EB0C278F62077C90F811C007EBB3
:104A50000C274F628B70877C81F85970C77C81F876
:104A60005A70077D81F85870477D81F85B70877DAB
:104A700081F85C70C07D81F85D0018E002EB4200B7
:104A800006EB4010C361C3628361036280F8463065
:104A9000436283624FF01901817080F8593080F8C9
:104AA0005A3080F8583080F85B3080F85C3002F182
:104AB0000102D2B2AA429CDB07B0BDE8F08F9E4A49
:104AC0009E491078042801D0012805D1507818B9E2
:104AD0009B480078552803D09A4800880870704792
:104AE00008780028FBD0A0F10100087070479648B4
:104AF000416821F4402141F480214160416821F462
:104B0000403141F480314160416821F4404141F439
:104B100080414160416C21F4402141F40021416415
:104B2000416C21F4403141F400314164416C21F485
:104B3000404141F4004141648448016821F0E06152
:104B40000160016841F400110160016821F48031C5
:104B50000160016821F47F4141F4807101604FF4EC
:104B60008071C1607A484FF48001016070472DE97F
:104B7000F041784C60882188401A00B206F0F7F8BE
:104B8000A61D3080A0886188401A00B206F0EFF8B8
:104B90007080A0882188401A00B206F0E8F8B08042
:104BA0004FF49671A4F1EA05884202DAA088E886FB
:104BB0000CE0B6F90200884202DA6088E88605E077
:104BC000B6F90000884201DA2088E8866F7A00266C
:104BD0002FB36148B5F9361002680A440260426892
:104BE0000A44426082680A448260C2681144C1601B
:104BF000E98F01F1010109B2E987B1F5805F00DBBE
:104C0000EE87B5F93E108A0531D14FEAA12150F85F
:104C100021204FEA2222AA8640F8216027E04F484F
:104C2000AC7AEA7A00EB8413B5F9361043F8221017
:104C300090070FD1014653F820C0614400F10100F4
:104C4000C0B21028F7D34FEA21104349A1F1200147
:104C500021F81400641CE0B2A872102807D3AE72C9
:104C600002F10102D0B2E872102800D3EE722E7267
:104C700007F1010707F001006872344A30B110688B
:104C800020F0FF0000F1040010603DE0A97A080761
:104C900006D4106820F0FF0000F10100106005E06C
:104CA000106820F0FF0000F1020010602C4803683B
:104CB00043F080530360036A43F080430362036E52
:104CC00043F080630366CB070AD0436943F0805307
:104CD00043618B0709D4436B23F08043436308E0AF
:104CE000436923F080534361F3E7436B43F0804310
:104CF0004363490704D4416F21F08061416703E0B9
:104D0000416F41F080614167106840F08070106031
:104D1000BDE8F081F0B50F4DEA3DB5F9300008B3BC
:104D2000A0F101002886B2E0860200103C050010C8
:104D3000A601001064F80720540300107E00001044
:104D4000C30000100A02001000C0024000400340EF
:104D500000E100E0F2C00720845E0010645A0010F9
:104D600000C009204FF00006AE743046FF49FE4BEC
:104D7000B1F9002012E0C0EBC00101EB001103EB20
:104D800081018C78012C06D1C978142903D2A97C21
:104D900001F10101A97400F10100C0B29042EADB07
:104DA000AF7C022F73D3F24C41F28830E061A661F0
:104DB00026624FF000011CE0C1EBC10000EB0110C6
:104DC00003EB800090F802C0BCF1010F0ED1406AE5
:104DD000D4F818C0604500DDA061D4F81CC060455F
:104DE00000DAE061D4F820C06044206201F10101E2
:104DF000C9B29142E0DB206A90FBF7F76762E06995
:104E0000012100B9E161A0694FF0640C00FB0CF0D6
:104E1000D4F81CC090FBFCF0A062A02800DD6974EF
:104E2000782800DA6E74687C012830D14FF00001D8
:104E30006FF0310429E0C1EBC10000EB011003EB7E
:104E400080008578012D1DD1456ABD4205DDB0F891
:104E50005050A5F10105A0F8505005DAB0F85050B7
:104E600005F10105A0F85050B0F95050A54201DA03
:104E7000A0F85040B0F95050322D03DD4FF032050C
:104E8000A0F8505001F10101C9B29142D3DB00BF3B
:104E9000F0BD2DE9F05FB7480168B74A01EA0201A9
:104EA0000160B64C216841F47C712160C16921F434
:104EB0004021C161216E41F000712166416821F0FD
:104EC00040614160206840F000502060AD48AC4D2A
:104ED000AE490278AC4895F83C30B1F90010007842
:104EE000134307D030B1052904DDA36943F480736F
:104EF000A36103E0E36943F48073E36195F88830CC
:104F0000134307D030B1052904DDA06940F040000B
:104F1000A06103E0E06940F04000E061D220FBF7CF
:104F20006DF99B4D10B12868642848D0E06940F0C5
:104F30000050E061D220FBF761F9964E10B128686D
:104F400066284BD03068C00754D0A06F40F0007086
:104F5000A0679148DFF84482914F0088A0F5AA41EC
:104F6000FA3901D0491E6FD1D220FBF747F910B1B1
:104F70002868662843D03068C0074DD0A06F40F045
:104F80000070A067D220FBF739F910B128686A28B1
:104F900047D03068384252D0A06940F08000A0610C
:104FA000D220FBF72BF910B1286867284DD098F86C
:104FB000000080B3A06940F01000A061F2E16868D1
:104FC000012806D00028B5D1E06940F00050E0612A
:104FD000B0E7A06940F00050A061ABE7686820B17D
:104FE000A06F40F00070A067B3E7E06F40F0007082
:104FF000E067AEE7E06F40F00070E067A9E768683F
:1050000020B1A06F40F00070A067BBE7E06F40F0F8
:105010000070E067B6E727E0E06F40F00070E067FF
:10502000B0E7686830B10128BAD1A06940F08000CB
:10503000A061B5E7E06940F08000E061B0E7E069B9
:1050400040F08000E061ABE713E0686810B1012830
:1050500005D0A7E1E06940F01000E061A2E1A0699D
:1050600040F01000A0619DE1E06940F01000E061B7
:1050700098E1A0F5AC41073962D1D220FBF7BEF828
:1050800010B12868672823D098F8000070B3A06991
:1050900040F01000A061D220FBF7B0F810B12868F2
:1050A000662828D03068C00731D0A06F40F000706B
:1050B000A067D220FBF7A2F810B128686A282BD08D
:1050C0003068384237D0A06940F08000A06169E1C3
:1050D000686830B10128DED1A06940F01000A061FD
:1050E000D9E7E06940F01000E061D4E7E06940F002
:1050F0001000E061CFE7686820B1E06940F000701F
:10510000E061D6E7A06940F00070A061D1E7A06B34
:1051100040F00070A063CCE7686810B1012805D0AA
:1051200040E1E06940F08000E0613BE1A06940F0CF
:105130008000A06136E1E06940F08000E06131E18B
:10514000A0F5AC411B3901D0491E73D1D220FBF729
:1051500055F810B12868672852D098F80000F0B3CD
:10516000A06940F010001DE0F8ED0720A401001038
:1051700088C0072000C00240FF00F0FF00C00920E7
:1051800070EB07200405001083000010E6000010FB
:1051900010C1072028000010FA010010860000103E
:1051A000F8070010A061D220FBF728F810B128689A
:1051B000662838D03068C00742D0A06F40F0007039
:1051C000A067D220FBF71AF810B128686A283CD0F3
:1051D0003068384247D0A06940F0800000E01DE010
:1051E000A061D220FBF70AF810B128686A283FD0E6
:1051F000306838424BD0A06940F02000A061D1E077
:10520000686830B10128CED1A06940F01000A061DB
:10521000C9E7E06940F01000E061C4E7E06940F0F0
:105220001000E061BFE7686828B1E06940F00070F5
:10523000E061C6E730E0A06940F00070A061C0E71F
:10524000A06B40F00070A063BBE7686830B1012834
:10525000C7D1A06940F08000A061C2E7E06940F0DA
:105260008000E061BDE7E06940F08000E061B8E700
:10527000686810B1012805D094E0E06940F0200092
:10528000E0618FE0A06940F02000A0618AE0E06961
:1052900040F02000E06185E0A0F5AC41113901D07B
:1052A0000F3163D1D220FAF7A9FF10B12868662820
:1052B00023D03068C0072CD0A06F40F00070A067EA
:1052C000D220FAF79BFF10B128686A2826D03068F0
:1052D000384231D0A06940F08000A061D220FAF7B6
:1052E0008DFF10B1286867282BD098F8000090B384
:1052F000A06940F01000A06154E0686820B1A06F80
:1053000040F00070A067DBE7E06F40F00070E067FE
:10531000D6E7E06F40F00070E067D1E7686830B131
:105320000128DBD1A06940F08000A061D6E7E069E8
:1053300040F08000E061D1E7E06940F08000E0618A
:10534000CCE7686810B1012806D02BE0E06940F096
:105350001000E06126E004E0A06940F01000A061C8
:1053600020E0E06940F01000E0611BE0D220FAF795
:1053700045FF10B12868662826D03068C0072FD0B6
:10538000A06F40F00070A067D220FAF737FF10B18D
:1053900028686A2829D03068384234D0A06940F0A3
:1053A0002000A061D220FAF729FFDFF8FC83FF4F2D
:1053B000FF4E10B1286871282AD0FE48B0F90000CD
:1053C00080B3012868D072E0686820B1E06940F0DD
:1053D0000070E061D8E7A06940F00070A061D3E7F9
:1053E000A06B40F00070A063CEE7686830B1012880
:1053F000D8D1A06940F02000A061D3E7E06940F077
:105400002000E061CEE7E06940F02000E061C9E7FC
:10541000686810B1012806D049E0E06940F40070E6
:10542000E06144E004E0A06940F40070A0613EE067
:10543000E148E249B0F90000D8B9B27E022A18D09A
:105440000A78B2B93A78A2B996F826208AB996F8BD
:10545000292072B9B8F900200A2392FBF3F2D84B45
:10546000B3F900309A4204DAE06940F40070E06178
:105470001DE060B9B07E022809D0087838B93878C4
:1054800028B996F8260010B996F8290078B1A069D5
:1054900040F40070A0610AE0D220FAF7AFFE10B12C
:1054A0002868722817D0A06940F40070A061D2204B
:1054B000FAF7A4FEDFF80C93C34C10B128687528E6
:1054C0000ED02078C0071ED099F8000040F00100EF
:1054D00089F800001DE0E06940F40070E061E6E753
:1054E000686810B1012807D013E099F8000000F0B7
:1054F000FE0089F800000CE099F8000040F001007F
:1055000089F8000005E099F8000000F0FE0089F835
:105510000000D220FAF772FE10B12868762809D070
:105520002078C00719D099F8000040F0020089F8EF
:10553000000018E0686810B1012807D013E099F85E
:10554000000000F0FD0089F800000CE099F8000070
:1055500040F0020089F8000005E099F8000000F032
:10556000FD0089F80000D220FAF748FE10B1286843
:10557000772809D02078C00719D099F8000040F0AA
:10558000040089F8000018E0686810B1012807D00D
:1055900013E099F8000000F0FB0089F800000CE02F
:1055A00099F8000040F0040089F8000005E099F83F
:1055B000000000F0FB0089F80000D220FAF71EFE80
:1055C00010B12868782809D02078C00719D099F838
:1055D000000040F0080089F8000018E0686810B189
:1055E000012807D013E099F8000000F0F70089F8CF
:1055F00000000CE099F8000040F0080089F8000075
:1056000005E099F8000000F0F70089F800006F4805
:10561000008801287ED14FF000000146DFF8B0A1DC
:10562000DFF8B0916C4DDFF8B4B14FF001033BF9F6
:1056300011205FEAC27C10D0DFF8A4C1B8F900E005
:10564000BCF900C00CEB8C0CBEEB4C0F05DA03FA76
:1056500001FC4CEA000C0CF0FF005FEA827C0AD5EA
:1056600097F800C0BCF1020F05D103FA01FC4CEA27
:10567000000C0CF0FF005FEA427C0AD596F81AC0D5
:10568000BCF1020F05D103FA01FC4CEA000C0CF04E
:10569000FF005FEA027C0CD5DFF848C1DCF800C0EF
:1056A000BCF1000F05D003FA01FC4CEA000C0CF031
:1056B000FF005FEAC26C0AD59AF800C0BCF1010F86
:1056C00005D103FA01FC4CEA000C0CF0FF005FEA84
:1056D000826C0AD59AF800C0BCF1020F05D103FA1A
:1056E00001FC4CEA000C0CF0FF005FEA426C25D58F
:1056F00099F801C05FEACC6C04D5B5F900C0BCF1E3
:10570000010F15DA99F85DC05FEACC6C06D5B5F9E2
:1057100000C000E047E0BCF1020F09DA99F8B9C017
:105720005FEACC6C0AD5B5F900C0BCF1030F05DB0C
:1057300003FA01FC4CEA000C0CF0FF005FEA026C7B
:1057400023D599F801C05FEA0C7C04D0B5F900C0FC
:10575000BCF1010F13DA99F85DC05FEA0C7C04D04C
:10576000B5F900C0BCF1020F09DA99F8B9C05FEAD7
:105770000C7C0AD0B5F900C0BCF1030F05DB03FABD
:1057800001FC4CEA000C0CF0FF00120404D403FAF4
:1057900001F282EA0002D0B201F10101C9B204298A
:1057A000FFF445AF20701FE0840200108700001056
:1057B00008C00720BC010010CE02001089000010B4
:1057C000DC010010DF00001070050010B4010010B3
:1057D000DC000010F8ED0720A4010010A603001063
:1057E0005401001024000010BDE8F09F2DE9F05F87
:1057F000FD4E00274FF0010A307E0A2808D200F142
:105800000100C0B230760A2802D3377686F819A094
:10581000A6F85870A6F85A70CD20FAF7EFFCDFF81A
:10582000CC83DFF8CCB3A0B3F24A4FF6FF73106815
:10583000CE2801D1A6F85A30CF2802D15168A6F857
:105840005A10D12802D15168A6F85810D22801D197
:10585000A6F85830D02806D15068A6F858006FEA4C
:105860000000A6F85A004FF0000437E0B6F85A00DE
:105870000AFA04F919EA000F0CD0C4EBC40000EBDB
:10588000041008EB800030F8401F01F10101018095
:1058900008E028E0C4EBC40000EB041008EB800033
:1058A000A0F84070C4EBC40000EB041008EB8005C6
:1058B00005F1400032220021FAF7F8FCB5F940006A
:1058C000142801DD85F82CA0B6F8580019EA000F5D
:1058D00001D085F82C7004F10104E4B2BBF900009A
:1058E0008442C3DD8BE0707EF0B34FF000042146AC
:1058F000BBF900000AE0C1EBC10202EB011208EBA8
:10590000820282F82CA001F10101C9B28142F2DDCC
:105910004FF0000122E0C2B2202A01D94FF020024C
:10592000F37F834201DB4FF000030B44DBB2B3FB98
:10593000F2F502FB1532C2EBC20303EB021208EBD5
:1059400082029378022B01D0012B04D182F82C70B3
:1059500004F10104E4B201F10101C9B2814206DAA5
:10596000A54AB2F9002000E049E09442D3DB96F862
:105970002010C1EBC10202EB011108EB810181F89B
:105980002C709E49B1F900103C290FDA4FF000014C
:105990000AE0C1EBC10202EB011208EB820282F8BD
:1059A0002C7001F10101C9B28142F2DD94490988EC
:1059B00079B14FF000010AE0C1EBC10202EB011224
:1059C00008EB820282F82CA001F10101C9B28142E8
:1059D000F2DD4FF000016FF031030EE0C1EBC102C8
:1059E00002EB011208EB820292F82C40012C01D14B
:1059F000A2F8503001F10101C9B28142EEDD4FF051
:105A000000004FF06304BBF900100FE0C0EBC002D0
:105A100002EB001208EB8202D36B23B182F82C4018
:105A2000A3F10103D36300F10100C0B28842EDDBB2
:105A3000777677754FF00002104613E0C0EBC00395
:105A400003EB001308EB83039C78012C07D1747DD2
:105A500004F101047475DB69934200DD9AB200F130
:105A60000100C0B28842E9DBA6F8482086F823701E
:105A700086F822A04FF00000624AB2F90030A3F18C
:105A8000050411E0C0EBC00202EB001208EB820239
:105A9000926A9A4201DB86F823A0A24201DB86F8D3
:105AA000227000F10100C0B28842EBDB96F82300BF
:105AB00001280AD096F82400002805D096F8220084
:105AC000002801D086F824706DE686F824A06AE6E6
:105AD00070B50A234D4C4C48002522680068B2FB83
