:020000040000FA
:10000000A0740010E1000000E5000000E70000001F
:10001000E9000000EB000000ED000000000000001F
:10002000000000000000000000000000EF000000E1
:10003000F100000000000000F3000000DD6A030092
:10004000F7000000C99C0300FD9C0300F7000000BE
:10005000F7000000C3D10300F7000000F700000024
:10006000F7000000F7000000F7000000F7000000B4
:10007000F7000000F7000000F7000000F7000000A4
:10008000F7000000F7000000F7000000F700000094
:10009000F7000000F7000000477F0000F7000000B5
:1000A000F70000006FCF0300F7000000F70000002A
:1000B00025F60300F7000000F7000000F70000003D
:1000C000F7000000F7000000F7000000DFF80CD098
:1000D0003FF00EFB00480047816C0300A074001045
:1000E00005480047FEE7FEE7FEE7FEE7FEE7FEE71E
:1000F000FEE7FEE7FEE7FEE7CD000000FEE710B5F5
:100100003FF0D0FF40F02CF840F01EF8AFF3008035
:10011000BDE810403FF0EABF10B540F0A9FD41F046
:10012000C7F9BDE8104040F0FBBD40F00FBD40F006
:10013000D7BA09B1002070473FF0DCBE00207047FD
:1001400030B54FF000003D4BA3F1140202F10A0458
:10015000115C61B1255CA94209D1195C39B1A1F1E9
:100160000101C9B2195411B94FF000011154115CC9
:10017000215400F10100C0B20A28E9D330BD70B5A6
:100180004FF000042D4EA6F1140604F10104E4B270
:10019000355D1DB1854201D00A2CF6D33055274874
:1001A0000C3040F82410283040F82420343803550F
:1001B00070BD4FF00001214AA2F1140201F10101CA
:1001C000C9B2535C834201D00A29F7D3535C8342FE
:1001D00012D11A480C3050F8213019480360174BDF
:1001E000343353F8213043604FF000005054134A29
:1001F00050544FF001007047002070474FF000014D
:100200000E4AA2F1140201F10101C9B2535C83420A
:1002100001D00A29F7D3525C82420CD107480C3036
:1002200050F8212006480260044A343252F8211066
:100230004160012070470020704700006C5F001093
:10024000AC0000100D4BDA601870597070470B4A03
:100250001161907070470949088170470749B1F9E9
:100260000800002809D0A0F1010000B20881002890
:1002700003D10146084601F097BC7047B400001056
:1002800090F900308B4200DA027090F9003093420E
:1002900000DD0170704790F900308B4200DA017088
:1002A00090F90010914200DD02707047B0F9003003
:1002B0008B4200DA0180B0F90010914200DD02802B
:1002C0007047B0F900308B4200DA0280B0F900309C
:1002D000934200DD01807047FE21C0B23FF0F4B9C7
:1002E0008021C0B23FF0F0B91C21C0B23FF0ECB9A0
:1002F0007021C0B23FF0E8B970477047FFFFFFFFC1
:10030000002802DAC0F1000000B270474FF0000090
:10031000FC4A4FF02001115400F10100C0B2C8287E
:10032000F9D3704701464FF00000F64A00F1010092
:10033000C0B2135C8B4201D0C828F7D3704710B508
:100340004FF00001F04C4FF00A020346B0FBF2F010
:1003500002FB1033635401F10101C9B20529F4D342
:1003600010BDF0B5E94D4FF0010129704FF00501C6
:10037000E54B4FF020064FF000072A7842B15A189B
:1003800012F8014C24B9814202D902F8016C07E04D
:1003900003EB010212F8014D04F1300414702F70C8
:1003A000A1F10101C9B20029E7D1F0BDFEB50346B4
:1003B0004FF02B07002B04DAC3F1000003B24FF01B
:1003C0002D074FF000004FF00A046D4693FBF4F642
:1003D00004FB16332B5433B200F1010040B20A285B
:1003E000F4DB4FF001034FF000044FF009004FF031
:1003F000200643B115F800C0BCF1000F03D19042B4
:1004000001DD2E5408E02B5C03F130032B544FF038
:10041000000304F10104E4B2A0F1010040B200289D
:10042000E7DA2D2F04D1204604F10104E4B22F5461
:100430008AB160B207E005EB000313F8013C2B54CE
:10044000A0F1010040B29042F5DC4FF02E00A8541C
:1004500004F10104E4B20846FFF764FF4FF0000125
:10046000A84A06E0A0EB01066B5C935501F101017F
:1004700049B2A142F6DBFEBDFEB503464FF02B07A5
:10048000002B03DAC3F100034FF02D074FF00000FB
:100490004FF00A046D461E4693FBF4F304FB13660B
:1004A0002E5400F1010040B20A28F4DB4FF00103A2
:1004B0004FF000044FF009004FF0200643B115F84B
:1004C00000C0BCF1000F03D1904201DD2E5408E0C2
:1004D0002B5C03F130032B544FF0000304F10104B3
:1004E000E4B2A0F1010040B20028E7DA2D2F04D1D8
:1004F000204604F10104E4B22F548AB160B207E04F
:1005000005EB000313F8013C2B54A0F1010040B2AD
:100510009042F5DC4FF02E00A85404F10104E4B23F
:100520000846FFF7FFFE4FF00001764A06E0A0EB19
:1005300001066B5C935501F1010149B2A142F6DB62
:10054000FEBD2DE9FE414FF02B0C002803DAC0F16F
:1005500000004FF02D0C4FF000044FF00A056F46DD
:10056000064690FBF5F005FB10663E5504F10104CC
:1005700064B20A2CF4DB4FF001054FF000044FF099
:1005800009004FF0200645B117F80080B8F1000FC0
:1005900003D1984201DD3E5408E03D5C05F1300591
:1005A0003D544FF0000504F10104E4B2A0F1010054
:1005B00040B20028E7DABCF12D0F05D1204604F146
:1005C0000104E4B207F800C08BB160B207E007EBAA
:1005D000000515F8015C3D54A0F1010040B29842BD
:1005E000F5DC4FF02E00F85404F10104E4B201EB05
:1005F000810002EB8000C1B24FF00000414A06E0EA
:10060000A1EB00053B5C535500F1010040B2A04254
:10061000F6DBBDE8FE8170B50D4616461C46FFF7B9
:100620008EFE601CC0B2FFF79CFE05EB850006EB5A
:100630008000C1B24FF00000334B324DA04201D2D6
:100640001A5C6A5407D31A5C202A04D064B105EB03
:10065000010606F8012CA1F10101C9B200F1010067
:10066000C0B20528EAD370BD6A54F4E730B5044639
:1006700008461546FFF756FEFF280CD0214A07E032
:1006800000EB050304F10104D15400F10100C0B2F4
:1006900021780029F4D130BD70B50D461446FFF71E
:1006A0004EFE601CC0B2FFF75CFE2846FFF73AFE24
:1006B0004FF00001144A134D24B9535C202B01D094
:1006C0002B5415E0A14202D2535C2B5410E008D108
:1006D0004FF02E032B5405EB0006535C06F8013C4B
:1006E00006E0535C202B03D005EB000606F8013C26
:1006F000A0F10100C0B201F10101C9B20529DBD3AB
:1007000070BD00003203001054C0072059C00720FC
:100710001044002801DA084403E0884201DBA0EB22
:100720000100C0B270472DE9FE4F04460D464FF45C
:1007300060603AF00CF862424021FFF7E9FF4FEAAF
:10074000401000F58060044602A920463AF086F881
:1007500001A904F108003AF081F8694604F10C009F
:100760003AF07CF82846FFF7DDFD83469DF8080047
:10077000DFF828A6DFF828964FF040064FF0300546
:100780004FF021074FF023084FF02004552845D0A3
:10079000CF22D12150287DD0E22351287BD042287E
:1007A0007AD0532879D0492878D14FF0C0010BF185
:1007B0000100C0B209F80B104FF0C20200F10101B4
:1007C000C9B209F800204FF02E0201F10100C0B2B9
:1007D00009F801204FF0C80200F10101C9B209F87F
:1007E00000204FF0ED0501F10100C2B209F80150FF
:1007F00002F10100C0B209F802309DF80910092980
:100800007DD201F1310100F10102D2B209F80010EC
:1008100002F10100C0B209F80240F5E39DF80A00B8
:10082000522815D14FF0C2010BF10100C0B209F8F6
:100830000B104FF0EA0200F10101C9B209F80020E3
:100840004FF0EB0201F1010000F0FF0B09F801206D
:100850000BF10100C0B209F80B4000F10101C9B26F
:1008600009F8004001F10100C0B209F8014000F1AF
:100870000101C9B209F8004001F10100C0B209F854
:1008800001409DF80410BAF83C20914250D19DF8E7
:10089000051004E092E054E11CE2FEE346E09AF821
:1008A0003820914244D19DF806109AF82C209142AC
:1008B0003ED100F10101C9B209F8005001F1010077
:1008C000C0B209F801704FF03A0200F10101C9B25B
:1008D00009F8002001F10100C0B209F8015000F14F
:1008E0000101C9B209F8006001F10100C0B209F8C4
:1008F000012000F10101C9B209F8005000E0FDE358
:1009000009F801809DF800004FF000024FF021012E
:10091000FFF7C2FE9DF8010000224021FFF7BCFE58
:100920009DF8020000222321FFF7B6FEBDE8FE8FEE
:1009300000F10101C9B209F8004001F10100C0B2A3
:1009400009F8015000F10101C9B209F8007001F184
:100950000100C0B209F8016000F10101C9B209F853
:10096000004001F10100C0B209F8014000F10101AD
:10097000C9B209F8005009F801809DF806004FF04F
:1009800000024FF02101FFF787FE9DF804000022CE
:100990002321FFF781FE9DF80500401E0C2803D39C
:1009A0004FF001008DF805009DF80510FD4800226C
:1009B00000EB81004021FFF759FEB7E74FF0C0037D
:1009C0000BF10100C0B209F80B304FF0C20300F187
:1009D000010C0CF0FF0C09F800304FF02E030CF165
:1009E0000100C0B209F80C3000F10103DBB209F8D4
:1009F000002003F10100C0B209F8031000F1010169
:100A0000C9B209F8004001F10100C2B209F8014081
:100A100002F10100C0B209F802409DF80410BAF8D2
:100A20003C20914247D19DF805109AF83820914218
:100A300041D19DF806109AF82C2091423BD100F14B
:100A40000101C9B209F8005001F10100C0B209F872
:100A500001704FF03A0200F10101C9B209F800201B
:100A600001F10100C0B209F8015000F10101C9B261
:100A700009F8006001F10100C0B209F8012000F19D
:100A80000101C9B209F8005009F801809DF8000081
:100A90004FF000024FF02101FFF7FEFD9DF801002D
:100AA00000224021FFF7F8FD9DF8020000222321DB
:100AB000FFF7F2FD3AE700F10101C9B209F8004081
:100AC00001F10100C0B209F8015000F10101C9B201
:100AD00009F8007001F10100C0B209F8016000F1ED
:100AE0000101C9B209F8004001F10100C0B209F8E2
:100AF000014000F10101C9B209F8005009F8018074
:100B00009DF806004FF000024FF02101FFF7C4FDF1
:100B10009DF8040000222321FFF7BEFD9DF805008B
:100B2000401E0C2803D34FF001008DF805009DF8FE
:100B300005109C48002200EB81004021FFF796FD44
:100B4000F4E64FF0C0010BF10100C0B209F80B1040
:100B50004FF0C20200F10101C9B209F800204FF0C4
:100B60002E0201F10100C0B209F801204FF0550238
:100B700000F10101C9B209F8002001F10100C0B281
:100B800009F801304FF0FB0200F10101C9B209F888
:100B900000204FF0F50001F10102D2B209F8010086
:100BA00002F10100C0B209F802409DF80410BAF841
:100BB0003C20914247D19DF805109AF83820914287
:100BC00041D19DF806109AF82C2091423BD100F1BA
:100BD0000101C9B209F8005001F10100C0B209F8E1
:100BE00001704FF03A0200F10101C9B209F800208A
:100BF00001F10100C0B209F8015000F10101C9B2D0
:100C000009F8006001F10100C0B209F8012000F10B
:100C10000101C9B209F8005009F801809DF80000EF
:100C20004FF000024FF02101FFF736FD9DF8010063
:100C300000224021FFF730FD9DF802000022232111
:100C4000FFF72AFD72E600F10101C9B209F8004080
:100C500001F10100C0B209F8015000F10101C9B26F
:100C600009F8007001F10100C0B209F8016000F15B
:100C70000101C9B209F8004001F10100C0B209F850
:100C80000140024600F10100C1B209F8025009F822
:100C900001809DF806004FF000024FF02101FFF7A0
:100CA000FBFC9DF8040000222321FFF7F5FC9DF8D2
:100CB0000500401E0C2803D34FF001008DF80500FD
:100CC0009DF805103748002200EB81004021FFF716
:100CD000CDFC2BE69DF80A0043287DD14FF0C001E2
:100CE0000BF10100C0B209F80B104FF0C20200F185
:100CF0000101C9B209F800204FF02E0201F10100F4
:100D0000C0B209F801204FF0C10200F10101C9B2DF
:100D100009F800204FF0E00001F10102D2B209F819
:100D200001004FF0F20102F10100C0B209F8021017
:100D30009DF80920092A11D202F1310200F10101C6
:100D4000C9B209F8002001F10100C2B209F801405E
:100D500002F10100C0B209F8024034E0A2F1090139
:100D60005A2921D202F101024FF00A0CB2FBFCF326
:100D700003F1300B00F10101C9B209F800B00CFB1E
:100D8000132000F1300001F10102D2B209F8010094
:100D900002F10100C0B209F8024014E00040024034
:100DA000320300103023040000F10101C9B209F838
:100DB000004001F10100C2B209F8014002F1010056
:100DC000C0B209F802409DF80410BAF83C209142E4
:100DD0004DD19DF8051000E092E09AF8382091423C
:100DE00045D19DF806109AF82C2091423FD100F190
:100DF0000101C9B209F8005001F10100C2B209F8BD
:100E000001704FF03A0302F10100C0B209F802305C
:100E100000F10101C9B209F8005001F10100C0B2AE
:100E200009F8016000F10101C9B209F8003001F1CF
:100E30000100C0B209F8015000F1010101F0FF0BFF
:100E400009F800809DF800004FF000024FF02101EA
:100E5000FFF722FC9DF8010000224021FFF71CFC57
:100E60009DF8020000222321FFF716FC48E000F164
:100E70000101C9B209F8004001F10100C0B209F84E
:100E8000015000F10101CAB209F8007002F101003D
:100E9000C1B209F8026001F10100C0B209F80140D5
:100EA00000F10101C9B209F8004001F10100C0B22E
:100EB00009F8015000F1010101F0FF0B09F8008071
:100EC0009DF806004FF000024FF02101FFF7E4FB10
:100ED0009DF8040000222321FFF7DEFB9DF80500AA
:100EE000401E0C2803D34FF001008DF805009DF83B
:100EF0000510FF48002200EB81004021FFF7B6FB00
:100F00009DF80A0053287ED14FF0C0030BF1010079
:100F1000C0B209F80B304FF0C20200F10101C9B2B2
:100F200009F800204FF02E0201F10100C0B209F8CB
:100F300001204FF0C10200F10101C9B209F80020FF
:100F40004FF0E00001F10102D2B209F801004FF0C8
:100F5000F20102F10100C0B209F802109DF8091077
:100F60004FF0430C092911D201F1310100F10102C6
:100F7000D2B209F8001002F10100C1B209F8023042
:100F800001F10100C0B209F801C021E009395A2974
:100F90000FD200F10101C9B209F8003001F10100DE
:100FA000C2B209F801C002F10100C0B209F8024062
:100FB0000EE000F10101C9B209F8004001F10100A1
:100FC000C2B209F8014002F10100C0B209F80240C2
:100FD0009DF80410BAF83C2091424ED19DF80510BE
:100FE0009AF83820914248D19DF806109AF82C20A2
:100FF000914242D100F10101C9B209F8005001F15A
:101000000100C0B201E085E0FEE309F801704FF095
:101010003A0200F10101C9B209F8002001F1010012
:10102000C0B209F8015000F10101C9B209F800602D
:1010300001F10100C0B209F8012000F10101C9B2BB
:1010400009F8005001F1010000F0FF0B09F80180E0
:101050009DF800004FF000024FF02101FFF71CFB4C
:101060009DF8010000224021FFF716FB9DF80200C9
:1010700000222321FFF710FB4CE000F10101C9B26F
:1010800009F8004001F10100C0B209F8015000F177
:101090000101C9B209F8007000E006E301F10100A6
:1010A000C0B209F8016000F10101C9B209F80040BD
:1010B00001F10100C0B209F8014000F10101C9B21B
:1010C00009F8005001F1010000F0FF0B09F8018060
:1010D0009DF806004FF000024FF02101FFF7DCFA07
:1010E0009DF8040000222321FFF7D6FA9DF80500A1
:1010F000401E0C2805D34FF0010000E0D0E38DF82E
:1011000005009DF805107A48002200EB810040217F
:10111000FFF7ACFA9DF80A005A2877D14FF0C201C8
:101120000BF10100C0B209F80B104FF0C70200F13B
:101130000101C9B209F8002001F10100C0B209F8AB
:10114000014000F10101C9B209F8004001F10100BC
:10115000C0B209F8014000F10101C9B209F800402C
:1011600001F10100C0B209F801409DF80410BAF87D
:101170003C2091424BD19DF805109AF838209142BD
:1011800045D19DF806109AF82C2091423FD100F1EC
:101190000101C9B209F8005001F10100C0B209F81B
:1011A00001704FF03A0200F10101C9B209F80020C4
:1011B00001F10100C0B209F8015000F10101C9B20A
:1011C00009F8006001F10100C0B209F8012000F146
:1011D0000101C9B209F8005001F1010000F0FF0B54
:1011E00009F801809DF800004FF000024FF0210146
:1011F000FFF752FA9DF8010000224021FFF74CFA58
:101200009DF8020000222321FFF746FA48E000F192
:101210000101C9B209F8004001F10100C2B209F8A8
:10122000015002F10100C0B209F8027000F10101A1
:10123000C9B209F8006001F10100C0B209F801402B
:1012400000F10101C9B209F8004001F10100C0B28A
:1012500009F8015000F1010101F0FF0B09F80080CD
:101260009DF806004FF000024FF02101FFF714FA3D
:101270009DF8040000222321FFF70EFA9DF80500D7
:10128000401E0C2803D34FF001008DF805009DF897
:1012900005101748002200EB81004021FFF7E6F916
:1012A0009DF80A0057287ED14FF0C1010BF10100D3
:1012B000C0B209F80B104FF0E00200F10101C9B211
:1012C00009F800204FF0F20001F10102D3B209F851
:1012D00001009DF809104FF0F00E092915D201F117
:1012E000310103F10100C0B209F8031002E000006F
:1012F0003023040000F10101C9B209F800E001F156
:101300000100C2B209F801402EE0A1F109005A28FB
:101310001BD201F101014FF00A0BB1FBFBF202F10C
:10132000300C03F10100C0B209F803C00BFB12122C
:1013300002F1300200F10101C9B209F8002001F107
:101340000100C2B209F801E00EE003F10100C0B2F1
:1013500009F8034000F10101C9B209F8004001F1A8
:101360000100C2B209F8014002F10100C0B209F85F
:1013700002409DF80410BAF83C2091424DD19DF8EE
:1013800005109AF83820914247D19DF806109AF836
:101390002C20914241D100F10101C9B209F800505D
:1013A00001F1010000E081E0C2B209F801704FF0E4
:1013B0003A0302F10100C0B209F8023000F1010164
:1013C000C9B209F8005001F10100C0B209F801608A
:1013D00000F10101C9B209F8003001F10100C0B209
:1013E00009F8015000F1010101F0FF0B09F800803C
:1013F0009DF800004FF000024FF02101FFF74CF97B
:101400009DF8010000224021FFF746F99DF80200F7
:1014100000222321FFF740F948E000F10101C9B2A1
:1014200009F8004001F10100C0B209F8015000F1D3
:101430000101C9B209F8007001F10100C2B209F856
:10144000016002F10100C0B209F8024000F101019F
:10145000C9B209F8004001F10100C0B209F8015019
:1014600000F1010101F0FF0B09F800809DF8060072
:101470004FF000024FF02101FFF70EF99DF8040034
:1014800000222321FFF708F99DF80500401E0C28D3
:1014900003D34FF001008DF805009DF80510FF48BB
:1014A000002200EB81004021FFF7E0F89DF80A00E0
:1014B0004B287FF40EAC4FF0C1010BF10100C0B21C
:1014C00009F80B104FF0E00200F10101C9B209F870
:1014D00000204FF0F20201F10100C0B209F8012032
:1014E0009DF80910092915D201F1310100F101021D
:1014F000D2B209F800104FF0EA0102F10100C0B2C7
:1015000009F802104FF0E50200F10101C9B209F833
:10151000002030E0A1F109025A2A1DD201F1010197
:101520004FF00A0BB1FBFBF303F1300C00F10102A9
:10153000D2B209F800C00BFB131101F1300102F126
:101540000100C0B209F802104FF0EA0200F10101F7
:10155000C9B209F800200EE000F10101C9B209F892
:10156000004001F10100C0B209F8014000F10101A1
:10157000C9B209F8004001F10100C0B209F8014008
:101580009DF80410BAF83C20914248D19DF805100E
:101590009AF83820914242D19DF806109AF82C20F2
:1015A00091423CD100F10101C9B209F8005001F1AA
:1015B0000100C0B209F801704FF03A0200F10101D8
:1015C000C9B209F8002001F10100C0B209F80150C8
:1015D00000F10101C9B209F8006001F10100C0B2D7
:1015E00009F8012000F10101C9B209F8005009F819
:1015F00001809DF800004FF000024FF02101FFF73D
:101600004BF89DF8010000224021FFF745F89DF8B6
:10161000020000222321FFF73FF8BDE8FE8F00F112
:101620000101C9B209F8004001F10100C0B209F896
:10163000015000F10101C9B209F8007001F1010087
:10164000C0B209F8016000F10101C9B209F8004017
:1016500001F10100C0B209F8014000F10101C9B275
:1016600009F8005009F801809DF806004FF00002CB
:101670004FF02101FFF710F89DF80400002223210C
:10168000FFF70AF89DF80500401E0C2803D34FF021
:1016900001008DF805009DF805108048002200EB40
:1016A00081004021FEF7E2FFB7E74FF0C0030BF1E6
:1016B0000100C0B209F80B304FF0C20300F1010C79
:1016C0000CF0FF0C09F800304FF02E030CF1010074
:1016D000C0B209F80C304FF0C10C00F10103DBB2CD
:1016E00009F800C003F1010000F0FF0C09F8032025
:1016F0000CF10100C0B209F80C109DF80920092A6C
:101700000CD202F1310200F10101C9B209F8002046
:1017100001F10100C2B209F8014024E0A2F109017F
:101720005A2916D202F101024FF00A0BB2FBFBF369
:1017300003F1300C00F10101C9B209F800C00BFB44
:10174000132000F1300001F10102D2B209F80100CA
:1017500009E000F10101C9B209F8004001F10100FE
:10176000C2B209F8014002F10100C0B209F802401A
:101770009DF80410BAF83C20914249D19DF805101B
:101780009AF83820914243D19DF806109AF82C20FF
:1017900091423DD100F10101C9B209F8005001F1B7
:1017A0000100C0B209F801704FF03A0200F10101E6
:1017B000C9B209F8002001F10100C0B209F80150D6
:1017C00000F10101C9B209F8006001F10100C0B2E5
:1017D00009F8012000F10101C9B209F8005009F827
:1017E00001809DF800004FF000024FF02101FEF74C
:1017F00053FF9DF8010000224021FEF74DFF00221B
:101800009DF80200232100E06FE0FEF745FF04E7AA
:1018100000F10101C9B209F8004001F10100C0B2B4
:1018200009F8015000F10101C9B209F8007001F195
:101830000100C0B209F8016000F10101C9B209F864
:10184000004001F10100C0B209F8014000F10101BE
:10185000C9B209F8005009F801809DF806004FF060
:1018600000024FF02101FEF717FF9DF8040000224F
:101870002321FEF711FF9DF80500401E0C2803D31D
:101880004FF001008DF805009DF805100348002277
:1018900000EB81004021FEF7E9FEBEE630230400A4
:1018A000A1F109025A2A16D201F101014FF00A06EC
:1018B000B1FBF6F303F1300500F10102D2B209F8F1
:1018C000005006FB131101F1300102F10100C0B21A
:1018D00009F8021009E000F10101C9B209F800405D
:1018E00001F10100C0B209F8014009F8004094E696
:1018F000F0B50446084616461F46FEF713FD02469D
:101900001046FF4DFF2806D108E0295404F10104D8
:1019100000F10100C0B221780029F6D1F948007821
:10192000002806D0002F04D002EB06014FF05F0024
:101930006854F0BD2DE9F04F0746DDE909058846FA
:1019400091469A46FEF7EEFCEE4B2021EC4C0A2223
:101950004FF0640C012D09D11E783EB104EB000656
:10196000A6F10E06B1707170317017E097FBF2FBB3
:1019700002FB1B7E04EB00060EF1300E06F80CECA9
:101980009BFBF2FE02FB1EBB0BF1300B06F80DBCFD
:1019900097FBFCF707F1300706F80E7C022D09D102
:1019A0001E783EB104EB0006A6F10A06B170717014
:1019B000317017E098FBF2F702FB178B04EB00067F
:1019C000A6F10A060BF1300B86F802B097FBF2FB8A
:1019D00002FB1B7707F13007777098FBFCF707F1E4
:1019E00030073770032D09D11E783EB104EB000695
:1019F000A6F10606B1707170317017E099FBF2F72D
:101A000002FB179804EB0006A6F1060608F1300861
:101A100086F8028097FBF2F802FB187707F130078F
:101A2000777099FBFCF707F130073770042D09D167
:101A30001B783BB121542044A0F102004170017099
:101A4000BDE8F08F9AFBF2F102FB11A303F1300322
:101A5000235491FBF2F302FB13112044A0F1020086
:101A600001F1300141709AFBFCF101F1300101708C
:101A7000E6E717B501EB810002EB8000C2B29DF8EA
:101A80000030A14803F00F01445C9D498C54A2F141
:101A90000102D2B200EB13131B788B54A2F10102A6
:101AA000D2B29DF8013003F00F04045D8C54A2F112
:101AB0000102D2B200EB13131B788B54A2F1010286
:101AC000D2B29DF8023003F00F04045D8C54A2F1F1
:101AD0000102D2B200EB13131B788B54A2F1010266
:101AE000D3B29DF8032002F00F04045DCC54A3F19F
:101AF0000103DBB200EB12100078C8541EBD30B5F4
:101B0000824901247E4B91F9012091F904108A4207
:101B100004D100EB800003F8204030BD4D1CAA42E8
:101B200006D100F1010000EB800003F8204030BD39
:101B30008D1CAA4206D100F1020000EB800003F8E0
:101B4000204030BDCD1CAA4206D100F1030000EBBD
:101B5000800003F8204030BD0D1DAA4206D100F1DF
:101B6000040000EB800003F8204030BD4D1DAA4268
:101B700006D100F1050000EB800003F8204030BDE5
:101B80008D1DAA4206D100F1060000EB800003F88B
:101B9000204030BDC91D8A42FBD100F1070000EB97
:101BA000800003F8204030BD594B1A88A2F1010291
:101BB000104400B21880574A00EB8000024453489A
:101BC00013680360127902714278114441707047C2
:101BD00070B54F4DB5F9004004F101062E804D4D12
:101BE00004EB84042544494C26682E6026792E7126
:101BF000207061702271A37070BD2DE9F0418046A4
:101C00000F461646FEF782FB3D4C4FF0000518F8D4
:101C1000010B04F8010B05F10105EDB2142DF6D30B
:101C20004FF0000017F8011B04F8011B00F1010040
:101C3000C0B21428F6D34FF0000016F8011B04F8C8
:101C4000011B00F10100C0B21428F6D34FF00000D0
:101C500013F8011B04F8011B00F10100C0B21428A5
:101C6000F6D3BDE8F08110B5029CFFF7C6FF274808
:101C7000C37882784178A320FFF7AAFF642094FB01
:101C8000F0F0BDE81040C0B2FEF7E5BA2DE9FE4322
:101C90000D464FEA401000F58060044602A9204638
:101CA00038F0DCFD01A904F1080038F0D7FD6946E1
:101CB00004F10C0038F0D2FD2846FEF733FB104C3F
:101CC0004FF0200600F10101C9B226544FF0300751
:101CD00001F10100C0B267544FF0210800F1010189
:101CE000C9B204F800804FF0400901F10100C0B210
:101CF00004F8019000F10101C9B226540CE0000083
:101D000032030010EB000010BA230400B8020010E8
:101D100016010010C85F001001F10100C0B2665446
:101D200000F10101C9B227544FF0230201F1010073
:101D3000C5B262549DF806004FF000024FF0210139
:101D4000FEF7AAFC9DF8040000222321FEF7A4FC64
:101D50009DF80500401E0C2803D34FF001008DF8BC
:101D600005009DF805001A49002201EB8000402182
:101D7000FEF77CFC05F10100C0B2665500F10101DF
:101D8000C9B2275401F10100C0B204F801804FF03C
:101D90003A0200F10101C9B2225401F10100C0B2BE
:101DA000675400F10101CDB204F800909DF80000E5
:101DB0004FF000024FF02101FEF76EFC9DF801008C
:101DC00000224021FEF768FC6655BDE8FE83000056
:101DD000302304002DE9FC410646FC4D4FF000077E
:101DE0002F76287D4FF0010302280FD006EB460125
:101DF00001EB0612F64901EB820494F83D10CA0784
:101E000006D04FF066002876BDE8FC812B76FBE714
:101E100094F83F20920703D54FF067002876F3E748
:101E2000890703D54FF068002876EDE7E94AB4F951
:101E30000810B2F90020914203DD4FF069002876C6
:101E4000E2E75242914203DA4FF06A002876DBE77C
:101E5000DE490128497D00D111B1012804D005E0F7
:101E60004FF06B002876CFE701297ED04FF0640059
:101E700028762B75A5F85C3019464FF4F87038F0C9
:101E800064FD6E75A5F85E6031464FF4FA7038F067
:101E90005CFDA761D048002130F9160038F055FDEF
:101EA000AF75A5F8607039464FF4FB7038F04DFD02
:101EB000CA48008800F1010000F0070004EB400070
:101EC000008C0190C64DA88B00904FF063024FF03C
:101ED00001016846FEF7DFF9BC4C9DF80000A43410
:101EE0002070287E00900C2201216846FEF7D3F96D
:101EF0009DF800006070287B00901F220121684639
:101F0000FEF7C9F99DF80000A0709DF80400E0708C
:101F10004FF4FC70216838F059FD287A00901722A0
:101F200000216846FEF7B7F99DF800002071287976
:101F300000903B2200216846FEF7ADF99DF80000B5
:101F40006071287800903B2200216846FEF7A3F9D3
:101F50009DF80000A0719DF80500E0714FF4FE703F
:101F6000616838F033FD4FE7FFE74FF06C002876EB
:101F70004AE72DE9F047954C207D01287DD1214687
:101F80000126497DA07DC1F1010206FA02F1924FBE
:101F90008F4D0AB210B1012834D038E01423CA2181
:101FA000C820FEF7ECF814234FF0FF32CE21CD20ED
:101FB000FEF7E5F8607D00EB400101EB001005EB5A
:101FC0008000B0F90800FEF79BF9617D01EB41024A
:101FD00002EB011205EB820293691844906148F606
:101FE000A043984213DBA0EB0300906137F8110087
:101FF00038F0ADFB401C01B2607D37F9100038F0BD
:10200000A4FC04E01423CA21C820FEF7B8F8617DBF
:102010004FF4F87901EB410000EB011005EB800073
:102020004FF00008B0F902206E48B0F9000000EB54
:102030008000B2EB400F47DAB4F8580000F101001D
:1020400000B2A4F858001E2840DB207D012822D1D0
:10205000A07D00BB37F8110038F079FB01B262486F
:10206000627D30F9120038F070FC607D37F81000A6
:1020700038F06DFB81B2607D00E049E005F046FD7F
:102080005A48617D30F91100002138F05EFC4FF0B4
:10209000320020846084607D5549C0F10100085CF5
:1020A000552808D084F81480A4F85C8000214846A4
:1020B00038F04BFC0AE0A675A4F8606001214FF4EB
:1020C000FB7038F042FC01E0A4F85880617D01EB20
:1020D000410000EB011005EB8000B0F90220C1F1D6
:1020E000010000EB400101EB001005EB8000B0F9AE
:1020F000020082420CDBA07D012809D184F8148003
:10210000A4F85C804846BDE8F047002138F01DBCCB
:10211000BDE8F08770B505464FF000062B4C207DDA
:1021200038BB34480088012823D004F11E044FF046
:10213000020104F80A1CE1874FF4F87038F005FC3E
:10214000E586C5EB05104FEA80010D46A1874FF4E7
:10215000F97038F0FAFB29464FF4FF7038F0F5FBC0
:102160003046208760864FF001064FF0010005F0F1
:1021700062FD304670BD10B5144C207D022813D18D
:1021800004F11E04E08E05F056FD4FF0000060865D
:10219000E086208704F80A0CE0870146BDE810407D
:1021A0004FF4F87038F0D1BB10BD70B50C4C203C2A
:1021B00094F83800104D297808440C281ED9A08FB7
:1021C000401C01B2B82038F0C0FB1CE00000001039
:1021D0009CE907203A010010A21C040084040010AE
:1021E0002040024034010010BE1C04009E1C04006C
:1021F000B4010010B8040010F4000010B4F93C1051
:10220000B82038F0A2FB94F83810287801440C2943
:1022100007D994F838100C380144B62038F095FBF3
:1022200005E094F838100144B62038F08EFB94F89D
:102230002C001C2804D91C21B42038F086FB04E0B3
:1022400094F82C10B42038F080FB04F12004217A9B
:102250004FF0AE0038F079FB2179B02038F075FBF3
:102260002178BDE87040B22038F06FBB10B5FE4851
:10227000FE4C007830B3FE48828FFE4909888A42BE
:1022800020D190F83820FC4909888A421AD190F868
:102290002C10FA4A1288914214D190F82810F84A6A
:1022A000128891420ED190F82410F64A1288914279
:1022B00008D190F82000F4490988884202D14FF0F3
:1022C0000100E075E07D00280CD0F0480088C0B225
:1022D000FFF720FF002805D04FF00000E075BDE8B3
:1022E000104062E710BD70B5E04C207D022847D158
:1022F000B4F852004FF461610025884215D200F114
:10230000010080B2A4F8520088420ED3A4F85250C3
:10231000B4F8540048B1A0F1010024F8540F6088CB
:1023200000F101006080A4F15404B4F850003C288E
:1023300026D200F1010080B2A4F850003C281FD33F
:1023400024F8505F6089A0F1010001B261814FF46F
:10235000F97038F0FAFA6089A4F1500418B1CC4849
:10236000008801280CD12575A4F85C5000214FF499
:10237000F87038F0EAFABDE87040002005F05BBC68
:1023800070BDC4486FF03B010088C0EB001001EB4A
:102390008000B649A1F8400070472DE9F05FDFF8F2
:1023A000CC82DFF8F4A20025B8F84000BB4E401CF8
:1023B00001B2B848A8F84010DFF8E492B0F9000084
:1023C0000A27C0EB00124FF0010B08F14604B1EBF5
:1023D000820F61DBF0B3A8F840502570657088F873
:1023E0000E50B0480078552811D1B6F90200502897
:1023F0000DDDB6F90800FDF783FFB9F9001088423A
:1024000003DB96F83D00C00701D084F800B0A54872
:102410004078552811D1B6F94E0050280DDDB6F997
:102420005400FDF76DFFB9F90010884203DB96F800
:102430008900C00701D084F801B09B48007880B9BA
:10244000BAF90000FDF75CFFB9F90010884206DB1D
:10245000964800E020E090F83D00C00701D088F8E1
:102460000EB09348007838B998F80F0020B198F86A
:10247000140028B1022803D02570657088F80E502A
:102480002078012820D0607801281DD098F80E000F
:10249000012819D0A8F842504146B8F94200DFF8A7
:1024A000CC81002808F168087ED0A0F1010000B2BC
:1024B0008B46A1F84200052809DD0F231E22642166
:1024C000E120FDF75CFE0AE0A8F84270E4E700288E
:1024D00005DD0F231E226921E120FDF750FEBBF828
:1024E0004200052811D1B6F90800FDF709FFA8F848
:1024F0000000B6F95400FDF703FFA8F80200BAF98E
:102500000000FDF7FDFEABF848005848B0F8420067
:10251000002858D1B6F90800FDF7F2FEDFF84CB1FB
:102520000BF16C0BABF80000B6F95400FDF7E8FEB8
:10253000ABF80200BAF90000FDF7E2FEDFF82CA1CB
:10254000AAF84A00AAF84450B8F90000BBF90010F4
:102550000844B9F90010884202DA2078012834D002
:10256000B6F90200C82804DD25700021084605F0F0
:1025700019F8B8F90200BBF902100844B9F90010C3
:10258000884202DA6078012822D0B6F94E00C828C5
:1025900004DD65700021012005F004F8BAF9480057
:1025A000BAF94A10084400E01BE0B9F9001088426B
:1025B00009DA9AF80E00012805D13E480088012862
:1025C00009D0AAF84470BDE8F09FAAF84470D0E79B
:1025D000AAF84470E2E7012004F0E4FD8AF80E5006
:1025E000F1E7B1F94400F0B3A0F1010000B20F46E9
:1025F000A1F84400052806DD0F23C8226421E1204C
:10260000FDF7BDFD07E0002805DD0F23C822692185
:10261000E120FDF7B4FDB7F84400052811D1B6F963
:102620000800FDF76DFEA8F80000B6F95400FDF7AC
:1026300067FEA8F80200BAF90000FDF761FEA7F8EE
:1026400048000A48B0F844000028BCD1B6F9080098
:10265000FDF756FE054F6C373880B6F95400FDF78C
:102660004FFE788028E07CE0F400001000000010AD
:1026700000400240C2010010C0010010BE01001065
:10268000B8010010BA010010BC010010C401001014
:10269000B80400104A0100101A0200109CE907203B
:1026A0003A010010B40100106104001034EA072060
:1026B000FB000010AE010010BAF90000FDF720FE8B
:1026C000A7F16C0AAAF84A008AF80D50B8F9000080
:1026D000B7F900100844B9F90010884202DA2078EE
:1026E000012832D0B6F90200C82804DD2570002187
:1026F000084604F057FFB8F90200B7F90210084481
:10270000B9F90010884202DA6078012820D0B6F9C1
:102710004E00C82804DD65700021012004F042FF4E
:10272000BAF94800BAF94A100844B9F900108842C9
:10273000BFF656AF9AF80E00012886D1F9480088F6
:10274000022808D08AF80DB03DE78AF80DB0D2E72C
:102750008AF80DB0E4E7012004F024FD8AF80E5059
:1027600031E7487B88460028EED00F2300226E21F7
:10277000E120FDF704FDB6F90800FDF7C1FDB9F948
:102780000010884207DD2078012804D1257000213F
:10279000084604F007FFB6F95400FDF7B1FDB9F99A
:1027A0000010884206DD6078012803D165700021A1
:1027B00004F0F8FEBAF90000FDF7A2FDB9F9001027
:1027C000884208DD98F80E00012804D188F80E50E0
:1027D000002004F0E7FC207830B9607820B998F840
:1027E0000E0008B988F80D50E620FDF7E2FC18B19C
:1027F000CD480068E7280AD0CC48CD49B0F90000A0
:10280000B1F9001000EB8000B1EB400F9CDA88F8C2
:102810000D502078C74D01280FD1B9F90000B5F946
:102820000010400090FBF7F0884206DA96F83D0071
:10283000C00702D1012104F0B5FE6078012810D153
:10284000B9F90000B5F90010400090FBF7F088429C
:1028500007DA96F88900C00703D10121084604F081
:10286000A1FE98F80E0001287FF4BAAEB9F9000075
:10287000B5F90010400090FBF7F08842C6DAAE4888
:1028800090F83D00C007EFD1BDE8F05F012004F0F3
:1028900089BC2DE9F047A94CE08F401C00B2E087CD
:1028A000B0F5E16F02DB4FF00000E087B4F93E00C5
:1028B000B0F5DF6F11D90F2301226421D220FDF77B
:1028C0005EFC0F230022D821D720FDF758FC0F23F0
:1028D0000022D821DC20FDF752FCB4F93E00A0F51F
:1028E000E061073933D1964D964C974E2888218860
:1028F0000A27DFF85882DFF85892884210D0B6F9DC
:10290000080090FBF7F000B2FDF7FAFCB8F90010F0
:10291000884205DAB4F90010B9F9000038F015F86A
:1029200068886188884212D0B6F9080090FBF7F0F9
:1029300000B2FDF7E5FCB8F90010884207DAB4F9F7
:102940000210B9F90200BDE8F04737F0FEBFBDE85C
:10295000F08710B57F4C208800F1010020804FF0F7
:1029600008024FF000012046FDF7ABFC7649B4F9B0
:10297000000001EB40004A880284B1F84E10A0F834
:102980006C1010BD70B5744D7448754AB5F90010DF
:10299000B0F9003092F9000099421FDA714C0A2810
:1029A0000FDA714BB3F900300F2B0ADD00F1010093
:1029B00040B210700A2809DB2180012003F0B1FE2B
:1029C00004E00A2802DB4FF00A001070B5F900009D
:1029D000B4F90010884200DA208070BDFDDD0028C7
:1029E000FBD0A0F1010040B210700028F5DCBDE87A
:1029F0007040002003F095BE2DE9FE4F5B485E4914
:102A00005B4A90F8F4035D4B0290B1F900B0DFF837
:102A100064C1B2F900A0B3F90010594D594C474FA9
:102A200045F211664FF4FA780191072836D03946FD
:102A3000564B0A8D4E49DFF8409141F2707AB1F958
:102A40000010B9F900904A43B3F90610B3F91430F5
:102A500001FB09F1DFF8249191FBFAF1B9F900903B
:102A6000494803FB09F393FBFAF3008809B21BB250
:102A7000B04255D14FF47A6092FBF0F000B2ACF85E
:102A8000000029802380344A1080814200DA1180BE
:102A9000B2F90000834200DA1380B6E03C48274BCD
:102AA0000178427803F1900301EB02211FFA81F9CA
:102AB000A3F800908178C27801EB02218AB25A8093
:102AC000017990F805E001EB0E2189B2998001FBB4
:102AD0000AF141F2707391FBF3F10FFA81FAACF84D
:102AE00000A002FB0BF292FBF3F109B22980019ADC
:102AF00009FB02F999FBF3F212B222808379C079C3
:102B000003EB0020234B18801348A0F800A0514588
:102B100000DA0180B0F900108A4276DA028074E0AF
:102B20003AE00000AE010010AC00001034010010CB
:102B30001C0200101E02001034EA072000000010E2
:102B400034C00720AEC007209CE9072042010010D6
:102B5000CA1C040084040010280200103601001072
:102B600088040010860400101401001024EC0720D3
:102B700044C007202A0200107204001046C007203B
:102B80002C0200102E020010B6010010185F001079
:102B90001EF0072036020010A0F5AC49B9F12F094C
:102BA00008D019F1280905D0B9F1140902D019F19A
:102BB000190913D149F6404092FBF0F000B2ACF88D
:102BC000000029802380F94A1080814200DA1180B8
:102BD000B2F90000834218DA138016E0F449A0F538
:102BE000AA43B1F90020F349098D5143FA3B01D0C2
:102BF0005A1E06D148F6B80091FBF0F0EB49088068
:102C000003E091FBF8F0E94908800298072803D017
:102C1000E9480188E9480180DFF8A4A3BAF9001067
:102C2000E84BB3F9000048434FF4FA6590FBF5F028
:102C3000E54C6080BAF90810E44AB2F9000000FBE4
:102C400001F04FF42F7190FBF1F0A080BAF918C099
:102C5000B3F9020000FB0CF090FBF5F0A4F84E0075
:102C6000BAF90230B2F9020000FB03F090FBF1F078
:102C7000A4F850004FF0DC00FDF7C0FA45F21369EC
:102C8000F0BBDFF84CC3BCF80000DFF848B3BBF87A
:102C90000010A0EB0100D04AB2F9001001FB00F1D6
:102CA000CE4845F638630088984204D0A0F5BC4E63
:102CB000BEF1920E04D14FF4967E91FBFEF10FE02F
:102CC000A0F5A84EBEF5FD7E03D0484501D0B04228
:102CD00002D191FBF5F103E04FF47A7E91FBFEF116
:102CE0002181BCF80210BBF802C0A1EB0C0CB2F9B8
:102CF000021001FB0CF1984205D0A0F5BC4200E0A7
:102D000017E0923A04D14FF4967091FBF0F00EE088
:102D1000A0F5AA42FA3A03D0484501D0B04202D108
:102D200091FBF5F003E04FF47A7091FBF0F0A4F81A
:102D30005400BAF90C00D6468446A0F2213040F681
:102D4000B73100234FF0010A0090884201D223736B
:102D500001E084F80CA0A248B0F9002002FB0CF2BC
:102D600044F6206092FBF0F2A2F211126281BEF9E9
:102D70000E2040F6B731A2F2213B8B4502D284F8F7
:102D8000583001E084F858A09549B1F90210514338
:102D900044F6206091FBF0F0A0F211108A49A1F8EE
:102DA0005600BEF904108F48B0F9000001FB00F096
:102DB0004FF4FA6290FBF2F08B4C2080BEF90220B7
:102DC0008A48B0F9000002FB00F2844845F2FA5547
:102DD0000088A84204D14FF4C87592FBF5F201E0D7
:102DE00092FBF8F20FFA82FB814AA2F800B0A4F835
:102DF00000B0804AB2F9002001FB02F104D14FF487
:102E0000C87291FBF2F101E091FBF8F17A4D09B241
:102E10002980642918DA4FF00001784ADFF8E0E1F0
:102E2000B2F900800EE0C1EBC10202EB01120EEB21
:102E30008202B5F90040126AA24200DD2A8001F147
:102E40000101C9B24145EEDB4FF0000529466B4A4E
:102E50006B4CB2F900200BE0C1EBC10808EB011884
:102E600004EB8808D8F82480454401F10101C9B277
:102E70009142F1DB63490D805149DFF88C81B1F952
:102E80000A5040F6B731A5F2213E8E4502D288F8AD
:102E9000003001E088F800A05C49B1F900104D4312
:102EA00044F6206E95FBFEF5A5F21115DFF860E102
:102EB000AEF80050009D40F6B73E754502D288F846
:102EC000003001E088F800A001FB0CF144F6206519
:102ED00091FBF5F1A1F211114D4D298094F8E0120A
:102EE000DFF830C109293DD194F8E61294F8E75291
:102EF000DFF824E101EB0521CEF8001094F8E85248
:102F000094F8E9A205EB0A25CEF8045094F8EAA259
:102F100094F8EBE20AEB0E2ADFF800E10FFA8AFAE6
:102F2000AEF800A0BAF1000F1CD1A1EB05052A49AB
:102F3000B1F9001001FB05F1A0F5AA45FA3D0BD04F
:102F40006D1E09D0484507D0B04205D0343D03D0AE
:102F5000283501D0143D03D14FF4FA6591FBF5F10A
:102F6000ACF80010184DA5F802B0A0F5AC4102393C
:102F700003D12889ACF8000002E0BCF800002881E9
:102F8000274E3188DFF89C90B9F9000048434FF490
:102F90007A6A90FBFAF0244980B20880DFF88CE06E
:102FA000642845D2AEF8000046E000002802001078
:102FB0003CC0072000000010300200103602001054
:102FC000185F001030C007209CE907206204001041
:102FD000AEC0072034C0072066040010B601001000
:102FE00038C00720700400101C0200105E0400109E
:102FF0002202001074040010200200108001001052
:1030000024EC072024020010730200103EC00720A9
:10301000F20200101A02001080C007204A020010BD
:10302000960400106A040010F8020010400200101C
:10303000FC480088AEF800007688B9F902007043B9
:1030400090FBFAF04880F849B1F90000F74EB6F964
:10305000009009FB00F941F2707099FBF0FADFF87B
:10306000D093A9F800A0B1F902E0B6F902A00AFBDA
:103070000EFA9AFBF0FAA9F802A0B1F904A0B6F989
:10308000046006FB0AF696FBF0F6A9F80460B1F9B5
:1030900006A0DFF8A093B9F9006006FB0AF696FBDC
:1030A000F0FAE54EA6F800A0B1F908E0B9F902A0DF
:1030B0000AFB0EFA9AFBF0FAA6F802A0B1F90AA0F0
:1030C000B9F9041001FB0AF191FBF0F0B080DB4884
:1030D000DB4E418801F211110FFA81F9A6F8009038
:1030E000808800F211100FFA80FAA6F802A098F872
:1030F0000110317298F802007072D24E01B910B10D
:1031000001290AD00AE009EB0A0000EBD0706FF445
:10311000887101EB600030801EE008B129B106E043
:10312000AAF2111AA6F800A016E0012802D001297F
:1031300005D011E0A9F21119A6F800900CE00128C1
:103140000AD1C1480078052803D2C04800883080E1
:1031500002E04FF014003080BD480178552904D1B9
:10316000BBF1C80F01DD29893987407855280AD17C
:10317000B5F94E00C82806DDB5F95400B5F90810B8
:10318000884200DD3887BCF8000038874FF0000126
:103190002FE0C1EBC10000EB011004EB8000C6780A
:1031A000192E1CD28679C77906EB07264662067A65
:1031B000477A06EB07260662867AC77A06EB072669
:1031C000C661067B8662467B80F85260867B80F80B
:1031D0004260067C477C06EB0726C66406E0C361B6
:1031E00043620362836280F84230C36401F10101EB
:1031F000C9B29142CDDB974EB5F908104FF00A00E5
:1032000091FBF0F1B5F9545095FBF0F00844C0F192
:10321000000007B23780904D2B804FF0000012E085
:10322000C0EBC00101EB001104EB810191F803C078
:10323000BCF1050F04D2496AB5F800C06144298089
:1032400000F10100C0B29042EADB2888384400B2A5
:103250003080002800DA338033802B804FF000006C
:103260000FE0C0EBC00101EB001104EB8101CF784E
:10327000052F03D2496A2F883944298000F10100C3
:10328000C0B29042EDDB298803EB010000B2308030
:10329000002800DA33807148B0F90050002D66D064
:1032A0004FF000026E4E60E002F11400C0EBC0016E
:1032B00001EB001004EB8000C178192939D2817923
:1032C000C77901EB072702EB420106EB4111CF6101
:1032D000077A90F809C007EB0C27CF62877A90F83D
:1032E0000BC007EB0C278F61077B0F62477B81F8D0
:1032F0004670877B90F80FC007EB0C278F62077C26
:1033000090F811C007EB0C274F628B70877C81F817
:103310005970C77C81F85A70077D81F85870477DD5
:1033200081F85B70877D81F85C70C07D81F85D00FD
:1033300018E002EB420006EB4010C361C3628361F8
:10334000036280F84630436283624FF01901817056
:1033500080F8593080F85A3080F8583080F85B3067
:1033600080F85C3002F10102D2B2AA429CDBBDE8D7
:10337000FE8F3C4A3C491078042801D0012805D131
:10338000507818B939480078552803D03848008853
:103390000870704708780028FBD0A0F10100087081
:1033A00070473448416821F4402141F48021416054
:1033B000416821F4403141F480314160416821F499
:1033C000404141F480414160416C21F4402141F48D
:1033D00000214164416C21F4403141F400314164E9
:1033E000416C21F4404141F40041416422480168AC
:1033F00021F0E0610160016841F4001101600168A1
:1034000021F480310160016821F47F4141F4807131
:1034100001604FF48071C16018484FF48001016071
:103420007047000028020010CA02082070C0072060
:10343000FE0200109C04001004030010F2020010B1
:103440006C02082038020010090100106EC007202D
:10345000B40100101E020010900400108201001040
:1034600090F60720B8020010CA000010F500001006
:10347000C601001000C002400040034000E100E02F
:103480002DE9F041FF4C60882188401A00B204F019
:1034900016FDA61D3080A0886188401A00B204F095
:1034A0000EFD7080A0882188401A00B204F007FD4C
:1034B000B0804FF49671A4F19605884202DAA08894
:1034C00068850CE0B6F90200884202DA60886885F7
:1034D00005E0B6F90000884201DA20886885EF78B7
:1034E00000262FB3E848B5F92A1002680A440260A2
:1034F00042680A44426082680A448260C268114499
:10350000C160698E01F1010109B26986B1F5805F80
:1035100000DB6E86B5F932108A0531D14FEAA12160
:1035200050F821204FEA22222A8540F8216027E026
:10353000D6482C796A7900EB8413B5F92A1043F840
:10354000221090070FD1014653F820C0614400F1CA
:103550000100C0B21028F7D34FEA2110CA49A1F1E7
:10356000200121F81400641CE0B22871102807D350
:103570002E7102F10102D0B26871102800D36E7171
:10358000AE7007F1010707F00100E870C04A30B1E2
:10359000106820F0FF0000F1040010603DE0297980
:1035A000080706D4106820F0FF0000F10100106049
:1035B00005E0106820F0FF0000F102001060B5483F
:1035C000036843F080530360036A43F0804303625F
:1035D000036E43F080630366CB070AD0436943F070
:1035E000805343618B0709D4436B23F080434363CB
:1035F00008E0436923F080534361F3E7436B43F0F2
:1036000080434363490704D4416F21F080614167DF
:1036100003E0416F41F080614167106840F08070C5
:103620001060BDE8F081F0B5964C963CB4F92400EA
:1036300018B1A0F10100A08490E04FF000052573BF
:1036400028469649944BB1F9002012E0C0EBC00126
:1036500001EB001103EB81018E78012E06D1C978B0
:10366000142903D2217B01F10101217300F1010032
:10367000C0B29042EADB267B022E6FD341F2883043
:1036800060672567A5674FF0000117E0C1EBC10037
:1036900000EB011003EB80008778012F0BD1406A0B
:1036A000276FB84200DD2067676FB84200DA6067B5
:1036B000A76F3844A06701F10101C9B29142E5DB6F
:1036C000A06F90FBF6F6E667606F012100B96167B5
:1036D0006C4F206F163F4FF0640C00FB0CF0D4F8D9
:1036E00074C090FBFCF03860A02800DDE1727828FF
:1036F00000DAE572E07A012830D14FF000016FF076
:10370000310429E0C1EBC10000EB011003EB8000A4
:103710008578012D1DD1456AB54205DDB0F85050C0
:10372000A5F10105A0F8505005DAB0F8505005F1A8
:103730000105A0F85050B0F95050A54201DAA0F8A8
:103740005040B0F95050322D03DD4FF03205A0F853
:10375000505001F10101C9B29142D3DB00BFF0BD6D
:103760002DE9F0414E4801684E4A01EA020101602C
:10377000484C216841F47C712160C16921F44021E9
:10378000C161216E41F000712166416821F0406104
:103790004160206840F0005020604448424D454957
:1037A0000278434895F83C30B1F900100078134393
:1037B00007D030B1052904DDA36943F48073A36108
:1037C00003E0E36943F48073E36195F888301343C1
:1037D00007D030B1052904DDA06940F04000A061A8
:1037E00003E0E06940F04000E061D220FCF706FD14
:1037F000314D10B12868642870D0E06940F0005065
:10380000E061D220FCF7FAFC2C4E10B12868662843
:1038100075D03068C00771D0A06F40F00070A0670D
:103820002748284F0088A0F5AA41FA3901D0491E3F
:1038300071D1D220FCF7E2FC10B12868662871D063
:10384000D220FCF7DBFC10B12868722879D0A06F79
:1038500040F00070A067D220FCF7D0FC10B12868BF
:103860006A2874D03068384270D0A06940F0800077
:10387000A061D220FCF7C2FC10B1286867287AD07A
:10388000114824E096000010385F0010185B00100B
:103890000040034000C0092024EC072080010010F4
:1038A00000C00240FF00F0FF9CE907206004001008
:1038B000CF00001014010010AC00001018C0072049
:1038C000B6010010F80700100E01001006E00078A5
:1038D00080B3E06940F01000E061D9E16868012838
:1038E00006D000288DD1E06940F00050E06188E703
:1038F000A06940F00050A06183E700E00DE0686837
:1039000020B1A06F40F00070A06789E7E06F40F041
:103910000070E06784E742E004E0E06F40F0007090
:10392000E0677DE7686838B1A06F40F00070A0677D
:1039300091E706E02EE00AE0E06F40F00070E067FB
:1039400089E7E06F40F00070E06784E70EE06868A8
:1039500038B101288DD1A06940F08000A06188E7CE
:1039600009E0E06940F08000E06182E7E06940F052
:103970008000E0617DE7686810B1012805D087E12B
:10398000E06940F01000E06182E1A06940F01000C1
:10399000A0617DE1A06940F01000A06178E1DFF84E
:1039A000F886A0F5AC41073962D1D220FCF726FC9D
:1039B00010B12868672823D098F8000070B3A06978
:1039C00040F01000A061D220FCF718FC10B128686C
:1039D000662828D03068C00731D0A06F40F0007052
:1039E000A067D220FCF70AFC10B128686A282BD007
:1039F0003068384237D0A06940F08000A06147E1CC
:103A0000686830B10128DED1A06940F01000A061E3
:103A1000D9E7E06940F01000E061D4E7E06940F0E8
:103A20001000E061CFE7686820B1E06940F0007005
:103A3000E061D6E7A06940F00070A061D1E7A06B1B
:103A400040F00070A063CCE7686810B1012805D091
:103A50001EE1E06940F08000E06119E1A06940F0FA
:103A60008000A06114E1E06940F08000E0610FE1B6
:103A7000A0F5AC411B3970D1D220FCF7BFFB10B1CF
:103A80002868672831D098F80000B8B3A06940F0E2
:103A90001000A061D220FCF7B1FB10B128686628A5
:103AA00037D03068C00740D0A06F40F00070A067EA
:103AB000D220FCF7A3FB10B128686A283AD03068FE
:103AC000384245D0A06940F08000A061D220FCF7C8
:103AD00095FB10B128686A2840D0306838424CD035
:103AE000A06940F02000A061D2E0686838B10128E8
:103AF000D0D1A06940F01000A061CBE704E0E069FC
:103B000040F01000E061C5E7E06940F01000E061BE
:103B1000C0E7686820B1E06940F00070E061C7E785
:103B2000A06940F00070A061C2E7A06B40F0007097
:103B3000A063BDE7686830B10128C7D1A06940F033
:103B40008000A061C2E7E06940F08000E061BDE76D
:103B5000E06940F08000E061B8E713E0686810B108
:103B6000012805D094E0E06940F02000E0618FE09A
:103B7000A06940F02000A0618AE0E06940F02000E8
:103B8000E06185E0A0F5AC41113901D00F3163D17E
:103B9000D220FCF733FB10B12868662823D03068A8
:103BA000C0072CD0A06F40F00070A067D220FCF7B7
:103BB00025FB10B128686A2826D03068384231D0F9
:103BC000A06940F08000A061D220FCF717FB10B183
:103BD000286867282BD098F8000090B3A06940F0BF
:103BE0001000A06154E0686820B1A06F40F0007040
:103BF000A067DBE7E06F40F00070E067D6E7E06FBA
:103C000040F00070E067D1E7686830B10128DBD18F
:103C1000A06940F08000A061D6E7E06940F0800034
:103C2000E061D1E7E06940F08000E061CCE76868DE
:103C300010B1012806D02BE0E06940F01000E061EF
:103C400026E004E0A06940F01000A06120E0E069F7
:103C500040F01000E0611BE0D220FCF7CFFA10B179
:103C6000286866282DD03068C00736D0A06F40F095
:103C70000070A067D220FCF7C1FA10B128686A284A
:103C800030D0306838423BD0A06940F02000A061BD
:103C9000D220FCF7B3FA10B12868712836D0FF485B
:103CA000B0F9000088B301280AD1D220FCF7A6FAA7
:103CB00010B1286872284BD0A06940F40070A06150
:103CC000AFE4686820B1E06940F00070E061D1E7DE
:103CD000A06940F00070A061CCE7A06B40F00070DC
:103CE000A063C7E7686830B10128D1D1A06940F06E
:103CF0002000A061CCE7E06940F02000E061C7E768
:103D0000E06940F02000E061C2E70DE0686830B192
:103D10000128D5D1A06940F40070A06181E4E06978
:103D200040F40070E0617CE4DD48008830B9DD4893
:103D3000007D022802D0DC48007820B1A06940F460
:103D40000070A0616DE4E06940F40070E06168E437
:103D5000E06940F40070E06163E42DE9F05FD14E6A
:103D600000274FF0010AB07C0A2808D200F10100B8
:103D7000C0B2B0740A2802D3B77486F813A0A6F8AC
:103D80004C70A6F84E70CD20FCF738FADFF81C8393
:103D9000DFF81CB3A0B3C74A4FF6FF731068CE28F4
:103DA00001D1A6F84E30CF2802D15168A6F84E10A6
:103DB000D12802D15168A6F84C10D22801D1A6F81A
:103DC0004C30D02806D15068A6F84C006FEA0000AD
:103DD000A6F84E004FF0000437E0B6F84E000AFA9D
:103DE00004F919EA000F0CD0C4EBC40000EB041076
:103DF00008EB800030F8401F01F10101018008E06C
:103E000028E0C4EBC40000EB041008EB8000A0F82D
:103E10004070C4EBC40000EB041008EB800505F112
:103E2000400032220021FCF741FAB5F94000142885
:103E300001DD85F82CA0B6F84C0019EA000F01D07E
:103E400085F82C7004F10104E4B2BBF9000084424F
:103E5000C3DD8AE0F07CF0B34FF000042146BBF9EB
:103E600000000AE0C1EBC10202EB011208EB820282
:103E700082F82CA001F10101C9B28142F2DD4FF0BC
:103E8000000122E0C2B2202A01D94FF02002737E45
:103E9000834201DB4FF000030B44DBB2B3FBF2F5CE
:103EA00002FB1532C2EBC20303EB021208EB8202E3
:103EB0009378022B01D0012B04D182F82C7004F1ED
:103EC0000104E4B201F10101C9B2814206DA7A4A81
:103ED000B2F9002000E048E09442D3DBB17EC1EBB0
:103EE000C10202EB011108EB810181F82C707349CA
:103EF000B1F900103C290FDA4FF000010AE0C1EBE4
:103F0000C10202EB011208EB820282F82C7001F16F
:103F10000101C9B28142F2DD6949098879B14FF0E6
:103F200000010AE0C1EBC10202EB011208EB8202C0
:103F300082F82CA001F10101C9B28142F2DD4FF0FB
:103F400000016FF031030EE0C1EBC10202EB011280
:103F500008EB820292F82C40012C01D1A2F85030DB
:103F600001F10101C9B28142EEDD4FF000004FF0D6
:103F70006304BBF900100FE0C0EBC00202EB0012BB
:103F800008EB8202D36B23B182F82C40A3F101032A
:103F9000D36300F10100C0B28842EDDBF774F77320
:103FA0004FF00002104613E0C0EBC00303EB001318
:103FB00008EB83039C78012C07D1F47B04F1010406
:103FC000F473DB69934200DD9AB200F10100C0B2E4
:103FD0008842E9DBB287777786F81CA04FF00000B3
:103FE000384AB2F90030A3F1050410E0C0EBC0027A
:103FF00002EB001208EB8202926A9A4201DB86F819
:104000001DA0A24200DB377700F10100C0B2884258
:10401000ECDB707F012808D0B07F002803D0307F10
:10402000002800D0B777BDE8F09F86F81EA0FAE719
:1040300070B50A23254C2448002522680068B2FB8D
:10404000F3F6B0FBF3F1224AB1420BD111780F29FC
:1040500002D201F10101117011780A2903D31D491F
:10406000086000E0157020601B481C4CB0F900008F
:10407000B4F90020B0FBF3F1B2FBF3F3184A994214
:1040800034D111780F2902D201F101011170117898
:104090000A292CD3134927E0D10000109601001003
:1040A0005A02001000000010D200001024EC07207B
:1040B00080010010AC00001060C007201401001047
:1040C0006402001030010010A404001078C0072022
:1040D000AA040010B0020010A80400107CC0072041
:1040E0007EC0072044020010088000E01570208088
:1040F00070BD2DE9F04F85B0FF4E0024FF4F3078A2
:104100006FF01305401CC0B230700A284CD33470D5
:10411000DFF8EC9399F8000000F1010089F8000045
:10412000F848B0F90020F8480280F848DFF8E0A32A
:10413000B0F900304846BAF900C04178F5489A42D3
:10414000B0F900803846B0F9000014DDA2EB030B93
:10415000BBF1050F0FDB012804D002280BD1B8F109
:10416000050F08DD01F1010189F80110ACF1010C26
:10417000AAF800C013E09A4211DA9A1A052A0EDB57
:10418000012804D002280AD1B8F1050F07DDA1F1FA
:10419000010189F801100CF1010CAAF800C01422E9
:1041A0002946DB48FCF782F83888012854D130785A
:1041B000D94FDA4E082852D0D94BB3F92200D94949
:1041C0006FF0140CB3F94030B1F90020C2EB0211CA
:1041D0000CEB810C9C4509D005EB81059D4205D077
:1041E0006FF0120505EB8101994201D142F4804044
:1041F00039888DF800104FF006018DF801108DF808
:1042000002404FF064018DF803104FEAE07100EBBB
:1042100011614FEA21228DF804208DF805004FF03E
:104220000601684639F074FA8DF806004FEA20203E
:104230008DF807004FF00601684639F069FA3088BA
:10424000002809D104466D46285D3AF0F3FC04F1DC
:104250000104E4B2082CF7D305B0BDE8F08F38882C
:104260008DF800004FF004008DF801008DF8024039
:104270004FF002008DF803008DF804404FF001006C
:104280008DF805004FF00601684639F041FA8DF8C7
:1042900006004FEA20208DF8070030880028DBD187
:1042A00004466D46285D3AF0C5FC04F10104E4B211
:1042B000082CF7D3D0E710B59B4B4FF000001880C7
:1042C0009A484FF001044FF4FA62B0F90010984890
:1042D0000129B0F9000006D002290FD19549B1F9A2
:1042E0001A1060B10DE09349B1F9161008B9914266
:1042F00003DC012802D1914200DA1C8010BD9142FA
:1043000003DC0128FAD19142F8DA1C8010BD2DE9B6
:10431000F0410646C6EBC600874900EB061011F8CF
:104320002020032A77D101EB800494F84250A8079B
:1043300017D5B4F946104FF49660814222DA01F1A4
:10434000010109B2A4F8461081421BDBA4F8460023
:104350006078C00716D101220021304602F06BFCC4
:1043600010E0B4F9461069B1A1F1010108B2A4F856
:10437000460038B96078C00704D0002211463046A4
:1043800002F059FC29074FF00A074FF0000015D53D
:10439000B4F948000A2826DA00F1010000B2A4F8B6
:1043A00048000A281FDBA4F84870607880071AD4F8
:1043B00001221146304602F03EFC14E0B4F94810E8
:1043C00000290DDDA1F1010108B2A4F8480050B99F
:1043D0004FF000024FF00101304602F02CFC02E0E9
:1043E00001DAA4F84800E80616D5B4F94A000A280C
:1043F00020DA00F1010000B2A4F84A000A2819DB13
:10440000A4F84A706078400714D401220221304693
:1044100002F011FC0EE046E0B4F94A0050B1A0F100
:10442000010001B2A4F84A1021B90022022130464D
:1044300002F001FC6078000703D04FF00400A07088
:1044400017E03E48007830B1E078142803D94FF0E7
:104450000500A0700DE094F84200800603D54FF0EF
:104460000200A07005E0E078142802D24FF00100AD
:10447000A070E0780A2806D394F82C0040F0800061
:1044800084F82C0005E094F82C0000F07F0084F8FC
:104490002C002349B4F95000B1F9201008442063DE
:1044A0004FF47A7060630BE470B54FF0000024495C
:1044B000244D4FF00104B1F90C20034604FA00F139
:1044C0000A4201D02C5400E02B5400F10100C0B28C
:1044D0000C28F3D31C4E28781C4C3178814243D0F1
:1044E000B4F9001001293FDB01287ED0002301220E
:1044F0000B2117A036E00000100100109C010010F5
:104500009602082024020010680200106A020010BF
:104510006C020010BC040010A00100109E010010ED
:10452000000000104A010010640200106002001038
:1045300062020010185F001024EC0720FB0000103E
:10454000CA0208208A020820DE0208208A01001020
:104550004176746F6D6174202331206973204F465A
:104560004600000034F084FA7178687881420BD0FC
:10457000B4F90010022907DB01287ED000230222B3
:104580000B21FFA034F074FAB178A87881420BD0E7
:10459000B4F90010032907DB01286FD000230322A0
:1045A0000B21FCA034F064FAF178E87881420BD05A
:1045B000B4F90010042907DB01287AD00023042273
:1045C0000B21F9A034F054FA3179287981420BD0CB
:1045D000B4F90010052907DB012872D00023052259
:1045E0000B21F6A034F044FA00E04CE071796879D0
:1045F00081420BD0B4F90010062907DB012867D0EF
:10460000002306220B21F2A034F032FAB179A87906
:1046100081420BD0B4F90010072907DB01285ED0D6
:10462000002307220B21EFA034F022FAF179E87978
:1046300081420BD0B4F90010082907DB012855D0BE
:10464000002308220B21ECA034F012FA317A287AE8
:1046500081420BD0B4F90010092907DB01284CD0A6
:10466000002309220B21E9A034F002FA4FF00000E8
:10467000295C315400F1010001E00BE012E0C0B20E
:104680000C28F5D370BD01231A460B21E4A034F0A9
:10469000EFF969E7012302220B21E6A034F0E8F9E3
:1046A00072E706E0012303220B21E7A034F0E0F9D2
:1046B0007AE7012304220B21E8A034F0D9F983E73B
:1046C000FFE7012305220B21E9A034F0D1F98BE7A4
:1046D000012306220B21EBA034F0CAF996E701234F
:1046E00007220B21ECA034F0C3F99FE70123082235
:1046F0000B21EEA034F0BCF9A8E7012309220B211D
:10470000EFA034F0B5F9B1E770B5C820FBF776FD3E
:10471000F0490022A8B3F04B01241868C9281CD026
:10472000CA282FD0104600EB400303EB001301F81A
:10473000232000F10100C0B20228F4D34FF00000A2
:1047400000EB400303EB001311F82350142D39D96B
:1047500001EB830383F83C4038E04FF0000000EBAE
:10476000400303EB001511F82530322B03D203F17F
:10477000010301F8253000F10100C0B20228EED398
:10478000DCE729E04FF000005E6804FA00F31E4207
:104790000CD000EB400303EB001511F82530322B51
:1047A0000AD203F1010301F8253005E000EB4003D4
:1047B00003EB001301F8232000F10100C0B202282E
:1047C000E3D3BBE701EB830383F83C2000F1010056
:1047D000C0B20228B4D370BD4FF0000000EB40031C
:1047E00003EB001301F8232001EB830383F83C2043
:1047F00000F10100C0B20228F0D370BD2DE9FE4FD8
:104800000546B64931F9150018B1A0F1010021F8AB
:104810001500B24A121D32F9150018B1A0F10100BD
:1048200022F8150005EB4500AA4B00EB051003EB41
:104830008004AB4B0290B4F90800B3F900304FF09C
:10484000640B984201DD21F815B0002801DA22F846
:1048500015B0A24831F81530843800274BB132F832
:10486000153033B1B0F86430A3B140F6B831A0F8D8
:104870006210A0F8627094F83E00401CC0B284F848
:104880003E000A2801D384F83E70964E30883228C4
:1048900009D017E04FF41673A0F8643021F81570B2
:1048A00022F81570E5E794F83C0058B9B4F9020015
:1048B000502807DA94F83D00C00703D101212846AB
:1048C00002F070FEB6F90000874EC8280FDDB4F97B
:1048D0000800FBF715FDB6F90010884207DD94F8D3
:1048E0003D00C00703D00021284602F05BFE7E4851
:1048F000B4F90810B0F900004042814214DD607B39
:104900000A280DD200F10100C0B260730A2806D354
:10491000A07B002803D0A773284602F0B1FB23E157
:104920004FF00A0060731FE129DA607B38B3A0F111
:104930000100C0B2607310BBA07B00BB4FF0010050
:10494000A0736A48008800F1010000F0070004EB42
:104950004000008C0090664EB08B01904FF06302D7
:104960004FF0010101A8FBF796FC04F11C049DF82F
:1049700004002076307E01904FF00C02BAE0F3E0A4
:104980004176746F6D6174202332206973204F4625
:10499000460000004176746F6D61742023332069F6
:1049A00073204F46460000004176746F6D6174209D
:1049B0002334206973204F46460000004176746F0F
:1049C0006D6174202335206973204F464600000036
:1049D0004176746F6D6174202336206973204F46D1
:1049E000460000004176746F6D61742023372069A2
:1049F00073204F46460000004176746F6D6174204D
:104A00002338206973204F46460000004176746FBA
:104A10006D6174202339206973204F4646000000E1
:104A20004176746F6D6174202331206973204F4E7D
:104A3000200000004176746F6D617420233220697C
:104A400073204F4E200000004176746F6D6174201A
:104A50002333206973204F4E200000004176746F8D
:104A60006D6174202334206973204F4E20000000B4
:104A70004176746F6D6174202335206973204F4E29
:104A8000200000004176746F6D6174202336206928
:104A900073204F4E200000004176746F6D617420CA
:104AA0002337206973204F4E200000004176746F39
:104AB0006D6174202338206973204F4E2000000060
:104AC0004176746F6D6174202339206973204F4ED5
:104AD000200000009CE90720AC00001084000010BA
:104AE00042010010120100103A010010840400106D
:104AF000204002404FF0010101A8FBF7CCFB9DF8DC
:104B000004006076307B01901F22012101A8FBF791
:104B1000C2FB9DF80400A0769DF80000E076307A94
:104B200001901722002101A8FBF7B5FB9DF80400B6
:104B30002077307901903B22002101A8FBF7ABFBE5
:104B40009DF804006077307801903B22002101A895
:104B5000FBF7A1FB9DF80400A0779DF80100E0772A
:104B600027806780A4F11C0448F6A04894F83E0012
:104B700000287ED1B4F90810606908446061DFF84C
:104B80000C94DFF80CA440452ADB3AF91510A1F586
:104B9000AA40553803D1FF4830F8156001E03AF8D3
:104BA000156039F8150035F0D2FD80B2B0420ED252
:104BB0006169A1F50041A1F54A61616139F91520EA
:104BC00000F1010001B2104635F0BFFE33E032D9EA
:104BD00039F9150031B235F0B8FEC4F814802AE076
:104BE000ED49884227DC3AF91510A1F5AA4055385D
:104BF00003D1E84830F8156001E03AF8156039F85B
:104C0000150035F0A4FD80B2B04205D939F9150080
:104C100031B235F09AFE304658B161694144616164
:104C200039F91520A0F1010001B2104635F08DFED2
:104C300001E0D948606139F8150035F088FD01467A
:104C40003AF91500A0F5AA42553A02D1D14830F9F7
:104C500015004FF47A7201FB02F168B1B1FBF0F07C
:104C60004FF00A01B0FBF1F02082CC480088012807
:104C700000E010E003D008E04FF00000F0E7C84982
:104C8000029801EB8000408A208204F11000642227
:104C90000021FBF70BFBA07B012813D1A08B404523
:104CA0000FD2B4F90800FBF72BFBA18B084480B2AC
:104CB000A083404506D3A783E08B00F10100E08389
:104CC00000E0A783DFF8DC92B749DFF8E0A2B9F98A
:104CD0000000B1F90010884202DD9AF80000E8B344
:104CE000B4F84000A0F10100A4F8400004F1400035
:104CF0004FF416720021FBF7D9FAB4F9400040F2E4
:104D00004E26B04205DB94F83F1041F0010184F8D3
:104D10003F100A2805DC94F83F0020F0010084F8D9
:104D20003F00A349B9F90000B1F90010884202DD43
:104D30009AF80000B0B3B4F84200A0F10100A4F862
:104D400042004FF4167904F142004A460021FBF775
:104D5000ADFAB4F94200B04207DB00E023E094F87A
:104D60003F1041F0020184F83F100A2805DC94F856
:104D70003F0020F0020084F83F00606C404520DADC
:104D800000F10100606440451CDB6764894E36F821
:104D9000150035F0DCFC401C01B236F9150035F089
:104DA000D4FD0FE006E0B4F8400000F10100A4F8E3
:104DB00040009BE7B4F8420000F10100A4F8420073
:104DC000BFE767647C4E308800285ED07B48B0F92E
:104DD0000000484508DAB4F902004FEAE07100EB40
:104DE00091704FEAA00006E0B4F902004FF005010F
:104DF00090FBF1F000B24FEA4000A188A0EB010067
:104E000000B2FBF77DFA00EB80004FEA400000B2F1
:104E10004FF00C0190FBF1F000B2E080B6F9001009
:104E2000884234DDB4F90800FBF76AFA01466448A9
:104E3000B0F9000000EB8000814228DA614873215C
:104E4000B0F90000484390FBFBF0B4F9021000B247
:104E500088421CDA94F83D00800718D4B4F8480062
:104E600000F1010000B2A4F84800A0F53061B839A3
:104E700003D10121284602F0E0FCB4F9481040F6C5
:104E8000BD30814201DBA4F84800BDE8FE8FA4F8E4
:104E90004870FAE738B54C484E4C01884B48B0F999
:104EA00000304B48B0F9002039B14048007830B1AB
:104EB0004FF01400ADF8000005E0238025E03948EC
:104EC0000088ADF80000444DBDF90010296043484A
:104ED0000029B0F9000012DB282902DD4FF028017B
:104EE0002960A3EB000101EB81014FEA41012B682E
:104EF00001FB03F14FF0C80391FBF3F1084438497B
:104F0000097D022900D1104620803648008810B162
:104F100035480088208035480078052800D1228057
:104F2000BE20FBF76BF928B131480168BF2901D1D8
:104F300040682080B4F900004FF0620100FB01F1ED
:104F40004FF0640291FBF2F12A4B19804FF0660199
:104F500000FB01F090FBF2F02749088038BD2DE9F5
:104F6000F0411F4CB4F9260010B1A0F10100E0841B
:104F70002248234D00882880224E0A27B6F90800CF
:104F8000002846DAFBF7BCF93EE000009E1C040056
:104F900098020010900200106073FFFF780100106B
:104FA00028EB0720F20200105401001073020010D9
:104FB00052010010BA1C04005601001044010010F8
:104FC0003A01001034010010720100102C01001091
:104FD0003C0100103A02001064C007202A010010B2
:104FE000000000105A02001052020010D2000010FF
:104FF000AC0000108E0400105EC00720900400106A
:1050000068C007209CE9072090FBF7F02988084436
:105010002880B6F95400002806DAFBF771F990FBF6
:10502000F7F0298808442880FA48B5F90010B0F94B
:10503000000091FBF0F000F10100C0B22074F64ACC
:10504000B2F9002091FBF2F101F10101CAB26274E0
:10505000F2494FF03C05B1F90030984202DD08807A
:10506000E58405E09A4203DAE08C08B90A80E58419
:10507000EB480288EB480AB102880A80A27F0AB195
:1050800002880A80B0F90020BDE8F0410121E34820
:10509000FBF70CB92DE9F05FE348E44CB0F90010E0
:1050A0006187E348008810B1E24800886087B4F95E
:1050B000620018B1A0F10100A4F86200B4F9640024
:1050C00018B1A0F10100A4F86400DB484FF00A0811
:1050D00090F83F20920703D190F88B00800702D010
:1050E00091FBF8F06087D5480126B0F90010491E01
:1050F000052900D30680B0F90000002500EB8001EF
:10510000E079B0EB410F08DA00F10100C0B2E071C4
:10511000B0EB410F01DBE5712672E120FBF76EF881
:10512000DFF81C93C74ADFF820B3C84F00287CD0B3
:10513000C7490868642809D069280CD0C54B6E2877
:105140000FD0E5282AD0E6282BD0BEE14868618C34
:1051500008442084B9E14868618CA1EB00002084F8
:10516000B3E1208CA0F1010000B220841E2806DDEE
:10517000B949B3F90000B1F9001088420CDA60783F
:10518000401CC0B26070FA28DFD10A230022E72158
:10519000E620FAF7F4FF98E1657096E1486820840C
:1051A00093E1B3F90010B9F9000081421BDD4FF023
:1051B0000B01E177B2F90010A1EB0000282807DD10
:1051C000B4F92000002803DDA0F1050020847CE173
:1051D000B4F920000028B8D0217A0029B5D0A0F178
:1051E0000100208471E1B2F900108142ADDA4FF084
:1051F0000C02E277A0EB010028280ADDB4F92000B8
:1052000040F2F731884204DA00F1050020845CE1C5
:105210000BE0B4F92000B0F57F7F96DA217A0029FF
:1052200093D000F1010020844FE1207A00288CD037
:105230008A48008818B19BF8E302282874D9B4F989
:105240002200E0864FF01301E177B4F93810638F44
:1052500091FBF8FCBCEB430F0DDD4FF01401E1773F
:10526000B4F8621019B1A0F10100E0860AE1A0F1E2
:105270000A00E08606E111DAC3EB031888450DDA6F
:105280004FF01501E177B4F8621019B1A0F10100F7
:10529000E086F7E0A0F10300E086F3E0C3EB03183B
:1052A000884508DD9C4506DD4FF01601E177A0F149
:1052B0000100E086E6E0B2F900C0B9F90020DFF8AD
:1052C000A081DFF8A091944577DA4FF0170A84F8AF
:1052D0001FA0B8F90080B9F90090A8EB0908A2EB6B
:1052E0000809E1452FDD4FF01802E27700290DDAB9
:1052F0004FF01901E177B4F8621019B100F1010023
:10530000E086BFE000F10A00E086BBE003EB830229
:105310008A420EDD4FF01A01E177B4F8621021B134
:1053200000F10100E086ADE0CFE000F10200E08690
:10533000A8E0B1EB420F05DA4FF01B01E17700F175
:105340000100E0869EE04FEAE87908EB9978A2EB4D
:10535000A808E0451EDD4FF01C02E27703EB830254
:105360008A420DDD4FF01D01E177B4F8621019B1EA
:1053700000F10100E08685E000F10200E08681E0B6
:10538000B1EB420F7EDA4FF01E01E17700F1010030
:10539000E08677E0521E944574DA4FF01F02E27700
:1053A00003EB8302B1EB420F6CDA4FF02001E1779F
:1053B00000F10100E08665E0FFE763DD4FF02101C9
:1053C000E177B8F90010B9F90030A1EB030101EB66
:1053D000020363450DDA4FF02201E177B4F8621061
:1053E00019B1A0F10100E0864CE0A0F10A00E086CE
:1053F00048E0CB1701EB937102EBA101614538DA6C
:105400004FF02301E177B4F8621069B3A0F1010015
:10541000E08637E03E0100104001001060C0072028
:105420005001001080010010420100100000001027
:105430005A020010500200109CE90720B001001031
:105440003A0200102002001024EC0720BC040010D7
:10545000AC0000101C020010340100104A020010C1
:105460002A0100102C010010FFE7A0F10200E086E5
:1054700008E0521C944505DD4FF02401E177A0F1CE
:105480000100E08640F2F2320A21FD48FAF70EFFF1
:10549000E08E60842084FB48B0F9000060B9398850
:1054A00051B1F94909882184F849098801EB810142
:1054B0004FEA4101E1866184012801D0022804D12C
:1054C000F349E08E098808442084A5726572F1488A
:1054D0005A46B0F900100CE0C0EBC00303EB001318
:1054E00002EB8303DB781E2B00D2A67200F10100D1
:1054F0006072607A8842EFDBA07A20B94FF41670B0
:1055000020846084E086B7F9000010B1A0F10100AA
:105510003880DB4840F2F2320A211638FAF7C6FE2C
:105520002572BDE8F09F2DE9F05F4FF00000DC4AE6
:10553000D94BDA4D4FF0010A4FF00A0B0646B2F98B
:10554000004025E0D749D84F095C37F91110B1F573
:10555000FA6F0EDA19560A2908DA01F1010149B287
:1055600019540A2911DB05F800A00EE003F800B079
:105570000BE01956002907DDA1F1010149B21954C8
:10558000002902DC2E5400E01E5400F10100C0B2DC
:10559000A042D7DB4FF00004DFF81093C44FDFF8D0
:1055A000148383E0C44830F9140010B9295D01293F
:1055B0000FD008B1285D60B119F90400002819DB8B
:1055C000A0F1010040B209F80400002814DC3E55A7
:1055D00012E019F904000A2809DA00F1010040B2CA
:1055E00009F804000A2807DB07F804A004E009F81A
:1055F00004B001E009F8046018F80410385D814235
:105600004ED09F4A363A918E01F1010191860128D0
:1056100007D054B3012C2FD0022C34D0032C39D016
:105620003EE034B1012C0BD0022C10D0032C15D04D
:1056300036E001231A460F21A0A033F019FA2FE01B
:10564000012302220F21A0A033F012FA28E0012347
:1056500003220F219FA033F00BFA21E00123042243
:105660000F219FA033F004FA1AE0002301220F213A
:105670009EA033F0FDF913E0002302220F21A0A029
:1056800033F0F6F90CE0002303220F21A1A033F040
:10569000EFF905E0002304220F21A3A033F0E8F97D
:1056A000385D08F8040004F10104E4B27C48B0F964
:1056B00000008442FFF676AF33E7A04A4FF00100C6
:1056C00010709F4908705070487070472DE9F05F66
:1056D0009D48DFF87892DFF86C82B0F900C0B9F924
:1056E0000000674CC0EB0011363CB8F902706FF057
:1056F0001D0A6FF0950B0025904EB4F940000AEB9F
:1057000081020BEB8103674505DCDFF844C2BCF97D
:1057100000C0674504DA824202DD834200DA357058
:105720008C4FB8F908C0B7F900E0854FBCEB4E0FBD
:1057300004DCCEF1000EBCEB4E0F04DA824202DD37
:10574000834200DA3D706FF0090202EB8101814271
:1057500020D1207DF0B9307801281BD1387801287C
:1057600018D14FF4D67034F0F2FF7B49B1F9001034
:1057700088420FD07948008860B198F83D00C00792
:1057800008D14FF4D67035F0E0F87548017801F192
:10579000010101706C48B8F90210B0F900008142B3
:1057A00006DC6B48B8F94E10B0F9000081420EDA01
:1057B000B9F90000B4F94010C0EB00100AEB800208
:1057C0008A4204DD0BEB8000884200DA7570614983
:1057D000B8F95400B1F90010B0EB410F03DC4942B5
:1057E000B0EB410F0EDAB9F90000B4F94010C0EB8C
:1057F00000100AEB80028A4204DD0BEB8000884235
:1058000000DA7D70B9F90000C0EB00116FF00900FB
:1058100000EB8100B4F94010884221D1207DF8B915
:10582000707801281CD17878012819D14FF4E575DA
:10583000284634F08CFF4849B1F9021088420FD055
:105840004648008802280BD198F88900C00707D184
:10585000284635F07AF84248017801F101010170DB
:10586000B9F900006FF00101C0EB001001EB8000FE
:10587000B4F94010884202D1BDE8F05F1DE771E045
:10588000360000109C0100108EC00720AC010010F3
:105890006C02001080010010A002001076020010BF
:1058A00086010010961C0400185F00105AC00720E3
:1058B0007A020010890400100A030010534B2023C1
:1058C0003120416C61726D00534B20233220416CBA
:1058D00061726D00534B20233320416C61726D0067
:1058E000534B20233420416C61726D00534B2023B5
:1058F0003120416C61726D206973206F6666000013
:10590000534B20233220416C61726D206973206FEC
:1059100066660000534B20233320416C61726D207A
:105920006973206F66660000534B20233420416C5E
:1059300061726D206973206F66660000920400102A
:105940006AC007209CE907205EC007204A010010BA
:105950008E0400103A010010980200107C01001023
:105960006CC00720DDE52DE9F003FF48FF4F4FF045
:10597000000C00784FF00108FD4EE8B3FD483946B1
:10598000B0F90050FC48B1F90010B0F90090FB48A4
:105990004D45B0F90020FA48B0F90030F948B0F9A7
:1059A0000040F948B0F9000013DA824203DB834279
:1059B00001DB84420DDAF548B0F90020914223DA88
:1059C00001F1010108B2388090421DD186F800C073
:1059D0001AE0DFF8BCC3BCF900C0654514DD8242A3
:1059E00012DD834210DD84420EDD69B1A1F10101B7
:1059F00008B2388040B900E002E086F8008003E099
:105A0000A7F800C086F800803078002807D1BDE8EC
:105A1000F0030F2301226E21D220FAF7B0BBBDE8BC
:105A2000F00370472DE9F041DA4FDB4C0025388850
:105A300098B1DA4A116801F101011160D848B0F952
:105A40000000C0EB4013C3EB0020B1EB001F00DBF4
:105A50003D80208808B13D801560D248012600882D
:105A600000B33888F0B9C348CF49B0F90000B1F9A4
:105A70000010884216DA081ACC49B1F900108842A1
:105A800010DDCB480A21B0F9000090FBF1F0C949C4
:105A90000988401A00B2FAF733FC052802DA208898
:105AA00000B93E80C448B0F90000012804D00228A3
:105AB00002D02580BDE8F0812580C04BC0494FF45D
:105AC000FA62012805D00228F4D1B3F9000078B1B8
:105AD00012E0B3F9000018B9B1F91630934205DCB1
