:020000040000FA
:10000000F8220820E1000000E5000000E700000001
:10001000E9000000EB000000ED000000000000001F
:10002000000000000000000000000000EF000000E1
:10003000F100000000000000F300000069840100EE
:10004000F7000000E1A501000DA60100F700000087
:10005000F7000000F7000000F7000000F7000000C4
:10006000F7000000F7000000F7000000F7000000B4
:10007000F7000000F7000000F7000000F7000000A4
:10008000F7000000F7000000F7000000F700000094
:10009000F7000000F7000000C7580000F70000005C
:1000A000F70000000BBC0100F7000000F7000000A3
:1000B000B5BF0100F7000000F7000000F7000000E6
:1000C000F7000000F7000000F7000000DFF80CD098
:1000D0001CF038F8004800478D850100F822082000
:1000E00005480047FEE7FEE7FEE7FEE7FEE7FEE71E
:1000F000FEE7FEE7FEE7FEE7CD000000FEE710B5F5
:100100001DF0EAFE1DF076FF1DF068FF1DF0F6FE03
:10011000AFF30080BDE810401DF032BF10B51EF0F7
:1001200043FD1FF0B3FB1EF097FDBDE810401EF02D
:100130000FBF1EF057BC1EF01FBA09B10020704758
:100140001CF074BF0020704770B5374A0020A2F140
:100150001401064601F10A030C5C54B11D5CAC426B
:1001600007D1145C2CB1641E14F0FF04145400D1A8
:100170000E540C5C1C54401CC0B20A28ECD370BD59
:1001800070B5294D0024143D641CE4B22E5D1EB1EF
:10019000864201D00A2CF7D3285523480C3040F86A
:1001A0002410283040F824203438035570BD1E4AEE
:1001B0000021143A491CC9B2535C834201D00A2978
:1001C000F8D3DBB2834210D117480C3050F82130FD
:1001D00016480360144B343353F821304360002039
:1001E0005054114A505401207047002070470E4A65
:1001F0000021143A491CC9B2535C834201D00A2938
:10020000F8D3DAB282420CD107480C3050F82120E2
:1002100006480260044A343252F82110416001203D
:1002200070470020704700007CE4072008C00720CA
:100230000C4BDA601870597070470A4A116190705F
:1002400070470849088170470648B0F9081000292E
:1002500007D0491E09B20181002902D1084601F0E8
:100260001CB8704710C0072090F900308B4200DAAC
:10027000027090F90030934200DD0170704790F9F0
:1002800000308B4200DA017090F90010914200DDDD
:1002900002707047B0F900308B4200DA0180B0F98B
:1002A0000010914200DD02807047B0F900308B42AF
:1002B00000DA0280B0F90030934200DD018070471F
:1002C0000146002000E0401C0A5C002AFBD1704778
:1002D00010B5002200E0521C835C8C5CA34201D16B
:1002E000002BF8D1D8B2E1B2401A10BD00487047D7
:1002F0000C0F02000048704744E10720FFFFFFFF9A
:10030000002801DA404200B270470020F84A20215C
:100310001154401CC0B2C828FAD370470146F44AB1
:100320000020401CC0B2135C8B4201D0C828F8D317
:10033000704710B50021EF4C0A2200BFB0FBF2F36A
:1003400002FB13006054491CC9B218460529F5D3B5
:1003500010BDF0B5E84B0121202719700521E54AB1
:10036000002601E01C7844B1541814F8015C25B94A
:10037000814202D904F8017C05E0541814F8015DAB
:10038000303525701E70491E11F0FF01EAD1F0BD15
:10039000FEB52B23002802DA404200B22D230025AF
:1003A0000A266C4690FBF6F706FB170060556D1C9D
:1003B0006DB238B20A2DF5DB012600250920202771
:1003C00000E046B114F800C0BCF1000F03D1904228
:1003D00001DD275405E0265C3036265400266D1CCE
:1003E000EDB2401E40B20028EBDA2D2B02D163554E
:1003F0006D1CEDB26AB168B205E0231813F8013C38
:100400002354401E40B29042F7DC2E206D1CA054B5
:10041000EDB20846FFF782FF0021B54A04E0635CB5
:10042000461A491C935549B2A942F8DBFEBDFEB5F8
:100430002B23002801DA40422D2300250A266C4692
:10044000074690FBF6F006FB107767556D1C6DB202
:100450000A2DF5DB012600250920202700E046B102
:1004600014F800C0BCF1000F03D1904201DD275405
:1004700005E0265C3036265400266D1CEDB2401E89
:1004800040B20028EBDA2D2B02D163556D1CEDB282
:100490006AB168B205E0231813F8013C2354401EEA
:1004A00040B29042F7DC2E206D1CA054EDB20846FD
:1004B000FFF734FF00218E4A04E0635C461A491CB2
:1004C000935549B2A942F8DBFEBDFEB52B260028A4
:1004D00001DA40422D2600240A276D46844690FB0F
:1004E000F7F007FB10CC05F804C0641C64B20A2CBA
:1004F000F4DB0127002009244FF0200C00E04FB16D
:1005000015F804E0BEF1000F04D19C4202DD05F8AD
:1005100004C005E02F5D30372F550027401CC0B2C6
:10052000641E64B2002CEADA2D2E02D12E54401C37
:10053000C0B26BB144B205E02E1916F8016C2E550D
:10054000641E64B29C42F7DC2E24401CEC54C0B202
:1005500001EB810102EB8101CAB20021644B04E08E
:100560006C5C561A491C9C5549B28142F8DBFEBDB1
:1005700070B50D4616461C46FFF7DBFE601CC0B288
:10058000FFF7E7FE05EB850006EB8000C1B2594A94
:10059000574B0020A04201D2155C5D5406D3155C78
:1005A000202D03D04CB15E1806F8015C491E401C9A
:1005B000C0B2C9B20528EDD370BD5D54F6E730B5C1
:1005C000044608461546FFF7A9FEFF2809D0484A09
:1005D0002178002905D04319641C401CD154C0B2B5
:1005E000F6E730BD70B50D461446FFF7A2FE601C5D
:1005F000C0B2FFF7AEFE2846FFF790FE3D4B3C4AE7
:10060000002124B95D5C202D01D015540FE0A142DA
:1006100001D25D5CF9E704D14FF02E0515545D5C05
:1006200002E05D5C202D02D0161806F8015C401E29
:10063000491CC9B2C0B20529E3D370BD801801D5E9
:10064000084402E0884200DB401AC0B270472DE93E
:10065000FE4F04460D464FF460601AF08FFC624274
:100660004021FFF7EBFF400100F58060044602A93E
:100670001AF001FD694604F108001AF0FCFC01A91A
:1006800004F10C001AF0F7FC2846FFF747FE064677
:100690009DF8080040273025DFF860B0DFF850A053
:1006A00020244FF0210C4FF02309552828D0CF22C9
:1006B000D123502873D0422872D0532871D04928B2
:1006C0006BD1C8210AF80610761CF1B2ED220AF8A7
:1006D0000120491CC9B2E2220AF80120491C9DF8F8
:1006E00009205046C9B2092A7ED231324254FEE373
:1006F000A0020010F4030010F903001000400240B3
:100700009DF80A0052280ED1C2210AF80610761C64
:10071000F1B2EA220AF80120491CC9B2EB220AF818
:100720000120491CCEB25046B1E300BF9DF8012024
:1007300096F838309A4267D19DF8022096F82C300E
:100740009A42F8D14554491CC9B23A2200F801C076
:10075000491CC9B24254491CC9B24554491CC9B2CA
:100760004754491CC9B24254491CC9B200224554DD
:10077000491CC9B20AF801909DF804002121FFF735
:1007800031FF9DF8050000224021FFF72BFF9DF867
:10079000060000222321FFF725FFBDE8FE8F0BE0B6
:1007A00033E04BE39DF80110FD48002200EB81008F
:1007B0004021FFF704FFF0E70AF80620761CF1B2AB
:1007C00050460AF80130491CC9B20AF80140491CD8
:1007D000C9B20AF80140491CC9B20AF80140491CD3
:1007E000C9B20AF8014000E095E3491CC9B219E317
:1007F0009DF8013092F83860B3429CD19DF80230E8
:1008000092F82C2093429DD055E39DF80A0043288E
:100810007CD1C1210AF80610761CF1B2E0220AF858
:100820000120491CC9B2F2220AF80120491CCEB2AB
:100830009DF809105046092906D231318155761CA0
:10084000F1B2C022425419E0A1F109025A2A11D290
:10085000491C0A23B1FBF3F2904630328255761CD4
:1008600003FB1811F6B230318155761CF1B2C0226B
:10087000425406E08455761CF1B24454491CC9B276
:100880004454491CC9B25E464454491C9DF800209A
:10089000BBF83C30C9B29A4239D19DF8012096F894
:1008A00038309A4233D19DF8022096F82C309A4283
:1008B0002DD14554491CC9B23A2200F801C0491C47
:1008C000C9B24254491CC9B24554491CC9B2475423
:1008D000491CC9B24254491CC9B200224554491CA2
:1008E000C9B20AF80190491CCEB29DF8040021213A
:1008F000FFF778FE9DF8050000224021FFF772FE09
:100900009DF8060000222321FFF76CFE36E04454D8
:10091000491CC9B200224554491CC9B200F801C0A3
:10092000491CC9B24754491CC9B24454491CC9B2F4
:100930004454491CC9B24554491CC9B20AF8019033
:10094000491CCEB29DF802002121FFF74BFE9DF815
:10095000000000222321FFF745FE9DF80100401E04
:100960000C2802D301208DF801009DF801108C485D
:10097000002200EB81004021FFF721FE9DF80A00D4
:10098000532873D1C1210AF80610761CF1B2E02277
:100990000AF80120491CC9B2F2220AF80120491CB8
:1009A0009DF8092043235046C9B2092A09D23132A1
:1009B0004254491CC9B2C0224254491CC9B24354D2
:1009C0000FE0093A5A2A05D2C0224254491CC9B242
:1009D000435403E04454491CC9B24454491CC9B2AD
:1009E0004454491CC9B25E464454491C9DF8002039
:1009F000BBF83C30C9B29A4239D19DF8012096F833
:100A000038309A4233D19DF8022096F82C309A4221
:100A10002DD14554491CC9B23A2200F801C0491CE5
:100A2000C9B24254491CC9B24554491CC9B24754C1
:100A3000491CC9B24254491CC9B200224554491C40
:100A4000C9B20AF80190491CCEB29DF804002121D8
:100A5000FFF7C8FD9DF8050000224021FFF7C2FD09
:100A60009DF8060000222321FFF7BCFD36E0445428
:100A7000491CC9B200224554491CC9B200F801C042
:100A8000491CC9B24754491CC9B24454491CC9B293
:100A90004454491CC9B24554491CC9B20AF80190D2
:100AA000491CCEB29DF802002121FFF79BFD9DF865
:100AB000000000222321FFF795FD9DF80100401E54
:100AC0000C2802D301208DF801009DF80110344854
:100AD000002200EB81004021FFF771FD9DF80A0024
:100AE0005A285CD1C2210AF80610761CF1B2C7223E
:100AF0000AF80120491CC9B250460AF80140491CB5
:100B0000C9B25E460AF80140491CC9B20AF8014060
:100B1000491CC9B24454491CC9B24454491C9DF8EB
:100B20000020BBF83C30C9B29A423BD19DF801206D
:100B300096F838309A4235D19DF8022096F82C303C
:100B40009A422FD14554491CC9B23A2200F801C03B
:100B5000491CC9B24254491CC9B24554491CC9B2C6
:100B60004754491CC9B24254491CC9B200224554D9
:100B7000491CC9B20AF80190491CCEB29DF8040084
:100B80002121FFF72FFD9DF8050000224021FFF7EE
:100B900029FD9DF8060000222321FFF723FD38E000
:100BA000080802004454491CC9B200224554491C9B
:100BB000C9B200F801C0491CC9B24754491CC9B2A6
:100BC0004454491CC9B24454491CC9B24554491C37
:100BD000C9B20AF80190491CCEB29DF80200212149
:100BE000FFF700FD9DF8000000222321FFF7FAFC2B
:100BF0009DF80100401E0C2802D301208DF8010051
:100C00009DF80110FE48002200EB81004021FFF713
:100C1000D6FC9DF80A0057287DD1C1210AF806109C
:100C2000761CF1B2E0220AF80120491CC9B2F22276
:100C30000AF80120491CCEB29DF8091050464FF029
:100C4000F00E092906D231318155761CF1B200F837
:100C500001E019E0A1F109025A2A11D2491C0A2324
:100C6000B1FBF3F2904630328255761C03FB18112B
:100C7000F6B230318155761CF1B200F801E006E0A1
:100C80008455761CF1B24454491CC9B24454491CE1
:100C9000C9B25E464454491C9DF80020BBF83C3064
:100CA000C9B29A423BD19DF8012096F838309A4259
:100CB00035D19DF8022096F82C309A422FD1455418
:100CC000491CC9B23A2200F801C0491CC9B24254B9
:100CD000491CC9B24554491CC9B24754491CC9B240
:100CE0004254491CC9B200224554491CC9B20AF8F1
:100CF0000190491CCEB29DF804002121FFF772FC3F
:100D00009DF8050000224021FFF76CFC00229DF8B1
:100D10000600232100E039E0FFF764FC36E044548C
:100D2000491CC9B200224554491CC9B200F801C08F
:100D3000491CC9B24754491CC9B24454491CC9B2E0
:100D40004454491CC9B24554491CC9B20AF801901F
:100D5000491CCEB29DF802002121FFF743FC9DF80B
:100D6000000000222321FFF73DFC9DF80100401EFA
:100D70000C2802D301208DF801009DF80110A04835
:100D8000002200EB81004021FFF719FC9DF80A00CA
:100D90004B287FF410ADC1210AF80610761CF1B281
:100DA000E0220AF80120491CC9B2F2220AF8012007
:100DB000491C9DF80900C9B209280BD231300AF844
:100DC0000100491CC8B2EA210AF80010401CC0B258
:100DD000E52115E0A0F109025A2A16D2401C0A2387
:100DE000B0FBF3F2904630320AF80120491C03FBB5
:100DF0001800C9B230300AF80100491CC8B2EA2113
:100E00000AF80010401CC1B20BE00AF80140491C6E
:100E1000C9B20AF80140491CC9B20AF80140491C8C
:100E2000C9B250465A464454491C9DF80030BBF89C
:100E30003C60C9B2B3423FF4DBAC3CE0C1210AF8EC
:100E40000610761CF1B250460AF80120491CC9B2BE
:100E50000AF80130491CCEB29DF80910092902D2C6
:100E60003131815514E0A1F109025A2A0FD2491CEF
:100E70000A23B1FBF3F2904630328255761C03FB15
:100E80001811F6B230318155761CF1B205E0845567
:100E9000761CF1B24454491CC9B25E464454491C04
:100EA000C9B24454491C9DF80020BBF83C30C9B27B
:100EB0009A423FF43BAC4454491CC9B24554491CC6
:100EC000C9B200F801C0491CC9B24754491CC9B293
:100ED0004454491CC9B24454491CC9B24554491C24
:100EE000C9B200220AF801909DF8020000E025E056
:100EF0002121FFF777FB9DF8000000222321FFF757
:100F000071FB9DF80100401E0C28FFF44BAC012042
:100F10008DF8010046E4A2F109035A2B0DD2521CB0
:100F20000A25B2FBF5F303F130064654491C05FBD4
:100F30001322C9B23032425403E04454491CC9B2AE
:100F40004454491CC9B20AF8014026E470B504466D
:100F5000084615461E46FFF7E1F92A4B0146FF28D1
:100F600004D106E01A54641C401CC0B22278002A46
:100F7000F8D125480078002804D0002E02D029445A
:100F80005F20585470BD2DE9FF4F8146DDE90D0407
:100F90008A469346FFF7C2F92022DFF86C80194990
:100FA0000A234FF0640C012C09D198F8005035B198
:100FB0000D18A5F10E05AA706A702A7026E099FB3B
:100FC000F3F603FB16970D183037A5F10E05022C2A
:100FD000AF7096FBF3F703FB176606F130066E70F1
:100FE00099FBFCF606F1300605F80E6B0ED198F869
:100FF00000605EB1A5F10A05AA706A702A7027E048
:1010000008080200A0020010DF0000109AFBF3F6AF
:1010100003FB16A70D183037A5F10A05032CAF7096
:1010200096FBF3F703FB176606F130066E709AFB2A
:10103000FCF606F13006674605F80A6B08D198F809
:1010400000602EB1A5F10605AA706A702A7022E030
:101050009BFBF3F603FB16B70D183037A5F1060519
:10106000042CAF7096FBF3F703FB176606F130060E
:101070006E709BFBFCF606F13006674605F8066BC2
:1010800009D198F8004034B1A5F102050A546A70FC
:101090002A70BDE8FF8F039C94FBF3F203FB12441C
:1010A00030340C5492FBF3F403FB14220844A0F1F7
:1010B000020030324270039991FBF7F101F13001E7
:1010C0000170E6E717B501EB810002EB8000C2B2C8
:1010D0009DF80030E24803F00F0100EB1313445C6D
:1010E000E0498C54521ED2B21B788B549DF80130CB
:1010F000521E03F00F04D2B2045D8C54521E00EB5A
:101100001313D2B21B788B549DF80230521E03F099
:101110000F04D2B2045D8C54521E00EB1313D2B2F2
:101120001B788B549DF80330521E03F00F04D2B28B
:10113000045D8C54521E00EB1310D2B20078885418
:101140001EBD01EB810102EB8101C54A10B500F023
:101150000F03C9B2D45CC34B02EB10105C54491EA0
:10116000C9B20078585410BD01EB810102EB810136
:10117000CBB2BB4910B500F00F028C5CB94AD45415
:1011800004095B1E04F00F00DBB2085CD0545B1E48
:10119000D8B2230903F00F040C5D1454401E1B0940
:1011A000C0B2C95C115410BD01EB810102EB810199
:1011B000CBB2AB4910B500F001028C5CA94AD45403
:1011C00044085B1E04F00100DBB2085CD0545B1ED7
:1011D000D8B2630803F001045B080C5D1454401E90
:1011E00003F00104C0B20C5D14545B08401E03F010
:1011F0000104C0B20C5D14545B08401E03F00104EE
:10120000C0B20C5D14545B08401E03F00104C0B270
:101210000C5D1454401EC4B25808085C105510BD33
:1012200030B5914901238F4D91F9012091F90410B6
:1012300000EB80048A4202D105F8243030BD894D8C
:101240004C1C00EB800005EB8000A24201D103752D
:1012500030BD8C1CA24202D180F8283030BDCC1C9D
:10126000A24202D180F83C3030BD0C1DA24202D116
:1012700080F8503030BD4C1DA24202D180F864305D
:1012800030BD8C1DA24202D180F8783030BDC91D1E
:101290008A42FBD180F88C3030BD744B1A88521EC4
:1012A000104400B21880724A00EB800002446E487D
:1012B00013680360127902714278114441707047DB
:1012C000F0B56A4D6A4FB5F9004004EB8406641C22
:1012D0002C80654C3E442568356025793571207039
:1012E00061702271A370F0BDF0B505460E46174639
:1012F000FFF70BF85B4C0020401C15F8011BC0B237
:1013000004F8011B1428F7D35FF00000401C16F806
:10131000011BC0B204F8011B1428F7D35FF00000D2
:10132000401C17F8011BC0B204F8011B1428F7D3A6
:101330005FF00000401C13F8011BC0B204F8011B51
:101340001428F7D3F0BD10B5029CFFF7CDFF464837
:10135000C378827841787E20FFF7B2FF642094FB47
:10136000F0F0BDE81040C0B2FEF76BBF2DE9FE43C0
:1013700040010D4600F58060044602A919F07BFE8D
:10138000694604F1080019F076FE01A904F10C0089
:1013900019F071FE2846FEF7C1FF324C2025302699
:1013A0002554401CC0B24FF021082654401CC0B246
:1013B0004FF0400C04F80080401CC0B2232104F818
:1013C00000C0401CC0B200222554401CC0B22554AD
:1013D000401CC0B22654401CC0B22154401CC7B2AD
:1013E0009DF802002121FFF7FDF89DF80000002282
:1013F0002321FFF7F7F89DF80100401E0C2802D3C7
:1014000001208DF801009DF801001A49002201EB2E
:1014100080004021FFF7D3F8E5557F1CF8B23A2150
:101420002654401CC0B2002204F80080401CC0B208
:101430002154401CC0B221212654401CC0B204F8E3
:1014400000C0401CC6B29DF80400FFF7CBF89DF821
:10145000050000224021FFF7C5F8A555BDE8FE8331
:1014600086080200A002001020020010FE000010FA
:10147000F4600010080802002DE9FF41FA4C002733
:1014800005466776607D0121022805D0F74A525D46
:10149000552A04D065200EE06176BDE8FF8105EB9A
:1014A000450202EB0513F24A02EB830696F83D2053
:1014B000D30702D066206076EFE796F83F309B07AF
:1014C00001D56720F7E7920701D56820F3E7E94ADD
:1014D000B6F90830B2F90020934201DD6920EAE74D
:1014E0005242934201DA6A20E5E7012804D1A07D47
:1014F00000287ED001287DD004F11404642060719E
:101500006170A1874FF4F87019F02CFEA570294680
:10151000E5874FF4FA7019F025FED748B76100212E
:1015200030F9150019F01EFEE770A4F84070394636
:101530004FF4FB7019F016FED048D14D0088401CC6
:1015400000F0070006EB4000008CADF80000A88B0F
:101550008DF804004FF063024FF0010101A8FEF77F
:101560008EFEC14C9DF8040090342070287E8DF8CA
:1015700004000C22012101A8FEF781FE9DF8040061
:101580006070287B8DF804001F22012101A8FEF75E
:1015900076FE9DF80400A0709DF80000E0704FF406
:1015A000FC70216819F019FE287A8DF804001722C2
:1015B000002101A8FEF763FE9DF804002071287940
:1015C0008DF804003B22002101A8FEF758FE9DF88B
:1015D0000400607128788DF804003B22002101A8E6
:1015E000FEF74DFE9DF80400A0719DF80100E0712A
:1015F00001E006E007E04FF4FE70616819F0EDFDD0
:101600004BE76B2057E76C2055E72DE9F047964CE8
:10161000607D01287ED120460127807DE17DC0F1DB
:10162000010207FA02F0944E914D02B211B1012964
:1016300033D037E01423CA21C820FEF7A1FD1423BC
:101640004FF0FF32CE21CD20FEF79AFDA07D00EBBA
:10165000400101EB001005EB8000B0F90800FEF737
:101660004FFEA17D01EB410202EB011205EB82026C
:101670009369184448F6A0439061984212DBC01A5F
:10168000906136F8110019F079FC401C01B2A07D80
:1016900036F9100019F066FD04E01423CA21C820B1
:1016A000FEF76EFDA07DA84600EB400101EB0012A5
:1016B00005EB8201734AB1F902100025B2F900204E
:1016C0004FF4F87902EB8202B1EB420F42DAB4F840
:1016D0004C10491C09B2A4F84C101E293CDB617D5A
:1016E000012921D1E17DF9B936F8100019F046FC45
:1016F00001B26548A27D30F9120019F033FDA07DDA
:1017000036F8100019F03AFC81B2A07D03F0E4FE37
:101710005E4800E041E0A17D30F91100002119F0A0
:1017200021FD32206083A083A07D5049C0F10100DB
:10173000085C552807D06575A4F85050002148462C
:1017400019F010FD08E0E775A4F8547001214FF47A
:10175000FB70F5E7A4F84C50A17D01EB410000EBD4
:101760000112C1F1010101EB410303EB011108EB8F
:10177000820208EB8100B2F90220B0F90200824235
:101780000BDBE07D012808D16575A4F85050484670
:10179000BDE8F047002119F0E5BCBDE8F08770B561
:1017A000314C05460026607DF0B904F11404022195
:1017B0006170A1874FF4F87019F0D4FCC5EB0510E7
:1017C0008100A5860D4661874FF4F97019F0CAFCB7
:1017D00029464FF4FF7019F0C5FC0020E0862086F2
:1017E0000126304603F006FF304670BD10B51E4C92
:1017F000607D022811D104F11404A08E03F0FAFEDA
:1018000000202086A086E0866070A0870146BDE8A3
:1018100010404FF4F87019F0A5BC10BD70B5184C0D
:10182000203C94F838001A4D297808440C2803D934
:10183000A08F401C01B201E0B4F93C10B82019F0AF
:1018400091FC94F83810287801440C2994F8381049
:1018500000D90C380144B62019F084FC94F82C000F
:101860001C2817D91C2117E00C0000105C01001087
:10187000D8E40720200100107C010200BA0100100A
:10188000204002401A010010980102007801020075
:10189000E400001094F82C10B42019F063FC04F15B
:1018A0002004217A4FF0AE0019F05CFC2179B020C1
:1018B00019F058FC2178BDE87040B22019F052BCF4
:1018C00010B5FF48FF4C007830B3FF48818FFF4AC6
:1018D0001288914220D190F83810FD4A1288914226
:1018E0001AD190F82C10FB4A1288914214D190F82A
:1018F0002810F94A128891420ED190F82410F74A24
:101900001288914208D190F82000F5490988884250
:1019100002D10120207602E0207E00280BD0F14881
:101920000088C0B2FFF73BFF002804D000202076DB
:10193000BDE8104072E710BD70B5E24C607D022832
:101940003FD1B4F846004FF461610025884212D2BD
:10195000401C80B2A4F8460088420CD3A4F846503C
:10196000B4F8480038B1401E24F8480F6088401C85
:101970006080A4F14804B4F844003C2821D2401C03
:1019800080B2A4F844003C281BD324F8445F60894B
:10199000401E01B261814FF4F97019F0E3FB6089D8
:1019A000A4F1440400280CD165750146A4F85050F8
:1019B0004FF4F87019F0D6FBBDE87040002003F03A
:1019C00019BE70BD2DE9F05FDFF8F892C648002619
:1019D000B9F83810C54F491C09B2A9F83810B0F948
:1019E0000000C34CC0EB00104FF0010A09F13E05A6
:1019F0004FF00A08B1EB800F4DDBA9F83860DFF833
:101A0000F4B22E706E709BF80000552814D1B4F912
:101A10000200502810DDB4F90810B7F90020504634
:101A2000914200DB0020FEF76BFC18B994F83D00F2
:101A3000C00701D085F800A09BF80100552814D1FB
:101A4000B4F94E00502810DDB4F95410B7F9002055
:101A50005046914200DB0020FEF752FC18B994F882
:101A60008900C00701D085F801A0A348007838B9E3
:101A700099F81010484619B1417D21B1022902D0D0
:101A80002E706E7005E02978012919D06978012936
:101A900016D0A9F83A604846B9F93A10DFF824920E
:101AA00009F15A0909F1040BE9B382460246491EBD
:101AB00008B25087052806DD0F231E22642107E0A7
:101AC000A9F83A80E7E7002815DD0F231E226921D7
:101AD000E120FEF755FBBAF83A0005280BD1B4F91E
:101AE0000800FEF70DFCA9F80000B4F95400FEF759
:101AF00007FCA9F802007348408F002833D1B4F9DD
:101B00000800FEF7FDFBABF80000DA46B4F954001C
:101B1000FEF7F6FBAAF80200B3463046694EB087DE
:101B2000B9F9001000E027E0BAF900000844B7F95D
:101B30000010884202DAA6F83C8009E0B4F90200FD
:101B4000C82805DD002185F800B0084603F03AFA00
:101B5000B9F90210BAF902000844B7F90010884236
:101B600003DAA6F83C80BDE8F09FB4F94E0064E0CB
:101B700085F801B00021F2E0B0F93C10E9B38046ED
:101B80000246491E08B29087052803DD0F23C822AC
:101B9000642104E0002815DD0F23C8226921E1201B
:101BA000FEF7EEFAB8F83C0005280BD1B4F90800AE
:101BB000FEF7A6FBA9F80000B4F95400FEF7A0FB5D
:101BC000A9F802003F48808F0028CCD1A046B4F984
:101BD0000800FEF795FBABF800005C46B8F954002E
:101BE000FEF78EFB6080B3463046364EF073B9F98F
:101BF0000000B4F90010084400E021E0B7F900103B
:101C0000884202DA86F80FA009E0B8F90200C82875
:101C100005DD002185F800B0084603F0D3F9B9F9D5
:101C20000200B4F902100844B7F90010884202DA41
:101C300086F80FA097E7B8F94E00C82898DC92E71D
:101C40008146C07B00288ED00F2300226E21E12028
:101C5000FEF796FAB4F90800FEF752FBB7F9001048
:101C6000884207DD2878012804D100212E7008461B
:101C700003F0A8F9B4F95400FEF742FBB7F90010DD
:101C8000884206DD6878012803D16E70002103F0D8
:101C900099F9287818B9687808B989F80F60E620AA
:101CA000FEF785FA18B115480068E7282FD01448C8
:101CB0001449B0F90000B1F9001000EB800023E0F6
:101CC000E40000100C000010004002406A01001007
:101CD0006801001066010010600100106201001030
:101CE000640100106C010010300100102001001090
:101CF000D8E407205C010010EB00001008C00720AA
:101D00001A010010BC010010B1EB400F92DA89F803
:101D10000F602878FF4E01280FD1B7F9000041006D
:101D200091FBF8F0B6F90010884206DA94F83D000D
:101D3000C00702D1012103F045F9687801287FF43A
:101D400079AFB7F90000410091FBF8F0B6F9001047
:101D50008842DBDA94F88900C007F0D10121BDE8A0
:101D6000F05F012003F02EB970B5EB4CE08E401C03
:101D700000B2E086B0F5E16F02DB0020E08670BDC6
:101D8000B0F5DF6F11D90F2301226421D220FEF7B5
:101D9000F7F90F230022D821D720FEF7F1F90F23FE
:101DA0000022D821DC20FEF7EBF9B4F93600A0F5CB
:101DB000E0610739E3D1D94ED94CDA4D308821881A
:101DC000884205D0B4F90010B5F9000019F0CAF93D
:101DD000708861888842D2D0B4F90210B5F9020047
:101DE000BDE8704019F0BEB910B5CF4C08220021F3
:101DF0002088401C20802046FEF757FACB48B4F9D3
:101E0000001000EB410142880A84B0F84E00A1F8AE
:101E10006C0010BD70B5C748C54DB0F90030C6485C
:101E2000B5F9002090F900109A421BDAC34C0A2938
:101E30000EDAC34BB3F900301E2B0BDD491C49B23F
:101E400001700A2906DB2280012002F06DFC01E00E
:101E50000A210170B5F90000B4F90010884200DAD7
:101E6000208070BDFDDD0029FBD0491E49B2017004
:101E70000029F6DCBDE87040002002F055BC2DE9D9
:101E8000F05FB04F4FF00A0BDFF88C923988A84D05
:101E9000B1FBFBF20BFB1212AB49B9F82200DFF8E1
:101EA000AC82F2B3AA4A41F27073AD4CB2F9002091
:101EB000504390FBF1F001B2A648A74A0180B8F95F
:101EC0000600B2F90020504390FBF3F002B2A348A1
:101ED0000280B8F91400B4F90040604390FBF3F0BD
:101EE000A04B00B28A421880298000DA2A80B5F916
:101EF0000010884200DA28809B4BB8F900104FF49C
:101F0000FA66B3F90000894C484390FBF6F0974A13
:101F10006080B8F90810B2F9000048434FF42F71FF
:101F200000E019E090FBF1F0A080B8F91800B3F9D7
:101F30000230434393FBF6F0A4F84E00B8F90200D8
:101F4000B2F90220424392FBF1F0A4F85000DC20E9
:101F5000FEF74DF938B14EE0854AB2F90020504302
:101F600090FBF1F0C7E7DFF8B8A16C4945F6386E91
:101F7000BAF8000009884FF49673401A7D494FF46F
:101F80007A7CB1F900104143388845F213677045F7
:101F900003D0A0F5BC42923A02D191FBF3F10AE0E2
:101FA000A0F5AA42FA3A01D0B84202D191FBF6F16B
:101FB00001E091FBFCF1594A2181BAF802105288E4
:101FC0008A1A6C49B1F902105143704503D0A0F54B
:101FD000BC42923A02D191FBF3F00AE0A0F5AA428A
:101FE000FA3A01D0B84202D191FBF6F001E091FB40
:101FF000FCF0A4F85400B8F90C3040F6B731A3F265
:102000002137012200208F4201D2207300E0227389
:10201000DFF864A144F6206CBAF900705F4397FBC7
:10202000FCF3A3F211136381B8F90E30A3F2213748
:102030008F4202D284F8580001E084F85820BAF99F
:1020400002705F4397FBFCF3A3F211134B4FA4F80C
:102050005630B8F90430B7F900707B4393FBF6F3C0
:10206000474E0F4647493380B8F90A30A3F221366C
:10207000BE4201D2086000E00A60DFF80CA1DFF880
:102080000CE1BAF900605E4396FBFCF3A3F2111376
:10209000AEF80030B8F91430A3F22136BE4201D2B6
:1020A000486000E04A60384EB6F902605E4396FB35
:1020B000FCF3A3F211131BB2AEF802309A46B8F942
:1020C0000630A3F22136BE4201D2886000E08A6069
:1020D0002D4A304F314EB2F904205A4392FBFCF2A4
:1020E000A2F211120FFA82F8AEF80480DFF8A0E035
:1020F000B7F900204FF47A6CBEF800305A4392FBD7
:10210000FCF2254B92B2642A1A8000D32A883280CE
:1021100046E00000BE0100100C000010D2030010C9
:10212000621C0010A4010200BA010010D8E40720CC
:10213000C20100101C01001050C00720FA0300105B
:10214000FC0000105E010010B0AD0100B460001092
:10215000E2030010C401001038C00720C6010010BF
:10216000E4030010C8010010CE03001028C00720AF
:10217000DA0300102CC00720D603001036C0072059
:10218000BC01001020EE072030C007205A020010CA
:1021900060020010DC03001066020010D80100107D
:1021A000BEF80220B7F9025008F21118554395FB0A
:1021B000FCF25A80FE4BFF4DDFF8FCC3B3F9002060
:1021C000B5F90060564341F2707296FBF2F6ACF836
:1021D0000060B3F90270B5F902607E4396FBF2F637
:1021E000ACF80260B3F90460B5F90450754395FB8F
:1021F000F2F5ACF80450DFF8C4C3B3F90660BCF9DB
:102200000050754395FBF2F6ED4D2E80B3F9087042
:10221000BCF902607E4396FBF2F66E80B3F90A3099
:10222000BCF904605E4396FBF2F2AA80E54D0AF227
:10223000111213B22B800FFA88F66E804A6812F0E2
:10224000FF022A728968C9B26972DF4D04D0012A7F
:102250000ED012B10DD020E011B1012910D01CE038
:10226000991901EBD1716FF4887202EB610113E0EF
:1022700011B1012908D010E0A6F211162E800CE051
:10228000A3F211132B8008E0D0490978052902D266
:10229000CF49098800E014212980CE490A78552ABF
:1022A00006D1B4F90220C82A02DD2389A9F8323008
:1022B000497855290BD1B4F94E10C82907DDB4F976
:1022C0005410B4F90820914201DDA9F83210C24936
:1022D0000022DFF808C3B1F900302CE002EB8201E4
:1022E0000CEB0111CD78192D1CD28D79CE7905EB2F
:1022F00006250D620D7A4E7A05EB0625CD618D7AA5
:10230000CE7A05EB06258D610D7B4D624D7B81F804
:102310004E508D7B81F83E500D7C4E7C05EB0625A2
:102320008D6406E088610862C861486281F83E00F9
:102330008864521CD2B29A42D0DBB4F90820B4F9B6
:10234000544092FBFBF294FBFBF111444942A44A36
:102350000CB2A44F1480002138800CE001EB810501
:102360000CEB0516F578052D03D2356A3E88354409
:102370003D80491CC9B29942F0DB3988214409B239
:102380001180002900DA1080974C0621A16197493D
:10239000B1F90050002D37D00022DFF8548231E02F
:1023A00098F80010114401EB81010CEB0111CB787E
:1023B000192B19D28B79CE7903EB062602EB820317
:1023C00004EB03131E620E7A4F7A06EB0726DE61DA
:1023D0008E7ACF7A06EB07269E610E7B5E62897B42
:1023E00083F83E1098700BE002EB820104EB0111C0
:1023F000192388610862C861486281F83E008B70C9
:10240000521CD2B2AA42CBDB14E47A4A7A48117841
:10241000062901D0022905D1517819B977490978DF
:10242000552902D07649098803E00178002901D0B6
:10243000491E017070477348416821F4402141F4FE
:1024400080214160416821F4403141F48031416094
:10245000416821F4404141F480414160416C21F4E4
:10246000402141F400214164416C21F4403141F4A8
:1024700000314164416C21F4404141F40041416428
:102480006148016821F0E0610160016841F40011D8
:102490000160016821F480310160016821F47F410D
:1024A00041F4807101608115C16058488903016061
:1024B00070472DE9F041564C60882188401A00B2DF
:1024C00003F0BDF9A51D2880A0886188401A00B2DC
:1024D00003F0B5F96880A0882188401A00B203F0A3
:1024E000AEF94FF49672A880A4F18401904201DA0B
:1024F000A0880AE0B5F90200904201DA608804E0A1
:10250000B5F90000904201DA2088888491F802C071
:102510000023BCF1000F22D03E48B1F9242004680A
:10252000144404604468144444608468144484601F
:10253000C4682244C2608A8D521C12B28A85B2F5E8
:10254000805F00DB8B85B1F92C2094052ED192128F
:1025500050F8224024124C8440F8223026E02E4FBE
:10256000C8780C7907EB8015B1F9242045F82420B0
:10257000A2070FD100252A4607EB801656F82270D5
:10258000521CD2B23D44102AF8D32A11214D203DCD
:1025900025F81020401CC0B2C870102806D3641C57
:1025A000E0B2CB700871102800D30B714B7035E08E
:1025B000266100100E0400106C02001064C0072099
:1025C000720200107AEE0720D0010010F700001010
:1025D000DC0100105C0100104E01001070E50720C6
:1025E000BE0100100604001030E907205001001061
:1025F000E600001020020010C5000010E5000010E9
:102600006E01001000C002400040034000E100E005
:1026100090000010D4600010B45C00100CF1010CAC
:102620001CF00103F74AF8488B700DD0016C41F0A3
:1026300080010164416D41F080014165106820F026
:10264000FF00001D106032E0C9780B07002B1368F3
:1026500023F0FF0301DB5B1C01E003F102031360C5
:10266000036843F080530360036A43F080430362CE
:10267000036E43F080630366CB07436908D043F0E1
:10268000805343618B07436B05D423F0804304E000
:1026900023F08053F5E743F0804343634907416FDC
:1026A00002D421F0806101E041F08061416710684F
:1026B00040F080701060BDE8F081F0B5D348B0F90B
:1026C0001E1019B1A1F10101C1837EE00022D14C9D
:1026D00082731346CE49B4F900400EE003EB830544
:1026E00001EB0515AE78012E05D1ED78142D02D23F
:1026F000857B6D1C85735B1CDBB2A342EEDB867BA6
:10270000022E62D341F28833C0E919230023C26646
:1027100015E000BF03EB830501EB0515AF78012F32
:102720000BD12D6A476EBD4200DD4566876EBD4206
:1027300000DA8566C76E3D44C5665B1CDBB2A3420A
:10274000E8DBC36E012593FBF6F70767836E03B9D9
:102750008566436E64267343866E93FBF6F3436788
:10276000A02B00DD4573782B01DA42732DE0407B0E
:1027700001282AD100226FF0310324E002EB82000D
:1027800001EB00108578012D1BD1056ABD4205DDE6
:10279000B0F84C50A5F10105A0F84C5005DAB0F89E
:1027A0004C5005F10105A0F84C50B0F94C509D4239
:1027B00002DAA0F84C3004E0322D02DD3225A0F818
:1027C0004C50521CD2B2A242D8DB00BFF0BD70B553
:1027D00091480168914A114001608B4C216841F495
:1027E0007C712160C16921F44021C161216E41F0F9
:1027F00000712166416821F040614160206840F02D
:10280000005020608748864B88490278864893F8B4
:102810003C50B1F900100078154307D030B10529BC
:1028200004DDA56945F48075A56103E0E56945F41B
:102830008075E56193F88830134307D030B10529DE
:1028400004DDA06940F04000A06103E0E06940F0D1
:102850004000E061D220FDF7CAFC754D48B16868C0
:10286000012801D028B108E0A06940F00050A06123
:1028700003E0E06940F00050E061D220FDF7B7FCD2
:102880006C4E10B12868662815D03068C007A0B11A
:10289000E06F40F00070E067D220FDF7A8FC10B1B7
:1028A00028686C280ED03068800710D4E06940F0AA
:1028B0001000E0610FE06868E9E7A06F40F0007089
:1028C000A067E9E768680028F0D0012803D1A06973
:1028D00040F01000A061D220FDF789FC10B12868FB
:1028E0006D2807D03068400709D4E06940F40070D3
:1028F000E06108E068680028F7D0012803D1A069EA
:1029000040F40070A061D220FDF771FC10B128687E
:102910006A2804D0306810F4FF6F05D009E06868B9
:1029200010B1012805D008E0E06940F08000E061C6
:1029300003E0A06940F08000A061D220FDF757FCC1
:1029400010B128686B2807D03048007830B1E069B2
:1029500040F02000E06170BD6868F7E7A06940F0D2
:102960002000A06170BD2DE9F05F284C00264FF0DB
:102970000108E07C0A2807D2401CC0B2E0740A2893
:1029800002D3E67484F81480A4F84060A4F842608E
:10299000CD20FDF72CFC1E4DDFF8789088B324483D
:1029A0004FF6FF720168CE2908D0CF2909D0D1296E
:1029B00009D0D2290BD0D0290CD011E0A4F84220A4
:1029C0000EE040680AE04068A4F8400008E0A4F87F
:1029D000402005E04068A4F84000C043A4F842004D
:1029E000002743E008FA07F0B4F842108346084293
:1029F00007EB870005EB00101ED0818F491C8187F3
:102A00001BE038E00040034000C009200C0000102B
:102A100070E507204E01001000C00240FF00F0FFEB
:102A2000D8E4072025C00720C8000010FC000010D3
:102A300008C00720AC000010868707EB870005EB75
:102A4000001082463C3032220021FDF723FCBAF907
:102A50003C00142801DD8AF82880B4F840101BEAF5
:102A6000010F01D08AF828607F1CFFB2B9F900007D
:102A70008742B7DD40E0207D98B3002108464346F9
:102A8000B9F9002008E000BF00EB800705EB07174D
:102A9000401C87F82830C0B29042F5DDD64B0020AC
:102AA000B3F9003012E000BF00EB800705EB071719
:102AB00097F802C0BCF1020F02D0BCF1010F03D1A4
:102AC000491C87F82860C9B2401CC0B2904201DAA4
:102AD0009942E9DBC948B0F900003C280CDA002033
:102AE00008E009E000EB800105EB0111401C81F8D2
:102AF0002860C0B29042F5DD00206323B9F90010D0
:102B00000CE000BF00EB800205EB0212976B1FB1D7
:102B100082F828307F1E9763401CC0B28842F1DBE8
:102B20002675267400200BE000EB800205EB0212F4
:102B30009278012A02D1227C521C2274401CC0B21D
:102B40008842F1DB60E470B5044607220121AC48FD
:102B5000FDF795FBAB4804EB840100EB0115AA4897
:102B600095F83F1095F83E20514000D041700A4042
:102B700000D0827001EA0203DB071ED0C178491C35
:102B8000C17034B1012C09D0022C0CD0032C0FD011
:102B9000E4E001231A460E219CA0DDE0012302227D
:102BA0000E21A1A0D8E0012303220E21A5A0D3E08D
:102BB000012304220E21AAA0CEE08B0720D5930783
:102BC0001ED5C178491CC17034B1012C09D0022C2A
:102BD0000CD0032C0FD0C1E0022301220E21A7A0AC
:102BE000BAE002231A460E21ABA0B5E0022303226D
:102BF0000E21B0A0B0E0022304220E21B4A0ABE06D
:102C00004B0720D553071ED5C178491CC17034B17C
:102C1000012C09D0022C0CD0032C0FD09EE00323F2
:102C200001220E21B1A097E0032302220E21B6A0BB
:102C300092E003231A460E21BAA08DE0032304225A
:102C40000E21BFA088E00B0720D513071ED5C17841
:102C5000491CC17034B1012C09D0022C0CD0032CBA
:102C60000FD07BE0042301220E21BCA074E00423DA
:102C700002220E21C2A06FE0042303220E21C9A06C
:102C80006AE004231A460E21CFA065E0CB0620D5CA
:102C9000D3061ED5C178491CC17034B1012C09D0AE
:102CA000022C0CD0032C0FD058E0052301220E215A
:102CB000CEA051E0052302220E21D5A04CE0052331
:102CC00003220E21DBA047E0052304220E21E2A00F
:102CD00042E08B0620D593061ED5C178491CC170F1
:102CE00034B1012C09D0022C0CD0032C0FD035E0CC
:102CF000062301220E21E1A02EE0062302220E214E
:102D0000E7A029E0062303220E21EEA024E00623FB
:102D100004220E21F4A01FE001B3FAB9C178491CC6
:102D2000C17034B1012C09D0022C0CD0032C0FD06F
:102D300014E0002301220E21F4A00DE00023022262
:102D40000E21F7A008E0002303220E21F9A003E0E2
:102D5000002304220E21FCA016F04AFD15F83E0FB8
:102D6000687070BD2DE9F041074600EB8701FB4814
:102D700000EB0114207803283BD194F83E50A807BB
:102D8000B4F9420010D54FF4966188421ADA401C1B
:102D900000B2A4F84200884214DBA4F84210607824
:102DA000C0070FD1012209E060B1401E00B2A4F8B3
:102DB000420038B96078C00704D0002200213846AC
:102DC00001F0F8FD2807B4F944004FF00A064FF06F
:102DD00000010FD50A280EDA401C00B2A4F8440006
:102DE0000A2808DBA4F844606078800703D4012235
:102DF000C0E111E2B4E1C6E158C00720FC000010B8
:102E0000E600001030E907208C000010496E76655E
:102E100072746F7220233120416C61726D2C206FAF
:102E20007665726C6F616400496E766572746F725C
:102E300020233220416C61726D2C206F7665726C9C
:102E40006F616400496E766572746F72202333205F
:102E5000416C61726D2C206F7665726C6F616400DD
:102E6000496E766572746F7220233420416C6172F2
:102E70006D2C206F7665726C6F616400496E7665AB
:102E800072746F7220233120416C61726D2C206F3F
:102E90007665726865617400496E766572746F72EA
:102EA00020233220416C61726D2C206F7665726830
:102EB00065617400496E766572746F7220233320E9
:102EC000416C61726D2C206F76657268656174006B
:102ED000496E766572746F7220233420416C617282
:102EE0006D2C206F7665726865617400496E766539
:102EF00072746F7220233120416C61726D2C2069D5
:102F000073207761726D0000496E766572746F721E
:102F100020233220416C61726D2C2069732077610F
:102F2000726D0000496E766572746F7220233320D3
:102F3000416C61726D2C206973207761726D0000A5
:102F4000496E766572746F7220233420416C617211
:102F50006D2C206973207761726D0000496E766573
:102F600072746F7220233120416C61726D2C207657
:102F70006F6C7461676520697320757000000000D4
:102F8000496E766572746F7220233220416C6172D3
:102F90006D2C20766F6C7461676520697320757085
:102FA00000000000496E766572746F722023332032
:102FB000416C61726D2C20766F6C7461676520695D
:102FC0007320757000000000496E766572746F7230
:102FD00020233420416C61726D2C20766F6C7461FB
:102FE000676520697320757000000000496E766582
:102FF00072746F7220233120416C61726D2C2076C7
:103000006F6C7461676520697320646F776E000070
:10301000496E766572746F7220233220416C617242
:103020006D2C20766F6C7461676520697320646F06
:10303000776E0000496E766572746F7220233320BC
:10304000416C61726D2C20766F6C746167652069CC
:103050007320646F776E0000496E766572746F72CC
:1030600020233420416C61726D2C20766F6C74616A
:10307000676520697320646F776E0000496E76651E
:1030800072746F7220233120416C61726D2C206F3D
:103090007574707574206973206F666665640000CE
:1030A000496E766572746F7220233220416C6172B2
:1030B0006D2C206F7574707574206973206F66664F
:1030C00065640000496E766572746F722023332048
:1030D000416C61726D2C206F75747075742069730A
:1030E000206F666665640000496E766572746F7263
:1030F00020233420416C61726D2C206F75747075C3
:1031000074206973206F666665640000496E766599
:1031100072746F72202331206973206E6F726D009C
:10312000496E766572746F72202332206973206E47
:103130006F726D00496E766572746F722023332052
:103140006973206E6F726D00496E766572746F726E
:10315000202334206973206E6F726D0070E50720A4
:1031600000280DDDA0F1010000B2A4F8440050B920
:103170004FF000024FF00101384601F01BFC02E065
:1031800001DAA4F84410E806B4F946000ED50A287E
:1031900017DA401C00B2A4F846000A2811DBA4F894
:1031A0004660607840070CD4012206E048B1401E1A
:1031B00000B2A4F8460020B900220221384601F0EE
:1031C000F9FB6078000701D0042011E0FF48007887
:1031D00020B1E078142801D9052009E094F83E00D8
:1031E000800601D5022003E0E078142801D20120F6
:1031F000A070E0780A2894F8280002D340F08000FC
:1032000001E000F07F00F24984F82800B4F94C0096
:10321000B1F91A100844E062BDE8F08170B5ED49DB
:103220000020ED4DB1F90C200121034601FA00F414
:10323000224201D0295400E02B54401CC0B20C287B
:10324000F4D3E64C2878E64E217881420CD0B6F9CA
:103250000010012908DB01287ED0002301220B2168
:10326000E0A000BF16F0C4FA6178687881420BD004
:10327000B6F90010022907DB01286ED000230222D4
:103280000B21DDA016F0B4FAA178A87881420BD00A
:10329000B6F90010032907DB01287CD000230322A4
:1032A0000B21DAA016F0A4FAE178E87881420BD07D
:1032B000B6F90010042907DB012872D0002304228C
:1032C0000B21D7A016F094FA2179287981420BD0EE
:1032D000B6F90010052907DB012867D00023052275
:1032E0000B21D4A016F084FA6179687981420BD061
:1032F000B6F90010062907DB01285CD0002306225E
:103300000B21D1A016F074FAA179A87981420BD0D3
:10331000B6F90010072907DB012851D00023072246
:103320000B21CEA016F064FAE179E87981420BD046
:10333000B6F90010082907DB012846D0002308222F
:103340000B21CBA016F054FA217A287A81420FD0B3
:10335000B6F90010092901E013E017E008DB0128A5
:1033600038D0002309220B21C6A000BF16F040FA76
:103370000020295C2154401CC0B20C28F9D370BD38
:1033800009E001231A460B21C3A06BE701230222A7
:103390000B21C6A076E7012303220B21C8A081E7F9
:1033A000FFE7012304220B21CAA08BE7012305229A
:1033B0000B21CDA096E7012306220B21CFA0A1E788
:1033C000012307220B21D2A0ACE7012308220B2105
:1033D000D4A0B7E7012309220B21D7A0C6E770B517
:1033E000C820FCF704FFD9490022A0B3D84C012320
:1033F0002068C92803D0CA28104611D02CE000202C
:1034000000EB400404EB001411F82450322D02D2DA
:103410006D1C01F82450401CC0B20228F0D325E0F6
:10342000D4F8045003FA00F4254200EB400409D01C
:1034300004EB001611F82640322C07D2641C01F868
:10344000264003E004EB001401F82420401CC0B225
:103450000228E7D30AE01FE000EB400404EB00146D
:10346000401CC0B201F824200228F5D35FF0000010
:1034700000EB400404EB001411F8245001EB840429
:10348000142D02D984F83C3001E084F83C20401C23
:10349000C0B20228ECD372E700EB400303EB001349
:1034A000401C01F8232001EB8303C0B283F83C20C9
:1034B0000228F1D363E72DE9F041A64FA648A74CB7
:1034C000B7F90010B0F90020B4F90000914202DD14
:1034D00000F1010002E002DAA0F1010020800622E2
:1034E00000219E48FCF7D6FEB4F900109C48012646
:1034F000052900DD06700024012900DA04709948CE
:10350000B7F90010994DB0F900209748931E9942E1
:103510000BDA90F900201E2A16DA521C52B2027001
:103520001E2A11DB2A88521E0CE091420BDD90F915
:1035300000201E2A08DA521C52B202701E2A03DB37
:103540002A88521C2A8004708948B846B0F90000C5
:10355000814201DD142203E086480088093002B26E
:1035600000218248FCF796FEF020FCF740FE28B1CF
:1035700077480168F12901D140682880B5F9001029
:103580007D48012901DC067000E004707B487C4F17
:10359000B0F90000A0F13201282915D8B8F90010BF
:1035A000784D814202DD2888401C28807648B0F999
:1035B0000000814202DA2888401E2880062200216D
:1035C0007048FCF767FEE1E0E7E00000EB00001068
:1035D0000C0000102661001098EE0720C2EE0720B4
:1035E000580100104176746F6D6174202331206999
:1035F00073204F46460000004176746F6D61742061
:103600002332206973204F46460000004176746FD4
:103610006D6174202333206973204F4646000000FB
:103620004176746F6D6174202334206973204F4696
:10363000460000004176746F6D6174202335206967
:1036400073204F46460000004176746F6D61742010
:103650002336206973204F46460000004176746F80
:103660006D6174202337206973204F4646000000A7
:103670004176746F6D6174202338206973204F4642
:10368000460000004176746F6D6174202339206913
:1036900073204F46460000004176746F6D617420C0
:1036A0002331206973204F4E200000004176746F53
:1036B0006D6174202332206973204F4E200000007A
:1036C0004176746F6D6174202333206973204F4EEF
:1036D000200000004176746F6D61742023342069EE
:1036E00073204F4E200000004176746F6D6174208E
:1036F0002335206973204F4E200000004176746FFF
:103700006D6174202336206973204F4E2000000025
:103710004176746F6D6174202337206973204F4E9A
:10372000200000004176746F6D6174202338206999
:1037300073204F4E200000004176746F6D6174203D
:103740002339206973204F4E20000000D8E4072061
:1037500008C00720D00100103E0100106AC00720F9
:1037600026C007204001001024C00720E0010010FF
:1037700042010010DA010010CC03001048010010D3
:1037800025C00720140400104A010010B5F90000FC
:10379000052800DD3E70012800DA3C70FE48FF4F2E
:1037A000B0F90000A0F132011E291BD8B8F90010B1
:1037B000FB4D814202DD2888401C2880F948B0F981
:1037C0000000814202DA2888401E2880062200215B
:1037D000F348FCF75FFDB5F90000052800DD3E70F9
:1037E000012800DA3C7017E52DE9FC5F0546EE483C
:1037F00030F9151011B1491E20F81510EA49091DBC
:1038000031F9152012B1521E21F8152005EB4502A1
:1038100002EB0513E54A02EB8304E54BB4F90820FB
:10382000B3F900606423B24201DD20F81530002AAC
:1038300001DA21F81530DC4A30F81530783A0026E4
:103840004BB131F8153033B1B2F85830B3B140F65E
:10385000B830A2F85600A2F8566094F83E00401C1A
:10386000C0B284F83E000A2801D384F83E60D14FEC
:10387000DFF844833888322809D017E04FF41673F4
:10388000A2F8583020F8156021F81560E3E794F8A5
:103890003C00F8B9B4F9020050281BDA94F83D0056
:1038A000C00717D10121284601F08CFBB7F90000B1
:1038B000C8280FDDB4F90800FCF722FDB8F90010A4
:1038C000884207DD94F83D00C00703D00021284658
:1038D00001F078FBB8F90000B4F9081040428142C9
:1038E00012DD607B0A280CD2401CC0B260730A282B
:1038F00075D3A07B002872D0A673284601F013FA76
:103900006DE00A2060736AE069DA607BF0B3401E04
:1039100010F0FF00607362D1A07BB8BB0120A073E0
:10392000A648A74F0088401C00F0070004EB4000A9
:10393000008CADF80400B88B8DF800004FF06302E6
:103940004FF001016846FCF79AFC04F11C049DF855
:1039500000002076387E8DF800004FF00C024FF00A
:1039600001016846FCF78BFC9DF800006076387B0F
:103970008DF800001F2201216846FCF780FC9DF8AD
:103980000000A0769DF80400E07600E027E0387A99
:103990008DF80000172200216846FCF770FC9DF8A6
:1039A0000000207738798DF800003B22002168461E
:1039B000FCF765FC9DF80000607738788DF8000012
:1039C0003B2200216846FCF75AFC9DF80000A077D6
:1039D0009DF80500E07726806680A4F11C0448F677
:1039E000A04894F83E0088BBB4F908006169DFF88C
:1039F000D4A10844DFF8D09145F2555B60614045A1
:103A000025DB39F915205A4503D1704830F8157077
:103A100001E039F815703AF8150017F0AFFA80B2E6
:103A2000B8420AD2616900F10100A1F50041A1F597
:103A30004A6161613AF915202BE031D93AF9150054
:103A400039B217F08FFBC4F8148029E044E06049D4
:103A5000884225DC39F915205A4503D15B4830F8F6
:103A6000157001E039F815703AF8150017F086FA6C
:103A700080B2B84205D93AF9150039B217F072FB95
:103A8000384658B16269401E02EB080161613AF99B
:103A9000152001B2104617F065FB01E04C4860614B
:103AA0003AF8150017F06AFA014639F91500584539
:103AB00002D1464830F915004FF47A72514308B1EB
:103AC000B1FBF0F00A21B0FBF1F0208204F110000C
:103AD00064220021FCF7DEFBA07B012813D1A08B20
:103AE0004746B8420ED2B4F90800FCF709FCA18B96
:103AF000084480B2A083B84205D3A683E08B401C63
:103B0000E08300E0A6833349B4F90A00B1F900105C
:103B1000884201DD207BF0B3B4F84000B0F1010031
:103B2000A4F840004FF4167904F140004A46002101
:103B3000FCF7B0FBB4F9400040F24E27B84205DB79
:103B400094F83F1041F0010184F83F100A2805DC89
:103B500094F83F0020F0010084F83F001E48B4F9BB
:103B60000A10B0F90000814201DD207BB0B3B4F847
:103B70004200401EA4F8420004F142004A460021DF
:103B8000FCF788FBB4F94200B8422ADB94F83F10F6
:103B900041F0020123E041E044010010CD03001098
:103BA0006CC007204601001084000010D8E40720F4
:103BB00028010010FA00001020010010BA010010C6
:103BC00020400240780102000802001000020010AC
:103BD0006073FFFF3A0100103801001022E084F802
:103BE0003F100A2805DC94F83F0020F0020084F81A
:103BF0003F00606C404519DA401C6064404516DBAC
:103C00006664F84C34F8150017F0B8F9401C01B29E
:103C100034F91500BDE8FC5F17F0A4BAB4F8400011
:103C2000401C7DE7B4F84200401CA3E76664BDE891
:103C3000FC9FF8B5EC4C0021A0790A2807D2401C63
:103C4000C0B2A0710A2802D3A17101202072E079CC
:103C5000052805D2401CC0B2E071052800D1E171F1
:103C6000BE20FCF7C4FAE14928B1E1480268BF2A46
:103C70005BD1406858E0207A88B3DE4A1078552836
:103C800005D05078552802D0DB4800884CE0DB4D49
:103C900000204FF0140C6B466FF01307165C552E86
:103CA0000FD023F81070401CC0B20228F6D3BDF923
:103CB0000030BDF90220D248934215DD1A46036058
:103CC00013E000EB400606EB001605EB860696F8BF
:103CD0000CE0BEF1000F03D023F810C0E3E724E0AE
:103CE000768923F81060DEE70260C64B002A02DA0C
:103CF000B3F9000012E0282A01DD28220260C24A3E
:103D0000B3F900300068B2F90020D21A02EB820247
:103D100052004243C82092FBF0F01844627D022A10
:103D200002D1BA48B0F900000880B1F90000622160
:103D30004143642291FBF2F1B54B1980662148435F
:103D400090FBF2F0B3490880F8BD2DE9F041A64C94
:103D5000B4F9200008B1401E2084AF48AF4DA74EF3
:103D600000882880B6F908000A27002806DAFCF740
:103D7000C7FA90FBF7F0298808442880B6F9540068
:103D8000002806DAFCF7BCFA90FBF7F02988084413
:103D90002880A349B5F90000A24AB1F900103C23DC
:103DA00090FBF1F1491CC9B26174B2F9002090FB9B
:103DB000F2F0401CC2B29C48A274B0F90050A94273
:103DC00001DD018004E0AA4203DA218C09B90280F6
:103DD000238496490A8896490AB10A880280B1F973
:103DE0000020BDE8F04101218F48FCF753BA2DE9CE
:103DF000F05F90487C4CB0F90010A186B4F95600F1
:103E000010B1401EA4F85600B4F9580010B1401E7D
:103E1000A4F8580079484FF00A0890F83F2092071C
:103E200003D190F88B00800702D091FBF8F0A086B8
:103E3000607A4FF000094FF0010A0A2808D2401CAE
:103E4000C0B260720A2803D384F8099084F80AA0EB
:103E5000E120FCF7CCF9784F644B40F2F23BD0B351
:103E600063490868642808D069280AD06E280CD0F5
:103E7000E5281ED0E6281ED0F7E04968A08B08444C
:103E8000F2E04868A18B081AEEE0608B401E00B299
:103E900060831E2806DD6949B7F90000B1F90010FA
:103EA000884205DA0A230022E721E620FCF768F9B8
:103EB000DBE04868D8E0B7F90000B3F900108842A9
:103EC00011DDA0EB01000A2806DDB4F91A00002874
:103ED00002DD401FC8E01BE0B4F91A0078B3A17AF4
:103EE00069B3401EC0E02ADA081A0A2807DDB4F9CF
:103EF0001A0040F2F731884201DA401DB4E0B4F90B
:103F00001A00B0F57F7F1ADAA17AC1B1401CABE08C
:103F1000A07AA0B1B4F91C002086B4F93210A28EA8
:103F200091FBF8F5B5EB420F57DC0DDAC2EB021648
:103F30008E4209DAB4F8561021B1401E8CE094E0AC
:103F40000A3889E0C01E87E0C2EB02168E4201DD0E
:103F50009542F2DCB7F90050B3F90030294F2A4EF0
:103F60009D4231DAB7F90070B6F90060A7EB06069A
:103F7000A3EB0607AF4215DD00291ADAB4F8561094
:103F800071B90A3068E000BFB4F8561041B915E0C5
:103F9000C2EB421303EB8212B2FBF8F28A425CDD01
:103FA000401C59E0F71706EB9776A3EBA606AE4246
:103FB00006DD02EB82038B42EADDE5E7801C4BE085
:103FC0005B1E9D42E4DB48E047DDB7F90010B6F91F
:103FD0000020891ACA18AA4232DAB4F85610002909
:103FE000AED0AAE7940102000C000010D20100102C
:103FF00008C007205C0100102A010010D8E4072047
:104000005CC00720100100101201001022010010F6
:104010000404001056C007200604001060C00720EA
:10402000240100102601001058C00720360100109E
:104030004E01001028010010BC0100101A010010F0
:10404000CA1701EB927103EBA101A94218DAB4F887
:1040500056100029C5D1801E20865A460A21E548FF
:10406000FCF718F9208EA0836083E44884F80C9054
:1040700084F80B904D46E04B5246B0F900100DE02D
:104080005B1C9D42ADDCE8E700EB800603EB061607
:10409000F6781E2E00D22273401CE072E07A88422D
:1040A000F2DB207B20B94FF416706083A08320865A
:1040B000D0485A460A211638FCF7ECF8A572BDE83C
:1040C000F09F2DE9F05FD04E0020CD49DFF834831A
:1040D0004FF00A0B8246B6F9003024E0CB4ACC4CB4
:1040E000125C34F91220B2F5FA6F0A560DDA0A2A78
:1040F00008DA521C52B20A540A2A12DB012208F8CA
:1041000000200EE001F800B00BE0002A07DB521E91
:1041100052B20A54002A04DC08F800A001E001F8B9
:1041200000A0401CC0B29842D8DB0024DFF8E49223
:10413000B94DBA4F71E0BA4830F81400002818F8A9
:10414000040001D078B101E001280CD019F9040075
:10415000002818DB401E40B209F80400002814DCD7
:1041600005F804A011E019F904100A2908DA491C1D
:1041700049B209F804100A2907DB0120285504E098
:1041800009F804B001E009F804A0395D285D814216
:104190003FD0984A303AD18D491CD185012807D0AB
:1041A00014B3012C25D0022C28D0032C2BD030E0C6
:1041B00034B1012C09D0022C0CD0032C0FD028E0F4
:1041C00001231A460F2197A021E0012302220F218B
:1041D00097A01CE0012303220F2198A017E00123E0
:1041E00004220F2198A012E0002301220F2199A0A0
:1041F0000DE0002302220F219BA008E000230322F0
:104200000F219EA003E0002304220F21A0A015F09F
:10421000EFFA285D3855641CE4B2B6F90000844218
:1042200089DB4CE79F49A04A012008701070487054
:10423000507070472DE9F05F9D48DFF878E2DFF8B5
:104240006CC2B0F90070BEF900006A4CC0EB0011FE
:10425000303CBCF902506FF01D0A6FF0950B002640
:10426000DFF84082B4F938000AEB81020BEB8103DE
:10427000BD4204DC904FB7F90070BD4205DA8242BE
:1042800003DD834201DA88F800608C4DE146BCF919
:1042900008C0B5F90050844FBCEB450F03DC6D42FC
:1042A000BCEB450F04DA824202DD834200DA3E7045
:1042B0006FF0090202EB81017546814220D1607DD9
:1042C000F0B998F8000001281AD13878012817D1E0
:1042D0004FF4D67016F052FE7949B1F900108842B9
:1042E0000ED07848008858B199F83D00C00707D132
:1042F0004FF4D67016F036FF73480178491C0170F0
:104300006B49B9F902204846B1F900108A4206DC2F
:104310006949B0F94E20B1F900108A420FDAB5F9B7
:104320000010B4F93820C1EB01110AEB810393426C
:1043300005DD0BEB8101914201DA88F801605F49EC
:10434000B9F95400B1F90010B0EB410F03DC494258
:10435000B0EB410F0EDAB5F90000B4F93810C0EB3C
:1043600000100AEB80028A4204DD0BEB80008842D9
:1043700000DA7E70B5F90000C0EB00116FF00900A3
:1043800000EB8100B4F93810884222D1607D00BB77
:1043900098F8010001281CD17878012819D14FF430
:1043A000E576304616F0EAFD02464548B0F90210BF
:1043B0008A420ED04348008802280AD199F8890021
:1043C000C00706D1304616F0CDFE3F480178491CA3
:1043D0000170B5F900006FF00101C0EB001001EBB6
:1043E0008000B4F93810884202D1BDE8F05F19E7C7
:1043F00065E670473C00001070E507204E01001094
:10440000FC030010E70100105401001073010200CA
:10441000B460001051C00720EB0100100004001030
:1044200078020010534B20233120416C61726D00E3
:10443000534B20233220416C61726D00534B20237B
:104440003320416C61726D00534B20233420416C4A
:1044500061726D00534B20233120416C61726D20DD
:104460006973206F66660000534B20233220416C35
:1044700061726D206973206F66660000534B2023C4
:104480003320416C61726D206973206F6666000095
:10449000534B20233420416C61726D206973206F6F
:1044A000666600000804001062C00720D8E40720F8
:1044B00056C0072030010010040400102001001035
:1044C000080200104C0100100A04001070B5F848F2
:1044D0000278F848016812B141F0010101E021F0D1
:1044E000010101600021F44C5FF0010301EB410286
:1044F00002EB011204EB820292F83D20D20706D0B3
:104500004D1C03FA05F205689543154304E04A1C67
:10451000056803FA02F29543491CC9B205600229F5
:10452000E4D3E64C002100BF01EB810204EB021250
:10453000527832B1CD1C03FA05F205689543154354
:1045400003E0CA1C03FA02F29543491CC9B2056094
:104550000C29E9D32946D74D00221435AC5C34B17F
:1045600002F10F0603FA06F4A143214304E002F12D
:104570000F0403FA04F4A143521CD2B2062AEDD36D
:10458000CF4D00220160AC5C012C2FD002F1190448
:1045900003FA04F4A143521CD2B2042AF3D30160FB
:1045A000836821EA0302C26044681443C54A446038
:1045B000158815B124F00074446054881CB1446817
:1045C00024F08064446094881CB1446824F0006442
:1045D0004460D2881AB1426822F0805242608B4314
:1045E000DA43B94B02611B883BB109E002F11906BD
:1045F00003FA06F4A1432143CDE762F00102026110
:10460000036942681A40C0E9012170BDF8B54FF452
:104610006065284616F0B2FC401C04463F2800D9CD
:10462000002421B2284616F09DFD40F60266304671
:1046300016F0A4FC3F2800D0204601B2304616F008
:1046400091FD284616F09AFC4FF4806101EB401072
:10465000054655208DF8000000268DF80160522097
:104660008DF802008DF803606946284616F0FFFDBC
:104670006946281D009616F0FAFD944CA08B8DF823
:104680000000207E8DF80100207B8DF802008DF85F
:104690000360694605F1080016F0E9FD207A8DF8FF
:1046A000000020798DF8010020788DF802008DF847
:1046B0000360694605F10C0016F0D9FD41248DF820
:1046C00000408DF801408DF802408DF803406946A6
:1046D00005F1100016F0CBFD8DF800408DF801407B
:1046E0008DF802408DF80340694605F1140016F07C
:1046F000BEFD8DF800408DF801408DF802408DF828
:104700000340694605F1180016F0B1FD8DF8004030
:104710008DF801408DF802408DF80340694605F19F
:104720001C0016F0A4FDF8BD2DE9F843674D604A62
:10473000203D00262F154FF46061012802D000288B
:104740007DD034E1012010708846084616F016FC32
:10475000401C04463F2800D9002421B2404616F0F0
:1047600001FD40F60269484616F008FC3F2800D0DB
:10477000204601B2484616F0F5FC404616F0FEFB16
:1047800007EB401750208DF800008DF801604124A0
:104790008DF802408DF803606946384616F067FDD3
:1047A0006946381D009616F062FD05F12005A88BBC
:1047B0008DF80000287E8DF80100287B8DF802001E
:1047C0008DF80360694607F1080016F050FD287A5D
:1047D0008DF8000028798DF8010028788DF8020006
:1047E0008DF80360694607F10C0016F040FD8DF866
:1047F00000408DF801408DF802408DF80340694675
:1048000007F1100016F033FD8DF800408DF80140DF
:104810008DF802408DF80340694607F1140016F048
:1048200026FD8DF800408DF801408DF802408DF88E
:104830000340694607F1180016F019FD00E011E089
:104840008DF800408DF801408DF802408DF803404E
:10485000694607F11C0016F00AFD0023012202211F
:104860001BA0A2E013481670B046026822F00102B5
:104870000260154A12881AB1426822F001024260B1
:10488000084616F07BFB06463446B94609EB44174A
:104890006946384616F0EFFB9DF8000050283CD1E1
:1048A0009DF80100C8BB9DF80200412835D11FE0EA
:1048B000EB000010A8000010D8E4072070E50720E6
:1048C000EB01001088020010180100102040024087
:1048D0004D61696E20706F776572206973206F6615
:1048E00066000000641E00E03F24B442CED15EE0CA
:1048F000694607F1100016F0BEFB9DF80000412844
:104900000BD19DF80100412807D19DF802004128F4
:1049100003D19DF80300412802D0002CE4D0E1E748
:1049200005F12005A88B8DF80000287E8DF8010088
:10493000287B8DF8020044468DF80380694607F114
:10494000100016F094FC287A8DF8000028798DF874
:10495000010028788DF802008DF80340694607F1C0
:10496000140016F084FCFF48422401788DF80010F2
:1049700040788DF801008DF802408DF803406946BB
:1049800007F1180016F073FC8DF800408DF8014017
:104990008DF802408DF80340694607F11C0016F0BF
:1049A00066FC01231A460221EFA014F021FF00BF8C
:1049B000BDE8F8832DE9F84F05460C004FF054068A
:1049C0000BD0012C04D0022C04D0032C04D004E022
:1049D000552602E0752600E04C26E949DFF89CA345
:1049E00005EB85034FF0000B4FF460604FF48069D6
:1049F00001EB0311012A02D0002A7DD090E134B1ED
:104A0000012C08D0022C0AD0032C0CD00FE04A78DD
:104A100042F001020AE04A7842F0020206E04A78D7
:104A200042F0040202E04A7842F008024A7081F83B
:104A30004F40804616F0A2FA401C87B23F2F00D9A3
:104A4000002739B2404616F08DFB40F6026016F0A2
:104A500095FA80B23F2800D0384601B240F6026095
:104A600016F080FB404616F089FA09EB401087B239
:104A700053208DF800008DF801508DF80260D84663
:104A80008DF803B06946384616F0F1FB6946381DCB
:104A9000CDF8008016F0EBFBBAF83C000AF12006D6
:104AA0008DF80000307E8DF80100307B8DF802001B
:104AB0008DF80380694607F1080016F0D8FB307ABC
:104AC0008DF8000030798DF8010030788DF8020003
:104AD0008DF80380694607F10C0016F0C8FB4126EB
:104AE0008DF800608DF801608DF802608DF803602C
:104AF000694607F1100000E084E016F0B8FB8DF87D
:104B000000608DF801608DF802608DF803606946E1
:104B100007F1140016F0ABFB8DF800608DF8016012
:104B20008DF802608DF80360694607F1180016F0F1
:104B30009EFB8DF800608DF801608DF802608DF8A5
:104B40000360694607F11C0016F091FB25B1012DA9
:104B500020D0022D3AD0E3E034B1012C09D0022C50
:104B60000CD0032C0FD0DBE000230122042185A010
:104B70000DE001231A46042188A008E00223012247
:104B800004218DA003E003230122042192A014F04C
:104B90002FFEC5E034B1012C09D0022C0CD0032C1F
:104BA0000FD0BDE000230222042193A0EFE70123F0
:104BB0000222042196A0EAE702231A4604219BA0C0
:104BC000E5E7032302220421A0A0E0E734B1012C91
:104BD00009D0022C0CD0032C0FD0A1E0002303221B
:104BE0000421A2A0D3E7012303220421A5A0CEE73C
:104BF000022303220421AAA0C9E703231A460421A1
:104C0000AFA0C4E734B1012C08D0022C0AD0032C89
:104C10000CD00FE04A7822F001020AE04A7822F034
:104C2000020206E04A7822F0040202E04A7822F00A
:104C300008024A7016F0A2F984B2A04609EB4410AB
:104C400087B26946384616F016FA9DF800005328D8
:104C500024D19DF80100A84220D19DF80200B04265
:104C60001CD1694607F1100016F005FA9DF8000006
:104C7000412813D106E0641EA4B200E03F2444455D
:104C8000DCD14DE09DF80100412807D19DF80200DC
:104C9000412803D19DF80300412802D0002CEDD01B
:104CA000E9E7BAF83C000AF120048DF80000207E04
:104CB0008DF80100207B8DF802005D468DF803B071
:104CC000694607F1100016F0D2FA207A8DF800003C
:104CD00020798DF8010020788DF802008DF80350BE
:104CE000694607F1140016F0C2FA42248DF800401C
:104CF0008DF801408DF802408DF80340694607F1B8
:104D0000180016F0B4FA8DF800408DF801408DF8C7
:104D100002408DF80340694607F11C0016F0A7FA1F
:104D200000BFBDE8F88F2DE9FC41064600EB4600C8
:104D300000EB06116A4800EB8104E08B052810D3D4
:104D400068484FF460670088801D00F0070004EB9E
:104D50004000008CADF80400384616F00FF9401CF6
:104D6000C2E02CE1FA0300104D61696E20706F778C
:104D70006572206973206F6E0000000000400240E1
:104D800070E5072042505320233120416C61726D41
:104D90002C206F7665726865617400004250532064
:104DA000233120416C61726D2C20766F6C746167C9
:104DB00065206973207570004250532023312041D3
:104DC0006C61726D2C20766F6C74616765206973FD
:104DD00020646F776E000000425053202331204141
:104DE0006C61726D2C20636F6E6E656374206973E5
:104DF000206C6F7374000000425053202332204116
:104E00006C61726D2C206F7665726865617400004C
:104E100042505320233220416C61726D2C20766FFA
:104E20006C7461676520697320757000425053206F
:104E3000233220416C61726D2C20766F6C74616737
:104E40006520697320646F776E0000004250532024
:104E5000233220416C61726D2C20636F6E6E65632E
:104E600074206973206C6F737400000042505320EB
:104E7000233320416C61726D2C206F7665726865FA
:104E80006174000042505320233320416C61726DE5
:104E90002C20766F6C7461676520697320757000D3
:104EA00042505320233320416C61726D2C20766F69
:104EB0006C7461676520697320646F776E00000011
:104EC00042505320233320416C61726D2C20636F5C
:104ED0006E6E656374206973206C6F7374000000DC
:104EE000D8E40720BA01001085B23F2D00D9002573
:104EF00029B2384616F036F940F60268404616F0F8
:104F00003DF880B23F2800D0284601B2404616F056
:104F100029F9384616F032F84FF4806101EB401061
:104F200085B242208DF800008DF8016057208DF881
:104F3000020000268DF803606946284616F097F9AE
:104F4000A07F8DF80000E07F8DF801009DF804003F
:104F50008DF802009DF805008DF803006946281DB4
:104F600016F085F904F1340105F1080016F07FF917
:104F700004F1380105F10C0016F079F9FF4CA08B13
:104F80008DF80000207E8DF80100207B8DF8020056
:104F90008DF80360694605F1100016F068F9207A73
:104FA0008DF8000020798DF8010020788DF802003E
:104FB0008DF80360694605F1140016F058F900BF3A
:104FC000BDE8FC812DE9F84F0646ED48DFF8AC93CB
:104FD00006EB460202EB06124FF0000B4FF0420ABE
:104FE000A9F120094FF460674FF4806500EB82005F
:104FF000012902D000297ED01EE110F83D1F41F0AA
:1050000001010170384615F0B9FF401C84B23F2CF5
:1050100000D9002421B2384616F0A4F840F6026800
:10502000404615F0ABFF80B23F2800D0204601B2C9
:10503000404616F097F8384615F0A0FF05EB4010F3
:1050400085B28DF800A08DF8016043208DF8020034
:105050005F468DF803B06946284616F008F96946A0
:10506000281D009716F003F9B9F83C0009F1200457
:105070008DF80000207E8DF80100207B8DF8020065
:105080008DF80370694605F1080016F0F0F8207AF3
:105090008DF8000020798DF8010020788DF802004D
:1050A0008DF80370694605F10C0016F0E0F8412414
:1050B0008DF800408DF801408DF802408DF80340D6
:1050C000694605F1100016F0D2F88DF800408DF811
:1050D00001408DF802408DF80340694605F1140047
:1050E00016F0C5F88DF800408DF801408DF80240AB
:1050F0008DF8034000E021E0694605F1180016F044
:10510000B6F88DF800408DF801408DF802408DF81A
:105110000340694605F11C0016F0A9F816B1012EEE
:1051200005D089E001231A46052196A003E001235A
:105130000222052198A014F05BFB7DE010F83D1FD2
:1051400021F001010170384615F018FF87B23C4686
:105150004FEA050808EB441085B26946284615F069
:105160008AFF9DF80000422824D19DF80100B0423A
:1051700020D19DF8020043281CD106E0641EA4B291
:1051800000E03F24BC42E5D156E0694605F110003D
:1051900015F071FF9DF8000041280BD19DF801002A
:1051A000412807D19DF80200412803D19DF8030052
:1051B000412802D0002CE4D0E0E7B9F83C0009F126
:1051C00020048DF80000207E8DF80100207B8DF8F2
:1051D00002005E468DF803B0694605F1100016F036
:1051E00046F8207A8DF8000020798DF801002078AB
:1051F0008DF802008DF80360694605F1140016F081
:1052000036F88DF800A08DF801A08DF802A0544664
:105210008DF803A0694605F1180016F028F88DF8FE
:1052200000408DF801408DF802408DF8034069463A
:1052300005F11C0016F01BF800BF72E52DE9F84FD0
:10524000DFF8388106464FF0000A4FF04209A8F116
:1052500020084FF460604FF48065012902D00029D6
:105260007DD037E106EB460101EB061244490746C3
:1052700001EB820111F83D2F42F002020A7015F095
:105280007DFE401C84B23F2C00D9002421B2384658
:1052900015F068FF40F6026B584615F06FFE80B2BD
:1052A0003F2800D0204601B2584615F05BFF384633
:1052B00015F064FE05EB401085B28DF800908DF876
:1052C000016053208DF8020057468DF803A069460F
:1052D000284615F0CCFF6946281D009715F0C7FF3A
:1052E000B8F83C0008F120048DF80000207E8DF80D
:1052F0000100207B8DF802008DF80370694605F1EE
:10530000080015F0B4FF207A8DF8000020798DF8A0
:10531000010020788DF802008DF80370694605F1D0
:105320000C0015F0A4FF41248DF800408DF80140D9
:105330008DF802408DF80340694605F1100015F024
:1053400096FF8DF800408DF801408DF802408DF8F1
:105350000340694605F1140015F089FF00E042E0C2
:105360008DF800408DF801408DF802408DF8034023
:10537000694605F1180015F07AFF17E02040024059
:10538000D8E4072042415420B93120416C61726D4C
:105390002C206C6F7374000042415420B9322041BC
:1053A0006C61726D2C206C6F737400008DF800407E
:1053B0008DF801408DF802408DF80340694605F1F3
:1053C0001C0015F054FF16B1012E05D082E0022317
:1053D00001220521FBA003E002231A460521FFA0BC
:1053E00014F006FA76E015F0C9FD87B23C46AB46EC
:1053F0000BEB441085B26946284615F03CFE9DF83B
:105400000000422824D19DF80100B04220D19DF82F
:10541000020043281CD106E0641EA4B200E03F2431
:10542000BC42E5D156E0694605F1100015F023FEB7
:105430009DF8000041280BD19DF80100412807D1BB
:105440009DF80200412803D19DF80300412802D0B5
:10545000002CE4D0E0E7B8F83C0008F120048DF817
:105460000000207E8DF80100207B8DF8020056465A
:105470008DF803A0694605F1100015F0F8FE207ABA
:105480008DF8000020798DF8010020788DF8020059
:105490008DF80360694605F1140015F0E8FE8DF8FB
:1054A00000908DF801908DF802904C468DF8039095
:1054B000694605F1180015F0DAFE8DF800408DF808
:1054C00001408DF802408DF80340694605F11C004B
:1054D00015F0CDFE00BF24E4F3B5054600EB450012
:1054E000C44900EB051001EB8000C34983B04FF4C1
:1054F0006066B1F9001000EB4100B0F922000190A4
:10550000304615F03BFD401C04463F2800D90024DE
:1055100021B2304615F026FE40F60267384615F0F7
:105520002DFD3F2800D0204601B2384615F01AFE66
:10553000304615F023FD4FF4806101EB401442200A
:105540008DF800008DF801504B208DF802000026E8
:105550008DF803606946204615F089FE9DF810001D
:105560008DF800009DF811008DF801009DF80400F1
:105570008DF802009DF805008DF803006946201D96
:1055800015F075FE4FF4FC7015F031FD9B4D29466A
:10559000286004F1080015F06AFE4FF4FE7015F063
:1055A00026FD6860291D04F10C0015F060FE944D85
:1055B000A88B8DF80000287E8DF80100287B8DF8DF
:1055C00002008DF80360694604F1100015F04FFEEB
:1055D000287A8DF8000028798DF8010028788DF858
:1055E00002008DF80360694604F1140015F03FFED7
:1055F00005B0F0BD2DE9F84F814E0027203E35154E
:105600003C46BA464FF04209012802D0002871D02A
:10561000FCE04FF46067384615F0B0FC401C0446CF
:105620003F2800D9002421B2384615F09BFD40F6F2
:105630000268404615F0A2FC3F2800D0204601B287
:10564000404615F08FFD384615F098FC05EB4015E7
:105650008DF800908DF801A05A208DF80200544674
:105660008DF803A06946284615F001FE6946281DFD
:10567000009415F0FCFD06F12006B08B8DF80000BB
:10568000307E8DF80100307B8DF802008DF80340EC
:10569000694605F1080015F0EAFD307A8DF8000042
:1056A00030798DF8010030788DF802008DF80340D4
:1056B000694605F10C0015F0DAFD41248DF8004033
:1056C0008DF801408DF802408DF80340694605F1E0
:1056D000100015F0CCFD8DF800408DF801408DF8DC
:1056E00002408DF80340694605F1140015F0BFFD36
:1056F0004EE0FFE74FEA050808EB441569462846E7
:1057000015F0B9FC9DF80000422803D19DF8020075
:105710005A2804D0ECB3641EBC42EDD176E0694651
:1057200005F1100015F0A7FC9DF800004128F1D10B
:105730009DF801004128EDD19DF802004128E9D1F2
:105740009DF803004128E5D106F12006B08B8DF8C5
:105750000000307E8DF80100307B8DF80200544649
:105760008DF803A0694605F1100015F080FD307A30
:105770008DF8000030798DF8010030788DF8020046
:105780008DF80340694605F1140015F070FD4C4694
:1057900000E03DE08DF800408DF801408DF80240BA
:1057A0008DF80340694605F1180015F060FD8DF88D
:1057B00000408DF801408DF802408DF803406946A5
:1057C00020E0000042415420B93120416C61726DEB
:1057D0002C20617373696D657472790042415420A5
:1057E000B93220416C61726D2C20617373696D65F3
:1057F00074727900D8E40720BA0100109C000010F0
:105800002040024005F11C0015F031FD00BF14E5F9
:105810003F2471E7FF490820FF4A81F82200002059
:1058200000EB800302EB03131B78052B04D0401C14
:10583000C0B20828F4D3704781F8220070470028CE
:1058400001DA404200B2704710B54FF4347015F0E1
:1058500095FBF24C207040F2D22015F08FFB607067
:105860004FF4357015F08AFBA07040F2D62015F089
:1058700085FBE0704FF4367015F080FB207240F22B
:10588000DA2015F07BFB60724FF4377015F076FB71
:10589000A07240F2DE2015F071FBE0724FF443700D
:1058A00015F06CFB207140F20E3015F067FB607153
:1058B0004FF4447015F062FBA07140F2123015F005
:1058C0005DFBE07110BDD64810B5016821F0E061C4
:1058D00001604168D44AC1F30B13D24C117824F80B
:1058E0001130491CC9B21170032903D2016841F07B
:1058F0008071016010BD2DE9F0470746DDE90A0916
:105900000E46DDE9085A01B214469846982015F073
:1059100029FC00219A2015F025FC0021762015F0A5
:1059200021FC0121CA2015F01DFC3C21C22015F0EC
:1059300019FC39B2782015F015FC04EBD470401036
:1059400001B2C82015F00EFC31B27A2015F00AFC25
:1059500021B27C2015F006FC4621C62015F002FC81
:1059600050217E2015F0FEFB0FFA88F1822015F001
:10597000F9FBBB21842015F0F5FB0021862015F0F2
:10598000F1FB0A21882015F0EDFB0FFA89F1DE20EA
:1059900015F0E8FB29B28C2015F0E4FBE8000A21A1
:1059A00090FBF1F001B28E2015F0DCFB0121A0206C
:1059B00015F0D8FB0121A22015F0D4FB0121A42071
:1059C00015F0D0FBA021922015F0CCFB0FFA8AF144
:1059D000942015F0C7FB0321962015F0C3FB32215C
:1059E000CC2015F0BFFB2821CE2015F0BBFB5521A4
:1059F000BC2015F0B7FB1E21BE2015F0B3FB012122
:105A0000802015F0AFFB4621D02015F0ABFB3C21E8
:105A1000D42015F0A7FB1921D22015F0A3FB5021AB
:105A2000D62015F09FFB4621D82015F09BFB5B216B
:105A3000DA2015F097FB5021DC2015F093FB7B4C0E
:105A40000021B4F9000015F08DFB794D0021B5F966
:105A5000000015F087FB774E4FF0FF373946B6F957
:105A6000000015F07FFBB4F90200002115F07AFB6D
:105A7000B5F90200002115F075FBB6F902003946B0
:105A800015F070FBB4F90400002115F06BFBB5F9BB
:105A90000400002115F066FBB6F90400394615F044
:105AA00061FBB4F90600002115F05CFBB5F90600B6
:105AB000002115F057FBB6F90600394615F052FBE8
:105AC0000A214FF4197015F04DFBBDE8F0470B218A
:105AD0004FF4187015F046BB10B5062015F04EFABD
