:020000040000FA
:10000000D0310820E1000000E5000000E70000001A
:10001000E9000000EB000000ED000000000000001F
:10002000000000000000000000000000EF000000E1
:10003000F100000000000000F30000007FC2020099
:10004000F7000000ADED0200E1ED0200F700000056
:10005000F7000000DB1D0300F7000000F7000000C0
:10006000F7000000F7000000F7000000F7000000B4
:10007000F7000000F7000000F7000000F7000000A4
:10008000F7000000F7000000F7000000F700000094
:10009000F7000000F7000000DB630000F70000003D
:1000A000F70000006D1B0300F7000000F7000000E0
:1000B00039260300F7000000F7000000F7000000F9
:1000C000F7000000F7000000F7000000DFF80CD098
:1000D00032F066FB00480047C5C30200D03108205B
:1000E00005480047FEE7FEE7FEE7FEE7FEE7FEE71E
:1000F000FEE7FEE7FEE7FEE7CD000000FEE710B5F5
:1001000034F01AFA34F0A6FA34F098FA34F026FAF9
:10011000AFF30080BDE8104034F062BA10B535F09E
:1001200073F835F0E3FE35F0C7F8BDE8104035F060
:100130003FBA34F087BF34F04FBD09B1002070479B
:1001400033F0A4BA0020704730B54FF000003D4BAB
:10015000A3F1140202F10A04115C61B1255CA94209
:1001600009D1195C39B1A1F10101C9B2195411B910
:100170004FF000011154115C215400F10100C0B294
:100180000A28E9D330BD70B54FF000042D4EA6F11A
:10019000140604F10104E4B2355D1DB1854201D0BD
:1001A0000A2CF6D3305527480C3040F8241028305C
:1001B00040F824203438035570BD4FF00001214A27
:1001C000A2F1140201F10101C9B2535C834201D0D2
:1001D0000A29F7D3535C834212D11A480C3050F8E5
:1001E000213019480360174B343353F821304360F2
:1001F0004FF000005054134A50544FF00100704724
:10020000002070474FF000010E4AA2F1140201F1E4
:100210000101C9B2535C834201D00A29F7D3525C71
:1002200082420CD107480C3050F821200648026069
:10023000044A343252F821104160012070470020F6
:1002400070470000046700100C0000100D4BDA60CE
:100250001870597070470B4A1161907070470949C6
:10026000088170470749B1F90800002809D0A0F1BA
:10027000010000B20881002803D10146084601F0C0
:1002800096BB7047ACC0072090F900308B4200DA73
:10029000027090F90030934200DD0170704790F9D0
:1002A00000308B4200DA017090F90010914200DDBD
:1002B00002707047B0F900308B4200DA0180B0F96B
:1002C0000010914200DD02807047B0F900308B428F
:1002D00000DA0280B0F90030934200DD01807047FF
:1002E0000146002000E0401C0A5C002AFBD1704758
:1002F000004870476C77030070477047FFFFFFFFAF
:10030000002802DAC0F1000000B270474FF0000090
:10031000FC4A4FF02001115400F10100C0B2C8287E
:10032000F9D3704701464FF00000F64A00F1010092
:10033000C0B2135C8B4201D0C828F7D3704710B508
:100340004FF00001F04C4FF00A020346B0FBF2F010
:1003500002FB1033635401F10101C9B20529F4D342
:1003600010BDF0B5E94D4FF0010129704FF00501C6
:10037000E54B4FF020064FF000072A7842B15A189B
:1003800012F8014C24B9814202D902F8016C07E04D
:1003900003EB010212F8014D04F1300414702F70C8
:1003A000A1F10101C9B20029E7D1F0BDFEB50346B4
:1003B0004FF02B07002B04DAC3F1000003B24FF01B
:1003C0002D074FF000004FF00A046D4693FBF4F642
:1003D00004FB16332B5433B200F1010040B20A285B
:1003E000F4DB4FF001034FF000044FF009004FF031
:1003F000200643B115F800C0BCF1000F03D19042B4
:1004000001DD2E5408E02B5C03F130032B544FF038
:10041000000304F10104E4B2A0F1010040B200289D
:10042000E7DA2D2F04D1204604F10104E4B22F5461
:100430008AB160B207E005EB000313F8013C2B54CE
:10044000A0F1010040B29042F5DC4FF02E00A8541C
:1004500004F10104E4B20846FFF764FF4FF0000125
:10046000A84A06E0A0EB01066B5C935501F101017F
:1004700049B2A142F6DBFEBDFEB503464FF02B07A5
:10048000002B03DAC3F100034FF02D074FF00000FB
:100490004FF00A046D461E4693FBF4F304FB13660B
:1004A0002E5400F1010040B20A28F4DB4FF00103A2
:1004B0004FF000044FF009004FF0200643B115F84B
:1004C00000C0BCF1000F03D1904201DD2E5408E0C2
:1004D0002B5C03F130032B544FF0000304F10104B3
:1004E000E4B2A0F1010040B20028E7DA2D2F04D1D8
:1004F000204604F10104E4B22F548AB160B207E04F
:1005000005EB000313F8013C2B54A0F1010040B2AD
:100510009042F5DC4FF02E00A85404F10104E4B23F
:100520000846FFF7FFFE4FF00001764A06E0A0EB19
:1005300001066B5C935501F1010149B2A142F6DB62
:10054000FEBD2DE9FE414FF02B0C002803DAC0F16F
:1005500000004FF02D0C4FF000044FF00A056F46DD
:10056000064690FBF5F005FB10663E5504F10104CC
:1005700064B20A2CF4DB4FF001054FF000044FF099
:1005800009004FF0200645B117F80080B8F1000FC0
:1005900003D1984201DD3E5408E03D5C05F1300591
:1005A0003D544FF0000504F10104E4B2A0F1010054
:1005B00040B20028E7DABCF12D0F05D1204604F146
:1005C0000104E4B207F800C08BB160B207E007EBAA
:1005D000000515F8015C3D54A0F1010040B29842BD
:1005E000F5DC4FF02E00F85404F10104E4B201EB05
:1005F000810002EB8000C1B24FF00000414A06E0EA
:10060000A1EB00053B5C535500F1010040B2A04254
:10061000F6DBBDE8FE8170B50D4616461C46FFF7B9
:100620008EFE601CC0B2FFF79CFE05EB850006EB5A
:100630008000C1B24FF00000334B324DA04201D2D6
:100640001A5C6A5407D31A5C202A04D064B105EB03
:10065000010606F8012CA1F10101C9B200F1010067
:10066000C0B20528EAD370BD6A54F4E730B5044639
:1006700008461546FFF756FEFF280CD0214A07E032
:1006800000EB050304F10104D15400F10100C0B2F4
:1006900021780029F4D130BD70B50D461446FFF71E
:1006A0004EFE601CC0B2FFF75CFE2846FFF73AFE24
:1006B0004FF00001144A134D24B9535C202B01D094
:1006C0002B5415E0A14202D2535C2B5410E008D108
:1006D0004FF02E032B5405EB0006535C06F8013C4B
:1006E00006E0535C202B03D005EB000606F8013C26
:1006F000A0F10100C0B201F10101C9B20529DBD3AB
:1007000070BD0000E0C207204000001038C4072080
:100710001044002801DA084403E0884201DBA0EB22
:100720000100C0B270472DE9FE4F04460D464FF45C
:1007300060602FF05DF862424021FFF7E9FF4FEA69
:10074000401000F58060044602A920462FF0D7F83B
:1007500001A904F108002FF0D2F8694604F10C0059
:100760002FF0CDF82846FFF7DDFD83469DF8080001
:10077000DFF8F0A5DFF8F0954FF040064FF03005B8
:100780004FF021074FF023084FF0200455282FD0B9
:10079000CF22D12150287DD042287CD053287BD035
:1007A00049287AD14FF0C8010BF10100C0B209F815
:1007B0000B104FF0ED0200F10101C9B209F8002061
:1007C0004FF0E20201F10100C0B209F801209DF8EA
:1007D000091009297DD201F1310100F10102D2B2E3
:1007E00009F8001002F10100C0B209F80240FEE36E
:1007F0009DF80A00522815D14FF0C2010BF10100FB
:10080000C0B209F80B104FF0EA0200F10101C9B2C1
:1008100009F800204FF0EB0201F1010000F0FF0B9E
:1008200009F801200BF10100C0B209F80B4000F1FA
:100830000101CAB209F8004002F10100C1B209F891
:10084000024001F10100C0B209F801409DF8041016
:10085000BAF83C2091424FD19DF805109AF8382003
:10086000914249D19DF806109AF82C20914243D12B
:1008700000F10101C9B209F8005001F10100C0B254
:1008800009F801704FF03A0200F10101C9B209F80C
:10089000002003E076E02CE1FEE32BE001F1010013
:1008A000C0B209F8015000F10101C9B209F80060B5
:1008B00001F10100C0B209F8012000F10101C9B243
:1008C00009F8005009F801809DF800004FF000027F
:1008D00000E0FEE34FF02101FFF7DEFE9DF801008E
:1008E00000224021FFF7D8FE9DF8020000222321BC
:1008F000FFF7D2FEBDE8FE8F00F10101C9B209F891
:10090000004001F10100C0B209F8015000F10101FD
:10091000C9B209F8007001F10100C0B209F8016024
:1009200000F10101C9B209F8004001F10100C0B2B3
:1009300009F8014000F10101C9B209F8005009F8B5
:1009400001809DF806004FF000024FF02101FFF7F3
:10095000A3FE9DF8040000222321FFF79DFE9DF8D1
:100960000500401E0C2803D34FF001008DF8050050
:100970009DF80510FD48002200EB81004021FFF7A3
:1009800075FEB7E70BF10100C0B209F80B2000F1CA
:100990000102D2B209F8001002F10100C0B209F858
:1009A000024000F10101C9B209F8004001F1010063
:1009B000C0B209F8014000F10101C9B209F80040D4
:1009C00001F10102D0B209F801409DF80410BAF813
:1009D0003C20914247D19DF805109AF83820914269
:1009E00041D19DF806109AF82C2091423BD100F19C
:1009F0000101C9B209F8005001F10100C0B209F8C3
:100A000001704FF03A0200F10101C9B209F800206B
:100A100001F10100C0B209F8015000F10101C9B2B1
:100A200009F8006001F10100C0B209F8012000F1ED
:100A30000101C9B209F8005009F801809DF80000D1
:100A40004FF000024FF02101FFF726FE9DF8010054
:100A500000224021FFF720FE9DF802000022232102
:100A6000FFF71AFE46E700F10101C9B209F800409C
:100A700001F10100C0B209F8015000F10101C9B251
:100A800009F8007001F10100C2B209F8016002F139
:100A90000100C0B209F8024000F10101C9B209F831
:100AA000004001F10100C0B209F8015009F80080CE
:100AB0009DF806004FF000024FF02101FFF7ECFD1A
:100AC0009DF8040000222321FFF7E6FD9DF80500B4
:100AD000401E0C2803D34FF001008DF805009DF84F
:100AE0000510A248002200EB81004021FFF7BEFD67
:100AF00000E79DF80A0043287DD14FF0C1010BF1BA
:100B00000100C0B209F80B104FF0E00200F1010142
:100B1000C9B209F800204FF0F20201F10100C0B2A1
:100B200009F801209DF80920092A13D202F13102A7
:100B300000F10101C9B209F800204FF0C00201F133
:100B40000100C0B209F8012000F10101C9B209F8A1
:100B5000004030E0A2F109015A291DD202F1010240
:100B60004FF00A0CB2FBFCF303F1300B00F1010172
:100B7000C9B209F800B00CFB132202F1300201F1F6
:100B80000100C0B209F801204FF0C00200F10101DC
:100B9000C9B209F800200EE000F10101C9B209F85C
:100BA000004001F10100C0B209F8014000F101016B
:100BB000C9B209F8004001F10100C0B209F80140D2
:100BC0009DF80410BAF83C2091424DD19DF80510D3
:100BD0009AF83820914247D19DF806109AF82C20B7
:100BE000914241D100F10101C9B209F8005001F16F
:100BF0000100C0B200E080E009F801704FF03A0255
:100C000000F10101C9B209F8002001F10100C0B2F0
:100C100009F8015000F10101C9B209F8006001F1C1
:100C20000100C0B209F8012000F10101C9B209F8C0
:100C3000005001F1010000F0FF0B09F801809DF860
:100C400000004FF000024FF02101FFF725FD9DF855
:100C5000010000224021FFF71FFD9DF80200002245
:100C60002321FFF719FD48E000F10101C9B209F89D
:100C7000004001F10100C0B209F8015000F101018A
:100C8000C9B209F8007001F10100C0B209F80160B1
:100C900000F10101C9B209F8004001F10100C0B240
:100CA00009F8014000F10101C9B209F8005001F151
:100CB000010000F0FF0B09F801809DF806004FF0DD
:100CC00000024FF02101FFF7E7FC9DF8040000222D
:100CD0002321FFF7E1FC9DF80500401E0C2803D3FB
:100CE0004FF001008DF805009DF805101F48002207
:100CF00000EB81004021FFF7B9FC9DF80A00532862
:100D00007ED14FF0C1010BF10100C0B209F80B1008
:100D10004FF0E00200F10101C9B209F800204FF0E4
:100D2000F20201F10100C0B209F801209DF809109A
:100D30004FF0430309291BD201F1310100F10102F7
:100D4000D2B209F800104FF0C00002F1010101F029
:100D5000FF0C09F802000CF10100C1B209F80C30D7
:100D60002AE0000000400240E0C20720686E030055
:100D700009395A2911D24FF0C00200F10101C9B25C
:100D800009F8002001F10100C0B209F8013000F1BA
:100D90000101C9B209F800400EE000F10101C9B239
:100DA00009F8004001F10100C0B209F8014000F16A
:100DB0000101C9B209F8004001F10100C0B209F80F
:100DC00001409DF80410BAF83C2091424DD19DF8A5
:100DD00005109AF83820914247D19DF806109AF8EC
:100DE0002C20914241D100F10101C9B209F8005013
:100DF00001F10100C0B209F801704FF03A0200E0C1
:100E00007CE000F10101C9B209F8002001F1010004
:100E1000C0B209F8015000F10101C9B209F800603F
:100E200001F10100C0B209F8012000F10101C9B2CD
:100E300009F8005001F1010000F0FF0B09F80180F2
:100E40009DF800004FF000024FF02101FFF724FC55
:100E50009DF8010000224021FFF71EFC9DF80200D2
:100E600000222321FFF718FC48E000F10101C9B27C
:100E700009F8004001F10100C0B209F8015000F189
:100E80000101C9B209F8007001F10100C2B209F80C
:100E9000016002F10100C0B209F8024000F1010155
:100EA000C9B209F8004001F10100C0B209F80150CF
:100EB00000F1010101F0FF0B09F800809DF8060028
:100EC0004FF000024FF02101FFF7E6FB9DF8040010
:100ED00000222321FFF7E0FB9DF80500401E0C28AF
:100EE00003D34FF001008DF805009DF80510FF4871
:100EF000002200EB81004021FFF7B8FB9DF80A00BB
:100F00005A2875D14FF0C2000BF10101C9B209F89E
:100F10000B004FF0C70201F10100C0B209F8012037
:100F200000F10101C9B209F8004001F10100C0B2AD
:100F300009F8014000F10101C9B209F8004001F1CE
:100F40000100C2B209F8014002F10100C0B209F883
:100F500002409DF80410BAF83C2091424ED19DF811
:100F600005109AF83820914248D19DF806109AF859
:100F70002C20914242D100F10101C9B209F8005080
:100F800001F10100C0B209F801704FF03A0300F11D
:100F90000101CAB209F8003002F10100C1B209F83A
:100FA000025001F10100C0B209F8016000F1010135
:100FB000C9B209F8003001F10100C0B209F80150CE
:100FC00000F1010101F0FF0B09F800809DF800001D
:100FD0004FF000024FF02101FFF75EFB9DF801008A
:100FE00000224021FFF758FB9DF8020001E056E384
:100FF0004DE000222321FFF74FFB48E000F1010103
:10100000C9B209F8004001F10100C0B209F801506D
:1010100000F10101C9B209F8007001F10100C0B28C
:1010200009F8016000F10101C9B209F8004001F1BD
:101030000100C0B209F8014000F10101C9B209F88C
:10104000005001F1010000F0FF0B09F801809DF84C
:1010500006004FF000024FF02101FFF71DFB9DF845
:10106000040000222321FFF717FB9DF80500401E16
:101070000C2803D34FF001008DF805009DF80510F2
:101080009A48002200EB81004021FFF7EFFA9DF81B
:101090000A0057287ED100E002E24FF0C1010BF1B7
:1010A0000100C0B209F80B104FF0E00200F101019D
:1010B000C9B209F800204FF0F20001F10102D3B2E9
:1010C00009F801009DF809104FF0F00E092913D21C
:1010D00000E0CAE201F1310103F10100C0B209F8F8
:1010E000031000F10101C9B209F800E001F10100AB
:1010F000C2B209F801402EE0A1F109005A281BD222
:1011000001F101014FF00A0BB1FBFBF202F1300CCF
:1011100003F10100C0B209F803C00BFB121202F187
:10112000300200F10101C9B209F8002001F101000B
:10113000C2B209F801E00EE003F10100C0B209F803
:10114000034000F10101C9B209F8004001F10100BA
:10115000C2B209F8014002F10100C0B209F8024030
:101160009DF80410BAF83C2091424DD19DF805102D
:101170009AF83820914247D19DF806109AF82C2011
:10118000914241D100F10101C9B209F8005001F1C9
:10119000010000E081E0C0B209F801704FF03A02AE
:1011A00000F10101C9B209F8002001F10100C0B24B
:1011B00009F8015000F10101C9B209F8006001F11C
:1011C0000100C0B209F8012000F10101C9B209F81B
:1011D000005001F1010000F0FF0B09F801809DF8BB
:1011E00000004FF000024FF02101FFF755FA9DF883
:1011F000010000224021FFF74FFA9DF80200002273
:101200002321FFF749FA48E000F10101C9B209F8CA
:10121000004001F10100C2B209F8015002F10100E1
:10122000C0B209F8027000F10101C9B209F800600A
:1012300001F10100C0B209F8014000F10101C9B299
:1012400009F8004001F10100C0B209F8015000F1B5
:10125000010101F0FF0B09F800809DF806004FF036
:1012600000024FF02101FFF717FA9DF80400002259
:101270002321FFF711FA9DF80500401E0C2803D327
:101280004FF001008DF805009DF805101748002269
:1012900000EB81004021FFF7E9F99DF80A004B2897
:1012A0007FF426AC4FF0C1010BF10100C0B209F888
:1012B0000B1003464FF0E00C00F10100C1B209F839
:1012C00003C04FF0F20301F10102D0B209F801307E
:1012D0009DF80910092918D201F1310100F101022C
:1012E000D2B209F800104FF0EA0101E0686E030085
:1012F00002F10100C0B209F802104FF0E50200F15E
:101300000101C9B209F8002030E0A1F109025A2A0E
:101310001DD201F101014FF00A0BB1FBFBF303F108
:10132000300C00F10102D2B209F800C00BFB13111E
:1013300001F1300102F10100C0B209F802104FF0D2
:10134000EA0200F10101C9B209F800200EE000F143
:101350000101C9B209F8004001F10100C0B209F869
:10136000014000F10101C9B209F8004001F101009A
:10137000C0B209F801409DF80410BAF83C2091422F
:1013800048D19DF805109AF83820914242D19DF835
:1013900006109AF82C2091423CD100F10101C9B20B
:1013A00009F8005001F10100C0B209F801704FF0D6
:1013B0003A0200F10101C9B209F8002001F101006F
:1013C000C0B209F8015000F10101C9B209F800608A
:1013D00001F10100C0B209F8012000F10101C9B218
:1013E00009F8005009F801809DF800004FF0000254
:1013F0004FF02101FFF750F99DF801000022402134
:10140000FFF74AF99DF8020000222321FFF744F973
:10141000BDE8FE8F00F10101C9B209F8004001F1F9
:101420000100C0B209F8015000F10101C9B209F888
:10143000007001F10100C0B209F8016000F1010182
:10144000C9B209F8004001F10100C0B209F8014039
:1014500000F10101C9B209F8005009F801809DF8B6
:1014600006004FF000024FF02101FFF715F99DF83B
:10147000040000222321FFF70FF99DF80500401E0C
:101480000C2803D34FF001008DF805009DF80510DE
:10149000FF48002200EB81004021FFF7E7F8B7E7A3
:1014A0004FF0C1030BF10100C0B209F80B3000F19D
:1014B0000103DBB209F8002003F10100C0B209F812
:1014C00003109DF80920092A0CD202F1310200F123
:1014D0000101C9B209F8002001F10100C0B209F808
:1014E000014024E0A2F109015A2916D202F10102B9
:1014F0004FF00A0BB2FBFBF303F1300C00F10101DA
:10150000C9B209F800C00BFB132202F1300201F14D
:101510000100C0B209F8012009E000F10101C9B2DF
:1015200009F8004001F10100C0B209F8014000F1E2
:101530000101C9B209F8004001F10100C0B209F887
:1015400001409DF80410BAF83C20914247D19DF823
:1015500005109AF83820914241D19DF806109AF86A
:101560002C2091423BD100F10101C9B209F8005091
:1015700001F10100C0B209F801704FF03A0200F128
:101580000101C9B209F8002001F10100C0B209F857
:10159000015000F10101C9B209F8006001F1010038
:1015A000C0B209F8012000F10101C9B209F80050E8
:1015B00009F801809DF800004FF000024FF0210172
:1015C000FFF76AF89DF8010000224021FFF764F858
:1015D0009DF8020000222321FFF75EF818E700F1D2
:1015E0000101C9B209F8004001F10100C0B209F8D7
:1015F000015000F10101C9B209F8007001F10100C8
:10160000C0B209F8016000F10101C9B209F8004057
:1016100001F10100C0B209F8014000F10101C9B2B5
:1016200009F8005009F801809DF806004FF000020B
:101630004FF02101FFF730F89DF80400002223212C
:10164000FFF72AF89DF80500401E0C2803D34FF041
:1016500001008DF805009DF805108D48002200EB73
:1016600081004021FFF702F8D2E6A1F109025A2ACF
:1016700016D201F101014FF00A06B1FBF6F303F1B6
:10168000300500F10102D2B209F8005006FB131137
:1016900001F1300102F10100C0B209F8021009E0C5
:1016A00000F10101C9B209F8004001F10100C0B226
:1016B00009F8014009F80040AAE6F0B504460846DA
:1016C00016461F46FEF72EFE02461046714DFF28B5
:1016D00006D108E0295404F1010400F10100C0B270
:1016E00021780029F6D16C480078002806D0002F18
:1016F00004D002EB06014FF05F006854F0BD2DE905
:10170000F04F0746DDE90905884691469A46FEF7FF
:1017100009FE614B20215F4C0A224FF0640C012D21
:1017200009D11E783EB104EB0006A6F10E06B17099
:101730007170317017E097FBF2FB02FB1B7E04EB2C
:1017400000060EF1300E06F80CEC9BFBF2FE02FBDD
:101750001EBB0BF1300B06F80DBC97FBFCF707F135
:10176000300706F80E7C022D09D11E783EB104EB3D
:101770000006A6F10A06B1707170317017E098FB8F
:10178000F2F702FB178B04EB0006A6F10A060BF139
:10179000300B86F802B097FBF2FB02FB1B7707F1D8
:1017A0003007777098FBFCF707F130073770032D8F
:1017B00009D11E783EB104EB0006A6F10606B17011
:1017C0007170317017E099FBF2F702FB179804EB88
:1017D0000006A6F1060608F1300886F8028097FB9D
:1017E000F2F802FB187707F13007777099FBFCF7E6
:1017F00007F130073770042D09D11B783BB1215414
:101800002044A0F1020041700170BDE8F08F9AFB06
:10181000F2F102FB11A303F13003235491FBF2F325
:1018200002FB13112044A0F1020001F130014170CC
:101830009AFBFCF101F130010170E6E717B501EB0D
:10184000810002EB8000C2B29DF80030134803F023
:101850000F01445C0F498C54A2F10102D2B200EB9B
:1018600013131B788B54A2F10102D2B29DF8013000
:1018700003F00F04045D8C54A2F10102D2B200EB1C
:1018800013131B788B54A2F10102D2B208E00000BE
:10189000686E0300E0C20720FCC00720E66E03006C
:1018A0009DF8023003F00F04045D8C54A2F1010294
:1018B000D2B200EB13131B788B54A2F10102D3B206
:1018C0009DF8032002F00F04045DCC54A3F1010342
:1018D000DBB200EB12100078C8541EBD10B501EB4E
:1018E000810102EB8101C9B2B34A00F00F03D45C5D
:1018F000B24B5C54A1F10101C9B202EB10100078A7
:10190000585410BD30B5AE490124AC4B91F90120BB
:1019100091F904108A4204D100EB800003F82040C2
:1019200030BD4D1CAA4206D100F1010000EB800041
:1019300003F8204030BD8D1CAA4206D100F1020000
:1019400000EB800003F8204030BDCD1CAA4206D138
:1019500000F1030000EB800003F8204030BD0D1DB6
:10196000AA4206D100F1040000EB800003F82040F9
:1019700030BD4D1DAA4206D100F1050000EB8000EC
:1019800003F8204030BD8D1DAA4206D100F10600AB
:1019900000EB800003F8204030BDC91D8A42FBD116
:1019A00000F1070000EB800003F8204030BD854BBC
:1019B0001A88A2F10102104400B21880824A00EB9A
:1019C000800002447E4813680360127902714278F5
:1019D00011444170704770B57A4DB5F9004004F17B
:1019E00001062E80784D04EB84042544744C26684F
:1019F0002E6026792E71207061702271A37070BDE7
:101A00002DE9F04180460F461646FEF77FFC6B4CF1
:101A10004FF0000518F8010B04F8010B05F1010562
:101A2000EDB2142DF6D34FF0000017F8011B04F8A7
:101A3000011B00F10100C0B21428F6D34FF00000E2
:101A400016F8011B04F8011B00F10100C0B21428B4
:101A5000F6D34FF0000013F8011B04F8011B00F14E
:101A60000100C0B21428F6D3BDE8F08110B5029C85
:101A7000FFF7C6FF5248C378827841788F20FFF77E
:101A8000AAFF642094FBF0F0BDE81040C0B2FEF75E
:101A9000E6BB2DE9FE430D464FEA401000F580609D
:101AA000044602A920462DF02AFF01A904F10800EE
:101AB0002DF025FF694604F10C002DF020FF28468B
:101AC000FEF730FC3D4C4FF0200600F10101C9B299
:101AD00026544FF0300701F10100C0B267544FF0B7
:101AE000210800F10101C9B204F800804FF040095B
:101AF00001F10100C0B204F8019000F10101C9B286
:101B0000265401F10100C0B2665400F10101C9B2CE
:101B100027544FF0230201F10100C5B262549DF831
:101B200006004FF000024FF02101FEF7B5FD9DF8D1
:101B3000040000222321FEF7AFFD9DF80500401EA2
:101B40000C2803D34FF001008DF805009DF8050027
:101B50001E49002201EB80004021FEF787FD05F1C0
:101B60000100C0B2665500F10101C9B2275401F16C
:101B70000100C0B204F801804FF03A0200F1010107
:101B8000C9B2225401F10100C0B2675400F1010151
:101B9000CDB204F800909DF800004FF000024FF025
:101BA0002101FEF779FD9DF8010000224021FEF79A
:101BB00073FD6655BDE8FE83E66E0300E0C20720B4
:101BC00060C207201EC1072060670010686E030016
:101BD0002DE9FC410446FE4E4FF00007B776B07D7C
:101BE0004FF00103022808D0FA49095D552906D0B3
:101BF0004FF06500B076BDE8FC81B376FBE704EBFF
:101C0000440101EB0412F44901EB820595F83D1003
:101C1000CA0703D04FF06600B076ECE795F83F2096
:101C2000920703D54FF06700B076E4E7890703D544
:101C30004FF06800B076DEE7E84AB5F90810B2F96F
:101C40000020914203DD4FF06900B076D3E75242A5
:101C5000914203DA4FF06A00B076CCE7DC49012804
:101C6000C97D00D111B1012804D005E04FF06B000F
:101C7000B076C0E701297ED04FF06400B076B3752E
:101C8000A6F8563019464FF4F8702DF0AFFEF475F3
:101C9000A6F8584021464FF4FA702DF0A7FEAF6128
:101CA000CF48002130F914002DF0A0FE3776A6F8B9
:101CB0005A7039464FF4FB702DF098FEC9480088E1
:101CC00000F1010000F0070005EB4000008C0190DE
:101CD000C54DA88B00904FF063024FF0010168469C
:101CE000FEF7DDFABA4C9DF8000094342070287E8F
:101CF00000900C2201216846FEF7D1FA9DF8000001
:101D00006070287B00901F2201216846FEF7C7FA09
:101D10009DF80000A0709DF80400E0704FF4FC7086
:101D200021682DF09EFE287A009017220021684637
:101D3000FEF7B5FA9DF800002071287900903B224B
:101D400000216846FEF7ABFA9DF800006071287824
:101D500000903B2200216846FEF7A1FA9DF80000A2
:101D6000A0719DF80500E0714FF4FE7061682DF0E0
:101D700078FE40E7FFE74FF06C00B0763BE72DE9D7
:101D8000F047934CA07D01287DD121460126C97DD5
:101D9000207EC1F1010206FA02F1914F8E4D0AB286
:101DA00010B1012834D038E01423CA21C820FEF72E
:101DB000EAF914234FF0FF32CE21CD20FEF7E3F9EC
:101DC000E07D00EB400101EB001005EB8000B0F975
:101DD0000800FEF795FAE17D01EB410202EB0112EA
:101DE00005EB820293691844906148F6A04398423B
:101DF00013DBA0EB0300906137F811002DF0F8FC25
:101E0000401C01B2E07D37F910002DF0EFFD04E039
:101E10001423CA21C820FEF7B6F9E17D4FF4F87902
:101E200001EB410000EB011005EB80004FF00008D2
:101E3000B0F902206D48B0F9000000EB8000B2EB71
:101E4000400F47DAB4F8520000F1010000B2A4F8E4
:101E500052001E2840DBA07D012822D1207E00BB3D
:101E600037F811002DF0C4FC01B26148E27D30F971
:101E700012002DF0BBFDE07D37F810002DF0B8FC0E
:101E800081B2E07D00E049E004F089F85948E17D45
:101E900030F9110000212DF0A9FD4FF03200A08390
:101EA000E083E07D4B49C0F10100085C552808D073
:101EB00084F81680A4F85680002148462DF096FD3F
:101EC0000AE02676A4F85A6001214FF4FB702DF049
:101ED0008DFD01E0A4F85280E17D01EB410000EBB3
:101EE000011005EB8000B0F90220C1F1010000EB08
:101EF000400101EB001005EB8000B0F902008242C6
:101F00000CDB207E012809D184F81680A4F85680C5
:101F10004846BDE8F04700212DF068BDBDE8F087D8
:101F200070B505464FF00006294CA07D10BB4FF060
:101F3000020104F8161FA4F840104FF4F8702DF0B9
:101F400055FD2587C5EB05104FEA80010D46E18759
:101F50004FF4F9702DF04AFD29464FF4FF702DF033
:101F600045FD30466087A0864FF001064FF0010026
:101F700004F0AAF8304670BD10B5154CA07D0228BB
:101F800013D104F11604208F04F09EF84FF00000E6
:101F9000A086208760872070A4F840000146BDE835
:101FA00010404FF4F8702DF021BD10BD70B50E4CEF
:101FB000203C94F83800104D297808440C281DD98D
:101FC000A08F401C01B2B8202DF010FD1BE00000D6
:101FD00008C0072094C1072084E7072040C10720DC
:101FE000DC670300F4C10720204002403AC107200B
:101FF000F8670300D867030004C10720B4F93C1058
:10200000B8202DF0F3FC94F83810287801440C29FE
:1020100007D994F838100C380144B6202DF0E6FCAE
:1020200005E094F838100144B6202DF0DFFC94F858
:102030002C001C2804D91C21B4202DF0D7FC04E06E
:1020400094F82C10B4202DF0D1FC04F12004217A56
:102050004FF0AE002DF0CAFC2179B0202DF0C6FC67
:102060002178BDE87040B2202DF0C0BC10B5FA4810
:10207000FA4C007830B3FA48828FFA4909888A42CC
:1020800020D190F83820F84909888A421AD190F86E
:102090002C10F64A1288914214D190F82810F44A74
:1020A000128891420ED190F82410F24A128891427F
:1020B00008D190F82000F0490988884202D14FF0F9
:1020C00001006076607E00280CD0EC480088C0B229
:1020D000FFF726FF002805D04FF000006076BDE82E
:1020E000104063E710BD70B5DC4CA07D022844D1E0
:1020F000B4F84C004FF461610025884215D200F11C
:10210000010080B2A4F84C0088420ED3A4F84C50D1
:10211000B4F84E0048B1A0F1010024F84E0F6088D9
:1021200000F101006080A4F14E04B4F84A003C289C
:1021300023D200F1010080B2A4F84A003C281CD34D
:1021400024F84A5F6089A0F1010001B261814FF477
:10215000F9702DF04BFC6089A4F14A0400280CD1E1
:10216000A575A4F8565001464FF4F8702DF03EFCCA
:10217000BDE87040002003F0A7BF70BD2DE9F05FFF
:10218000B64F0026DFF8FC82F88FBF4D401C01B22D
:10219000BB48F9874FF0010AB0F9000007F1440489
:1021A000C0EB00124FF00A09B1EB820F4BDBF0B32A
:1021B000FE87267066703E74DFF8D0B29BF8000090
:1021C000552811D1B5F9020050280DDDB5F90800E8
:1021D000FEF796F8B8F90010884203DB95F83D0049
:1021E000C00701D084F800A09BF80100552811D148
:1021F000B5F94E0050280DDDB5F95400FEF780F812
:10220000B8F90010884203DB95F88900C00701D0B7
:1022100084F801A09E48007828B9787C18B1B87D70
:1022200020B1022802D0267066703E7400E00AE0F9
:10223000207801281FD0607801281CD0387C012824
:1022400019D0A7F840603946B7F94000DFF80CB262
:10225000904F0BF1600BE8B3A0F1010000B28A4689
:10226000A1F84000052809DD0F231E226421E1208A
:10227000FDF789FF0AE0A7F84090E4E7002805DDB4
:102280000F231E226921E120FDF77DFFBAF84000EF
:10229000052811D1B5F90800FEF732F8ABF80000B7
:1022A000B5F95400FEF72CF8ABF80200B7F90000BE
:1022B000FEF726F8AAF822006848B0F84000002887
:1022C0004AD1B5F90800FEF71BF8DFF890A10AF132
:1022D000640A00E042E0AAF80000B5F95400FEF7F5
:1022E0000FF8AAF80200B7F90000FEF709F85B4FF3
:1022F000B884A7F84260BBF90000BAF9001008449E
:10230000B8F90010884202DA207801281FD0B5F908
:102310000200C82804DD26700021084603F091FB66
:10232000BBF90200BAF902100844B8F9001088425B
:1023300002DA607801280DD0B5F94E00C8280BDD0F
:102340006670BDE8F05F0021012003F07ABBA7F8BA
:102350004290E5E7A7F84290BDE8F09FB1F942004E
:10236000F0B3A0F1010000B28946A1F842000528AF
:1023700006DD0F23C8226421E120FDF704FF07E0FA
:10238000002805DD0F23C8226921E120FDF7FBFEAF
:10239000B9F84200052811D1B5F90800FDF7B0FFE2
:1023A000ABF80000B5F95400FDF7AAFFABF8020046
:1023B000B7F90000FDF7A4FFA9F822002748B0F8FC
:1023C00042000028C8D1B5F90800FDF799FFDFF8F1
:1023D0008C9009F16409A9F80000B5F9540000E0F7
:1023E0005DE0FDF78DFFA9F80200B7F90000FDF7E9
:1023F00087FF1A4FB884FE73BBF90000B9F90010CB
:102400000844B8F90010884202DA207801281FD069
:10241000B5F90200C82804DD26700021084603F043
:1024200010FBBBF90200B9F902100844B8F900101A
:10243000884202DA607801282ED0B5F94E00C8280B
:102440008ADD6670BDE8F05F0021012003F0F9BA73
:1024500087F80FA0E5E7000004C1072008C00720A7
:1024600000400240A2C10720A0C107209EC1072052
:1024700098C107209AC107209CC10720A4C107204A
:1024800050C1072040C1072084E7072094C10720DE
:102490000AC10720F6C1072087F80FA05CE7C87BB8
:1024A0000F460028FAD00F2300226E21E120FDF70D
:1024B0006AFEB5F90800FDF723FFB8F9001088425D
:1024C00007DD2078012804D126700021084603F09A
:1024D000B8FAB5F95400FDF713FFB8F900108842B7
:1024E00006DD6078012803D16670002103F0A9FAA7
:1024F000207820B9607810B9387C00B9FE73E620E6
:10250000FDF75BFE18B1F9480068E7280AD0F848E3
:10251000F849B0F90000B1F9001000EB8000B1EB10
:10252000400FBBDAFE732078F34E01280FD1B8F9C3
:102530000000B6F90010400090FBF9F0884206DA7E
:1025400095F83D00C00702D1012103F07AFA6078C6
:102550000128A3D1B8F90000B6F90010400090FBA3
:10256000F9F088429ADA95F88900C00796D1BDE85B
:10257000F05F0121084603F064BA70B5DF4CA08F0C
:10258000401C00B2A087B0F5E16F02DB4FF0000005
:10259000A087B4F93C00B0F5DF6F11D90F230122F9
:1025A0006421D220FDF7EFFD0F230022D821D72090
:1025B000FDF7E9FD0F230022D821DC20FDF7E3FD24
:1025C000B4F93C00A0F5E061073918D1CC4ECD4CF0
:1025D000CD4D30882188884205D0B4F90010B5F976
:1025E00000002DF003FA70886188884207D0B4F9A2
:1025F0000210B5F90200BDE870402DF0F7B970BDCA
:1026000010B5C24C208800F1010020804FF0080274
:102610004FF000012046FDF758FEBD49B4F9000017
:1026200001EB40004A880284B1F84E10A0F86C100B
:1026300010BD70B5B74DB848B84AB5F90010B0F93B
:10264000003092F9000099421FDAB54C0A280FDADF
:10265000B44BB3F900300F2B0ADD00F1010040B29A
:1026600010700A2809DB2180012002F04EFD04E0F1
:102670000A2802DB4FF00A001070B5F90000B4F927
:102680000010884200DA208070BDFDDD0028FBD0FC
:10269000A0F1010040B210700028F5DCBDE87040E8
:1026A000002002F032BD2DE9F05F944F388D9E4935
:1026B000B1F90010484341F2883190FBF1F095499F
:1026C00008809A4CB4F90010994AB2F9000000FB56
:1026D00001F04FF4FA658E4E4FF4C87190FBF1F0A3
:1026E0007080B4F90830DFF84CC2BCF9000000FB80
:1026F00003F04FF42F7390FBF3F0B080B4F918801F
:10270000B2F9020000FB08F090FBF1F0A6F84E00D1
:10271000B4F90210BCF9020000FB01F090FBF3F0E9
:10272000A6F850004FF0DC00FDF76CFDF0BBDFF8C1
:10273000D4A1BAF80000DFF8C8B1BBF80010A0EBD4
:1027400001007D49B1F9001001FB00F17B4845F61D
:10275000386245F6926300884FF4967C45F2FA5849
:1027600045F21169904201D0984202D191FBFCF1EF
:102770000FE0404506D0A0F5AC4EBEF1130E01D0DF
:10278000484502D191FBF5F103E04FF47A7E91FBCD
:10279000FEF13181BAF80210BBF802A0A1EB0A0ADF
:1027A0006549B1F9021001FB0AF100E017E090421F
:1027B00001D0984202D191FBFCF00EE0404505D0DB
:1027C000A0F5AC42133A01D0484502D191FBF5F097
:1027D00003E04FF47A7091FBF0F0A6F85400B4F9DE
:1027E0000C0040F6B73AA0F22133012200215345F4
:1027F00001D2317300E03273514BB3F900504543BD
:1028000044F6206995FBF9F0A0F211107081B4F93B
:102810000E00A0F22135554502D286F8581001E08D
:1028200086F85820B3F90230434393FBF9F0A0F245
:102830001110A6F85600B4F90400424BB3F9003069
:1028400000FB03F02B4B4FF4AF7590FBF5F01880B5
:10285000B4F90A303C48A3F22135554501D2016054
:1028600000E00260394DB5F900C00CFB03FC9CFB95
:10287000F9F3A3F21113DFF8D8B0ABF80030B4F9D4
:102880001430A3F22138D04501D2416000E042600B
:10289000B5F902C00CFB03FE9EFBF9FEAEF2111E61
:1028A000ABF802E0B4F90640A4F2213ED64501D2CD
:1028B000816000E08260B5F9045005FB04FE9EFBD8
:1028C000F9FEAEF2111EABF804E001D2416000E067
:1028D00042600CFB04FC9CFBF9F4A4F2111424B23A
:1028E000ABF80240D04535D2816034E00C000010D6
:1028F0003AC10720F8C10720FAC1072008C0072005
:102900001C0000109E20001004680300F4C1072082
:1029100084E70720FEC107203CC1072048000010C3
:10292000460000101CC1072024000010B0660010F3
:102930001800001010C4072014C4072096C10720F7
:10294000200000101EC4072014FC072018C4072014
:102950009AC2072082605D4395FBF9F2A2F2111240
:1029600015B2ABF80450DFF80494B9F80030DFF882
:1029700000C4BCF9002002FB03F24FF47A6892FB1A
:10298000F8F2FC4B92B21A80DFF8ECA3642A02D270
:10299000AAF8002003E0F94A1288AAF80020B9F842
:1029A0000220BCF902C00CFB02FC9CFBF8F25A802E
:1029B000F34AB2F90030DFF8CCC3BCF9008008FB61
:1029C00003F841F2707398FBF3F9DFF8BC83A8F8C1
:1029D0000090B2F902A0BCF9029009FB0AF999FB38
:1029E000F3F9A8F80290B2F90490BCF904C00CFB0A
:1029F00009FC9CFBF3FCA8F804C0B2F90690DFF8D0
:102A00008CC3BCF9008008FB09F898FBF3F9DFF8E8
:102A10008083A8F80090B2F908A0BCF9029009FBE5
:102A20000AF999FBF3F9A8F80290B2F90A90BCF9F7
:102A3000042002FB09F292FBF3F2A8F80420D54B24
:102A400004F2111424B21C8005F211152DB25D8020
:102A50004268D2B21A728068C0B25872CE4B02B9C4
:102A600010B1012A0AD00AE004EB050000EBD07097
:102A70006FF4887202EB600018801CE008B122B18C
:102A800005E0A5F211151D8015E0012802D0012AEC
:102A900004D010E0A4F211141C800CE001280AD12B
:102AA000BE480078052803D2BD480088188002E09F
:102AB0004FF014001880BB480278552A05D1B6F9AA
:102AC0000220C82A01DD32893A87407855280AD188
:102AD000B6F94E00C82806DDB6F95400B6F908204C
:102AE000904200DD3887B0480088A0F5AC422F3A0C
:102AF00003D0283201D0143A02D1AC48008838877C
:102B00004FF00002AA48AB4CB0F900302DE002EBC8
:102B1000820004EB0010C578192D1CD28579C77985
:102B200005EB07250562057A477A05EB0725C561A0
:102B3000857AC77A05EB07258561057B4562457B6C
:102B400080F84E50857B80F83E50057C477C05EB35
:102B50000725856406E081610162C161416280F8F8
:102B60003E10816402F10102D2B29A42CFDBB6F983
:102B700008204FF00A0092FBF0F2B6F954508E4F45
:102B800095FBF0F01044C0F1000006B23E808B4D82
:102B900029804FF0000010E000EB800204EB0212ED
:102BA00092F803C0BCF1050F04D2126AB5F800C058
:102BB00062442A8000F10100C0B29842ECDB288810
:102BC000304400B23880002800DA39807C4D4FF064
:102BD0000600A8617B48B0F90060002E4AD04FF093
:102BE000000345E003F1140000EB800004EB00104B
:102BF000C278192A28D28279C77902EB072703EB1A
:102C0000430202EBC30205EBC202D761077A90F8D8
:102C100009C007EB0C27D762877A90F80BC007EB47
:102C20000C279761077B1762477B82F84670877B8A
:102C300090F80FC007EB0C279762077C407C07EBEE
:102C400000205062917010E003EB430000EBC300E2
:102C500005EBC000C161C1628161016280F846106C
:102C6000416281624FF01902827003F10103DBB20D
:102C7000B342B7DB12E4544A54491078052801D016
:102C8000012805D1507818B951480078552803D04B
:102C9000504800880870704708780028FBD0A0F1E1
:102CA0000100087070474C48416821F4402141F40C
:102CB00080214160416821F4403141F4803141601C
:102CC000416821F4404141F480414160416C21F46C
:102CD000402141F400214164416C21F4403141F430
:102CE00000314164416C21F4404141F400414164B0
:102CF0003A48016821F0E0610160016841F4001187
:102D00000160016821F480310160016821F47F4194
:102D100041F4807101604FF48071C16030484FF41C
:102D20008001016070472DE9F0412E4C60882188B8
:102D3000401A00B203F00DFBA61D3080A088618808
:102D4000401A00B203F005FB7080A0882188401A69
:102D500000B203F0FEFAB0804FF49671A4F188053A
:102D6000884241DAA08868854BE00000A0C20720B5
:102D700026000010A6C2072014C20720FEC10720AB
:102D8000926700105A000010ACC207204EC4072002
:102D9000B2C207206EFC07200CC2072016C1072014
:102DA00018C2072094C1072096C10720F6C107204A
:102DB00082C10720C4E80720FAC107205400001090
:102DC00044F5072084C1072060C20720DEC0072029
:102DD00005C10720A6C1072000C0024000400340F3
:102DE00000E100E090C00720B6F90200884202DA54
:102DF0006088688505E0B6F90000884201DA20881D
:102E00006885AF7800262FB3FA48B5F92A10026812
:102E10000A44026042680A44426082680A4482604E
:102E2000C2681144C160698E01F1010109B269866D
:102E3000B1F5805F00DB6E86B5F932108A0531D1BD
:102E40004FEAA12150F821204FEAE2222A8540F8DA
:102E5000216027E0E848EC782A7900EB8413B5F983
:102E60002A1043F8221090070FD1014653F820C0D2
:102E7000614400F10100C0B21028F7D34FEA2110DD
:102E8000DC49A1F1200121F81400641CE0B2E870D3
:102E9000102807D3EE7002F10102D0B22871102879
:102EA00000D32E716E7007F1010707F00100A870C2
:102EB000D24A30B1106820F0FF0000F10400106029
:102EC0003DE0E978080706D4106820F0FF0000F123
:102ED0000100106005E0106820F0FF0000F1020022
:102EE0001060C748036843F080530360036A43F0EF
:102EF00080430362036E43F080630366CB070AD00E
:102F0000436943F0805343618B0709D4436B23F03B
:102F10008043436308E0436923F080534361F3E750
:102F2000436B43F080434363490704D4416F21F06E
:102F30008061416703E0416F41F080614167106843
:102F400040F080701060BDE8F081F0B5AD4CB4F990
:102F5000200018B1A0F10100208487E04FF00005A7
:102F6000A5732846A949A84BB1F9002010E000EB51
:102F7000800103EB01118E78012E06D1C978142946
:102F800003D2A17B01F10101A17300F10100C0B2E4
:102F90009042ECDBA67B022E68D341F28830E066DB
:102FA000A56625674FF0000115E001EB810003EBFA
:102FB00000108778012F0BD1006AA76EB84200DDA0
:102FC000A066E76EB84200DAE066276F38442067F3
:102FD00001F10101C9B29142E7DB206F90FBF6F6E7
:102FE0006667E06E012100B9E166A06E4FF06407EC
:102FF00000FB07F0E76E90FBF7F0A067A02800DD6C
:103000006173782800DA6573607B01282ED14FF058
:1030100000016FF0310427E001EB810003EB0010A9
:103020008578012D1DD1056AB54205DDB0F84C50FB
:10303000A5F10105A0F84C5005DAB0F84C5005F1A7
:103040000105A0F84C50B0F94C50A54201DAA0F8A7
:103050004C40B0F94C50322D03DD4FF03205A0F852
:103060004C5001F10101C9B29142D5DB00BFF0BD66
:1030700070B567480168674A01EA02010160604C67
:10308000216841F47C712160C16921F44021C16152
:10309000216E41F000712166416821F0406141607C
:1030A000206840F0005020605C485B4D5D4902782C
:1030B0005B4895F83C30B1F900100078134307D015
:1030C00030B1052904DDA36943F48073A36103E0F3
:1030D000E36943F48073E36195F88830134307D0C4
:1030E00030B1052904DDA06940F04000A06103E093
:1030F000E06940F04000E061D220FDF783F84A4DDE
:1031000070B16868012801D028B10DE0A06940F0D5
:103110000050A06108E0E06940F00050E06103E089
:10312000E06940F00050E061D220FDF76BF83F4EBF
:1031300010B12868662815D03068C0071ED0E06F2F
:1031400040F00070E067D220FDF75CF810B128680D
:10315000672818D03068800724D4E06940F0100058
:10316000E06123E0686820B1E06F40F00070E06744
:10317000E9E7A06F40F00070A067E4E7A06F40F0BF
:103180000070A067DFE7686810B1012805D00DE086
:10319000E06940F01000E06108E0A06940F0100034
:1031A000A06103E0A06940F01000A061D220FDF70B
:1031B00029F810B128686A283DD0306810F4FF6FF4
:1031C00047D0A06940F08000A061D220FDF71AF836
:1031D00010B128686B2841D01548B0F9000048B3F9
:1031E000012847D03068400751D5A06940F40070ED
:1031F000A06170BDD0660010B062001000400340B6
:1032000000C0092008C00720C4E8072082C10720A9
:1032100000C00240FF00F0FF84E707200DC4072034
:10322000E1C007201CC107200C000010C4C007200B
:10323000F2C107201EE0686830B10128C5D1A0693D
:1032400040F08000A061C0E7E06940F08000E061EC
:10325000BBE7E06940F08000E061B6E7686820B154
:10326000E06940F40070E061C3E7A06940F40070D9
:10327000A061BEE7FF48007820B1A06940F400706B
:10328000A061B6E7E06940F40070E061B1E7E06991
:1032900040F40070E061ACE72DE9F05FF54E4FF0CF
:1032A000010A4FF00008307D0A2809D200F1010020
:1032B000C0B230750A2803D386F8148086F815A0AA
:1032C000A6F84680A6F84880CD20FCF79BFFEA4F81
:1032D000DFF8A8B388B3EA4A4FF6FF711068CE282A
:1032E00001D1A6F84810CF2802D15368A6F848307B
:1032F000D12802D15368A6F84630D22801D1A6F8C9
:103300004610D02806D15068A6F846006FEA0000A3
:10331000A6F848004FF0000430E0B6F848000AFA7A
:1033200004F919EA000F09D004EB840007EB001040
:10333000818F01F10101818706E024E004EB840024
:1033400007EB0010A0F83C8004EB840007EB0015AD
:1033500005F13C0032220021FCF7ACFFB5F93C003E
:10336000142801DD85F828A0B6F8460019EA000FF8
:1033700001D085F8288004F10104E4B2BBF9000013
:103380008442CADD41E0707D98B34FF000010846E9
:10339000BBF9002008E000EB800307EB031383F880
:1033A00028A000F10100C0B29042F4DD4FF000000F
:1033B000B44BB3F9005010E000EB800307EB0313AC
:1033C0009C78022C01D0012C04D183F8288001F1D3
:1033D0000101C9B200F10100C0B2904201DAA94274
:1033E000EADBA948B0F900003C280EDA4FF00000F3
:1033F00009E00AE000EB800107EB011181F8288069
:1034000000F10100C0B29042F4DD4FF000004FF037
:103410006304BBF900300DE000EB800107EB011104
:103420008A6B22B181F82840A2F101028A6300F17F
:103430000100C0B29842EFDB86F8158086F8118053
:103440004FF000000DE000EB800107EB01118978DF
:10345000012903D1717C01F10101717400F10100B6
:10346000C0B29842EFDB05E42DE9F0410646824800
:1034700006EB860100EB01142078032875D194F83F
:103480003E50A80717D5B4F942104FF49662914206
:1034900022DA01F1010108B2A4F8420090421BDBDC
:1034A000A4F842206078C00716D1012200213046DE
:1034B00001F081FF10E0B4F9421069B1A1F10101FE
:1034C00008B2A4F8420038B96078C00704D00022DE
:1034D0001146304601F06FFF29074FF00A074FF001
:1034E000000015D5B4F944100A2926DA01F10101CA
:1034F00008B2A4F844000A281FDBA4F844706078DE
:1035000080071AD401221146304601F054FF14E01E
:10351000B4F9441000290DDDA1F1010108B2A4F8AD
:10352000440050B94FF000024FF00101304601F065
:1035300042FF02E001DAA4F84400E80616D5B4F927
:1035400046000A2820DA00F1010000B2A4F8460083
:103550000A2819DBA4F846706078400714D40122C9
:103560000221304601F027FF0EE046E0B4F9461094
:1035700051B1A1F1010108B2A4F8460020B900221E
:103580000221304601F017FF6078000703D04FF0AA
:103590000400A07017E03D48007830B1E0781428AE
:1035A00003D94FF00500A0700DE094F83E008006AE
:1035B00003D54FF00200A07005E0E078142802D295
:1035C0004FF00100A070E0780A2806D394F8280094
:1035D00040F0800084F8280005E094F8280000F00E
:1035E0007F0084F828002349B4F94C00B1F91C107D
:1035F0000844E0624FF47A702063A4E470B54FF0A1
:1036000000002349234D4FF00104B1F90C2003467B
:1036100004FA00F10A4201D02C5400E02B5400F1CE
:103620000100C0B20C28F3D31B4E28781B4C317814
:1036300081420BD0B4F90010012907DB01287ED0AC
:10364000002301220B2116A02AF0F9FB717868787B
:1036500081420BD0B4F90010022907DB01286FD09A
:10366000002302220B2113A02AF0E9FBB178A878ED
:10367000814229E008C00720C4E8072082C1072052
:103680000C00001040C407201CC107200AC10720FD
:10369000926700108CFC0720B6FC07208CC1072025
:1036A0004176746F6D6174202331206973204F4619
:1036B000460000004176746F6D61742023322069EA
:1036C00073204F46460000000BD0B4F900100329C8
:1036D00007DB012872D0002303220B21FCA02AF073
:1036E000AEFBF178E87881420BD0B4F900100429E0
:1036F00007DB012879D0002304220B21F9A02AF04E
:103700009EFB3179287981420BD0B4F9001005294C
:1037100007DB012871D0002305220B21F6A02AF037
:103720008EFB7179687981420ED0B4F900100629B8
:103730000ADB012868D0002306220B2101E03EE0CD
:1037400044E0F2A02AF07BFBB179A87981420BD04A
:10375000B4F90010072907DB01285CD000230722F9
:103760000B21EFA02AF06BFBF179E87981420BD0B5
:10377000B4F90010082907DB012853D000230822E0
:103780000B21ECA02AF05BFB317A287A81420BD026
:10379000B4F90010092907DB01284AD000230922C7
:1037A0000B21E9A02AF04BFB4FF00000295C3154BB
:1037B00000F10100C0B20C28F8D31AE50EE0012395
:1037C0001A460B21E5A02AF03AFB3FE7012302222B
:1037D0000B21E7A02AF033FB48E706E00123032290
:1037E0000B21E8A02AF02BFB7BE7012304220B210D
:1037F000E9A02AF024FB84E7FFE7012305220B213F
:10380000EAA02AF01CFB8CE7012306220B21ECA086
:103810002AF015FB98E7012307220B21EDA02AF0DF
:103820000EFBA1E7012308220B21EFA02AF007FBE2
:10383000AAE7012309220B21F0A02AF000FBB3E73D
:1038400070B5C820FCF7DEFCF1490022A8B3F14BAB
:1038500001241868C9281CD0CA282FD0104600EBB4
:10386000400303EB001301F8232000F10100C0B274
:103870000228F4D34FF0000000EB400303EB0013E9
:1038800011F82350142D39D901EB830383F83C4000
:1038900038E04FF0000000EB400303EB001511F897
:1038A0002530322B03D203F1010301F8253000F15A
:1038B0000100C0B20228EED3DCE729E04FF000009F
:1038C0005E6804FA00F31E420CD000EB400303EBE9
:1038D000001511F82530322B0AD203F1010301F84B
:1038E000253005E000EB400303EB001301F8232033
:1038F00000F10100C0B20228E3D3BBE701EB830370
:1039000083F83C2000F10100C0B20228B4D370E477
:103910004FF0000000EB400303EB001301F82320FD
:1039200001EB830383F83C2000F10100C0B20228C0
:10393000F0D35EE42DE9F041B74DB848B84CB5F985
:103940000010B0F90020B4F90000914203DD00F14D
:103950000100208003E002DAA0F1010020800622AD
:103960000021AF48FCF7A6FCB4F90000AD490126E0
:10397000052800DD0E700024012800DA0C70AA4929
:10398000B5F90000A94AB1F90010A94F8B1E984261
:103990000FDA92F900101E291EDA01F1010149B275
:1039A00011701E2918DB3988A1F1010139801470CA
:1039B00012E088420FDD92F900101E290CDA01F1A5
:1039C000010149B211701E2906DB398801F101019C
:1039D0003980147000E014709649B1F900108842E3
:1039E00005DD142200219248FCF764FC07E09248B0
:1039F00000210088093002B28D48FCF75BFCF02002
:103A0000FCF700FC28B183480168F12901D1406826
:103A10003880B7F900108948012901DC067000E000
:103A200004708748DFF81C82B0F90000A0F1320171
:103A3000282921D8B5F90010834F814203DD388849
:103A400000F1010038808148B0F90000814203DABA
:103A50003888A0F101003880062200217A48FCF75E
:103A600029FCB7F90000052801DD88F8006001286D
:103A700004DA88F8004001E088F800407448754F87
:103A8000B0F90000A0F132011E291FD8B5F90010CD
:103A9000714D814203DD288800F1010028806F48C4
:103AA000B0F90000814203DA2888A0F101002880E3
:103AB000062200216848FCF7FDFBB5F90000052847
:103AC00000DD3E70012800DA3C7096E5C8E0000099
:103AD0004176746F6D6174202333206973204F46E3
:103AE000460000004176746F6D61742023342069B4
:103AF00073204F46460000004176746F6D6174205C
:103B00002335206973204F46460000004176746FCC
:103B10006D6174202336206973204F4646000000F3
:103B20004176746F6D6174202337206973204F468E
:103B3000460000004176746F6D617420233820695F
:103B400073204F46460000004176746F6D6174200B
:103B50002339206973204F46460000004176746F78
:103B60006D6174202331206973204F4E20000000C6
:103B70004176746F6D6174202332206973204F4E3B
:103B8000200000004176746F6D617420233320693A
:103B900073204F4E200000004176746F6D617420D9
:103BA0002334206973204F4E200000004176746F4B
:103BB0006D6174202335206973204F4E2000000072
:103BC0004176746F6D6174202336206973204F4EE7
:103BD000200000004176746F6D61742023372069E6
:103BE00073204F4E200000004176746F6D61742089
:103BF0002338206973204F4E200000004176746FF7
:103C00006D6174202339206973204F4E200000001D
:103C100084E707200C0000100CC207205EC10720BB
:103C200054C407200EC4072060C107200CC407201D
:103C30001CC2072062C1072016C207201400001012
:103C400068C107200DC40720600000106AC107206A
:103C500064C107201500001056C4072066C1072064
:103C60003C70CAE42DE9FC5F0546FF4931F91500B7
:103C700018B1A0F1010021F81500FB4A121D32F91C
:103C8000150018B1A0F1010022F8150005EB450060
:103C900000EB0513F54800EB8304F54BB4F908007D
:103CA000B3F900606423B04201DD21F8153000282B
:103CB00001DA22F81530EC4831F815307C3800274D
:103CC0004BB132F8153033B1B0F85E30A3B140F6E5
:103CD000B831A0F85C10A0F85C7094F83E00401C6D
:103CE000C0B284F83E000A2801D384F83E70E14E49
:103CF0003088322809D017E04FF41673A0F85E30F0
:103D000021F8157022F81570E5E794F83C0058B9D1
:103D1000B4F90200502807DA94F83D00C00703D137
:103D20000121284601F08DFEB6F90000D24EC828C8
:103D30000FDDB4F90800FCF7E3FAB6F90010884289
:103D400007DD94F83D00C00703D00021284601F0AC
:103D500078FEB6F90010B4F908004942884214DD33
:103D6000607B0A280DD200F10100C0B260730A28FE
:103D700071D3A07B00286ED0A773284601F0CFFD39
:103D800069E04FF00A00607365E064DA607BF0B3CD
:103D9000A0F10100C0B26073C8BBA07BB8BB4FF0FC
:103DA0000100A073B548008800F1010000F0070091
:103DB00004EB4000008C0090B14EB08B01904FF0AE
:103DC00063024FF0010101A8FCF769FA04F11C0439
:103DD0009DF804002076307E01904FF00C024FF0E9
:103DE000010101A8FCF75BFA9DF804006076307BC6
:103DF00001901F22012101A8FCF751FA9DF804004F
:103E0000A0769DF80000E076307A019000E022E094
:103E10001722002101A8FCF742FA9DF80400207740
:103E2000307901903B22002101A8FCF738FA9DF877
:103E300004006077307801903B22002101A8FCF754
:103E40002EFA9DF80400A0779DF80100E077278006
:103E50006780A4F11C0448F6A04894F83E00A8BB73
:103E6000B4F90810606908446061DFF81892DFF85F
:103E700018A245F2555B404529DB3AF91500584533
:103E800003D1824830F8156001E03AF8156039F83E
:103E900015002BF0ADFC80B2B0420ED26169A1F5E5
:103EA0000041A1F54A61616139F9152000F1010075
:103EB00001B210462BF09AFD32E031D939F91500E4
:103EC00031B22BF093FDC4F8148029E048E070492A
:103ED000884225DC3AF91500584503D16B4830F883
:103EE000156001E03AF8156039F815002BF080FCF8
:103EF00080B2B04205D939F9150031B22BF076FD08
:103F0000304658B161694144616139F91520A0F129
:103F1000010001B210462BF069FD01E05C486061D0
:103F200039F815002BF064FC01463AF915005845A4
:103F300002D1564830F915004FF47A7201FB02F1B4
:103F400090B1B1FBF0F04FF00A01B0FBF1F020822C
:103F500004F110004FF064024FF00001FCF7AAF9E1
:103F6000A07B012803D016E04FF00000EBE7A08B08
:103F700040450FD2B4F90800FCF7C2F9A18B084400
:103F800080B2A083404506D3A783E08B00F10100F7
:103F9000E08300E0A7833F49B4F90A00B1F90010BB
:103FA000884201DD207BE8B3B4F84000A0F10100B5
:103FB000A4F840004FF4167904F140004A4600216D
:103FC000FCF778F9B4F9400040F24E26B04205DB28
:103FD00094F83F1041F0010184F83F100A2805DCF5
:103FE00094F83F0020F0010084F83F002A49B4F91A
:103FF0000A00B1F90010884201DD207B90B3B4F8CB
:104000004200A0F10100A4F8420004F142004A4637
:104010000021FCF74FF9B4F94200B04207DB94F8F5
:104020003F1000E040E041F0020184F83F100A2810
:1040300005DC94F83F0020F0020084F83F00606C3B
:1040400040453FDA00F10100606440453BDB6764B6
:10405000124C34F815002BF0CBFB401C01B234F9A4
:1040600015001DE027E0000084C0072084E707203A
:1040700048C107201AC1072040C10720F4C107200A
:1040800020400240D867030048C2072040C20720F2
:104090006073FFFF5AC1072058C10720F46703006F
:1040A000BDE8FC5F2BF0A2BCB4F8400000F10100B9
:1040B000A4F840007EE7B4F8420000F10100A4F843
:1040C0004200A2E76764BDE8FC9F2DE9F843FC4C81
:1040D0000021A0790A2809D200F10100C0B2A07124
:1040E0000A2803D3A1714FF001002072E07905285E
:1040F00006D200F10100C0B2E071052800D1E171E3
:10410000BE20FCF77FF8EF4E30B1EF480168BF29C1
:1041100064D14068308061E0207A98B3EB4F387802
:10412000552806D07878552803D0E9480088308093
:1041300054E04FF00000E74A4FF014036D466FF073
:10414000130C395C55290FD025F810C000F101007F
:10415000C0B20228F5D3BDF90000BDF90210DE4A55
:10416000884214DD106013E000EB400101EB001108
:1041700002EB810191F80C80B8F1000F03D025F813
:104180001030E3E72AE0498925F81010DEE71160D6
:104190001068D249002802DAB1F9000017E0282897
:1041A00002DD4FF028001060CD48B0F90030B1F9C1
:1041B0000000A3EB000101EB81014FEA410112680D
:1041C00001FB02F14FF0C80291FBF2F10844A17D1E
:1041D000022902D1C348B0F900003080B6F90000CE
:1041E0004FF0620100FB01F14FF0640291FBF2F12C
:1041F000BD4B19804FF0660100FB01F090FBF2F01F
:10420000BA490880BDE8F8832DE9F041AC4CB4F917
:10421000260010B1A0F10100E084B548B54D00883A
:104220002880AC4F0A26B7F90800002806DAFCF708
:1042300067F890FBF6F0298808442880B7F9540005
:10424000002806DAFCF75CF890FBF6F029880844B1
:104250002880A948B5F90010B0F9000091FBF0F0F2
:1042600000F10100C0B2A074A44AB2F9002091FB91
:10427000F2F101F10101C9B2E174A14B4FF03C052B
:10428000B3F90020904202DD1880E58405E09142F8
:1042900003DAE08C08B91980E5849A4801889A48C5
:1042A00009B101881980B0F90020BDE8F041012171
:1042B0009348FBF7FFBF2DE9F0479448804CB0F9D5
:1042C00000106187B4F95C0018B1A0F10100A4F8F6
:1042D0005C00B4F95E0018B1A0F10100A4F85E0022
:1042E0007C484FF00A0590F83F20920703D190F8E0
:1042F0008B00800702D091FBF5F06087607A002682
:1043000001270A2807D200F10100C0B260720A2812
:1043100001D36672A772E120FBF774FFDFF8F0C1EA
:10432000684A40F2F23878B367490868642808D0D0
:1043300069280BD06E280FD0E52822D0E62824D09B
:1043400064E14968E08B0844A0835FE14868E18B41
:10435000A1EB0000A08359E1A08BA0F1010000B205
:10436000A0831E2806DD6B49BCF90000B1F90010DE
:104370008842E5DA0A230022E721E620FBF703FF63
:1043800044E14868A08341E136E0BCF90000B2F99D
:104390000010884216DDA0EB0100282807DDB4F9E3
:1043A0001C00002803DDA0F10500A0832EE1B4F974
:1043B0001C00002805D0A17A002902D0A0F101003C
:1043C000A08323E10BDA081A282809DDB4F91C00C0
:1043D00040F2F731884203DA00F10500A08315E1CD
:1043E000B4F91C00B0F57F7F05DAA17A002902D06C
:1043F00000F10100A08309E1A07A00285FD04648BF
:10440000008800285BD1B4F91E00E086B4F93810AA
:10441000638F91FBF5F9B9EB430F0ADDB4F85C103B
:1044200019B1A0F10100E086E8E0A0F10A00E08601
:10443000E4E00EDAC3EB031A8A450ADAB4F85C103A
:1044400019B1A0F10100E086D8E0A0F10300E086F8
:10445000D4E0C3EB031A8A4505DD994503DDA0F1DD
:104460000100E086CAE0BCF900C0B2F90020DFF824
:104470006C90DFF86CA0944574DAB9F90090BAF941
:1044800000A0A9EB0A09A2EB090AE24557DD0029C1
:104490000ADAB4F85C1019B100F10100E086ADE071
:1044A00000F10A00E086A9E003EB83028A423ADDCC
:1044B000B4F85C1091B300F10100E0869EE0A5E045
:1044C00008C007200EC207200C00001094C107206E
:1044D0004AC1072084E7072044C4072030C10720D1
:1044E00032C1072042C10720520000103EC40720FD
:1044F0005400001048C4072044C1072046C10720CB
:1045000040C4072056C1072082C1072048C10720A8
:10451000F8C107203AC1072020C20720FFE700F1B9
:104520000200E0866AE0C3EB431202EB8312B2FBA7
:10453000F5F28A4262DD00F10100E0865EE04FEABA
:10454000E97A09EB9A79A2EBA909E1451BDD03EBB6
:1045500083028A420BDDB4F85C1021B100F1010046
:10456000E0864BE01EE000F10200E08646E0C3EB8F
:10457000431202EB8312B2FBF5F28A423EDD00F1F8
:104580000100E0863AE0521E944537DAC3EB43124D
:1045900002EB8312B2FBF5F28A422FDD00F101003B
:1045A000E0862BE02ADDB9F90010BAF90030C91A0B
:1045B0008B1863450ADAB4F85C1019B1A0F1010058
:1045C000E0861BE0A0F10A00E08617E0CB1701EBC4
:1045D000937102EBA10161450ADAB4F85C1019B1DC
:1045E000A0F10100E08609E0A0F10200E08605E00C
:1045F000521C944502DDA0F10100E08642460A21EA
:10460000FF48FBF757FEE08EE083A0832673E67237
:10461000FD48FC4AB0F900100AE000EB800302EB11
:104620000313DB781E2B00D2277300F10100E07228
:10463000E07A8842F1DB207B20B94FF41670A0832A
:10464000E083E086EE4842460A211A38FBF732FE44
:10465000A672BDE8F0872DE9F05F4FF00000ED4A4B
:10466000EA4BEB4D4FF0010A4FF00A0B0646B2F948
:10467000004025E0E849E94F095C37F91110B1F530
:10468000FA6F0EDA19560A2908DA01F1010149B266
:1046900019540A2911DB05F800A00EE003F800B058
:1046A0000BE01956002907DBA1F1010149B21954A9
:1046B000002902DC2E5400E01E5400F10100C0B2BB
:1046C000A042D7DB4FF00004DFF85493D54FDFF85A
:1046D000588383E0D54830F9140010B9295D0129C9
:1046E0000FD008B1285D60B119F90400002819DB6A
:1046F000A0F1010040B209F80400002814DC3E5586
:1047000012E019F904000A2809DA00F1010040B2A8
:1047100009F804000A2807DB07F804A004E009F8F8
:1047200004B001E009F8046018F80410385D814213
:104730004ED0B34A363A918E01F10101918601289B
:1047400007D054B3012C2FD0022C34D0032C39D0F5
:104750003EE034B1012C0BD0022C10D0032C15D02C
:1047600036E001231A460F21B1A029F068FB2FE0A3
:10477000012302220F21B1A029F061FB28E00123CF
:1047800003220F21B0A029F05AFB21E001230422CB
:104790000F21B0A029F053FB1AE0002301220F21C2
:1047A000AFA029F04CFB13E0002302220F21B1A09F
:1047B00029F045FB0CE0002303220F21B2A029F0D1
:1047C0003EFB05E0002304220F21B4A029F037FBB3
:1047D000385D08F8040004F10104E4B28D48B0F932
:1047E00000008442FFF676AFBDE8F09FB04A4FF07C
:1047F00001001070AF4908705070487070472DE983
:10480000F05FAE48DFF8B892DFF8AC82B0F900C0D4
:10481000B9F900007A4CC0EB0011363CB8F90270CF
:104820006FF01D0A6FF0950B0025A14EB4F93E0004
:104830000AEB81020BEB8103674505DCDFF884C2DC
:10484000BCF900C0674504DA824202DD834200DA27
:1048500035709D4FB8F908C0B7F900E0954FBCEB33
:104860004E0F04DCCEF1000EBCEB4E0F04DA824298
:1048700002DD834200DA3D706FF0090202EB810134
:10488000814220D1A07DF0B9307801281BD1387841
:10489000012818D14FF4D6702AF0AAFF8B49B1F93C
:1048A000001088420FD08A48008860B198F83D0017
:1048B000C00708D14FF4D6702BF098F885480178DE
:1048C00001F1010101707D48B8F90210B0F9000052
:1048D000814206DC7B48B8F94E10B0F900008142F5
:1048E0000EDAB9F90000B4F93E10C0EB00100AEB83
:1048F00080028A4204DD0BEB8000884200DA75708A
:104900007149B8F95400B1F90010B0EB410F03DC64
:104910004942B0EB410F0EDAB9F90000B4F93E108C
:10492000C0EB00100AEB80028A4204DD0BEB800032
:10493000884200DA7D70B9F90000C0EB00116FF019
:10494000090000EB8100B4F93E10884221D1A07D1E
:10495000F8B9707801281CD17878012819D14FF462
:10496000E57528462AF044FF5849B1F902108842FB
:104970000FD05748008802280BD198F88900C0074B
:1049800007D128462BF032F85248017801F1010195
:104990000170B9F900006FF00101C0EB001001EBEC
:1049A0008000B4F93E10884202D1BDE8F05F1DE7F7
:1049B0001AE72DE9F0034848484F494E00784FF078
:1049C000000C4FF00108C0B146483946B0F900501C
:1049D0004548B1F90010B0F9009044484D45B0F990
:1049E00000204348B0F900304248B0F90040424846
:1049F000B0F9000002DA824280E0A7E091E0000016
:104A00003EC00720C4E8072082C1072049000010EB
:104A100025C2072088C10720D3670300B0660010B5
:104A200039C4072029C207204D000010B8C2072052
:104A3000534B20233120416C61726D00534B202376
:104A40003220416C61726D00534B20233320416C46
:104A500061726D00534B20233420416C61726D00F4
:104A6000534B20233120416C61726D206973206F9C
:104A700066660000534B20233220416C61726D202A
:104A80006973206F66660000534B20233320416C0E
:104A900061726D206973206F66660000534B20239E
:104AA0003420416C61726D206973206F666600006E
:104AB000560000104AC4072084E707203EC40720A0
:104AC00050C107205200001040C1072048C20720F3
:104AD00080C107204CC4072000C1072062000010DD
:104AE00016000010F8C1072072C1072000C207207D
:104AF00002C2072004C207203CC1072003DB834217
:104B000001DB84420DDAC748B0F90020914221DA76
:104B100001F1010108B2388090421BD186F800C033
:104B200018E0DFF804C3BCF900C0654512DD82421D
:104B300010DD83420EDD84420CDD59B1A1F101018B
:104B400008B2388030B986F8008003E0A7F800C0CA
:104B500086F800803078002807D1BDE8F0030F23E5
:104B600001226E21D220FBF70EBBBDE8F003704797
:104B70002DE9F04F87B0AD48AD4CAE49AE4A007854
:104B800094F90030B1F90010B2F9002048B10228C0
:104B90003CD001287ED04FF00100207007B0BDE866
:104BA000F08FA64FDFF89882B7F90A003D7BB7F97E
:104BB000566098F800C097F8587098F801802BB1AB
:104BC000012BEBD1BCF1550F15D110E0BCF1550F05
:104BD00002D1884207DC35B9B8F1550FDED18E42DB
:104BE00001DC002FDAD04FF001002070D6E79042B0
:104BF000D4DA002DD2D1B8F1550F03D19642CDDAD7
:104C0000002FCBD14FF000002070C7E78E4E8D48AB
:104C1000756AB0F90000F67818B18D427ADC1E2E64
:104C200078D2DFF824C20128DCF874709CF853C0F5
:104C3000CDF818C006DD8F426CDCDDF818C0BCF181
:104C40001E0F67D2DFF800C20228DCF8C480CDF85E
:104C500014809CF8A3C0CDF810C008DDDDF814C0A6
:104C60008C4557DCDDF810C0BCF11E0F52D2DFF8C6
:104C7000D8C10328DCF81481CDF80C809CF8F3C06F
:104C8000CDF808C00ADDDDF80CC08C4542DCDDF84B
:104C900008C000E080E0BCF11E0F3BD2DFF8A88125
:104CA0000428D8F864C198F84381CDF8048006DD63
:104CB0008C452FDCDDF80480B8F11E0F2AD2DFF816
:104CC00088910528D9F8B48199F89391CDF800908E
:104CD00006DD88451EDCDDF80090B9F11E0F19D203
:104CE000DFF864A106289AF8E3E1DAF8049204DD1B
:104CF00089450FDCBEF11E0F0CD2DFF84CB107283E
:104D0000DBF854A29BF833B208DD8A4502DCBBF124
:104D10001E0F03D34FF0010020703FE7012BFCD1A1
:104D200018B19542F9DA0A2EF7D2022804DB97422D
:104D3000F3DA06990A29F0D2032805DB0599914296
:104D4000EBDA04990A29E8D2042805DB0399914299
:104D5000E3DA02990A29E0D2052804DB9445DCDA7B
:104D600001990A29D9D2062804DB9045D5DA0099A1
:104D70000A29D2D2072804DB9145CEDABEF10A0F08
:104D8000CBD2082804DB9245C7DABBF10A0FC4D2A4
:104D90004FF00000207001E72C482D4D2D4EB0F94A
:104DA0000000B5F90050366810B18D421DDCE6B93F
:104DB000274FDFF8A0C00128B7F90270DCF804C063
:104DC00004DD8F4211DCBCF1000F0ED1DFF88080D2
:104DD000DFF880900228B8F90480D9F8089008DD3F
:104DE000884502DCB9F1000F03D04FF001002070BC
:104DF000D4E6012B91D118B195428EDA002E8CD1D8
:104E0000022804DB974288DABCF1000F85D1032821
:104E100004DB9045BFDAB9F1000FBCD14FF00000C0
:104E20002070BBE670C1072074C10720FFC00720B7
:104E300008C007206CC107206EC1072084E7072047
:104E400094C1072082C10720C4E8072086C107203B
:104E50009AC2072014FC072030B5FF48FF4B0178A9
:104E6000186819B140F00100186002E020F001005C
:104E700018604FF00000FA4D4FF0010400EB4001C4
:104E800001EB001105EB810191F83D10C9070AD033
:104E900000F1010104FA01F2196821EA020141EA74
:104EA0000201196007E000F101011A6804FA01F13A
:104EB00022EA01021A6000F10100C0B20228DDD32B
:104EC0004FF00000E74900EB800201EB021252783C
:104ED00052B100F1030504FA05F21D6825EA020546
:104EE00045EA02051D6007E000F1030204FA02F53D
:104EF0001A6822EA05021A6000F10100C0B20C280B
:104F0000E1D34FF00000D54D05F11405295C51B1F6
:104F100000F10F0104FA01F2196821EA020141EAE5
:104F20000201196007E000F10F011A6804FA01F1AB
:104F300022EA01021A6000F10100C0B20628E5D39E
:104F40004FF00000C84D295C012936D000F119014D
:104F50001A6804FA01F122EA01021A6000F1010064
:104F6000C0B20428EFD39C68186820EA0401D96015
:104F70005A6842EA01025A60BC490D8815B122F014
:104F800000725A604A881AB15A6822F080625A60E8
:104F90008A881AB15A6822F000625A60C98819B129
:104FA000596821F08051596024EA00046FEA040135
:104FB0001961AF4A12885AB10DE000F1190204FAE2
:104FC00002F11A6822EA010242EA01021A60C5E708
:104FD00061F0010119611A69596801EA0201596019
:104FE000986030BDF8B54FF4606528462AF000FCA3
:104FF00000F1010004463F2C01D94FF0000421B21A
:1050000028462AF0F3FC40F6026630462AF0F0FB10
:105010003F2800D0204601B230462AF0E7FC28465F
:105020002AF0E6FB4FF4806101EB40144FF055008D
:105030008DF800004FF000068DF801604FF052002F
:105040008DF802008DF80360694620462AF053FD72
:1050500000966946201D2AF04EFD864DA88B8DF8DE
:105060000000287E8DF80100287B8DF802008DF865
:105070000360694604F108002AF03DFD287A8DF8A6
:10508000000028798DF8010028788DF802008DF84D
:105090000360694604F10C002AF02DFD4FF0410534
:1050A0008DF800508DF801508DF802508DF80350A6
:1050B000694604F110002AF01EFD8DF800508DF8AD
:1050C00001508DF802508DF80350694604F1140028
:1050D0002AF011FD8DF800508DF801508DF8025026
:1050E0008DF80350694604F118002AF004FD8DF88C
:1050F00000508DF801508DF802508DF8035069462C
:1051000004F11C002AF0F7FCF8BD2DE9F843594FD3
:105110005149203F4FF460654FF000084FF480691B
:10512000012802D000287ED042E14FF00100087033
:1051300028462AF05DFB00F1010004463F2C01D90E
:105140004FF0000421B228462AF050FC40F60266D7
:1051500030462AF04DFB3F2800D0204601B23046B1
:105160002AF044FC28462AF043FB09EB40154FF097
:1051700050008DF800008DF801804FF041048DF84B
:1051800002408DF80380694628462AF0B4FCCDF829
:1051900000806946281D2AF0AEFC07F12007B88B75
:1051A0008DF80000387E8DF80100387B8DF8020004
:1051B0008DF80380694605F108002AF09CFC387AD6
:1051C0008DF8000038798DF8010038788DF80200EC
:1051D0008DF80380694605F10C002AF08CFC8DF8EF
:1051E00000408DF801408DF802408DF8034069467B
:1051F00005F110002AF07FFC8DF800408DF8014089
:105200008DF802408DF80340694605F114002AF03C
:1052100072FC8DF800408DF801408DF802408DF849
:105220000340694600E031E005F118002AF063FC14
:105230008DF800408DF801408DF802408DF8034054
:10524000694605F11C002AF056FC002301220221C8
:1052500009A028F0F4FDABE00AC10720C0C0072078
:1052600084E70720C4E8072029C20720C8C2072016
:1052700038C10720204002404D61696E20706F7771
:105280006572206973206F666600000081F80080F7
:10529000F948016821F001010160F849098819B154
:1052A000416821F00101416028462AF0A1FA064632
:1052B000344609EB4415694628462AF020FB9DF840
:1052C0000000502806D19DF8010018B99DF8020091
:1052D000412808D014B1A4F1010401E04FF03F04CB
:1052E000B442E6D164E0694605F110002AF007FBFC
:1052F0009DF8000041280BD19DF80100412807D1FD
:105300009DF80200412803D19DF80300412808D0F0
:1053100014B1A4F1010401E04FF03F04B442C8D13C
:1053200046E007F12007B88B8DF80000387E8DF835
:105330000100387B8DF802008DF80380694605F185
:1053400010002AF0D8FB387A8DF8000038798DF8F3
:10535000010038788DF802008DF80380694605F168
:1053600014002AF0C8FBC64801788DF80010407878
:105370008DF801004FF042048DF802408DF8034093
:10538000694605F118002AF0B6FB8DF800408DF84B
:1053900001408DF802408DF80340694605F11C007C
:1053A0002AF0A9FB01231A460221B6A028F047FDE6
:1053B00000BFBDE8F8832DE9F84F06460C464FF0D4
:1053C000540774B1012C04D0022C05D0032C06D054
:1053D00007E04FF0550704E04FF0750701E04FF08C
:1053E0004C07AE48DFF8B08206EB86014FF00009AB
:1053F0004FF4606A4FF4806500EB0110012A02D07F
:10540000002A7ED088E234B1012C09D0022C0CD0C5
:10541000032C0FD012E0417841F0010141700DE002
:10542000417841F00201417008E0417841F0040107
:10543000417003E0417841F00801417080F84F402D
:1054400050462AF0D5F900F101001FFA80FBBBF1AC
:105450003F0F01D94FF0000B0FFA8BF150462AF0A5
:10546000C5FA40F602602AF0C3F980B23F2800D0A6
:10547000584601B240F602602AF0B8FA50462AF0C7
:10548000B7F905EB401085B24FF053008DF80000DE
:105490008DF801608DF802708DF8039069462846FA
:1054A0002AF029FBCDF800906946281D2AF023FB3D
:1054B000B8F83C008DF8000098F838008DF801002D
:1054C00098F82C008DF802008DF80390694605F1DC
:1054D00008002AF010FB98F828008DF8000098F8D2
:1054E00024008DF8010098F820008DF802008DF856
:1054F0000390694605F10C002AF0FDFA4FF04107D0
:1055000000E0A5E08DF800708DF801708DF8027054
:105510008DF80370694605F110002AF0ECFA8DF859
:1055200000708DF801708DF802708DF80370694677
:1055300005F114002AF0DFFA8DF800708DF8017083
:105540008DF802708DF80370694605F118002AF095
:10555000D2FA8DF800708DF801708DF802708DF818
:105560000370694605F11C002AF0C5FA26B1012E28
:1055700026D0022E48D0CFE134B1012C0BD0022C22
:1055800010D0032C15D0C7E100230122042144A030
:1055900028F055FCC0E101231A46042146A028F05A
:1055A0004EFCB9E10223012204214AA028F047FC65
:1055B000B2E10323012204214EA028F040FCABE11C
:1055C00034B1012C0BD0022C10D0032C15D0A3E148
:1055D0000023022204214FA028F031FC9CE101238A
:1055E0000222042151A028F02AFC95E102231A4648
:1055F000042155A028F023FC8EE10323022204217C
:1056000059A028F01CFC87E134B1012C0BD0022CEE
:1056100010D0032C15D07FE10023032204215AA0CF
:1056200028F00DFC78E10123032204215CA028F07E
:1056300006FC71E102230322042160A028F0FFFB95
:105640006AE103231A46042164A028F0F8FB63E111
:1056500034B1012C09D0022C0CD0032C0BD0D6E095
:10566000417821F001014170D1E0417821F002013F
:105670004170CCE0C2E0C6E0C0C0072038C10720BE
:10568000460000104D61696E20706F776572206969
:1056900073206F6E0000000000400240C4E8072045
:1056A00042505320233120416C61726D2C206F7663
:1056B00065726865617400004250532023312041B7
:1056C0006C61726D2C20766F6C74616765206973F4
:1056D0002075700042505320233120416C61726D5F
:1056E0002C20766F6C7461676520697320646F7716
:1056F0006E00000042505320233120416C61726DD6
:105700002C20636F6E6E656374206973206C6F73F9
:105710007400000042505320233220416C61726DAE
:105720002C206F76657268656174000042505320CA
:10573000233220416C61726D2C20766F6C7461672E
:105740006520697320757000425053202332204138
:105750006C61726D2C20766F6C7461676520697363
:1057600020646F776E0000004250532023322041A6
:105770006C61726D2C20636F6E6E6563742069734B
:10578000206C6F737400000042505320233320417B
:105790006C61726D2C206F766572686561740000B3
:1057A00042505320233320416C61726D2C20766F60
:1057B0006C746167652069732075700042505320D6
:1057C000233320416C61726D2C20766F6C7461679D
:1057D0006520697320646F776E000000425053208B
:1057E000233320416C61726D2C20636F6E6E656394
:1057F00074206973206C6F7374000000417821F08D
:105800000401417003E0417821F0080141705046E5
:1058100029F0EEFF1FFA80FB5C4605EB44101FFAEF
:1058200080FA694650462AF06AF89DF8000053282D
:1058300007D19DF80100B04203D19DF80200B842A3
:1058400009D01CB1A4F10104A4B201E04FF03F045F
:105850005C45E2D160E069460AF110002AF04FF899
:105860009DF8000041280BD19DF80100412807D187
:105870009DF80200412803D19DF80300412809D07A
:105880001CB1A4F10104A4B201E04FF03F045C4557
:10589000C3D141E0B8F83C008DF8000098F838001A
:1058A0008DF8010098F82C008DF802008DF8039017
:1058B00069460AF110002AF01EF998F828008DF8C0
:1058C000000098F824008DF8010098F820008DF869
:1058D00002008DF8039069460AF114002AF00BF9D2
:1058E0004FF042048DF800408DF801408DF80240E1
:1058F0008DF8034069460AF118002AF0FCF88DF88B
:1059000000408DF801408DF802408DF80340694653
:105910000AF11C002AF0EFF800BFBDE8F88F2DE96E
:10592000FC41064606EB460000EB0611FF4800EB83
:105930008104E08B05287ED3FD48008800F1060035
:1059400000F0070004EB4000008C00904FF460670B
:10595000384629F04DFF00F1010085B23F2D01D9F5
:105960004FF0000529B238462AF040F840F60268A8
:10597000404629F03DFF80B23F2800D0284601B2C2
:1059800040462AF033F8384629F032FF4FF4806160
:1059900001EB401085B24FF042008DF804008DF805
:1059A00005604FF057008DF806004FF000068DF8A7
:1059B000076001A928462AF09EF8A07F8DF8040010
:1059C000E07F8DF805009DF800008DF806009DF839
:1059D00001008DF8070001A9281D2AF08CF804F1B8
:1059E000340105F108002AF086F804F1380105F1C8
:1059F0000C002AF080F8CF4CA08B8DF80400207E9C
:105A00008DF80500207B8DF806008DF8076001A950
:105A100005F110002AF06FF8207A8DF80400207943
:105A20008DF8050020788DF806008DF8076001A933
:105A300005F1140000E001E02AF05DF800BFBDE8C8
:105A4000FC812DE9F84F0646B84806EB4602DFF820
:105A5000E88202EB06124FF0000A4FF042094FF4C1
:105A600060654FF4806B00EB8200012902D00029B1
:105A70007DD02FE110F83D1F41F001010170284653
:105A800029F0B6FE00F1010084B23F2C01D94FF09D
:105A9000000421B2284629F0A9FF40F602673846E3
:105AA00029F0A6FE80B23F2800D0204601B2384639
:105AB00029F09CFF284629F09BFE0BEB401084B296
:105AC0008DF800908DF801604FF043008DF80200D2
:105AD0008DF803A0694620462AF00DF8CDF800A005
