:020000040000FA
:1000000098740010E1000000E5000000E700000027
:10001000E9000000EB000000ED000000000000001F
:10002000000000000000000000000000EF000000E1
:10003000F100000000000000F30000000F79030051
:10004000F70000006DA9030099A90300F700000064
:10005000F70000001FDB0300F7000000F7000000BE
:10006000F7000000F7000000F7000000F7000000B4
:10007000F7000000F7000000F7000000F7000000A4
:10008000F7000000F7000000F7000000F700000094
:10009000F7000000F700000015750000F7000000F1
:1000A000F7000000EBD80300F7000000F7000000A5
:1000B00057FD0300F7000000F7000000F700000004
:1000C000F7000000F7000000F7000000DFF80CD098
:1000D0003FF0CAFE00480047A77A0300987400105A
:1000E00005480047FEE7FEE7FEE7FEE7FEE7FEE71E
:1000F000FEE7FEE7FEE7FEE7CD000000FEE710B5F5
:1001000040F084FB40F0E0FB40F0D2FBAFF3008016
:10011000BDE8104040F09EBB10B541F055F941F0EC
:1001200079FDBDE8104041F0A5B941F0B7B840F005
:100130008FBE09B10020704740F092BA002070478E
:1001400030B50020354BA3F1140202F10A04115C12
:1001500051B1255CA94207D1195C29B1491EC9B228
:10016000195409B900211154115C2154401CC0B22A
:100170000A28ECD330BD70B50024284E143E641C10
:10018000E4B2355D1DB1854201D00A2CF7D330555C
:1001900022480C3040F82410283040F8242034380D
:1001A000035570BD00211D4A143A491CC9B2535C65
:1001B000834201D00A29F8D3535C834210D11748F7
:1001C0000C3050F8213016480360144B343353F888
:1001D0002130436000205054104A50540120704791
:1001E0000020704700210D4A143A491CC9B2535CE3
:1001F000834201D00A29F8D3525C82420CD10748CD
:100200000C3050F8212006480260044A343252F87B
:100210002110416001207047002070477C5F001072
:1002200000C007200D4BDA601870597070470B4AF8
:100230001161907070470949088170470749B1F909
:100240000800002808D0401E00B20881002803D111
:100250000021084601F0D1BA7047000008C007200D
:1002600090F900308B4200DA027090F9003093422E
:1002700000DD0170704790F900308B4200DA0170A8
:1002800090F90010914200DD02707047B0F9003023
:100290008B4200DA0180B0F90010914200DD02804B
:1002A0007047B0F900308B4200DA0280B0F90030BC
:1002B000934200DD0180704710B50446204600F0EF
:1002C00018F8002805D020463FF0A6FD10B1A4F193
:1002D000300010BD20463FF0A3FD10B1A4F157003F
:1002E00010BD20463FF0A0FD0028F9D0A4F1370052
:1002F00010BDFE21C0B23FF0A3BD7047FFFFFFFF5E
:10030000002801DA404200B270470020FF4A202155
:100310001154401CC0B2C828FAD3704701460020CF
:10032000FA4A401CC0B2135C8B4201D0C828F8D3F3
:10033000704710B50021F64C0A220346B0FBF2F0DC
:1003400002FB10336354491CC9B20529F5D310BD13
:10035000F0B5F04D0121297005212026EC4B002736
:100360002A7842B15A1812F8014C24B9814202D9B4
:1003700002F8016C05E05A1812F8014D303414707F
:100380002F70491EC9B20029EAD1F0BDFEB503465F
:100390002B27002B02DA584203B22D2700200A2413
:1003A0006D4693FBF4F604FB16332B5433B2401C1A
:1003B00040B20A28F5DB012300240920202643B19E
:1003C00015F800C0BCF1000F03D1904201DD2E549E
:1003D00005E02B5C30332B540023641CE4B2401E38
:1003E00040B20028EBDA2D2F03D12046641CE4B282
:1003F0002F546AB160B205E02B1813F8013C2B545E
:10040000401E40B29042F7DC2E20A854641CE4B297
:100410000846FFF783FF0021BC4A04E0461A6B5CE4
:100420009355491C49B2A142F8DBFEBDFEB5034617
:100430002B27002B01DA5B422D2700200A246D4672
:100440001E4693FBF4F304FB13662E54401C40B28B
:100450000A28F5DB012300240920202643B115F8E2
:1004600000C0BCF1000F03D1904201DD2E5405E025
:100470002B5C30332B540023641CE4B2401E40B28A
:100480000028EBDA2D2F03D12046641CE4B22F5450
:100490006AB160B205E02B1813F8013C2B54401EE2
:1004A00040B29042F7DC2E20A854641CE4B2084607
:1004B000FFF734FF0021954A04E0461A6B5C935520
:1004C000491C49B2A142F8DBFEBD2DE9FE414FF0C7
:1004D0002B0C002802DA40424FF02D0C00240A2594
:1004E0006F46064690FBF5F005FB10663E55641C12
:1004F00064B20A2CF5DB012500240920202645B131
:1005000017F80080B8F1000F03D1984201DD3E5486
:1005100005E03D5C30353D540025641CE4B2401ECE
:1005200040B20028EBDABCF12D0F04D12046641C48
:10053000E4B207F800C06BB160B205E03D1815F8F1
:10054000015C3D54401E40B29842F7DC2E20F85426
:10055000641CE4B201EB810002EB8000C1B2002018
:100560006A4A04E00D1A3B5C5355401C40B2A0425D
:10057000F8DBBDE8FE8170B50D4616461C46FFF758
:10058000D8FE601CC0B2FFF7E3FE05EB850006EB6A
:100590008000C1B200205E4B5C4DA04201D21A5CCB
:1005A0006A5406D31A5C202A03D04CB16E1806F8A0
:1005B000012C491EC9B2401CC0B20528EDD370BD44
:1005C0006A54F6E730B5044608461546FFF7A6FE1E
:1005D000FF2809D04D4A04E04319641CD154401C43
:1005E000C0B221780029F7D130BD70B50D46144650
:1005F000FFF79FFE601CC0B2FFF7AAFE2846FFF778
:100600008DFE0021424A414D24B9535C202B01D07C
:100610002B5414E0A14202D2535C2B540FE008D1BA
:100620004FF02E032B5405EB0006535C06F8013CFB
:1006300005E0535C202B02D02E1806F8013C401E2A
:10064000C0B2491CC9B20529DED370BD10440028D0
:1006500001DA084402E0884200DB401AC0B2704769
:100660002DE9FE4F04460D464FF460603AF07DFEE2
:1006700062424021FFF7EAFF400100F5806402A9D1
:1006800020463AF0EEFE01A904F108003AF0E9FE36
:10069000694604F10C003AF0E4FE2846FFF73EFEFE
:1006A00083469DF80800402630252127DFF868A002
:1006B000DFF8589020244FF02308552842D0CF224D
:1006C000D12150287DD0E22351287BD042287AD0F6
:1006D000532879D0492878D1C0210BF10100C0B24C
:1006E00009F80B10C222411CC9B209F800202E22C1
:1006F000481CC0B209F80120C822411CC9B209F83F
:100700000020ED25481CC2B208E0000022030010C2
:10071000740400105EC007200040024009F8015038
:10072000501CC0B209F802309DF8091009297ED288
:100730003131421CD2B209F80010501CC0B209F885
:100740000240FEE39DF80A00522810D1C2210BF1AD
:100750000100C0B209F80B10EA22411CC9B209F825
:100760000020EB22481C00F0FF0B09F801200BF1E0
:100770000100C0B209F80B40411CC9B209F80040A1
:10078000481CC0B209F80140411CC9B209F8004038
:10079000481CC0B209F801409DF80410BAF83C208A
:1007A000914245D19DF805109AF8382091423FD1E9
:1007B0009DF806109AF82C20914239D1411CC9B2FB
:1007C00004E071E017E1BEE1FEE32EE009F800501D
:1007D000481CC0B209F801703A22411CC9B209F89C
:1007E0000020481CC0B209F80150411CC9B209F8E8
:1007F0000060481CC0B209F80120411CC9B209F8C8
:10080000005009F801809DF8000000222121FFF727
:10081000ECFE9DF8010000224021FFF7E6FE9DF866
:10082000020000222321FFF7E0FEBDE8FE8FFEE379
:10083000411CC9B209F80040481CC0B209F8015077
:10084000411CC9B209F80070481CC0B209F8016027
:10085000411CC9B209F80040481CC0B209F8014067
:10086000411CC9B209F8005009F801809DF8060042
:1008700000222121FFF7B9FE9DF804000022232168
:10088000FFF7B3FE9DF80500401E0C2802D301209F
:100890008DF805009DF80510FD48002200EB810051
:1008A0004021FFF78FFEC0E7C0230BF10100C0B26B
:1008B00009F80B30C22300F1010C0CF0FF0C09F811
:1008C00000302E230CF10100C0B209F80C30431C9B
:1008D000DBB209F80020581CC0B209F80310411C13
:1008E000C9B209F80040481CC2B209F80140501CC6
:1008F000C0B209F802409DF80410BAF83C209142B9
:100900003DD19DF805109AF83820914237D19DF8D5
:1009100006109AF82C20914231D1411CC9B209F835
:100920000050481CC0B209F801703A22411CC9B2FB
:1009300009F80020481CC0B209F80150411CC9B296
:1009400009F80060481CC0B209F80120411CC9B276
:1009500009F8005009F801809DF8000000222121CB
:10096000FFF743FE9DF8010000224021FFF73DFE06
:100970009DF8020000222321FFF737FE55E7411CB6
:10098000C9B209F80040481CC0B209F80150411C26
:10099000C9B209F80070481CC0B209F80160411CD6
:1009A000C9B209F80040481CC0B209F80140411C16
:1009B000C9B209F8005009F801809DF8060000222C
:1009C0002121FFF712FE9DF8040000222321FFF7EA
:1009D0000CFE9DF80500401E0C2802D301208DF866
:1009E00005009DF80510AA48002200EB8100402177
:1009F000FFF7E8FD19E7C0210BF10100C0B209F8CB
:100A00000B10C222411CC9B209F800202E22481C3A
:100A1000C0B209F801205522411CC9B209F80020D2
:100A2000481CC0B209F80130FB22411CC9B209F8C8
:100A30000020F5204A1CD2B209F80100501CC0B2B7
:100A400009F802409DF80410BAF83C2091423DD1CB
:100A50009DF805109AF83820914237D19DF806107C
:100A60009AF82C20914231D1411CC9B209F80050AA
:100A7000481CC0B209F801703A22411CC9B209F8F9
:100A80000020481CC0B209F80150411CC9B209F845
:100A90000060481CC0B209F80120411CC9B209F825
:100AA000005009F801809DF8000000222121FFF785
:100AB0009CFD9DF8010000224021FFF796FD9DF866
:100AC000020000222321FFF790FDAEE6411CC9B2CF
:100AD00009F80040481CC0B209F80150411CC9B2D5
:100AE00009F80070481CC0B209F80160411CC9B285
:100AF00009F80040481CC0B209F801400246401CF9
:100B0000C1B209F8025009F801809DF806000022E0
:100B10002121FFF76AFD9DF8040000222321FFF741
:100B200064FD9DF80500401E0C2802D301208DF8BD
:100B300005009DF805105648002200EB8100402179
:100B4000FFF740FD71E69DF80A0043287DD1C021E2
:100B50000BF10100C0B209F80B10C222411CC9B24E
:100B600009F800202E22481CC0B209F80120C12239
:100B7000411CC9B209F80020E0204A1CD2B209F891
:100B80000100F221501CC0B209F802109DF80920A2
:100B9000092A0DD23132411CC9B209F80020481C83
:100BA000C2B209F80140501CC0B209F8024026E068
:100BB000A2F109015A2916D2521C4FF00A0CB2FBBD
:100BC000FCF303F1300B411CC9B209F800B00CFB77
:100BD000132030304A1CD2B209F80100501CC0B2B8
:100BE00009F802400BE0411CC9B209F80040481C5A
:100BF000C2B209F80140501CC0B209F802409DF889
:100C00000410BAF83C20914244D19DF805109AF89E
:100C1000382091423ED19DF806109AF82C2091423E
:100C200038D1411CC9B209F80050481CC2B209F8B9
:100C300001703A23501CC0B209F80230411CC9B2FD
:100C400009F80050481CC0B200E061E009F80160FA
:100C5000411CC9B209F80030481CC0B209F8015063
:100C6000411C01F0FF0B09F800809DF800000022F4
:100C70002121FFF7BAFC9DF8010000224021FFF777
:100C8000B4FC9DF8020000222321FFF7AEFC3FE0F8
:100C9000902A0400411CC9B209F80040481CC0B2A7
:100CA00009F80150411CCAB209F80070501CC1B2C9
:100CB00009F80260481CC0B209F80140411CC9B2E1
:100CC00009F80040481CC0B209F80150411C01F06D
:100CD000FF0B09F800809DF8060000222121FFF794
:100CE00084FC9DF8040000222321FFF77EFC9DF880
:100CF0000500401E0C2802D301208DF805009DF848
:100D00000510FF48002200EB81004021FFF75AFC4C
:100D10009DF80A0053287ED1C0230BF10100C0B218
:100D200009F80B30C222411CC9B209F800202E225A
:100D3000481CC0B209F80120C122411CC9B209F8FF
:100D40000020E0204A1CD2B209F80100F221501C18
:100D5000C0B209F802109DF809104FF0430C0929A0
:100D60000DD23131421CD2B209F80010501CC1B270
:100D700009F80230481CC0B209F801C01BE009396B
:100D80005A290CD2411CC9B209F80030481CC2B221
:100D900009F801C0501CC0B209F802400BE0411C28
:100DA000C9B209F80040481CC2B209F80140501C01
:100DB000C0B209F802409DF80410BAF83C209142F4
:100DC00042D19DF805109AF8382091423CD19DF807
:100DD00006109AF82C20914236D1411CC9B209F86C
:100DE0000050481CC0B209F801703A22411CC9B237
:100DF00009F80020481CC0B209F80150411CC9B2D2
:100E000009F80060481CC0B209F80120411CC9B2B1
:100E100009F8005000E055E0481C00F0FF0B09F80D
:100E200001809DF8000000222121FFF7DEFB9DF8E4
:100E3000010000224021FFF7D8FB9DF802000022AC
:100E40002321FFF7D2FB3DE0411CC9B209F8004065
:100E5000481CC0B209F80150411CC9B209F8007021
:100E6000481CC0B209F80160411CC9B209F8004031
:100E7000481CC0B209F80140411CC9B209F8005031
:100E8000481C00F0FF0B09F801809DF806000022C5
:100E90002121FFF7AAFB9DF8040000222321FFF780
:100EA000A4FB9DF80500401E0C2802D301208DF8FC
:100EB00005009DF805109248002200EB81004021BA
:100EC000FFF780FB9DF80A005A2866D1C2210BF17A
:100ED0000100C0B209F80B10C722411CC9B209F8C1
:100EE0000020481CC0B209F80140411CC9B209F8F1
:100EF0000040481CC0B209F80140411CC9B209F8C1
:100F00000040481CC0B209F801409DF80410BAF82E
:100F10003C20914242D19DF805109AF83820914228
:100F20003CD19DF806109AF82C20914236D1411CF4
:100F3000C9B209F80050481CC0B209F801703A2241
:100F400000E007E3411CC9B209F80020481CC0B208
:100F500009F80150411CC9B209F80060481CC0B230
:100F600009F80120411CC9B209F80050481C00F0E2
:100F7000FF0B09F801809DF8000000222121FFF7F6
:100F800034FB9DF8010000224021FFF72EFB9DF865
:100F9000020000222321FFF728FB3FE0411CC9B2D9
:100FA00009F80040481CC2B209F80150501CC0B2F8
:100FB00009F80270411CC9B209F80060481CC0B2AF
:100FC00009F80140411C00E0DBE1C9B209F800402A
:100FD000481CC0B209F80150411C01F0FF0B09F890
:100FE00000809DF8060000222121FFF7FEFA9DF8FF
:100FF000040000222321FFF7F8FA9DF80500401EA7
:101000000C2802D301208DF805009DF805103C48FE
:10101000002200EB81004021FFF7D4FA9DF80A007E
:1010200057286FD10BF10100C121C0B200E07CE272
:1010300009F80B10E022411CC9B209F80020F22087
:101040004A1CD3B209F801009DF809104FF0F00EC8
:1010500009290DD23131581CC0B209F80310411CC6
:10106000C9B209F800E0481CC2B209F8014026E004
:10107000A1F109005A2816D2491C4FF00A0BB1FB06
:10108000FBF202F1300C581CC0B209F803C00BFB94
:1010900012123032411CC9B209F80020481CC2B2F9
:1010A00009F801E00BE0581CC0B209F80340411CEC
:1010B000C9B209F80040481CC2B209F80140501CEE
:1010C000C0B209F802409DF80410BAF83C209142E1
:1010D00044D19DF805109AF8382091423ED19DF8F0
:1010E00006109AF82C20914238D1411CC9B209F857
:1010F0000050481CC2B209F801703A23501C02E0AB
:10110000902A040068E0C0B209F80230411CC9B25C
:1011100009F80050481CC0B209F80160411CC9B26E
:1011200009F80030481CC0B209F80150411C01F018
:10113000FF0B09F800809DF8000000222121FFF735
:1011400054FA9DF8010000224021FFF74EFA9DF865
:10115000020000222321FFF748FA3DE0411CC9B2FA
:1011600009F80040481CC0B209F80150411CC9B23E
:1011700009F80070481CC2B209F80160501CC0B2E6
:1011800009F80240411CC9B209F80040481CC0B22D
:1011900009F80150411C01F0FF0B09F800809DF88F
:1011A000060000222121FFF720FA9DF8040000220A
:1011B0002321FFF71AFA9DF80500401E0C2802D3E0
:1011C00001208DF805009DF80510F748002200EB7E
:1011D00081004021FFF7F6F99DF80A004B287FF4C3
:1011E00009ACC1210BF10100C0B209F80B10E022DB
:1011F000411CC9B209F80020F222481CC0B209F80B
:1012000001209DF8091009290FD23131421CD2B2B8
:1012100009F80010EA21501CC0B209F80210E522BA
:10122000411CC9B209F8002027E0A1F109025A2A9D
:1012300017D2491C4FF00A0BB1FBFBF303F1300C42
:10124000421CD2B209F800C00BFB13113031501C04
:10125000C0B209F80210EA22411CC9B209F8002004
:101260000BE0411CC9B209F80040481CC0B209F8A3
:101270000140411CC9B209F80040481CC0B209F83D
:1012800001409DF80410BAF83C2091423DD19DF8F0
:1012900005109AF83820914237D19DF806109AF837
:1012A0002C20914231D1411CC9B209F80050481C90
:1012B000C0B209F801703A22411CC9B209F80020F5
:1012C000481CC0B209F80150411CC9B209F80060BD
:1012D000481CC0B209F80120411CC9B209F80050ED
:1012E00009F801809DF8000000222121FFF77DF917
:1012F0009DF8010000224021FFF777F99DF80200D8
:1013000000222321FFF771F91CE4411CC9B209F83E
:101310000040481CC0B209F80150411CC9B209F88C
:101320000070481CC0B209F80160411CC9B209F83C
:101330000040481CC0B209F80140411CC9B209F87C
:10134000005009F801809DF8060000222121FFF7D6
:101350004CF99DF8040000222321FFF746F99DF87F
:101360000500401E0C2802D301208DF805009DF8D1
:1013700005108D48002200EB81004021FFF722F983
:10138000C2E7C0230BF10100C0B209F80B30C22341
:1013900000F1010C0CF0FF0C09F800302E230CF1C9
:1013A0000100C0B209F80C304FF0C10C431CDBB295
:1013B00009F800C0581C00F0FF0C09F803200CF1DC
:1013C0000100C0B209F80C109DF80920092A09D2C1
:1013D0003132411CC9B209F80020481CC2B209F8D8
:1013E00001401EE0A2F109015A2912D2521C4FF00D
:1013F0000A0BB2FBFBF303F1300C411CC9B209F834
:1014000000C00BFB132030304A1CD2B209F8010097
:1014100007E0411CC9B209F80040481CC2B209F8F3
:101420000140501CC0B209F802409DF80410BAF8FF
:101430003C2091423DD19DF805109AF83820914208
:1014400037D19DF806109AF82C20914231D1411CD9
:10145000C9B209F80050481CC0B209F801703A221C
:10146000411CC9B209F80020481CC0B209F801505B
:10147000411CC9B209F80060481CC0B209F801203B
:10148000411CC9B209F8005009F801809DF800001C
:1014900000222121FFF7A9F89DF801000022402138
:1014A000FFF7A3F89DF8020000222321FFF79DF823
:1014B0002AE7411CC9B209F80040481CC0B209F82B
:1014C0000150411CC9B209F80070481CC0B209F8AB
:1014D0000160411CC9B209F80040481CC0B209F8BB
:1014E0000140411CC9B209F8005009F801809DF87B
:1014F000060000222121FFF778F89DF80400002261
:101500002321FFF772F89DF80500401E0C2802D336
:1015100001208DF805009DF805102348002200EBFE
:1015200081004021FFF74EF8EEE6A1F109025A2AA8
:1015300011D2491C0A26B1FBF6F303F13005421C17
:10154000D2B209F8005006FB13113031501CC0B262
:1015500009F8021007E0411CC9B209F80040481C14
:10156000C0B209F8014009F80040CDE6F0B50446E4
:10157000084616461F46FEF7D1FE024610460B4DA2
:10158000FF2804D106E02954641C401CC0B2217815
:101590000029F8D106480078002804D0002F02D096
:1015A0005F2091196854F0BD902A040022030010B6
:1015B000E20000102DE9F04F0746DDE909058846F5
:1015C00091469A46FEF7AAFEFD4B2021FD4C0A22C9
:1015D0004FF0640C012D08D11E7836B12618A6F103
:1015E0000E06B1707170317015E097FBF2FB02FBD3
:1015F0001B7E26180EF1300E06F80CEC9BFBF2FE5B
:1016000002FB1EBB0BF1300B06F80DBC97FBFCF781
:10161000303706F80E7C022D08D11E7836B1261818
:10162000A6F10A06B1707170317016E098FBF2F7FE
:1016300002FB178B2618A6F10A060BF1300B86F871
:1016400002B097FBF2FB02FB1B7707F130077770C4
:1016500098FBFCF707F130073770032D08D11E788F
:1016600036B12618A6F10606B1707170317016E019
:1016700099FBF2F702FB17982618A6F1060608F167
:10168000300886F8028097FBF2F802FB187707F122
:101690003007777099FBFCF707F130073770042D9E
:1016A00009D11B783BB121542044A0F102004170C4
:1016B0000170BDE8F08F9AFBF2F102FB11A3303309
:1016C000235491FBF2F302FB13112044A0F102001A
:1016D000303141709AFBFCF101F130010170E8E713
:1016E00017B501EB810002EB8000C2B29DF800301B
:1016F000B54803F00F01445CB2498C54521ED2B27B
:1017000000EB13131B788B54521ED2B29DF801309C
:1017100003F00F04045D8C54521ED2B200EB13137D
:101720001B788B54521ED2B29DF8023003F00F0486
:10173000045D8C54521ED2B200EB13131B788B54F1
:10174000521ED3B29DF8032002F00F04045DCC5466
:101750005B1EDBB200EB12100078C8541EBD30B522
:101760009A490124974B91F9012091F904108A427A
:1017700004D100EB800003F8204030BD4D1CAA428C
:1017800005D1401C00EB800003F8204030BD8D1CCB
:10179000AA4205D1801C00EB800003F8204030BD38
:1017A000CD1CAA4205D1C01C00EB800003F82040EC
:1017B00030BD0D1DAA4205D1001D00EB800003F8CD
:1017C000204030BD4D1DAA4205D1401D00EB8000D8
:1017D00003F8204030BD8D1DAA4205D1801D00EBCD
:1017E000800003F8204030BDC91D8A42FBD1C01DD6
:1017F00000EB800003F8204030BD754B1A88521E64
:10180000104400B21880734A00EB800002446F4815
:101810001368036012790271427811444170704775
:1018200070B56B4DB5F90040661C2E80694D04EB18
:1018300084042544654C26682E6026792E7120701C
:1018400061702271A37070BD2DE9F04180460F4692
:101850001646FEF75AFD5B4C002518F8010B04F8FC
:10186000010B6D1CEDB2142DF7D3002017F8011BEE
:1018700004F8011B401CC0B21428F7D3002016F84E
:10188000011B04F8011B401CC0B21428F7D3002030
:1018900013F8011B04F8011B401CC0B21428F7D335
:1018A000BDE8F08110B5029CFFF7CEFF4748C37832
:1018B00082784178A320FFF7B3FF642094FBF0F017
:1018C000BDE81040C0B2FEF7B6BC2DE9FE430D46A0
:1018D000400100F5806402A9204639F0C2FD01A94B
:1018E00004F1080039F0BDFD694604F10C0039F03F
:1018F000B8FD2846FEF712FD2026324C411CC9B225
:1019000026543027481CC0B267544FF02108411CB0
:10191000C9B204F800804FF04009481CC0B204F876
:101920000190411CC9B22654481CC0B26654411CE7
:10193000C9B227542322481CC5B262549DF8060040
:1019400000222121FEF751FE9DF8040000222321F0
:10195000FEF74BFE9DF80500401E0C2802D3012027
:101960008DF805009DF805001B49002201EB800061
:101970004021FEF727FE681CC0B26655411CC9B263
:101980002754481CC0B204F801803A22411CC9B255
:101990002254481CC0B26754411CCDB204F80090D8
:1019A0009DF8000000222121FEF71FFE9DF8010096
:1019B00000224021FEF719FE6655BDE8FE830000B7
:1019C000E2000010220300101A2B0400A8020010ED
:1019D0000E01001002600010902A04002DE9FC4165
:1019E0000646FC4D00272F76287D012302280ED0C5
:1019F00006EB460101EB0612F74901EB820494F86D
:101A00003D10CA0705D066202876BDE8FC812B76FC
:101A1000FBE794F83F20920702D567202876F4E789
:101A2000890702D568202876EFE7EC4AB4F9081058
:101A3000B2F90020914202DD69202876E5E75242A2
:101A4000914202DA6A202876DFE7E2490128497DDF
:101A500000D111B1012803D004E06B202876D4E72F
:101A600001297CD0642028762B75A5F85C301946B6
:101A70004FF4F87039F06AFD6E75A5F85E60314676
:101A80004FF4FA7039F062FDA761D548002130F9B2
:101A9000160039F05BFDAF75A5F8607039464FF45C
:101AA000FB7039F053FDCF480088401C00F0070060
:101AB00004EB4000008C0190CB4DA88B00904FF0C0
:101AC00063024FF001016846FEF7D5FBC14C9DF85B
:101AD0000000A4342070287E00900C22012168466A
:101AE000FEF7C9FB9DF800006070287B00901F2264
:101AF00001216846FEF7BFFB9DF80000A0709DF82D
:101B00000400E0704FF4FC70216839F059FD287A28
:101B10000090172200216846FEF7ADFB9DF80000FB
:101B20002071287900903B2200216846FEF7A3FB34
:101B30009DF800006071287800903B2200216846E3
:101B4000FEF799FB9DF80000A0719DF80500E0717B
:101B50004FF4FE70616839F033FD56E7FFE76C2003
:101B6000287652E72DE9F0479A4C207D01287ED156
:101B700021460126497DA07DC1F1010206FA02F14C
:101B8000974F954D0AB210B1012833D037E0142396
:101B9000CA21C820FEF7EFFA14234FF0FF32CE21FE
:101BA000CD20FEF7E8FA607D00EB400101EB00106C
:101BB00005EB8000B0F90800FEF7A2FB617D01EBA8
:101BC000410202EB011205EB820293691844906115
:101BD00048F6A043984212DBC01A906137F8110012
:101BE00039F0C3FB401C01B2607D37F9100039F0B9
:101BF000ADFC04E01423CA21C820FEF7BCFA617DC5
:101C00004FF4F87901EB410000EB011005EB800087
:101C10004FF00008B0F902207448B0F9000000EB62
:101C20008000B2EB400F45DAB4F85800401C00B217
:101C3000A4F858001E283FDB207D012821D1A07D7B
:101C4000F8B937F8110039F090FB01B26848627DAD
:101C500030F9120039F07AFC607D37F8100039F065
:101C600084FB81B2607D05F04AFA624800E045E0FD
:101C7000617D30F91100002139F068FC32202084A8
:101C80006084607D5C49C0F10100085C552808D083
:101C900084F81480A4F85C800021484639F056FC92
:101CA0000AE0A675A4F8606001214FF4FB7039F0DA
:101CB0004DFC01E0A4F85880617D01EB410000EB90
:101CC000011005EB8000B0F90220C1F1010000EB2A
:101CD000400101EB001005EB8000B0F902008242E8
:101CE0000CDBA07D012809D184F81480A4F85C8065
:101CF0004846BDE8F047002139F028BCBDE8F08730
:101D000070B505460026334C207D18BB3B48008843
:101D100001281FD004F11E04022104F80A1CE187E7
:101D20004FF4F87039F012FCE586C5EB0510810020
:101D30000D46A1874FF4F97039F008FC29464FF49D
:101D4000FF7039F003FC0020208760860126012007
:101D500005F063FA304670BD10B51E4C207D022898
:101D600012D104F11E04E08E05F057FA00206086BF
:101D7000E086208704F80A0CE087BDE810400021C7
:101D80004FF4F87039F0E2BB10BD70B5164C203C32
:101D900094F838001A4D297808440C2806D9A08FE9
:101DA000401C01B2B82039F0D1FB04E0B4F93C107A
:101DB000B82039F0CBFB94F83810287801440C296E
:101DC00020D994F838100C380144B62039F0BEFB05
:101DD0001EE000001000001080E907203201001012
:101DE000042404005CC00720204002402C010010A5
:101DF0002024040000240400AC01001090C007203F
:101E0000EB00001094F838100144B62039F09EFB26
:101E100094F82C001C2804D91C21B42039F096FB1E
:101E200004E094F82C10B42039F090FB04F1200465
:101E3000217A4FF0AE0039F089FB2179B02039F0DA
:101E400085FB2178BDE87040B22039F07FBB10B52A
:101E5000FF480078FF4C28B3FF48828FFF4909886C
:101E60008A421FD190F83820FD4909888A4219D149
:101E700090F82C10FB4A1288914213D190F8281048
:101E8000F94A128891420DD190F82410F74A12882D
:101E9000914207D190F82000F5490988884201D184
:101EA0000120E075E07D00280BD0F2480088C0B228
:101EB000FFF726FF002804D00020E075BDE81040A1
:101EC00063E710BD70B5E34C207D022842D1B4F821
:101ED00052004FF461610025884212D2401C80B24A
:101EE000A4F8520088420CD3A4F85250B4F854001D
:101EF00038B1401E24F8540F6088401C6080A4F163
:101F00005404B4F850003C2824D2401C80B2A4F8F9
:101F100050003C281ED324F8505F6089401E01B257
:101F200061814FF4F97039F011FB6089A4F150041C
:101F300018B1D148008801280CD12575A4F85C504F
:101F400000214FF4F87039F001FBBDE8704000202B
:101F500005F063B970BDC9486FF03B010088C0EB64
:101F6000001001EB8000BB49A1F8400070472DE94B
:101F7000F05FDFF8E082DFF808A30025B8F8400042
:101F8000C04E401C01B2BD48A8F84010DFF8F892DE
:101F9000B0F900000A27C0EB00124FF0010B08F166
:101FA0004604B1EB820F61DBF0B3A8F84050257016
:101FB000657088F80E50B5480078552811D1B6F9EB
:101FC000020050280DDDB6F90800FEF799F9B9F9BD
:101FD0000010884203DB96F83D00C00701D084F86A
:101FE00000B0AA484078552811D1B6F94E005028C3
:101FF0000DDDB6F95400FEF783F9B9F900108842F7
:1020000003DB96F88900C00701D084F801B0A0482E
:10201000007880B9BAF90000FEF772F9B9F900103A
:10202000884206DB9B4800E020E090F83D00C007B6
:1020300001D088F80EB09848007838B998F80F00A9
:1020400020B198F8140028B1022803D025706570DB
:1020500088F80E50207801281ED0607801281BD007
:1020600098F80E00012817D0A8F842504146B8F958
:102070004200DFF8E08108F16808F0B3401E00B2CA
:102080008B46A1F84200052809DD0F231E2264219A
:10209000E120FEF770F80AE0A8F84270E6E70028B1
:1020A00005DD0F231E226921E120FEF764F8BBF84D
:1020B0004200052811D1B6F90800FEF721F9A8F869
:1020C0000000B6F95400FEF71BF9A8F80200BAF9AF
:1020D0000000FEF715F9ABF848005E48B0F8420082
:1020E000002858D1B6F90800FEF70AF9DFF864B104
:1020F0000BF16C0BABF8000000E05AE0B6F95400AD
:10210000FEF7FEF8ABF80200BAF90000FEF7F8F8A7
:10211000DFF840A1AAF84A00AAF84450B8F9000034
:10212000BBF900100844B9F90010884202DA20789F
:10213000012832D0B6F90200C82804DD257000213C
:10214000084604F03BFDB8F90200BBF90210084450
:10215000B9F90010884202DA6078012820D0B6F977
:102160004E00C82804DD65700021012004F026FD22
:10217000BAF94800BAF94A100844B9F9001088427F
:1021800009DA9AF80E00012805D144480088012890
:1021900009D0AAF84470BDE8F09FAAF84470D2E7CD
:1021A000AAF84470E4E7012004F013FB8AF80E500B
:1021B000F1E7B1F94400E8B3401E00B20F46A1F8C0
:1021C0004400052806DD0F23C8226421E120FDF725
:1021D000D2FF07E0002805DD0F23C8226921E12096
:1021E000FDF7C9FFB7F84400052811D1B6F908007A
:1021F000FEF786F8A8F80000B6F95400FEF780F85C
:10220000A8F80200BAF90000FEF77AF8A7F848002B
:102210001048B0F844000028BDD1B6F90800FEF718
:102220006FF80C4F6C373880B6F95400FEF768F839
:10223000788000E07DE0BAF90000FEF761F8DFF891
:1022400014A0AAF84A008AF80D50B8F9000027E057
:10225000EB0000101000001000400240BA01001016
:10226000B8010010B6010010B0010010B20100105A
:10227000B4010010BC01001090C007204201001002
:102280001202001080E9072032010010AC0100109A
:102290004F04001018EA0720F2000010A6010010F9
:1022A000B7F900100844B9F90010884202DA207822
:1022B000012832D0B6F90200C82804DD25700021BB
:1022C000084604F07BFCB8F90200B7F90210084494
:1022D000B9F90010884202DA6078012820D0B6F9F6
:1022E0004E00C82804DD65700021012004F066FC62
:1022F000BAF94800BAF94A100844B9F900108842FE
:10230000BFF656AF9AF80E00012885D1FF48008825
:10231000022808D08AF80DB03DE78AF80DB0D2E760
:102320008AF80DB0E4E7012004F053FA8AF80E5061
:1023300031E7487B88460028EED00F2300226E212B
:10234000E120FDF718FFB6F90800FDF7D9FFB9F94C
:102350000010884207DD2078012804D12570002173
:10236000084604F02BFCB6F95400FDF7C9FFB9F993
:102370000010884206DD6078012803D165700021D5
:1023800004F01CFCBAF90000FDF7BAFFB9F900101F
:10239000884208DD98F80E00012804D188F80E5014
:1023A000002004F016FA207830B9607820B998F847
:1023B0000E0008B988F80D50E620FDF7F3FE18B1BD
:1023C000D3480068E7280AD0D248D349B0F90000C2
:1023D000B1F9001000EB8000B1EB400F9CDA88F8F7
:1023E0000D502078CD4D01280FD1B9F90000B5F975
:1023F0000010400090FBF7F0884206DA96F83D00A6
:10240000C00702D1012104F0D9FB6078012810D166
:10241000B9F90000B5F90010400090FBF7F08842D0
:1024200007DA96F88900C00703D10121084604F0B5
:10243000C5FB98F80E0001287FF4BAAEB9F9000088
:10244000B5F90010400090FBF7F08842C6DAB448B6
:1024500090F83D00C007EFD1BDE8F05F012004F027
:10246000B8B92DE9F047AF4CE08F401C00B2E087CF
:10247000B0F5E16F01DB0020E087B4F93E00B0F574
:10248000DF6F11D90F2301226421D220FDF773FEE3
:102490000F230022D821D720FDF76DFE0F23002245
:1024A000D821DC20FDF767FEB4F93E00A0F5E0611D
:1024B000073933D19C4D9D4C9D4E288821880A2791
:1024C000DFF87082DFF87092884210D0B6F9080009
:1024D00090FBF7F000B2FDF713FFB8F90010884247
:1024E00005DAB4F90010B9F9000039F02FF868885E
:1024F0006188884212D0B6F9080090FBF7F000B26C
:10250000FDF7FEFEB8F90010884207DAB4F90210B0
:10251000B9F90200BDE8F04739F018B8BDE8F08716
:1025200010B5864C2088401C2080082200212046BF
:10253000FDF7B7FE7E49B4F9000001EB40004A8880
:102540000284B1F84E10A0F86C1010BD70B57C4D2F
:102550007C487D4AB5F90010B0F9003092F90000CE
:1025600099421DDA794C0A280EDA794BB3F900301A
:102570000F2B09DD401C40B210700A2808DB2180B7
:10258000012003F014FC03E00A2801DB0A2010708C
:10259000B5F90000B4F90010884200DA208070BD5F
:1025A000FDDD0028FBD0401E40B210700028F6DC94
:1025B000BDE87040002003F0FABB2DE9FE4F6548EE
:1025C0006749654A90F8F403664B0290B1F900B090
:1025D000DFF888C1B2F900A0B3F90010624D634C76
:1025E000504F45F211664FF4FA780191072836D022
:1025F0003946604B0A8D5849DFF8649141F2707A90
:10260000B1F90010B9F900904A43B3F90610B3F9D3
:10261000143001FB09F1DFF84C9191FBFAF1B9F9A3
:102620000090534803FB09F393FBFAF3008809B2C7
:102630001BB2B04254D14FF47A6092FBF0F000B27A
:10264000ACF80000298023803D4A1080814200DAE6
:102650001180B2F90000834200DA1380B4E04648EA
:10266000304B01784278903301EB02211FFA81F957
:10267000A3F800908178C27801EB02218AB25A80D7
:10268000017990F805E001EB0E2189B2998001FBF8
:102690000AF141F2707391FBF3F10FFA81FAACF891
:1026A00000A002FB0BF292FBF3F109B22980019A20
:1026B00009FB02F999FBF3F212B222808379C07907
:1026C00003EB00202D4B18801D48A0F800A05145B9
:1026D00000DA0180B0F900108A4275DA028073E0F6
:1026E000A0F5AC49B9F12F0908D019F1280905D096
:1026F000B9F1140902D019F119094ED149F6404037
:1027000092FBF0F000B2ACF8000039E0A601001036
:1027100000C007202C010010140200101602001047
:1027200018EA07201000001054040010525900103D
:1027300080E907203A0100102C2404005CC0072027
:10274000200200102E0100107904001060C0072044
:102750000C01001008EC0720640400102202001095
:102760004AC0072066040010240200102602001050
:10277000AE010010285F001002F007202E020010AA
:1027800029802380FF4A1080814200DA1180B2F94B
:102790000000834218DA138016E0FB49A0F5AA4333
:1027A000B1F90020F949098D5143FA3B01D05A1E75
:1027B00006D148F6B80091FBF0F0F249088003E03A
:1027C00091FBF8F0EF4908800298072803D0F04801
:1027D0000188F0480180DFF8C0A3BAF90010EF4B80
:1027E000B3F9000048434FF4FA6590FBF5F0EC4C68
:1027F0006080BAF90810EB4AB2F9000048434FF480
:102800002F7190FBF1F0A080BAF918C0B3F9020063
:1028100000FB0CF090FBF5F0A4F84E00BAF9023082
:10282000B2F90200584390FBF1F0A4F85000DC200C
:10283000FDF7D8FC45F21369F0BBDFF86CC3BCF8B8
:102840000000DFF868B3BBF80010401AD84AB2F9AC
:1028500000104143D74845F638630088984204D0B9
:10286000A0F5BC4EBEF1920E04D14FF4967E91FBC2
:10287000FEF10FE0A0F5A84EBEF5FD7E03D0484561
:1028800001D0B04202D191FBF5F103E04FF47A7E22
:1028900091FBFEF12181BCF80210BBF802C0A1EB54
:1028A0000C0CB2F9021001FB0CF1984203D0A0F518
:1028B000BC42923A06D100E015E04FF4967091FBCD
:1028C000F0F00EE0A0F5AA42FA3A03D0484501D054
:1028D000B04202D191FBF5F003E04FF47A7091FB26
:1028E000F0F0A4F85400BAF90C00D6468446A0F2E1
:1028F000213040F6B73100234FF0010A00908842A2
:1029000001D2237301E084F80CA0AB48B0F9002099
:1029100002FB0CF244F6206092FBF0F2A2F21112DC
:102920006281BEF90E2040F6B731A2F2213B8B4501
:1029300002D284F8583001E084F858A09E49B1F9D9
:102940000210514344F6206091FBF0F0A0F2111008
:102950009349A1F85600BEF904109848B0F9000058
:1029600048434FF4FA6290FBF2F0954C2080BEF998
:1029700002209448B0F9000042438E4845F2FA55CF
:102980000088A84204D14FF4C87592FBF5F201E02B
:1029900092FBF8F20FFA82FB8B4AA2F800B0A4F87F
:1029A00000B08A4AB2F9002001FB02F104D14FF4D1
:1029B000C87291FBF2F101E091FBF8F1844D09B28C
:1029C0002980642916DA0021824ADFF80CE2B2F984
:1029D00000800DE0C1EBC10202EB01120EEB82029E
:1029E000B5F90040126AA24200DD2A80491CC9B232
:1029F0004145EFDB00250021764A774CB2F90020F3
:102A00000AE0C1EBC10808EB011804EB8808D8F80C
:102A100024804544491CC9B29142F2DB6F490D80C4
:102A20005D49DFF8BC81B1F90A5040F6B731A5F233
:102A3000213E8E4502D288F8003001E088F800A0DF
:102A40006849B1F900104D4344F6206E95FBFEF540
:102A5000A5F21115DFF890E1AEF80050009D40F6A8
:102A6000B73E754502D288F8003001E088F800A032
:102A700001FB0CF144F6206591FBF5F1A1F2111177
:102A8000594D298094F8E012DFF860C109293BD143
:102A900094F8E61294F8E752DFF854E101EB0521CF
:102AA000CEF8001094F8E85294F8E9A205EB0A2554
:102AB000CEF8045094F8EAA294F8EBE20AEB0E2A5E
:102AC000DFF830E10FFA8AFAAEF800A0BAF1000F91
:102AD0001AD14D1B3649B1F900106943A0F5AA453A
:102AE000FA3D0BD06D1E09D0484507D0B04205D045
:102AF000343D03D0283501D0143D03D14FF4FA659D
:102B000091FBF5F1ACF80010254DA5F802B0A0F549
:102B1000AC41023903D12889ACF8000002E0BCF8CE
:102B200000002881344E3188DFF8D090B9F90000D8
:102B300048434FF47A6A90FBFAF0314980B208803A
:102B4000DFF8C0E0642802D2AEF8000003E00D48D0
:102B50000088AEF800007688B9F90200704390FB57
:102B6000FAF048802849B1F90000284EB6F90090E3
:102B700009FB00F941F2707099FBF0FADFF89090D0
:102B800048E00000200200105C040010100000105B
:102B9000280200102E020010285F001050040010C0
:102BA00080E907203AC00720525900105404001051
:102BB0003EC00720AE0100105804001048C0072096
:102BC0001402001036C007201A0200104CC0072063
:102BD000180200107801001008EC07201C020010F9
:102BE000690200105E040010E202001012020010E0
:102BF0009C0400104202001070C0072042C0072051
:102C0000E802001038020010346000108E0400103A
:102C1000EE020010A9F800A0B1F902E0B6F902A096
:102C20000AFB0EFA9AFBF0FAA9F802A0B1F904A087
:102C3000B6F9046006FB0AF696FBF0F6A9F8046004
:102C4000B1F906A0DFF80894B9F9006006FB0AF6AE
:102C500096FBF0FAFF4EA6F800A0B1F908E0B9F92A
:102C600002A00AFB0EFA9AFBF0FAA6F802A0B1F94C
:102C70000AA0B9F9041001FB0AF191FBF0F0B08051
:102C8000F548F64E418801F211110FFA81F9A6F8C4
:102C90000090808800F211100FFA80FAA6F802A0C6
:102CA00098F80110317298F802007072EC4E01B978
:102CB00010B101290AD00AE009EB0A0000EBD0703C
:102CC0006FF4887101EB600030801DE008B129B11C
:102CD00006E0AAF2111AA6F800A015E0012802D019
:102CE000012905D010E0A9F21119A6F800900BE017
:102CF000012809D1DB480078052803D2DA4800888A
:102D0000308001E014203080D8480178552904D162
:102D1000BBF1C80F01DD29893987407855280AD1D0
:102D2000B5F94E00C82806DDB5F95400B5F908100C
:102D3000884200DD3887BCF80000388700212EE08B
:102D4000C1EBC10000EB011004EB8000C678192E26
:102D50001CD28679C77906EB07264662067A477A3F
:102D600006EB07260662867AC77A06EB0726C66157
:102D7000067B8662467B80F85260867B80F84260E4
:102D8000067C477C06EB0726C66406E0C361436207
:102D90000362836280F84230C364491CC9B2914225
:102DA000CEDBB34EB5F908100A2091FBF0F1B5F96E
:102DB000545095FBF0F00844404207B23780AD4DC7
:102DC0002B80002011E0C0EBC00101EB001104EBEF
:102DD000810191F803C0BCF1050F04D2496AB5F82E
:102DE00000C061442980401CC0B29042EBDB2888BF
:102DF000384400B23080002800DA338033802B80E2
:102E000000200EE0C0EBC00101EB001104EB8101DA
:102E1000CF78052F03D2496A2F8839442980401C76
:102E2000C0B29042EEDB2988581800B230800028EA
:102E300000DA33809048B0F90050002D63D00022B2
:102E40008E4E5EE002F11400C0EBC00101EB0010F9
:102E500004EB8000C178192939D28179C77901EB57
:102E6000072702EB420106EB4111CF61077A90F888
:102E700009C007EB0C27CF62877A90F80BC007EBED
:102E80000C278F61077B0F62477B81F84670877B39
:102E900090F80FC007EB0C278F62077C90F811C0E9
:102EA00007EB0C274F628B70877C81F85970C77CC9
:102EB00081F85A70077D81F85870477D81F85B7002
:102EC000877D81F85C70C07D81F85D0017E002EBC2
:102ED000420006EB4010C361C3628361036280F865
:102EE0004630436283621921817080F8593080F83E
:102EF0005A3080F8583080F85B3080F85C30521CD3
:102F0000D2B2AA429EDBBDE8FE8F5D4A5D491078D1
:102F1000042801D0012805D1507818B95A48007802
:102F2000552803D059480088087070470878002851
:102F3000FBD0401E087070475548416821F440217D
:102F400041F480214160416821F4403141F48031F5
:102F50004160416821F4404141F480414160416C4D
:102F600021F4402141F400214164416C21F44031BD
:102F700041F400314164416C21F4404141F400418D
:102F800041644448016821F0E0610160016841F456
:102F900000110160016821F480310160016821F4B1
:102FA0007F4141F4807101608115C1603A48890315
:102FB000016070472DE9F041384C60882188401A43
:102FC00000B204F063FAA61D3080A0886188401A20
:102FD00000B204F05BFA7080A0882188401A00B229
:102FE00004F054FAB0804FF49671A4F1960588422B
:102FF00002DAA08868850CE0B6F90200884202DA9D
:103000006088688505E0B6F90000884201DA20880A
:103010006885EF780026D7B12148B5F92A100268F3
:103020000A44026042680A44426082680A4482603C
:10303000C2681144C160698E491C09B26986B1F544
:10304000805F00DB6E86B5F932108A052AE032E037
:1030500076C00720F4020010E2020010500208209F
:1030600030020010000100108C040010AC010010B0
:103070001602001068C007207A01001074F60720BD
:10308000A8020010C2000010EC000010BE010010E9
:1030900000C002400040034000E100E0A600001034
:1030A000485F00102AD1891250F8212012122A8577
:1030B00040F8216022E0FB482C796A7900EB841308
:1030C000B5F92A1043F8221090070BD1002153F8CC
:1030D00020C06144401CC0B21028F8D30811F24946
:1030E00021F81400641CE0B22871102806D32E7158
:1030F000521CD0B26871102800D36E71AE707F1C64
:1031000007F00100E870E94A28B1106820F0FF00DC
:10311000001D10603BE02979080705D4106820F0F5
:10312000FF00401C106004E0106820F0FF00801CCD
:103130001060DF48036843F080530360036A43F084
:1031400080430362036E43F080630366CB070AD0BB
:10315000436943F0805343618B0709D4436B23F0E9
:103160008043436308E0436923F080534361F3E7FE
:10317000436B43F080434363490704D4416F21F01C
:103180008061416703E0416F41F0806141671068F1
:1031900040F080701060BDE8F081F0B5C54CB4F926
:1031A000240010B1401EA08488E000252573002073
:1031B000C249C14BB1F9002010E0C0EBC00101EBE6
:1031C000001103EB81018E78012E05D1C9781429F5
:1031D00002D2217B491C2173401CC0B29042ECDB1F
:1031E000267B022E6AD341F2883060672567A56787
:1031F000002116E0C1EBC10000EB011003EB8000E1
:103200008778012F0BD1406A276FB84200DD206715
:10321000676FB84200DA6067A76F3844A067491C3F
:10322000C9B29142E6DBA06F90FBF6F6E667606FED
:10323000012100B961679F4F206F80374FF0640C08
:1032400000FB0CF0D4F874C090FBFCF03860A028B0
:1032500000DDE172782800DAE572E07A01282DD1EC
:1032600000216FF0310427E0C1EBC10000EB011039
:1032700003EB80008578012D1CD1456AB54205DD40
:10328000B0F85050A5F10105A0F8505005DAB0F89B
:10329000505005F10105A0F85050B0F95050A5422A
:1032A00001DAA0F85040B0F95050322D02DD32253D
:1032B000A0F85050491CC9B29142D5DB00BFF0BD07
:1032C0002DE9F0417E4801687E4A11400160784C4A
:1032D000216841F47C712160C16921F44021C16100
:1032E000216E41F000712166416821F0406141602A
:1032F000206840F0005020607448734D7549027892
:10330000734895F83C30B1F900100078134307D0AA
:1033100030B1052904DDA36943F48073A36103E0A0
:10332000E36943F48073E36195F88830134307D071
:1033300030B1052904DDA06940F04000A06103E040
:10334000E06940F04000E061D220FCF74BFF624DA5
:1033500010B1286864284AD0E06940F00050E0616C
:10336000D220FCF73FFF5D4E10B1286866284DD093
:103370003068C00756D0A06F40F00070A067584872
:10338000584F0088A0F5AA41FA3901D0491E73D1DF
:10339000D220FCF727FF10B12868662847D0D2203A
:1033A000FCF720FF10B1286872284DD0A06F40F0C4
:1033B0000070A067D220FCF715FF10B128686A28BA
:1033C00047D03068384252D0A06940F08000A061F8
:1033D000D220FCF707FF10B1286867284DD042487B
:1033E000007880B3E06940F01000E061F7E16868C0
:1033F000012806D00028B3D1E06940F00050E06118
:10340000AEE7A06940F00050A061A9E7686820B16C
:10341000A06F40F00070A067B1E7E06F40F000706F
:10342000E067ACE7E06F40F00070E067A7E768682E
:1034300020B1A06F40F00070A067BBE7E06F40F0E4
:103440000070E067B6E727E0E06F40F00070E067EB
:10345000B0E7686830B10128BAD1A06940F08000B7
:10346000A061B5E7E06940F08000E061B0E7E069A5
:1034700040F08000E061ABE738E0686810B10128F7
:1034800005D0ACE1E06940F01000E061A7E1A0697F
:1034900040F01000A061A2E1A06940F01000A0611E
:1034A0009DE10000285B0010285F001000400340F1
:1034B00000C009201000001008EC0720780100105F
:1034C00000C00240FF00F0FF80E907204E0400101A
:1034D000C70000100C01001000C0072020C007200A
:1034E000AE010010F807001005010010DFF8F886A3
:1034F000A0F5AC41073962D1D220FCF773FE10B1C0
:103500002868672823D098F8000070B3A06940F0BD
:103510001000A061D220FCF765FE10B12868662873
:1035200028D03068C00731D0A06F40F00070A0678D
:10353000D220FCF757FE10B128686A282BD03068DB
:10354000384237D0A06940F08000A06147E1686848
:1035500030B10128DED1A06940F01000A061D9E7A8
:10356000E06940F01000E061D4E7E06940F010004D
:10357000E061CFE7686820B1E06940F00070E06189
:10358000D6E7A06940F00070A061D1E7A06B40F0E1
:103590000070A063CCE7686810B1012805D01EE177
:1035A000E06940F08000E06119E1A06940F080002E
:1035B000A06114E1E06940F08000E0610FE1A0F556
:1035C000AC411B3970D1D220FCF70CFE10B1286839
:1035D000672831D098F80000B8B3A06940F0100017
:1035E000A061D220FCF7FEFD10B12868662837D014
:1035F0003068C00740D0A06F40F00070A067D220B4
:10360000FCF7F0FD10B128686A283AD030683842DB
:1036100045D0A06940F08000A061D220FCF7E2FD17
:1036200010B128686A2840D0306838424CD0A06970
:1036300040F02000A061D2E0686838B10128D0D104
:10364000A06940F01000A061CBE704E0E06940F021
:103650001000E061C5E7E06940F01000E061C0E7FC
:10366000686820B1E06940F00070E061C7E7A069D8
:1036700040F00070A061C2E7A06B40F00070A06352
:10368000BDE7686830B10128C7D1A06940F080006B
:10369000A061C2E7E06940F08000E061BDE7E06959
:1036A00040F08000E061B8E713E0686810B10128DD
:1036B00005D094E0E06940F02000E0618FE0A0696F
:1036C00040F02000A0618AE0E06940F02000E06165
:1036D00085E0A0F5AC41113901D00F3163D1D22082
:1036E000FCF780FD10B12868662823D03068C00739
:1036F0002CD0A06F40F00070A067D220FCF772FDC4
:1037000010B128686A2826D03068384231D0A069C4
:1037100040F08000A061D220FCF764FD10B1286861
:1037200067282BD098F8000090B3A06940F01000F3
:10373000A06154E0686820B1A06F40F00070A067FD
:10374000DBE7E06F40F00070E067D6E7E06F40F045
:103750000070E067D1E7686830B10128DBD1A0696B
:1037600040F08000A061D6E7E06940F08000E061B1
:10377000D1E7E06940F08000E061CCE7686810B113
:10378000012806D02BE0E06940F01000E06126E05F
:1037900004E0A06940F01000A06120E0E06940F082
:1037A0001000E0611BE0D220FCF71CFD10B128687E
:1037B00066282DD03068C00736D0A06F40F000706A
:1037C000A067D220FCF70EFD10B128686A2830D01F
:1037D000306838423BD0A06940F02000A061D22080
:1037E000FCF700FD10B12868712836D0FF48B0F909
:1037F000000088B301280AD1D220FCF7F3FC10B1F5
:103800002868722848D0A06940F40070A061C2E422
:10381000686820B1E06940F00070E061D1E7A0691C
:1038200040F00070A061CCE7A06B40F00070A06396
:10383000C7E7686830B10128D1D1A06940F0200005
:10384000A061CCE7E06940F02000E061C7E7E069F3
:1038500040F02000E061C2E70DE0686830B1012867
:10386000D5D1A06940F40070A06194E4E06940F40F
:103870000070E0618FE4DE48008840B9DD48007DDB
:10388000022804D0E06940F40070E06183E4A0699C
:1038900040F40070A0617EE4E06940F40070E061F3
:1038A00079E42DE9F05FD34E00274FF0010AB07C98
:1038B0000A2807D2401CC0B2B0740A2802D3B774D9
:1038C00086F813A0A6F84C70A6F84E70CD20FCF731
:1038D00089FCDFF82483DFF824B388B3C84A4FF6A5
:1038E000FF731068CE2801D1A6F84E30CF2802D140
:1038F0005168A6F84E10D12802D15168A6F84C1094
:10390000D22801D1A6F84C30D02805D15068A6F8AD
:103910004C00C043A6F84E00002435E0B6F84E0037
:103920000AFA04F919EA000F0BD0C4EBC40000EB4B
:10393000041008EB800030F8401F491C018008E0AB
:1039400027E0C4EBC40000EB041008EB8000A0F8F3
:103950004070C4EBC40000EB041008EB800505F1D7
:10396000400032220021FCF791FCB5F940001428F8
:1039700001DD85F82CA0B6F84C0019EA000F01D043
:1039800085F82C70641CE4B2BBF900008442C5DDEC
:103990007DE0F07CF0B300240021BBF9000009E0D9
:1039A000C1EBC10202EB011208EB820282F82CA0EB
:1039B000491CC9B28142F3DD00211EE0C2B2202AB7
:1039C00000D92022737E834200DB00230B44DBB24C
:1039D000B3FBF2F502FB1532C2EBC20303EB02129A
:1039E00008EB82029378022B01D0012B03D182F8DD
:1039F0002C70641CE4B2491CC9B2814204DA814AC9
:103A0000B2F900209442D9DBB17EC1EBC10202EBD6
:103A1000011100E03BE008EB810181F82C707A494C
:103A2000B1F900103C290DDA002109E0C1EBC10217
:103A300002EB011208EB820282F82C70491CC9B219
:103A40008142F3DD7149098869B1002109E0C1EBC8
:103A5000C10202EB011208EB820282F82CA0491C81
:103A6000C9B28142F3DD00216FF031030DE0C1EBFB
:103A7000C10202EB011208EB820292F82C40012CE9
:103A800001D1A2F85030491CC9B28142EFDD0020BB
:103A90006324BBF900100DE0C0EBC00202EB001282
:103AA00008EB8202D36B1BB182F82C405B1ED36300
:103AB000401CC0B28842EFDBF774F773002200208D
:103AC00011E0C0EBC00303EB001308EB83039C7809
:103AD000012C06D1F47B641CF473DB69934200DD96
:103AE0009AB2401CC0B28842EBDBB287777786F887
:103AF0001CA00020464AB2F900305C1F0FE0C0EB6A
:103B0000C00202EB001208EB8202926A9A4201DBC9
:103B100086F81DA0A24200DB3777401CC0B2884265
:103B2000EDDB707F012808D0B07F002803D0307F04
:103B3000002800D0B777BDE8F09F86F81EA0FAE70E
:103B400070B50A23344C3348002522680068B2FB64
:103B5000F3F6B0FBF3F1314AB1420AD111780F29E3
:103B600001D2491C117011780A2903D32C4908602D
:103B700000E0157020602B482B4CB0F90000B4F920
:103B80000020B0FBF3F1B2FBF3F3284A99420AD1CB
:103B900011780F2901D2491C117011780A2903D319
:103BA0002349088000E01570208070BD2DE9F04F9A
:103BB00085B0204E0024204F30786FF01305401C54
:103BC000C0B230700A287DD33470DFF8709099F855
:103BD0000000401C89F800001948B0F9002019487D
:103BE0000280194832E00000C90000108E01001068
:103BF000520200101000001008EC0720780100109D
:103C000000C00720800400100C0100105C020010AE
:103C1000280100107CC00720940400109A040010B2
:103C2000A402001080C007209804001082C0072062
:103C30003C02001007010010940100107A020820D5
:103C40001C0200106002001062020010B0F9003087
:103C5000DFF804A448464178BAF900C0FF489A4208
:103C6000B0F900803846B0F9000013DDA2EB030B79
:103C7000BBF1050F0EDB012804D002280AD1B8F1F0
:103C8000050F07DD491C89F80110ACF1010CAAF8F9
:103C900000C012E09A4210DA9A1A052A0DDB0128B8
:103CA00004D0022809D1B8F1050F06DD491E89F8B4
:103CB00001100CF1010CAAF800C014222946E648B4
:103CC000FCF7E4FA388801284CD13078E44FE54E0F
:103CD00008284AD0E44BB3F92200E4496FF0140CF1
:103CE000B3F94030B1F90020C2EB02110CEB810CAA
:103CF0009C4509D005EB81059D4205D06FF012056A
:103D000005EB8101994201D142F4804039888DF858
:103D1000001006218DF801108DF8024064218DF805
:103D20000310C11700EB11610A128DF804208DF801
:103D30000500062168463AF079F98DF80600001270
:103D40008DF80700062168463AF070F9308800289F
:103D500008D100246D46285D3BF06BFB641CE4B287
:103D6000082CF8D305B0BDE8F08F38888DF8000036
:103D700004208DF801008DF8024002208DF8030028
:103D80008DF8044001208DF80500062168463AF0C0
:103D90004DF98DF8060000128DF8070030880028D4
:103DA000E0D100246D46285D3BF043FB641CE4B287
:103DB000082CF8D3D6E710B5AD4B00201880AD48DD
:103DC00001244FF4FA62B0F90010AB480129B0F9B0
:103DD000000006D002290FD1A849B1F91A1060B12C
:103DE0000DE0A649B1F9161008B9914203DC01288B
:103DF00002D1914200DA1C8010BD914203DC0128FF
:103E0000FAD19142F8DA1C8010BD2DE9F041064646
:103E1000C6EBC6009A4900EB061011F82020032AD1
:103E200073D101EB800494F84250A80716D5B4F979
:103E300046104FF49660814220DA491C09B2A4F87A
:103E4000461081421ADBA4F846006078C00715D1FD
:103E500001220021304602F027FA0FE0B4F94610A3
:103E600061B1491E08B2A4F8460038B96078C007AD
:103E700004D000221146304602F016FA29074FF00E
:103E80000A074FF0000014D5B4F948000A2825DAD3
:103E9000401C00B2A4F848000A281FDBA4F84870B0
:103EA000607880071AD401221146304602F0FCF9EE
:103EB00014E0B4F9481000290DDDA1F1010108B2A8
:103EC000A4F8480050B94FF000024FF0010130460D
:103ED00002F0EAF902E001DAA4F84800E80615D594
:103EE000B4F94A000A281EDA401C00B2A4F84A00BD
:103EF0000A2818DBA4F84A706078400713D401221E
:103F00000221304602F0D0F90DE041E0B4F94A0058
:103F100048B1401E01B2A4F84A1021B90022022182
:103F2000304602F0C1F96078000702D00420A0708A
:103F300014E05448007828B1E078142802D905200C
:103F4000A0700BE094F84200800602D50220A07019
:103F500004E0E078142801D20120A070E0780A285B
:103F600006D394F82C0040F0800084F82C0005E083
:103F700094F82C0000F07F0084F82C003A49B4F942
:103F80005000B1F92010084420634FF47A70606348
:103F90003DE470B500203C4901243C4DB1F90C20B2
:103FA000002304FA00F10A4201D02C5400E02B5403
:103FB000401CC0B20C28F4D3354E2878354C3178EB
:103FC00081420BD0B4F90010012907DB012842D04F
:103FD000002301220B2130A035F0C4FB71786878F2
:103FE00081420BD0B4F90010022907DB01287BD0F5
:103FF000002302220B212DA035F0B4FBB178A87864
:1040000081420BD0B4F90010032907DB01286CD0E2
:10401000002303220B212AA035F0A4FBF178E878D5
:1040200081420BD0B4F90010042907DB01287ED0AF
:10403000002304220B2127A035F094FB3179287945
:10404000814257D0B4F90010052953DB01286FD005
:10405000002305224AE098E06402001094C0072083
:10406000980100109601001010000010420100108D
:104070005C020010580200105A020010285F001065
:1040800008EC0720F2000010346000106E020820D7
:1040900048600010820100104176746F6D617420D9
:1040A0002331206973204F46460000004176746F2B
:1040B0006D6174202332206973204F464600000052
:1040C0004176746F6D6174202333206973204F46ED
:1040D000460000004176746F6D61742023342069BE
:1040E00073204F464600000056E05CE00B21FFA025
:1040F00035F038FB7179687981420BD0B4F9001042
:10410000062907DB012863D0002306220B21FCA02F
:1041100035F028FBB179A87981420ED0B4F90010AE
:1041200007290ADB01285AD00023072201E041E0D9
:1041300047E00B21F7A035F015FBF179E8798142D2
:104140000BD0B4F90010082907DB01284ED000235A
:1041500008220B21F4A035F005FB317A287A814240
:104160000BD0B4F90010092907DB012845D0002342
:1041700009220B21F1A035F0F5FA0020295C315419
:10418000401CC0B20C28F9D370BD01231A460B2184
:10419000EFA035F0E7FA21E7012302220B21F1A07D
:1041A00035F0E0FA2AE7012303220B21F2A035F0D3
:1041B000D9FA33E7012304220B21F4A035F0D2FA17
:1041C0003CE7012305220B21F5A035F0CBFA91E75E
:1041D000012306220B21F7A035F0C4FA9AE7012348
:1041E00007220B21F8A035F0BDFAA6E7012308222B
:1041F0000B21FAA035F0B6FAAFE7012309220B2113
:10420000FBA035F0AFFAB8E770B5C820FBF7EAFFBE
:10421000FC49002280B3FC4B01241868C9281AD03D
:10422000CA282AD0002000EB400303EB001301F85A
:104230002320401CC0B20228F5D3002000EB40032D
:1042400003EB001311F82350142D33D901EB830332
:1042500083F83C4032E0002000EB400303EB001504
:1042600011F82530322B02D25B1C01F82530401C9E
:10427000C0B20228F0D3E0E725E000205E6804FA2F
:1042800000F31E420BD000EB400303EB001511F8C6
:104290002530322B09D25B1C01F8253005E000EBFC
:1042A000400303EB001301F82320401CC0B2022896
:1042B000E5D3C2E701EB830383F83C20401CC0B286
:1042C0000228BBD370BD002000EB400303EB0013BA
:1042D00001F8232001EB830383F83C20401CC0B28B
:1042E0000228F1D370BD2DE9FE4F0546C74931F9CB
:1042F000150010B1401E21F81500C44A121D32F9F4
:10430000150010B1401E22F8150005EB4500BD4B0D
:1043100000EB051003EB8004BD4B0290B4F90800DC
:10432000B3F900304FF0640B984201DD21F815B06D
:10433000002801DA22F815B0B44831F81530843875
:1043400000274BB132F8153033B1B0F86430A3B167
:1043500040F6B831A0F86210A0F8627094F83E0000
:10436000401CC0B284F83E000A2801D384F83E7095
:10437000A84E3088322809D017E04FF41673A0F801
:10438000643021F8157022F81570E5E794F83C00C8
:1043900058B9B4F90200502807DA94F83D00C00774
:1043A00003D10121284602F009FCB6F900009A4E1B
:1043B000C8280FDDB4F90800FBF7A2FFB6F900101A
:1043C000884207DD94F83D00C00703D0002128464D
:1043D00002F0F4FB9048B4F90810B0F90000404234
:1043E000814211DD607B0A280BD2401CC0B2607391
:1043F0000A286CD3A07BF0B3A773284602F05FF9BC
:1044000065E00A20607362E061DA607B98B3401E69
:10441000C0B2607378BBA07B68BB0120A0737F48EB
:104420000088401C00F0070004EB4000008C009066
:104430007B4EB08B01904FF063024FF0010101A859
:10444000FBF719FF04F11C049DF804002076307E70
:1044500001904FF00C024FF0010101A8FBF70BFF98
:104460009DF804006076307B01901F22012101A895
:10447000FBF701FF00E02AE09DF80400A0769DF81C
:104480000000E076307A01901722002101A8FBF7A6
:10449000F2FE9DF804002077307901903B22002144
:1044A00001A8FBF7E8FE9DF80400607730780190E2
:1044B0003B22002101A8FBF7DEFE9DF80400A07757
:1044C0009DF80100E07727806780A4F11C0448F67E
:1044D000A04894F83E0038B9B4F90810606908445F
:1044E0006061DFF840919FE022E100004176746F47
:1044F0006D6174202335206973204F46460000000B
:104500004176746F6D6174202336206973204F46A5
:10451000460000004176746F6D6174202337206976
:1045200073204F46460000004176746F6D61742021
:104530002338206973204F46460000004176746F8F
:104540006D6174202339206973204F4646000000B6
:104550004176746F6D6174202331206973204F4E52
:10456000200000004176746F6D6174202332206951
:1045700073204F4E200000004176746F6D617420EF
:104580002333206973204F4E200000004176746F62
:104590006D6174202334206973204F4E2000000089
:1045A0004176746F6D6174202335206973204F4EFE
:1045B000200000004176746F6D61742023362069FD
:1045C00073204F4E200000004176746F6D6174209F
:1045D0002337206973204F4E200000004176746F0E
:1045E0006D6174202338206973204F4E2000000035
:1045F0004176746F6D6174202339206973204F4EAA
:104600002000000080E9072000C00720940000106F
:104610003A0100100A010010320100105CC00720AE
:104620002040024000240400DFF80CA440452ADBAF
:104630003AF91510A1F5AA40553803D1FF4830F8D2
:10464000156001E03AF8156039F8150036F08DFE76
:1046500080B2B0420ED26169A1F50041A1F54A6174
:10466000616139F9152000F1010001B2104636F000
:104670006DFF32E031D939F9150031B236F066FFFD
:10468000C4F8148029E0EE49884226DC3AF9151076
:10469000A1F5AA40553803D1E84830F8156001E08B
:1046A0003AF8156039F8150036F05FFE80B2B04276
:1046B00005D939F9150031B236F048FF304650B10E
:1046C00061694144616139F91520401E01B210460B
:1046D00036F03CFF01E0DA48606139F8150036F049
:1046E00044FE01463AF91500A0F5AA42553A02D116
:1046F000D24830F915004FF47A72514350B1B1FBF2
:10470000F0F00A21B0FBF1F02082CE4800880128A9
:1047100002D007E00020F4E7CB49029801EB8000CB
:10472000408A208204F1100064220021FBF7AEFDD4
:10473000A07B012812D1A08B40450ED2B4F908000D
:10474000FBF7DEFDA18B084480B2A083404505D372
:10475000A783E08B401CE08300E0A783DFF8EC92A6
:10476000BB49DFF8F0A2B9F90000B1F900108842A6
:1047700002DD9AF80000E8B3B4F84000401EA4F847
:10478000400004F140004FF416720021FBF77EFD5B
:10479000B4F9400040F24E26B04205DB94F83F10D9
:1047A00041F0010184F83F100A2805DC94F83F002D
:1047B00020F0010084F83F00A749B9F90000B1F9E1
:1047C0000010884202DD9AF80000A0B3B4F842005D
:1047D000401EA4F842004FF4167904F142004A4604
:1047E0000021FBF753FDB4F94200B04207DB94F817
:1047F0003F1000E020E041F0020184F83F100A2859
:1048000005DC94F83F0020F0020084F83F00606C63
:1048100040451DDA401C606440451ADB67648F4EDA
:1048200036F8150036F0A1FD401C01B236F915002E
:1048300036F08CFE0DE005E0B4F84000401CA4F812
:1048400040009EE7B4F84200401CA4F84200C2E7D2
:104850006764834E3088002856D08248B0F9000043
:10486000484506DAB4F90200C11700EB91708010D8
:1048700005E0B4F90200052190FBF1F000B2400020
:10488000A188401A00B2FBF73BFD00EB800040001E
:1048900000B20C2190FBF1F000B2E080B6F90010FC
:1048A000884233DDB4F90800FBF72AFD01466E4863
:1048B000B0F9000000EB8000814227DA6B487321D9
:1048C000B0F90000484390FBFBF0B4F9021000B2CD
:1048D00088421BDA94F83D00800717D4B4F84800EA
:1048E000401C00B2A4F84800A0F53061B83903D1EB
:1048F0000121284602F0A4FAB4F9481040F6BD3070
:10490000814201DBA4F84800BDE8FE8FA4F848709E
:10491000FAE738B55648584C01885648B0F9002097
:1049200031B14C48007828B11420ADF8000005E002
:10493000228022E045480088ADF800004F4BBDF9C9
:10494000001019604E480029B0F900000DDB28293D
:1049500001DD28211960111A01EB810149001A6853
:104960005143C82291FBF2F108444649097D0229CE
:1049700002D14548B0F9000020804448008810B1B9
:10498000434800882080BE20FBF72CFC28B141481A
:104990000168BF2901D140682080B4F9000062217C
:1049A0004143642291FBF2F13B4B1980662148435D
:1049B00090FBF2F03949088038BD2DE9F041314CC7
:1049C000B4F9260008B1401EE0843548354D008812
:1049D0002880354E0A27B6F90800002806DAFBF7CA
:1049E0008FFC90FBF7F0298808442880B6F9540022
:1049F000002806DAFBF784FC90FBF7F029880844CE
:104A000028802A48B5F90010B0F9000091FBF0F0B9
:104A1000401CC0B22074264AB2F9002091FBF2F18A
:104A2000491CCAB2627423493C25B1F9003098424E
:104A300042DD0880E58445E08C020010840200100D
:104A40006073FFFF700100100CEB0720E202001002
:104A50004C010010690200104A0100101C240400DF
:104A60004E0100103C010010320100102C0100101A
:104A70006A010010240100103202001084040010AA
:104A8000220100101000001034010010520200102A
:104A90004A02001000C0072066C007207E040010F4
:104AA00068C007208804001080E907203601001044
:104AB00038010010800400109A4203DAE08C08B933
:104AC0000A80E584FB480288FB480AB102880A8014
:104AD000A27F0AB102880A80B0F90020BDE8F04147
:104AE0000121F648FBF7D2BB2DE9F05FF448F54C05
:104AF000B0F900106187F448008810B1F3480088CD
:104B00006087B4F9620010B1401EA4F86200B4F9E5
:104B1000640010B1401EA4F86400ED484FF00A088C
:104B200090F83F20920703D190F88B00800702D0C5
:104B300091FBF8F06087E7480126B0F90010491EA4
:104B4000052900D30680B0F90000002500EB8001A4
:104B5000E079B0EB410F07DA401CC0B2E071B0EB76
:104B6000410F01DBE5712672E120FBF73BFBDFF82B
:104B70006893DA4ADFF868B3DA4F88B3DA4908682D
:104B8000642809D069280CD0D84B6E280ED0E528AF
:104B900029D0E6282AD060E14868618C0844208446
:104BA0005BE14868618C081A208456E1208C401E25
:104BB00000B220841E2806DDCD49B3F90000B1F90A
:104BC000001088420DDA6078401CC0B26070FA288C
:104BD00005D10A230022E721E620FBF7CCFA3CE1CD
:104BE0003CE0657039E14868208436E1B3F9001093
:104BF000B9F90000814215DD0B21E177B2F900100F
:104C0000081A282806DDB4F92000002802DD401F1C
:104C1000208422E1B4F92000F8B1217AE9B1401EE4
:104C200020841AE1B2F90010814216DA0C22E277F0
:104C3000401A282808DDB4F9200040F2F7318842F4
:104C400002DA401D208408E1B4F92000B0F57F7F2E
:104C500003DA217A09B1401C2084FEE0207A80B377
:104C6000A448008818B19BF8E302282829D9B4F990
:104C70002200E0861321E177B4F93810638F91FBAD
:104C8000F8FCBCEB430F0CDD4FF01401E177B4F8F6
:104C9000621019B1A0F10100E086BBE00A38E0869D
:104CA000B8E00FDAC3EB031888450BDA1521E1777A
:104CB000B4F8621011B1401EE086ABE0C01EE08681
:104CC000A8E0CAE0C3EB0318884506DD9C4504DD77
:104CD0001621E177401EE0869CE0B2F900C0B9F9E8
:104CE0000020DFF81482DFF81492944563DA4FF065
:104CF000170A84F81FA0B8F90080B9F90090A8EB52
:104D00000908A2EB0809E14525DD1822E277002910
:104D10000ADA1921E177B4F8621011B1401CE0867B
:104D200078E00A30E08675E003EB83028A420ADD10
:104D30001A21E177B4F8621011B1401CE08669E0F5
:104D4000801CE08666E0B1EB420F63DA1B21E1775D
:104D5000401CE0865EE04FEAE87908EB9978A2EB28
:104D6000A808E04518DD1C22E27703EB83028A42A3
:104D70000ADD1D21E177B4F8621011B1401CE08614
:104D800048E0801CE08645E0B1EB420F42DA1E218C
:104D9000E177401CE0863DE0521E94453ADA1F223E
:104DA000E27703EB8302B1EB420F33DA2021E177A4
:104DB000401CE0862EE02DDD2121E177B8F90010BE
:104DC000B9F90030C91A8B1863450ADA2221E17754
:104DD000B4F8621011B1401EE0861BE00A38E0868C
:104DE00018E0CB1701EB937102EBA10161450ADAE0
:104DF0002321E177B4F8621011B1401EE08609E08A
:104E0000801EE08606E0521C944503DD2421E177F4
:104E1000401EE0862B4840F2F2320A213630FBF782
:104E200035FAE08E608420843548B0F9000058B926
:104E3000398849B13349098821843349098801EB0C
:104E400081014900E1866184012801D0022804D152
:104E50002E49E08E098808442084A57265721648A0
:104E60005A46B0F900100BE0C0EBC00303EB00138F
:104E700002EB8303DB781E2B00D2A672401C60720B
:104E8000607A8842F0DBA07A20B94FF41670208453
:104E90006084E086B7F9000008B1401E38800948F8
:104EA00040F2F2320A212030FBF7F0F92572BDE81A
:104EB000F09F0000480100107801001080040010ED
:104EC0003A010010100000105202001048020010B9
:104ED00080E90720A801001032020010180200101B
:104EE00008EC072094C0072000C00720140200101F
:104EF0002C010010420200102201001024010010B9
:104F000094010010AC040010A40100106402001011
:104F10002DE9F05F0020FE4AFB4BFC4D4FF0010AEB
:104F20004FF00A0B0026B2F9004022E0F949FA4F8F
:104F3000095C37F91110B1F5FA6F0DDA19560A2923
:104F400007DA491C49B219540A2910DB05F800A0F8
:104F50000DE003F800B00AE01956002906DD491EED
:104F600049B21954002902DC2E5400E01E54401CA2
:104F7000C0B2A042DADB0024DFF8A093E84FDFF8EC
:104F8000A4837EE0E84830F9140010B9295D0129B6
:104F90000ED008B1285D58B119F90400002817DBBC
:104FA000401E40B209F80400002813DC3E5511E011
:104FB00019F904000A2808DA401C40B209F8040074
:104FC0000A2807DB07F804A004E009F804B001E0B0
:104FD00009F8046018F80410385D81424CD0D34AB7
:104FE000918E491C9186012807D054B3012C2FD0F3
:104FF000022C34D0032C39D03EE034B1012C0BD03C
:10500000022C10D0032C15D036E001231A460F21B4
:10501000C7A034F0A7FB2FE0012302220F21C7A075
:1050200034F0A0FB28E0012303220F21C6A034F0B6
:1050300099FB21E0012304220F21C6A034F092FB4A
:105040001AE0002301220F21C5A034F08BFB13E0EE
:10505000002302220F21C7A034F084FB0CE00023C0
:1050600003220F21C8A034F07DFB05E000230422B9
:105070000F21CAA034F076FB385D08F80400641CE8
:10508000E4B2A348B0F900008442FFF67BAF0EE71C
:10509000C74A01201070C7490870507048707047A7
:1050A0002DE9F05FC548DFF81893DFF80C83B0F9FD
:1050B00000C0B9F900009D4CC0EB0011B8F90270B6
:1050C0006FF01D0A6FF0950B0025B94EB4F9400042
:1050D0000AEB81020BEB8103674505DCDFF8E4C2D4
:1050E000BCF900C0674504DA824202DD834200DA7F
:1050F0003570B54FB8F908C0B7F900E0AD4FBCEB5B
:105100004E0F04DCCEF1000EBCEB4E0F04DA8242EF
:1051100002DD834200DA3D706FF0090202EB81018B
:1051200081421FD1207DE8B9307801281AD1387822
:10513000012817D14FF4D67036F017F9A349B1F909
:10514000001088420ED0A248008858B198F83D005F
:10515000C00707D14FF4D67036F0F8F99D480178B2
:10516000491C01709548B8F90210B0F9000081425D
:1051700006DC9448B8F94E10B0F9000081420EDA0E
:10518000B9F90000B4F94010C0EB00100AEB80023E
:105190008A4204DD0BEB8000884200DA75708A4990
:1051A000B8F95400B1F90010B0EB410F03DC4942EB
:1051B000B0EB410F0EDAB9F90000B4F94010C0EBC2
:1051C00000100AEB80028A4204DD0BEB800088426B
:1051D00000DA7D70B9F90000C0EB00116FF0090032
:1051E00000EB8100B4F94010884220D1207DF0B955
:1051F000707801281BD17878012818D14FF4E57513
:10520000284636F0B2F87149B1F9021088420ED042
:105210006F48008802280AD198F88900C00706D193
:10522000284636F093F96B480178491C0170B9F9AA
:1052300000006FF00101C0EB001001EB8000B4F939
:105240004010884202D1BDE8F05F21E72FE62DE94A
:10525000F0036148614F624E00784FF0000C4FF050
:105260000108E8B35F483946B0F900505E48B1F92B
:105270000010B0F900905D484D45B0F900205C4841
:10528000B0F900305B48B0F900405B48B0F900006D
:1052900012DA824203DB834201DB84420CDA574894
:1052A000B0F90020914220DA491C08B238809042BF
:1052B0001BD186F800C018E0DFF844C1BCF900C07B
:1052C000654512DD824210DD83420EDD84420CDD35
:1052D00059B1491E08B2388038B986F8008004E018
:1052E000FFE7A7F800C086F800803078002807D1D3
:1052F000BDE8F0030F2301226E21D220FAF73BBF55
:10530000BDE8F00370470000940200106C0200102A
:105310007E010010F7230400285F00107A040010BB
:105320007002001062C00720FA0200101000001086
:10533000534B20233120416C61726D00534B20236D
:105340003220416C61726D00534B20233320416C3D
:1053500061726D00534B20233420416C61726D00EB
:10536000534B20233120416C61726D206973206F93
:1053700066660000534B20233220416C61726D2021
:105380006973206F66660000534B20233320416C05
:1053900061726D206973206F66660000534B202395
:1053A0003420416C61726D206973206F6666000065
:1053B0006AC007208A04001080E907207E040010DC
:1053C0004201001066C00720320100108C0200105C
:1053D000740100106CC00720E700001084C0072093
:1053E00038C00720140200106601001022020010CD
:1053F00024020010260200102E010010640100108B
:1054000068010010F8B5FF4FFF4D0024388890B1B7
:10541000FE4A1168491C1160FD48B0F90000C0EB5C
:105420004013C3EB0020B1EB001F00DB3C80288859
:1054300008B13C801460F7480126008800B3388822
:10544000F0B9F548F549B0F90000B1F9001088420B
:1054500016DA081AF249B1F90010884210DDF14855
:105460000A21B0F9000090FBF1F0EF490988401AD9
:1054700000B2FAF745FF052802DA288800B93E8015
:10548000EA48B0F90000012803D0022801D02C809E
:1054900026E02C80E64BE7494FF4FA62012802D05F
:1054A00002280FD01CE0B3F9000018B9B1F916308A
:1054B000934205DC012813D1B1F9160090420FDAAE
:1054C0002E800DE0B3F9000018B9B1F91A309342FB
:1054D00005DC012804D1B1F91A00904200DA2E80CF
:1054E0002888D549012801D00C70F8BD0878401CE7
:1054F000C0B208701E28F8D30C7041F288330093B4
:10550000CEA3D4A2D9A1DFA0FCF7CCF9F8BD08B591
:10551000BC48002102880AB1018008BDBA4A12883D
:105520004AB14FF4FA630093C4A3DCA2E1A1E7A05F
:10553000FCF7B8F908BD01220280B448016008BD3B
:105540002DE9F041E74C607EA07600256576E64EB9
:10555000B6F90000002802DDB0F5FA7F02DD3580E3
:10556000BDE8F081E07E401CC0B2E0763C2818D354
:10557000E5764FF49477384635F0F7FE401C00B2DC
:10558000A4F86600D94AB6F90010B2F900205143D8
:10559000814201DCA4F86650B4F96610384635F053
:1055A000D5FFB4F96600B6F9001090FBF1F0607613
:1055B000D6E710B500214FF4947035F0C7FFC94904
:1055C0003A20C87610BD70B5934CC948C94AB4F9A1
:1055D0000010B0F900600025B2F90000C64BB142DE
:1055E00004DCC64EB6F90060B1420EDA1D80C44933
:1055F000B1F90010884219DA401C00B210808842CC
:1056000014D1012000F025FD10E078B1B3F90000BD
:1056100005280BDA401C00B21880052806DB15802F
:10562000B848007810B1002000F013FDB648B4F976
:105630000010B0F9000000EB8000B1EB400F0BDA76
:10564000B2480068002807D1BDE870401423012249
:105650007221D220FAF78FBD70BD2DE9F0410022F2
:10566000A248AB4FB0F9006066E0C2EBC20000EBAD
:10567000021007EB8000417B8B0906D00123B3EBBE
:10568000911F05D180F855100FE080F854100CE000
:105690000223B3EB911F02D180F8561005E00323DB
:1056A000B3EB911F01D180F8571010F8541FC1F3CC
:1056B0000114437803F0300544EA9505847804F03A
:1056C000300C4CEA050CC578A0F1540005F0300808
:1056D0004CEA880C01F00F0103F00F0383EA010884
:1056E00004F00F0484EA080805F00F0585EA0808AD
:1056F000E0450CD12D012C43240123431B051B0C39
:105700001943B0F858308B4201D0A0F858108149A5
:10571000B0F85830B1F9001001EB8101B3EB410F43
:1057200004DD417841F01001417003E0417821F03F
:1057300010014170521CD2B2B24296DB10E72DE943
:10574000F04F87B07448674C7449754A007894F9F3
:105750000030B1F90010B2F9002040B1022839D070
:1057600001284CD00120207007B0BDE8F08F6D4FAC
:10577000DFF8B481B7F90A003D7BB7F9566098F8B5
:1057800000C097F8587098F801802BB1012BEBD12D
:10579000BCF1550F14D10FE0BCF1550F02D1884276
:1057A00007DC35B9B8F1550FDED18E4201DC002F90
:1057B000DAD001202070D7E79042D5DA002DD3D17E
:1057C000B8F1550F03D19642CEDA002FCCD100208C
:1057D0002070C9E74E4E4548B56AB0F90000F6782A
:1057E00018B18D420CDC1E2E0AD2DFF824C101282C
:1057F000DCF884709CF85FC0CDF818C096E043E1F7
:1058000002E100005202001090C007208CC0072067
:105810004C0200104E020010140200103202001060
:1058200050020010120200103A0100105402001041
:1058300056020010285F0010A8040010202020202D
:105840002020202020202020202020202020202058
:10585000000000002020202020C7C0CFD0C5D9C51F
:10586000CD21212120202020000000002020202008
:10587000202020C7C0D0DFC42020202020202020CE
:10588000000000002020202020D3D1CACED0C5CDDA
:10589000CDDBC92020202020000000002020202077
:1058A000E7E0E1EBEEEAE8F0EEE2E0ED2120202097
:1058B0000000000020202020202020E7E0F0FFE46E
:1058C0002020202020202020000000002020202058
:1058D00020D3F1EAEEF0E5EDEDFBE92020202020D9
:1058E000000000001000001072010010780100108C
:1058F000880100105E020010AA0400108A01001046
:105900008C010010040100102C01001098020010FE
:1059100008EC072092010010E60000106001001062
:105920006201001080E90720AC01001006DD8F4203
:105930006ADCDDF818C0BCF11E0F65D2DFF8D0C1FB
:105940000228DCF8E080CDF814809CF8BBC0CDF8CC
:1059500010C008DDDDF814C08C4555DCDDF810C042
:10596000BCF11E0F50D2DFF8A8C10328DCF83C813F
:10597000CDF80C809CF817C1CDF808C008DDDDF823
:105980000CC08C4540DCDDF808C0BCF11E0F3BD2DA
:10599000DFF87C810428D8F898C198F87381CDF895
:1059A000048006DD8C452FDCDDF80480B8F11E0F85
:1059B0002AD2DFF85C910528D9F8F48199F8CF91C3
:1059C000CDF8009006DD88451EDCDDF80090B9F1C9
:1059D0001E0F19D2DFF838A106289AF82BE2DAF860
:1059E000509204DD89450FDCBEF11E0F0CD2DFF8AA
:1059F00020B10728DBF8ACA29BF887B207DD8A4507
:105A000002DCBBF11E0F02D301202070ACE6012B9B
:105A1000FCD118B19542F9DA0A2EF7D2022804DB3C
:105A20009742F3DA06990A29F0D2032805DB059993
:105A30009142EBDA04990A29E8D2042805DB03999C
:105A40009142E3DA02990A29E0D2052804DB944561
:105A5000DCDA01990A29D9D2062804DB9045D5DA87
:105A600000990A29D2D2072804DB9145CEDABEF18B
:105A70000A0FCBD2082804DB9245C7DABBF10A0F24
:105A8000C4D2002020706FE62248234D234EB0F987
:105A90000000B5F90050367810B18D421DDCE6B932
:105AA0001D4FDFF878C00128B7F902709CF801C0DB
:105AB00004DD8F4211DCBCF1000F0ED1DFF85880FD
:105AC000DFF858900228B8F9048099F8029007DDB1
:105AD000884502DCB9F1000F02D00120207043E6B6
