:020000040000FA
:10000000A0620010E1000000E5000000E700000031
:10001000E9000000EB000000ED000000000000001F
:10002000000000000000000000000000EF000000E1
:10003000F100000000000000F3000000B5F5000032
:10004000F7000000914E0100BD4E0100F7000000D6
:10005000F7000000E582010011A40100F700000094
:10006000F7000000F7000000F7000000F7000000B4
:10007000F7000000F7000000F7000000F7000000A4
:10008000F7000000F7000000F7000000F700000094
:10009000F7000000F7000000ED7F0000F70000000F
:1000A000F7000000DF800100F7000000F70000000B
:1000B00069B80100F7000000F7000000F700000039
:1000C000F7000000F7000000F7000000DFF80CD098
:1000D0001CF0A0F80048004737F70000A0620010AD
:1000E00005480047FEE7FEE7FEE7FEE7FEE7FEE71E
:1000F000FEE7FEE7FEE7FEE7CD000000FEE710B5F5
:100100001EF030FC1EF0BCFC1EF0AEFC1EF03CFCF1
:10011000AFF30080BDE810401EF078BC10B51FF0B2
:1001200089FA20F0F9F81FF0DDFABDE810401FF061
:1001300055BC1FF09DB91EF065BF09B10020704786
:100140001DF06EBC0020704770B5374A0020A2F148
:100150001401064601F10A030C5C54B11D5CAC426B
:1001600007D1145C2CB1641E14F0FF04145400D1A8
:100170000E540C5C1C54401CC0B20A28ECD370BD59
:1001800070B5294D0024143D641CE4B22E5D1EB1EF
:10019000864201D00A2CF7D3285523480C3040F86A
:1001A0002410283040F824203438035570BD1E4AEE
:1001B0000021143A491CC9B2535C834201D00A2978
:1001C000F8D3DBB2834210D117480C3050F82130FD
:1001D00016480360144B343353F821304360002039
:1001E0005054114A505401207047002070470E4A65
:1001F0000021143A491CC9B2535C834201D00A2938
:10020000F8D3DAB282420CD107480C3050F82120E2
:1002100006480260044A343252F82110416001203D
:100220007047002070470000403800101400001094
:100230000C4BDA601870597070470A4A116190705F
:1002400070470849088170470648B0F9081000292E
:1002500007D0491E09B20181002902D1084601F0E8
:100260002EB970471C00001090F900308B4200DA64
:10027000027090F90030934200DD0170704790F9F0
:1002800000308B4200DA017090F90010914200DDDD
:1002900002707047B0F900308B4200DA0180B0F98B
:1002A0000010914200DD02807047B0F900308B42AF
:1002B00000DA0280B0F90030934200DD018070471F
:1002C00010B504461BF0EEFF002805D020461BF0B9
:1002D000F2FF10B1A4F1300010BD20461BF0F7FF73
:1002E00010B1A4F1570010BD20461CF002F8002800
:1002F000F9D0A4F1370010BD70477047FFFFFFFF32
:10030000002801DA404200B270470020F84A20215C
:100310001154401CC0B2C828FAD370470146F44AB1
:100320000020401CC0B2135C8B4201D0C828F8D317
:10033000704710B50021EF4C0A2200BFB0FBF2F36A
:1003400002FB13006054491CC9B218460529F5D3B5
:1003500010BDF0B5E84B0121202719700521E54AB1
:10036000002601E01C7844B1541814F8015C25B94A
:10037000814202D904F8017C05E0541814F8015DAB
:10038000303525701E70491E11F0FF01EAD1F0BD15
:10039000FEB52B23002802DA404200B22D230025AF
:1003A0000A266C4690FBF6F706FB170060556D1C9D
:1003B0006DB238B20A2DF5DB012600250920202771
:1003C00000E046B114F800C0BCF1000F03D1904228
:1003D00001DD275405E0265C3036265400266D1CCE
:1003E000EDB2401E40B20028EBDA2D2B02D163554E
:1003F0006D1CEDB26AB168B205E0231813F8013C38
:100400002354401E40B29042F7DC2E206D1CA054B5
:10041000EDB20846FFF782FF0021B54A04E0635CB5
:10042000461A491C935549B2A942F8DBFEBDFEB5F8
:100430002B23002801DA40422D2300250A266C4692
:10044000074690FBF6F006FB107767556D1C6DB202
:100450000A2DF5DB012600250920202700E046B102
:1004600014F800C0BCF1000F03D1904201DD275405
:1004700005E0265C3036265400266D1CEDB2401E89
:1004800040B20028EBDA2D2B02D163556D1CEDB282
:100490006AB168B205E0231813F8013C2354401EEA
:1004A00040B29042F7DC2E206D1CA054EDB20846FD
:1004B000FFF734FF00218E4A04E0635C461A491CB2
:1004C000935549B2A942F8DBFEBD70B50D461646FC
:1004D0001C46FFF72EFF601CC0B2FFF73AFF05EB8A
:1004E000850006EB8000C1B2824A814B0020A04209
:1004F00001D2155C5D5406D3155C202D03D04CB1A0
:100500005E1806F8015C491E401CC0B2C9B205283D
:10051000EDD370BD5D54F6E730B504460846154688
:10052000FFF7FCFEFF2809D0714A2178002905D089
:100530004319641C401CD154C0B2F6E730BD70B5FD
:100540000D461446FFF7F5FE601CC0B2FFF701FF31
:100550002846FFF7E3FE674B654A002124B95D5C3E
:10056000202D01D015540FE0A14201D25D5CF9E7C6
:1005700004D14FF02E0515545D5C02E05D5C202D2A
:1005800002D0161806F8015C401E491CC9B2C0B260
:100590000529E3D370BD801801D5084402E08842E4
:1005A00000DB401AC0B270472DE9FE4F04460D46ED
:1005B0004FF4606015F062F962424021FFF7EBFFF3
:1005C000400100F58060044602A915F0D4F969469F
:1005D00004F1080015F0CFF901A904F10C0015F0A1
:1005E000CAF92846FFF79AFE06469DF8080030250E
:1005F0002327DFF8FCB020244FF0400C4FF0210AF5
:10060000552851D04FF0CF084FF0D10950286ED067
:10061000E223512874D0422873D0532872D049283D
:1006200071D0D3214FF0EE094FF0E70873286BD05B
:1006300075286AD0662869D19DF80A005A28FAD12F
:10064000D4210BF80610761CF0B2F0260BF80090BF
:10065000401CC0B2EC220BF80060401CC0B22E213E
:100660000BF80020401CC0B25B460BF80010401C89
:10067000C0B2E02203F80080401CC0B21A54401CF3
:10068000C0B21E54401CC0B21954401CC0B21C540D
:10069000401CC0B21C54401CC1B218489DF8002038
:1006A000838F9A4278D0F2E39DF80A0052280ED147
:1006B000C2200BF80600761CF0B2EA220BF80020EC
:1006C000401CC0B2EB220BF80020401CC6B25846BA
:1006D0000BF80640761CF1B20BF80140491CC9B278
:1006E0000BF80140491CC9B20BF80140A4E054E0EA
:1006F000BAC20720D6C40720DBC40720004002404E
:100700007BE0AFE0FDE3FDE3FDE3FDE338E000BFA8
:100710009DF8013092F83860B3426DD19DF80230F7
:1007200092F82C209342F8D14554491CC9B23A2280
:1007300000F801A0491CC9B24254491CC9B2455431
:10074000491CC9B200F801C0491CC9B24254491C35
:10075000C9B200224554491CC9B20BF801709DF87A
:1007600004002121FFF7EBFE9DF805000022402147
:10077000FFF7E5FE9DF8060000222321FFF7DFFECC
:10078000BDE8FE8F9DF80110FF48002200EB8100BC
:100790004021FFF7C1FEF3E7FEE3C0210BF806108E
:1007A000761CF1B2C2220BF80120491CC9B22E22DC
:1007B0000BF80120491CC9B258460BF80180491CAE
:1007C000C9B20BF80190491CC9B24454491CC9B2C2
:1007D0004454491CC9B24454491CC9B2FDE300BF8A
:1007E0009DF8012096F838309A4296D19DF8022063
:1007F00096F82C309A4297D0F4E3C0210BF80610FB
:10080000761CF1B2C2220BF80120491CC9B22E227B
:100810000BF80120491CC9B255220BF80120491CD4
:10082000C9B258460BF80130491CC9B2FB224254E8
:10083000491CC9B2F5224254491CC9B24454491C4E
:10084000C9B24454491CC9B24454491CC9B2CF4A24
:100850004454491C9DF80030968FC9B2B3423FF40E
:1008600057AFBFE39DF80A004FF0F20943287ED14D
:10087000C0210BF80610761CF1B2C2220BF8012041
:10088000491CC9B22E220BF80120491CC9B2C12251
:100890000BF80120491C5846C9B2E0224254491CB9
:1008A000C9B24E2200F80190491CC9B24254491CF9
:1008B000CEB29DF80910092902D23131815514E0D8
:1008C000A1F109025A2A0FD2491C0A23B1FBF3F203
:1008D000904630328255761C03FB1811F6B2303147
:1008E0008155761CF1B205E08455761CF1B2445472
:1008F000491CC9B2A54E4454491CC9B24454491CB0
:100900009DF80020B38FC9B29A423CD19DF80120D6
:1009100096F838309A4236D19DF8022096F82C305D
:100920009A4230D14554491CC9B23A2200F801A07C
:10093000491CC9B24254491CC9B24554491CC9B2E8
:1009400000F801C0491CC9B24254491CC9B2002276
:100950004554491CC9B20BF80170491CCEB29DF830
:1009600004002121FFF7EBFD9DF8050000E042E0C7
:1009700000224021FFF7E3FD9DF80600002223211D
:10098000FFF7DDFD37E04454491CC9B2002245544D
:10099000491CC9B200F801A0491CC9B200F801C045
:1009A000491CC9B24454491CC9B24454491CC9B277
:1009B0004554491CC9B20BF80170491CCEB29DF8D0
:1009C00002002121FFF7BBFD9DF80000002223213A
:1009D000FFF7B5FD9DF80100401E0C2802D3012051
:1009E0008DF801009DF801106748002200EB81009E
:1009F0004021FFF791FD9DF80A0053287BD1C021CB
:100A00000BF80610761CF2B2C2230BF80230521C0F
:100A1000D2B22E230BF80230521CD2B2C1230BF8F3
:100A20000230521C5846D2B2E0238354521CD2B238
:100A3000432600F80290521C9DF80930D2B2092BCF
:100A400008D231338354521CD2B28154521CD1B2D9
:100A500046540EE0093B5A2B04D28154521CD1B2A9
:100A6000465403E08454521CD1B24454491CC9B2C8
:100A70004454464E491C9DF80020B38FC9B29A4297
:100A80003AD19DF8012096F838309A4234D19DF839
:100A9000022096F82C309A422ED14554491CC9B2F6
:100AA0003A2200F801A0491CC9B24254491CC9B2FB
:100AB0004554491CC9B200F801C0491CC9B242548E
:100AC000491CC9B200224554491CC9B20BF8017037
:100AD000491CCEB29DF804002121FFF730FD9DF89E
:100AE000050000224021FFF72AFD9DF806000022A4
:100AF0002321FFF724FD37E04454491CC9B20022EA
:100B00004554491CC9B200F801A0491CC9B200F8FB
:100B100001C0491CC9B24454491CC9B24454491CBF
:100B2000C9B24554491CC9B20BF80170491CCEB278
:100B30009DF802002121FFF702FD9DF80000002230
:100B40002321FFF7FCFC9DF80100401E0C2802D376
:100B500001208DF801009DF801100B48002200EBE8
:100B600081004021FFF7D8FC9DF80A00542878D175
:100B7000C1210BF80610761CF1B2E0230BF801300E
:100B8000491C5846C9B203E034120200004002403A
:100B90000BF80190491CC9B24E220BF80120491CE8
:100BA0009DF80920C9B2092A02D23132425400E02C
:100BB0004454491CC9B2ED224254491CC9B2E32233
:100BC0004354491CC9B24254491CC9B2F022425490
:100BD000491CC9B22E224254491CC9B24454491C72
:100BE0009DF80020C9B2FD4EB38F9A423AD19DF8CC
:100BF000012096F838309A4234D19DF8022096F8B8
:100C00002C309A422ED14554491CC9B23A2200F8E0
:100C100001A0491CC9B24254491CC9B24554491CDF
:100C2000C9B200F801C0491CC9B24254491CC9B23A
:100C300000224554491CC9B20BF80170491CCEB2C0
:100C40009DF804002121FFF77AFC9DF805000022A1
:100C50004021FFF774FC9DF8060000222321FFF7D6
:100C60006EFC37E04454491CC9B200224554491C6B
:100C7000C9B200F801A0491CC9B200F801C0491C62
:100C8000C9B24454491CC9B24454491CC9B2455460
:100C9000491CC9B20BF80170491CCEB29DF8020084
:100CA0002121FFF74CFC9DF8000000222321FFF7D3
:100CB00046FC9DF80100401E0C2802D301208DF84F
:100CC00001009DF80110C648002200EB8100402180
:100CD000FFF722FC9DF80A005A286BD1C2210BF8BD
:100CE0000610761CF1B2FB220BF80120491CC9B298
:100CF000F0260BF80160491CC9B22E230BF8013015
:100D0000491C5846C9B2C7224254491CC9B2E02204
:100D10004254491CC9B24654491CC9B2AF4E43544F
:100D2000491CC9B24454491CC9B24454491CC9B2F3
:100D30004454491C9DF80020B38FC9B29A423AD15D
:100D40009DF8012096F838309A4234D19DF802205F
:100D500096F82C309A422ED14554491CC9B23A22F9
:100D600000F801A0491CC9B24254491CC9B24554FB
:100D7000491CC9B200F801C0491CC9B24254491CFF
:100D8000C9B200224554491CC9B20BF80170491C74
:100D9000CEB29DF804002121FFF7D1FB9DF805009C
:100DA00000224021FFF7CBFB9DF806000022232103
:100DB000FFF7C5FB37E04454491CC9B20022455433
:100DC000491CC9B200F801A0491CC9B200F801C011
:100DD000491CC9B24454491CC9B24454491CC9B243
:100DE0004554491CC9B20BF80170491CCEB29DF89C
:100DF00002002121FFF7A3FB9DF800000022232120
:100E0000FFF79DFB9DF80100401E0C2802D3012036
:100E10008DF801009DF801107148002200EB81005F
:100E20004021FFF779FB9DF80A0057286DD1C121B9
:100E30000BF80610761CF1B2E0220BF80120491CD9
:100E4000C9B258460BF80190491CCEB29DF8091062
:100E5000092906D231318155761CF1B2F022425473
:100E60001AE0A1F109025A2A12D2491C0A23B1FB45
:100E7000F3F2904630328255761C03FB1811F6B21D
:100E800030318155761CF1B2F022425407E0AFE1D7
:100E90008455761CF1B24454491CC9B24454491CCF
:100EA000C9B24E4E4454491CC9B24454491CC9B23B
:100EB0004454491CC9B24454491CC9B24454491C45
:100EC0009DF80020B38FC9B29A4240D19DF801200D
:100ED00096F838309A423AD19DF8022096F82C3094
:100EE0009A4234D14554491CC9B23A2200F801A0B3
:100EF000491CC9B24254491CC9B24554491CC9B223
:100F000004E0B5E0F8E03CE174E15AE000F801C02B
:100F1000491CC9B24254491CC9B200224554491C5B
:100F2000C9B20BF80170491CCEB29DF80400212112
:100F3000FFF705FB9DF8050000224021FFF7FFFAAF
:100F40009DF8060000222321FFF7F9FA39E0445406
:100F5000491CC9B200224554491CC9B200F801A07D
:100F6000491CC9B200F801C0491CC9B24454491C0B
:100F7000C9B24454491CC9B24554491CC9B20BF802
:100F80000170491CCEB29DF802002121FFF7D7FA6B
:100F90009DF80000002200E093E12321FFF7CFFA43
:100FA0009DF80100401E0C2802D301208DF801009D
:100FB0009DF801100A48002200EB81004021FFF754
:100FC000ABFA9DF80A004B287FF4DAABC1210BF88D
:100FD0000610761CF1B2E02205E088E000400240F5
:100FE000341202003DE10BF80120491CC9B20BF894
:100FF0000190491C9DF80900C9B24FF0E509092884
:101000000ED231300BF80100491CC8B2EA210BF8AE
:101010000010401CC0B20BF80090401CC0B220E091
:10102000A0F109025A2A18D2401C0A23B0FBF3F29D
:10103000904630320BF80120491C03FB1800C9B25E
:1010400030300BF80100491CC8B2EA210BF800103F
:10105000401CC0B20BF8009005E00BF80140491CA1
:10106000C8B20BF80040401CC1B25846FFF7EFBBB6
:10107000C0210BF80610761CF1B2C2220BF8012039
:10108000491CC9B22E220BF80120491CC9B2C12249
:101090000BF80120491CC9B258460BF80180491CC5
:1010A000C9B24E2200F80190491CC9B24254491CF1
:1010B000CEB29DF80910092902D23131815514E0D0
:1010C000A1F109025A2A0FD2491C0A23B1FBF3F2FB
:1010D000904630328255761C03FB1811F6B230313F
:1010E0008155761CF1B205E08455761CF1B244546A
:1010F000491CC9B24454A8E0C0210BF80610761C64
:10110000F1B2C2220BF80120491CC9B22E220BF801
:101110000120491CC9B2C8220BF80120491C5846BD
:10112000C9B2ED224254491CC9B24354491CC9B248
:101130004754491C9DF80920C9B2092A02D231320C
:10114000425412E0A2F109035A2B0DD2521C0A2577
:10115000B2FBF5F303F130064654491C05FB13229C
:10116000C9B23032425403E04454491CC9B2445419
:10117000491CC9B24454491CC9B20BF80140BDE82E
:10118000FE8F9DF80A005A28F9D10BF80610761C3C
:10119000F0B2F1220BF80020401CC0B2EA210BF89B
:1011A0000010401CC0B25B460BF80090401CC0B25F
:1011B000F0261E54401CC0B22E211954401CC0B24F
:1011C000E02203F80080401CC0B21A54401CC0B298
:1011D0001E54401CC0B21954401CC0B21C54FFF72E
:1011E0005ABA00BF9DF8022090F82C00824270D0BD
:1011F000584636E09DF80A005A28C0D10BF8061070
:10120000761CF1B2F0260BF80160491CC9B2E0224D
:101210000BF80120491CC9B258460BF80130491C93
:10122000C9B2ED230BF80130491CC9B22E23435437
:10123000491CC9B200F80180491CC9B24254491C7A
:10124000C9B24654491CC9B24354491CC9B2D34E11
:101250004454491C9DF80020B38FC9B29A423FF410
:10126000BFAA4454491CC9B200224554491CC9B202
:1012700000F801A0491CC9B200F801C0491CC9B25C
:101280004454491CC9B24454491CC9B24554491C70
:10129000C9B20BF801709DF802002121FFF74FF948
:1012A0009DF8000000222321FFF749F99DF8010075
:1012B000401E0C28FFF466AA01208DF80100FFF7FC
:1012C00061BA9DF8012090F838309A4290D189E7B0
:1012D000FFE75846FFF728BA70B50446084615469A
:1012E0001E46FFF71BF8AE4B0146FF2804D106E06F
:1012F0001A54641C401CC0B22278002AF8D1A948B4
:101300000078002804D0002E02D029445F205854D1
:1013100070BD2DE9FF4F8146DDE90D048A469346F5
:10132000FEF7FCFF2022DFF87C829D490A234FF064
:10133000640C012C09D198F8005035B10D18A5F1B5
:101340000E05AA706A702A7020E099FBF3F603FB81
:1013500016970D183037A5F10E05022CAF7096FBCD
:10136000F3F703FB176606F130066E7099FBFCF687
:1013700006F1300605F80E6B08D198F800602EB122
:10138000A5F10A05AA706A702A7021E09AFBF3F6AB
:1013900003FB16A70D183037A5F10A05032CAF7013
:1013A00096FBF3F703FB176606F130066E709AFBA7
:1013B000FCF606F13006674605F80A6B08D198F886
:1013C00000602EB1A5F10605AA706A702A7022E0AD
:1013D0009BFBF3F603FB16B70D183037A5F1060596
:1013E000042CAF7096FBF3F703FB176606F130068B
:1013F0006E709BFBFCF606F13006674605F8066B3F
:1014000009D198F8004034B1A5F102050A546A7078
:101410002A70BDE8FF8F039C94FBF3F203FB124498
:1014200030340C5492FBF3F403FB14220844A0F173
:10143000020030324270039991FBF7F101F1300163
:101440000170E6E730B558490123554D91F9012067
:1014500091F9041000EB80048A4202D105F824308F
:1014600030BD4F4D4C1C00EB800005EB8000A242CC
:1014700001D1037530BD8C1CA24202D180F8283006
:1014800030BDCC1CA24202D180F83C3030BD0C1DD6
:10149000A24202D180F8503030BD4C1DA24202D190
:1014A00080F8643030BD8C1DA24202D180F87830C3
:1014B00030BDC91D8A42FBD180F88C3030BD3B4A1B
:1014C00013885B1E1BB21380002B01DC00231380EA
:1014D0009BB2184400B21080354A00EB80000244F1
:1014E00031481368036012790271427811444170E7
:1014F0007047F0B52D4D2E4FB5F9004004EB840632
:10150000641C2C80284C3E44256835602579357153
:10151000207061702271A370F0BDF0B505460E46D3
:101520001746FEF7F2FE1E4C5FF00000401C15F857
:10153000011BC0B204F8011B1428F7D35FF00000B0
:10154000401C16F8011BC0B204F8011B1428F7D385
:101550005FF00000401C17F8011BC0B204F8011B2B
:101560001428F7D35FF00000401C13F8011BC0B231
:1015700004F8011B1428F7D3F0BD30B56425039C93
:1015800094FBF5F40B4D2C700B4C20600B48016064
:101590000B4802600B48036030BD00000040024071
:1015A000BAC207201AC10720A8C207206000001095
:1015B000B0EF072020C107208CC2072090C207206F
:1015C00094C2072098C207202DE9F05FFD4E002746
:1015D00096F82200022803D07770B770F770377141
:1015E000DFF8E4A3DFF8E4B3DFF8E493BAF800002F
:1015F000DFF8E083F84DF94C50B12F80A4F800706B
:10160000BAF8020000287DD06F806780BDE8F09FA7
:10161000BBF90000B9F9022000EB8003EE48B2EB01
:10162000430FB0F90010ED48B0F900000EDA41F0B8
:1016300001012980C00718D1002308220521E8A054
:1016400010F047FB208840F001000DE021F001017F
:101650002980C00709D0012308220521E8A010F045
:1016600038FB208820F00100208099F83F00C00757
:1016700028880FD040F0020028802088800719D4E5
:10168000022308220521E8A010F023FB208840F067
:1016900002000EE020F0020028802088800709D593
:1016A000032308220521EBA010F013FB208820F073
:1016B0000200208099F83F00800728880FD540F06D
:1016C000040028802088400719D40423082205211B
:1016D000EDA010F0FEFA208840F004000EE020F0AB
:1016E000040028802088400709D5052308221946D0
:1016F000EFA010F0EEFA208820F004002080B9F965
:10170000080000E022E3B8F900104A42904203DAF0
:10171000288840F0080004E0884203DD288820F093
:101720000800288096F82200012802D196F82300AC
:10173000A8B1288820F0100028802088C00609D58C
:10174000072308220521E7A010F0C3FA208820F023
:101750001000208096F82200022811D021E028886D
:1017600040F0100028802088C0061AD406230822E2
:101770000521E4A010F0ADFA208840F01000E8E761
:10178000288840F020002880208880061AD408236A
:101790001A460521E3A010F09CFA208840F02000B2
:1017A0000FE0288820F0200028802088800609D5B6
:1017B000092308220521E4A010F08BFA208820F0EC
:1017C000200020807078002828880FD040F040004A
:1017D00028802088400619D40A2308220521E3A086
:1017E00010F077FA208840F040000EE020F0400032
:1017F00028802088400609D50B2308220521E4A073
:1018000010F067FA208820F040002080E948007836
:101810000228288823D020F0800028802088000615
:1018200009D50B2308220521E3A010F052FA2088E5
:1018300020F080002080B078002828881FD040F455
:10184000807028802088C00529D40C230822052117
:10185000E1A010F03EFA208840F480701EE040F0D5
:101860008000288020880006E5D40A23082205216C
:10187000E1A010F02EFA208840F08000DAE720F492
:10188000807028802088C00509D50D2308220521F5
:10189000E1A010F01EFA208820F480702080F079FA
:1018A000002828880FD040F4007028802088800508
:1018B00019D40E2308220521E0A010F00AFA20888E
:1018C00040F400700EE020F400702880208880052D
:1018D00009D50F2308220521E0A010F0FAF920888D
:1018E00020F400702080F078002828880FD040F481
:1018F000806028802088400519D410230822052103
:10190000DEA010F0E6F9208840F480600EE020F4BC
:10191000806028802088400509D5112308220521F0
:10192000DFA010F0D6F9208820F480602080707A43
:10193000002828880FD040F4006028802088000507
:1019400019D4122308220521DFA010F0C2F9208843
:1019500040F400600EE020F400602880208800053C
:1019600009D5132308220521DEA010F0B2F9208842
:1019700020F40060208030790028288810D040F4BE
:10198000805028802088C0043FF53AAE14230822F6
:101990000521DCA010F09DF9208840F480500FE074
:1019A00020F4805028802088C0047FF529AE1523BC
:1019B00008220521DCA010F08CF9208820F480504A
:1019C00020801DE608C0072018C60720B0C10720E8
:1019D0000C390010B8C1072082010010E0E6072092
:1019E00042415420233120416C61726D2C20626190
:1019F0007474657279206973206C6F770000000041
:101A000042415420233120416C61726D20636C652A
:101A100061722C2062617474657279206973206E22
:101A20006F74206C6F77000042415420233120579F
:101A300061726E696E672C206869676820626174E4
:101A4000746572792074656D706572617475726504
:101A500000000000424154202331205761726E691A
:101A60006E6720636C6561722C20626174746572AC
:101A7000792074656D706572617475726520697323
:101A8000206E6F726D616C00424154202331204101
:101A90006C61726D2C20686967682062617474657E
:101AA00072792074656D706572617475726500007D
:101AB00042415420233120416C61726D20636C657A
:101AC00061722C20626174746572792074656D7026
:101AD00065726174757265206973206E6F726D61D5
:101AE0006C0000004241542023312C20636170615E
:101AF0006369747920746573742073746F70706592
:101B0000640000004241542023312C206361706145
:101B10006369747920746573742073746172746579
:101B2000640000004241542023312C6C6576656CC2
:101B3000696E6720636861726765206973207374DA
:101B400061727465640000004241542023312C6CA2
:101B50006576656C696E6720636861726765206988
:101B6000732073746F7070656400000042415420EC
:101B700023312C6C6576656C696E672063686172D1
:101B8000676520697320626C6F636B656400000099
:101B90004241542023312C6C6576656C696E672058
:101BA00063686172676520697320756E626C6F632C
:101BB0006B656400EDC007204241542023312C7333
:101BC000706565642063686172676520697320735E
:101BD000746F7070656400004241542023312C738F
:101BE000706565642063686172676520697320624F
:101BF0006C6F636B656400004241542023312C7389
:101C0000706565642063686172676520697320731D
:101C100074617274656400004241542023312C7356
:101C200070656564206368617267652069732075FB
:101C30006E626C6F636B656400000000424154206B
:101C400023312C657175616C6973696E67206368F7
:101C500061726765206973206F6E000042415420F5
:101C600023312C657175616C6973696E67206368D7
:101C700061726765206973206F6666004241542077
:101C800023312C657175616C6973696E67206368B7
:101C90006172676520697320626C6F636B656400B5
:101CA0004241542023312C657175616C6973696EF2
:101CB000672063686172676520697320756E626C66
:101CC0006F636B65640000004241542023312C6D2A
:101CD0006F6C64696E672063686172676520697301
:101CE000206F6E004241542023312C6D6F6C64696B
:101CF0006E6720636861726765206973206F66662E
:101D0000000000004241542023312C6D6F6C646947
:101D10006E672063686172676520697320626C6F0B
:101D2000636B6564000000004241542023312C6D38
:101D30006F6C64696E6720636861726765206973A0
:101D400020756E626C6F636B65640000BBF9000008
:101D5000B9F94E1000EB8000B1EB400F68884F4698
:101D600010DA40F0010068806088C0071BD116239C
:101D700008220521AFF298300FF0ABFF608840F0E9
:101D800001000FE020F0010068806088C0070AD0E1
:101D9000172308220521AFF298300FF09AFF6088D0
:101DA00020F00100608097F88B00C007688810D091
:101DB00040F002006880208880071BD41823082286
:101DC0000521AFF29C300FF084FF608840F00200E4
:101DD0000FE020F002006880608880070AD5192390
:101DE00008220521AFF294300FF073FF608820F0D5
:101DF0000200608097F88B008007688810D540F05B
:101E000004006880608840071BD41A23082205213B
:101E1000AFF28C300FF05DFF608840F004000FE0FF
:101E200020F004006880608840070AD51B23082240
:101E30000521AFF284300FF04CFF608820F00400E1
:101E40006080B8F90010B7F954004A42904203DAB2
:101E5000688840F0080004E0884203DD688820F0CC
:101E60000800688096F82200012802D196F8230025
:101E7000B0B1688820F0100068806088C0060AD57C
:101E80001D2308220521AFF2A4300FF022FF608845
:101E900020F01000608096F82200022812D023E083
:101EA000688840F0100068806088C0061CD41C233D
:101EB00008220521AFF2B4300FF00BFF608840F02C
:101EC0001000E7E7688840F020006880608880069E
:101ED0001CD41E2308220521AFF2B8300FF0F9FE02
:101EE000608840F0200010E0688820F020006880C2
:101EF000608880060AD51F2308220521AFF2B8307A
:101F00000FF0E7FE608820F02000608070780028E5
:101F1000688810D040F040006880608840061BD47C
:101F2000202308220521AFF2BC300FF0D2FE6088DA
:101F300040F040000FE020F04000688060884006DC
:101F40000AD5212308220521AFF2BC300FF0C1FED3
:101F5000608820F040006080FF4800780228688890
:101F600025D020F080006880608800060AD52323F1
:101F700008220521AFF2C0300FF0ABFE608820F0E0
:101F800080006080B0780028688821D040F480709C
:101F900068806088C0052CD4242308220521AFF274
:101FA000C8300FF096FE608840F4807020E040F06A
:101FB0008000688060880006E4D42223082205217E
:101FC000AFF2CC300FF085FE608840F08000D8E79B
:101FD00020F4807068806088C0050AD52523082217
:101FE0000521AFF2CC300FF074FE608820F48070D1
:101FF0006080F0790028688810D040F40070688014
:10200000608880051BD4262308220521AFF2D43036
:102010000FF05FFE608840F400700FE020F4007065
:102020006880608880050AD5272308220521AFF241
:10203000D4300FF04EFE608820F400706080F0789D
:102040000028688810D040F480606880608840056F
:102050001BD4282308220521AFF2E0300FF039FE0F
:10206000608840F480600FE020F4806068806088C1
:1020700040050AD5292308220521AFF2DC300FF0F4
:1020800028FE608820F480606080707A002868886C
:1020900010D040F400606880608800051BD42A23BB
:1020A00008220521AFF2E0300FF013FE608840F403
:1020B00000600FE020F400606880608800050AD5A9
:1020C0002B2308220521AFF2E4300FF002FE6088D6
:1020D00020F40060608030790028688811D040F4D6
:1020E000805068806088C0043FF590AA2C230822A5
:1020F0000521AFF2F0300FF0ECFD608840F4805025
:1021000010E020F4805068806088C0047FF57EAACB
:102110002D2308220521AFF2F0300FF0DAFD6088A0
:1021200020F480506080BDE8F09F2DE9FF418B4C8A
:102130000027054684F8267094F822000121022821
:1021400005D0874A525D552A05D065200FE084F8F6
:102150002610BDE8FF8105EB450202EB0513814A1D
:1021600002EB830696F83D20D30703D0662084F85F
:102170002600EEE796F83F309B0701D56720F6E78B
:10218000920701D56820F2E7774AB6F90830B2F92C
:102190000020934201DD6920E9E75242934201DACF
:1021A0006A20E4E7012805D194F8230000287DD0B7
:1021B00001287CD004F12204642020712170A4F84D
:1021C0004C1040F29A2013F04DFC65702946A4F89B
:1021D0004E5040F29E2013F045FC6448B761002148
:1021E00030F9150013F03EFCA770A4F85070394682
:1021F0004FF4287013F036FC5D485E4D0088401C9B
:1022000000F0070006EB4000008CADF80000A88B42
:102210008DF804004FF063024FF0010101A8FEF7B2
:102220002EF84E4C9DF80400CC342070287E8DF89A
:1022300004000C22012101A8FEF721F89DF80400FA
:102240006070287B8DF804001F22012101A8FEF791
:1022500016F89DF80400A0709DF80000E07040F2B0
:10226000A220216813F039FC287A8DF80400172287
:10227000002101A8FEF703F89DF8040020712879D9
:102280008DF804003B22002101A8FDF7F8FF9DF81E
:102290000400607128788DF804003B22002101A819
:1022A000FDF7EDFF9DF80400A07101E009E00AE0F0
:1022B0009DF80100E07140F2A620616813F00DFC6A
:1022C00047E76B2053E76C2051E72DE9F047234C9B
:1022D00094F8220001287ED12046012790F823009F
:1022E00094F82410C0F1010207FA02F01F4E1D4DB0
:1022F00002B211B1012947D04BE01423CA21C820F2
:10230000FDF73EFF14234FF0FF32CE21CD20FDF725
:1023100037FF94F8230000EB400101EB001005EBC0
:102320008000B0F90800FDF7EBFF94F8231001EBF3
:10233000410202EB011205EB82029369184448F650
:10234000A0439061984224DBC01A906136F81100D6
:1023500013F094FA401C0FE0EDC0072008C00720DE
:10236000EEC107200C390010B8C10720080C02008C
:10237000020100102040024001B294F8230036F917
:10238000100013F06FFB04E01423CA21C820FDF7EE
:10239000F7FE94F82300A84600EB400101EB001281
:1023A00005EB8201FC4AB1F902100025B2F90020C8
:1023B00040F29A2902EB8202B1EB420F4BDAB4F8F9
:1023C0006A10491C09B2A4F86A101E2945DB94F86A
:1023D0002210012900E064E024D194F8241009BB04
:1023E00036F8100013F04AFA04F1220401B2EB4867
:1023F000627830F9120013F035FB607836F810007F
:1024000013F03CFA81B2607804F0F7FFE448617899
:1024100030F91100002113F025FB3220E0812082E9
:10242000A4F12204DF4994F82300C0F10100085C04
:10243000552808D084F82250A4F86E500021484650
:1024400013F010FB09E084F82470A4F872700121E5
:102450004FF42870F4E7A4F86A5094F8231001EBC5
:10246000410000EB0112C1F1010101EB410303EB5B
:10247000011108EB820208EB8100B2F90220B0F9E9
:10248000020082420DDB94F82400012809D184F86F
:102490002250A4F86E504846BDE8F047002113F0E2
:1024A000E1BABDE8F08770B5BF4C0546002694F848
:1024B000220070BBBD48008801282AD004F13004F6
:1024C000022104F80E1CE18740F29A2013F0CAFAA8
:1024D000C5EB0510E5868000A087A4F1300415B98E
:1024E0001E20A4F86C0004F162044FF42770B4F9C4
:1024F0000A1013F0B7FAB4F90A104FF42A7013F067
:10250000B1FA0020E080208060800126304605F08E
:1025100002F8304670BD10B5A34C94F82200022892
:1025200012D104F13004E08E04F0F5FF0020608643
:10253000E086208704F80E0CE0870146BDE81040D5
:1025400040F29A2013F08EBA10BD70B5984C94F8F2
:102550003800984D297808440C2803D9A08F401CD6
:1025600001B201E0B4F93C10B82013F07BFA94F802
:102570003810287801440C2994F8381000D90C3808
:102580000144B62013F06EFA94F82C001C2801D9EF
:102590001C2101E094F82C10B42013F063FA04F12C
:1025A0002004217A4FF0AE0013F05CFA2179B020BC
:1025B00013F058FA2178BDE87040B22013F052BAF7
:1025C00010B57C48784C007838B37948818F7A4AC6
:1025D0001288914221D190F83810784A128891429D
:1025E0001BD190F82C10764A1288914215D190F8A0
:1025F0002810744A128891420FD190F82410724A20
:102600001288914209D190F82000704909888842C7
:1026100003D1012084F8250003E094F82500002868
:102620000CD06B480088C0B2FFF73DFF002805D0F2
:10263000002084F82500BDE8104086E710BD38B5BD
:10264000594C94F8220002281CD1624800780128D5
:1026500019D061480088002815D0012060705F48BB
:1026600000784FF00A01B0FBF1F201FB12000028E4
:1026700008D141F28830009059A35FA264A16AA0FA
:10268000FEF77BFF38BDB4F864004FF461610025AC
:10269000884212D2401C80B2A4F8640088420CD355
:1026A000A4F86450B4F8660038B1401E24F8660FF0
:1026B0006088401C6080A4F16604B4F862003C2885
:1026C00023D2401C80B2A4F862003C281DD324F819
:1026D000625F6089401E01B261814FF4277013F080
:1026E000C1F96089A4F1620418B13048008801285A
:1026F0000BD184F82250A4F86E50002140F29A20A9
:1027000013F0B0F9002004F006FF657038BD2649CB
:1027100010B591F822200020002A0ED1234A1288F9
:10272000012A0AD0CA79002A07D10120C8710146BE
:102730004FF4C97013F05FF9012010BD1A48C17938
:10274000002905D01021C1714FF4C97013F053B99D
:102750007047154910B591F822200020002A0ED1AB
:10276000124A1288012A0AD0CA79002A07D1012008
:10277000487201464FF4CA7013F03DF9012010BDB4
:102780000948417A002905D0132141724FF4CA70DB
:1027900013F031B970470000B0C10720240C0200CB
:1027A000040C0200EEC1072008C0072034C5072032
:1027B00000400240F6000010FC000010C8C40720D2
:1027C000FA000010C4C40720F8000010C6C4072097
:1027D000CAC4072062000010CEC407202040024077
:1027E00020202020C2C5CDD2C8CBDFD6C8DF212112
:1027F00021202020000000002020202020CDC5C85E
:10280000D1CFD0C0C2CDC0202020202000000000A9
:1028100020202020C7C0C1CBCECAC8D0CEC2C0CDD8
:102820002020202000000000C2DBD0C0C2CDC8C2E2
:10283000C0DED9C8C920C7C0D0DFC4200000000056
:10284000FD486FF03B010088C0EB001001EB8000F9
:10285000FA49A1F852009DE72DE9F05FDFF8DC931B
:10286000F5480026B9F85210F54F491C09B2A9F8ED
:102870005210B0F90000F34DC0EB00124FF0010B05
:1028800009F158044FF00A08B1EB820F55DBF0B3A1
:10289000A9F852602670DFF8B0A3667089F81C6052
:1028A0009AF80000552811D1B5F9020050280DDD25
:1028B000B5F90800FDF724FDB7F90010884203DBE5
:1028C00095F83D00C00701D084F800B09AF80100E7
:1028D000552811D1B5F94E0050280DDDB5F9540039
:1028E000FDF70EFDB7F90010884203DB95F889006B
:1028F000C00701D084F801B0D448007868B999F8CD
:102900001D10484649B190F8221019B100E014E0BA
:10291000022902D1CE49097821B12670667089F862
:102920001C6008E0217801291DD0617801291AD0A6
:10293000017F012917D0A9F854604846B9F954100D
:10294000DFF8F892DFF80CA309F18809F1B38346A8
:102950000246491E08B2A2F85400052806DD0F23DE
:102960001E22642107E0A9F85480E6E700281BDD59
:102970000F231E226921E120FDF702FCBBF8540061
:10298000052811D1B5F90800FDF7BAFCA9F8000037
:10299000B5F95400FDF7B4FCA9F80200BAF900003B
:1029A000FDF7AEFCABF85A00A448B0F8540000287C
:1029B00041D1AB46B5F90800FDF7A2FC9F4D8C351F
:1029C0002880BBF95400FDF79BFC00E038E06880EC
:1029D000BAF90000FDF794FCDFF860A2AAF85C00E9
:1029E000AAF85660B9F90000B5F900100844B7F923
:1029F0000010884202DA2078012817D0BBF90200C3
:102A0000C82804DD00212670084604F055F8B9F9FD
:102A10000200B5F902100844B7F90010884202DA42
:102A20006078012805D0BBF94E007AE0AAF85680FC
:102A3000EDE7AAF85680BDE8F09F66700021E5E05A
:102A4000B0F95610E9B380460246491E08B2A2F812
:102A50005600052803DD0F23C822642104E0002866
:102A60001BDD0F23C8226921E120FDF789FBB8F89F
:102A70005600052811D1B5F90800FDF741FCA9F869
:102A80000000B5F95400FDF73BFCA9F80200BAF9C3
:102A90000000FDF735FCA8F85A006848B0F8560069
:102AA0000028C8D1DFF89C81B8F90800FDF728FCA0
:102AB000624D8C352880B8F95400FDF721FC688000
:102AC00000E037E0BAF90000FDF71AFCDFF86C818E
:102AD000A8F85C0088F81B60B9F90000B5F900108F
:102AE0000844B7F90010884202DA207801281BD088
:102AF0005448B0F90200C82804DD002126700846B9
:102B000003F0DAFFB9F90200B5F902100844B7F989
:102B10000010884202DA6078012808D04948B0F9EC
:102B20004E00C82889DC86E788F81BB0EAE788F8F9
:102B30001BB080E78146C07E0028F4D00F2300221E
:102B40006E21E120FDF71CFBB5F90800FDF7D8FB6D
:102B5000B7F90010884207DD2078012804D1002150
:102B60002670084603F0A8FFB5F95400FDF7C8FB2E
:102B7000B7F90010884206DD6078012803D166703D
:102B8000002103F099FF207830B9607820B999F8D6
:102B90001C1009B989F81B60E620FDF708FB18B185
:102BA0002D480068E7280AD02C482D49B0F90000CC
:102BB000B1F9001000EB8000B1EB400FB3DA89F8F7
:102BC0001B602078274E01280FD1B7F90000410083
:102BD00091FBF8F0B6F90010884206DA95F83D004E
:102BE000C00702D1012103F067FF607801289AD164
:102BF000B7F90000410091FBF8F0B6F900108842E7
:102C000091DA95F88900C0078DD10121BDE8F05F08
:102C1000012003F051BF2DE9F047084CB4F85000F3
:102C2000401C00B2A4F85000B0F5E16F1CDB00209E
:102C3000A4F8500035E40000C6C1072008C00720F2
:102C4000B8C107200C390010EEC1072024C10720AD
:102C5000EDC00720D0C4072014000010B0C1072029
:102C600042C2072044C20720B0F5DF6F13D9607A53
:102C700088B90F2301226421D220FDF781FA0F23A6
:102C80000022D821D720FDF77BFA0F230022D8217C
:102C9000DC20FDF775FAB4F95000A0F5E0610739C2
:102CA000C8D1607A0028C5D1FC4FFD4CFD4D388855
:102CB00021880A26DFF8F083DFF8F093884210D0ED
:102CC000B5F9080090FBF6F000B2FDF719FBB8F972
:102CD0000010884205DAB4F90010B9F9000012F0CA
:102CE000C1FE788861888842A4D0B5F9080090FBBD
:102CF000F6F000B2FDF704FBB8F90010884299DA4B
:102D0000B4F90210B9F90200BDE8F04712F0AABE0A
:102D100010B5E74C082200212088401C2080204666
:102D2000FDF7C3FADF48B4F9001000EB4101428817
:102D30000A84B0F84E00A1F86C0010BD2DE9F041F6
:102D4000DC49B1F9000008B1401E0880DB48DA4DCB
:102D5000DFF86C83B0F90030DA48B5F900200A27B3
:102D600090F90010D84CD94E9A4218DA0A290DDA97
:102D7000B8F900300F2B0ADD491C49B201700A294D
:102D800005DB2280012003F085F900E00770B5F92A
:102D90000000B4F9001088420DDA20800BE00ADD53
:102DA00049B1491E49B20170002904DC002003F03A
:102DB00071F986F82F70C648B5F90020B0F90010F7
:102DC000C4488A421ADD90F900100A290DDAB8F9D0
:102DD00000300F2B0ADD491C49B201700A2905DBBE
:102DE0002280022003F056F900E00770B5F90000D8
:102DF000B4F90010884210DD20800EE00DDA90F961
:102E0000001051B1491E49B20170002905DC0020B3
:102E100003F040F986F82F7003E096F82F000028A1
:102E200003D016F82F0F401E3070BDE8F081F0B5CA
:102E3000A64800248030C188491C09B2C1801429E9
:102E400000DDC480A44DB0F90600002101EBC103F0
:102E500001EB810603EB01130A1805EB830300EB7A
:102E6000460606F5FA76DE615A621432491CC9B28A
:102E70009A621429EAD3994D994E00210A1802F159
:102E80001E0325F8113002EBD27323F00103D21A8E
:102E90007254491CC9B20329F0D30021914A924BC4
:102EA000012581EA0006F6075454002E00D055543F
:102EB0005C5400D05D54491CC9B20429F1D30A22E4
:102EC00090FBF2F202EBD273002123F00103D21A3D
:102ED000864FDFF8D0E1DFF818C2D6B201EB8102ED
:102EE00000EB420401EB410303EB01130EEB830300
:102EF000024404F5FA740A3A5C801A815A811E73FE
:102F00000A2802DA45F2555203E04C1C00FB04F299
:102F100032324D1C27F8112000FB05F404F13C026D
:102F20001A82642254432CF81140014401F51671B1
:102F30009980E9B20229D1D36E4940F25910088034
:102F40006D4940F21E200880F0BD6C4A6C48117833
:102F5000052901D0012905D1517819B969490978A4
:102F6000552902D06849098803E00178002901D079
:102F7000491E01700EE400EBC00101EB0011564840
:102F800000EB810090F85E10002912D190F85F10DC
:102F900000290ED1B0F8601000290AD13C2100F8B8
:102FA0005E1F0321417059494FF461620988514302
:102FB000418050E400EBC00202EB001246480021C1
:102FC00000EB820000F85E1F4170418043E42DE970
:102FD000F0413E4B00254E4F9D754FF03C0C4FF09D
:102FE00002083D4C4B4EC8E04B49097849B900EB0B
:102FF000C00101EB001104EB810101F85E5F4D702F
:103000004D80397839B900EBC00101EB001104EBB8
:103010008101A1F8605000EBC00101EB001104EB4D
:10302000810191F85E202AB991F85F2012B9B1F8B8
:1030300060207AB38A78012A14D081F86350987D91
:1030400000EBC00101EB001004EB800090F85E1073
:1030500009B3491EA0F8605011F0FF0180F85E101E
:103060000DD072E091F863203C2AE8D2521CD2B213
:1030700081F863203C2AE2D3FFF79CFFDFE790F85A
:103080005F1049B1491E80F85F1080F85EC080F87B
:10309000628064E059E04BE040E000007600001000
:1030A0003AE707200C390010C0C10720280C0200A5
:1030B00002010010F0C307204CC20720B2C1072054
:1030C0003AC107200E010010DCC4072008C0072009
:1030D000B4C10720E0C40720483B0010E2C4072029
:1030E000170100106200001061C2072084C207208F
:1030F00080C2072042C2072044C20720A8C207207E
:10310000E6C007201EC10720F2C1072088C407209F
:1031100086C40720DCC10720BC00001039780129D3
:1031200013D1FF494FF4616209885143A0F8601040
:10313000B0F8601049B1491E0904090CA0F86010EC
:1031400003D180F85F8080F85EC0987D00EBC001FD
:1031500001EB001004EB800090F8620050B1987D04
:1031600000EBC00101EB001004EB800010F8621FBF
:10317000491E0170987D401C9875987DB6F9001025
:103180008842FFF631AF50E6E648416821F440211D
:1031900041F480214160416821F4403141F48031A3
:1031A0004160416821F4404141F480414160416CFB
:1031B00021F4402141F400214164416C21F440316B
:1031C00041F400314164416C21F4404141F400413B
:1031D0004164D548016821F0E0610160016841F473
:1031E00000110160016821F480310160016821F45F
:1031F0007F4141F4807101608115C160CB48890332
:103200000160B7E62DE9F041C94C60882188401A79
:1032100000B204F0A7FEA51D2880A0886188401A8E
:1032200000B204F09FFE6880A0882188401A00B296
:1032300004F098FE4FF49672A880A4F1C001904269
:1032400001DAA0880AE0B5F90200904201DA60884C
:1032500004E0B5F90000904201DA2088888791F8EF
:103260000DC00023BCF1000F25D0B248B1F93C20BD
:10327000046814440460446814444460846814443A
:103280008460C4682244C260B1F84420521C12B267
:10329000A1F84420B2F5805F01DBA1F84430B1F918
:1032A000442094052ED1921250F8224024124C87CB
:1032B00040F8223026E0A04F887BCC7B07EB8015BE
:1032C000B1F93C2045F82420A2070FD100252A4659
:1032D00007EB801656F82270521CD2B23D44102AD9
:1032E000F8D32A11934D203D25F81020401CC0B280
:1032F0008873102806D3641CE0B28B73C87310283F
:1033000000D3CB730CF1010C0B731CF00100864A47
:10331000487305D0106820F0FF00001D106034E0F5
:10332000897B08070028106820F0FF0002DB00F10D
:10333000010001E000F1020010608048036843F0E2
:1033400080530360036A43F080430362036E43F0DB
:1033500080630366CB07436908D043F08053436121
:103360008B07436B05D423F0804304E023F08053A4
:10337000F5E743F0804343634907416F02D421F0EE
:10338000806101E041F080614167106840F0807029
:1033900010604AE5F0B5DFF898C1ACF1C00CBCF99B
:1033A000340018B1401EACF83400F0BD0520ACF874
:1033B00034004FF0000E634A8CF819E07046604903
:1033C000B2F9004013E000BF00EBC00202EB0012B4
:1033D00001EB82029378012B07D1D278142A04D210
:1033E0009CF81920521C8CF81920401CC0B2A04235
:1033F000EADB9CF81A00012510B18CF81AE001E014
:103400008CF81A509CF81960022ECED3484841F22D
:1034100088324038C0E904E20022C0F818E016E023
:1034200002EBC20303EB021301EB83039F78012F2E
:103430000BD15B6A0769BB4200DD03614769BB4290
:1034400000DA436187693B448361521CD2B2A242D5
:10345000E6DB826992FBF6F2C261436903B945611A
:10346000036964267343466993FBF6F30362822B78
:1034700001DD8CF818506E2B02DA8CF818E035E07C
:103480009CF81800012831D100236FF031062BE0A1
:1034900003EBC30000EB031001EB80008578012DE6
:1034A00020D1456A954207DD9CF81A7027B9B0F81B
:1034B00054707F1EA0F85470954207DA9CF81A5099
:1034C00025B1B0F854506D1CA0F85450B0F95450C8
:1034D000B54202DAA0F8546004E0322D02DD322554
:1034E000A0F854505B1CDBB2A342D1DB00BFF0BD9F
:1034F0002DE9F0470B480168134A114001600F4C59
:10350000216841F47C712160C16921F44021C161CD
:10351000216E41F000712166416821F0406115E0A3
:1035200088C4072000C002400040034000E100E0E2
:10353000C8C007200C380010EC33001000C0092070
:10354000483B0010DCC10720FF00F0FF416020680D
:1035500040F000502060FA48F84B0278F94893F8A0
:103560003C500178F8481543B0F9000007D031B15C
:10357000052804DDA56945F48075A56103E0E569CA
:1035800045F48075E56193F88830134307D031B175
:10359000052804DDA06940F04000A06103E0E06977
:1035A00040F04000E061D220FCF721FEE74D60B121
:1035B0002868642809D16868012801D028B108E08A
:1035C000A06940F00050A06103E0E06940F00050C5
:1035D000E061D220FCF70BFEDD4E10B128686628B2
:1035E00015D03068C007A0B1A06F40F00070A06790
:1035F000D220FCF7FCFD10B128686C280ED0306892
:10360000800710D4E06940F01000E0610FE06868C6
:10361000E9E7E06F40F00070E067E9E768680028DC
:10362000F0D0012803D1A06940F01000A061D220A1
:10363000FCF7DDFDDFF81C83C74F10B128686D284B
:103640000BD098F8000002280DD0306840070DD448
:10365000E06940F40070E0610CE068680028F7D091
:10366000012803D006E038780028F1D0A06940F4A2
:103670000070A061D220FCF7BAFD10B128686A285A
:1036800004D0306810F4FF6F05D009E0686810B10D
:10369000012805D008E0E06940F08000E06103E027
:1036A000A06940F08000A061D220FCF7A0FDAB49EA
:1036B00010B128686B2806D098F80000012804D0C3
:1036C000087820B108E06868FBE7387820B1A06985
:1036D00040F02000A06103E0E06940F02000E061DC
:1036E0009F48008801287ED1002391F82250DFF8FE
:1036F0007482DFF874C29D4CDFF874921846012280
:1037000039F91010CE070ED09A4E9B4FB6F90060D3
:10371000B7F9007006EB8606B7EB460F03DA02FA3C
:1037200000F61E43F3B28E0707D5944E3678022E6C
:1037300003D102FA00F61E43F3B24E0705D5022D5F
:1037400003D102FA00F61E43F3B20E0706D58C4EE3
:1037500036681EB102FA00F61E43F3B2CE0607D554
:1037600098F80060012E03D102FA00F61E43F3B26E
:103770008E0607D598F80060022E03D102FA00F6F3
:103780001E43F3B24E061BD59CF80160F60603D526
:10379000B4F90060012E0FDA9CF86560F60603D5D7
:1037A000B4F90060022E07DA9CF8C960F60607D566
:1037B000B4F90060032E03DB02FA00F61E43F3B2F5
:1037C0000E061DD59CF80160360703D0B4F90060E1
:1037D000012E11DA9CF86560360703D0B4F9006059
:1037E000022E09DA00E018E09CF8C960360707D01D
:1037F000B4F90060032E03DB02FA00F61E43F3B2B5
:10380000090403D402FA00F15940CBB2401CC0B203
:103810000428FFF475AF5B480370BDE8F0872DE91D
:10382000F05F4E4C00254FF0010894F820000A2864
:1038300009D2401CC0B284F820000A2803D384F8BF
:10384000205084F82180A4F85E50A4F86050CD2068
:10385000FCF7CDFC444EDFF81491A8B33B484FF67B
:10386000FF720168CE2908D0CF2909D0D12909D00B
:10387000D2290BD0D0290CD011E0A4F860200EE0A2
:1038800040680AE04068A4F85E0008E0A4F85E2002
:1038900005E04068A4F85E00C043A4F8600000277B
:1038A00030E000BF08FA07F0B4F860108246084222
:1038B00007EBC70000EB071006EB800005D030F8DF
:1038C000401F491C018002E021E0A0F8405007EBB6
:1038D000C70000EB071006EB800083464030322221
:1038E0000021FCF7D7FCBBF94000142801DD8BF860
:1038F0002C80B4F85E101AEA010F01D08BF82C501E
:103900007F1CFFB2B9F900008742CBDDAAE094F832
:103910002100C8B34FF0000C6146B9F9000009E07E
:1039200001EBC10202EB011206EB8202491C82F894
:103930002C80C9B28142F3DD002148E00C3900102F
:1039400038C40720EAC007203AC10720140000103D
:10395000340000109E0000106700001008C007200F
:1039600072C4072034C10720483B0010DCC1072087
:10397000E8C30720B0C1072042C20720EDC00720DE
:1039800030000010660100106CE0C2B2202A00D99D
:10399000202294F82730834200DB00230B44DBB263
:1039A000B3FBF2F702FB173202EBC20303EB021286
:1039B00006EB82039A78022A01D0012A05D10CF184
:1039C000010C83F82C500CF0FF0C491CC9B2814249
:1039D00004DAFF4AB2F900209445D6DB94F82810A7
:1039E00001EBC10202EB011106EB810181F82C50C1
:1039F000F849B1F900103C290EDA00210AE000BFB5
:103A000001EBC10202EB011206EB8202491C82F8B3
:103A10002C50C9B28142F3DDEF49098871B1002110
:103A20000AE000BF01EBC10202EB011206EB8202C9
:103A3000491C82F82C80C9B28142F3DD00216FF06D
:103A400031030DE001EBC10202EB011206EB820231
:103A500092F82C70012F01D1A2F85430491CC9B240
:103A60008142EFDD00206323B9F900200EE000BFA2
:103A700000EBC00101EB001106EB8101CF6B1FB120
:103A800081F82C307F1ECF63401CC0B29042EFDB28
:103A900084F8215000206577014611E001EBC10355
:103AA00003EB011306EB83039F78012F06D1677F99
:103AB0007F1C6777DB69834200DD98B2491CC9B27D
:103AC0009142EBDB04F12A04C449A084657004F838
:103AD0002A89B1F9001047464FF00000A1F1050313
:103AE00012E000BF00EBC00C0CEB001C06EB8C0CD2
:103AF000DCF828C08C4501DB84F82B709C4501DB89
:103B000084F82A50401CC0B29042EBDB94F82B00A2
:103B100001280BD094F82C00002805D094F82A0036
:103B2000002801D084F82C50BDE8F09F84F82C7058
:103B3000FAE770B5AA480A21AA4D0368002428684C
:103B4000B3FBF1F2B0FBF1F6A748B2420AD102781A
:103B50000F2A01D2521C0270D0B20A2803D3A34804
:103B6000036000E004702B60A148A24BB0F9002074
:103B7000B3F90000B2FBF1F5B0FBF1F19E488D42C4
:103B80000AD101780F2901D2491C0170C8B20A2854
:103B900003D39A48028000E004701A8070BD2DE9BA
:103BA000F04F974C8D23974EB4F93600322785B0ED
:103BB0004FF00A0C4FF00108002518B1401E00B26A
:103BC000E086E8B36079E0B38D49B1224FF0030895
:103BD000B1F97A10022861D0A3468124D2234FF094
:103BE000820C4FF0CF0E4FF028094FF0A90A04289D
:103BF0006ED008287DD014282CD100292AD150203D
:103C00008DF804008DF808008DF805E0D7218DF8B7
:103C100000408DF80610E4208DF80130C5218DF8A4
:103C200009908DF802208DF807108DF80AA08DF804
:103C30000C008DF803C08DF80B800D21684601E063
:103C40000BE016E016F08FFB358015218BF8051080
:103C5000ABF8367005B0BDE8F08F6571A07918B18A
:103C6000012804D0A57104E084F8068001E0022058
:103C7000A071AF208DF800003F208DF801002120B9
:103C80008DF802008DF803308DF804C005216846D8
:103C900016F069FB358084F8058017E00029D9D13A
:103CA00006208DF8000030208DF8010035208DF8B9
:103CB00002008DF804308DF803208DF805C0062130
:103CC000684616F050FB358084F80580E786C1E72A
:103CD0000029BFD18DF8004056208DF801308DF8B5
:103CE00004008DF802208DF803C08DF805E0CC208B
:103CF00000E017E08DF80600D4208DF80700412081
:103D00008DF808008DF809905F208DF80AA08DF8D5
:103D10000C008DF80B800D21684616F024FB3580D1
:103D2000052193E7002995D1C3208DF80400552083
:103D30008DF80500C5208DF808008DF800408DF83D
:103D400001308DF809905A208DF802208DF8063048
:103D50008DF80AA08DF80C008DF803C08DF807309F
:103D60008DF80B800D21684616F0FDFA358009218B
:103D70006CE72DE9F04FDFF8909089B0DFF88CB058
:103D800099F80010DFF878A0491CC9B289F8001032
:103D90004FF000080A2902D389F8008000E0E9BB4F
:103DA0009AF81D105046C9B390F82210C2799AF8BB
:103DB0000900114301439BF80000014363D1144EF5
:103DC0003078401C30701348B0F90020124826E0CB
:103DD000F0C407203AC107205C010010ACC10720E5
:103DE00010C5072040010010460100103C010010E2
:103DF0004401001014C5072016C507200CC5072074
:103E000008C00720CC01001060010010EDC00720A1
:103E100040F00720080100103AC5072033E0028077
:103E2000FF48DFF800C4B0F900403046BCF900108C
:103E30004078FD4BA242B3F90050FC4BB3F900307F
:103E40000CDD171B052F09DB012B03D0022B05D13D
:103E5000052D03DD401C7070491E0DE0A2420DDAF5
:103E6000A21A052A0ADB012B03D0022B06D1052D4D
:103E700004DD401E7070491CACF8001064225142F1
:103E8000E848FCF707FAE9480088012868D19AF861
:103E900022109AF80720504611439AF8092011433E
:103EA0009BF8002011435BD1417F002958D099F83D
:103EB0000010DF4ADF4D082954D0DF49B0F9324005
:103EC0006FF01406B1F90030BAF95200C3EB0311D8
:103ED00006EB810686420BD06FF0130606EB8106D7
:103EE000864205D06FF0120606EB8101814201D1B6
:103EF00043F4804410888DF80C0006208DF80D00E6
:103F00008DF80E8064208DF80F00E01704EB106030
:103F100001128DF8101020468DF81100062103A81B
:103F200014F064FC8DF8120000128DF813000621C5
:103F300003A814F05BFCC1488480B5F90000B8B355
:103F400002280DD19DF811009DF81010CDE9001048
:103F500064230022CDF808800621052016F0D8F948
:103F600009B078E610888DF80C0004208DF80D005B
:103F70008DF80E8002208DF80F008DF8108001243E
:103F80008DF81140062103A814F030FC8DF81200C2
:103F900000128DF81300B5F9000050B10228DFD1EE
:103FA000CDE90084022300220421CDF80880D4E763
:103FB00009E0002403AD285D15F0CCFE641CE4B2DA
:103FC000082CF8D3CCE7002403AD285D15F0C2FE21
:103FD000641CE4B2082CF8D3C2E72DE9F041804616
:103FE00000EBC00101EB0810954911F82020032ACD
:103FF00071D101EB800494F84250A807B4F946004F
:1040000010D54FF4966188421ADA401C00B2A4F829
:104010004600884214DBA4F846106078C0070FD130
:10402000012209E060B1401E00B2A4F8460038B990
:104030006078C00704D000220021404602F01EFA3A
:104040002807B4F948004FF00A064FF0000715D5CD
:104050000A2826DA401C00B2A4F848000A2820DB0F
:10406000A4F848606078800704D4012211464046D5
:1040700002F004FA4046FEF77EFF12E000280DDD54
:10408000A0F1010000B2A4F8480050B94FF00002BE
:104090004FF00101404602F0F1F902E001DAA4F824
:1040A0004870E806B4F94A0016D50A281FDA401C01
:1040B00000B2A4F84A000A2819DBA4F84A60607824
:1040C000400704D401220221404602F0D7F94046BD
:1040D000FEF751FF0BE081E048B1401E00B2A4F8AA
:1040E0004A0020B900220221404602F0C7F9554992
:1040F000E069B1F900205449B1F90010511A884221
:1041000002DAA278012A0AD0884220DBB4F94C00F6
:10411000E8B1401E00B2A4F84C0098B117E0B4F921
:104120004C104FF49670814211DA491C09B2A4F880
:104130004C1081420BDBA4F84C006078400706D499
:10414000012200E000220221404602F097F9607847
:10415000000701D0042011E03C48007820B1E0784D
:10416000142801D9052009E094F84200800601D501
:10417000022003E0E078142801D20120A070E0784A
:104180000A2894F82C0002D340F0800001E000F0EF
:104190007F0084F82C002948803890F82F1039B11E
:1041A00094F82C1041F0020184F82C1067700CE098
:1041B00094F86210002994F82C1002D041F002010A
:1041C00001E001F0FD0184F82C10B4F95410B0F9AD
:1041D0003000084420634FF47A706063BDE8F081DA
:1041E00070B51B4900201B4DB1F90C20012103467D
:1041F00001FA00F4224201D0295400E02B54401C63
:10420000C0B20C28F4D3144C2878144E2178814283
:104210002CD0B6F90010012928DB01287ED01FE040
:10422000620100103CC507203EC50720B000001009
:10423000B20000107CC40720C6C1072088C0072038
:10424000483B0010A8C10720C8C1072024C107208F
:1042500000F0072014F00720444B0010E6C10720AF
:10426000002301220B21FFA00DF033FD6178687857
:1042700081420BD0B6F90010022907DB01287ED05D
:10428000002302220B21FCA00DF023FDA178A878C9
:1042900081420BD0B6F90010032907DB01287CD03E
:1042A000002303220B21F9A00DF013FDE178E8783B
:1042B00081420BD0B6F90010042907DB012872D027
:1042C000002304220B21F6A00DF003FD21792879AB
:1042D00081420BD0B6F90010052907DB012867D011
:1042E000002305220B21F3A00DF0F3FC617968791E
:1042F00081420BD0B6F90010062907DB01285CD0FB
:10430000002306220B21F0A00DF0E3FCA179A8798F
:1043100081420DD0B6F90010072900E033E007DB39
:1043200001284FD0002307220B21ECA00DF0D1FC77
:10433000E179E87981420BD0B6F90010082907DB52
:10434000012844D0002308220B21E9A00DF0C1FC74
:10435000217A287A81420BD0B6F90010092907DBAF
:10436000012839D0002309220B21E6A00DF0B1FC71
:104370000020295C2154401CC0B20C2801E007E059
:104380000BE0F6D370BD01231A460B21E2A06BE7C8
:10439000012302220B21E5A076E7012303220B2152
:1043A000E7A081E7FFE7012304220B21E9A08BE7C7
:1043B000012305220B21ECA096E7012306220B2105
:1043C000EEA0A1E7012307220B21F1A0AEE7012314
:1043D00008220B21F3A0B9E7012309220B21F6A043
:1043E000C4E770B5C820FBF702FFF8490022A0B36C
:1043F000F74C01232068C92803D0CA28104611D0E1
:104400002CE0002000EB400404EB001411F82450D1
:10441000322D02D26D1C01F82450401CC0B202287B
:10442000F0D325E0D4F8045003FA00F4254200EB61
:10443000400409D004EB001611F82640322C07D2B4
:10444000641C01F8264003E004EB001401F824206A
:10445000401CC0B20228E7D30AE01FE000EB400492
:1044600004EB0014401CC0B201F824200228F5D34C
:104470005FF0000000EB400404EB001411F824503E
:1044800001EB8404142D02D984F83C3001E084F857
:104490003C20401CC0B20228ECD370BD00EB4003AE
:1044A00003EB0013401C01F8232001EB8303C0B28F
:1044B00083F83C200228F1D370BD2DE9FE4F05465C
:1044C000C44830F9151011B1491E20F81510C14922
:1044D000091D31F9152012B1521E21F8152005EBE6
:1044E0004502BA4B02EB051203EB8204BA4B02926F
:1044F000B4F90820B3F900309A4202DD642320F8B1
:104500001530002A02DA642221F81520B14A30F869
:104510001530A43A00264BB131F8153033B1B2F85A
:104520007630B3B140F6B830A2F87400A2F87460E7
:1045300094F83E00401CC0B284F83E000A2801D323
:1045400084F83E60A54FDFF898823888322809D079
:1045500017E04FF41673A2F8763020F8156021F8B2
:104560001560E3E794F83C00F8B9B4F9020050286C
:104570001BDA94F83D00C00717D10121284602F04C
:104580009BFAB7F90000C8280FDDB4F90800FBF763
:10459000B7FEB8F90010884207DD94F83D00C00767
:1045A00003D00021284602F087FA8D48B4F908109C
:1045B000B0F900004042814212DD607B0A280CD233
:1045C000401CC0B260730A2806D3A07B002803D029
:1045D000A673284602F0E5F931E10A2060732EE166
:1045E0003FDA607BE8B3401E10F0FF00607338D103
:1045F000A07BB0BB0120A0737A487B4F0088401C91
:1046000000F0070004EB4000008CADF80400B88B0C
:104610008DF800004FF063024FF001016846FBF790
:104620002EFE04F11C049DF800002076387E8DF8E3
:1046300000004FF00C024FF001016846FBF71FFE2F
:104640009DF800006076387B8DF800001F22012164
:104650006846FBF714FE9DF80000A0769DF8040064
:10466000C4E0ECE04176746F6D6174202331206901
:1046700073204F46460000004176746F6D617420D0
:104680002332206973204F46460000004176746F44
:104690006D6174202333206973204F46460000006B
:1046A0004176746F6D6174202334206973204F4606
:1046B000460000004176746F6D61742023352069D7
:1046C00073204F46460000004176746F6D61742080
:1046D0002336206973204F46460000004176746FF0
:1046E0006D6174202337206973204F464600000017
:1046F0004176746F6D6174202338206973204F46B2
:10470000460000004176746F6D6174202339206982
:1047100073204F46460000004176746F6D6174202F
:104720002331206973204F4E200000004176746FC2
:104730006D6174202332206973204F4E20000000E9
:104740004176746F6D6174202333206973204F4E5E
:10475000200000004176746F6D617420233420695D
:1047600073204F4E200000004176746F6D617420FD
:104770002335206973204F4E200000004176746F6E
:104780006D6174202336206973204F4E2000000095
:104790004176746F6D6174202337206973204F4E0A
:1047A000200000004176746F6D6174202338206909
:1047B00073204F4E200000004176746F6D617420AD
:1047C0002339206973204F4E200000000C3900105F
:1047D00014000010ACC00720C0C1072038C107205A
:1047E000B8C107200201001020400240E076387A6C
:1047F0008DF80000172200216846FBF740FD9DF868
:104800000000207738798DF800003B2200216846AF
:10481000FBF735FD9DF80000607738788DF80000D3
:104820003B2200216846FBF72AFD9DF80000A07797
:104830009DF80500E07726806680A4F11C0448F608
:10484000A04894F83E0088BBB4F908106069DFF80E
:10485000FCA30844DFF8F89345F2555B60614045DE
:1048600025DB39F915205A4503D1FA4830F815707F
:1048700001E039F815703AF8150010F0FFFF80B22A
:10488000B8420AD2616900F10100A1F50041A1F529
:104890004A6161613AF915202BE031D93AF91500E6
:1048A00039B211F0DFF8C4F8148029E04EE0EA498B
:1048B000884225DC39F915205A4503D1E54830F8FE
:1048C000157001E039F815703AF8150010F0D6FFB0
:1048D00080B2B84205D93AF9150039B211F0C2F8E0
:1048E000384658B16269401E02EB080161613AF92D
:1048F000152001B2104611F0B5F801E0D64860610C
:104900003AF8150010F0BAFF014639F9150058457C
:1049100002D1D04830F915004FF47A72514308B1F2
:10492000B1FBF0F00A21B0FBF1F02082CB48008807
:10493000012805D1CA49029801EB8000408A2082F3
:1049400004F1100064220021FBF7A4FCA07B0128E5
:1049500013D1A08B4746B8420ED2B4F90800FBF73A
:10496000CFFCA18B084480B2A083B84205D3A683B4
:10497000E08B401CE08300E0A683BA49B4F90A004A
:10498000B1F90010884201DD207B80B3B4F840000B
:10499000B0F10100A4F840004FF4167904F1400092
:1049A0004A460021FBF776FCB4F9400040F24E275E
:1049B000B84205DB94F83F1041F0010184F83F1044
:1049C0000A2805DC94F83F0020F0010084F83F003D
:1049D00094F83F00C10710D0C0061AD40121284620
:1049E00002F0A6F994F83F00C00706D011E0FFE7F7
:1049F000B4F8400000F10100CCE794F83F00C00695
:104A00000CD50021284602F093F994F83F00C00726
:104A100004D094F83F0040F0100003E094F83F0009
:104A200020F01000904984F83F00B4F90A00B1F971
:104A30000010884201DD207BD8B3B4F84200401E4C
:104A4000A4F8420004F142004A460021FBF722FC90
:104A5000B4F94200B84205DB94F83F1041F002017E
:104A600084F83F100A2805DC94F83F0020F002008B
:104A700084F83F0094F83F00810709D5800613D4DD
:104A80000321284602F054F994F83F0080070BD424
:104A900094F83F00800611D50221284602F048F91B
:104AA00094F83F00800709D594F83F0040F02000BB
:104AB00008E0FFE7B4F84200401CC1E794F83F006B
:104AC00020F0200084F83F00606C404510DA401C64
:104AD000606440450DDB6664644E36F8150010F0E6
:104AE000CDFE401C01B236F9150010F0BBFF00E00E
:104AF00066645F4E3088002854D05E48B0F90000EC
:104B00004845B4F9020004DAC11700EB9170801037
:104B100003E0052190FBF1F000B2A188C1EB400059
:104B200000B2FBF7EDFB00EB8000400000B20C216F
:104B300090FBF1F000B2E080B6F90010884233DD5E
:104B4000B4F90800FBF7DCFB4B49B1F9001001EBAD
:104B50008101884228DA49487321B0F900004843AE
:104B6000642190FBF1F0B4F9021000B288421BDA24
:104B700094F83D00800717D4B4F84800401C00B2F8
:104B8000A0F53061A4F84800B83903D101212846C6
:104B900002F059FAB4F9481040F6BD30814201DB09
:104BA000A4F84800BDE8FE8FB4F948000028F9D009
:104BB000401E00B2A4F848000028F3D103B02846F4
:104BC000BDE8F04F002102F03EBA2DE9FF5F2C4C0A
:104BD0002C4EDFF8B4902078DFF8B0A000254FF01D
:104BE000640B01281FD199F80000012801D03C2056
:104BF00030700A230022E621E120FBF7C1FA2448A5
:104C0000B0F90010BAF90000421E914204DB401CCA
:104C1000814201DC02202070307820B1401E10F06B
:104C2000FF0030700AD02078DFF868C0DFF86880B5
:104C30001A4F022838D0032875D0F3E018482570A1
:104C400002210170174981F800B0EBE0040C02006A
:104C500084C207207CC207206073FFFFD6C10720F3
:104C60004C3A0010CEC10720CCC10720200C020016
:104C7000D0C10720C2C10720B8C10720B0C107209A
:104C8000EFC007206B010010680000108E000010BC
:104C9000D4C407206801001042C5072044C507207E
:104CA000F0C0072045C50720BAF90020652102FBA6
:104CB00001F0B0FBFBF302EB421000EB4000B0FB55
:104CC000FBF0ACF80030A8F8000099F80000E246CC
:104CD000C346022801D03C2030700A23BF21BE20E9
:104CE000FBF74EFA0A230022E621E120FBF748FAFF
:104CF000BAF90080DFF800A4BBF900200020FF49CA
:104D0000B1F9001012E000BF00EBC00303EB001C80
:104D10000AEB8C03DB69434501DA934204DCF84972
:104D2000401C087009E015E0401CC0B28842EBDB73
:104D300003202070F3483D7005703078002871D052
:104D4000401E10F0FF0030706CD1EF49257002203A
:104D5000087067E0BAF90020652102FB01F0B0FBA2
:104D6000FBF0ACF8000002EB421000EB4000B0FB9F
:104D7000FBF0A8F8000099F80000E246C3460328BB
:104D800000D03D700A23BF21BE20FBF7F9F90A23AA
:104D90000022E621E120FBF7F3F9BAF90080594639
:104DA000DFF858A30126B1F900200020DFF848B34E
:104DB000BAF900100FE000BF00EBC00303EB001CCA
:104DC0000BEB8C03DB69434501DA934201DC0026DF
:104DD00003E0401CC0B28842EEDBD720FBF7E7F9C6
:104DE00078B1CA480068D9280BD13878401CC1B2C4
:104DF0003970BAF90000814203DBC34925700320F2
:104E00000870012E0ED1EE20CDE900050295039524
:104E1000397803461622084614F05DFEB948017839
:104E2000491C0170217889F80010BDE8FF9F2DE929
:104E3000F84FB74C0025607C0A2807D2401CC0B24E
:104E400060740A2802D365740120E074A07C0528F0
:104E500005D2401CC0B2A074052800D1A574BE20A4
:104E6000FBF7C5F9AB4928B1A8480268BF2A1CD195
:104E7000406886E0E07C002817D0A74BA7481A7846
:104E8000552A04D05A78552A01D0008879E0A448E0
:104E9000DFF890A2DFF890B2B0F90060A348A44A0E
:104EA000DFF8908216B1012E50D06BE0994614279E
:104EB000A57586466B467E42A07D19F80050552D9B
:104EC0000FD023F81060401CC0B2A0750228F3D3A5
:104ED000BDF90030BDF902509748AB4212DD0360C6
:104EE00012E000EB400505EB001C0EEB8C0C9CF86F
:104EF0000C5015B123F81070E5E7BCF80A5023F800
:104F00001050E0E72B460560002B02DAB2F90000F2
:104F100011E0282B01DD28230360B8F90050B2F915
:104F200000300068EA1A02EB820252004243C820B5
:104F300092FBF0F0184494F82220022A21D19AF82A
:104F40000020012A1DD1BBF900001AE040880A3078
:104F5000088094F82200022806D19AF8000001285F
:104F600002D1BBF800000880B1F90030B2F90000AE
:104F7000834200DB0880B1F90020B8F900008242CA
:104F800000DB08806D48008818B96D480078022859
:104F900002D16C4800880880B1F9000062214143C9
:104FA000642291FBF2F1684B19806621484390FB23
:104FB000F2F066490880BDE8F88F2DE9F041544CC5
:104FC000B4F9380008B1401E20876148614D574E42
:104FD00000882880B6F908000A27002806DAFBF7BF
:104FE0008FF990FBF7F0298808442880B6F954001F
:104FF000002806DAFBF784F990FBF7F029880844CB
:1050000028805549B5F90000544AB1F900103C23F5
:1050100090FBF1F1491CC9B2A177B2F9002090FBD5
:10502000F2F0401CC2B24E48E277B0F90050A942FB
:1050300001DD018004E0AA4203DA218F09B9028070
:10504000238748490A882D490AB10A880280B1F9A4
:105050000020BDE8F04101214148FBF71BB92DE9D3
:10506000F05F41482A4C0088A4F84C00334800887F
:1050700018B933480078022803D13C480088A4F8C6
:105080004C00E0790A2803D139480088A4F84C0084
:10509000607A0A2802D00B2802D005E0354800E0EB
:1050A00035480088A4F84C00B4F9740010B1401ED3
:1050B000A4F87400B4F9760010B1401EA4F876008C
:1050C0001A484FF00A0890F83F10890703D190F86A
:1050D0008B00800705D0B4F84C00B0FBF8F0A4F8C2
:1050E0004C00207D4FF000094FF0010A0A284BD2F6
:1050F000401CC0B2207541E0483B0010DCC10720D5
:1051000045C507206A010010F0C0072014000010F8
:1051100008C007201A010010EEC10720C2C10720F5
:10512000D6C1072062000010BAC107200C39001058
:10513000A6C10720A8C10720F4C40720560100100B
:10514000EDC00720520100101C010010EEC4072022
:105150001E010010F8C40720BCC10720BEC10720F3
:10516000F0C40720CAC10720C0C107202CC50720F2
:10517000C400001092C4072096C407200A2803D355
:1051800084F8149084F815A0E120FBF730F8FB4F69
:10519000FB4BDFF8F0B388B3FB490868642808D0FC
:1051A00069280AD06E280CD0E52828D0E62828D017
:1051B0002DE14868618E084428E14868618E081A2C
:1051C00024E1208E401E00B220861E2806DDEF4915
:1051D000B7F90000B1F9001088420CDAE07A401CFF
:1051E000C0B2E072FA2805D10A230022E721E620A6
:1051F000FAF7C6FF0BE184F80B9008E137E0486846
:1052000004E1B7F90000B3F90010884216DD4FF051
:105210001102A0EB010084F82D200A2805DDB4F965
:105220003000002801DD401FF0E0B4F93000002814
:1052300078D0617D002975D0401EE7E072DA122235
:10524000081A84F82D200A2807DDB4F9300040F24E
:10525000F731884201DA401DD8E0B4F93000B0F5EA
:105260007F7F5FDA617D00295CD0401CCEE0607DED
:10527000002857D0C648008818B19BF82303282877
:1052800050D904F12C0425206070B4F90600A083E5
:10529000B4F91E10228C91FBF8F5A4F12C04B5EBA7
:1052A000420F06DD4FF026018EE0401EA3E00A38D3
:1052B000A1E00CDAC2EB02168E4208DA272184F84C
:1052C0002D10B4F874100029EFD1C01E93E0C2EB8A
:1052D00002168E4203DD954201DD2821A6E0B7F9D2
:1052E0000050B3F90030AB4FAB4E9D425FDA4FF048
:1052F000290C84F82DC0B7F90070B6F90060A7EB4F
:105300000606A3EB0607AF421DDD2A2384F82D30E5
:10531000002908DA2B2184F82D10B4F8741031BB61
:105320000A3068E073E002EB82038B4201DD2C213E
:1053300018E0C2EB421303EB8212B2FBF8F28A428E
:105340005BDD2D2120E0F71706EB9776A3EBA60691
:10535000AE421CDD2E2384F82D3002EB82038B42FB
:1053600009DD2F2184F82D10B4F8741009B1401C08
:1053700041E0801C3FE0C2EB421303EB8212B2FB20
:10538000F8F28A4239DD302184F82D10EFE75B1EF8
:105390009D4232DA312384F82D30C2EB421303EB05
:1053A0008212B2FBF8F28A4227DD3221ECE724DDDB
:1053B000332184F82D10B7F90010B6F90020891AAE
:1053C000CA18AA4208DA342184F82D10B4F87410EF
:1053D00000293FF46CAF68E7CA1701EB927103EB49
:1053E000A101A9421EDA352184F82D10B4F87410F9
:1053F0000029F0D1801EA4F8480040F2FE320A21B4
:105400006648FAF747FFB4F848006086208664488B
:1054100084F8179084F816904D465A465346B0F9D2
:10542000001013E05B1C9D42E7DD362184F82D104F
:105430003BE700BF00EBC00606EB001602EB86065A
:10544000F6781E2E00D2E375401CA075A07D884220
:10545000F0DBE07D40B95348008800EB800040005D
:1054600020866086A4F848004C4840F2FE320A21AB
:105470001838FAF70FFF6575BDE8F09F2DE9F05F6A
:105480004B4E00204849DFF824814FF00A0B82463A
:10549000B6F9003024E0474A474C125C34F9122038
:1054A000B2F5FA6F0A560DDA0A2A08DA521C52B21D
:1054B0000A540A2A12DB012208F800200EE001F843
:1054C00000B00BE0002A07DD521E52B20A54002A37
:1054D00004DC08F800A001E001F800A0401CC0B204
:1054E0009842D8DB0024DFF8D490354D354F9BE04F
:1054F000354830F81400002818F8040001D078B1BD
:1055000001E001280CD019F90400002818DB401E26
:1055100040B209F80400002814DC05F804A011E0EA
:1055200019F904100A2908DA491C49B209F80410CB
:105530000A2907DB0120285504E009F804B001E03E
:1055400009F804A0395D285D814269D0134A921E92
:105550001188491C1180012807D074B1012C4FD04B
:10556000022C52D0032C55D05AE07CB3012C33D0FE
:10557000022C36D0032C39D052E03CE042C2072046
:105580001A010010483B001014000010B0C10720A1
:1055900048010010A6C10720A8C1072050C007205D
:1055A000DCC10720B80000100F01001062000010DD
:1055B000E2C10720FF0B0200EC370010E8C407200F
:1055C00061C2072013010010B4C40720FFE70123C4
:1055D0001A460F21F5A021E0012302220F21F6A097
:1055E0001CE0012303220F21F6A017E0012304226F
:1055F0000F21F7A012E0002301220F21F7A00DE0F8
:10560000002302220F21FAA008E0002303220F2129
:10561000FCA003E0002304220F21FFA00CF059FBA3
:10562000285D3855641CE4B2B6F900008442FFF6E8
:105630005FAF21E7FD49FE4A0120087010704870F5
:10564000507070472DE9F05FFB48DFF8F0E3DFF8BA
:10565000E4C3B0F90070BEF90000F94CC0EB0011D2
:10566000BCF902506FF01D0A6FF0950B0026DFF8B1
:10567000BC83B4F952000AEB81020BEB8103BD42FB
:1056800004DCF04FB7F90070BD4205DA824203DD59
:10569000834201DA88F80060EB4DE146BCF908C0AE
:1056A000B5F90050E24FBCEB450F03DC6D42BCEB9B
:1056B000450F04DA824202DD834200DA3E706FF069
:1056C000090202EB81017546814221D194F8220042
:1056D000F0B998F8000001281AD13878012817D1BC
:1056E0004FF4EF7010F0CAF8D849B1F900108842B1
:1056F0000ED0D748008858B199F83D00C00707D1AF
:105700004FF4EF7010F0AEF9D2480178491C0170E7
:10571000C949B9F902204846B1F900108A4206DCAD
:10572000C849B0F94E20B1F900108A420FDAB5F934
:105730000010B4F95220C1EB01110AEB810393422E
:1057400005DD0BEB8101914201DA88F80160BE4969
:10575000B9F95400B1F90010B0EB410F03DC494234
:10576000B0EB410F0EDAB5F90000B4F95210C0EBFE
:1057700000100AEB80028A4204DD0BEB80008842B5
:1057800000DA7E70B5F90000C0EB00116FF009007F
:1057900000EB8100B4F95210884223D194F8220022
:1057A00000BB98F8010001281CD17878012819D194
:1057B0004FF4FE76304610F061F80246A348B0F987
:1057C00002108A420ED0A248008802280AD199F815
:1057D0008900C00706D1304610F044F99D48017891
:1057E000491C0170B5F900006FF00101C0EB001019
:1057F00001EB8000B4F95210884202D1BDE8F05F9D
:1058000018E739E62DE9F0039348944ADFF850C2CF
:1058100000784FF000084FF00109F0B3914861465D
:10582000B0F900609048B1F90010B0F900708F48ED
:10583000BE42B0F900308E48B0F900408D48B0F952
:1058400000508D48B0F9000013DA834203DB844234
:1058500001DB85420DDA8948B0F90000814219DA8E
:10586000491C09B2ACF80010814213D182F80080C3
:1058700015E0834FB7F90070BE420BDD834209DDAE
:10588000844207DD854205DD21B1491E08B2ACF82E
:10589000000060B11078002800E00DE009D1BDE8FB
:1058A000F0030F2301226E21D220FAF769BC82F89F
:1058B0000090BDE8F0037047ACF80080F7E7F0B562
:1058C000684800246F4BB0F900206748B0F90050D9
:1058D0006D48AA42B0F9001004DC694EB6F90060C8
:1058E000B2420CDA654AB2F9002091421ADA491C38
:1058F00009B20180914215DB1C70028015E0634FF4
:10590000B7F900703E4496420CDAED1B954209DD72
:1059100041B1491E09B20180002903DC012119703F
:105920000480F0BD18780028FBD159490A2008707E
:10593000F0BD38B5574C6078401C6070564801780F
:1059400039B1002101700A2001F0D2FE0A206070F6
:1059500038BD142161705149394AB1F9001092F8EB
:105960002220114309D04FF4FA6000904CA352A2B8
:1059700057A15DA0FBF701FE38BD02210170BDE813
:105980003840012001F0B4BE2DE9F0412C4C5C4DB3
:10599000273400262078607004F82769B5F90000E4
:1059A000002802DDB0F5FA7FACE0ACE0534B2023D9
:1059B0003120416C61726D00534B20233220416CC9
:1059C00061726D00534B20233320416C61726D0076
:1059D000534B20233420416C61726D00534B2023C4
:1059E0003120416C61726D206973206F6666000022
:1059F000534B20233220416C61726D206973206FFC
:105A000066660000534B20233320416C61726D2089
:105A10006973206F66660000534B20233420416C6D
:105A200061726D206973206F6666000020010010AE
:105A3000FAC407200C390010EEC40720C6C10720A5
:105A400008C007201C010010B8C1072084C207202D
:105A5000DAC10720220100109E000010670000102C
:105A60004A01001042C207209A0000100A010010EB
:105A7000DEC407200C010010B2C1072064C4072057
:105A800066C4072039C4072022C507209C000010E7
:105A9000EBC007205E010010EDC0072034C50720D1
:105AA00020202020202020202020202020202020F6
:105AB000202020200000000020202020E7E0E1EB53
:105AC000EEEAE8F0EEE2E0ED212020200000000008
:105AD00020202020202020E7E0F0FFE420202020CC
