:020000040000FA
:10000000507E0010E1000000E5000000E700000065
:10001000E9000000EB000000ED000000000000001F
:10002000000000000000000000000000EF000000E1
:10003000F100000000000000F3000000FF3E02009D
:10004000F7000000F16B02001D6C0200F7000000D9
:10005000F7000000119A0200F7000000F70000000E
:10006000F7000000F7000000F7000000F7000000B4
:10007000F7000000F7000000F7000000F7000000A4
:10008000F7000000F7000000F7000000F700000094
:10009000F7000000F700000049620000F7000000D0
:1000A000F7000000D7970200F7000000F7000000FB
:1000B00015B90200F7000000F7000000F70000008B
:1000C000F7000000F7000000F7000000DFF80CD098
:1000D0002BF0A8FC00480047B1400200507E001001
:1000E00005480047FEE7FEE7FEE7FEE7FEE7FEE71E
:1000F000FEE7FEE7FEE7FEE7CD000000FEE710B5F5
:100100002CF06CF92CF0C8F92CF0BAF9AFF30080A0
:10011000BDE810402CF086B910B52CF047FF2DF04B
:10012000FBFABDE810402CF099BF2CF0ADBE2CF0CE
:1001300075BC09B1002070472CF078B800207047DA
:1001400070B5374A0020A2F11401064601F10A03F6
:100150000C5C54B11D5CAC4207D1145C2CB1641E24
:1001600014F0FF04145400D10E540C5C1C54401CB9
:10017000C0B20A28ECD370BD70B5294D0024143DDF
:10018000641CE4B22E5D1EB1864201D00A2CF7D366
:10019000285523480C3040F82410283040F82420FB
:1001A0003438035570BD1E4A0021143A491CC9B2A7
:1001B000535C834201D00A29F8D3DBB2834210D1C9
:1001C00017480C3050F8213016480360144B343374
:1001D00053F82130436000205054114A50540120FC
:1001E0007047002070470E4A0021143A491CC9B2DA
:1001F000535C834201D00A29F8D3DAB282420CD18F
:1002000007480C3050F8212006480260044A343276
:1002100052F8211041600120704700207047000013
:1002200030F8072004C007200C4BDA6018705970B2
:1002300070470A4A116190707047084908817047F9
:100240000648B0F90810002907D0491E09B20181FB
:10025000002902D1084601F06AB87047BC000010BE
:1002600090F900308B4200DA027090F9003093422E
:1002700000DD0170704790F900308B4200DA0170A8
:1002800090F90010914200DD02707047B0F9003023
:100290008B4200DA0180B0F90010914200DD02804B
:1002A0007047B0F900308B4200DA0280B0F90030BC
:1002B000934200DD01807047FE21C0B22BF09EBB4F
:1002C0008021C0B22BF09ABB1C21C0B22BF096BB90
:1002D0007021C0B22BF092BB40EA01039B0703D010
:1002E00009E008C9121F08C0042AFAD203E011F875
:1002F000013B00F8013B521EF9D27047FFFFFFFFA0
:10030000002801DA404200B270470020FF4A202155
:100310001154401CC0B2C828FAD370470146FB4AAA
:100320000020401CC0B2135C8B4201D0C828F8D317
:10033000704710B50021F64C0A2200BFB0FBF2F363
:1003400002FB13006054491CC9B218460529F5D3B5
:1003500010BDF0B5EF4B0121202719700521EC4AA3
:10036000002601E01C7844B1541814F8015C25B94A
:10037000814202D904F8017C05E0541814F8015DAB
:10038000303525701E70491E11F0FF01EAD1F0BD15
:10039000FEB52B23002802DA404200B22D230025AF
:1003A0000A266C4690FBF6F706FB170060556D1C9D
:1003B0006DB238B20A2DF5DB012600250920202771
:1003C00000E046B114F800C0BCF1000F03D1904228
:1003D00001DD275405E0265C3036265400266D1CCE
:1003E000EDB2401E40B20028EBDA2D2B02D163554E
:1003F0006D1CEDB26AB168B205E0231813F8013C38
:100400002354401E40B29042F7DC2E206D1CA054B5
:10041000EDB20846FFF782FF0021BC4A04E0635CAE
:10042000461A491C935549B2A942F8DBFEBDFEB5F8
:100430002B23002801DA40422D2300250A266C4692
:10044000074690FBF6F006FB107767556D1C6DB202
:100450000A2DF5DB012600250920202700E046B102
:1004600014F800C0BCF1000F03D1904201DD275405
:1004700005E0265C3036265400266D1CEDB2401E89
:1004800040B20028EBDA2D2B02D163556D1CEDB282
:100490006AB168B205E0231813F8013C2354401EEA
:1004A00040B29042F7DC2E206D1CA054EDB20846FD
:1004B000FFF734FF0021954A04E0635C461A491CAB
:1004C000935549B2A942F8DBFEBDFEB52B260028A4
:1004D00001DA40422D2600240A276D46844690FB0F
:1004E000F7F007FB10CC05F804C0641C64B20A2CBA
:1004F000F4DB0127002009244FF0200C00E04FB16D
:1005000015F804E0BEF1000F04D19C4202DD05F8AD
:1005100004C005E02F5D30372F550027401CC0B2C6
:10052000641E64B2002CEADA2D2E02D12E54401C37
:10053000C0B26BB144B205E02E1916F8016C2E550D
:10054000641E64B29C42F7DC2E24401CEC54C0B202
:1005500001EB810102EB8101CAB200216B4B04E087
:100560006C5C561A491C9C5549B28142F8DBFEBDB1
:1005700070B50D4616461C46FFF7DBFE601CC0B288
:10058000FFF7E7FE05EB850006EB8000C1B2604A8D
:100590005E4B0020A04201D2155C5D5406D3155C71
:1005A000202D03D04CB15E1806F8015C491E401C9A
:1005B000C0B2C9B20528EDD370BD5D54F6E730B5C1
:1005C000044608461546FFF7A9FEFF2809D04F4A02
:1005D0002178002905D04319641C401CD154C0B2B5
:1005E000F6E730BD70B50D461446FFF7A2FE601C5D
:1005F000C0B2FFF7AEFE2846FFF790FE444B434AD9
:10060000002124B95D5C202D01D015540FE0A142DA
:1006100001D25D5CF9E704D14FF02E0515545D5C05
:1006200002E05D5C202D02D0161806F8015C401E29
:10063000491CC9B2C0B20529E3D370BD801801D5E9
:10064000084402E0884200DB401AC0B270472DE93E
:10065000FE4F04460D464FF4606026F0BFFF624235
:100660004021FFF7EBFF400100F58060044602A93E
:1006700027F031F8694604F1080027F02CF801A9A9
:1006800004F10C0027F027F82846FFF747FE06463E
:100690009DF8080040273025DFF870B020244FF087
:1006A000210C4FF0230A552838D04FF0CF084FF0D7
:1006B000D10950287ED0E22351287CD042287BD01B
:1006C00053287AD0492879D1C0210BF80610761C1E
:1006D000F1B2C2220BF80120491CC9B22E220BF83C
:1006E0000120491CC9B2C8220BF80120491C5846F8
:1006F000C9B2ED224254491CC9B24354491C9DF869
:100700000920C9B2092A7DD2313205E07EC2072014
:10071000DAC30720080100104254FDE39DF80A00E7
:1007200052280ED1C2210BF80610761CF1B2EA2233
:100730000BF80120491CC9B2EB220BF80120491C1F
:10074000CEB258460BF80640761CF1B20BF80140C9
:100750005BE04554491CC9B23A2200F801C0491C6B
:10076000C9B24254491CC9B24554491CC9B2475484
:10077000491CC9B24254491CC9B24554491CC9B2AA
:100780000BF801A0F2E34454491CC9B24554491C7A
:10079000C9B200F801C0491CC9B24754491CC9B2CA
:1007A0004454491CC9B24454491CC9B24554491C5B
:1007B000C9B204E011E031E067E0B3E30BE00BF80D
:1007C00001A0FEE39DF80110FF48002200EB81002C
:1007D0004021FFF7F4FEBDE8FE8FC0210BF80610A4
:1007E000761CF1B2C2220BF80120491CC9B22E229C
:1007F0000BF80120491CC9B258460BF80180491C6E
:10080000C9B200E0FBE30BF80190491CC9B24454A3
:10081000491CC9B24454491CC9B26AE3C0210BF84F
:100820000610761CF1B2C2220BF80120491CC9B295
:100830002E220BF80120491CC9B255220BF80120C9
:10084000491CC9B258460BF80130491CC9B2FB22F9
:100850004254491CC9B2F5224254491CC9B2DB4E6C
:100860004454491C9DF80020B38FC9B29A428AD1E2
:100870009DF8012096F838309A4284D19DF80220E4
:1008800096F82C309A42F2D163E79DF80A004FF0B7
:10089000E00943287ED1C0210BF80610761CF1B286
:1008A000C2220BF80120491CC9B22E220BF80120EC
:1008B000491CC9B2C1220BF80120491CC9B2F2225D
:1008C0000BF80190491CC9B20BF80120491C9DF896
:1008D0000900C9B2092809D231300BF80100491CBE
:1008E000C8B20BF80040401CC0B214E0A0F10902ED
:1008F0005A2A15D2401C0A23B0FBF3F2904630323C
:100900000BF80120491C03FB1800C9B230300BF86A
:100910000100491CC8B20BF80040401CC1B20BE0FA
:100920000BF80140491CC9B20BF80140491CC9B27F
:100930000BF80140491CC9B2A4489DF80020838FE0
:100940009A4240D19DF8012090F838309A423AD12D
:100950009DF8022090F82C00824234D10BF801500F
:10096000491CC9B23A220BF801C0491CC9B2584609
:100970000BF80120491CC9B20BF80150491CC9B23F
:100980000BF80170491CC9B24254491CC9B2455404
:10099000491C00E054E0C9B200220BF801A0491C38
:1009A000CEB29DF804002121FFF71CFE9DF8050042
:1009B00000224021FFF716FE9DF8060000222321A9
:1009C000FFF710FE3CE00BF80140491CC9B2584645
:1009D0000BF80150491CC9B200220BF801C0491C98
:1009E000C9B20BF80170491CC9B20BF80140491C8F
:1009F000C9B20BF80140491CC9B24554491CC9B2DF
:100A00000BF801A0491CCEB29DF802002121FFF78E
:100A1000E9FD9DF8000000222321FFF7E3FD9DF88A
:100A20000100401E0C2802D301208DF801009DF822
:100A300001106548002200EB81004021FFF7BFFD57
:100A40009DF80A0053287AD1C0220BF80620761CA4
:100A5000F1B2C2230BF80130491CC9B22E230BF8A6
:100A60000130491CC9B2C1230BF80130491CC9B27D
:100A700058460BF80190491CC9B2F2234354491C53
:100A80009DF809304326C9B2092B08D231334354AB
:100A9000491CC9B24254491CC9B246540EE0093B34
:100AA0005A2B04D24254491CC9B2465403E0445460
:100AB000491CC9B24454491CC9B24454434E491C50
:100AC0009DF80020B38FC9B29A4239D19DF8012018
:100AD00096F838309A4233D19DF8022096F82C309F
:100AE0009A422DD14554491CC9B23A2200F801C09E
:100AF000491CC9B24254491CC9B24554491CC9B227
:100B00004754491CC9B24254491CC9B20022455439
:100B1000491CC9B20BF801A0491CCEB29DF80400D3
:100B20002121FFF75FFD9DF8050000224021FFF71E
:100B300059FD9DF8060000222321FFF753FD36E002
:100B40004454491CC9B200224554491CC9B200F89A
:100B500001C0491CC9B24754491CC9B24454491C7C
:100B6000C9B24454491CC9B24554491CC9B20BF816
:100B700001A0491CCEB29DF802002121FFF732FDF1
:100B80009DF8000000222321FFF72CFD9DF80100B5
:100B9000401E0C2802D301208DF801009DF80110A1
:100BA0000948002200EB81004021FFF708FD9DF875
:100BB0000A005A2861D1C2210BF80610761C58464B
:100BC000F1B2C72204E0000090E4020000400240BD
:100BD0000BF80120491CC9B20BF80140491CC9B2ED
:100BE0000BF80140491CC9B20BF80140491CC9B2BD
:100BF0004454491CC9B24454491C9DF80020C9B250
:100C0000FF4EB38F9A4239D19DF8012096F83830C3
:100C10009A4233D19DF8022096F82C309A422DD179
:100C20004554491CC9B23A2200F801C0491CC9B256
:100C30004254491CC9B24554491CC9B24754491CC5
:100C4000C9B24254491CC9B200224554491CC9B218
:100C50000BF801A0491CCEB29DF804002121FFF73A
:100C6000C1FC9DF8050000224021FFF7BBFC9DF868
:100C7000060000222321FFF7B5FC36E04454491C4E
:100C8000C9B200224554491CC9B200F801C0491C30
:100C9000C9B24754491CC9B24454491CC9B244544E
:100CA000491CC9B24554491CC9B20BF801A0491CE2
:100CB000CEB29DF802002121FFF794FC9DF80000C0
:100CC00000222321FFF78EFC9DF80100401E0C2816
:100CD00002D301208DF801009DF80110C9480022BF
:100CE00000EB81004021FFF76AFC9DF80A005728BD
:100CF0007CD1C1210BF80610761CF1B2F2220BF860
:100D00000190491CC9B258460BF80120491CCEB2CB
:100D10009DF809104FF0F00E092906D231318155A6
:100D2000761CF1B200F801E019E0A1F109025A2A9B
:100D300011D2491C0A23B1FBF3F29046303282559E
:100D4000761C03FB1811F6B230318155761CF1B2D6
:100D500000F801E006E08455761CF1B24454491CC9
:100D6000C9B24454491CC9B2A54E4454491C9DF80B
:100D70000020B38FC9B29A4239D19DF8012096F86C
:100D800038309A4233D19DF8022096F82C309A429E
:100D90002DD14554491CC9B23A2200F801C0491C62
:100DA000C9B24254491CC9B24554491CC9B247543E
:100DB000491CC9B24254491CC9B200224554491CBD
:100DC000C9B20BF801A0491CCEB29DF80400212144
:100DD000FFF708FC9DF8050000224021FFF702FC08
:100DE0009DF8060000222321FFF7FCFB36E0445467
:100DF000491CC9B200224554491CC9B200F801C0BF
:100E0000491CC9B24754491CC9B24454491CC9B20F
:100E10004454491CC9B24554491CC9B20BF801A03D
:100E2000491CCEB29DF802002121FFF7DBFB9DF8A3
:100E3000000000222321FFF7D5FB9DF80100401E92
:100E40000C2802D301208DF801009DF801106D4897
:100E5000002200EB81004021FFF7B1FB9DF80A0062
:100E60004B287FF4B8ACC1210BF80610761CF1B208
:100E7000F2220BF80190491CC9B20BF80120491C61
:100E80009DF80900C9B209280BD231300BF80100D6
:100E9000491CC8B2EA210BF80010401CC0B2E52181
:100EA00015E0A0F109025A2A16D2401C0A23B0FB11
:100EB000F3F2904630320BF80120491C03FB180076
:100EC000C9B230300BF80100491CC8B2EA210BF856
:100ED0000010401CC1B20BE00BF80140491CC9B224
:100EE0000BF80140491CC9B20BF80140491CC9B2BA
:100EF0005846434A4454491C9DF80030968FC9B265
:100F0000B3427FF440AC9DF8013092F83860B342B0
:100F1000F7D19DF8023000E0CFE092F82C20934208
:100F2000EFD116E4C0210BF80610761CF1B2C222F4
:100F30000BF80120491CC9B22E220BF80120491CD4
:100F4000C9B2C1220BF80120491CC9B25B460BF89B
:100F50000180491CC9B20BF80190491C9DF8096039
:100F6000C8B2092E03D231361E5414E04FE0A6F168
:100F700009015A290ED2761C4FF00A08B6FBF8F187
:100F800001F130021A54401C08FB1161C0B230312B
:100F9000195403E01C54401CC0B21C54401CC1B284
:100FA000174A5C541846491C9DF80030968FC9B208
:100FB000B34240D19DF8013092F83860B3423AD143
:100FC00000E050E09DF8023092F82C20934232D19C
:100FD0004554491CC9B23A2200F801C0491CC9B2A3
:100FE0004254491CC9B24554491CC9B24754491C12
:100FF000C9B24254491CC9B24554491C04E049E0F5
:101000000040024090E40200C9B200F801A09DF83F
:10101000040000222121FFF7E5FA9DF805000022D7
:101020004021FFF7DFFA9DF8060000222321FFF799
:10103000D9FABDE8FE8F4454491CC9B24554491C35
:10104000C9B200F801C0491CC9B24754491CC9B211
:101050004454491CC9B24454491CC9B24554491CA2
:10106000C9B200F801A09DF8020000222121FFF77B
:10107000B9FA9DF8000000222321FFF7B3FA9DF88A
:101080000100401E0C28FFF49DAB01208DF80100EB
:10109000FFF798BBA2F109035A2B0DD2521C0A2567
:1010A000B2FBF5F303F130064654491C05FB13224D
:1010B000C9B23032425403E04454491CC9B24454CA
:1010C000491CC9B20BF80140B3E770B504460846A5
:1010D00015461E46FFF722F9FF4B0146FF2804D1B3
:1010E00006E01A54641C401CC0B22278002AF8D1D1
:1010F000FA480078002804D0002E02D029445F204E
:10110000585470BD2DE9FF4F8146DDE90D048A4634
:101110009346FFF703F92022DFF8C083EE490A2344
:101120004FF0640C012C09D198F8005035B10D181E
:10113000A5F10E05AA706A702A7020E099FBF3F6FB
:1011400003FB16970D183037A5F10E05022CAF7072
:1011500096FBF3F703FB176606F130066E7099FBFA
:10116000FCF606F1300605F80E6B08D198F8006021
:101170002EB1A5F10A05AA706A702A7021E09AFBC7
:10118000F3F603FB16A70D183037A5F10A05032C5B
:10119000AF7096FBF3F703FB176606F130066E702F
:1011A0009AFBFCF606F13006674605F80A6B08D193
:1011B00098F800602EB1A5F10605AA706A702A7031
:1011C00022E09BFBF3F603FB16B70D183037A5F1B1
:1011D0000605042CAF7096FBF3F703FB176606F1C8
:1011E00030066E709BFBFCF606F13006674605F88C
:1011F000066B09D198F8004034B1A5F102050A54F4
:101200006A702A70BDE8FF8F039C94FBF3F203FB26
:10121000124430340C5492FBF3F403FB14220844C0
:10122000A0F1020030324270039991FBF7F101F115
:1012300030010170E6E717B501EB810002EB800099
:10124000C2B29DF80030A64803F00F0100EB131363
:10125000445CA1498C54521ED2B21B788B549DF829
:101260000130521E03F00F04D2B2045D8C54521EA2
:1012700000EB1313D2B21B788B549DF80230521E30
:1012800003F00F04D2B2045D8C54521E00EB131312
:10129000D2B21B788B549DF80330521E03F00F041A
:1012A000D2B2045D8C54521E00EB1310D2B20078FF
:1012B00088541EBD30B58B490123874D91F901201B
:1012C00091F9041000EB80048A4202D105F8243021
:1012D00030BD814D4C1C00EB800005EB8000A2422C
:1012E00001D1037530BD8C1CA24202D180F8283098
:1012F00030BDCC1CA24202D180F83C3030BD0C1D68
:10130000A24202D180F8503030BD4C1DA24202D121
:1013100080F8643030BD8C1DA24202D180F8783054
:1013200030BDC91D8A42FBD180F88C3030BD6E4B78
:101330001A88521E104400B218806C4A00EB8000DC
:1013400002446848136803601279027142781144BC
:1013500041707047F0B5644D644FB5F9004004EB3F
:101360008406641C2C805F4C3E44256835602579DA
:101370003571207061702271A370F0BDF0B5054623
:101380000E461746FEF7C1FF534C0020401C15F8CF
:10139000011BC0B204F8011B1428F7D35FF0000052
:1013A000401C16F8011BC0B204F8011B1428F7D327
:1013B0005FF00000401C17F8011BC0B204F8011BCD
:1013C0001428F7D35FF00000401C13F8011BC0B2D3
:1013D00004F8011B1428F7D3F0BD10B5029CFFF7E9
:1013E000CDFF4048C378827841789E20FFF7B2FF56
:1013F000642094FBF0F0BDE81040C0B2FEF71DBFC2
:101400002DE9FE4340010D4600F58060044602A927
:1014100026F061F9694604F1080026F05CF901A99B
:1014200004F10C0026F057F92846FEF777FF2A4C06
:10143000202530262554401CC0B24FF021082654E8
:10144000401CC0B24FF0400C04F80080401CC0B2F9
:10145000232104F800C0401CC0B200222554401CC7
:10146000C0B22554401CC0B22654401CC0B2215406
:10147000401CC7B29DF802002121FFF7B3F89DF888
:10148000000000222321FFF7ADF89DF80100401E67
:101490000C2802D301208DF801009DF801001449A9
:1014A000002201EB80004021FFF789F8E5557F1C01
:1014B000F8B23A212654401CC0B204F80080401C07
:1014C000C0B22154401CC0B22654401CC0B204F823
:1014D00000C0401CC6B20DE07EC207204CC00720F1
:1014E00026E5020004C2072072C00720EC6200104B
:1014F00090E402009DF8040000222121FFF772F819
:101500009DF8050000224021FFF76CF8A555BDE8C5
:10151000FE8300002DE9FF41FB4C0027054627779D
:10152000207E0121022805D0F84A525D552A04D0B8
:1015300065200EE02177BDE8FF8105EB450202EB57
:101540000513F34A02EB830696F83D20D30702D039
:1015500066202077EFE796F83F309B0701D567209C
:10156000F7E7920701D56820F3E7EA4AB6F90830B1
:10157000B2F90020934201DD6920EAE7524293422A
:1015800001DA6A20E5E7012804D1607E00287ED0D8
:1015900001287DD0642020772176A4F85A104FF4DA
:1015A000F87026F00FF965762946A4F85C504FF4E0
:1015B000FA7026F007F9D848B761002130F9150014
:1015C00026F000F9A776A4F85E7039464FF4FB7058
:1015D00026F0F8F8D148D24D0088401C00F00700F2
:1015E00006EB4000008CADF80000A88B8DF80400DD
:1015F0004FF063024FF0010101A8FEF73CFEC24C20
:101600009DF804009C342070287E8DF804000C2284
:10161000012101A8FEF72FFE9DF804006070287BD1
:101620008DF804001F22012101A8FEF724FE9DF879
:101630000400A0709DF80000E0704FF4FC70216879
:1016400026F0FBF8287A8DF804001722002101A863
:10165000FEF711FE9DF80400207128798DF8040032
:101660003B22002101A8FEF706FE9DF804006071F0
:1016700028788DF804003B22002101A8FEF7FBFD2D
:101680009DF80400A0719DF80100E07101E006E002
:1016900007E04FF4FE70616826F0CFF84BE76B204F
:1016A00057E76C2055E72DE9F047974C207E01283D
:1016B0007ED120460127407EA17EC0F1010207FABB
:1016C00002F0954E924D02B211B1012933D037E0AC
:1016D0001423CA21C820FEF74FFD14234FF0FF3218
:1016E000CE21CD20FEF748FD607E00EB400101EBEE
:1016F000001005EB8000B0F90800FEF701FE617EE6
:1017000001EB410202EB011205EB820293691844DE
:1017100048F6A0439061984212DBC01A906136F8F7
:10172000110025F05BFF401C01B2607E36F910000D
:1017300026F048F804E01423CA21C820FEF71CFD57
:10174000607EA84600EB400101EB001205EB820130
:10175000744AB1F902100025B2F900204FF4F8796B
:1017600002EB8202B1EB420F42DAB4F85610491C88
:1017700009B2A4F856101E293CDB217E012921D193
:10178000A17EF9B936F8100025F028FF01B26648AD
:10179000627E30F9120026F015F8607E36F81000EF
:1017A00025F01CFF81B2607E04F056FB5F4800E02C
:1017B00041E0617E30F91100002126F003F832206B
:1017C00020846084607E5149C0F10100085C552886
:1017D00007D02576A4F85A500021484625F0F2FF9C
:1017E00008E0A776A4F85E7001214FF4FB70F5E7DE
:1017F000A4F85650617E01EB410000EB0112C1F1EB
:10180000010101EB410303EB011108EB820208EB3C
:101810008100B2F90220B0F9020082420BDBA07E07
:10182000012808D12576A4F85A504846BDE8F0476B
:10183000002125F0C7BFBDE8F08770B5324C0546E2
:101840000026207EF8B904F11C04022104F8041CCF
:10185000E1874FF4F87025F0B5FFC5EB0510810066
:10186000E5860D46A1874FF4F97025F0ABFF2946B8
:101870004FF4FF7025F0A6FF002020876086012628
:10188000304604F0ABFB304670BD10B51E4C207ED8
:10189000022812D104F11804608F04F09FFB00208D
:1018A000E0866087A0872070A4F842000146BDE86A
:1018B00010404FF4F87025F085BF10BD70B5184C7E
:1018C000203C94F838001A4D297808440C2803D994
:1018D000A08F401C01B201E0B4F93C10B82025F003
:1018E00071FF94F83810287801440C2994F83810C6
:1018F00000D90C380144B62025F064FF94F82C0080
:101900001C2817D91C2117E010000010F8C0072070
:101910008CF8072096C0072002DE0200D4C30720FF
:101920002040024090C007201EDE0200FEDD0200C3
:1019300055C0072094F82C10B42025F043FF04F183
:101940002004217A4FF0AE0025F03CFF2179B02031
:1019500025F038FF2178BDE87040B22025F032BF75
:1019600010B5FA48FA4C007830B3FA48818FFA4A39
:101970001288914220D190F83810F84A128891428A
:101980001AD190F82C10F64A1288914214D190F88E
:101990002810F44A128891420ED190F82410F24A8D
:1019A0001288914208D190F82000F04909888842B5
:1019B00002D10120E07602E0E07E00280BD0EC4866
:1019C0000088C0B2FFF739FF002804D00020E0767D
:1019D000BDE8104072E710BD70B5DD4C207E0228D6
:1019E0003FD1B4F850004FF461610025884212D213
:1019F000401C80B2A4F8500088420CD3A4F8505088
:101A0000B4F8520038B1401E24F8520F6088401CD0
:101A10006080A4F15204B4F84E003C2821D2401C4E
:101A200080B2A4F84E003C281BD324F84E5F608996
:101A3000401E01B261814FF4F97025F0C3FE608948
:101A4000A4F14E0400280CD125760146A4F85A5082
:101A50004FF4F87025F0B6FEBDE87040002004F0A9
:101A6000BDBA70BDC3486FF03B010088C0EB0010E9
:101A700001EB8000B649A1F8420070472DE9F05F04
:101A8000DFF8CC92BB480026B9F84210BA4F491C87
:101A900009B2A9F84210B0F90000B84DC0EB00122D
:101AA0004FF0010B09F148044FF00A08B1EB820F27
:101AB00054DBF0B3B2480088D8BBA9F84260267066
:101AC000DFF8C0A2667089F812609AF80000552805
:101AD00011D1B5F9020050280DDDB5F90800FEF767
:101AE0000FFCB7F90010884203DB95F83D00C007F2
:101AF00001D084F800B09AF80100552811D1B5F949
:101B00004E0050280DDDB5F95400FEF7F9FBB7F98A
:101B10000010884203DB95F88900C00701D084F8E3
:101B200001B09948007848B999F81310484629B18E
:101B300000E013E0017E31B1022904D02670667006
:101B400089F8126008E0217801291DD06178012907
:101B50001AD0817C012917D0A9F844604846B9F908
:101B60004410DFF8EC91DFF824A209F16609F1B323
:101B700083460246491E08B2A2F84400052806DD45
:101B80000F231E22642107E0A9F84480E6E700281D
:101B90001BDD0F231E226921E120FEF7EDFABBF8C1
:101BA0004400052811D1B5F90800FEF7A9FBA9F8F2
:101BB0000000B5F95400FEF7A3FBA9F80200BAF93A
:101BC0000000FEF79DFBABF826006148B0F844002A
:101BD000002841D1AB46B5F90800FEF791FB5C4DFA
:101BE0006A352880BBF95400FEF78AFB00E038E034
:101BF0006880BAF90000FEF783FBDFF854A1AAF869
:101C00002800AAF84660B9F90000B5F900100844A8
:101C1000B7F90010884202DA2078012817D0BBF902
:101C20000200C82804DD00212670084603F0F0FDFC
:101C3000B9F90200B5F902100844B7F9001088425A
:101C400002DA6078012805D0BBF94E007AE0AAF8E4
:101C50004680EDE7AAF84680BDE8F09F6670002157
:101C600008E1B0F94610E9B380460246491E08B2C1
:101C7000A2F84600052803DD0F23C822642104E0F2
:101C800000281BDD0F23C8226921E120FEF774FA2A
:101C9000B8F84600052811D1B5F90800FEF730FB69
:101CA000A9F80000B5F95400FEF72AFBA9F80200D4
:101CB000BAF90000FEF724FBA8F826002448B0F883
:101CC00046000028C8D1DFF8B480B8F90800FEF754
:101CD00017FB1F4D6A352880B8F95400FEF710FB3A
:101CE000688000E05AE0BAF90000FEF709FBDFF86F
:101CF0006080A8F8280088F81160B9F90000B5F9EB
:101D000000100844B7F90010884202DA2078012850
:101D10003ED01A48B0F90200C82804DD0021267020
:101D2000084603F075FDB9F90200B5F90210084440
:101D3000B7F90010884202DA607801282BD00F48EA
:101D4000B0F94E00C82889DC86E7000055C007209E
:101D5000100000100040024006C1072004C1072007
:101D600002C10720FCC00720FEC0072000C10720D9
:101D700008C10720A6C0072096C007208CF80720BE
:101D8000D4C00720F8C007205CC007205EC1072030
:101D900088F811B0C7E788F811B05DE78146407C4C
:101DA0000028D1D00F2300226E21E120FEF7E4F9B4
:101DB000B5F90800FEF7A4FAB7F90010884207DD6C
:101DC0002078012804D100212670084603F020FD68
:101DD000B5F95400FEF794FAB7F90010884206DD11
:101DE0006078012803D16670002103F011FD20788E
:101DF00030B9607820B999F8121009B989F81160E2
:101E0000E620FEF7D0F918B1FB480068E7280AD0B1
:101E1000FA48FB49B0F90000B1F9001000EB80006E
:101E2000B1EB400F90DA89F811602078F54E012867
:101E30000FD1B7F90000410091FBF8F0B6F900109E
:101E4000884206DA95F83D00C00702D1012103F06F
:101E5000DFFC60780128A0D1B7F90000410091FBB8
:101E6000F8F0B6F90010884297DA95F88900C007B3
:101E700093D10121BDE8F05F012003F0C9BC2DE939
:101E8000F047E14CB4F84000401C00B2A4F8400018
:101E9000B0F5E16F03DB0020A4F84000CBE4B0F51F
:101EA000DF6F11D90F2301226421D220FEF764F9DC
:101EB0000F230022D821D720FEF75EF90F2300223E
:101EC000D821DC20FEF758F9B4F94000A0F5E06114
:101ED0000739E3D1CD4FCE4CCE4D388821880A2624
:101EE000DFF83483DFF83493884210D0B5F9080066
:101EF00090FBF6F000B2FEF703FAB8F90010884242
:101F000005DAB4F90010B9F9000025F05BFC788817
:101F100061888842C2D0B5F9080090FBF6F000B2A3
:101F2000FEF7EEF9B8F900108842B7DAB4F90210FA
:101F3000B9F90200BDE8F04725F044BC10B5B84C33
:101F4000082200212088401C20802046FEF7A9F9A5
:101F5000B048B4F9001000EB410142880A84B0F89F
:101F60004E00A1F86C0010BD70B5AF48AD4DB0F992
:101F70000030AE48B5F9002090F900109A421BDA03
:101F8000AB4C0A290EDAAB4BB3F900300F2B0BDD4B
:101F9000491C49B201700A2906DB2280012002F0A7
:101FA00075FF01E00A210170B5F90000B4F90010D5
:101FB000884200DA208070BDFDDD0029FBD0491E7B
:101FC00049B201700029F6DCBDE87040002002F043
:101FD0005DBF2DE9F84F8C4897499B4C808DB1F936
:101FE0000010984F484395498A4D90FBF1F08D4978
:101FF0004FF4FA6608809248B4F90020B7F900104F
:10200000B0F908305A434FF42F7392FBF3F2AA80D1
:10201000B0F91820B7F90270574397FBF6F2A5F80C
:102020004E20B0F90270B4F902207A4392FBF3F229
:10203000A5F85020B0F90400414391FBF6F0688008
:10204000DC20FEF7D0F8F0BB714BDFF8C0A1DFF861
:10205000FCB11888BAF8001045F6386E401ABBF982
:10206000001045F69264414379484FF4967745F263
:102070001362008845F2116C4FF47A79704501D0F3
:10208000A04202D191FBF7F10DE0A0F5A848B8F508
:10209000FD7803D0904201D0604502D191FBF6F16A
:1020A00001E091FBF9F101EBD1714910494229811D
:1020B0005988BAF80230CB1ABBF90210594370455F
:1020C00003D0A04200E012E002D191FBF7F00CE057
:1020D000A0F5AA43FA3B03D0904201D0604502D15B
:1020E00091FBF6F001E091FBF9F0A5F85400544A99
:1020F00040F6B73C0124B2F90C0000210346A0F2DF
:1021000021308146604501D2297300E02C7351488B
:10211000924644F62062B0F90070E3465F4397FBB5
:10212000F2F7A7F211176F81BAF90E70A7F22138F2
:10213000CDF80080D84502D285F8581001E085F826
:102140005840B0F90200334D784390FBF2F0A0F212
:102150001110A5F85600404DBAF90400D846B5F95B
:102160000050684390FBF6F0254D2880BAF90A50DC
:102170003A48A5F221365E4501D2016000E00460D4
:10218000DFF8DCB0DFF8DCC0BBF90060B6466E43B8
:1021900096FBF2F5A5F21115ACF80050BAF91450FF
:1021A000A5F22136464501D2416000E04460BBF90A
:1021B0000260B2466E4396FBF2F5A5F21115ACF83B
:1021C00002501F4DB5F90650A5F22136464501D201
:1021D000816000E08460BBF904606E4396FBF2F519
:1021E000A5F211152DB2ACF80450009EAB46464541
:1021F0003AD2016039E0000004C0072090C00720F7
:1022000060C1072062C1072010000010AEC3072084
:102210005AF107208CF807209EC007202ADE020012
:10222000D4C307206CC1072092C00720DFC307205A
:102230000A01001070C00720DE000010B0AD0100E0
:10224000DCF70720D2000010D6000010DA000010E2
:10225000FAC00720B2C30720BCC307209C10082087
:10226000E00000103EC2072004600EFB07F696FB5C
:10227000F2F6A6F21116ACF80060C14501D2416039
:1022800000E044600AFB03F595FBF2F2A2F21112A2
:102290000FFA82F8ACF80280FF4D2B88FF4F4FF405
:1022A0007A6CB7F900205A4392FBFCF2FC4B92B2D5
:1022B0001A80FC4E642A01D3FB4A128832806A8855
:1022C000B7F9025008F21118554395FBFCF25A80F9
:1022D000F64ADFF8DCC3B2F90030BCF900505D43C8
:1022E00041F2707395FBF3F6F24D2E80B2F9027055
:1022F000BCF902607E4396FBF3F66E80BCF9047075
:10230000B2F90460DFF8B4C3774397FBF3F6AE800D
:10231000E94DB2F90670B5F900607E4396FBF3F61D
:10232000ACF80060B2F90870B5F902607E4396FB24
:10233000F3F6ACF80260B2F90A20B5F9045055433F
:1023400095FBF3F2ACF80420DD4A0BF211134FF0C9
:102350000A0CA2F8008053804368137280685072A0
:10236000D84888460A468187D749B1F90030D7490D
:10237000002B08DD8D8C35B9B1F90A50954202DD8C
:1023800095FBFCF28287012B0BDDB1F85C2042B992
:10239000B1F94220B0F93C50AA4202DD92FBFCF2B6
:1023A0008287022B0BDDB1F8942042B9B1F97A2073
:1023B000B0F93C50AA4202DD92FBFCF28287C4488D
:1023C0000022DFF810A3B0F9005032E0C2EBC200E7
:1023D00000EB40060AEB8600C678192E1BD28679E0
:1023E000C77906EB07264662067A477A06EB072688
:1023F0000662867AC77A06EB0726C661067B866286
:10240000467B80F85260867B80F84260067C477C81
:1024100006EB07260AE0C0F81C80C0F82480C0F84C
:102420002080C0F82880464680F84280521CD2B2F4
:10243000C664AA42CADBA84846460022A0F800802B
:102440008946E3460DE000BFC2EBC20709EBC701B6
:10245000B1F90A7097FBFBF10788791A521C0180C9
:10246000D2B29A42F0DB9D4AB04600211680534614
:102470000FE000BFC1EBC10606EB460603EB860684
:10248000F778052F03D2766A17883E441680491CD8
:10249000C9B2A942EEDB01881288114409B2018059
:1024A000002901DAA0F800808D48B0F90050F5B39A
:1024B0000022DFF830C264E0C2EBC20000EB400053
:1024C00003EB800090F8931619293AD200F2966037
:1024D0000178467801EB062602EB42010CEB411134
:1024E000CE618678C77806EB0726CE6206794779F3
:1024F00006EB07268E6186790E62C67981F8466002
:10250000067A477A06EB07268E62867AC77A06EB4A
:1025100007264E6281F80280067B81F85960467B6F
:1025200081F85A60867B81F85860C67B00E02AE01B
:1025300081F85B60067C81F85C60407C81F85D001E
:102540001DE002EB42000CEB40101926C0F81C8085
:10255000C0F82C80C0F81880C0F8208080F8468031
:10256000C0F82480C0F82880867080F8598080F8F0
:102570005A8080F8588080F85B8080F85C80521C1C
:10258000D2B2AA4298DB58480088022876D1574D2B
:10259000287828F066FE0603687828F062FE06EBCD
:1025A0000026A87828F05DFE06EB0016E87828F0F3
:1025B00058FE3044A9F80A004E46287928F051FE0A
:1025C0000703687928F04DFE07EB0027A87928F06B
:1025D00048FE07EB0017E87928F043FE384481B243
:1025E0004FF0640AB1FBFAF0308115F8140C28F0B2
:1025F00038FE070315F8130C28F033FE07EB00270D
:1026000015F8120C28F02DFE07EB001715F8110C29
:1026100028F027FE391891FBFBF0A0F21110B080D2
:10262000287A28F01EFE0703687A28F01AFE07EBC6
:102630000027A87A28F015FE07EB0017E87A28F0A3
:1026400010FE38447086A87B28F00BFE0703E87B59
:1026500028F007FE07EB0027287C28F002FE07EB96
:102660000017687C28F0FDFD384400B2F08190FB33
:10267000FAF0B6F9321091FBF0F070821C48B0F914
:10268000000003283DDA1B49B9F808204A80B9F850
:1026900004204A8130E00000F0C30720B6C30720C1
:1026A00044C2072086C107206CC107204A110820B8
:1026B0001A0100104AC20720F6C3072050C20720A3
:1026C000F610082010000010DCC00720CCF907200D
:1026D000DEC007208CFA072062C10720120100101B
:1026E000E0C007200C050820D4C00720D3740010D8
:1026F000CC2200108CF80720B9F90A2092FBFBF0DD
:102700000881FF48DFF8FCA3008801285AD1FE4E5B
:10271000002500BFC5EBC50000EB400206EB4201FF
:10272000887B4B7B00EB0327C5EBC50309EBC3009C
:10273000C7814F7816F8122007EB022229F83320C0
:10274000CA788B7802EB032242800A7982804A7928
:10275000C280CA798B7902EB032202814A7A0B7A12
:1027600002EB03224281CA7A8B7A02EB0322828136
:102770000A7B4282CA7BC2824A7C0B7C02EB032228
:1027800082828A7C028291F82220428391F823205F
:10279000828391F824100183303032220021FDF72A
:1027A00075FD6D1C15F0FF05B4D096F8290064285E
:1027B00001D018B104E08AF8154001E08AF81580CC
:1027C000AAF8160002218AF80D10CD495046098852
:1027D00001292ED1B9F908305A4693FBF2F3038050
:1027E000B9F90A3049461BB193FBF2F3438005E087
:1027F0008B891BB1C54BB3F90830F5E7B1F90E4031
:10280000642394FBF3F343814B8A03720B8AC371F5
:10281000B1F9143093FBFBF2C2818A888280B9F847
:1028200016100174417D11B9017D002901D08AF88B
:102830000D80BDE8F88FB64AB6481178052901D059
:10284000012905D1517819B9B3490978552902D020
:10285000B249098803E00178002901D0491E0170BE
:102860007047AF48416821F4402141F48021416024
:10287000416821F4403141F480314160416821F4E4
:10288000404141F480414160416C21F4402141F4D8
:1028900000214164416C21F4403141F40031416434
:1028A000416C21F4404141F4004141649D4801687C
:1028B00021F0E0610160016841F4001101600168EC
:1028C00021F480310160016821F47F4141F480717D
:1028D00001608115C16094488903016070472DE94A
:1028E000F041924C60882188401A00B203F068FCE5
:1028F000A51D2880A0886188401A00B203F060FC02
:102900006880A0882188401A00B203F059FC4FF477
:102910009672A880A4F19001904201DAA0880AE0A2
:10292000B5F90200904201DA608804E0B5F90000D0
:10293000904201DA2088C88591F802C00023BCF1DA
:10294000000F22D07A48B1F92E20046814440460A4
:10295000446814444460846814448460C468224415
:10296000C260CA8E521C12B2CA86B2F5805F00DB0A
:10297000CB86B1F9362094052ED1921250F8224020
:1029800024128C8540F8223026E06A4FC8780C79F2
:1029900007EB8015B1F92E2045F82420A2070FD1AE
:1029A00000252A4607EB801656F82270521CD2B238
:1029B0003D44102AF8D32A115D4D203D25F8102002
:1029C000401CC0B2C870102806D3641CE0B2CB70A3
:1029D0000871102800D30B710CF1010C4B701CF026
:1029E0000100504A887005D0106820F0FF00001DDB
:1029F000106034E0C97808070028106820F0FF0054
:102A000002DB00F1010001E000F1020010604A4821
:102A1000036843F080530360036A43F0804303621A
:102A2000036E43F080630366CB07436908D043F02D
:102A3000805343618B07436B05D423F0804304E04C
:102A400023F08053F5E743F0804343634907416F28
:102A500002D421F0806101E041F08061416710689B
:102A600040F080701060BDE8F081F0B52F489038DC
:102A7000B0F9241019B1A1F101018184ABE0002269
:102A80002F4C027413462D49B4F9004011E000BFE9
:102A9000C3EBC30505EB450501EB8505AE78012EBB
:102AA00005D1ED78142D02D2057C6D1C05745B1CDC
:102AB000DBB2A342ECDB067C022E5BD341F288330F
:102AC000C0E91C230023826717E000BFC3EBC305E6
:102AD00005EB450501EB8505AF78012F0BD16D6A3C
:102AE000076FBD4200DD0567476FBD4200DA4567ED
:102AF000876F3D4485675B1CDBB2A342E6DB21E0C8
:102B0000D4C0072074FA0720201108208CF8072071
:102B100004C207202AC0072056C007200AC1072088
:102B200000C002400040034000E100E0A0000010AF
:102B3000FCF70720DCF3072000C009208CFA0720EF
:102B4000DEC00720836F012593FBF6F6C667436F4F
:102B500003B94567036F64277B43476FDFF85CC4A5
:102B600093FBF7F3CCF80030A02B00DDC573782B76
:102B700001DAC2732FE0C07B01282CD100226FF054
:102B8000310326E0C2EBC20000EB400001EB800005
:102B90008578012D1BD1456AB54205DDB0F850504E
:102BA000A5F10105A0F8505005DAB0F8505005F134
:102BB0000105A0F85050B0F950509D4202DAA0F83B
:102BC000503004E0322D02DD3225A0F85050521C66
:102BD000D2B2A242D6DB00BFF0BD70B5F8480168A2
:102BE000F84A11400160F84C216841F47C71216081
:102BF000C16921F44021C161216E41F0007121665B
:102C0000416821F040614160206840F00050206040
:102C1000EF48EE4BF0490278EE4893F83C50B1F99A
:102C200000100078154307D030B1052904DDA569EF
:102C300045F48075A56103E0E56945F48075E561BB
:102C400093F88830134307D030B1052904DDA0691B
:102C500040F04000A06103E0E06940F04000E06126
:102C6000D220FDF7C0FADD4D60B12868642809D193
:102C70006868012801D028B108E0A06940F0005040
:102C8000A06103E0E06940F00050E061D220FDF770
:102C9000AAFAD34E10B12868662824D03068C0073D
:102CA00018B3A06F40F02000A067D220FDF79BFA78
:102CB00010B1286866281DD03068C007E0B1A0694F
:102CC00040F02000A061D220FDF78DFA10B12868F5
:102CD000682816D0C3480078012817D0A06940F4AE
:102CE0000070A06116E06868DAE7E06F40F020004D
:102CF000E067DAE76868E1E7E06940F02000E0615A
:102D0000E1E768680028E9D0012803D1E06940F4D0
:102D10000070E061D220FDF766FA10B128686F28D4
:102D200003D0B148007828B109E0686810B10128E3
:102D300005D008E0E06940F01000E06103E0A06920
:102D400040F01000A061D220FDF74DFA10B12868C4
:102D50006B2803D0A548007828B109E0686810B155
:102D6000012805D008E0A06940F08000A06103E0E0
:102D7000E06940F08000E061D220FDF734FA10B144
:102D80002868702803D09A48007820B908E068685D
:102D900030B1012803D1E06940F04000E06170BD2E
:102DA000A06940F04000A06170BD2DE9F05F834C48
:102DB0000026803C4FF00108A07D0A2807D2401C65
:102DC000C0B2A0750A2802D3A67584F81780A4F8AB
:102DD0004A60A4F84C60CD20FDF705FA854DDFF878
:102DE0001892A8B37D494FF6FF720868CE2808D024
:102DF000CF2809D0D12809D0D2280BD0D0280CD088
:102E000011E0A4F84C200EE048680AE04868A4F8F5
:102E10004A0008E0A4F84A2005E04868A4F84A00FF
:102E2000C043A4F84C00002730E000BF08FA07F0C8
:102E3000B4F84C1083460842C7EBC70000EB4000D3
:102E400005EB800005D030F8401F491C018002E0EE
:102E500021E0A0F84060C7EBC70000EB400005EBA5
:102E600080008246403032220021FDF70FFABAF985
:102E70004000142801DD8AF82C80B4F84A101BEABF
:102E8000010F01D08AF82C607F1CFFB2B9F9000055
:102E90008742CBDD66E0E07DF0B34FF0000C614689
:102EA000B9F900000AE000BFC1EBC10202EB420227
:102EB00005EB8202491C82F82C80C9B28142F3DD05
:102EC000002120E0C2B2202A00D92022637F834261
:102ED00000DB00230B44DBB2B3FBF2F702FB17323B
:102EE000C2EBC20202EB420205EB82029378022B94
:102EF00001D0012B05D10CF1010C82F82C600CF0F3
:102F0000FF0C491CC9B2814204DA3C4AB2F90020E4
:102F10009445D7DB304900E024E0B1F900103C29AA
:102F20000EDA00210AE000BFC1EBC10202EB42024F
:102F300005EB8202491C82F82C60C9B28142F3DDA4
:102F40002F49098871B100210AE000BFC1EBC1021D
:102F500002EB420205EB8202491C82F82C80C9B2C6
:102F60008142F3DD00206323B9F900100EE000BFB9
:102F7000C0EBC00202EB420205EB8202D76B1FB12D
:102F800082F82C307F1ED763401CC0B28842EFDB32
:102F9000E675E67400200DE0C0EBC00202EB4202D1
:102FA00005EB82029278012A02D1E27C521CE27483
:102FB000401CC0B28842EFDBBDE8F09F90000010DB
:102FC00000C00240FF00F0FF00C009208CF807207D
:102FD000D00000102FC0072070C0072004C00720B9
:102FE00010C00720C7C1072032C0072031C007200A
:102FF000D10000108CFA0720DEC00720E6C30720AE
:103000002E01001070B5FB480A21FB4D0368002417
:103010002868B3FBF1F2B0FBF1F6F848B2420AD1EE
:1030200002780F2A01D2521C0270D0B20A2803D3B0
:10303000F348036000E004702B60F248F24BB0F9F3
:103040000020B3F90000B2FBF1F5B0FBF1F1EF485D
:103050008D420AD101780F2901D2491C0170C8B2F2
:103060000A2803D3EA48028000E004701A8070BD89
:103070002DE9F0410746C0EBC700E64900EB4000F0
:1030800011F82020032A73D101EB800494F84250F8
:10309000A807B4F9460010D54FF4966188421ADAB1
:1030A000401C00B2A4F84600884214DBA4F8461085
:1030B0006078C0070FD1012209E060B1401E00B264
:1030C000A4F8460038B96078C00704D00022002177
:1030D000384602F044F92807B4F948004FF00A06D0
:1030E0004FF000010ED50A281FDA401C00B2A4F8E8
:1030F00048000A2819DBA4F848606078800714D4D7
:10310000012209E000280DDDA0F1010000B2A4F8C1
:10311000480050B94FF000024FF00101384602F06C
:103120001EF902E001DAA4F84810E806B4F94A00F2
:103130000ED50A2817DA401C00B2A4F84A000A2863
:1031400011DBA4F84A60607840070CD4012206E045
:1031500048B1401E00B2A4F84A0020B90022022162
:10316000384602F0FCF86078000702D0042012E034
:1031700028E0A948007820B1E078142801D905207A
:1031800009E094F84200800601D5022003E0E078CF
:10319000142801D20120A070E0780A2894F82C00AD
:1031A00002D340F0800001E000F07F009B4984F8EA
:1031B0002C00B4F95000B1F92010084420634FF4FA
:1031C0007A7060634FE470B595490020954DB1F970
:1031D0000C200121034600BF01FA00F4224201D075
:1031E000295400E02B54401CC0B20C28F4D38E4C60
:1031F00028788E4E217881420CD0B6F90010012932
:1032000008DB01287ED0002301220B2188A000BF0B
:1032100022F074FC6178687881420BD0B6F9001016
:10322000022907DB01286ED0002302220B2185A092
:1032300022F064FCA178A87881420BD0B6F9001086
:10324000032907DB01287CD0002303220B2182A065
:1032500022F054FCE178E87881420BD0B6F90010F6
:10326000042907DB012872D0002304220B217FA050
:1032700022F044FC2179287981420BD0B6F9001064
:10328000052907DB012867D0002305220B217CA03C
:1032900022F034FC6179687981420BD0B6F90010D4
:1032A000062907DB01285CD0002306220B2179A028
:1032B00022F024FCA179A87981420BD0B6F9001044
:1032C000072907DB012851D0002307220B2176A014
:1032D00022F014FCE179E87981420BD0B6F90010B4
:1032E000082907DB012846D0002308220B2173A000
:1032F00022F004FC217A287A81420FD0B6F900101E
:10330000092901E013E017E008DB012838D0002389
:1033100009220B216EA000BF22F0F0FB0020295CE7
:103320002154401CC0B20C28F9D370BD09E0012320
:103330001A460B216BA06BE7012302220B216EA022
:1033400076E7012303220B2170A081E7FFE7012329
:1033500004220B2172A08BE7012305220B2175A00B
:1033600096E7012306220B2177A0A1E7012307227C
:103370000B217AA0ACE7012308220B217CA0B7E740
:10338000012309220B217FA0C6E770B5C820FCF7F6
:103390002AFF8149002258B3804C01232068C928A4
:1033A00003D0CA28104611D004E1002000EB4004ED
:1033B00004EB001411F82450322D02D26D1C01F8D8
:1033C0002450401CC0B20228F0D3FDE0D4F80450D1
:1033D00003FA00F4254200EB40040AD004EB001687
:1033E00011F82640322C02D2641C01F82640DBE0A2
:1033F00000E1D5E020010010FCC3072002C4072033
:10340000FCC1072000C40720240100102601001081
:103410008CC107208CFA07205CC007201000001028
:103420004A110820141108205E110820E8C0072066
:103430004176746F6D6174202331206973204F468B
:10344000460000004176746F6D617420233220695C
:1034500073204F46460000004176746F6D61742002
:103460002333206973204F46460000004176746F75
:103470006D6174202334206973204F46460000009C
:103480004176746F6D6174202335206973204F4637
:10349000460000004176746F6D6174202336206908
:1034A00073204F46460000004176746F6D617420B2
:1034B0002337206973204F46460000004176746F21
:1034C0006D6174202338206973204F464600000048
:1034D0004176746F6D6174202339206973204F46E3
:1034E000460000004176746F6D61742023312069BD
:1034F00073204F4E200000004176746F6D61742080
:103500002332206973204F4E200000004176746FF3
:103510006D6174202333206973204F4E200000001A
:103520004176746F6D6174202334206973204F4E8F
:10353000200000004176746F6D617420233520698E
:1035400073204F4E200000004176746F6D6174202F
:103550002336206973204F4E200000004176746F9F
:103560006D6174202337206973204F4E20000000C6
:103570004176746F6D6174202338206973204F4E3B
:10358000200000004176746F6D617420233920693A
:1035900073204F4E200000008CF8072004C0072045
:1035A00004EB001401F82420401CC0B20228FFF4F0
:1035B0000FAF09E000EB400404EB0014401CC0B264
:1035C00001F824200228F5D35FF0000000EB40044E
:1035D00004EB001411F8245001EB8404142D02D9DB
:1035E00084F83C3001E084F83C20401CC0B2022842
:1035F000ECD39AE600EB400303EB0013401C01F808
:10360000232001EB8303C0B283F83C200228F1D3CE
:103610008BE62DE9F84300210846FF4AFF4E4FF0A4
:10362000010CB2F90020B6F90030914602270D4690
:10363000FB4C984205DBC0EBC00204EBC202958450
:1036400016E0B9F1000F05D0C0EBC00204EBC202D6
:10365000A2F824C0C0EBC00204EBC202B2F81E8084
:10366000B8F1000F01D0978402E0491C9584C9B2DB
:10367000401CC0B20328DCD3EA485FF00007018099
:10368000B6F90000B84206DDC7EBC70004EBC00086
:103690008046808C10B3C7EBC70004EBC000C58622
:1036A0007F1CFFB2032FEBD3B6F90020002090421D
:1036B00005DCC0EBC00104EBC101898C41B1C0EB5A
:1036C000C00104EBC1014D810D818D804D820D82C1
:1036D000401CC0B20328EAD3BDE8F883B8F8120052
:1036E00064214843B8F9101000B290FBF1F0ADF836
:1036F0000000642200216846FCF7C8FDBDF80010F8
:10370000A8F83610CCE72DE9F041C748C749142482
:10371000B0F90070C648B1F90220B1F90050D0E903
:103720000063C448214617B1012F03D005E0028091
:1037300013B902E0058006B10180BF4FDFF8FC82BB
:10374000B7F9007017B1012F04D008E0A8F80020E5
:103750001BB904E0A8F800500EB1A8F80010B84951
:10376000B84B09881980B8490988C1B9AB49AC4D33
:10377000B1F90020B549002AB1F9001003DDB5F90F
:1037800036608E420BDB012A03DDB5F96E608E4296
:1037900005DB022A05DDB5F9A6208A4201DA0A21F5
:1037A0001980AB4DB0F90010B3F90020B5F9000055
:1037B000914201DA401C05E0A64AB2F9002091428C
:1037C00001DD401E28800A220021A148FCF75EFD91
:1037D000B5F90010A04801250026092901DD057072
:1037E00002E0012900DA06709C49B8F900009C4FFC
:1037F000B1F90010884202DD3888401C06E0994982
:10380000B1F90010884202DA3888401E38800A2256
:1038100000219348FCF73AFDB7F9000092490928C6
:1038200001DD0D7002E0012800DA0E70904A0020E0
:103830008E49B2F900200EE0C0EBC00303EB430356
:1038400001EB8307BB6AA34203DDFF780A2F00D296
:10385000DCB2401CC0B29042EEDB8648864FB0F925
:103860000000844202DD3888401C06E08348B0F93D
:103870000000844202DA3888401E38800A22002183
:103880007D48FCF703FDB7F900007D49092801DDFB
:103890000D7097E40128FCDA0E7093E42DE9FC5FCB
:1038A0000546784830F9151011B1491E20F8151059
:1038B000744A121D32F9151011B1491E22F8151063
:1038C00005EB450101EB05136F4901EB83046F4BD9
:1038D000B4F90810B3F90030994202DD642320F8EE
:1038E0001530002902DA642122F81510654930F8F4
:1038F0001530843900264BB132F8153033B1B1F8A8
:103900006230B3B140F6B830A1F86000A1F8606051
:1039100094F83E00401CC0B284F83E000A2801D34F
:1039200084F83E605A4FDFF86C813888322809D01D
:1039300017E04FF41673A1F8623020F8156022F8F2
:103940001560E3E794F83C00F8B9B4F90200502898
:103950001BDA94F83D00C00717D10121284601F079
:1039600057FFB7F90000C8280FDDB4F90800FCF7CD
:10397000C7FCB8F90010884207DD94F83D00C00785
:1039800003D00021284601F043FF4248B4F9081053
:10399000B0F900004042814212DD607B0A280CD25F
:1039A000401CC0B260730A2806D3A07B002803D055
:1039B000A673284601F0A1FEB2E00A206073AFE0D2
:1039C00028DA607B30B3401E10F0FF00607321D115
:1039D000A07BF8B90120A0732F48304F0088401C0D
:1039E00000F0070004EB4000008CADF80400B88B39
:1039F0008DF800004FF063024FF001016846FCF7BC
:103A00003AFC04F11C049DF800002076387E8DF805
:103A1000000045E084E00000D8C30720DCC0072098
:103A2000CCF907200601001096C107203EC20720EE
:103A30009C1008207CC1072098C107207EC1072068
:103A40009AC1072090C10720D6C307209EC1072036
:103A5000280100109CC1072032C00720A0C1072008
:103A600004C40720A2C1072031C007208CFA072018
:103A7000DEC00720A4C1072006C40720A6C1072076
:103A8000D1000010940000108CF807209EC0072081
:103A90006EC0072096C00720D4C3072020400240F4
:103AA0004FF00C024FF001016846FCF7E4FB9DF873
:103AB00000006076387B8DF800001F2201216846E7
:103AC000FCF7D9FB9DF80000A0769DF80400E07695
:103AD000387A8DF80000172200216846FCF7CBFBEE
:103AE0009DF80000207738798DF800003B220021F6
:103AF0006846FCF7C0FB9DF80000607738788DF8C9
:103B000000003B2200216846FCF7B5FB9DF8000051
:103B1000A0779DF80500E07726806680A4F11C045C
:103B200048F6A04894F83E0088BBB4F908106069D4
:103B3000DFF8F8A30844DFF8F89345F2555B6061BD
:103B4000404525DB39F915205A4503D1F94830F8AD
:103B5000157001E039F815703AF8150023F03EFDB4
:103B600080B2B8420AD2616900F10100A1F50041BA
:103B7000A1F54A6161613AF915202BE031D93AF992
:103B8000150039B223F01EFEC4F8148029E04FE07E
:103B9000E949884225DC39F915205A4503D1E54821
:103BA00030F8157001E039F815703AF8150023F077
:103BB00015FD80B2B84205D93AF9150039B223F0A3
:103BC00001FE384658B16269401E02EB080161618E
:103BD0003AF9152001B2104623F0F4FD01E0D64871
:103BE00060613AF8150023F0F9FC014639F9150037
:103BF000584502D1CF4830F915004FF47A7251433D
:103C000008B1B1FBF0F00A21B0FBF1F02082CB4803
:103C10000088012806D1CA49C5EBC50001EBC000E8
:103C2000408A208204F1100064220021FCF72EFB60
:103C3000A07B012813D1A08B4746B8420ED2B4F91D
:103C40000800FCF75DFBA18B084480B2A083B8425A
:103C500005D3A683E08B401CE08300E0A683B9482F
:103C6000B4F90A10B0F90000814201DD207BF0B305
:103C7000B4F84000B0F10100A4F840004FF4167908
:103C800004F140004A460021FCF700FBB4F9400073
:103C900040F24E27B84205DB94F83F1041F0010195
:103CA00084F83F100A2805DC94F83F0020F001005A
:103CB00084F83F00A448B4F90A10B0F9000081422A
:103CC00001DD207B90B3B4F84200401EA4F842000E
:103CD00004F142004A460021FCF7D8FAB4F9420048
:103CE000B84207DB94F83F1041F0020100E01EE00B
:103CF00084F83F100A2805DC94F83F0020F0020009
:103D000084F83F00606C404519DA401C606440450F
:103D100016DB8E4F666437F8150023F05FFC401CFD
:103D200001B237F9150023F04DFD09E003E0B4F8C6
:103D30004000401CA0E7B4F84200401CC6E766649F
:103D4000834F3888002854D08248B0F90000484595
:103D5000B4F9020004DAC11700EB9170801003E09F
:103D6000052190FBF1F000B2A188C1EB400000B248
:103D7000FCF7C6FA00EB8000400000B20C2190FB7B
:103D8000F1F000B2E080B7F90010884233DDB4F9F9
:103D90000800FCF7B5FA7049B1F9001001EB810198
:103DA000884228DA6D487321B0F900004843642145
:103DB00090FBF1F0B4F9021000B288421BDA94F8DB
:103DC0003D00800717D4B4F84800401C00B2A0F5AD
:103DD0003061A4F84800B83903D10121284601F028
:103DE00007FFB4F9481040F6BD30814201DBA4F86A
:103DF0004800BDE8FC9FA4F84860FAE72DE9F05FB1
:103E0000574C0026A0790A2807D2401CC0B2A071E6
:103E10000A2802D3A67101202072E079052805D274
:103E2000401CC0B2E071052800D1E671BE20FCF74D
:103E3000DAF94C4D28B14C480168BF2917D14068C8
:103E400070E0207A002812D03C482672474EB0F924
:103E50000000DFF81C91474F50B1DFF8F880DFF821
:103E600018A101282AD0022853D003285CD0C6E02C
:103E7000424943480A7B0AB114210AE0B1F90A1009
:103E80000160002902DAB6F9000011E0282901DDFD
:103E900028210160B9F90010B6F900200068891ADC
:103EA00001EB810149004143C82091FBF0F010442F
:103EB000217E022936D1B7F9000033E01E2201210C
:103EC0002D48FCF7E3F9DFF8BCB0BAF80000BBF806
:103ED000001008442880B6F9002000212148FCF792
:103EE000D5F9B9F9002000211E48FCF7CFF94FF4AD
:103EF000077200211B48FCF7C9F99BF80D00022846
:103F000002D0B8F800002880207E022877D13888B7
:103F100008E0B8F800002880207E022801D1388807
:103F20002880308828806AE02EE00000FEDD020054
:103F3000E4C10720DCC107206073FFFFD4C0072065
:103F4000CCF90720B0C00720AEC007201ADE02005F
:103F5000B2C00720A0C0072096C0072090C007204D
:103F60001000001080C1072004C0072086C0072071
:103F700088C0072098C00720D6C007208CF80720EB
:103F8000E8C3072074FA0720B8F800002880207ED4
:103F9000022801D1388828801E220121F948FCF727
:103FA00075F9F948008838B1F848F949BAF900209C
:103FB0000088401E00B20EE0B8F8000028800CE037
:103FC000C0EBC00301EBC3039C8C14B91B891344E1
:103FD0002B80401E00B20028F2DAB6F90020002142
:103FE000EC48FCF753F9B9F900200021E948FCF747
:103FF0004DF94FF407720021E648FCF747F9B5F98F
:10400000000062214143642291FBF2F1E24B1980EE
:104010006621484390FBF2F0E0490880BDE8F09F3C
:104020002DE9F041DE4CB4F92A0008B1401E60854C
:10403000DC48DD4DDD4E00882880B6F908000A27EF
:10404000002806DAFCF75CF990FBF7F029880844B1
:104050002880B6F95400002806DAFCF751F990FBE5
:10406000F7F0298808442880D149B5F90000D14AE1
:10407000B1F900103C2390FBF1F1491CC9B2217544
:10408000B2F9002090FBF2F0401CC2B2CA4862753F
:10409000B0F90050A94201DD018004E0AA4203DA30
:1040A000618D09B902806385C4490A88C4490AB18F
:1040B0000A880280B1F90020BDE8F0410121BE4824
:1040C000FCF7E4B82DE9F047BE48B54C0088E0871E
:1040D000BD48008810B1BD480088E087B4F9600091
:1040E00010B1401EA4F86000B4F9620010B1401E87
:1040F000A4F86200607A00274FF001080A2813D262
:10410000401CC0B260720A280ED3677284F80A801D
:10411000627B384641461E2A06D2521CD2B26273D6
:104120001E2A01D36073A173E120FCF75CF8A84953
:1041300040F2F23940B3A7480268642A06D0692ADF
:1041400008D06E2A0AD0E52A1CD061E04068618C54
:1041500008445CE04068618C081A58E0208C401EDE
:1041600000B220841E2806DDB1F900009A49B1F999
:10417000001088424CDA0A230022E721E620FBF7F0
:10418000FBFF45E0406842E0A07AA8B3934800886E
:1041900090BBB4F922006087B4F93C30E28F9342BF
:1041A0002DD0B3EB420F06DDB4F8601009B1401E0C
:1041B00024E0401F22E001DA9342F8DCB1F900501C
:1041C0007449B1F900108D422BDAA1F12806B542ED
:1041D00010DB1436B54201DA801C0FE0694EB6F9E7
:1041E0000060891BA94208DAA17B41B1521FA77365
:1041F000934202DA401D01E00AE0401C60876848F3
:104200004A460A213A30FCF741F8608F60842084E6
:104210006B482773E7723D46714B4246B0F9001078
:104220000EE0C4DCEBE700BFC0EBC00606EB4606C1
:1042300003EB8606F6781E2E00D22273401CE07235
:10424000E07A8842F0DB207B20B94FF4167020849E
:104250006084608752484A460A212030FCF716F8ED
:10426000A572BDE8F0872DE9F05F604E00205D4942
:10427000DFF874814FF00A0B8246B6F9003024E073
:104280005B4A5C4C125C34F91220B2F57A7F0A5614
:104290000DDA0A2A08DA521C52B20A540A2A12DB30
:1042A000012208F800200EE001F800B00BE0002A1F
:1042B00007DD521E52B20A54002A04DC08F800A09E
:1042C00001E001F800A0401CC0B29842D8DB0024F5
:1042D000DFF82491494D4A4FC9E04A4830F81400AC
:1042E000002818F8040001D078B101E001280CD0B2
:1042F00019F90400002818DB401E40B209F8040038
:10430000002814DC05F804A011E019F904100A29AA
:1043100008DA491C49B209F804100A2907DB012010
:10432000285504E009F804B001E009F804A0395D5B
:10433000285D81420CD01A4A118F491C118701282F
:1043400007D0ECB1012C7ED0022C6FD0032C6ED0A4
:1043500089E034B1012C09D0022C0CD0032C68D098
:1043600081E001231A460F2127A07AE001230222CF
:104370000F2128A075E0012303220F2128A070E05F
:104380005CE060E0D6C0072006010010DCC007201A
:10439000CCF9072080C1072010010010E4C30720DA
:1043A0001000001012010010ECC307208CF8072049
:1043B0009AC007209CC00720E6C30720ACC0072096
:1043C000DEC007209EC00720B2C10720A8C1072079
:1043D00060C1072004C0072090C0072094C10720B7
:1043E0008CFA0720ECC10720C3C10720E4C00720D6
:1043F000FADD0200DCF70720E0C30720C7C1072071
:104400000C01001056C20720534B20233120416C71
:1044100061726D00534B20233220416C61726D003C
:10442000534B20233320416C61726D0010E014E087
:10443000FFE7012304220F21F7A012E0002301224D
:104440000F21F8A00DE0002302220F21FAA008E0BE
:10445000002303220F21FDA003E0002304220F21EB
:10446000FFA021F04BFB285D3855641CE4B2B6F97F
:1044700000008442FFF631AFD0E5FE49FE4A01203C
:10448000087010704870507070472DE9F05FFC485C
:10449000DFF8F0E3DFF8E4C3B0F90070BEF9000024
:1044A000F94CC0EB0011BCF902506FF01D0A6FF01F
:1044B000950B0026DFF8BC83B4F942000AEB8102B9
:1044C0000BEB8103BD4204DCF04FB7F90070BD4235
:1044D00005DA824203DD834201DA88F80060EC4DA0
:1044E000E146BCF908C0B5F90050E34FBCEB450FFD
:1044F00003DC6D42BCEB450F04DA824202DD8342ED
:1045000000DA3E706FF0090202EB810175468142CC
:1045100020D1207EF0B998F8000001281AD138780F
:10452000012817D14FF4D67023F058F8D949B1F9C2
:10453000001088420ED0D848008858B199F83D0044
:10454000C00707D14FF4D67023F03CF9D348017867
:10455000491C0170CA49B9F902204846B1F9001056
:104560008A4206DCC949B0F94E20B1F900108A42EE
:104570000FDAB5F90010B4F94220C1EB01110AEBD2
:104580008103934205DD0BEB8101914201DA88F84A
:104590000160BF49B9F95400B1F90010B0EB410F07
:1045A00003DC4942B0EB410F0EDAB5F90000B4F973
:1045B0004210C0EB00100AEB80028A4204DD0BEBD4
:1045C0008000884200DA7E70B5F90000C0EB00116F
:1045D0006FF0090000EB8100B4F94210884222D14B
:1045E000207E00BB98F8010001281CD178780128B2
:1045F00019D14FF4E576304622F0F0FF0246A54887
:10460000B0F902108A420ED0A348008802280AD1CD
:1046100099F88900C00706D1304623F0D3F89F48A7
:104620000178491C0170B5F900006FF00101C0EB81
:10463000001001EB8000B4F94210884202D1BDE8BD
:10464000F05F1AE7EAE42DE9F0039548954ADFF8B0
:1046500058C200784FF000084FF00109F0B39348BA
:104660006146B0F900609248B1F90010B0F90070ED
:104670009048BE42B0F900308F48B0F900408F48F2
:10468000B0F900508E48B0F9000013DA834203DB22
:10469000844201DB85420DDA8A48B0F9000081428C
:1046A00019DA491C09B2ACF80010814213D182F822
:1046B000008015E0844FB7F90070BE420BDD8342E5
:1046C00009DD844207DD854205DD21B1491E08B2BE
:1046D000ACF8000060B11078002800E00DE009D1CE
:1046E000BDE8F0030F2301226E21D220FBF744BD69
:1046F00082F80090BDE8F0037047ACF80080F7E75F
:10470000724808B5028800210AB1018008BD704ACC
:1047100012884AB14FF4FA6000906EA373A279A197
:104720007EA0FCF75AFE08BD01220280814801608C
:1047300008BD2DE9F041544C7F4D00266677B5F950
:104740000000002802DDB0F5FA7F02DD2E80BDE812
:10475000F081A07F401CC0B2A0773C2818D34FF452
:104760009477A677384622F039FF401C00B2734A8E
:10477000A4F86400B5F90010B2F900205143814259
:1047800001DCA4F86460B4F96410384623F01AF828
:10479000B4F96400B5F9001090FBF1F06077D6E74A
:1047A00010B500214FF4947023F00CF83649002026
:1047B000887710BD70B562483C4C0025B0F90060A8
:1047C0006048B4F90030604AB0F90010B34204DC2C
:1047D0005E4EB6F90060B3420CDA15805C4AB2F95D
:1047E0000020914216DA491C09B20180914211D190
:1047F00001200EE071B1B2F9001005290ADA491C56
:1048000009B21180052905DB05805248007808B1FE
:104810000020A1E0A2E00000534B20233420416C93
:1048200061726D00534B20233120416C61726D2009
:104830006973206F66660000534B20233220416C61
:1048400061726D206973206F66660000534B2023F0
:104850003320416C61726D206973206F66660000C1
:10486000534B20233420416C61726D206973206F9B
:104870006666000014010010EEC307208CF80720C4
:10488000E4C30720A6C0072010000010100100108C
:1048900096C00720E4C10720DAC0072016010010E7
:1048A00051C00720ACC307202A01001060C10720B7
:1048B000CAC007206EC1072070C1072072C107203F
:1048C00092C00720C8C00720CCC00720B2C1072073
:1048D000B8C10720202020202020202020202020B8
:1048E0002020202020202020000000002020202048
:1048F000E7E0E1EBEEEAE8F0EEE2E0ED2120202057
:104900000000000020202020202020E7E0F0FFE42D
:104910002020202020202020000000002020202017
:1049200020D3F1EAEEF0E5EDEDFBE9202020202098
:104930000000000000C20720D8C00720DEC007200A
:10494000EEC00720BEC1072010C40720F0C007201A
:10495000F2C007206CC0072000F0E6FBA048B4F9C5
:104960000010B0F9000000EB8000B1EB400F0BDA53
:104970009C480068002807D1BDE87040142301223C
:104980007221D220FBF7F8BB70BD2DE9F04F96489D
:10499000DFF8588297490378954898F90020B1F9D3
:1049A0000010B0F9000088B023B1022B33D0012BE6
:1049B0007ED0FCE0904E914B347896F801C0B3F96C
:1049C0000A501F7BB3F9566093F8583022B1012A80
:1049D0000FD1552C14D10FE0552C03D1854268DC42
:1049E000002F66D1BCF1550F03D1864261DC002B4C
:1049F0005FD108B0BDE8F08F8D42FADA002FF8D110
:104A0000BCF1550F7ED18E42F3DA002B7AD0F0E75D
:104A100088F80000EDE77B4C794B94F803C0B3F9BC
:104A20000030A76AE56F009594F857500195D4F8C7
:104A3000D050029594F8AB500395D4F824510495C6
:104A400094F8FF500595D4F87851069594F8535191
:104A5000AE46D4F8CC51079594F8A751D4F87462B7
:104A6000AB46D4F82052B146AA4694F8FB5194F8CC
:104A70004F42DBB387421CDCBCF11E0F19D2012B65
:104A800005DD009E864214DC019E1E2E11D2022BF3
:104A900005DD029E86420CDC039E1E2E09D2032BEE
:104AA00005DD049E864204DC059E1E2E7FD201E0B9
:104AB0005BE07CE0042B05DD069E864277DCBEF1E0
:104AC0001E0F74D2052B05DD079E86426FDCBBF1FD
:104AD0001E0F6CD2062B03DD824568DC1E2D66D2CC
:104AE000072B03DD814562DC1E2C60D2012A80D1B8
:104AF00043B18F428BDABCF10A0F88D2022B2DDB37
:104B0000009800E06AE0884284DA01980A28F4D22A
:104B1000032B23DB02988842ECDA03980A28ECD2B4
:104B2000042B1BDB04988842E4DA05980A28E4D2B7
:104B3000052B13DB06988842DCDABEF10A0FDCD2C3
:104B4000062B0BDB07988842D4DABBF10A0FD4D2CC
:104B5000072B03DB8A45CDDA0A2DCED2082B3DDBAD
:104B60008945C7DA0A2C39D343E7284C264BB4F9D8
:104B70000050B4F90260AA46254DB3F90030B4F9EB
:104B80000440D5E900C7AD68B94693B182450EDC53
:104B9000BCF1000F0BD1012B04DD864207DCB9F11B
:104BA000000F04D1022B04DD844200DC0DB1012092
:104BB0002EE7012AD8D18BB18A45D5DABCF1000F96
:104BC000D2D1022B04DB8E42CEDAB9F1000FCBD169
:104BD000032B03DB8C42C7DA002DC5D1002017E779
:104BE00090C00720F0C1072050C00720100000101F
:104BF000C4C00720C6C00720F8C007208CF80720D3
:104C0000DEC007208CFA0720E2C007203EC2072042
:104C10009C10082070B5FF48FF4B0178186811B14F
:104C200040F0010001E020F0010018600020FB4C82
:104C30005FF0010200EB400101EB001104EB810188
:104C400091F83D10C90707D0451C02FA05F11D680F
:104C50008D430D431D6005E0411C02FA01F5196802
:104C6000A9431960401CC0B20228E3D3EC4C0020D9
:104C7000C0EBC00101EB410104EB8101497831B186
:104C8000C51C02FA05F11D688D430D4304E0C11CEB
:104C90001D6802FA01F18D43401CC0B21D600C2852
:104CA000E6D32846DC4D002114356C5C34B101F1AB
:104CB0000F0602FA06F4A043204304E001F10F04BA
:104CC00002FA04F4A043491CC9B20629EDD3D54D1C
:104CD000002118606C5C012C0FD001F1180402FA5D
:104CE00004F4A043491CC9B20429F3D3CE49186087
:104CF000097849B140F0805008E001F1180602FA45
:104D000006F4A0432043EDE720F0805018609A6835
:104D100020EA0201D9605C680C43C4495C600D88DC
:104D200015B124F080745C604C881CB15C6824F080
:104D300000745C608C881CB15C6824F080645C60EA
:104D4000C98819B1596821F0006159608243D14383
:104D5000B74A1961128812B9B64A114319611A6922
:104D600059681140C3E9011070BDF8B54FF4606592
:104D7000284622F033FC401C04463F2800D900247A
:104D800021B2284622F01EFD40F60266304622F08F
:104D900025FC3F2800D0204601B2304622F012FD0B
:104DA000284622F01BFC4FF4806101EB40100546C1
:104DB00055208DF8000000268DF8016052208DF8F6
:104DC00002008DF803606946284622F080FD69469E
:104DD000281D009622F07BFD974CA08B8DF80000DB
:104DE000207E8DF80100207B8DF802008DF8036095
:104DF000694605F1080022F06AFD207A8DF800006E
:104E000020798DF8010020788DF802008B48D0F8C9
:104E100080018DF80300694605F10C0022F057FD72
:104E200041248DF800408DF801408DF802408DF846
:104E30000340694605F1100022F049FD8DF800405D
:104E40008DF801408DF802408DF80340694605F168
:104E5000140022F03CFD8DF800408DF801408DF8E3
:104E600002408DF80340694605F1180022F02FFD3D
:104E70008DF800408DF801408DF802408DF8034018
:104E8000694605F11C0022F022FDF8BD2DE9F8432A
:104E9000694D604A203D00262F154FF460610128BE
:104EA00002D000287DD03CE10120107088460846E1
:104EB00022F094FB401C04463F2800D9002421B274
:104EC000404622F07FFC40F60269484622F086FB0D
:104ED0003F2800D0204601B2484622F073FC4046ED
:104EE00022F07CFB07EB401750208DF800008DF876
:104EF000016041248DF802408DF803606946384610
:104F000022F0E5FC6946381D009622F0E0FC05F130
:104F10002005A88B8DF80000287E8DF80100287BE5
:104F20008DF802008DF80360694607F1080022F051
:104F3000CEFC287A8DF8000028798DF801002878B9
:104F40008DF802008DF80360694607F10C0022F02D
:104F5000BEFC8DF800408DF801408DF802408DF8C0
:104F60000340694607F1100022F0B1FC8DF80040C3
:104F70008DF801408DF802408DF80340694607F135
:104F8000140022F0A4FC8DF800408DF801408DF84B
:104F900002408DF80340694607F1180022F097FCA3
:104FA00000E011E08DF800408DF801408DF80240DE
:104FB0008DF80340694607F11C0022F088FC0023AD
:104FC000012202211EA0AAE013481670B046026812
:104FD00022F001020260164A12881AB1426822F0D9
:104FE00001024260084622F0F9FA06463446B94604
:104FF00009EB44176946384622F06DFB9DF8000026
:10500000502844D19DF80100F0BB9DF802004128D2
:105010003DD125E05CC007200CC007208CF807209C
:105020008CFA0720C7C107206CC0072066C2072082
:105030008EC00720FEFFFFEF2040024000C00F405F
:105040004D61696E20706F776572206973206F669D
:1050500066000000641E00E03F24B442C8D160E056
:10506000694607F1100022F036FB9DF80000412848
:105070000DD19DF80100412809D19DF80200412879
:1050800005D19DF8030000E001E0412802D0002C8A
:10509000E2D0DFE705F12005A88B8DF80000287E1F
:1050A0008DF80100287B8DF8020044468DF80380BE
:1050B000694607F1100022F00AFC287A8DF80000FA
:1050C00028798DF8010028788DF802008DF80340CA
:1050D000694607F1140022F0FAFBFF4842240178E8
:1050E0008DF8001040788DF801008DF802408DF8A1
:1050F0000340694607F1180022F0E9FB8DF80040F3
:105100008DF801408DF802408DF80340694607F1A3
:105110001C0022F0DCFB01231A460221EFA020F044
:10512000EDFC00BFBDE8F8832DE9F843F14DF049EF
:1051300000262F154FF46062012802D000287DD090
:105140000BE1012008709046104622F047FA401CFF
:1051500004463F2800D9002421B2404622F032FB09
:1051600040F60269484622F039FA3F2800D020462E
:1051700001B2484622F026FB404622F02FFA07EB08
:10518000401751208DF800008DF8016041248DF802
:1051900002408DF803606946384622F098FB694664
:1051A000381D009622F093FB05F12005A88B8DF8A1
:1051B0000000287E8DF80100287B8DF802008DF814
:1051C0000360694607F1080022F081FB287A8DF818
:1051D000000028798DF8010028788DF802008DF8FC
:1051E0000360694607F10C0022F071FB8DF8004066
:1051F0008DF801408DF802408DF80340694607F1B3
:10520000100022F064FB8DF800408DF801408DF80D
:1052100002408DF80340694607F1140022F057FB65
:105220008DF800408DF801408DF802408DF8034064
:10523000694607F1180022F04AFB00E00DE08DF806
:1052400000408DF801408DF802408DF8034069461A
:1052500007F11C0022F03BFB7FE0B0460E701046C9
:1052600022F0BCF9064634464FEA070909EB441719
:105270006946384622F02FFA9DF80000512822D1C5
:105280009DF80100F8B99DF8020041281BD105E006
:10529000641E00E03F24B442E8D15EE0694607F1B5
:1052A000100022F018FA9DF8000041280BD19DF85B
:1052B0000100412807D19DF80200412803D19DF843
:1052C0000300412802D0002CE4D0E1E705F12005DD
:1052D000A88B8DF80000287E8DF80100287B8DF8C2
:1052E000020044468DF80380694607F1100022F061
:1052F000EEFA287A8DF8000028798DF801002878D8
:105300008DF802008DF80340694607F1140022F081
:10531000DEFA7148422401788DF8001040788DF84B
:1053200001008DF802408DF80340694607F118002E
:1053300022F0CDFA8DF800408DF801408DF8024042
:105340008DF80340694607F11C0022F0C0FA0123E2
:105350001A46022161A020F0D1FB00BFE2E62DE950
:10536000F84F05460C004FF054060BD0012C04D02A
:10537000022C04D0032C04D004E0552602E075264C
:1053800000E04C265C49C5EBC503DFF868A103EBE0
:1053900043034FF0000B4FF460604FF4806901EB62
:1053A0008301012A02D0002A7DD0A3E134B1012C6F
:1053B00008D0022C0AD0032C0CD00FE04A7842F01F
:1053C00001020AE04A7842F0020206E04A7842F01E
:1053D000040202E04A7842F008024A7081F8534021
:1053E000804622F0FBF8401C87B23F2F00D90027EF
:1053F00039B2404622F0E6F940F6026022F0EEF8BB
:1054000080B23F2800D0384601B240F6026022F058
:10541000D9F9404622F0E2F809EB401087B2532058
:105420008DF800008DF801508DF80260D8468DF897
:1054300003B06946384622F04AFA6946381DCDF86D
:10544000008022F044FABAF83C000AF120068DF8F8
:105450000000307E8DF80100307B8DF802008DF861
:105460000380694607F1080022F031FA307A8DF89E
:10547000000030798DF8010030788DF802008DF849
:105480000380694607F10C0022F021FA41268DF8CD
:1054900000608DF801608DF802608DF80360694648
:1054A00007F1100000E097E022F011FA8DF800609B
:1054B0008DF801608DF802608DF80360694607F190
:1054C000140022F004FA8DF800608DF801608DF868
:1054D00002608DF8036011E00A0100104D61696EF1
:1054E00020706F776572206973206F6E0000000076
:1054F0006CC00720004002408CFA0720694607F183
:10550000180022F0E4F98DF800608DF801608DF844
:1055100002608DF80360694607F11C0022F0D7F99C
:1055200025B1012D20D0022D3AD0E3E034B1012C79
:1055300009D0022C0CD0032C0FD0DBE00023012279
:105540000421D5A00DE001231A460421D8A008E0CB
:10555000022301220421DDA003E003230122042110
:10556000E2A020F0CBFAC5E034B1012C09D0022C26
:105570000CD0032C0FD0BDE0002302220421E3A0B5
:10558000EFE7012302220421E6A0EAE702231A46FC
:105590000421EBA0E5E7032302220421F0A0E0E7C9
:1055A00034B1012C09D0022C0CD0032C0FD0A1E077
:1055B000002303220421F2A0D3E7012303220421C4
:1055C000F5A0CEE7022303220421FAA0C9E70323B2
:1055D0001A460421FFA0C4E734B1012C08D0022CE4
:1055E0000AD0032C0CD00FE04A7822F001020AE026
:1055F0004A7822F0020206E04A7822F0040202E031
:105600004A7822F008024A7021F0E8FF84B2A046EE
:1056100009EB441087B26946384622F05CF89DF8E1
:105620000000532824D19DF80100A84220D19DF804
:105630000200B0421CD1694607F1100022F04BF87D
:105640009DF80000412813D106E0641EA4B200E0DA
:105650003F244445DCD14DE09DF80100412807D1AD
:105660009DF80200412803D19DF80300412802D093
:10567000002CEDD0E9E7BAF83C000AF120048DF8DF
:105680000000207E8DF80100207B8DF802005D4631
:105690008DF803B0694607F1100022F018F9207A5E
:1056A0008DF8000020798DF8010020788DF8020037
:1056B0008DF80350694607F1140022F008F94224DE
:1056C0008DF800408DF801408DF802408DF80340C0
:1056D000694607F1180022F0FAF88DF800408DF8BD
:1056E00001408DF802408DF80340694607F11C0027
:1056F00022F0EDF800BFBDE8F88F2DE9FC41064629
:1057000000EB460000EB0611BA4800EB8104E08B89
:1057100005287AD3B8484FF460670088801D00F0F0
:10572000070004EB4000008CADF80400384621F07F
:1057300055FF401C85B23F2D00D9002529B23846BF
:1057400022F040F840F60268404621F047FF80B260
:105750003F2800D0284601B2404622F033F83846B0
:1057600021F03CFF4FF4806101EB401085B24220F4
:105770008DF800008DF8016057208DF8020000269A
:105780008DF803606946284622F0A1F8A07F8DF8C5
:105790000000E07F8DF801009DF804008DF8020004
:1057A0009DF805008DF803006946281D22F08FF84A
:1057B00004F1340105F1080022F089F804F1380100
:1057C00005F10C0022F083F88C4CA08B8DF80000C2
:1057D000207E8DF80100207B8DF802008DF803609B
:1057E000694605F1100022F072F8207A8DF8000069
:1057F00020798DF8010020788DF802008DF8036083
:10580000694605F1140022F062F800BFBDE8FC8192
:105810002DE9F84F06467748DFF8E09106EB46029F
:1058200002EB06124FF0000B4FF0420AA9F12009DB
:105830004FF460674FF4806500EB8200012902D0CD
:10584000002927D0D2E110F83D1F41F0010101707D
:10585000384621F0C3FE401C84B23F2C00D90024FE
:1058600021B2384621F0AEFF40F60268404621F0F2
:10587000B5FE80B23F2800D0204601B2404621F05C
:10588000A1FF384621F0AAFE05EB401085B28DF845
:1058900000A0B5E02DE1000042505320233120410B
:1058A0006C61726D2C206F766572686561740000A2
:1058B00042505320233120416C61726D2C20766F51
:1058C0006C746167652069732075700042505320C5
:1058D000233120416C61726D2C20766F6C7461678E
:1058E0006520697320646F776E000000425053207A
:1058F000233120416C61726D2C20636F6E6E656385
:1059000074206973206C6F73740000004250532040
:10591000233220416C61726D2C206F766572686550
:105920006174000042505320233220416C61726D3B
:105930002C20766F6C746167652069732075700028
:1059400042505320233220416C61726D2C20766FBF
:105950006C7461676520697320646F776E00000066
:1059600042505320233220416C61726D2C20636FB2
:105970006E6E656374206973206C6F737400000031
:1059800042505320233320416C61726D2C206F767E
:1059900065726865617400004250532023332041D2
:1059A0006C61726D2C20766F6C7461676520697311
:1059B0002075700042505320233320416C61726D7A
:1059C0002C20766F6C7461676520697320646F7733
:1059D0006E00000042505320233320416C61726DF1
:1059E0002C20636F6E6E656374206973206C6F7317
:1059F000740000008CF80720D4C307202040024028
:105A00008DF8016043208DF802005F468DF803B0E9
:105A10006946284621F05BFF6946281D009721F062
:105A200056FFB9F83C0009F120048DF80000207EF3
:105A30008DF80100207B8DF802008DF80370694617
:105A400005F1080021F043FF207A8DF8000020794D
:105A50008DF8010020788DF802008DF803706946FA
:105A600005F10C0021F033FF41248DF800408DF842
:105A700001408DF802408DF80340694605F11000A1
:105A800021F025FF8DF800408DF801408DF802408F
:105A90008DF80340694605F1140021F018FF8DF8D8
:105AA00000408DF801408DF802408DF803406946B2
:105AB00005F1180021F00BFF8DF800408DF8014032
:105AC0008DF802408DF80340694605F11C0021F075
:105AD000FEFE16B1012E05D088E001231A460521ED
