:020000040000FA
:1000000068630010E1000000E5000000E700000068
:10001000E9000000EB000000ED000000000000001F
:10002000000000000000000000000000EF000000E1
:10003000F100000000000000F3000000853A03001A
:10004000F7000000D59A0300019B0300F7000000B1
:10005000F700000089D10300AF1E0400F700000084
:10006000F7000000F7000000F7000000F7000000B4
:10007000F7000000F7000000F7000000F7000000A4
:10008000F7000000F7000000F7000000F700000094
:10009000F7000000F70000003D8E0000F7000000B0
:1000A000F70000002FCF0300F7000000F70000006A
:1000B00059300400F7000000F7000000F7000000CE
:1000C000F7000000F7000000F7000000DFF80CD098
:1000D00043F06AFC00480047493C03006863001095
:1000E00005480047FEE7FEE7FEE7FEE7FEE7FEE71E
:1000F000FEE7FEE7FEE7FEE7CD000000FEE710B5F5
:1001000045F0FAFF46F086F846F078F846F006F833
:10011000AFF30080BDE8104046F042B810B546F09D
:1001200053FE47F0C3FC46F0A7FEBDE8104047F081
:100130001FB846F067BD46F02FBB09B100207047DD
:1001400045F036B80020704770B5374A0020A2F15C
:100150001401064601F10A030C5C54B11D5CAC426B
:1001600007D1145C2CB1641E14F0FF04145400D1A8
:100170000E540C5C1C54401CC0B20A28ECD370BD59
:1001800070B5294D0024143D641CE4B22E5D1EB1EF
:10019000864201D00A2CF7D3285523480C3040F86A
:1001A0002410283040F824203438035570BD1E4AEE
:1001B0000021143A491CC9B2535C834201D00A2978
:1001C000F8D3DBB2834210D117480C3050F82130FD
:1001D00016480360144B343353F821304360002039
:1001E0005054114A505401207047002070470E4A65
:1001F0000021143A491CC9B2535C834201D00A2938
:10020000F8D3DAB282420CD107480C3050F82120E2
:1002100006480260044A343252F82110416001203D
:10022000704700207047000020E9072004010010FB
:100230000C4BDA601870597070470A4A116190705F
:1002400070470849088170470648B0F9081000292E
:1002500007D0491E09B20181002902D1084601F0E8
:10026000E8B970470C01001090F900308B4200DAB9
:10027000027090F90030934200DD0170704790F9F0
:1002800000308B4200DA017090F90010914200DDDD
:1002900002707047B0F900308B4200DA0180B0F98B
:1002A0000010914200DD02807047B0F900308B42AF
:1002B00000DA0280B0F90030934200DD018070471F
:1002C00040EA01039B0703D009E008C9121F08C0D8
:1002D000042AFAD203E011F8013B00F8013B521E58
:1002E000F9D270470146002000E0401C0A5C002A59
:1002F000FBD1704700487047B0630700FFFFFFFF66
:10030000002801DA404200B270470020FF4A202155
:100310001154401CC0B2C828FAD370470146FB4AAA
:100320000020401CC0B2135C8B4201D0C828F8D317
:10033000704710B50021F64C0A2200BFB0FBF2F363
:1003400002FB13006054491CC9B218460529F5D3B5
:1003500010BDF0B5EF4B0121202719700521EC4AA3
:10036000002601E01C7844B1541814F8015C25B94A
:10037000814202D904F8017C05E0541814F8015DAB
:10038000303525701E70491E11F0FF01EAD1F0BD15
:10039000FEB52B23002802DA404200B22D230025AF
:1003A0000A266C4690FBF6F706FB170060556D1C9D
:1003B0006DB238B20A2DF5DB012600250920202771
:1003C00000E046B114F800C0BCF1000F03D1904228
:1003D00001DD275405E0265C3036265400266D1CCE
:1003E000EDB2401E40B20028EBDA2D2B02D163554E
:1003F0006D1CEDB26AB168B205E0231813F8013C38
:100400002354401E40B29042F7DC2E206D1CA054B5
:10041000EDB20846FFF782FF0021BC4A04E0635CAE
:10042000461A491C935549B2A942F8DBFEBDFEB5F8
:100430002B23002801DA40422D2300250A266C4692
:10044000074690FBF6F006FB107767556D1C6DB202
:100450000A2DF5DB012600250920202700E046B102
:1004600014F800C0BCF1000F03D1904201DD275405
:1004700005E0265C3036265400266D1CEDB2401E89
:1004800040B20028EBDA2D2B02D163556D1CEDB282
:100490006AB168B205E0231813F8013C2354401EEA
:1004A00040B29042F7DC2E206D1CA054EDB20846FD
:1004B000FFF734FF0021954A04E0635C461A491CAB
:1004C000935549B2A942F8DBFEBDFEB52B260028A4
:1004D00001DA40422D2600240A276D46844690FB0F
:1004E000F7F007FB10CC05F804C0641C64B20A2CBA
:1004F000F4DB0127002009244FF0200C00E04FB16D
:1005000015F804E0BEF1000F04D19C4202DD05F8AD
:1005100004C005E02F5D30372F550027401CC0B2C6
:10052000641E64B2002CEADA2D2E02D12E54401C37
:10053000C0B26BB144B205E02E1916F8016C2E550D
:10054000641E64B29C42F7DC2E24401CEC54C0B202
:1005500001EB810102EB8101CAB200216B4B04E087
:100560006C5C561A491C9C5549B28142F8DBFEBDB1
:1005700070B50D4616461C46FFF7DBFE601CC0B288
:10058000FFF7E7FE05EB850006EB8000C1B2604A8D
:100590005E4B0020A04201D2155C5D5406D3155C71
:1005A000202D03D04CB15E1806F8015C491E401C9A
:1005B000C0B2C9B20528EDD370BD5D54F6E730B5C1
:1005C000044608461546FFF7A9FEFF2809D04F4A02
:1005D0002178002905D04319641C401CD154C0B2B5
:1005E000F6E730BD70B50D461446FFF7A2FE601C5D
:1005F000C0B2FFF7AEFE2846FFF790FE444B434AD9
:10060000002124B95D5C202D01D015540FE0A142DA
:1006100001D25D5CF9E704D14FF02E0515545D5C05
:1006200002E05D5C202D02D0161806F8015C401E29
:10063000491CC9B2C0B20529E3D370BD801801D5E9
:10064000084402E0884200DB401AC0B270472DE93E
:10065000FE4F04460D464FF4606039F031FF6242B0
:100660004021FFF7EBFF400100F58060044602A93E
:1006700039F0A3FF694604F1080039F09EFF01A993
:1006800004F10C0039F099FF2846FFF747FE0646B3
:100690009DF8080030252327DFF870B020244FF0A4
:1006A000400C4FF0210A552858D04FF0CF084FF09A
:1006B000D109502875D0E223512873D0422872D036
:1006C000532871D0492870D0D3214FF0EE094FF054
:1006D000E70873286AD0752869D0662868D19DF824
:1006E0000A005A28FAD1D4210BF80610761CF0B271
:1006F000F0260BF80090401CC0B25B460BF800607F
:10070000401CC0B2EC220BF8002005E0A2C3072079
:10071000FCC4072001C50720401CC0B22E210BF8E5
:100720000010401CC0B2E02203F80080401CC0B2A0
:100730001A54401CC0B21E54401CC0B21954401C74
:10074000C0B21C54401CC0B21C54401C9DF8002078
:10075000C1B2FF48838F9A4270D0FEE39DF80A0031
:1007600052280ED1C2200BF80600761CF0B2EA2205
:100770000BF80020401CC0B2EB220BF80020401CFC
:10078000C6B258460BF80640761CF1B20BF8014091
:10079000491CC9B20BF80140491CC9B20BF8014011
:1007A0009CE04CE07BE0AFE0FEE3FEE3FEE3FEE333
:1007B00038E000BF9DF8013092F83860B3426DD147
:1007C0009DF8023092F82C209342F8D14554491CF0
:1007D000C9B23A2200F801A0491CC9B24254491CCE
:1007E000C9B24554491CC9B200F801C0491CC9B27C
:1007F0004254491CC9B200224554491CC9B20BF8E5
:1008000001709DF804002121FFF7ECFE9DF8050022
:1008100000224021FFF7E6FE9DF80600002223217A
:10082000FFF7E0FEBDE8FE8F9DF80110C9480022E9
:1008300000EB81004021FFF7C2FEF3E7FEE3C02199
:100840000BF80610761CF1B2C2220BF80120491CED
:10085000C9B22E220BF80120491CC9B258460BF828
:100860000180491CC9B20BF80190491CC9B244541B
:10087000491CC9B24454491CC9B24454491CC9B2A8
:10088000FEE300BF9DF8012096F838309A4296D1D9
:100890009DF8022096F82C309A4297D0F1E3C021BF
:1008A0000BF80610761CF1B2C2220BF80120491C8D
:1008B000C9B22E220BF80120491CC9B255220BF8EF
:1008C0000120491CC9B258460BF80130491CC9B275
:1008D000FB224254491CC9B2F5224254491CC9B2F8
:1008E0004454491CC9B24454491CC9B24454491C1B
:1008F000C9B2974A4454491C9DF80030968FC9B23A
:10090000B3423FF457AFBCE39DF80A004FF0F20941
:1009100043287ED1C0210BF80610761CF1B2C2220A
:100920000BF80120491CC9B22E220BF80120491CEA
:10093000C9B2C1220BF80120491C5846C9B2E022B5
:100940004254491CC9B24E2200F80190491CC9B258
:100950004254491CCEB29DF80910092902D2313106
:10096000815514E0A1F109025A2A0FD2491C0A2329
:10097000B1FBF3F2904630328255761C03FB18111E
:10098000F6B230318155761CF1B205E08455761C03
:10099000F1B24454491CC9B26D4E4454491CC9B209
:1009A0004454491C9DF80020B38FC9B29A423CD1EF
:1009B0009DF8012096F838309A4236D19DF80220F1
:1009C00096F82C309A4230D14554491CC9B23A228B
:1009D00000F801A0491CC9B24254491CC9B245548F
:1009E000491CC9B200F801C0491CC9B24254491C93
:1009F000C9B200224554491CC9B20BF80170491C08
:100A0000CEB29DF804002121FFF7ECFD9DF8050012
:100A100000E042E000224021FFF7E4FD9DF80600DF
:100A200000222321FFF7DEFD37E04454491CC9B200
:100A300000224554491CC9B200F801A0491CC9B2A2
:100A400000F801C0491CC9B24454491CC9B24454FD
:100A5000491CC9B24554491CC9B20BF80170491C64
:100A6000CEB29DF802002121FFF7BCFD9DF80000E9
:100A700000222321FFF7B6FD9DF80100401E0C283F
:100A800002D301208DF801009DF8011031480022A9
:100A900000EB81004021FFF792FD9DF80A005328EA
:100AA0007ED1C0210BF80610761CF2B2C2230BF8DF
:100AB0000230521CD2B22E230BF80230521CD2B29A
:100AC000C1230BF80230521C5846D2B2E0238354A3
:100AD000521CD2B2432600F80290521C9DF80930F5
:100AE000D2B2092B08D231338354521CD2B2815472
:100AF000521CD1B246540EE0093B5A2B04D2815409
:100B0000521CD1B2465403E08454521CD1B2445416
:100B1000491CC9B244540E4E491C9DF80020B38FA5
:100B2000C9B29A4241D19DF8012096F838309A42D4
:100B30003BD19DF8022096F82C309A4235D145548D
:100B4000491CC9B200F801A0491CC9B23A2203E00D
:100B500000400240308A04004254491CC9B2455446
:100B6000491CC9B200F801C0491CC9B24254491C11
:100B7000C9B200224554491CC9B20BF80170491C86
:100B8000CEB29DF804002121FFF72CFD9DF8050051
:100B900000224021FFF726FD9DF80600002200E01C
:100BA0003BE02321FFF71EFD37E04454491CC9B246
:100BB00000224554491CC9B200F801A0491CC9B221
:100BC00000F801C0491CC9B24454491CC9B244547C
:100BD000491CC9B24554491CC9B20BF80170491CE3
:100BE000CEB29DF802002121FFF7FCFC9DF8000029
:100BF00000222321FFF7F6FC9DF80100401E0C287F
:100C000002D301208DF801009DF80110FA4800225E
:100C100000EB81004021FFF7D2FC9DF80A00542828
:100C200073D1C1210BF80610761CF1B2E0230BF84A
:100C30000130491CC9B24E220BF80190491CC9B2BF
:100C400058460BF80120491C9DF80920C9B2092A11
:100C500002D23132425400E04454491CC9B2ED2260
:100C60004254491CC9B2E3224354491CC9B2E34E61
:100C70004254491CC9B2F0224254491CC9B22E2226
:100C80004254491CC9B24454491C9DF80020B38FFA
:100C9000C9B29A423AD19DF8012096F838309A426A
:100CA00034D19DF8022096F82C309A422ED145542A
:100CB000491CC9B23A2200F801A0491CC9B24254E9
:100CC000491CC9B24554491CC9B200F801C0491CAD
:100CD000C9B24254491CC9B200224554491CC9B288
:100CE0000BF80170491CCEB29DF804002121FFF7DA
:100CF00079FC9DF8050000224021FFF773FC9DF868
:100D0000060000222321FFF76DFC37E04454491C04
:100D1000C9B200224554491CC9B200F801A0491CBF
:100D2000C9B200F801C0491CC9B24454491CC9B237
:100D30004454491CC9B24554491CC9B20BF801704E
:100D4000491CCEB29DF802002121FFF74BFC9DF813
:100D5000000000222321FFF745FC9DF80100401E02
:100D60000C2802D301208DF801009DF80110A24843
:100D7000002200EB81004021FFF721FC9DF80A00D2
:100D80005A286BD1C2210BF80610761CF1B2FB2257
:100D90000BF80120491CC9B2F0260BF80160491C70
:100DA000C9B22E230BF80130491C5846C9B2C722DC
:100DB0004254491CC9B2E0224254491CC9B24654AB
:100DC000491CC9B28D4E4354491CC9B24454491CF4
:100DD000C9B24454491CC9B24454491C9DF800206E
:100DE000B38FC9B29A423AD19DF8012096F83830B3
:100DF0009A4234D19DF8022096F82C309A422ED196
:100E00004554491CC9B23A2200F801A0491CC9B294
:100E10004254491CC9B24554491CC9B200F801C02A
:100E2000491CC9B24254491CC9B200224554491C4C
:100E3000C9B20BF80170491CCEB29DF80400212103
:100E4000FFF7D0FB9DF8050000224021FFF7CAFB09
:100E50009DF8060000222321FFF7C4FB37E044542D
:100E6000491CC9B200224554491CC9B200F801A06E
:100E7000491CC9B200F801C0491CC9B24454491CFC
:100E8000C9B24454491CC9B24554491CC9B20BF8F3
:100E90000170491CCEB29DF802002121FFF7A2FB90
:100EA0009DF8000000222321FFF79CFB9DF8010024
:100EB000401E0C2802D301208DF801009DF801107E
:100EC0004D48002200EB81004021FFF778FB9DF8A0
:100ED0000A0057286CD1C1210BF80610761CF1B21C
:100EE000E0220BF80120491CC9B258460BF80190CA
:100EF000491CCEB29DF80910092906D2313181551D
:100F0000761CF1B2F022425419E0A1F109025A2AEA
:100F100011D2491C0A23B1FBF3F2904630328255BC
:100F2000761C03FB1811F6B230318155761CF1B2F4
:100F3000F022425406E08455761CF1B24454491C18
:100F4000C9B24454491CC9B24454491CC9B244549E
:100F5000491CC9B24454491C00E09DE1C9B2274E66
:100F60004454491CC9B24454491C9DF80020B38F15
:100F7000C9B29A4244D19DF8012096F838309A427D
:100F80003ED19DF8022096F82C309A4238D1455433
:100F9000491CC9B23A2200F801A0491CC9B2425406
:100FA000491CC9B2455404E0B7E0FAE03EE175E1FE
:100FB00060E0491CC9B200F801C0491CC9B24254E2
:100FC000491CC9B200224554491CC9B20BF8017032
:100FD000491CCEB29DF804002121FFF703FB9DF8C8
:100FE000050000224021FFF7FDFA9DF806000022CF
:100FF0002321FFF7F7FA3DE0308A04000040024069
:101000004454491CC9B24554491CC9B200F801A056
:10101000491CC9B200F801C0491CC9B24454491C5A
:10102000C9B24454491CC9B24554491CC9B20BF851
:101030000170491CCEB29DF8020000E095E100224B
:101040002121FFF7CFFA9DF8000000222321FFF7AE
:10105000C9FA9DF80100401E0C2802D301208DF82A
:1010600001009DF80110FF48002200EB81004021A3
:10107000FFF7A5FA9DF80A004B287FF4D3AB01E0F7
:101080008AE042E1C1210BF80610761CF1B2E022A1
:101090000BF80120491CC9B20BF80190491C9DF8BE
:1010A0000900C9B24FF0E50909280ED231300BF81A
:1010B0000100491CC8B2EA210BF80010401CC0B264
:1010C0000BF80090401CC0B220E0A0F109025A2A9F
:1010D00018D2401C0A23B0FBF3F2904630320BF8D2
:1010E0000120491C03FB1800C9B230300BF8010085
:1010F000491CC8B2EA210BF80010401CC0B20BF822
:10110000009005E00BF80140491CC8B20BF8004004
:10111000401CC1B25846FFF7ECBBC0210BF80610CB
:10112000761CF1B2C2220BF80120491CC9B22E2252
:101130000BF80120491CC9B2C1220BF80120491C3F
:10114000C9B258460BF80180491CC9B24E2200F8BA
:101150000190491CC9B24254491CCEB29DF80910F5
:10116000092902D23131815514E0A1F109025A2A2C
:101170000FD2491C0A23B1FBF3F29046303282555C
:10118000761C03FB1811F6B230318155761CF1B292
:1011900005E08455761CF1B24454491CC9B244544C
:1011A000A7E0C0210BF80610761CF1B2C2220BF8A2
:1011B0000120491CC9B22E220BF80120491CC9B2DA
:1011C000C8220BF80120491C5846C9B2ED224254EE
:1011D000491CC9B24354491CC9B24754491C9DF823
:1011E0000920C9B2092A02D23132425412E0A2F1D6
:1011F00009035A2B0DD2521C0A25B2FBF5F303F159
:1012000030064654491C05FB1322C9B23032425401
:1012100003E04454491CC9B24454491CC9B2445463
:10122000491CC9B20BF80140BDE8FE8F9DF80A00C9
:101230005A28F9D10BF80610761CF0B2F1220BF8FF
:101240000020401CC0B2EA210BF80010401CC0B2C4
:101250005B460BF80090401CC0B2F0261E54401CA8
:10126000C0B22E211954401CC0B2E02203F8008005
:10127000401CC0B21A54401CC0B21E54401CC0B224
:101280001954401CC0B21C54FFF75FBA9DF80220ED
:1012900090F82C00824270D0584636E09DF80A0043
:1012A0005A28C1D10BF80610761CF1B2F0260BF8C3
:1012B0000160491CC9B2E0220BF80120491CC9B2E7
:1012C00058460BF80130491CC9B2ED230BF8013028
:1012D000491CC9B22E234354491CC9B200F80180ED
:1012E000491CC9B24254491CC9B24654491CC9B22E
:1012F0004354491CC9B25C4E4454491C9DF800201B
:10130000B38FC9B29A423FF4BDAA4454491CC9B232
:1013100000224554491CC9B200F801A0491CC9B2B9
:1013200000F801C0491CC9B24454491CC9B2445414
:10133000491CC9B24554491CC9B20BF801709DF84B
:1013400002002121FFF74EF99DF800000022232121
:10135000FFF748F99DF80100401E0C28FFF464AA2D
:1013600001208DF80100FFF75FBA9DF8012090F889
:1013700038309A4290D189E7FFE75846FFF726BAFE
:1013800070B50446084615461E46FEF7C7FF374BA4
:101390000146FF2804D106E01A54641C401CC0B268
:1013A0002278002AF8D132480078002804D0002E94
:1013B00002D029445F20585470BD2DE9FF4F81466B
:1013C000DDE90D048A469346FEF7A8FF2022DFF8E8
:1013D000A08026490A234FF0640C012C09D198F80B
:1013E000005035B10D18A5F10E05AA706A702A706B
:1013F00020E099FBF3F603FB16970D183037A5F1A3
:101400000E05022CAF7096FBF3F703FB176606F18F
:1014100030066E7099FBFCF606F1300605F80E6B8F
:1014200008D198F800602EB1A5F10A05AA706A707B
:101430002A702AE09AFBF3F603FB16A730370D1843
:10144000A5F10A05AF7096FBF3F703FB176606F1EB
:1014500030066E709AFBFCF606F13006674605F81A
:101460000A6B07E0308A040000400240A2C3072054
:101470006CC00720032C08D198F800602EB1A5F1AC
:101480000605AA706A702A7022E09BFBF3F603FB44
:1014900016B70D183037A5F10605042CAF7096FB72
:1014A000F3F703FB176606F130066E709BFBFCF644
:1014B00006F13006674605F8066B09D198F800403A
:1014C00034B1A5F102050A546A702A70BDE8FF8F95
:1014D000039C94FBF3F203FB124430340C5492FB54
:1014E000F3F403FB14220844A0F1020030324270EE
:1014F000039991FBF7F101F130010170E6E710B5B6
:101500000C46FEF70BFFBF490CB1032200E004229A
:101510000A5410BD17B501EB810002EB8000C2B286
:101520009DF80030B84803F00F0100EB1313445C42
:10153000B4498C54521ED2B21B788B549DF80130A2
:10154000521E03F00F04D2B2045D8C54521E00EB05
:101550001313D2B21B788B549DF80230521E03F045
:101560000F04D2B2045D8C54521E00EB1313D2B29E
:101570001B788B549DF80330521E03F00F04D2B237
:10158000045D8C54521E00EB1310D2B200788854C4
:101590001EBD01EB810102EB81019B4A10B500F0F9
:1015A0000F03C9B2D45C974B02EB10105C54491E78
:1015B000C9B20078585410BD30B594490123914DFB
:1015C00091F9012091F9041000EB80048A4202D1C4
:1015D00005F8243030BD8B4D4C1C00EB800005EB32
:1015E0008000A24201D1037530BD8C1CA24202D101
:1015F00080F8283030BDCC1CA24202D180F83C30AB
:1016000030BD0C1DA24202D180F8503030BD4C1DBF
:10161000A24202D180F8643030BD8C1DA24202D1BA
:1016200080F8783030BDC91D8A42FBD180F88C30FB
:1016300030BD774A13885B1E1BB21380002B01DC80
:10164000002313809BB2184400B21080714A00EB53
:10165000800002446D481368036012790271427879
:10166000114441707047F0B5694D6A4FB5F90040BB
:1016700004EB8406641C2C80644C3E442568356071
:1016800025793571207061702271A370F0BDF0B5BD
:1016900005460E461746FEF738FE5A4C5FF000002E
:1016A000401C15F8011BC0B204F8011B1428F7D325
:1016B0005FF00000401C16F8011BC0B204F8011BCB
:1016C0001428F7D35FF00000401C17F8011BC0B2CC
:1016D00004F8011B1428F7D35FF00000401C13F836
:1016E000011BC0B204F8011B1428F7D3F0BD30B5BC
:1016F0006425039C94FBF5F4474D2C70474C206007
:1017000047480160474802604748036030BD2DE903
:10171000FE4340010D4600F58060044602A938F002
:101720004CFF694604F1080038F047FF01A904F1B5
:101730000C0038F042FF2846FEF7F0FD314C202522
:1017400030262554401CC0B24FF021082654401CBE
:10175000C0B24FF0400C04F80080401CC0B22321FE
:1017600004F800C0401CC0B200222554401CC0B286
:101770002554401CC0B22654401CC0B22154401C09
:10178000C7B29DF802002121FEF72CFF9DF8000052
:1017900000222321FEF726FF9DF80100401E0C28A1
:1017A00002D301208DF801009DF801001F4900229D
:1017B00001EB80004021FEF702FFE5557F1CF8B2E7
:1017C0003A212654401CC0B2002204F80080401C7C
:1017D000C0B22154401CC0B221212654401CC0B2CA
:1017E00004F800C0401CC6B29DF80400FEF7FAFEE3
:1017F0009DF8050000224021FEF7F4FEA555BDE846
:10180000FE830000A2C30720BA8A040020C3072079
:10181000CEC40720BE5400107AC00720F8C20720AB
:10182000FCC2072000C3072004C30720308A04003D
:101830002DE9F05FFF4E002796F82300022803D021
:101840007770B770F7703771DFF8ECA3DFF8ECB39F
:10185000DFF8EC83BAF90000DFF8E893FA4DFB4CAF
:1018600008B102287ED1BBF9000000287ADDF848D3
:10187000B8F90220B0F9000000EB8003F248B2EBA7
:10188000430FB0F90010F148B0F900000EDA41F052
:1018900001012980C00718D1002308220521EDA0ED
:1018A00034F06AFD208840F001000DE021F00101D4
:1018B0002980C00709D0012308220521EDA034F0BA
:1018C0005BFD208820F00100208098F83F10CA07B7
:1018D0002A8809D042F002022A80B4F90020930736
:1018E0000CD442F0020208E022F002022A80B4F98D
:1018F0000020930702D522F002022280890729885E
:1019000009D541F004012980B4F900104A070CD42C
:1019100041F0040108E021F004012980B4F900102D
:101920004A0702D521F004012180B9F90010B8F965
:1019300008004A42904203DA288840F0080004E098
:10194000884203DD288820F00800288096F82300CC
:10195000012802D196F82400B8B1288820F01000A0
:10196000288000E042E12088C00609D5072308222C
:101970000521CAA034F000FD208820F0100020804E
:1019800096F82300022811D021E0288840F01000AA
:1019900028802088C0061AD4062308220521C7A063
:1019A00034F0EAFC208840F01000E8E7288840F096
:1019B00020002880208880061AD408231A46052192
:1019C000C6A034F0D9FC208840F020000FE0288821
:1019D00020F0200028802088800609D509230822CD
:1019E0000521C7A034F0C8FC208820F0200020800A
:1019F0007078002828880FD040F040002880208888
:101A0000400619D40A2308220521C6A034F0B4FCEC
:101A1000208840F040000EE020F040002880208820
:101A2000400609D50B2308220521C7A034F0A4FCE9
:101A3000208820F040002080CC48007802282888A8
:101A400023D020F0800028802088000609D50B23B1
:101A500008220521C6A034F08FFC208820F08000E9
:101A60002080B078002828881FD040F4807028801B
:101A70002088C00529D40C2308220521C4A034F0F5
:101A80007BFC208840F480701EE040F080002880BD
:101A900020880006E5D40A2308220521C4A034F0DA
:101AA0006BFC208840F08000DAE720F4807028800A
:101AB0002088C00509D50D2308220521C4A034F0D3
:101AC0005BFC208820F480702080707900282888B2
:101AD0000FD040F4007028802088800519D40E2390
:101AE00008220521C3A034F047FC208840F4007090
:101AF0000EE020F4007028802088800509D50F238F
:101B000008220521C3A034F037FC208820F400709F
:101B10002080F078002828880FD040F4806028804A
:101B20002088400519D4102308220521C1A034F0D3
:101B300023FC208840F480600EE020F48060288040
:101B40002088400509D5112308220521C2A034F0C0
:101B500013FC208820F480602080F07900282888F9
:101B60000FD040F4006028802088000519D412238B
:101B700008220521C2A034F0FFFB208840F4006059
:101B80000EE020F4006028802088000509D513238A
:101B900008220521C1A034F0EFFB208820F400606A
:101BA00020803079002828880FD040F48050288089
:101BB0002088C0041CD4142308220521BFA034F0BF
:101BC000DBFB208840F480500EE020F48050288019
:101BD0002088C0040CD5152308220521C0A034F0AC
:101BE000CBFB208820F48050208001E02F802780CC
:101BF000BAF9020008B1022803D1BBF8000002289C
:101C000003D06F806780BDE8F09F1148B8F94E108F
:101C10004746B0F9000000EB8000B1EB400F688848
:101C200006DA40F0010068806088C00701D169E1F0
:101C300072E181E1040000101CC6072060C107208A
:101C4000643800101AC10720E4E6072014020010CF
:101C500012C1072042415420233120416C61726D32
:101C60002C2062617474657279206973206C6F77BF
:101C70000000000042415420233120416C61726D0C
:101C800020636C6561722C206261747465727920C6
:101C90006973206E6F74206C6F770000424154208E
:101CA00023312C20636170616369747920746573DA
:101CB000742073746F70706564000000424154209A
:101CC00023312C20636170616369747920746573BA
:101CD0007420737461727465640000004241542082
:101CE00023312C6C6576656C696E67206368617260
:101CF0006765206973207374617274656400000005
:101D00004241542023312C6C6576656C696E6720E6
:101D10006368617267652069732073746F707065A2
:101D2000640000004241542023312C6C6576656CC0
:101D3000696E672063686172676520697320626CF1
:101D40006F636B65640000004241542023312C6CAA
:101D50006576656C696E6720636861726765206986
:101D60007320756E626C6F636B65640035C007200D
:101D70004241542023312C7370656564206368618F
:101D80007267652069732073746F707065640000FA
:101D90004241542023312C7370656564206368616F
:101DA00072676520697320626C6F636B6564000005
:101DB0004241542023312C7370656564206368614F
:101DC00072676520697320737461727465640000C2
:101DD0004241542023312C7370656564206368612F
:101DE00072676520697320756E626C6F636B6564E2
:101DF000000000004241542023312C657175616C54
:101E00006973696E67206368617267652069732012
:101E10006F6E00004241542023312C657175616C56
:101E20006973696E672063686172676520697320F2
:101E30006F6666004241542023312C657175616CD8
:101E40006973696E672063686172676520697320D2
:101E5000626C6F636B6564004241542023312C65D2
:101E60007175616C6973696E67206368617267651B
:101E700020697320756E626C6F636B65640000008F
:101E80004241542023312C6D6F6C64696E6720636E
:101E90006861726765206973206F6E00424154204B
:101EA00023312C6D6F6C64696E67206368617267A3
:101EB00065206973206F666600000000424154206F
:101EC00023312C6D6F6C64696E6720636861726783
:101ED0006520697320626C6F636B656400000000AD
:101EE0004241542023312C6D6F6C64696E6720630E
:101EF000686172676520697320756E626C6F636BD1
:101F000065640000162308220521FFA034F034FA8E
:101F1000608840F001000EE020F0010068806088D9
:101F2000C00709D0172308220521FFA034F024FAA6
:101F3000608820F00100608097F88B00C1076988F5
:101F400009D041F002016980218889070DD4618898
:101F500041F0020108E021F002016980B4F90210A9
:101F60008A0702D521F0020161808007688809D5BF
:101F700040F004006880B4F9020041070CD440F03E
:101F8000040008E020F004006880B4F90200410772
:101F900002D520F004006080B9F90000B7F95410B0
:101FA0004242914203DA688840F0080004E081422E
:101FB00003DD688820F00800688096F82300012877
:101FC00002D196F82400A8B1688820F0100068803B
:101FD0006088C00609D51D2308220521DCA034F045
:101FE000CBF9608820F01000608096F8230002286A
:101FF00011D021E0688840F0100068806088C00639
:102000001AD41C2308220521D9A034F0B5F9608820
:1020100040F01000E8E7688840F0200068806088A1
:1020200080061AD41E2308220521D9A034F0A4F971
:10203000608840F020000FE0688820F02000688071
:102040006088800609D51F2308220521D9A034F015
:1020500093F9608820F020006080707800286888FC
:102060000FD040F0400068806088400619D42023DB
:1020700008220521D8A034F07FF9608840F04000A4
:102080000EE020F0400068806088400609D52123DA
:1020900008220521D9A034F06FF9608820F04000B3
:1020A0006080DF4800780228688823D020F0800014
:1020B00068806088000609D5232308220521D9A05D
:1020C00034F05AF9608820F080006080B0780028F1
:1020D00068881FD040F4807068806088C00529D46B
:1020E000242308220521D7A034F046F9608840F463
:1020F00080701EE040F08000688060880006E5D4B3
:10210000222308220521D7A034F036F9608840F058
:102110008000DAE720F4807068806088C00509D507
:10212000252308220521D7A034F026F9608820F461
:10213000807060807079002868880FD040F400704B
:1021400068806088800519D4262308220521D6A03E
:1021500034F012F9608840F400700EE020F4007052
:1021600068806088800509D5272308220521D6A02C
:1021700034F002F9608820F400706080F078002864
:1021800068880FD040F4806068806088400519D46A
:10219000282308220521D4A034F0EEF8608840F40A
:1021A00080600EE020F4806068806088400509D57A
:1021B000292308220521D5A034F0DEF8608820F418
:1021C00080606080F079002868880FD040F400605B
:1021D00068806088000519D42A2308220521D5A02B
:1021E00034F0CAF8608840F400600EE020F400602B
:1021F00068806088000509D52B2308220521D4A01A
:1022000034F0BAF8608820F40060608030790028EB
:10221000688810D040F4805068806088C0043FF522
:10222000F2AC2C2308220521D1A034F0A5F8608857
:1022300040F480500FE020F4805068806088C00433
:102240007FF5E1AC2D2308220521D2A034F094F8CB
:10225000608820F480506080D5E42DE9FF41D64CA1
:102260000027054684F8277094F8230001210228EE
:1022700005D0D24A525D552A05D065200FE084F87A
:102280002710BDE8FF8105EB450202EB0513CC4AA0
:1022900002EB830696F83D20D30703D0662084F82E
:1022A0002700EEE796F83F309B0701D56720F6E759
:1022B000920701D56820F2E7C24AB6F90830B2F9B0
:1022C0000020934201DD6920E9E75242934201DA9E
:1022D0006A20E4E7012805D194F82400002811D0F1
:1022E000012810D004F12204642060716170A4F808
:1022F0004E1040F29A2038F0D7F9A5702946A4F87C
:10230000505061E1D4E1D5E14241542023322041D3
:102310006C61726D2C2062617474657279206973CE
:10232000206C6F770000000042415420233220418E
:102330006C61726D20636C6561722C2062617474D3
:10234000657279206973206E6F74206C6F7700005E
:102350004241542023322C20636170616369747997
:1023600020746573742073746F707065640000006E
:102370004241542023322C20636170616369747977
:102380002074657374207374617274656400000056
:102390004241542023322C6C6576656C696E67204F
:1023A0006368617267652069732073746172746514
:1023B000640000004241542023322C6C6576656C29
:1023C000696E672063686172676520697320737442
:1023D0006F707065640000004241542023322C6C01
:1023E0006576656C696E67206368617267652069F0
:1023F0007320626C6F636B6564000000424154207F
:1024000023322C6C6576656C696E67206368617237
:10241000676520697320756E626C6F636B6564001D
:1024200035C007204241542023322C737065656407
:10243000206368617267652069732073746F7070C0
:10244000656400004241542023322C73706565643A
:102450002063686172676520697320626C6F636BCB
:10246000656400004241542023322C73706565641A
:102470002063686172676520697320737461727488
:10248000656400004241542023322C7370656564FA
:102490002063686172676520697320756E626C6F76
:1024A000636B6564000000004241542023322C65B8
:1024B0007175616C6973696E6720636861726765C5
:1024C000206973206F6E00004241542023322C6536
:1024D0007175616C6973696E6720636861726765A5
:1024E000206973206F6666004241542023322C65B8
:1024F0007175616C6973696E672063686172676585
:1025000020697320626C6F636B65640042415420E4
:1025100023322C657175616C6973696E672063681D
:102520006172676520697320756E626C6F636B659D
:10253000640000004241542023322C6D6F6C6469AA
:102540006E6720636861726765206973206F6E0033
:102550004241542023322C6D6F6C64696E67206396
:102560006861726765206973206F6666000000000D
:102570004241542023322C6D6F6C64696E67206376
:10258000686172676520697320626C6F636B656454
:10259000000000004241542023322C6D6F6C6469AE
:1025A0006E672063686172676520697320756E626B
:1025B0006C6F636B6564000004000010BCC10720F1
:1025C000643800101AC1072040F29E2038F06CF8E1
:1025D000FF48B761002130F9150038F065F8E77061
:1025E000A4F8527039464FF4287038F05DF8F94875
:1025F000F94D0088401C00F0070006EB4000008CFD
:10260000ADF80000A88B8DF804004FF063024FF086
:10261000010101A8FDF733FEF04C9DF80400207085
:10262000287E8DF804000C22012101A8FDF727FE69
:102630009DF804006070287B8DF804001F220121A2
:1026400001A8FDF71CFE9DF80400A0709DF8000095
:10265000E07040F2A220216838F061F8287A8DF805
:1026600004001722002101A8FDF709FE9DF80400CF
:10267000207128798DF804003B22002101A8FDF784
:10268000FEFD9DF80400607128788DF804003B225F
:10269000002101A8FDF7F3FD9DF80400A0719DF84D
:1026A0000100E07140F2A620616838F038F8E8E5F2
:1026B0006B20F4E56C20F2E52DE9F047C74CD43CE3
:1026C00094F8230001287ED12046012790F82400A9
:1026D00094F82510C0F1010207FA02F0BC4EC04D7B
:1026E00002B211B1012936D03AE01423CA21C82020
:1026F000FDF746FD14234FF0FF32CE21CD20FDF72C
:102700003FFD94F8240000EB400101EB001005EBC5
:102710008000B0F90800FDF7F3FD94F8241001EBF8
:10272000410202EB011205EB82029369184448F65C
:10273000A0439061984213DBC01A906136F81100F3
:1027400037F0BEFE401C01B294F8240036F91000A8
:1027500037F0AAFF04E01423CA21C820FDF710FDBA
:1027600094F82400A84600EB400101EB001205EBB1
:1027700082019C4AB1F902100025B2F9002040F212
:102780009A2902EB8202B1EB420F4ADAB4F86C10DC
:10279000491C09B2A4F86C101E2944DB94F82310DC
:1027A000012925D194F8251011BB36F8100037F017
:1027B00087FE01B28C4814F8242F30F9120037F04C
:1027C00073FF207800E052E036F8100037F078FE12
:1027D00081B2207805F019FD8448217830F9110084
:1027E000002137F061FF3220E0812082A4F124042F
:1027F0007F4994F82400C0F10100085C552808D0F6
:1028000084F82350A4F870500021484637F04CFF5C
:1028100009E084F82570A4F8747001214FF4287041
:10282000F4E7A4F86C5094F8241001EB410000EB9D
:102830000112C1F1010101EB410303EB011108EBAE
:10284000820208EB8100B2F90220B0F90200824254
:102850000DDB94F82500012809D184F82350A4F851
:1028600070504846BDE8F047002137F01DBFBDE875
:10287000F08770B5594C0026D43C054694F82300E7
:1028800070BB5C48008801282AD004F13204022180
:1028900004F80F1CE18740F29A2037F005FFC5EBE2
:1028A0000510E5868000A087A4F1320415B91E202A
:1028B000A4F86E0004F164044FF42770B4F90A1010
:1028C00037F0F2FEB4F90A104FF42A7037F0ECFE3C
:1028D0000020E080208060800126304605F023FD46
:1028E000304670BD10B53D4CD43C94F8230002280E
:1028F00012D104F13204E08E05F015FD002060864F
:10290000E086208704F80F0CE0870146BDE8104000
:1029100040F29A2037F0C8BE10BD70B52E4C203C56
:1029200094F83800344D297808440C2803D9A08F36
:10293000401C01B201E0B4F93C10B82037F0B4FEFD
:1029400094F83810287801440C2994F8381000D9EC
:102950000C380144B62037F0A7FE94F82C001C2850
:1029600001D91C2101E094F82C10B42037F09CFE12
:1029700004F12004217A4FF0AE0037F095FE217962
:10298000B02037F091FE2178BDE87040B22037F0DA
:102990008BBE10B51848114C0078D43CB0B30E482B
:1029A0002038818F154A1288914241D190F8381011
:1029B000134A128891423BD190F82C10114A128888
:1029C000914235D190F828100F4A128891421EE0AA
:1029D0009C830400F6C4072020400240D800001069
:1029E0006438001012C10720B883040098830400E3
:1029F000BCC10720B0C2072075C00720CAC107208C
:102A0000C8C10720C6C10720C0C1072010E00FD1F0
:102A100090F82410FF4A1288914209D190F82000C2
:102A2000FD490988884203D1012084F8260003E08B
:102A300094F8260000280CD0F8480088C0B2FFF7B0
:102A400018FF002805D0002084F82600BDE81040BB
:102A500063E710BD38B5F24C94F8230002281CD16E
:102A6000F0480078012819D0EF480088002815D0D8
:102A700001206070ED4800784FF00A01B0FBF1F2E0
:102A800001FB1200002808D141F288300090E8A331
:102A9000EDA2F3A1F8A0FEF72AFE38BDB4F8660057
:102AA0004FF461610025884212D2401C80B2A4F824
:102AB000660088420CD3A4F86650B4F8680038B1B8
:102AC000401E24F8680F6088401C6080A4F16804F0
:102AD000B4F864003C2823D2401C80B2A4F86400FF
:102AE0003C281DD324F8645F6089401E01B26181D7
:102AF0004FF4277037F0D8FD6089A4F1640418B151
:102B0000E348008801280BD184F82350A4F87050C2
:102B1000002140F29A2037F0C7FD002005F003FCA9
:102B2000657038BDBE4910B591F823200020002AF9
:102B30000ED1D74A1288012A0AD04A79002A07D131
:102B40000120487101464FF4C97037F076FD01202D
:102B500010BDB3484179002905D0102141714FF4CF
:102B6000C97037F06ABD7047AD4910B591F82320A0
:102B70000020002A0ED1C64A1288012A0AD04A79BA
:102B8000002A07D10120C87101464FF4CA7037F0FE
:102B900054FD012010BDA248C179002905D01321A0
:102BA000C1714FF4CA7037F048BD7047B9486FF033
:102BB0003B010088C0EB001001EB80009849A1F8B0
:102BC000580070472DE9F05FDFF85492B1480026B5
:102BD000B9F85810B04F491C09B2A9F85810B0F90B
:102BE0000000AE4DC0EB00124FF0010B09F15E0486
:102BF0004FF00A08B1EB820F55DBF0B3A9F858602B
:102C00002670DFF89CA2667089F81D609AF80000B3
:102C1000552811D1B5F9020050280DDDB5F908008D
:102C2000FDF76EFBB7F90010884203DB95F83D0015
:102C3000C00701D084F800B09AF80100552811D1DE
:102C4000B5F94E0050280DDDB5F95400FDF758FBDD
:102C5000B7F90010884203DB95F88900C00701D05E
:102C600084F801B08F48007868B999F81E1048467A
:102C700049B190F8231019B100E014E0022902D103
:102C80008949097821B12670667089F81D6008E0CD
:102C9000217801291DD0617801291AD0417F0129AD
:102CA00017D0A9F85A604846B9F95A10DFF8709160
:102CB000DFF8F8A109F18609F1B383460246491EFF
:102CC00008B2A2F85A00052806DD0F231E2264214F
:102CD00007E0A9F85A80E6E700281BDD0F231E2233
:102CE0006921E120FDF74CFABBF85A00052811D103
:102CF000B5F90800FDF704FBA9F80000B5F9540088
:102D0000FDF7FEFAA9F80200BAF90000FDF7F8FA9B
:102D1000ABF860004248B0F85A00002841D1AB46F9
:102D2000B5F90800FDF7ECFA3D4D8A352880BBF96E
:102D30005400FDF7E5FA00E038E06880BAF90000D9
:102D4000FDF7DEFADFF8D8A0AAF86200AAF85C6006
:102D5000B9F90000B5F900100844B7F9001088422D
:102D600002DA2078012817D0BBF90200C82804DD58
:102D700000212670084604F082FDB9F90200B5F979
:102D800002100844B7F90010884202DA607801287E
:102D900005D0BBF94E00C7E0AAF85C80EDE7AAF8C1
:102DA0005C80BDE8F09F6670002133E1B0F95C10F3
:102DB00079B380460246491E08B2A2F85C00052895
:102DC00003DD0F23C822642104E000281BDD0F234C
:102DD000C8226921E120FDF7D3F9B8F85C00052885
:102DE00011D1B5F90800FDF78BFAA9F80000B5F983
:102DF0005400FDF785FAA9F80200BAF90000FDF7C2
:102E00007FFAA8F860000648B0F85C000028C8D136
:102E10004EE093E0C2C10720C4C10720CCC1072007
:102E200004000010C8C2072024C20720204002402E
:102E300020202020C2C5CDD2C8CBDFD6C8DF2121BB
:102E400021202020000000002020202020CDC5C807
:102E5000D1CFD0C0C2CDC020202020200000000053
:102E600020202020C7C0C1CBCECAC8D0CEC2C0CD82
:102E70002020202000000000C2DBD0C0C2CDC8C28C
:102E8000C0DED9C8C920C7C0D0DFC4200000000000
:102E9000B0C207202CC107201AC1072064380010D7
:102EA000BCC107207EC0072035C0072026C20720EE
:102EB000DFF8F083B8F90800FDF722FAFA4D288010
:102EC000B8F95400FDF71CFA6880BAF90000FDF764
:102ED00017FAA5F18A08A8F8620088F81C60B9F909
:102EE0000000B5F900100844B7F90010884202DA72
:102EF000207801281CD0EB48B0F90200C82804DD76
:102F000000212670084604F0BAFCB9F90200B5F9B0
:102F100002100844B7F90010884202DA60780128EC
:102F200009D0E048B0F94E00C8283FF73CAF38E779
:102F300088F81CB0E9E788F81CB032E78146007FCA
:102F40000028F4D00F2300226E21E120FDF718F9AC
:102F5000B5F90800FDF7D4F9B7F90010884207DD8C
:102F60002078012804D100212670084604F087FC4F
:102F7000B5F95400FDF7C4F9B7F90010884206DD31
:102F80006078012803D16670002104F078FC207875
:102F900030B9607820B999F81D1009B989F81C601A
:102FA000E620FDF704F918B1C0480068E7280AD008
:102FB000BF48C049B0F90000B1F9001000EB800033
:102FC000B1EB400FB3DA89F81C602078BA4E0128C3
:102FD0000FD1B7F90000410091FBF8F0B6F90010ED
:102FE000884206DA95F83D00C00702D1012104F0BD
:102FF00046FC607801289AD1B7F90000410091FBA6
:10300000F8F0B6F90010884291DA95F88900C00707
:103010008DD10121BDE8F05F012004F030BC2DE925
:10302000F047A14C8A3CB4F85600401C00B2A4F80A
:103030005600B0F5E16F03DB0020A4F8560016E45B
:10304000B0F5DF6F13D9E07988B90F23012264212D
:10305000D220FDF795F80F230022D821D720FDF7C5
:103060008FF80F230022D821DC20FDF789F8B4F96E
:103070005600A0F5E0610739E1D1E0790028DED102
:103080008E4F8F4C874D388821880A26DFF834828E
:10309000DFF83492884210D0B5F9080090FBF6F0C2
:1030A00000B2FDF72DF9B8F90010884205DAB4F93D
:1030B0000010B9F9000037F0F7FA78886188884283
:1030C000BDD0B5F9080090FBF6F000B2FDF718F995
:1030D000B8F900108842B2DAB4F90210B9F9020066
:1030E000BDE8F04737F0E0BA10B5784C082200216F
:1030F0002088401C20802046FDF7D7F86948B4F9A5
:10310000001000EB410142880A84B0F84E00A1F89B
:103110006C0010BD2DE9F0416D49B1F9000008B116
:10312000401E08806C486B4E5F4CB0F900306B4815
:10313000B6F900200A2790F900108A3C9A421ADA60
:10314000674D0A290EDA674BB3F900300F2B0ADD01
:10315000491C49B201700A2905DB2A80012003F0CD
:1031600007FD00E00770B6F90000B5F900108842CD
:103170000EDA28800CE00BDD51B1491E49B2017016
:10318000002905DC002003F0F3FC84F8307003E034
:1031900094F83000002803D014F8300F401E20703F
:1031A000BDE8F0812DE9F84F3F484F498A38504E2D
:1031B000408FB1F900104FF4FA6A48434B49394C3B
:1031C00090FBF1F043494C4D08804A48B6F9001095
:1031D000B0F900204A4392FBFAF26280B6F9083057
:1031E000B5F900205A434FF42F7392FBF3F2A280FB
:1031F000B6F91820B0F90200504390FBFAF0A4F899
:103200004E00B6F90210B5F90200484390FBF3F006
:10321000A4F85000DC20FCF7EAFFE8BB284BDFF8FD
:103220009CB0DFF8D8E01888BBF8001045F692652E
:10323000401ABEF9001045F2FA574143304845F2B2
:10324000136245F2116C00884FF47A79A0F5B0480A
:10325000B8F5C76801D0A84204D14FF4967891FB25
:10326000F8F10AE0B84203D0904201D0604502D1A3
:1032700091FBFAF101E091FBF9F121815988BBF84A
:103280000230CB1ABEF902105943A0F5BC43383BBB
:1032900001D0A84236D100E041E04FF4967091FB96
:1032A000F0F03AE0643800108E00001004010010C5
:1032B00012C1072028C207202AC20720D8C407202D
:1032C0003A02001024C10720C4830400F6C407207A
:1032D0004A01001038C2072014C10720C80100109D
:1032E00002C507209AC00720E0C40720B0AD010046
:1032F000B4370010D4C407209E010010A2010010B2
:10330000BEC10720B84203D0904201D0604502D12F
:1033100091FBFAF001E091FBF9F0A4F85400B6F942
:103320000C1040F6B7370A46A1F2213101250020E2
:103330008946B94201D2207300E02573DFF834C416
:1033400044F62068BE46BCF90010514391FBF8F1E9
:10335000A1F211116181B6F90E100B46A1F22131D3
:103360000091714502D284F8580001E084F8585069
:103370003146BCF9026044F620675E4396FBF7F6DF
:10338000A6F21116FC4FA4F85660B1F90460B7F923
:103390000070F0467E4396FBFAF6F84F3E80B1F996
:1033A0000A60F749B446A6F22136764501D2087084
:1033B00000E00D70DFF8CCB3C145BBF90060B64644
:1033C00006FB0CF644F6206C96FBFCF7EE4EA7F2DB
:1033D0001117378001D2487000E04D70BBF90270C0
:1033E000574397FBFCF2A2F2111212B2924672807E
:1033F000E64AB2F90620A2F22137474501D2887089
:1034000000E08D70BBF90470574397FBFCF2A2F209
:10341000111212B2B280009F9346474501D2087044
:1034200000E00D700EFB03F797FBFCF3A3F2111302
:103430003380C14501D2487000E04D70D44DD54F66
:10344000A6F802A02B88B7F900204FF47A6C5A43F3
:1034500092FBFCF2D04B92B2D04ED0461A80642A36
:1034600001D3CF4A128832806A88B7F9025008F235
:103470001118554395FBFCF25A80CA4ADFF828C35D
:10348000B2F90030BCF900505D4341F2707395FB16
:10349000F3F6C64D2E80B2F90270BCF902607E438D
:1034A00096FBF3F66E80BCF90470B2F90460DFF8A5
:1034B00004C3774397FBF3F6AE80BD4DB2F90670B7
:1034C000B5F900607E4396FBF3F6ACF80060B2F904
:1034D0000870B5F902607E4396FBF3F6ACF8026023
:1034E000B2F90A20B5F90450B34E554395FBF3F2F7
:1034F000ACF804200FFA88F30BF21112338015B2E6
:1035000075804A78327289787172AC4E22B1012A84
:103510000ED012B10DD020E011B1012910D01CE065
:10352000591901EBD1716FF4887202EB610113E05C
:1035300011B1012908D010E0A5F2111535800CE079
:10354000A3F21113338008E09D490978052902D2BE
:103550009C49098800E0142131809B499B4AA1F8CD
:103560004A00B2F900500A22002D07DDB4F90830F4
:1035700093FBF2F3834201DDA1F84A30012D09DD0E
:10358000B4F95430B1F94A6093FBF2F3B34201DD70
:10359000A1F84A30A1F84A00002D13DDB4F9083033
:1035A00093FBF2F3834201DDA1F84A30012D09DDDE
:1035B000B4F95430B1F94A6093FBF2F3B34201DD40
:1035C000A1F84A3082490023DFF80882B1F900608F
:1035D00033E000BF03EBC30101EB031108EB8101F2
:1035E000CF78192F20D28F7991F807C007EB0C27DD
:1035F0004F620F7A91F809C007EB0C270F628F7AA0
:1036000091F80BC007EB0C27CF610F7B8F624F7BCC
:1036100081F856708F7B81F842700F7C91F811C051
:1036200007EB0C270F6506E0C861486208628862F4
:1036300081F8420008655B1CDBB2B342CADBB4F917
:103640000830B4F9544093FBF2F394FBF2F21A44BD
:103650006149524214B2614B0C800022188011E083
:1036600002EBC20707EB021708EB870797F803C0C6
:10367000BCF1050F04D27F6AB3F800C067441F8015
:10368000521CD2B2B242EBDB1A88224412B20A8038
:10369000002A00DA08805249B1F90060EEB3002335
:1036A000504C61E003EBC30101EB031108EB810116
:1036B00091F8D327192A3DD201F2D6710A784F78B2
:1036C00002EB072703EB430204EB4212D7618F782A
:1036D00091F803C007EB0C27D7620F7991F805C06A
:1036E00007EB0C2797618F791762CF7982F84670C4
:1036F0000F7A91F809C007EB0C2797628F7A91F83F
:103700000BC007EB0C27576290700F7B82F8597043
:103710004F7B82F85A708F7B00E027E082F8587068
:10372000CF7B82F85B700F7C82F85C70497C82F8FA
:103730005D1017E003EB430104EB41111922C8614E
:10374000C8628861086281F84600486288628A70AF
:1037500081F8590081F85A0081F8580081F85B001F
:1037600081F85C005B1CDBB2B3429BDB00201E4A8D
:103770004DE00000DCC40720AC01001028C2072087
:10378000C5C20720A60100105AC30720B437001095
:1037900016C50720E2C4072060C307205AC20720CD
:1037A00038C20720C4E90720D401001066C30720EF
:1037B0001EC507206CC307207454001048C20720A0
:1037C0008BC007201CC507200400001062C1072021
:1037D00064C10720EC3A00102AC20720CE01001075
:1037E00066C1072098480010F039001000EB400136
:1037F00001EB001102EB81016424B1F91230634343
:10380000B1F91040401CB3FBF4F38B86C0B2A84260
:10381000ECDBBDE8F88FFD4AFD481178042900D0A3
:1038200029B9517819B9FB490978552902D0FA49C3
:10383000098803E00178002901D0491E0170704712
:1038400000EBC00101EB0011F44800EB810090F89F
:103850005E10002912D190F85F1000290ED1B0F847
:10386000601000290AD13C2100F85E1F032141703D
:10387000EB494FF46162098851434180704700EB86
:10388000C00202EB0012E548002100EB820000F8C4
:103890005E1F4170418070472DE9F041E14B0025EA
:1038A000E14FDD744FF03C0C4FF00208DB4CDF4E73
:1038B00085E0DF49097849B900EBC00101EB00114F
:1038C00004EB810101F85E5F4D704D80397839B9A4
:1038D00000EBC00101EB001104EB8101A1F8605085
:1038E00000EBC00101EB001104EB810191F85E20B7
:1038F0002AB991F85F2012B9B1F860207AB38A78BA
:10390000012A14D081F86350D87C00EBC00101EB90
:10391000001004EB800090F85E1059B3491EA0F827
:10392000605011F0FF0180F85E100DD02FE091F88B
:1039300063203C2AE8D2521CD2B281F863203C2A90
:10394000E2D3FFF79CFFDFE790F85F1041B1491E1B
:1039500080F85F1080F85EC080F8628021E016E099
:103960003978012913D1AE494FF461620988514376
:10397000A0F86010B0F8601049B1491E0904090CA4
:10398000A0F8601003D180F85F8080F85EC0D87C1A
:1039900000EBC00101EB001004EB800090F8620026
:1039A00050B1D87C00EBC00101EB001004EB8000AB
:1039B00010F8621F491E0170D87C401CD874D87C56
:1039C000B6F900108842FFF674AFBDE8F08199485F
:1039D000416821F4402141F480214160416821F493
:1039E000403141F480314160416821F4404141F46B
:1039F00080414160416C21F4402141F40021416447
:103A0000416C21F4403141F400314164416C21F4B6
:103A1000404141F4004141648748016821F0E06180
:103A20000160016841F400110160016821F48031F6
:103A30000160016821F47F4141F4807101608115CA
:103A4000C1607E488903016070472DE9F041754CE3
:103A5000C83460882188401A00B205F0ABF9A51D72
:103A60002880A0886188401A00B205F0A3F9688018
:103A7000A0882188401A00B205F09CF94FF4967294
:103A80006849A880904201DAA0880AE0B5F90200EE
:103A9000904201DA608804E0B5F90000904201DA52
:103AA0002088888791F80AC00023BCF1000F25D038
:103AB0006348B1F93C200468144404604468144429
:103AC0004460846814448460C4682244C260B1F8CD
:103AD0004420521C12B2A1F84420B2F5805F01DBF1
:103AE000A1F84430B1F9442094052FD1921250F836
:103AF000224024124C8740F8223027E0514FC87AE8
:103B00000C7B07EB8015B1F93C2045F82420A20777
:103B100010D100252A4607EB801600BF56F8227008
:103B2000521CD2B23D44102AF8D32A11444D203DF4
:103B300025F81020401CC0B2C872102806D3641C9F
:103B4000E0B2CB720873102800D30B730CF1010C98
:103B50004B721CF00100384A887205D0106820F0C2
:103B6000FF00001D106034E0C97A080700281068C3
:103B700020F0FF0002DB00F1010001E000F1020093
:103B800010603148036843F080530360036A43F0D8
:103B900080430362036E43F080630366CB0743698F
:103BA00008D043F0805343618B07436B05D423F067
:103BB000804304E023F08053F5E743F08043436300
:103BC0004907416F02D421F0806101E041F080613A
:103BD0004167106840F080701060F6E6F0B5DFF8DD
:103BE00044C0BCF9360018B1401EACF83600F0BD38
:103BF0000520ACF836004FF0000E0C4A8CF81AE0A5
:103C000070460649B2F9004033E0000020C30720A7
:103C10002AC0072076C00720CEC10720EC3A00104A
:103C20009AC107200400001074C0072064C1072057
:103C300073C0072000C002400040034000E100E0E4
:103C4000D4370010B433001000C0092000EBC002CC
:103C500002EB001201EB82029378012B07D1D2789C
:103C6000142A04D29CF81A20521C8CF81A20401CEA
:103C7000C0B2A042EADB9CF81B00012510B18CF811
:103C80001BE001E08CF81B509CF81A60022EAED3AA
:103C9000FD4841F28832C0E904E20022C0F818E091
:103CA00017E000BF02EBC20303EB021301EB830337
:103CB0009F78012F0BD15B6A0769BB4200DD03616E
:103CC0004769BB4200DA436187693B448361521C08
:103CD000D2B2A242E6DB826992FBF6F2C26143698C
:103CE00003B94561036964267343466993FBF6F3A0
:103CF0000362822B01DD8CF819506E2B02DA8CF8EE
:103D000019E035E09CF81900012831D100236FF04B
:103D100031062BE003EBC30000EB031001EB800046
:103D20008578012D20D1456A954207DD9CF81B70EE
:103D300027B9B0F854707F1EA0F85470954207DA86
:103D40009CF81B5025B1B0F854506D1CA0F854508D
:103D5000B0F95450B54202DAA0F8546004E0322DB4
:103D600002DD3225A0F854505B1CDBB2A342D1DB4C
:103D700000BFF0BD2DE9F047C4480168C44A1140B6
:103D80000160C44C216841F47C712160C16921F457
:103D90004021C161216E41F000712166416821F02E
:103DA00040614160206840F000502060BB48BA4B41
:103DB000BC490278BA4893F83C50B1F90010007839
:103DC000154307D030B1052904DDA56945F4807598
:103DD000A56103E0E56945F48075E56193F88830F5
:103DE000134307D030B1052904DDA06940F040003D
:103DF000A06103E0E06940F04000E061D220FCF700
:103E0000F6F9A94D60B12868642809D168680128CD
:103E100001D028B108E0A06940F00050A06103E0A3
:103E2000E06940F00050E061D220FCF7E0F99F4EDD
:103E300010B12868662824D03068C00718B3A06F76
:103E400040F02000A067D220FCF7D1F910B128681B
:103E500066281DD03068C007E0B1A06940F020009E
:103E6000A061D220FCF7C3F910B12868682816D0E9
:103E70008F480078012817D0A06940F40070A06135
:103E800016E06868DAE7E06F40F02000E067DAE704
:103E90006868E1E7E06940F02000E061E1E7686818
:103EA0000028E9D0012803D1E06940F40070E06106
:103EB000D220FCF79CF910B128686F2803D07D4808
:103EC000007828B109E0686810B1012805D008E041
:103ED000E06940F01000E06103E0A06940F01000EC
:103EE000A061D220FCF783F910B128686B2803D0B9
:103EF0007148007828B109E0686810B1012805D040
:103F000008E0A06940F08000A06103E0E06940F0B3
:103F10008000E061D220FCF76AF910B128687028AF
:103F200003D06648007828B109E0686810B101281C
:103F300005D008E0A06940F04000A06103E0E0691E
:103F400040F04000E061D220FCF751F910B1286840
:103F500067280CD05A48007820B10B280CD9594852
:103F6000007848B1E06940F01000E06108E068685E
:103F70000028F7D0012803D1A06940F01000A0610B
:103F80005148008801287ED13F4900238039DFF85D
:103F90003C8191F82350DFF838C14E4CDFF838915E
:103FA0001846012239F91010CE070ED04B4E4C4F57
:103FB000B6F90060B7F9007006EB8606B7EB460F5E
:103FC00003DA02FA00F61E43F3B28E0707D5454E18
:103FD0003678022E03D102FA00F61E43F3B24E07E2
:103FE00005D5022D03D102FA00F61E43F3B20E07E7
:103FF00006D53D4E36681EB102FA00F61E43F3B2F6
:10400000CE0607D598F80060012E03D102FA00F61B
:104010001E43F3B28E0607D598F80060022E03D136
:1040200002FA00F61E43F3B24E061BD59CF801605F
:10403000F60603D5B4F90060012E0FDA9CF865602E
:10404000F60603D5B4F90060022E07DA9CF8C960C1
:10405000F60607D5B4F90060032E03DB02FA00F67A
:104060001E43F3B20E064FD59CF80160360703D00D
:10407000B4F90060012E43DA9CF86560360737D04A
:10408000B4F9006032E04CE08400001000C002404F
:10409000FF00F0FF00C0092064380010D0C40720E2
:1040A0002FC007209AC0072004010010240100102F
:1040B000CCC2072032C0072031C00720D1C407205E
:1040C00030C007209201001072C107208FC0072066
:1040D000EC3A001064C1072072C3072012C1072008
:1040E00028C2072035C0072020010010022E07DA61
:1040F0009CF8C960360707D0B4F90060032E03DBD3
:1041000002FA00F61E43F3B2090403D402FA00F1E6
:104110005940CBB2401CC0B20428FFF443AFFD4865
:104120000370BDE8F0872DE9F84FDFF8ECA3012418
:1041300000259AF8211050460A2909D2491CC9B213
:1041400080F821100A2903D380F821508AF82240F0
:10415000F14ECD2080367562B562FCF748F8DFF885
:10416000BC93DFF8BCB3B0B3EE484FF6FF72016802
:10417000CE290BD0CF290BD0D1290BD0D2290CD0EE
:10418000D0290CD0B1F59A7F0ED00BE0B26209E0D5
:10419000406806E04068706204E0726202E04068D5
:1041A00005E0B062002733E0416804FA01F0706274
:1041B000C043F6E704FA07F00090B16A084207EB43
:1041C000C70000EB071109EB810005D030F8401F54
:1041D000491C018002E020E0A0F8405007EBC70036
:1041E00000EB071109EB81008046403032220021AC
:1041F000FCF750F8B8F94000142801DD88F82C408D
:104200000098716A084201D088F82C507F1CFFB2D8
:10421000BBF900008742CDDD8AE09AF822005646BD
:10422000E8B300231A464946BBF900000AE000BF84
:1042300002EBC20707EB021701EB8707521C87F856
:104240002C40D2B28242F3DD002224E0C7B2202FFC
:1042500000D9202796F829C0844501DB4FF0000CD7
:1042600094440CF0FF0CBCFBF7F807FB18C707EBF6
:10427000C70C0CEB071701EB870797F802C0BCF1DE
:10428000020F02D0BCF1010F03D15B1C87F82C5048
:10429000DBB2521CD2B2824206DAA34F00E047E002
:1042A000B7F90070BB42D1DB9AF82A2002EBC203B7
:1042B00003EB021201EB820282F82C509B4AB2F906
:1042C00000203C2A0EDA00220AE000BF02EBC20303
:1042D00003EB021301EB8303521C83F82C50D2B280
:1042E0008242F3DD924A128872B100220AE000BFD6
:1042F00002EBC20303EB021301EB8303521C83F8AE
:104300002C40D2B28242F3DD00226FF031060DE084
:1043100002EBC20303EB021301EB830393F82C704F
:10432000012F01D1A3F85460521CD2B28242EFDDBA
:10433000002063264946BBF900700DE000EBC00287
:1043400002EB001201EB8202D36B1BB182F82C60EE
:104350005B1ED363401CC0B2B842EFDB8AF8225028
:10436000002350468AF81E501A4613E002EBC2069C
:1043700006EB021601EB860C9CF80260012E07D1B9
:10438000867F761C8677DCF81C609E4200DDB3B227
:10439000521CD2B2BA42E9DB00F12C004FF000020D
:1043A000C384644B457000F82C49B3F90030A3F185
:1043B000050611E002EBC20C0CEB021C01EB8C0CAD
:1043C000DCF828C09C4501DB80F82D40B44501DBBA
:1043D00080F82C50521CD2B2BA42EBDB90F82D1070
:1043E00001290BD090F82E10002905D090F82C1040
:1043F000002901D08AF82E50BDE8F88F8AF82E40A7
:10440000FAE770B54C480A214C4D0368002428682F
:10441000B3FBF1F2B0FBF1F64948B2420AD102789F
:104420000F2A01D2521C0270D0B20A2803D3454889
:10443000036000E004702B604348444BB0F9002057
:10444000B3F90000B2FBF1F5B0FBF1F140488D4249
:104450000AD101780F2901D2491C0170C8B20A287B
:1044600003D33C48028000E004701A8070BD70479E
:104470002DE9F041804600EBC001284801EB08110E
:1044800010F82120032A44D100EB810494F8425013
:10449000A807B4F9460010D54FF4966188421ADA9D
:1044A000401C00B2A4F84600884214DBA4F8461071
:1044B0006078C0070FD1012209E060B1401E00B250
:1044C000A4F8460038B96078C00704D00022002163
:1044D000404602F09DFE2807B4F948004FF00A0755
:1044E0004FF0000638D50A2849DA401C00B2A4F87B
:1044F00048000A2843DBA4F848706078800704D499
:1045000001221146404602F083FE4046FFF798F92B
:1045100035E0CFE0F601001004000010EC3A001086
:1045200064C107200401001008C507209AC00720B5
:1045300042C507200EC10720DC01001024C507205A
:10454000E201001018C30720E001001028C5072071
:104550002AC507205EC2072000280DDDA0F101005A
:1045600000B2A4F8480050B94FF000024FF001012A
:10457000404602F04DFE02E001DAA4F84860E80689
:10458000B4F94A0015D50A281EDA401C00B2A4F876
:104590004A000A2818DBA4F84A706078400704D45F
:1045A00001220221404602F033FE4046FFF748F95F
:1045B0000AE048B1401E00B2A4F84A0020B9002227
:1045C0000221404602F024FEFC48FD4AE169B0F9B0
:1045D0000000B2F90020801A814218DAA078012880
:1045E00022D1B4F94C004FF4967188420CDA401C89
:1045F00000B2A4F84C00884216DBA4F84C10607896
:10460000400711D401220BE0A4F84C600CE0B4F98F
:104610004C0048B1401E00B2A4F84C0020B9002262
:104620000221404602F0F4FD6078000701D004202A
:1046300011E0E448007820B1E078142801D9052081
:1046400009E094F84200800601D5022003E0E078FA
:10465000142801D20120A070E0780A2894F82C00D8
:1046600002D340F0800001E000F07F0084F82C00CD
:10467000D54890F8301039B194F82C1041F002016F
:1046800084F82C1066700CE094F86210002994F8FD
:104690002C1002D041F0020101E001F0FD0184F88C
:1046A0002C10B4F95410B0F93200084420634FF4D0
:1046B0007A706063BDE8F08170B5C4490020C44DD4
:1046C000B1F90C200121034601FA00F4224201D085
:1046D000295400E02B54401CC0B20C28F4D3BD4C2C
:1046E0002878BD4E217881420CD0B6F900100129FE
:1046F00008DB01287ED0002301220B21B7A000BFD8
:1047000031F03AFE6178687881420BD0B6F900103A
:10471000022907DB01286ED0002302220B21B4A05E
:1047200031F02AFEA178A87881420BD0B6F90010AA
:10473000032907DB01287CD0002303220B21B1A031
:1047400031F01AFEE178E87881420BD0B6F900101A
:10475000042907DB012872D0002304220B21AEA01C
:1047600031F00AFE2179287981420BD0B6F9001088
:10477000052907DB012867D0002305220B21ABA008
:1047800031F0FAFD6179687981420BD0B6F90010F9
:10479000062907DB01285CD0002306220B21A8A0F4
:1047A00031F0EAFDA179A87981420BD0B6F9001069
:1047B000072907DB012851D0002307220B21A5A0E0
:1047C00031F0DAFDE179E87981420BD0B6F90010D9
:1047D000082907DB012846D0002308220B21A2A0CC
:1047E00031F0CAFD217A287A81420FD0B6F9001043
:1047F000092901E013E017E008DB012838D0002385
:1048000009220B219DA000BF31F0B6FD0020295CDC
:104810002154401CC0B20C28F9D370BD09E001231B
:104820001A460B219AA06BE7012302220B219DA0BF
:1048300076E7012303220B219FA081E7FFE70123F5
:1048400004220B21A1A08BE7012305220B21A4A0A8
:1048500096E7012306220B21A6A0A1E70123072248
:104860000B21A9A0ACE7012308220B21ABA0B7E7DD
:10487000012309220B21AEA0C6E770B5C820FBF7C3
:10488000B6FCB0490022A0B3AF4C01232068C92870
:1048900003D0CA28104611D02CE0002000EB4004C1
:1048A00004EB001411F82450322D02D26D1C01F8D3
:1048B0002450401CC0B20228F0D325E0D4F80450A4
:1048C00003FA00F4254200EB400409D004EB001683
:1048D00011F82640322C07D2641C01F8264003E070
:1048E00004EB001401F82420401CC0B20228E7D3D6
:1048F0000AE01FE000EB400404EB0014401CC0B2CF
:1049000001F824200228F5D35FF0000000EB4004FA
:1049100004EB001411F8245001EB8404142D02D987
:1049200084F83C3001E084F83C20401CC0B20228EE
:10493000ECD372E700EB400303EB0013401C01F8DB
:10494000232001EB8303C0B283F83C200228F1D37B
:1049500063E72DE9F84FDFF8FCA17C4E0021BAF99E
:104960000020B6F900307A4C08464FF0010C0227BF
:104970000D469146984207DB00EB400202EB001225
:1049800004EB82029584EAE0B9F1000F07D100EB55
:10499000400202EB001204EB8202A2F824C000EBFA
:1049A000400202EB001204EB8202B2F81E80B8F162
:1049B000000F01D09784D2E0CEE000000AC10720AA
:1049C00030C107207EC0072004000010C4E9072082
:1049D00092540010D8E907206EC107204176746F09
:1049E0006D6174202331206973204F46460000001A
:1049F0004176746F6D6174202332206973204F46B5
:104A0000460000004176746F6D6174202333206985
:104A100073204F46460000004176746F6D6174202C
:104A20002334206973204F46460000004176746F9E
:104A30006D6174202335206973204F4646000000C5
:104A40004176746F6D6174202336206973204F4660
:104A5000460000004176746F6D6174202337206931
:104A600073204F46460000004176746F6D617420DC
:104A70002338206973204F46460000004176746F4A
:104A80006D6174202339206973204F464600000071
:104A90004176746F6D6174202331206973204F4E0D
:104AA000200000004176746F6D617420233220690C
:104AB00073204F4E200000004176746F6D617420AA
:104AC0002333206973204F4E200000004176746F1D
:104AD0006D6174202334206973204F4E2000000044
:104AE0004176746F6D6174202335206973204F4EB9
:104AF000200000004176746F6D61742023362069B8
:104B000073204F4E200000004176746F6D61742059
:104B10002337206973204F4E200000004176746FC8
:104B20006D6174202338206973204F4E20000000EF
:104B30004176746F6D6174202339206973204F4E64
:104B400020000000643800100401001062C107203A
:104B5000F0390010C4010010491C9584C9B2401CF2
:104B6000C0B20328FFF406AFFF485FF000070180E2
:104B7000B6F90000B84208DD07EB470000EB07106C
:104B800004EB80008046808C70B307EB470000EB9D
:104B9000071004EB800005877F1CFFB2032FE7D3CB
:104BA000B6F900200020904207DC00EB400101EB49
:104BB000001104EB8101898C51B100EB400101EB44
:104BC000001104EB81014D810D818D804D820D829C
:104BD000401CC0B20328E6D3BAF90000002802D076
:104BE000401EAAF8000007E4B8F910100A2291FB51
:104BF000F2F1B8F81200642200EB8000400000B22D
:104C000090FBF1F0ADF8000000216846FBF742FB95
:104C1000BDF80010A8F83810BEE72DE9F05FD348C2
:104C2000DFF84C831421B0F90040D248B8F90220D3
:104C3000B8F9005043780678CF4814B1012C03D05E
:104C400005E0028013B902E0058006B10180CB4C7B
:104C5000B4F90070CA4C17B1012F03D005E02280CF
:104C600013B902E0258006B12180C649C64B002653
:104C700009881980C5490988C1B9C549C54DB1F927
:104C80000020C549002AB1F9001003DDB5F93870DC
:104C90008F420BDB012A03DDB5F984708F4205DBFF
:104CA000022A04DDB5F9D0208A4200DA1E80BB4D0D
:104CB0008146B0F90010B3F90020B5F90000914227
:104CC00001DA401C05E0B64AB2F90020914201DD4C
:104CD000401E28800A220021B048FBF7DBFAB5F914
:104CE0000000B0490127092801DD0F7002E001280A
:104CF00000DA0E70AC4AB4F90000AD4DB2F90030E4
:104D0000AA4A984200DA2E7004DDB2F900309842C7
:104D100000DA2F70B2F90030A64A984205DDB2F9E8
:104D20000030984201DA02232B70B2F90030A24A17
:104D3000984205DDB2F90030984201DA03232B7066
:104D4000B2F900309D4A4FF0040B984205DDB2F9EC
:104D50000030984201DA85F800B0B2F900204FF037
:104D6000050A904201DD85F800A00878012800D1ED
:104D70002E70B8F80010B8F80200081A00B2FBF75D
:104D8000BFFA8F49904CB1F900208E49904200DA69
:104D9000267004DDB1F90020904200DA2770B1F9E5
:104DA00000208A49904205DDB1F90020904201DAE5
:104DB00002222270B1F900208549904205DDB1F947
:104DC0000020904201DA03222270B1F900208149CB
:104DD000904205DDB1F90020904201DA84F800B07C
:104DE000B1F90010884201DD84F800A005220021FD
:104DF0006F48FBF744FA052200217348FBF73FFA9E
:104E0000287800B12070D320FBF7F1F9DFF8C881D2
:104E100030B1D8F80010732902D1D8F804002070FE
:104E2000D320FBF7E4F930B1D8F80010742902D18F
:104E3000D8F804002870217828780143674801D009
:104E4000077000E00670B9F900106FF013026448B3
:104E50004C4691420DDA90F900103C2919DA491CB0
:104E600049B201703C2914D101231A4614215DA0D6
:104E70000DE091420DDD90F90010002909DD491E79
:104E800049B2017029B900230122142161A031F037
:104E900073FAB4F900106D4841290DDD90F9001046
:104EA0003C2918DA491C49B201703C2913D101236D
:104EB0000222142166A00CE00DDA90F900100029FE
:104EC00009DD491E49B2017029B9002302221421CB
:104ED0006BA031F051FA2A48B0F900107548462904
:104EE0000DDD90F900103C291BDA491C49B2017014
:104EF0003C2916D10123032214216FA00DE010DA02
:104F000090F9001000290CDD491E49B201700029FA
:104F100007D100230322142172A0BDE8F05F31F015
:104F20002BBABDE8F09F2DE9FE4F0546794830F9D0
:104F3000151011B1491E20F815107649091D31F9D7
:104F4000152012B1521E21F8152005EB4502724BB7
:104F500002EB051203EB8204704B0292B4F90820B5
:104F6000B3F900309A42DBE0FAC407206EC2072092
:104F70005AC30720C5C207204AC2072070C20720B3
:104F80004CC2072072C2072066C20720C20100106F
:104F900062C10720F039001076C2072064C20720E2
:104FA00074C2072032C0072078C207207AC20720C7
:104FB0007FC007207CC207207EC2072080C2072056
:104FC00082C2072084C2072080C0072086C2072033
:104FD00088C207208AC207200401001031C00720C0
:104FE000E301001054656D7065726174757265201F
:104FF00061742074686520626F74746F6D206F66D1
:1050000020626F782069732062656C6F77202D3283
:105010003000000054656D706572617475726520B2
:1050200061742074686520626F74746F6D206F66A0
:1050300020626F782069732062656C6F77202D3253
:10504000302020636C656172000000002BC50720D2
:1050500054656D7065726174757265206174207439
:10506000686520626F74746F6D206F6620626F7860
:105070002069732061626F7665203635000000007C
:1050800054656D7065726174757265206174207409
:10509000686520626F74746F6D206F6620626F7830
:1050A0002069732061626F766520363520636C65F8
:1050B00061720000E401001054656D7065726174E6
:1050C0007572652061742074686520746F70206F3C
:1050D0006620626F782069732061626F7665203781
:1050E0003000000054656D706572617475726520E2
:1050F00061742074686520746F70206F6620626F21
:10510000782069732061626F766520373020636C88
:1051100065617200B00000106438001024C10720DF
:1051200002DD642320F81530002A02DA642221F817
:10513000152030F81530FF4A00264BB131F81530F4
:1051400033B1B2F87830B3B140F6B830A2F8760097
:10515000A2F8766094F83E00401CC0B284F83E008D
:105160000A2801D384F83E60F34FDFF8D0833888F3
:10517000322809D017E04FF41673A2F8783020F8DF
:10518000156021F81560E3E794F83C00F8B9B4F92C
:10519000020050281BDA94F83D00C00717D1012106
:1051A000284602F06CFBB7F90000C8280FDDB4F9FF
:1051B0000800FBF7A5F8B8F90010884207DD94F85D
:1051C0003D00C00703D00021284602F058FBDB4811
:1051D000B4F90810B0F900004042814212DD607B52
:1051E0000A280CD2401CC0B260730A2875D3A07B79
:1051F000002872D0A673284602F0FEF96DE00A205E
:1052000060736AE069DA607BF0B3401E10F0FF0063
:10521000607362D1A07BB8BB0120A073C848C94F9E
:105220000088401C00F0070004EB4000008CADF843
:105230000400B88B8DF800004FF063024FF00101BD
:105240006846FBF71CF804F11C049DF8000020766A
:10525000387E8DF800004FF00C024FF001016846D7
:10526000FBF70DF89DF800006076387B8DF80000A4
:105270001F2201216846FBF702F89DF80000A07686
:105280009DF80400E07600E027E0387A8DF8000011
:10529000172200216846FAF7F2FF9DF800002077F8
:1052A00038798DF800003B2200216846FAF7E7FFC5
:1052B0009DF80000607738788DF800003B220021CF
:1052C0006846FAF7DCFF9DF80000A0779DF805001E
:1052D000E07726806680A4F11C0448F6A04894F884
:1052E0003E0088BBB4F908106069DFF85CA208448E
:1052F000DFF8589245F2555B6061404525DB39F98E
:1053000015205A4503D1924830F8157001E039F85C
:1053100015703AF8150035F0D3F880B2B8420AD2C9
:10532000616900F10100A1F50041A1F54A616161E7
:105330003AF915202BE031D93AF9150039B235F098
:10534000B3F9C4F8148029E04EE08249884225DC94
:1053500039F915205A4503D17D4830F8157001E020
:1053600039F815703AF8150035F0AAF880B2B8424D
:1053700005D93AF9150039B235F096F9384658B1E1
:105380006269401E02EB080161613AF9152001B221
:10539000104635F089F901E06E4860613AF8150071
:1053A00035F08EF8014639F91500584502D16848A4
:1053B00030F915004FF47A72514308B1B1FBF0F0A7
:1053C0000A21B0FBF1F0208263480088012805D152
:1053D0006249029801EB8000408A208204F11000AB
:1053E00064220021FAF756FFA07B012813D1A08B7D
:1053F0004746B8420ED2B4F90800FAF781FFA18BF4
:10540000084480B2A083B84205D3A683E08B401C39
:10541000E08300E0A6835249B4F90A00B1F9001014
:10542000884201DD207B80B3B4F84000B0F1010078
:10543000A4F840004FF4167904F140004A460021D8
:10544000FAF728FFB4F9400040F24E27B84205DBD6
:1054500094F83F1041F0010184F83F100A2805DC60
:1054600094F83F0020F0010084F83F0094F83F00DA
:10547000C10710D0C0061AD40121284602F047FB0C
:1054800094F83F00C00706D011E0FFE7B4F84000F1
:1054900000F10100CCE794F83F00C0060CD50021D4
:1054A000284602F034FB94F83F00C00704D094F87B
:1054B0003F0040F0100003E094F83F0020F010009F
:1054C000284984F83F00B4F90A00B1F90010884275
:1054D00001DD207B68B3B4F84200401EA4F842000E
:1054E00004F142004A460021FAF7D4FEB4F9420022
:1054F000B84205DB94F83F1041F0020184F83F10F8
:105500000A2805DC94F83F0020F0020084F83F00F0
:1055100094F83F00810709D580062FD4032128463F
:1055200002F0F5FA94F83F00800727D494F83F0082
:105530001AE028E00400001098C007201AC10720D4
:10554000F6C407202040024098830400F0C20720E0
:10555000E8C207206073FFFF5CC10720F03900102C
:1055600036C1072034C10720800610D50221284605
:1055700002F0CDFA94F83F00800708D594F83F0078
:1055800040F0200007E0B4F84200401CA6E794F881
:105590003F0020F0200084F83F00606C404510DAA6
:1055A000401C606440450DDB6664FF4E36F8150014
:1055B00034F086FF401C01B236F9150035F074F85E
:1055C00000E06664F94E3088002854D0F848B0F9FD
:1055D00000004845B4F9020004DAC11700EB9170ED
:1055E000801003E0052190FBF1F000B2A188C1EB2F
:1055F000400000B2FAF784FE00EB8000400000B2E9
:105600000C2190FBF1F000B2E080B6F90010884266
:1056100033DDB4F90800FAF773FEE649B1F900107A
:1056200001EB8101884228DAE3487321B0F90000D8
:105630004843642190FBF1F0B4F9021000B28842B3
:105640001BDA94F83D00800717D4B4F84800401CDA
:1056500000B2A0F53061A4F84800B83903D10121A7
:10566000284602F0EBFBB4F9481040F6BD30814209
:1056700001DBA4F84800BDE8FE8FB4F9480000281B
:10568000F9D0401E00B2A4F848000028F3D103B0BE
:105690002846BDE8F04F002102F0D0BB2DE9FF5FA6
:1056A000C64CC74EDFF81C932078DFF81CA30025FA
:1056B0004FF0640B01281FD199F80000012801D098
:1056C0003C2030700A230022E621E120FAF758FD41
:1056D000BE48B0F90010BAF90000421E914204DB46
:1056E000401C814201DC02202070307820B1401E35
:1056F00010F0FF0030700AD02078DFF8D4C2DFF855
:10570000D482B54F02280AD003285CD0C2E0B34847
:10571000257002210170B24981F800B0BAE0BAF9EF
:105720000020652102FB01F0B0FBFBF302EB42100D
:1057300000EB4000B0FBFBF0ACF80030A8F8000034
:1057400099F80000E246C346022801D03C203070A0
:105750000A23BF21BE20FAF713FD0A230022E62107
:10576000E120FAF70DFDA049BAF900800020DFF82A
:1057700074A2BBF90020B1F9001010E000EBC003E7
:1057800003EB001C0AEB8C03DB69434501DA93420F
:1057900003DC9349401C087008E0401CC0B28842FA
:1057A000ECDB0320207091483D70057030780028B4
:1057B00070D0401E10F0FF0030706BD1874925700B
:1057C0000220087066E0BAF90020652102FB01F0B2
:1057D000B0FBFBF0ACF8000002EB421000EB400025
:1057E000B0FBFBF0A8F8000099F80000E246C346C1
:1057F000032800D03D700A23BF21BE20FAF7C0FC69
:105800000A230022E621E120FAF7BAFCBAF9008067
:105810005946DFF8D4A10126B1F900200020DFF8B5
:10582000C4B1BAF900100EE000EBC00303EB001C9A
:105830000BEB8C03DB69434501DA934201DC002664
:1058400003E0401CC0B28842EEDBD720FAF7AFFC81
:1058500078B167480068D9280BD13878401CC1B2AC
:105860003970BAF90000814203DB5C4925700320DE
:105870000870012E0ED1EE20CDE9000502950395AA
:1058800039780346162208463AF06FFE57480178E9
:10589000491C0170217889F80010BDE8FF9F2DE9AF
:1058A000F05F544C0026A07B0A2807D2401CC0B2EF
:1058B000A0730A2802D3A67301202074E07B052878
:1058C00005D2401CC0B2E073052800D1E673BE20AB
:1058D000FAF78DFC484D28B145480168BF2917D11A
:1058E0004068BFE0207C002812D044482674444E13
:1058F000B0F90000434FDFF8108150B1DFF8B090ED
:10590000DFF808A101282FD002284BD003284AD065
:10591000F4E03F493F480A7B0AB114210AE0B1F99B
:105920000A100160002902DAB6F9000012E0282905
:1059300001DD282101603849B6F900200068B1F97D
:105940000010891A01EB810149004143C82091FBF5
:10595000F0F0104494F82310022904D13978012979
:1059600001D1B8F900007DE01E2201212748FAF795
:1059700091FCDFF8A8B0BAF80000BBF800100844AA
:105980002880B6F9002000211B48FAF783FC224842
:105990000021B0F900201848FAF77CFC4FF4077298
:1059A00000213DE050E05FE0B483040038C10720EF
:1059B00026C107201AC1072012C1072038C00720BE
:1059C00095C00720D2C407202EC107202CC2072073
:1059D000BEC20720C0C2072093C0072039C00720DD
:1059E00049C50720EC3A001064C1072094C0072085
:1059F00004010010040000104EC207205CC1072003
:105A000008C10720C8C207201CC10720F2C4072014
:105A1000643800100CC507200AC10720D43A0010D2
:105A2000FE48FAF737FC9BF80D00022802D0B9F8BF
:105A30000000288094F8230002285FD138780128DC
:105A40005CD1B8F800000DE0B9F80000288094F8A7
:105A50002300022805D13878012802D1B8F80000C7
:105A600028803088288049E0B9F80000288094F820
:105A70002300022805D13878012802D1B8F80000A7
:105A800028801E220121E648FAF704FCE548008838
:105A900060B1E548E64A00210088DFF890C3401E67
:105AA00000B2BAF90040B2F9003015E0B9F80000D0
:105AB00017E000BF00EB400202EB00120CEB820289
:105AC000978C17B9178927442F80B2F934209A424E
:105AD00000DA0121401E00B20028EBDA11B9D548E6
